{
  "_format": "hh-sol-artifact-1",
  "contractName": "AKXEcosystem",
  "sourceName": "contracts/AKX.sol",
  "abi": [
    {
      "inputs": [
        {
          "internalType": "address[6]",
          "name": "_contracts",
          "type": "address[6]"
        }
      ],
      "stateMutability": "nonpayable",
      "type": "constructor"
    },
    {
      "inputs": [],
      "name": "AuthenticationFailed",
      "type": "error"
    },
    {
      "inputs": [],
      "name": "InvalidAddress",
      "type": "error"
    },
    {
      "inputs": [],
      "name": "MaxTryReach",
      "type": "error"
    },
    {
      "anonymous": false,
      "inputs": [
        {
          "indexed": false,
          "internalType": "address",
          "name": "_owner",
          "type": "address"
        }
      ],
      "name": "AddedToNoBanWLEvent",
      "type": "event"
    },
    {
      "anonymous": false,
      "inputs": [
        {
          "indexed": false,
          "internalType": "address",
          "name": "_owner",
          "type": "address"
        },
        {
          "indexed": false,
          "internalType": "bool",
          "name": "result",
          "type": "bool"
        },
        {
          "indexed": false,
          "internalType": "bytes",
          "name": "data",
          "type": "bytes"
        }
      ],
      "name": "Authenticated",
      "type": "event"
    },
    {
      "anonymous": false,
      "inputs": [
        {
          "indexed": false,
          "internalType": "address",
          "name": "_owner",
          "type": "address"
        }
      ],
      "name": "Authenticating",
      "type": "event"
    },
    {
      "anonymous": false,
      "inputs": [
        {
          "indexed": true,
          "internalType": "bytes32",
          "name": "role",
          "type": "bytes32"
        },
        {
          "indexed": true,
          "internalType": "bytes32",
          "name": "previousAdminRole",
          "type": "bytes32"
        },
        {
          "indexed": true,
          "internalType": "bytes32",
          "name": "newAdminRole",
          "type": "bytes32"
        }
      ],
      "name": "RoleAdminChanged",
      "type": "event"
    },
    {
      "anonymous": false,
      "inputs": [
        {
          "indexed": true,
          "internalType": "bytes32",
          "name": "role",
          "type": "bytes32"
        },
        {
          "indexed": true,
          "internalType": "address",
          "name": "account",
          "type": "address"
        },
        {
          "indexed": true,
          "internalType": "address",
          "name": "sender",
          "type": "address"
        }
      ],
      "name": "RoleGranted",
      "type": "event"
    },
    {
      "anonymous": false,
      "inputs": [
        {
          "indexed": true,
          "internalType": "bytes32",
          "name": "role",
          "type": "bytes32"
        },
        {
          "indexed": true,
          "internalType": "address",
          "name": "account",
          "type": "address"
        },
        {
          "indexed": true,
          "internalType": "address",
          "name": "sender",
          "type": "address"
        }
      ],
      "name": "RoleRevoked",
      "type": "event"
    },
    {
      "inputs": [],
      "name": "AKX_HOLDER_ROLE",
      "outputs": [
        {
          "internalType": "bytes32",
          "name": "",
          "type": "bytes32"
        }
      ],
      "stateMutability": "view",
      "type": "function"
    },
    {
      "inputs": [],
      "name": "AKX_OPERATOR_ROLE",
      "outputs": [
        {
          "internalType": "bytes32",
          "name": "",
          "type": "bytes32"
        }
      ],
      "stateMutability": "view",
      "type": "function"
    },
    {
      "inputs": [],
      "name": "CURRENT_STATE",
      "outputs": [
        {
          "internalType": "bytes32",
          "name": "",
          "type": "bytes32"
        }
      ],
      "stateMutability": "view",
      "type": "function"
    },
    {
      "inputs": [],
      "name": "DAO_ROLE",
      "outputs": [
        {
          "internalType": "bytes32",
          "name": "",
          "type": "bytes32"
        }
      ],
      "stateMutability": "view",
      "type": "function"
    },
    {
      "inputs": [],
      "name": "DEFAULT_ADMIN_ROLE",
      "outputs": [
        {
          "internalType": "bytes32",
          "name": "",
          "type": "bytes32"
        }
      ],
      "stateMutability": "view",
      "type": "function"
    },
    {
      "inputs": [
        {
          "internalType": "address",
          "name": "token",
          "type": "address"
        }
      ],
      "name": "DexToken",
      "outputs": [
        {
          "internalType": "contract IERC2055",
          "name": "",
          "type": "address"
        }
      ],
      "stateMutability": "pure",
      "type": "function"
    },
    {
      "inputs": [],
      "name": "EthDIDRegistry",
      "outputs": [
        {
          "internalType": "contract DidRegistry",
          "name": "",
          "type": "address"
        }
      ],
      "stateMutability": "view",
      "type": "function"
    },
    {
      "inputs": [],
      "name": "LABZ_HOLDER_ROLE",
      "outputs": [
        {
          "internalType": "bytes32",
          "name": "",
          "type": "bytes32"
        }
      ],
      "stateMutability": "view",
      "type": "function"
    },
    {
      "inputs": [],
      "name": "LABZ_OPERATOR_ROLE",
      "outputs": [
        {
          "internalType": "bytes32",
          "name": "",
          "type": "bytes32"
        }
      ],
      "stateMutability": "view",
      "type": "function"
    },
    {
      "inputs": [],
      "name": "LabzToken",
      "outputs": [
        {
          "internalType": "contract LabzERC2055",
          "name": "",
          "type": "address"
        }
      ],
      "stateMutability": "view",
      "type": "function"
    },
    {
      "inputs": [],
      "name": "NEXT_STATE",
      "outputs": [
        {
          "internalType": "bytes32",
          "name": "",
          "type": "bytes32"
        }
      ],
      "stateMutability": "view",
      "type": "function"
    },
    {
      "inputs": [],
      "name": "NOHUMAN_STATE",
      "outputs": [
        {
          "internalType": "bytes32",
          "name": "",
          "type": "bytes32"
        }
      ],
      "stateMutability": "view",
      "type": "function"
    },
    {
      "inputs": [],
      "name": "PAUSED_STATE",
      "outputs": [
        {
          "internalType": "bytes32",
          "name": "",
          "type": "bytes32"
        }
      ],
      "stateMutability": "view",
      "type": "function"
    },
    {
      "inputs": [],
      "name": "PREV_STATE",
      "outputs": [
        {
          "internalType": "bytes32",
          "name": "",
          "type": "bytes32"
        }
      ],
      "stateMutability": "view",
      "type": "function"
    },
    {
      "inputs": [],
      "name": "PUBLIC_STATE",
      "outputs": [
        {
          "internalType": "bytes32",
          "name": "",
          "type": "bytes32"
        }
      ],
      "stateMutability": "view",
      "type": "function"
    },
    {
      "inputs": [],
      "name": "UDS_OPERATOR_ROLE",
      "outputs": [
        {
          "internalType": "bytes32",
          "name": "",
          "type": "bytes32"
        }
      ],
      "stateMutability": "view",
      "type": "function"
    },
    {
      "inputs": [],
      "name": "UPGRADER_OPERATOR_ROLE",
      "outputs": [
        {
          "internalType": "bytes32",
          "name": "",
          "type": "bytes32"
        }
      ],
      "stateMutability": "view",
      "type": "function"
    },
    {
      "inputs": [],
      "name": "UserDataService",
      "outputs": [
        {
          "internalType": "contract UserDataServiceResolver",
          "name": "",
          "type": "address"
        }
      ],
      "stateMutability": "view",
      "type": "function"
    },
    {
      "inputs": [],
      "name": "VIP_SALE_STATE",
      "outputs": [
        {
          "internalType": "bytes32",
          "name": "",
          "type": "bytes32"
        }
      ],
      "stateMutability": "view",
      "type": "function"
    },
    {
      "inputs": [],
      "name": "__AKX_Ecosystem_init",
      "outputs": [],
      "stateMutability": "nonpayable",
      "type": "function"
    },
    {
      "inputs": [
        {
          "internalType": "address",
          "name": "_udsr",
          "type": "address"
        }
      ],
      "name": "authenticate",
      "outputs": [
        {
          "internalType": "bool",
          "name": "",
          "type": "bool"
        }
      ],
      "stateMutability": "nonpayable",
      "type": "function"
    },
    {
      "inputs": [],
      "name": "disconnect",
      "outputs": [
        {
          "internalType": "bool",
          "name": "",
          "type": "bool"
        }
      ],
      "stateMutability": "nonpayable",
      "type": "function"
    },
    {
      "inputs": [],
      "name": "getFounders",
      "outputs": [
        {
          "internalType": "address[]",
          "name": "",
          "type": "address[]"
        }
      ],
      "stateMutability": "view",
      "type": "function"
    },
    {
      "inputs": [],
      "name": "getName",
      "outputs": [
        {
          "internalType": "string",
          "name": "",
          "type": "string"
        }
      ],
      "stateMutability": "view",
      "type": "function"
    },
    {
      "inputs": [
        {
          "internalType": "bytes32",
          "name": "role",
          "type": "bytes32"
        }
      ],
      "name": "getRoleAdmin",
      "outputs": [
        {
          "internalType": "bytes32",
          "name": "",
          "type": "bytes32"
        }
      ],
      "stateMutability": "view",
      "type": "function"
    },
    {
      "inputs": [
        {
          "internalType": "bytes32",
          "name": "role",
          "type": "bytes32"
        },
        {
          "internalType": "uint256",
          "name": "index",
          "type": "uint256"
        }
      ],
      "name": "getRoleMember",
      "outputs": [
        {
          "internalType": "address",
          "name": "",
          "type": "address"
        }
      ],
      "stateMutability": "view",
      "type": "function"
    },
    {
      "inputs": [
        {
          "internalType": "bytes32",
          "name": "role",
          "type": "bytes32"
        }
      ],
      "name": "getRoleMemberCount",
      "outputs": [
        {
          "internalType": "uint256",
          "name": "",
          "type": "uint256"
        }
      ],
      "stateMutability": "view",
      "type": "function"
    },
    {
      "inputs": [],
      "name": "getVersion",
      "outputs": [
        {
          "internalType": "string",
          "name": "",
          "type": "string"
        }
      ],
      "stateMutability": "view",
      "type": "function"
    },
    {
      "inputs": [
        {
          "internalType": "bytes32",
          "name": "role",
          "type": "bytes32"
        },
        {
          "internalType": "address",
          "name": "account",
          "type": "address"
        }
      ],
      "name": "grantRole",
      "outputs": [],
      "stateMutability": "nonpayable",
      "type": "function"
    },
    {
      "inputs": [
        {
          "internalType": "bytes32",
          "name": "role",
          "type": "bytes32"
        },
        {
          "internalType": "address",
          "name": "account",
          "type": "address"
        }
      ],
      "name": "hasRole",
      "outputs": [
        {
          "internalType": "bool",
          "name": "",
          "type": "bool"
        }
      ],
      "stateMutability": "view",
      "type": "function"
    },
    {
      "inputs": [
        {
          "internalType": "address",
          "name": "ethrdid",
          "type": "address"
        },
        {
          "internalType": "address",
          "name": "labztoken",
          "type": "address"
        },
        {
          "internalType": "address",
          "name": "uds",
          "type": "address"
        },
        {
          "internalType": "address",
          "name": "dex",
          "type": "address"
        },
        {
          "internalType": "address",
          "name": "gov",
          "type": "address"
        },
        {
          "internalType": "address",
          "name": "akxtoken",
          "type": "address"
        }
      ],
      "name": "initialize",
      "outputs": [],
      "stateMutability": "nonpayable",
      "type": "function"
    },
    {
      "inputs": [
        {
          "internalType": "bytes32",
          "name": "role",
          "type": "bytes32"
        },
        {
          "internalType": "address",
          "name": "account",
          "type": "address"
        }
      ],
      "name": "renounceRole",
      "outputs": [],
      "stateMutability": "nonpayable",
      "type": "function"
    },
    {
      "inputs": [
        {
          "internalType": "bytes32",
          "name": "role",
          "type": "bytes32"
        },
        {
          "internalType": "address",
          "name": "account",
          "type": "address"
        }
      ],
      "name": "revokeRole",
      "outputs": [],
      "stateMutability": "nonpayable",
      "type": "function"
    },
    {
      "inputs": [
        {
          "internalType": "address",
          "name": "_daoAddress",
          "type": "address"
        }
      ],
      "name": "setDAOAsOwner",
      "outputs": [],
      "stateMutability": "nonpayable",
      "type": "function"
    },
    {
      "inputs": [
        {
          "internalType": "address[]",
          "name": "_founders",
          "type": "address[]"
        }
      ],
      "name": "setFoundersAddresses",
      "outputs": [],
      "stateMutability": "nonpayable",
      "type": "function"
    },
    {
      "inputs": [
        {
          "internalType": "address",
          "name": "_multi",
          "type": "address"
        }
      ],
      "name": "setMultiSignatureWallet",
      "outputs": [],
      "stateMutability": "nonpayable",
      "type": "function"
    },
    {
      "inputs": [
        {
          "internalType": "bytes4",
          "name": "interfaceId",
          "type": "bytes4"
        }
      ],
      "name": "supportsInterface",
      "outputs": [
        {
          "internalType": "bool",
          "name": "",
          "type": "bool"
        }
      ],
      "stateMutability": "view",
      "type": "function"
    },
    {
      "inputs": [
        {
          "internalType": "uint256",
          "name": "_value",
          "type": "uint256"
        }
      ],
      "name": "triggerNextStateAuto",
      "outputs": [],
      "stateMutability": "nonpayable",
      "type": "function"
    }
  ],
  "bytecode": "0x60806040527f273c9b9e627536531baf7c70b45099f972c1014c45d60348bf6802caf6bcc8b3600960006101000a81548163ffffffff021916908360e01c02179055503480156200004f57600080fd5b50604051620048e4380380620048e4833981810160405281019062000075919062000b7a565b6200012d8160006006811062000090576200008f62000bac565b5b602002015182600160068110620000ac57620000ab62000bac565b5b602002015183600260068110620000c857620000c762000bac565b5b602002015184600360068110620000e457620000e362000bac565b5b6020020151856004600681106200010057620000ff62000bac565b5b6020020151866005600681106200011c576200011b62000bac565b5b60200201516200013460201b60201c565b5062000f90565b6001151560008054906101000a900460ff161515036200018b576040517f08c379a0000000000000000000000000000000000000000000000000000000008152600401620001829062000c3c565b60405180910390fd5b6200019c866200021960201b60201c565b620001ad856200025d60201b60201c565b620001be84620002a160201b60201c565b620001cf83620002e560201b60201c565b620001e0826200032960201b60201c565b620001f1816200036d60201b60201c565b62000201620003b160201b60201c565b62000211620005e760201b60201c565b505050505050565b80600060016101000a81548173ffffffffffffffffffffffffffffffffffffffff021916908373ffffffffffffffffffffffffffffffffffffffff16021790555050565b80600160006101000a81548173ffffffffffffffffffffffffffffffffffffffff021916908373ffffffffffffffffffffffffffffffffffffffff16021790555050565b80600260006101000a81548173ffffffffffffffffffffffffffffffffffffffff021916908373ffffffffffffffffffffffffffffffffffffffff16021790555050565b80600360006101000a81548173ffffffffffffffffffffffffffffffffffffffff021916908373ffffffffffffffffffffffffffffffffffffffff16021790555050565b80600460006101000a81548173ffffffffffffffffffffffffffffffffffffffff021916908373ffffffffffffffffffffffffffffffffffffffff16021790555050565b80600560006101000a81548173ffffffffffffffffffffffffffffffffffffffff021916908373ffffffffffffffffffffffffffffffffffffffff16021790555050565b6001151560008054906101000a900460ff1615150362000408576040517f08c379a0000000000000000000000000000000000000000000000000000000008152600401620003ff9062000c3c565b60405180910390fd5b6200041d6000801b336200065a60201b60201c565b6200044f7f49a42a47740a9060c9a9274a2a577b05376ac78e16f4e6059683e3adb436d2c4336200065a60201b60201c565b620004817f6e9bb4981ca89a568f24b088f34dfe92aec86372c31b92dd8293f290b2c8a98a336200065a60201b60201c565b620004b37f45df5b41bd8e4cc8346c23a7867d6a8b9e1b69ac7380e112c15f26a2f74b7a0c336200065a60201b60201c565b620004e57f49a42a47740a9060c9a9274a2a577b05376ac78e16f4e6059683e3adb436d2c4336200067060201b60201c565b620005177f6e9bb4981ca89a568f24b088f34dfe92aec86372c31b92dd8293f290b2c8a98a336200067060201b60201c565b620005497f45df5b41bd8e4cc8346c23a7867d6a8b9e1b69ac7380e112c15f26a2f74b7a0c336200067060201b60201c565b6200058f6040518060400160405280600581526020017f312e302e30000000000000000000000000000000000000000000000000000000815250620006b860201b60201c565b620005d56040518060400160405280600e81526020017f414b58332045434f53595354454d000000000000000000000000000000000000815250620006e460201b60201c565b620005e56200071060201b60201c565b565b6001151560008054906101000a900460ff161515036200063e576040517f08c379a0000000000000000000000000000000000000000000000000000000008152600401620006359062000c3c565b60405180910390fd5b60016000806101000a81548160ff021916908315150217905550565b6200066c82826200067060201b60201c565b5050565b6200068782826200076060201b620014e51760201c565b620006b381600b60008581526020019081526020016000206200085260201b620015c61790919060201c565b505050565b6000620006ca6200088a60201b60201c565b905081816007019081620006df919062000ea9565b505050565b6000620006f66200088a60201b60201c565b9050818160000190816200070b919062000ea9565b505050565b7fa25c642ce31814353cf588586ab4d6e7296b1f7a03467e40c1a8bb27b6a21b4a6006819055507f5ae641537dc09bcffcc43c19759c97bd0fcdb3a7a1eec718c18b562ce6820f70600781905550565b6200077282826200089360201b60201c565b6200084e576001600a600084815260200190815260200160002060000160008373ffffffffffffffffffffffffffffffffffffffff1673ffffffffffffffffffffffffffffffffffffffff16815260200190815260200160002060006101000a81548160ff021916908315150217905550620007f3620008fe60201b60201c565b73ffffffffffffffffffffffffffffffffffffffff168173ffffffffffffffffffffffffffffffffffffffff16837f2f8788117e7eff1d82e926ec794901d17c78024a50270940304540a733656f0d60405160405180910390a45b5050565b600062000882836000018373ffffffffffffffffffffffffffffffffffffffff1660001b6200090660201b60201c565b905092915050565b60006009905090565b6000600a600084815260200190815260200160002060000160008373ffffffffffffffffffffffffffffffffffffffff1673ffffffffffffffffffffffffffffffffffffffff16815260200190815260200160002060009054906101000a900460ff16905092915050565b600033905090565b60006200091a83836200098060201b60201c565b620009755782600001829080600181540180825580915050600190039060005260206000200160009091909190915055826000018054905083600101600084815260200190815260200160002081905550600190506200097a565b600090505b92915050565b600080836001016000848152602001908152602001600020541415905092915050565b6000604051905090565b600080fd5b600080fd5b6000601f19601f8301169050919050565b7f4e487b7100000000000000000000000000000000000000000000000000000000600052604160045260246000fd5b62000a0282620009b7565b810181811067ffffffffffffffff8211171562000a245762000a23620009c8565b5b80604052505050565b600062000a39620009a3565b905062000a478282620009f7565b919050565b600067ffffffffffffffff82111562000a6a5762000a69620009c8565b5b602082029050919050565b600080fd5b600073ffffffffffffffffffffffffffffffffffffffff82169050919050565b600062000aa78262000a7a565b9050919050565b62000ab98162000a9a565b811462000ac557600080fd5b50565b60008151905062000ad98162000aae565b92915050565b600062000af662000af08462000a4c565b62000a2d565b9050806020840283018581111562000b135762000b1262000a75565b5b835b8181101562000b40578062000b2b888262000ac8565b84526020840193505060208101905062000b15565b5050509392505050565b600082601f83011262000b625762000b61620009b2565b5b600662000b7184828562000adf565b91505092915050565b600060c0828403121562000b935762000b92620009ad565b5b600062000ba38482850162000b4a565b91505092915050565b7f4e487b7100000000000000000000000000000000000000000000000000000000600052603260045260246000fd5b600082825260208201905092915050565b7f616c726561647920696e697469616c697a656400000000000000000000000000600082015250565b600062000c2460138362000bdb565b915062000c318262000bec565b602082019050919050565b6000602082019050818103600083015262000c578162000c15565b9050919050565b600081519050919050565b7f4e487b7100000000000000000000000000000000000000000000000000000000600052602260045260246000fd5b6000600282049050600182168062000cb157607f821691505b60208210810362000cc75762000cc662000c69565b5b50919050565b60008190508160005260206000209050919050565b60006020601f8301049050919050565b600082821b905092915050565b60006008830262000d317fffffffffffffffffffffffffffffffffffffffffffffffffffffffffffffffff8262000cf2565b62000d3d868362000cf2565b95508019841693508086168417925050509392505050565b6000819050919050565b6000819050919050565b600062000d8a62000d8462000d7e8462000d55565b62000d5f565b62000d55565b9050919050565b6000819050919050565b62000da68362000d69565b62000dbe62000db58262000d91565b84845462000cff565b825550505050565b600090565b62000dd562000dc6565b62000de281848462000d9b565b505050565b5b8181101562000e0a5762000dfe60008262000dcb565b60018101905062000de8565b5050565b601f82111562000e595762000e238162000ccd565b62000e2e8462000ce2565b8101602085101562000e3e578190505b62000e5662000e4d8562000ce2565b83018262000de7565b50505b505050565b600082821c905092915050565b600062000e7e6000198460080262000e5e565b1980831691505092915050565b600062000e99838362000e6b565b9150826002028217905092915050565b62000eb48262000c5e565b67ffffffffffffffff81111562000ed05762000ecf620009c8565b5b62000edc825462000c98565b62000ee982828562000e0e565b600060209050601f83116001811462000f21576000841562000f0c578287015190505b62000f18858262000e8b565b86555062000f88565b601f19841662000f318662000ccd565b60005b8281101562000f5b5784890151825560018201915060208501945060208101905062000f34565b8683101562000f7b578489015162000f77601f89168262000e6b565b8355505b6001600288020188555050505b505050505050565b6139448062000fa06000396000f3fe608060405234801561001057600080fd5b50600436106102325760003560e01c8063a217fddf11610130578063ca15c873116100b8578063d841c53d1161007c578063d841c53d14610671578063d9374bff1461068d578063e9c26518146106ab578063eb15e947146106c9578063f5ad73ac146106e757610232565b8063ca15c873146105cd578063cbc3a8ba146105fd578063cc2a9a5b1461061b578063cf9be1cb14610637578063d547741f1461065557610232565b8063b73cdd19116100ff578063b73cdd1914610539578063ba1d9a7814610557578063bd60971314610575578063c4a13c1e14610591578063c79fe9e0146105af57610232565b8063a217fddf146104c1578063a5f021da146104df578063b2b98532146104fd578063b5a64a0a1461051b57610232565b806336568abe116101be5780638f78ef30116101825780638f78ef30146104075780639010d07c1461042557806391d14854146104555780639a75ec8614610485578063a09a0e59146104a357610232565b806336568abe146103895780634810ef5a146103a55780634881448a146103c357806362083649146103e15780637cdfb98f146103fd57610232565b806310e7e0321161020557806310e7e032146102d157806317d7de7c14610301578063248a9ca31461031f5780632f2ff15d1461034f5780633406e10d1461036b57610232565b806301ffc9a71461023757806306194f3f1461026757806308e0d29d146102835780630d8e6e2c146102b3575b600080fd5b610251600480360381019061024c91906126b4565b610705565b60405161025e91906126fc565b60405180910390f35b610281600480360381019061027c919061274d565b61077f565b005b61029d600480360381019061029891906127d8565b61091d565b6040516102aa91906126fc565b60405180910390f35b6102bb610b41565b6040516102c89190612895565b60405180910390f35b6102eb60048036038101906102e691906127d8565b610be2565b6040516102f89190612916565b60405180910390f35b610309610bec565b6040516103169190612895565b60405180910390f35b61033960048036038101906103349190612967565b610c8d565b60405161034691906129a3565b60405180910390f35b610369600480360381019061036491906129be565b610cad565b005b610373610cce565b6040516103809190612a31565b60405180910390f35b6103a3600480360381019061039e91906129be565b610cf8565b005b6103ad610d7b565b6040516103ba91906129a3565b60405180910390f35b6103cb610d9f565b6040516103d891906129a3565b60405180910390f35b6103fb60048036038101906103f69190612b94565b610dc3565b005b610405610dfa565b005b61040f610fdd565b60405161041c91906129a3565b60405180910390f35b61043f600480360381019061043a9190612bdd565b610fe3565b60405161044c9190612c2c565b60405180910390f35b61046f600480360381019061046a91906129be565b611012565b60405161047c91906126fc565b60405180910390f35b61048d61107d565b60405161049a91906129a3565b60405180910390f35b6104ab611083565b6040516104b891906129a3565b60405180910390f35b6104c96110a7565b6040516104d691906129a3565b60405180910390f35b6104e76110ae565b6040516104f491906129a3565b60405180910390f35b6105056110d2565b60405161051291906129a3565b60405180910390f35b6105236110f6565b60405161053091906129a3565b60405180910390f35b61054161111a565b60405161054e9190612d05565b60405180910390f35b61055f6111b7565b60405161056c91906129a3565b60405180910390f35b61058f600480360381019061058a91906127d8565b6111db565b005b610599611209565b6040516105a691906129a3565b60405180910390f35b6105b761122d565b6040516105c491906129a3565b60405180910390f35b6105e760048036038101906105e29190612967565b611251565b6040516105f49190612d36565b60405180910390f35b610605611275565b60405161061291906129a3565b60405180910390f35b61063560048036038101906106309190612d51565b61127b565b005b61063f61131d565b60405161064c9190612dff565b60405180910390f35b61066f600480360381019061066a91906129be565b611346565b005b61068b600480360381019061068691906127d8565b611367565b005b610695611413565b6040516106a291906126fc565b60405180910390f35b6106b3611473565b6040516106c091906129a3565b60405180910390f35b6106d1611497565b6040516106de91906129a3565b60405180910390f35b6106ef6114bb565b6040516106fc9190612e3b565b60405180910390f35b60007f5a05180f000000000000000000000000000000000000000000000000000000007bffffffffffffffffffffffffffffffffffffffffffffffffffffffff1916827bffffffffffffffffffffffffffffffffffffffffffffffffffffffff191614806107785750610777826115f6565b5b9050919050565b7f49a42a47740a9060c9a9274a2a577b05376ac78e16f4e6059683e3adb436d2c46107a981611670565b3073ffffffffffffffffffffffffffffffffffffffff163373ffffffffffffffffffffffffffffffffffffffff1614610817576040517f08c379a000000000000000000000000000000000000000000000000000000000815260040161080e90612ea2565b60405180910390fd5b8142111561082c57610827611684565b610919565b813073ffffffffffffffffffffffffffffffffffffffff16633406e10d6040518163ffffffff1660e01b8152600401602060405180830381865afa158015610878573d6000803e3d6000fd5b505050506040513d601f19601f8201168201806040525081019061089c9190612f12565b73ffffffffffffffffffffffffffffffffffffffff166318160ddd6040518163ffffffff1660e01b8152600401602060405180830381865afa1580156108e6573d6000803e3d6000fd5b505050506040513d601f19601f8201168201806040525081019061090a9190612f54565b0361091857610917611684565b5b5b5050565b60008073ffffffffffffffffffffffffffffffffffffffff163373ffffffffffffffffffffffffffffffffffffffff160361098d576040517f08c379a000000000000000000000000000000000000000000000000000000000815260040161098490612fcd565b60405180910390fd5b60011515601260003373ffffffffffffffffffffffffffffffffffffffff1673ffffffffffffffffffffffffffffffffffffffff16815260200190815260200160002060009054906101000a900460ff16151514610aa9576109ef3383611698565b6109f83361174c565b60008273ffffffffffffffffffffffffffffffffffffffff16637b510fe8336040518263ffffffff1660e01b8152600401610a339190612c2c565b60a060405180830381865afa158015610a50573d6000803e3d6000fd5b505050506040513d601f19601f82011682018060405250810190610a7491906130a8565b9050610a9f3382604051602001610a8b919061315b565b604051602081830303815290604052611a03565b6001915050610b3c565b60011515601260003373ffffffffffffffffffffffffffffffffffffffff1673ffffffffffffffffffffffffffffffffffffffff16815260200190815260200160002060009054906101000a900460ff16151503610b0a5760019050610b3c565b6040517f5e3c632500000000000000000000000000000000000000000000000000000000815260040160405180910390fd5b919050565b60606000610b4d611ae0565b9050806007018054610b5e906131a5565b80601f0160208091040260200160405190810160405280929190818152602001828054610b8a906131a5565b8015610bd75780601f10610bac57610100808354040283529160200191610bd7565b820191906000526020600020905b815481529060010190602001808311610bba57829003601f168201915b505050505091505090565b6000819050919050565b60606000610bf8611ae0565b9050806000018054610c09906131a5565b80601f0160208091040260200160405190810160405280929190818152602001828054610c35906131a5565b8015610c825780601f10610c5757610100808354040283529160200191610c82565b820191906000526020600020905b815481529060010190602001808311610c6557829003601f168201915b505050505091505090565b6000600a6000838152602001908152602001600020600101549050919050565b610cb682610c8d565b610cbf81611670565b610cc98383611ae9565b505050565b6000600160009054906101000a900473ffffffffffffffffffffffffffffffffffffffff16905090565b610d00611b1d565b73ffffffffffffffffffffffffffffffffffffffff168173ffffffffffffffffffffffffffffffffffffffff1614610d6d576040517f08c379a0000000000000000000000000000000000000000000000000000000008152600401610d6490613248565b60405180910390fd5b610d778282611b25565b5050565b7faeb9b6487fa57b220f432f633b0f05ef023335836190b143bdb445fa2cdd925881565b7f49a42a47740a9060c9a9274a2a577b05376ac78e16f4e6059683e3adb436d2c481565b7f49a42a47740a9060c9a9274a2a577b05376ac78e16f4e6059683e3adb436d2c4610ded81611670565b610df682611b59565b5050565b6001151560008054906101000a900460ff16151503610e4e576040517f08c379a0000000000000000000000000000000000000000000000000000000008152600401610e45906132b4565b60405180910390fd5b610e5b6000801b33611b82565b610e857f49a42a47740a9060c9a9274a2a577b05376ac78e16f4e6059683e3adb436d2c433611b82565b610eaf7f6e9bb4981ca89a568f24b088f34dfe92aec86372c31b92dd8293f290b2c8a98a33611b82565b610ed97f45df5b41bd8e4cc8346c23a7867d6a8b9e1b69ac7380e112c15f26a2f74b7a0c33611b82565b610f037f49a42a47740a9060c9a9274a2a577b05376ac78e16f4e6059683e3adb436d2c433611ae9565b610f2d7f6e9bb4981ca89a568f24b088f34dfe92aec86372c31b92dd8293f290b2c8a98a33611ae9565b610f577f45df5b41bd8e4cc8346c23a7867d6a8b9e1b69ac7380e112c15f26a2f74b7a0c33611ae9565b610f956040518060400160405280600581526020017f312e302e30000000000000000000000000000000000000000000000000000000815250611b90565b610fd36040518060400160405280600e81526020017f414b58332045434f53595354454d000000000000000000000000000000000000815250611bb2565b610fdb611bd4565b565b60085481565b600061100a82600b6000868152602001908152602001600020611c2490919063ffffffff16565b905092915050565b6000600a600084815260200190815260200160002060000160008373ffffffffffffffffffffffffffffffffffffffff1673ffffffffffffffffffffffffffffffffffffffff16815260200190815260200160002060009054906101000a900460ff16905092915050565b60065481565b7fbc2dedcc41a4babccd6703c68a0e0f84f0684629a0d049ce00ca52b57263ebcc81565b6000801b81565b7f7d22a30f6a7b982b09aebac6a6e5c7bc0a36768ae81204309565e9fc8da1821181565b7f5ae641537dc09bcffcc43c19759c97bd0fcdb3a7a1eec718c18b562ce6820f7081565b7fa25c642ce31814353cf588586ab4d6e7296b1f7a03467e40c1a8bb27b6a21b4a81565b60606000611126611ae0565b9050806008018054806020026020016040519081016040528092919081815260200182805480156111ac57602002820191906000526020600020905b8160009054906101000a900473ffffffffffffffffffffffffffffffffffffffff1673ffffffffffffffffffffffffffffffffffffffff1681526020019060010190808311611162575b505050505091505090565b7f45df5b41bd8e4cc8346c23a7867d6a8b9e1b69ac7380e112c15f26a2f74b7a0c81565b7f49a42a47740a9060c9a9274a2a577b05376ac78e16f4e6059683e3adb436d2c461120581611670565b5050565b7f06f90589e22fece34e99fffbbf20984e97575da08911ec58b78665237b0b53a681565b7f6e9bb4981ca89a568f24b088f34dfe92aec86372c31b92dd8293f290b2c8a98a81565b600061126e600b6000848152602001908152602001600020611c3e565b9050919050565b60075481565b6001151560008054906101000a900460ff161515036112cf576040517f08c379a00000000000000000000000000000000000000000000000000000000081526004016112c6906132b4565b60405180910390fd5b6112d886611c53565b6112e185611c97565b6112ea84611cdb565b6112f383611d1f565b6112fc82611d63565b61130581611da7565b61130d610dfa565b611315611deb565b505050505050565b60008060019054906101000a900473ffffffffffffffffffffffffffffffffffffffff16905090565b61134f82610c8d565b61135881611670565b6113628383611b25565b505050565b7f49a42a47740a9060c9a9274a2a577b05376ac78e16f4e6059683e3adb436d2c461139181611670565b6113bb7f49a42a47740a9060c9a9274a2a577b05376ac78e16f4e6059683e3adb436d2c433611b25565b6113e57f49a42a47740a9060c9a9274a2a577b05376ac78e16f4e6059683e3adb436d2c483611ae9565b61140f7f45df5b41bd8e4cc8346c23a7867d6a8b9e1b69ac7380e112c15f26a2f74b7a0c83611ae9565b5050565b600080601260003373ffffffffffffffffffffffffffffffffffffffff1673ffffffffffffffffffffffffffffffffffffffff16815260200190815260200160002060006101000a81548160ff0219169083151502179055506001905090565b7f3b5d4cc60d3ec3516ee8ae083bd60934f6eb2a6c54b1229985c41bfb092b260381565b7f6f54b7250b521ceca5a5619d8ae332c5cd309658bd40e401335987383db8f76b81565b6000600260009054906101000a900473ffffffffffffffffffffffffffffffffffffffff16905090565b6114ef8282611012565b6115c2576001600a600084815260200190815260200160002060000160008373ffffffffffffffffffffffffffffffffffffffff1673ffffffffffffffffffffffffffffffffffffffff16815260200190815260200160002060006101000a81548160ff021916908315150217905550611567611b1d565b73ffffffffffffffffffffffffffffffffffffffff168173ffffffffffffffffffffffffffffffffffffffff16837f2f8788117e7eff1d82e926ec794901d17c78024a50270940304540a733656f0d60405160405180910390a45b5050565b60006115ee836000018373ffffffffffffffffffffffffffffffffffffffff1660001b611e5b565b905092915050565b60007f7965db0b000000000000000000000000000000000000000000000000000000007bffffffffffffffffffffffffffffffffffffffffffffffffffffffff1916827bffffffffffffffffffffffffffffffffffffffffffffffffffffffff19161480611669575061166882611ecb565b5b9050919050565b6116818161167c611b1d565b611f35565b50565b600654600881905550600754600681905550565b8073ffffffffffffffffffffffffffffffffffffffff166356e49d61836040518263ffffffff1660e01b81526004016116d19190612c2c565b602060405180830381865afa1580156116ee573d6000803e3d6000fd5b505050506040513d601f19601f820116820180604052508101906117129190613300565b611748576040517fe6c4247b00000000000000000000000000000000000000000000000000000000815260040160405180910390fd5b5050565b600c54600e60008373ffffffffffffffffffffffffffffffffffffffff1673ffffffffffffffffffffffffffffffffffffffff16815260200190815260200160002054101580156117ee575060011515601160008373ffffffffffffffffffffffffffffffffffffffff1673ffffffffffffffffffffffffffffffffffffffff16815260200190815260200160002060009054906101000a900460ff16151514155b1561187d576001600f60008373ffffffffffffffffffffffffffffffffffffffff1673ffffffffffffffffffffffffffffffffffffffff16815260200190815260200160002060006101000a81548160ff0219169083151502179055506040517f23a7893500000000000000000000000000000000000000000000000000000000815260040160405180910390fd5b60011515600f60008373ffffffffffffffffffffffffffffffffffffffff1673ffffffffffffffffffffffffffffffffffffffff16815260200190815260200160002060009054906101000a900460ff161515036118df576118de81611fd2565b5b6000600e60008373ffffffffffffffffffffffffffffffffffffffff1673ffffffffffffffffffffffffffffffffffffffff168152602001908152602001600020541115611983576001600e60008373ffffffffffffffffffffffffffffffffffffffff1673ffffffffffffffffffffffffffffffffffffffff1681526020019081526020016000206000828254611977919061335c565b925050819055506119c9565b6001600e60008373ffffffffffffffffffffffffffffffffffffffff1673ffffffffffffffffffffffffffffffffffffffff168152602001908152602001600020819055505b7fed44a3266f094a634e985632b8f9f1e5033948445e2eb9622dd8ecdaeea43281816040516119f89190612c2c565b60405180910390a150565b6001601260008473ffffffffffffffffffffffffffffffffffffffff1673ffffffffffffffffffffffffffffffffffffffff16815260200190815260200160002060006101000a81548160ff0219169083151502179055506000600e60008473ffffffffffffffffffffffffffffffffffffffff1673ffffffffffffffffffffffffffffffffffffffff168152602001908152602001600020819055507f4d6c11e6f85431e353a7f8c6162542248c1d7ca69379feb384c8fe4afe89b2fc82600183604051611ad4939291906133e5565b60405180910390a15050565b60006009905090565b611af382826114e5565b611b1881600b60008581526020019081526020016000206115c690919063ffffffff16565b505050565b600033905090565b611b2f82826120e0565b611b5481600b60008581526020019081526020016000206121c290919063ffffffff16565b505050565b6000611b63611ae0565b905081816008019080519060200190611b7d9291906125a1565b505050565b611b8c8282611ae9565b5050565b6000611b9a611ae0565b905081816007019081611bad91906135c5565b505050565b6000611bbc611ae0565b905081816000019081611bcf91906135c5565b505050565b7fa25c642ce31814353cf588586ab4d6e7296b1f7a03467e40c1a8bb27b6a21b4a6006819055507f5ae641537dc09bcffcc43c19759c97bd0fcdb3a7a1eec718c18b562ce6820f70600781905550565b6000611c3383600001836121f2565b60001c905092915050565b6000611c4c8260000161221d565b9050919050565b80600060016101000a81548173ffffffffffffffffffffffffffffffffffffffff021916908373ffffffffffffffffffffffffffffffffffffffff16021790555050565b80600160006101000a81548173ffffffffffffffffffffffffffffffffffffffff021916908373ffffffffffffffffffffffffffffffffffffffff16021790555050565b80600260006101000a81548173ffffffffffffffffffffffffffffffffffffffff021916908373ffffffffffffffffffffffffffffffffffffffff16021790555050565b80600360006101000a81548173ffffffffffffffffffffffffffffffffffffffff021916908373ffffffffffffffffffffffffffffffffffffffff16021790555050565b80600460006101000a81548173ffffffffffffffffffffffffffffffffffffffff021916908373ffffffffffffffffffffffffffffffffffffffff16021790555050565b80600560006101000a81548173ffffffffffffffffffffffffffffffffffffffff021916908373ffffffffffffffffffffffffffffffffffffffff16021790555050565b6001151560008054906101000a900460ff16151503611e3f576040517f08c379a0000000000000000000000000000000000000000000000000000000008152600401611e36906132b4565b60405180910390fd5b60016000806101000a81548160ff021916908315150217905550565b6000611e67838361222e565b611ec0578260000182908060018154018082558091505060019003906000526020600020016000909190919091505582600001805490508360010160008481526020019081526020016000208190555060019050611ec5565b600090505b92915050565b60007f01ffc9a7000000000000000000000000000000000000000000000000000000007bffffffffffffffffffffffffffffffffffffffffffffffffffffffff1916827bffffffffffffffffffffffffffffffffffffffffffffffffffffffff1916149050919050565b611f3f8282611012565b611fce57611f648173ffffffffffffffffffffffffffffffffffffffff166014612251565b611f728360001c6020612251565b604051602001611f8392919061376b565b6040516020818303038152906040526040517f08c379a0000000000000000000000000000000000000000000000000000000008152600401611fc59190612895565b60405180910390fd5b5050565b42601060008373ffffffffffffffffffffffffffffffffffffffff1673ffffffffffffffffffffffffffffffffffffffff16815260200190815260200160002054101561204b576040517f23a7893500000000000000000000000000000000000000000000000000000000815260040160405180910390fd5b600f60008273ffffffffffffffffffffffffffffffffffffffff1673ffffffffffffffffffffffffffffffffffffffff16815260200190815260200160002060006101000a81549060ff0219169055601060008273ffffffffffffffffffffffffffffffffffffffff1673ffffffffffffffffffffffffffffffffffffffff1681526020019081526020016000206000905550565b6120ea8282611012565b156121be576000600a600084815260200190815260200160002060000160008373ffffffffffffffffffffffffffffffffffffffff1673ffffffffffffffffffffffffffffffffffffffff16815260200190815260200160002060006101000a81548160ff021916908315150217905550612163611b1d565b73ffffffffffffffffffffffffffffffffffffffff168173ffffffffffffffffffffffffffffffffffffffff16837ff6391f5c32d9c69d2a47ea670b442974b53935d1edc7fd64eb21e047a839171b60405160405180910390a45b5050565b60006121ea836000018373ffffffffffffffffffffffffffffffffffffffff1660001b61248d565b905092915050565b600082600001828154811061220a576122096137a5565b5b9060005260206000200154905092915050565b600081600001805490509050919050565b600080836001016000848152602001908152602001600020541415905092915050565b60606000600283600261226491906137d4565b61226e919061335c565b67ffffffffffffffff81111561228757612286612a51565b5b6040519080825280601f01601f1916602001820160405280156122b95781602001600182028036833780820191505090505b5090507f3000000000000000000000000000000000000000000000000000000000000000816000815181106122f1576122f06137a5565b5b60200101907effffffffffffffffffffffffffffffffffffffffffffffffffffffffffffff1916908160001a9053507f780000000000000000000000000000000000000000000000000000000000000081600181518110612355576123546137a5565b5b60200101907effffffffffffffffffffffffffffffffffffffffffffffffffffffffffffff1916908160001a9053506000600184600261239591906137d4565b61239f919061335c565b90505b600181111561243f577f3031323334353637383961626364656600000000000000000000000000000000600f8616601081106123e1576123e06137a5565b5b1a60f81b8282815181106123f8576123f76137a5565b5b60200101907effffffffffffffffffffffffffffffffffffffffffffffffffffffffffffff1916908160001a905350600485901c94508061243890613816565b90506123a2565b5060008414612483576040517f08c379a000000000000000000000000000000000000000000000000000000000815260040161247a9061388b565b60405180910390fd5b8091505092915050565b600080836001016000848152602001908152602001600020549050600081146125955760006001826124bf91906138ab565b90506000600186600001805490506124d791906138ab565b90508181146125465760008660000182815481106124f8576124f76137a5565b5b906000526020600020015490508087600001848154811061251c5761251b6137a5565b5b90600052602060002001819055508387600101600083815260200190815260200160002081905550505b8560000180548061255a576125596138df565b5b60019003818190600052602060002001600090559055856001016000868152602001908152602001600020600090556001935050505061259b565b60009150505b92915050565b82805482825590600052602060002090810192821561261a579160200282015b828111156126195782518260006101000a81548173ffffffffffffffffffffffffffffffffffffffff021916908373ffffffffffffffffffffffffffffffffffffffff160217905550916020019190600101906125c1565b5b509050612627919061262b565b5090565b5b8082111561264457600081600090555060010161262c565b5090565b6000604051905090565b600080fd5b600080fd5b60007fffffffff0000000000000000000000000000000000000000000000000000000082169050919050565b6126918161265c565b811461269c57600080fd5b50565b6000813590506126ae81612688565b92915050565b6000602082840312156126ca576126c9612652565b5b60006126d88482850161269f565b91505092915050565b60008115159050919050565b6126f6816126e1565b82525050565b600060208201905061271160008301846126ed565b92915050565b6000819050919050565b61272a81612717565b811461273557600080fd5b50565b60008135905061274781612721565b92915050565b60006020828403121561276357612762612652565b5b600061277184828501612738565b91505092915050565b600073ffffffffffffffffffffffffffffffffffffffff82169050919050565b60006127a58261277a565b9050919050565b6127b58161279a565b81146127c057600080fd5b50565b6000813590506127d2816127ac565b92915050565b6000602082840312156127ee576127ed612652565b5b60006127fc848285016127c3565b91505092915050565b600081519050919050565b600082825260208201905092915050565b60005b8381101561283f578082015181840152602081019050612824565b60008484015250505050565b6000601f19601f8301169050919050565b600061286782612805565b6128718185612810565b9350612881818560208601612821565b61288a8161284b565b840191505092915050565b600060208201905081810360008301526128af818461285c565b905092915050565b6000819050919050565b60006128dc6128d76128d28461277a565b6128b7565b61277a565b9050919050565b60006128ee826128c1565b9050919050565b6000612900826128e3565b9050919050565b612910816128f5565b82525050565b600060208201905061292b6000830184612907565b92915050565b6000819050919050565b61294481612931565b811461294f57600080fd5b50565b6000813590506129618161293b565b92915050565b60006020828403121561297d5761297c612652565b5b600061298b84828501612952565b91505092915050565b61299d81612931565b82525050565b60006020820190506129b86000830184612994565b92915050565b600080604083850312156129d5576129d4612652565b5b60006129e385828601612952565b92505060206129f4858286016127c3565b9150509250929050565b6000612a09826128c1565b9050919050565b6000612a1b826129fe565b9050919050565b612a2b81612a10565b82525050565b6000602082019050612a466000830184612a22565b92915050565b600080fd5b7f4e487b7100000000000000000000000000000000000000000000000000000000600052604160045260246000fd5b612a898261284b565b810181811067ffffffffffffffff82111715612aa857612aa7612a51565b5b80604052505050565b6000612abb612648565b9050612ac78282612a80565b919050565b600067ffffffffffffffff821115612ae757612ae6612a51565b5b602082029050602081019050919050565b600080fd5b6000612b10612b0b84612acc565b612ab1565b90508083825260208201905060208402830185811115612b3357612b32612af8565b5b835b81811015612b5c5780612b4888826127c3565b845260208401935050602081019050612b35565b5050509392505050565b600082601f830112612b7b57612b7a612a4c565b5b8135612b8b848260208601612afd565b91505092915050565b600060208284031215612baa57612ba9612652565b5b600082013567ffffffffffffffff811115612bc857612bc7612657565b5b612bd484828501612b66565b91505092915050565b60008060408385031215612bf457612bf3612652565b5b6000612c0285828601612952565b9250506020612c1385828601612738565b9150509250929050565b612c268161279a565b82525050565b6000602082019050612c416000830184612c1d565b92915050565b600081519050919050565b600082825260208201905092915050565b6000819050602082019050919050565b612c7c8161279a565b82525050565b6000612c8e8383612c73565b60208301905092915050565b6000602082019050919050565b6000612cb282612c47565b612cbc8185612c52565b9350612cc783612c63565b8060005b83811015612cf8578151612cdf8882612c82565b9750612cea83612c9a565b925050600181019050612ccb565b5085935050505092915050565b60006020820190508181036000830152612d1f8184612ca7565b905092915050565b612d3081612717565b82525050565b6000602082019050612d4b6000830184612d27565b92915050565b60008060008060008060c08789031215612d6e57612d6d612652565b5b6000612d7c89828a016127c3565b9650506020612d8d89828a016127c3565b9550506040612d9e89828a016127c3565b9450506060612daf89828a016127c3565b9350506080612dc089828a016127c3565b92505060a0612dd189828a016127c3565b9150509295509295509295565b6000612de9826128e3565b9050919050565b612df981612dde565b82525050565b6000602082019050612e146000830184612df0565b92915050565b6000612e25826128e3565b9050919050565b612e3581612e1a565b82525050565b6000602082019050612e506000830184612e2c565b92915050565b7f6f6e6c792073656c6620697320616c6c6f776564000000000000000000000000600082015250565b6000612e8c601483612810565b9150612e9782612e56565b602082019050919050565b60006020820190508181036000830152612ebb81612e7f565b9050919050565b6000612ecd8261277a565b9050919050565b6000612edf82612ec2565b9050919050565b612eef81612ed4565b8114612efa57600080fd5b50565b600081519050612f0c81612ee6565b92915050565b600060208284031215612f2857612f27612652565b5b6000612f3684828501612efd565b91505092915050565b600081519050612f4e81612721565b92915050565b600060208284031215612f6a57612f69612652565b5b6000612f7884828501612f3f565b91505092915050565b7f6e6f207a65726f20616464726573730000000000000000000000000000000000600082015250565b6000612fb7600f83612810565b9150612fc282612f81565b602082019050919050565b60006020820190508181036000830152612fe681612faa565b9050919050565b600080fd5b6000815190506130018161293b565b92915050565b600081519050613016816127ac565b92915050565b600060a0828403121561303257613031612fed565b5b61303c60a0612ab1565b9050600061304c84828501612f3f565b600083015250602061306084828501612ff2565b602083015250604061307484828501613007565b604083015250606061308884828501612ff2565b606083015250608061309c84828501612f3f565b60808301525092915050565b600060a082840312156130be576130bd612652565b5b60006130cc8482850161301c565b91505092915050565b6130de81612717565b82525050565b6130ed81612931565b82525050565b60a08201600082015161310960008501826130d5565b50602082015161311c60208501826130e4565b50604082015161312f6040850182612c73565b50606082015161314260608501826130e4565b50608082015161315560808501826130d5565b50505050565b600060a08201905061317060008301846130f3565b92915050565b7f4e487b7100000000000000000000000000000000000000000000000000000000600052602260045260246000fd5b600060028204905060018216806131bd57607f821691505b6020821081036131d0576131cf613176565b5b50919050565b7f416363657373436f6e74726f6c3a2063616e206f6e6c792072656e6f756e636560008201527f20726f6c657320666f722073656c660000000000000000000000000000000000602082015250565b6000613232602f83612810565b915061323d826131d6565b604082019050919050565b6000602082019050818103600083015261326181613225565b9050919050565b7f616c726561647920696e697469616c697a656400000000000000000000000000600082015250565b600061329e601383612810565b91506132a982613268565b602082019050919050565b600060208201905081810360008301526132cd81613291565b9050919050565b6132dd816126e1565b81146132e857600080fd5b50565b6000815190506132fa816132d4565b92915050565b60006020828403121561331657613315612652565b5b6000613324848285016132eb565b91505092915050565b7f4e487b7100000000000000000000000000000000000000000000000000000000600052601160045260246000fd5b600061336782612717565b915061337283612717565b925082820190508082111561338a5761338961332d565b5b92915050565b600081519050919050565b600082825260208201905092915050565b60006133b782613390565b6133c1818561339b565b93506133d1818560208601612821565b6133da8161284b565b840191505092915050565b60006060820190506133fa6000830186612c1d565b61340760208301856126ed565b818103604083015261341981846133ac565b9050949350505050565b60008190508160005260206000209050919050565b60006020601f8301049050919050565b600082821b905092915050565b6000600883026134857fffffffffffffffffffffffffffffffffffffffffffffffffffffffffffffffff82613448565b61348f8683613448565b95508019841693508086168417925050509392505050565b60006134c26134bd6134b884612717565b6128b7565b612717565b9050919050565b6000819050919050565b6134dc836134a7565b6134f06134e8826134c9565b848454613455565b825550505050565b600090565b6135056134f8565b6135108184846134d3565b505050565b5b81811015613534576135296000826134fd565b600181019050613516565b5050565b601f8211156135795761354a81613423565b61355384613438565b81016020851015613562578190505b61357661356e85613438565b830182613515565b50505b505050565b600082821c905092915050565b600061359c6000198460080261357e565b1980831691505092915050565b60006135b5838361358b565b9150826002028217905092915050565b6135ce82612805565b67ffffffffffffffff8111156135e7576135e6612a51565b5b6135f182546131a5565b6135fc828285613538565b600060209050601f83116001811461362f576000841561361d578287015190505b61362785826135a9565b86555061368f565b601f19841661363d86613423565b60005b8281101561366557848901518255600182019150602085019450602081019050613640565b86831015613682578489015161367e601f89168261358b565b8355505b6001600288020188555050505b505050505050565b600081905092915050565b7f416363657373436f6e74726f6c3a206163636f756e7420000000000000000000600082015250565b60006136d8601783613697565b91506136e3826136a2565b601782019050919050565b60006136f982612805565b6137038185613697565b9350613713818560208601612821565b80840191505092915050565b7f206973206d697373696e6720726f6c6520000000000000000000000000000000600082015250565b6000613755601183613697565b91506137608261371f565b601182019050919050565b6000613776826136cb565b915061378282856136ee565b915061378d82613748565b915061379982846136ee565b91508190509392505050565b7f4e487b7100000000000000000000000000000000000000000000000000000000600052603260045260246000fd5b60006137df82612717565b91506137ea83612717565b92508282026137f881612717565b9150828204841483151761380f5761380e61332d565b5b5092915050565b600061382182612717565b9150600082036138345761383361332d565b5b600182039050919050565b7f537472696e67733a20686578206c656e67746820696e73756666696369656e74600082015250565b6000613875602083612810565b91506138808261383f565b602082019050919050565b600060208201905081810360008301526138a481613868565b9050919050565b60006138b682612717565b91506138c183612717565b92508282039050818111156138d9576138d861332d565b5b92915050565b7f4e487b7100000000000000000000000000000000000000000000000000000000600052603160045260246000fdfea26469706673582212208f18cee9a21bf7fc31d39f9021ca3fc62e25031c563ff8425dc0c5ba62a2968b64736f6c63430008110033",
  "linkReferences": {},
  "deployedLinkReferences": {}
}