{
  "_format": "hh-sol-artifact-1",
  "contractName": "AKXEcosystem",
  "sourceName": "contracts/AKX.sol",
  "abi": [
    {
      "inputs": [],
      "name": "EthDIDRegistry",
      "outputs": [
        {
          "internalType": "contract DidRegistry",
          "name": "",
          "type": "address"
        }
      ],
      "stateMutability": "nonpayable",
      "type": "function"
    }
  ],
  "bytecode": "0x608060405234801561001057600080fd5b5061010e806100206000396000f3fe6080604052348015600f57600080fd5b506004361060285760003560e01c8063cf9be1cb14602d575b600080fd5b60336047565b604051603e919060bf565b60405180910390f35b600090565b600073ffffffffffffffffffffffffffffffffffffffff82169050919050565b6000819050919050565b6000608b6087608384604c565b606c565b604c565b9050919050565b6000609b826076565b9050919050565b600060ab826092565b9050919050565b60b98160a2565b82525050565b600060208201905060d2600083018460b2565b9291505056fea264697066735822122023707eab1d602ee48ee6ccd57dd737031059f8a649169151333752b03d85902964736f6c63430008100033",
  "linkReferences": {},
  "deployedLinkReferences": {}
}