{
  "_format": "hh-sol-artifact-1",
  "contractName": "Bank",
  "sourceName": "contracts/modules/bank/Bank.sol",
  "abi": [
    {
      "inputs": [
        {
          "internalType": "string",
          "name": "uri_",
          "type": "string"
        },
        {
          "internalType": "address",
          "name": "accImpl",
          "type": "address"
        }
      ],
      "stateMutability": "nonpayable",
      "type": "constructor"
    },
    {
      "anonymous": false,
      "inputs": [
        {
          "indexed": true,
          "internalType": "address",
          "name": "from",
          "type": "address"
        },
        {
          "indexed": true,
          "internalType": "address",
          "name": "to",
          "type": "address"
        },
        {
          "indexed": false,
          "internalType": "uint256",
          "name": "_feeValue",
          "type": "uint256"
        }
      ],
      "name": "LogFeeEvent",
      "type": "event"
    },
    {
      "anonymous": false,
      "inputs": [
        {
          "indexed": true,
          "internalType": "address",
          "name": "from",
          "type": "address"
        },
        {
          "indexed": true,
          "internalType": "address",
          "name": "to",
          "type": "address"
        },
        {
          "indexed": false,
          "internalType": "enum IBank.OperationType",
          "name": "oType",
          "type": "uint8"
        },
        {
          "indexed": false,
          "internalType": "bytes32",
          "name": "_identifier",
          "type": "bytes32"
        },
        {
          "indexed": false,
          "internalType": "uint256",
          "name": "_value",
          "type": "uint256"
        }
      ],
      "name": "LogOperationEvent",
      "type": "event"
    },
    {
      "anonymous": false,
      "inputs": [
        {
          "indexed": true,
          "internalType": "address",
          "name": "operator",
          "type": "address"
        },
        {
          "indexed": true,
          "internalType": "address[]",
          "name": "founders",
          "type": "address[]"
        },
        {
          "indexed": true,
          "internalType": "address",
          "name": "bankAddress",
          "type": "address"
        }
      ],
      "name": "NewBank",
      "type": "event"
    },
    {
      "anonymous": false,
      "inputs": [
        {
          "indexed": true,
          "internalType": "address",
          "name": "operator",
          "type": "address"
        },
        {
          "indexed": true,
          "internalType": "address",
          "name": "founder",
          "type": "address"
        },
        {
          "indexed": false,
          "internalType": "uint256",
          "name": "allocation",
          "type": "uint256"
        },
        {
          "indexed": false,
          "internalType": "uint256",
          "name": "lockedUntil",
          "type": "uint256"
        }
      ],
      "name": "NewFounder",
      "type": "event"
    },
    {
      "anonymous": false,
      "inputs": [
        {
          "indexed": false,
          "internalType": "address",
          "name": "account",
          "type": "address"
        }
      ],
      "name": "Paused",
      "type": "event"
    },
    {
      "anonymous": false,
      "inputs": [
        {
          "indexed": true,
          "internalType": "bytes32",
          "name": "role",
          "type": "bytes32"
        },
        {
          "indexed": true,
          "internalType": "bytes32",
          "name": "previousAdminRole",
          "type": "bytes32"
        },
        {
          "indexed": true,
          "internalType": "bytes32",
          "name": "newAdminRole",
          "type": "bytes32"
        }
      ],
      "name": "RoleAdminChanged",
      "type": "event"
    },
    {
      "anonymous": false,
      "inputs": [
        {
          "indexed": true,
          "internalType": "bytes32",
          "name": "role",
          "type": "bytes32"
        },
        {
          "indexed": true,
          "internalType": "address",
          "name": "account",
          "type": "address"
        },
        {
          "indexed": true,
          "internalType": "address",
          "name": "sender",
          "type": "address"
        }
      ],
      "name": "RoleGranted",
      "type": "event"
    },
    {
      "anonymous": false,
      "inputs": [
        {
          "indexed": true,
          "internalType": "bytes32",
          "name": "role",
          "type": "bytes32"
        },
        {
          "indexed": true,
          "internalType": "address",
          "name": "account",
          "type": "address"
        },
        {
          "indexed": true,
          "internalType": "address",
          "name": "sender",
          "type": "address"
        }
      ],
      "name": "RoleRevoked",
      "type": "event"
    },
    {
      "anonymous": false,
      "inputs": [
        {
          "indexed": false,
          "internalType": "address",
          "name": "account",
          "type": "address"
        }
      ],
      "name": "Unpaused",
      "type": "event"
    },
    {
      "inputs": [],
      "name": "DEFAULT_ADMIN_ROLE",
      "outputs": [
        {
          "internalType": "bytes32",
          "name": "",
          "type": "bytes32"
        }
      ],
      "stateMutability": "view",
      "type": "function"
    },
    {
      "inputs": [
        {
          "internalType": "string",
          "name": "opType",
          "type": "string"
        }
      ],
      "name": "OpType",
      "outputs": [
        {
          "internalType": "enum IBank.OperationType",
          "name": "",
          "type": "uint8"
        }
      ],
      "stateMutability": "nonpayable",
      "type": "function"
    },
    {
      "inputs": [],
      "name": "OpenBank",
      "outputs": [],
      "stateMutability": "nonpayable",
      "type": "function"
    },
    {
      "inputs": [],
      "name": "PauseBank",
      "outputs": [],
      "stateMutability": "nonpayable",
      "type": "function"
    },
    {
      "inputs": [
        {
          "internalType": "address",
          "name": "_for",
          "type": "address"
        },
        {
          "internalType": "string",
          "name": "_aType",
          "type": "string"
        },
        {
          "internalType": "bytes",
          "name": "keyParts",
          "type": "bytes"
        }
      ],
      "name": "createNewAccount",
      "outputs": [
        {
          "internalType": "address",
          "name": "",
          "type": "address"
        }
      ],
      "stateMutability": "nonpayable",
      "type": "function"
    },
    {
      "inputs": [
        {
          "internalType": "address",
          "name": "founder",
          "type": "address"
        }
      ],
      "name": "deRegisterFounder",
      "outputs": [],
      "stateMutability": "nonpayable",
      "type": "function"
    },
    {
      "inputs": [
        {
          "internalType": "address",
          "name": "_for",
          "type": "address"
        }
      ],
      "name": "getAccountAddress",
      "outputs": [
        {
          "internalType": "address",
          "name": "",
          "type": "address"
        }
      ],
      "stateMutability": "nonpayable",
      "type": "function"
    },
    {
      "inputs": [
        {
          "internalType": "address",
          "name": "from",
          "type": "address"
        }
      ],
      "name": "getAccountInfo",
      "outputs": [
        {
          "internalType": "bytes",
          "name": "",
          "type": "bytes"
        }
      ],
      "stateMutability": "nonpayable",
      "type": "function"
    },
    {
      "inputs": [
        {
          "internalType": "bytes32",
          "name": "role",
          "type": "bytes32"
        }
      ],
      "name": "getRoleAdmin",
      "outputs": [
        {
          "internalType": "bytes32",
          "name": "",
          "type": "bytes32"
        }
      ],
      "stateMutability": "view",
      "type": "function"
    },
    {
      "inputs": [
        {
          "internalType": "bytes32",
          "name": "role",
          "type": "bytes32"
        },
        {
          "internalType": "uint256",
          "name": "index",
          "type": "uint256"
        }
      ],
      "name": "getRoleMember",
      "outputs": [
        {
          "internalType": "address",
          "name": "",
          "type": "address"
        }
      ],
      "stateMutability": "view",
      "type": "function"
    },
    {
      "inputs": [
        {
          "internalType": "bytes32",
          "name": "role",
          "type": "bytes32"
        }
      ],
      "name": "getRoleMemberCount",
      "outputs": [
        {
          "internalType": "uint256",
          "name": "",
          "type": "uint256"
        }
      ],
      "stateMutability": "view",
      "type": "function"
    },
    {
      "inputs": [
        {
          "internalType": "bytes32",
          "name": "role",
          "type": "bytes32"
        },
        {
          "internalType": "address",
          "name": "account",
          "type": "address"
        }
      ],
      "name": "grantRole",
      "outputs": [],
      "stateMutability": "nonpayable",
      "type": "function"
    },
    {
      "inputs": [
        {
          "internalType": "bytes32",
          "name": "role",
          "type": "bytes32"
        },
        {
          "internalType": "address",
          "name": "account",
          "type": "address"
        }
      ],
      "name": "hasRole",
      "outputs": [
        {
          "internalType": "bool",
          "name": "",
          "type": "bool"
        }
      ],
      "stateMutability": "view",
      "type": "function"
    },
    {
      "inputs": [],
      "name": "paused",
      "outputs": [
        {
          "internalType": "bool",
          "name": "",
          "type": "bool"
        }
      ],
      "stateMutability": "view",
      "type": "function"
    },
    {
      "inputs": [
        {
          "internalType": "address",
          "name": "founder",
          "type": "address"
        },
        {
          "internalType": "uint256",
          "name": "allocation",
          "type": "uint256"
        }
      ],
      "name": "registerFounder",
      "outputs": [],
      "stateMutability": "nonpayable",
      "type": "function"
    },
    {
      "inputs": [
        {
          "internalType": "bytes32",
          "name": "role",
          "type": "bytes32"
        },
        {
          "internalType": "address",
          "name": "account",
          "type": "address"
        }
      ],
      "name": "renounceRole",
      "outputs": [],
      "stateMutability": "nonpayable",
      "type": "function"
    },
    {
      "inputs": [
        {
          "internalType": "bytes32",
          "name": "role",
          "type": "bytes32"
        },
        {
          "internalType": "address",
          "name": "account",
          "type": "address"
        }
      ],
      "name": "revokeRole",
      "outputs": [],
      "stateMutability": "nonpayable",
      "type": "function"
    },
    {
      "inputs": [
        {
          "internalType": "address",
          "name": "multi",
          "type": "address"
        }
      ],
      "name": "sendToMultisignatureVault",
      "outputs": [
        {
          "internalType": "bool",
          "name": "",
          "type": "bool"
        }
      ],
      "stateMutability": "nonpayable",
      "type": "function"
    },
    {
      "inputs": [
        {
          "internalType": "address",
          "name": "multi",
          "type": "address"
        }
      ],
      "name": "setMultisignatureWallet",
      "outputs": [
        {
          "internalType": "bool",
          "name": "",
          "type": "bool"
        }
      ],
      "stateMutability": "nonpayable",
      "type": "function"
    },
    {
      "inputs": [
        {
          "internalType": "address",
          "name": "_udsr",
          "type": "address"
        }
      ],
      "name": "setUserDataService",
      "outputs": [
        {
          "internalType": "bool",
          "name": "",
          "type": "bool"
        }
      ],
      "stateMutability": "nonpayable",
      "type": "function"
    },
    {
      "inputs": [
        {
          "internalType": "bytes4",
          "name": "interfaceId",
          "type": "bytes4"
        }
      ],
      "name": "supportsInterface",
      "outputs": [
        {
          "internalType": "bool",
          "name": "",
          "type": "bool"
        }
      ],
      "stateMutability": "view",
      "type": "function"
    }
  ],
  "bytecode": "0x60806040523480156200001157600080fd5b50604051620033c8380380620033c883398181016040528101906200003791906200059c565b60008060006101000a81548160ff02191690831515021790555080600d60006101000a81548173ffffffffffffffffffffffffffffffffffffffff021916908373ffffffffffffffffffffffffffffffffffffffff1602179055506000600e81905550620000be6000801b620000b26200010d60201b60201c565b6200011560201b60201c565b62000105604051602001620000d3906200065d565b60405160208183030381529060405280519060200120620000f96200010d60201b60201c565b6200011560201b60201c565b505062000674565b600033905090565b6200012782826200012b60201b60201c565b5050565b6200014282826200017360201b62000e351760201c565b6200016e81600260008581526020019081526020016000206200026460201b62000f151790919060201c565b505050565b6200018582826200029c60201b60201c565b6200026057600180600084815260200190815260200160002060000160008373ffffffffffffffffffffffffffffffffffffffff1673ffffffffffffffffffffffffffffffffffffffff16815260200190815260200160002060006101000a81548160ff021916908315150217905550620002056200010d60201b60201c565b73ffffffffffffffffffffffffffffffffffffffff168173ffffffffffffffffffffffffffffffffffffffff16837f2f8788117e7eff1d82e926ec794901d17c78024a50270940304540a733656f0d60405160405180910390a45b5050565b600062000294836000018373ffffffffffffffffffffffffffffffffffffffff1660001b6200030760201b60201c565b905092915050565b60006001600084815260200190815260200160002060000160008373ffffffffffffffffffffffffffffffffffffffff1673ffffffffffffffffffffffffffffffffffffffff16815260200190815260200160002060009054906101000a900460ff16905092915050565b60006200031b83836200038160201b60201c565b620003765782600001829080600181540180825580915050600190039060005260206000200160009091909190915055826000018054905083600101600084815260200190815260200160002081905550600190506200037b565b600090505b92915050565b600080836001016000848152602001908152602001600020541415905092915050565b6000604051905090565b600080fd5b600080fd5b600080fd5b600080fd5b6000601f19601f8301169050919050565b7f4e487b7100000000000000000000000000000000000000000000000000000000600052604160045260246000fd5b6200040d82620003c2565b810181811067ffffffffffffffff821117156200042f576200042e620003d3565b5b80604052505050565b600062000444620003a4565b905062000452828262000402565b919050565b600067ffffffffffffffff821115620004755762000474620003d3565b5b6200048082620003c2565b9050602081019050919050565b60005b83811015620004ad57808201518184015260208101905062000490565b60008484015250505050565b6000620004d0620004ca8462000457565b62000438565b905082815260208101848484011115620004ef57620004ee620003bd565b5b620004fc8482856200048d565b509392505050565b600082601f8301126200051c576200051b620003b8565b5b81516200052e848260208601620004b9565b91505092915050565b600073ffffffffffffffffffffffffffffffffffffffff82169050919050565b6000620005648262000537565b9050919050565b620005768162000557565b81146200058257600080fd5b50565b60008151905062000596816200056b565b92915050565b60008060408385031215620005b657620005b5620003ae565b5b600083015167ffffffffffffffff811115620005d757620005d6620003b3565b5b620005e58582860162000504565b9250506020620005f88582860162000585565b9150509250929050565b600081905092915050565b7f4f50455241544f525f524f4c4500000000000000000000000000000000000000600082015250565b600062000645600d8362000602565b915062000652826200060d565b600d82019050919050565b60006200066a8262000636565b9150819050919050565b612d4480620006846000396000f3fe608060405234801561001057600080fd5b50600436106101375760003560e01c806353807aae116100b857806391d148541161007c57806391d148541461039857806398e3c69e146103c8578063a217fddf146103d2578063ca15c873146103f0578063d547741f14610420578063eb462d9e1461043c57610137565b806353807aae146102ba5780635872fe45146102ea5780635c975abb1461031a5780637b510fe8146103385780639010d07c1461036857610137565b8063248a9ca3116100ff578063248a9ca3146102065780632db17e1f146102365780632f2ff15d1461025257806336568abe1461026e5780634c2282cb1461028a57610137565b806301ffc9a71461013c57806314a4c3241461016c578063182c85db1461019c5780631e981799146101cc5780632206749d146101d6575b600080fd5b610156600480360381019061015191906119d8565b610458565b6040516101639190611a20565b60405180910390f35b61018660048036038101906101819190611c80565b6104d2565b6040516101939190611d1a565b60405180910390f35b6101b660048036038101906101b19190611d35565b6106ee565b6040516101c39190611a20565b60405180910390f35b6101d46107ae565b005b6101f060048036038101906101eb9190611d35565b61082c565b6040516101fd9190611a20565b60405180910390f35b610220600480360381019061021b9190611d98565b610952565b60405161022d9190611dd4565b60405180910390f35b610250600480360381019061024b9190611d35565b610972565b005b61026c60048036038101906102679190611def565b610975565b005b61028860048036038101906102839190611def565b610996565b005b6102a4600480360381019061029f9190611d35565b610a19565b6040516102b19190611a20565b60405180910390f35b6102d460048036038101906102cf9190611e2f565b610ad9565b6040516102e19190611eef565b60405180910390f35b61030460048036038101906102ff9190611d35565b610b79565b6040516103119190611d1a565b60405180910390f35b610322610bed565b60405161032f9190611a20565b60405180910390f35b610352600480360381019061034d9190611d35565b610c03565b60405161035f9190611f89565b60405180910390f35b610382600480360381019061037d9190611fe1565b610ccd565b60405161038f9190611d1a565b60405180910390f35b6103b260048036038101906103ad9190611def565b610cfc565b6040516103bf9190611a20565b60405180910390f35b6103d0610d67565b005b6103da610de5565b6040516103e79190611dd4565b60405180910390f35b61040a60048036038101906104059190611d98565b610dec565b6040516104179190612030565b60405180910390f35b61043a60048036038101906104359190611def565b610e10565b005b6104566004803603810190610451919061204b565b610e31565b005b60007f5a05180f000000000000000000000000000000000000000000000000000000007bffffffffffffffffffffffffffffffffffffffffffffffffffffffff1916827bffffffffffffffffffffffffffffffffffffffffffffffffffffffff191614806104cb57506104ca82610f45565b5b9050919050565b60006105096040516020016104e6906120e2565b60405160208183030381529060405280519060200120610504610fbf565b610cfc565b610548576040517f08c379a000000000000000000000000000000000000000000000000000000000815260040161053f9061217a565b60405180910390fd5b6000848460405160200161055d92919061221e565b60405160208183030381529060405280519060200120905080600760008773ffffffffffffffffffffffffffffffffffffffff1673ffffffffffffffffffffffffffffffffffffffff1681526020019081526020016000208190555060006105e7600d60009054906101000a900473ffffffffffffffffffffffffffffffffffffffff1683610fc7565b905080600a866040516105fa9190612246565b90815260200160405180910390206000600e54815260200190815260200160002060006101000a81548173ffffffffffffffffffffffffffffffffffffffff021916908373ffffffffffffffffffffffffffffffffffffffff1602179055508073ffffffffffffffffffffffffffffffffffffffff16630eb624be8787876040518463ffffffff1660e01b815260040161069693929190612296565b600060405180830381600087803b1580156106b057600080fd5b505af11580156106c4573d6000803e3d6000fd5b505050506001600e60008282546106db919061230a565b9250508190555080925050509392505050565b6000610725604051602001610702906120e2565b60405160208183030381529060405280519060200120610720610fbf565b610cfc565b610764576040517f08c379a000000000000000000000000000000000000000000000000000000000815260040161075b906123b0565b60405180910390fd5b81600c60006101000a81548173ffffffffffffffffffffffffffffffffffffffff021916908373ffffffffffffffffffffffffffffffffffffffff16021790555060019050919050565b6107e36040516020016107c0906120e2565b604051602081830303815290604052805190602001206107de610fbf565b610cfc565b610822576040517f08c379a000000000000000000000000000000000000000000000000000000000815260040161081990612442565b60405180910390fd5b61082a61109d565b565b6000610863604051602001610840906120e2565b6040516020818303038152906040528051906020012061085e610fbf565b610cfc565b6108a2576040517f08c379a0000000000000000000000000000000000000000000000000000000008152600401610899906124d4565b60405180910390fd5b60003073ffffffffffffffffffffffffffffffffffffffff1631905060008111610901576040517f08c379a00000000000000000000000000000000000000000000000000000000081526004016108f890612540565b60405180910390fd5b8273ffffffffffffffffffffffffffffffffffffffff166108fc829081150290604051600060405180830381858888f19350505050158015610947573d6000803e3d6000fd5b506001915050919050565b600060016000838152602001908152602001600020600101549050919050565b50565b61097e82610952565b610987816110ff565b6109918383611113565b505050565b61099e610fbf565b73ffffffffffffffffffffffffffffffffffffffff168173ffffffffffffffffffffffffffffffffffffffff1614610a0b576040517f08c379a0000000000000000000000000000000000000000000000000000000008152600401610a02906125d2565b60405180910390fd5b610a158282611147565b5050565b6000610a50604051602001610a2d906120e2565b60405160208183030381529060405280519060200120610a4b610fbf565b610cfc565b610a8f576040517f08c379a0000000000000000000000000000000000000000000000000000000008152600401610a8690612664565b60405180910390fd5b81600b60006101000a81548173ffffffffffffffffffffffffffffffffffffffff021916908373ffffffffffffffffffffffffffffffffffffffff16021790555060019050919050565b6000600482604051610aeb9190612246565b908152602001604051809103902060009054906101000a900460ff16610b46576040517f08c379a0000000000000000000000000000000000000000000000000000000008152600401610b3d906126f6565b60405180910390fd5b600382604051610b569190612246565b908152602001604051809103902060009054906101000a900460ff169050919050565b6000610be6600d60009054906101000a900473ffffffffffffffffffffffffffffffffffffffff16600760008573ffffffffffffffffffffffffffffffffffffffff1673ffffffffffffffffffffffffffffffffffffffff1681526020019081526020016000205461117b565b9050919050565b60008060009054906101000a900460ff16905090565b60606000600c60009054906101000a900473ffffffffffffffffffffffffffffffffffffffff1673ffffffffffffffffffffffffffffffffffffffff16637b510fe8846040518263ffffffff1660e01b8152600401610c629190611d1a565b60a060405180830381865afa158015610c7f573d6000803e3d6000fd5b505050506040513d601f19601f82011682018060405250810190610ca391906127e6565b604051602001610cb391906128a8565b604051602081830303815290604052905080915050919050565b6000610cf4826002600086815260200190815260200160002061119090919063ffffffff16565b905092915050565b60006001600084815260200190815260200160002060000160008373ffffffffffffffffffffffffffffffffffffffff1673ffffffffffffffffffffffffffffffffffffffff16815260200190815260200160002060009054906101000a900460ff16905092915050565b610d9c604051602001610d79906120e2565b60405160208183030381529060405280519060200120610d97610fbf565b610cfc565b610ddb576040517f08c379a0000000000000000000000000000000000000000000000000000000008152600401610dd290612935565b60405180910390fd5b610de36111aa565b565b6000801b81565b6000610e096002600084815260200190815260200160002061120c565b9050919050565b610e1982610952565b610e22816110ff565b610e2c8383611147565b505050565b5050565b610e3f8282610cfc565b610f1157600180600084815260200190815260200160002060000160008373ffffffffffffffffffffffffffffffffffffffff1673ffffffffffffffffffffffffffffffffffffffff16815260200190815260200160002060006101000a81548160ff021916908315150217905550610eb6610fbf565b73ffffffffffffffffffffffffffffffffffffffff168173ffffffffffffffffffffffffffffffffffffffff16837f2f8788117e7eff1d82e926ec794901d17c78024a50270940304540a733656f0d60405160405180910390a45b5050565b6000610f3d836000018373ffffffffffffffffffffffffffffffffffffffff1660001b611221565b905092915050565b60007f7965db0b000000000000000000000000000000000000000000000000000000007bffffffffffffffffffffffffffffffffffffffffffffffffffffffff1916827bffffffffffffffffffffffffffffffffffffffffffffffffffffffff19161480610fb85750610fb782611291565b5b9050919050565b600033905090565b60006040517f3d602d80600a3d3981f3363d3d373d3d3d363d7300000000000000000000000081528360601b60148201527f5af43d82803e903d91602b57fd5bf300000000000000000000000000000000006028820152826037826000f5915050600073ffffffffffffffffffffffffffffffffffffffff168173ffffffffffffffffffffffffffffffffffffffff1603611097576040517f08c379a000000000000000000000000000000000000000000000000000000000815260040161108e906129a1565b60405180910390fd5b92915050565b6110a56112fb565b60016000806101000a81548160ff0219169083151502179055507f62e78cea01bee320cd4e420270b5ea74000d11b0c9f74754ebdbfc544b05a2586110e8610fbf565b6040516110f59190611d1a565b60405180910390a1565b6111108161110b610fbf565b611345565b50565b61111d8282610e35565b6111428160026000858152602001908152602001600020610f1590919063ffffffff16565b505050565b61115182826113e2565b61117681600260008581526020019081526020016000206114c490919063ffffffff16565b505050565b60006111888383306114f4565b905092915050565b600061119f8360000183611574565b60001c905092915050565b6111b261159f565b60008060006101000a81548160ff0219169083151502179055507f5db9ee0a495bf2e6ff9c91a7834c1ba4fdd244a5e8aa4e537bd38aeae4b073aa6111f5610fbf565b6040516112029190611d1a565b60405180910390a1565b600061121a826000016115e8565b9050919050565b600061122d83836115f9565b61128657826000018290806001815401808255809150506001900390600052602060002001600090919091909150558260000180549050836001016000848152602001908152602001600020819055506001905061128b565b600090505b92915050565b60007f01ffc9a7000000000000000000000000000000000000000000000000000000007bffffffffffffffffffffffffffffffffffffffffffffffffffffffff1916827bffffffffffffffffffffffffffffffffffffffffffffffffffffffff1916149050919050565b611303610bed565b15611343576040517f08c379a000000000000000000000000000000000000000000000000000000000815260040161133a90612a0d565b60405180910390fd5b565b61134f8282610cfc565b6113de576113748173ffffffffffffffffffffffffffffffffffffffff16601461161c565b6113828360001c602061161c565b604051602001611393929190612ac5565b6040516020818303038152906040526040517f08c379a00000000000000000000000000000000000000000000000000000000081526004016113d59190612aff565b60405180910390fd5b5050565b6113ec8282610cfc565b156114c05760006001600084815260200190815260200160002060000160008373ffffffffffffffffffffffffffffffffffffffff1673ffffffffffffffffffffffffffffffffffffffff16815260200190815260200160002060006101000a81548160ff021916908315150217905550611465610fbf565b73ffffffffffffffffffffffffffffffffffffffff168173ffffffffffffffffffffffffffffffffffffffff16837ff6391f5c32d9c69d2a47ea670b442974b53935d1edc7fd64eb21e047a839171b60405160405180910390a45b5050565b60006114ec836000018373ffffffffffffffffffffffffffffffffffffffff1660001b611858565b905092915050565b60006040517f3d602d80600a3d3981f3363d3d373d3d3d363d7300000000000000000000000081528460601b60148201527f5af43d82803e903d91602b57fd5bf3ff0000000000000000000000000000000060288201528260601b603882015283604c82015260378120606c820152605560378201209150509392505050565b600082600001828154811061158c5761158b612b21565b5b9060005260206000200154905092915050565b6115a7610bed565b6115e6576040517f08c379a00000000000000000000000000000000000000000000000000000000081526004016115dd90612b9c565b60405180910390fd5b565b600081600001805490509050919050565b600080836001016000848152602001908152602001600020541415905092915050565b60606000600283600261162f9190612bbc565b611639919061230a565b67ffffffffffffffff81111561165257611651611ab4565b5b6040519080825280601f01601f1916602001820160405280156116845781602001600182028036833780820191505090505b5090507f3000000000000000000000000000000000000000000000000000000000000000816000815181106116bc576116bb612b21565b5b60200101907effffffffffffffffffffffffffffffffffffffffffffffffffffffffffffff1916908160001a9053507f7800000000000000000000000000000000000000000000000000000000000000816001815181106117205761171f612b21565b5b60200101907effffffffffffffffffffffffffffffffffffffffffffffffffffffffffffff1916908160001a905350600060018460026117609190612bbc565b61176a919061230a565b90505b600181111561180a577f3031323334353637383961626364656600000000000000000000000000000000600f8616601081106117ac576117ab612b21565b5b1a60f81b8282815181106117c3576117c2612b21565b5b60200101907effffffffffffffffffffffffffffffffffffffffffffffffffffffffffffff1916908160001a905350600485901c94508061180390612c16565b905061176d565b506000841461184e576040517f08c379a000000000000000000000000000000000000000000000000000000000815260040161184590612c8b565b60405180910390fd5b8091505092915050565b6000808360010160008481526020019081526020016000205490506000811461196057600060018261188a9190612cab565b90506000600186600001805490506118a29190612cab565b90508181146119115760008660000182815481106118c3576118c2612b21565b5b90600052602060002001549050808760000184815481106118e7576118e6612b21565b5b90600052602060002001819055508387600101600083815260200190815260200160002081905550505b8560000180548061192557611924612cdf565b5b600190038181906000526020600020016000905590558560010160008681526020019081526020016000206000905560019350505050611966565b60009150505b92915050565b6000604051905090565b600080fd5b600080fd5b60007fffffffff0000000000000000000000000000000000000000000000000000000082169050919050565b6119b581611980565b81146119c057600080fd5b50565b6000813590506119d2816119ac565b92915050565b6000602082840312156119ee576119ed611976565b5b60006119fc848285016119c3565b91505092915050565b60008115159050919050565b611a1a81611a05565b82525050565b6000602082019050611a356000830184611a11565b92915050565b600073ffffffffffffffffffffffffffffffffffffffff82169050919050565b6000611a6682611a3b565b9050919050565b611a7681611a5b565b8114611a8157600080fd5b50565b600081359050611a9381611a6d565b92915050565b600080fd5b600080fd5b6000601f19601f8301169050919050565b7f4e487b7100000000000000000000000000000000000000000000000000000000600052604160045260246000fd5b611aec82611aa3565b810181811067ffffffffffffffff82111715611b0b57611b0a611ab4565b5b80604052505050565b6000611b1e61196c565b9050611b2a8282611ae3565b919050565b600067ffffffffffffffff821115611b4a57611b49611ab4565b5b611b5382611aa3565b9050602081019050919050565b82818337600083830152505050565b6000611b82611b7d84611b2f565b611b14565b905082815260208101848484011115611b9e57611b9d611a9e565b5b611ba9848285611b60565b509392505050565b600082601f830112611bc657611bc5611a99565b5b8135611bd6848260208601611b6f565b91505092915050565b600067ffffffffffffffff821115611bfa57611bf9611ab4565b5b611c0382611aa3565b9050602081019050919050565b6000611c23611c1e84611bdf565b611b14565b905082815260208101848484011115611c3f57611c3e611a9e565b5b611c4a848285611b60565b509392505050565b600082601f830112611c6757611c66611a99565b5b8135611c77848260208601611c10565b91505092915050565b600080600060608486031215611c9957611c98611976565b5b6000611ca786828701611a84565b935050602084013567ffffffffffffffff811115611cc857611cc761197b565b5b611cd486828701611bb1565b925050604084013567ffffffffffffffff811115611cf557611cf461197b565b5b611d0186828701611c52565b9150509250925092565b611d1481611a5b565b82525050565b6000602082019050611d2f6000830184611d0b565b92915050565b600060208284031215611d4b57611d4a611976565b5b6000611d5984828501611a84565b91505092915050565b6000819050919050565b611d7581611d62565b8114611d8057600080fd5b50565b600081359050611d9281611d6c565b92915050565b600060208284031215611dae57611dad611976565b5b6000611dbc84828501611d83565b91505092915050565b611dce81611d62565b82525050565b6000602082019050611de96000830184611dc5565b92915050565b60008060408385031215611e0657611e05611976565b5b6000611e1485828601611d83565b9250506020611e2585828601611a84565b9150509250929050565b600060208284031215611e4557611e44611976565b5b600082013567ffffffffffffffff811115611e6357611e6261197b565b5b611e6f84828501611bb1565b91505092915050565b7f4e487b7100000000000000000000000000000000000000000000000000000000600052602160045260246000fd5b600d8110611eb857611eb7611e78565b5b50565b6000819050611ec982611ea7565b919050565b6000611ed982611ebb565b9050919050565b611ee981611ece565b82525050565b6000602082019050611f046000830184611ee0565b92915050565b600081519050919050565b600082825260208201905092915050565b60005b83811015611f44578082015181840152602081019050611f29565b60008484015250505050565b6000611f5b82611f0a565b611f658185611f15565b9350611f75818560208601611f26565b611f7e81611aa3565b840191505092915050565b60006020820190508181036000830152611fa38184611f50565b905092915050565b6000819050919050565b611fbe81611fab565b8114611fc957600080fd5b50565b600081359050611fdb81611fb5565b92915050565b60008060408385031215611ff857611ff7611976565b5b600061200685828601611d83565b925050602061201785828601611fcc565b9150509250929050565b61202a81611fab565b82525050565b60006020820190506120456000830184612021565b92915050565b6000806040838503121561206257612061611976565b5b600061207085828601611a84565b925050602061208185828601611fcc565b9150509250929050565b600081905092915050565b7f4f50455241544f525f524f4c4500000000000000000000000000000000000000600082015250565b60006120cc600d8361208b565b91506120d782612096565b600d82019050919050565b60006120ed826120bf565b9150819050919050565b600082825260208201905092915050565b7f455243313135352042414e4b3a206d7573742068617665206f70657261746f7260008201527f20726f6c6520746f20637265617465206163636f756e74730000000000000000602082015250565b60006121646038836120f7565b915061216f82612108565b604082019050919050565b6000602082019050818103600083015261219381612157565b9050919050565b60008160601b9050919050565b60006121b28261219a565b9050919050565b60006121c4826121a7565b9050919050565b6121dc6121d782611a5b565b6121b9565b82525050565b600081519050919050565b60006121f8826121e2565b612202818561208b565b9350612212818560208601611f26565b80840191505092915050565b600061222a82856121cb565b60148201915061223a82846121ed565b91508190509392505050565b600061225282846121ed565b915081905092915050565b6000612268826121e2565b61227281856120f7565b9350612282818560208601611f26565b61228b81611aa3565b840191505092915050565b60006060820190506122ab6000830186611d0b565b81810360208301526122bd818561225d565b905081810360408301526122d18184611f50565b9050949350505050565b7f4e487b7100000000000000000000000000000000000000000000000000000000600052601160045260246000fd5b600061231582611fab565b915061232083611fab565b9250828201905080821115612338576123376122db565b5b92915050565b7f455243313135352042414e4b3a206d757374206861766520706175736572207260008201527f6f6c6520746f2073657420646174612073657276696365000000000000000000602082015250565b600061239a6037836120f7565b91506123a58261233e565b604082019050919050565b600060208201905081810360008301526123c98161238d565b9050919050565b7f455243313135352042414e4b3a206d757374206861766520706175736572207260008201527f6f6c6520746f2070617573650000000000000000000000000000000000000000602082015250565b600061242c602c836120f7565b9150612437826123d0565b604082019050919050565b6000602082019050818103600083015261245b8161241f565b9050919050565b7f455243313135352042414e4b3a206d757374206861766520706175736572207260008201527f6f6c6520746f2073656e6420746f20746865207661756c742077616c6c657400602082015250565b60006124be603f836120f7565b91506124c982612462565b604082019050919050565b600060208201905081810360008301526124ed816124b1565b9050919050565b7f4e4f5f42414c414e434500000000000000000000000000000000000000000000600082015250565b600061252a600a836120f7565b9150612535826124f4565b602082019050919050565b600060208201905081810360008301526125598161251d565b9050919050565b7f416363657373436f6e74726f6c3a2063616e206f6e6c792072656e6f756e636560008201527f20726f6c657320666f722073656c660000000000000000000000000000000000602082015250565b60006125bc602f836120f7565b91506125c782612560565b604082019050919050565b600060208201905081810360008301526125eb816125af565b9050919050565b7f455243313135352042414e4b3a206d757374206861766520706175736572207260008201527f6f6c6520746f207365742077616c6c6574000000000000000000000000000000602082015250565b600061264e6031836120f7565b9150612659826125f2565b604082019050919050565b6000602082019050818103600083015261267d81612641565b9050919050565b7f455243313135352042414e4b4f503a206f7065726174696f6e206e6f7420666f60008201527f756e640000000000000000000000000000000000000000000000000000000000602082015250565b60006126e06023836120f7565b91506126eb82612684565b604082019050919050565b6000602082019050818103600083015261270f816126d3565b9050919050565b600080fd5b60008151905061272a81611fb5565b92915050565b60008151905061273f81611d6c565b92915050565b60008151905061275481611a6d565b92915050565b600060a082840312156127705761276f612716565b5b61277a60a0611b14565b9050600061278a8482850161271b565b600083015250602061279e84828501612730565b60208301525060406127b284828501612745565b60408301525060606127c684828501612730565b60608301525060806127da8482850161271b565b60808301525092915050565b600060a082840312156127fc576127fb611976565b5b600061280a8482850161275a565b91505092915050565b61281c81611fab565b82525050565b61282b81611d62565b82525050565b61283a81611a5b565b82525050565b60a0820160008201516128566000850182612813565b5060208201516128696020850182612822565b50604082015161287c6040850182612831565b50606082015161288f6060850182612822565b5060808201516128a26080850182612813565b50505050565b600060a0820190506128bd6000830184612840565b92915050565b7f455243313135352042414e4b3a206d757374206861766520706175736572207260008201527f6f6c6520746f20756e7061757365000000000000000000000000000000000000602082015250565b600061291f602e836120f7565b915061292a826128c3565b604082019050919050565b6000602082019050818103600083015261294e81612912565b9050919050565b7f455243313136373a2063726561746532206661696c6564000000000000000000600082015250565b600061298b6017836120f7565b915061299682612955565b602082019050919050565b600060208201905081810360008301526129ba8161297e565b9050919050565b7f5061757361626c653a2070617573656400000000000000000000000000000000600082015250565b60006129f76010836120f7565b9150612a02826129c1565b602082019050919050565b60006020820190508181036000830152612a26816129ea565b9050919050565b7f416363657373436f6e74726f6c3a206163636f756e7420000000000000000000600082015250565b6000612a6360178361208b565b9150612a6e82612a2d565b601782019050919050565b7f206973206d697373696e6720726f6c6520000000000000000000000000000000600082015250565b6000612aaf60118361208b565b9150612aba82612a79565b601182019050919050565b6000612ad082612a56565b9150612adc82856121ed565b9150612ae782612aa2565b9150612af382846121ed565b91508190509392505050565b60006020820190508181036000830152612b19818461225d565b905092915050565b7f4e487b7100000000000000000000000000000000000000000000000000000000600052603260045260246000fd5b7f5061757361626c653a206e6f7420706175736564000000000000000000000000600082015250565b6000612b866014836120f7565b9150612b9182612b50565b602082019050919050565b60006020820190508181036000830152612bb581612b79565b9050919050565b6000612bc782611fab565b9150612bd283611fab565b9250817fffffffffffffffffffffffffffffffffffffffffffffffffffffffffffffffff0483118215151615612c0b57612c0a6122db565b5b828202905092915050565b6000612c2182611fab565b915060008203612c3457612c336122db565b5b600182039050919050565b7f537472696e67733a20686578206c656e67746820696e73756666696369656e74600082015250565b6000612c756020836120f7565b9150612c8082612c3f565b602082019050919050565b60006020820190508181036000830152612ca481612c68565b9050919050565b6000612cb682611fab565b9150612cc183611fab565b9250828203905081811115612cd957612cd86122db565b5b92915050565b7f4e487b7100000000000000000000000000000000000000000000000000000000600052603160045260246000fdfea2646970667358221220b8976a0a80e25fbe7b782d920f446ea64a5c176e5750fa33e89c069c9e7ccf7b64736f6c63430008100033",
  "linkReferences": {},
  "deployedLinkReferences": {}
}