{
  "address": "0x8A791620dd6260079BF849Dc5567aDC3F2FdC318",
  "abi": [
    {
      "inputs": [
        {
          "internalType": "bytes32",
          "name": "rootNode",
          "type": "bytes32"
        },
        {
          "internalType": "address",
          "name": "_uds",
          "type": "address"
        }
      ],
      "stateMutability": "nonpayable",
      "type": "constructor"
    },
    {
      "anonymous": false,
      "inputs": [
        {
          "indexed": true,
          "internalType": "address",
          "name": "owner",
          "type": "address"
        },
        {
          "indexed": true,
          "internalType": "address",
          "name": "approved",
          "type": "address"
        },
        {
          "indexed": true,
          "internalType": "uint256",
          "name": "tokenId",
          "type": "uint256"
        }
      ],
      "name": "Approval",
      "type": "event"
    },
    {
      "anonymous": false,
      "inputs": [
        {
          "indexed": true,
          "internalType": "address",
          "name": "owner",
          "type": "address"
        },
        {
          "indexed": true,
          "internalType": "address",
          "name": "operator",
          "type": "address"
        },
        {
          "indexed": false,
          "internalType": "bool",
          "name": "approved",
          "type": "bool"
        }
      ],
      "name": "ApprovalForAll",
      "type": "event"
    },
    {
      "anonymous": false,
      "inputs": [
        {
          "indexed": true,
          "internalType": "bytes32",
          "name": "profileId",
          "type": "bytes32"
        },
        {
          "indexed": true,
          "internalType": "address",
          "name": "_owner",
          "type": "address"
        },
        {
          "indexed": true,
          "internalType": "address",
          "name": "target",
          "type": "address"
        },
        {
          "indexed": false,
          "internalType": "bool",
          "name": "isAuthorised",
          "type": "bool"
        }
      ],
      "name": "AuthorisationChanged",
      "type": "event"
    },
    {
      "anonymous": false,
      "inputs": [
        {
          "indexed": false,
          "internalType": "string",
          "name": "message",
          "type": "string"
        }
      ],
      "name": "Log",
      "type": "event"
    },
    {
      "anonymous": false,
      "inputs": [
        {
          "indexed": false,
          "internalType": "uint256",
          "name": "tokenid",
          "type": "uint256"
        },
        {
          "indexed": false,
          "internalType": "bytes32",
          "name": "metaid",
          "type": "bytes32"
        },
        {
          "indexed": false,
          "internalType": "bytes32",
          "name": "keyid",
          "type": "bytes32"
        }
      ],
      "name": "MetaDataAdded",
      "type": "event"
    },
    {
      "anonymous": false,
      "inputs": [
        {
          "indexed": false,
          "internalType": "string",
          "name": "identity",
          "type": "string"
        },
        {
          "indexed": true,
          "internalType": "address",
          "name": "_owner",
          "type": "address"
        },
        {
          "indexed": false,
          "internalType": "uint256",
          "name": "tokenId",
          "type": "uint256"
        }
      ],
      "name": "NewAccountCreated",
      "type": "event"
    },
    {
      "anonymous": false,
      "inputs": [
        {
          "indexed": true,
          "internalType": "address",
          "name": "previousOwner",
          "type": "address"
        },
        {
          "indexed": true,
          "internalType": "address",
          "name": "newOwner",
          "type": "address"
        }
      ],
      "name": "OwnershipTransferred",
      "type": "event"
    },
    {
      "anonymous": false,
      "inputs": [
        {
          "indexed": true,
          "internalType": "address",
          "name": "from",
          "type": "address"
        },
        {
          "indexed": true,
          "internalType": "address",
          "name": "to",
          "type": "address"
        },
        {
          "indexed": true,
          "internalType": "uint256",
          "name": "tokenId",
          "type": "uint256"
        }
      ],
      "name": "Transfer",
      "type": "event"
    },
    {
      "inputs": [],
      "name": "ERC721_ID",
      "outputs": [
        {
          "internalType": "bytes4",
          "name": "",
          "type": "bytes4"
        }
      ],
      "stateMutability": "view",
      "type": "function"
    },
    {
      "inputs": [],
      "name": "IDENT_INTERFACE_ID",
      "outputs": [
        {
          "internalType": "bytes4",
          "name": "",
          "type": "bytes4"
        }
      ],
      "stateMutability": "view",
      "type": "function"
    },
    {
      "inputs": [],
      "name": "METADATA_INTERFACE_ID",
      "outputs": [
        {
          "internalType": "bytes4",
          "name": "",
          "type": "bytes4"
        }
      ],
      "stateMutability": "view",
      "type": "function"
    },
    {
      "inputs": [],
      "name": "METAVALUE_INTERFACE_ID",
      "outputs": [
        {
          "internalType": "bytes4",
          "name": "",
          "type": "bytes4"
        }
      ],
      "stateMutability": "view",
      "type": "function"
    },
    {
      "inputs": [],
      "name": "NAME_INTERFACE_ID",
      "outputs": [
        {
          "internalType": "bytes4",
          "name": "",
          "type": "bytes4"
        }
      ],
      "stateMutability": "view",
      "type": "function"
    },
    {
      "inputs": [],
      "name": "PROFILE_INTERFACE_ID",
      "outputs": [
        {
          "internalType": "bytes4",
          "name": "",
          "type": "bytes4"
        }
      ],
      "stateMutability": "view",
      "type": "function"
    },
    {
      "inputs": [],
      "name": "RECLAIM_ID",
      "outputs": [
        {
          "internalType": "bytes4",
          "name": "",
          "type": "bytes4"
        }
      ],
      "stateMutability": "view",
      "type": "function"
    },
    {
      "inputs": [],
      "name": "REPUTATION_ID",
      "outputs": [
        {
          "internalType": "bytes4",
          "name": "",
          "type": "bytes4"
        }
      ],
      "stateMutability": "view",
      "type": "function"
    },
    {
      "inputs": [],
      "name": "SETMETA_INTERFACE_ID",
      "outputs": [
        {
          "internalType": "bytes4",
          "name": "",
          "type": "bytes4"
        }
      ],
      "stateMutability": "view",
      "type": "function"
    },
    {
      "inputs": [
        {
          "internalType": "address",
          "name": "to",
          "type": "address"
        },
        {
          "internalType": "uint256",
          "name": "tokenId",
          "type": "uint256"
        }
      ],
      "name": "approve",
      "outputs": [],
      "stateMutability": "nonpayable",
      "type": "function"
    },
    {
      "inputs": [
        {
          "internalType": "bytes32",
          "name": "",
          "type": "bytes32"
        },
        {
          "internalType": "address",
          "name": "",
          "type": "address"
        },
        {
          "internalType": "address",
          "name": "",
          "type": "address"
        }
      ],
      "name": "authorisations",
      "outputs": [
        {
          "internalType": "bool",
          "name": "",
          "type": "bool"
        }
      ],
      "stateMutability": "view",
      "type": "function"
    },
    {
      "inputs": [
        {
          "internalType": "address",
          "name": "controller",
          "type": "address"
        }
      ],
      "name": "authorizeController",
      "outputs": [],
      "stateMutability": "nonpayable",
      "type": "function"
    },
    {
      "inputs": [
        {
          "internalType": "address",
          "name": "owner",
          "type": "address"
        }
      ],
      "name": "balanceOf",
      "outputs": [
        {
          "internalType": "uint256",
          "name": "",
          "type": "uint256"
        }
      ],
      "stateMutability": "view",
      "type": "function"
    },
    {
      "inputs": [
        {
          "internalType": "address",
          "name": "",
          "type": "address"
        }
      ],
      "name": "controllers",
      "outputs": [
        {
          "internalType": "bool",
          "name": "",
          "type": "bool"
        }
      ],
      "stateMutability": "view",
      "type": "function"
    },
    {
      "inputs": [
        {
          "internalType": "address",
          "name": "_accountWalletAddress",
          "type": "address"
        }
      ],
      "name": "createNewAccount",
      "outputs": [
        {
          "internalType": "uint256",
          "name": "",
          "type": "uint256"
        }
      ],
      "stateMutability": "nonpayable",
      "type": "function"
    },
    {
      "inputs": [
        {
          "internalType": "address",
          "name": "_accountWalletAddress",
          "type": "address"
        },
        {
          "internalType": "string",
          "name": "accountName",
          "type": "string"
        }
      ],
      "name": "createNewAccount",
      "outputs": [
        {
          "internalType": "uint256",
          "name": "",
          "type": "uint256"
        }
      ],
      "stateMutability": "nonpayable",
      "type": "function"
    },
    {
      "inputs": [
        {
          "internalType": "address",
          "name": "controller",
          "type": "address"
        }
      ],
      "name": "deAuthorizeController",
      "outputs": [],
      "stateMutability": "nonpayable",
      "type": "function"
    },
    {
      "inputs": [
        {
          "internalType": "uint256",
          "name": "tokenId",
          "type": "uint256"
        }
      ],
      "name": "getApproved",
      "outputs": [
        {
          "internalType": "address",
          "name": "",
          "type": "address"
        }
      ],
      "stateMutability": "view",
      "type": "function"
    },
    {
      "inputs": [],
      "name": "getName",
      "outputs": [
        {
          "internalType": "string",
          "name": "",
          "type": "string"
        }
      ],
      "stateMutability": "view",
      "type": "function"
    },
    {
      "inputs": [
        {
          "internalType": "address",
          "name": "_owner",
          "type": "address"
        }
      ],
      "name": "getName",
      "outputs": [
        {
          "internalType": "string",
          "name": "",
          "type": "string"
        }
      ],
      "stateMutability": "view",
      "type": "function"
    },
    {
      "inputs": [
        {
          "internalType": "uint256",
          "name": "tokenId",
          "type": "uint256"
        }
      ],
      "name": "getName",
      "outputs": [
        {
          "internalType": "string",
          "name": "",
          "type": "string"
        }
      ],
      "stateMutability": "view",
      "type": "function"
    },
    {
      "inputs": [
        {
          "internalType": "uint256",
          "name": "tokenId",
          "type": "uint256"
        }
      ],
      "name": "ident",
      "outputs": [
        {
          "internalType": "string",
          "name": "",
          "type": "string"
        }
      ],
      "stateMutability": "view",
      "type": "function"
    },
    {
      "inputs": [
        {
          "internalType": "address",
          "name": "owner",
          "type": "address"
        },
        {
          "internalType": "address",
          "name": "operator",
          "type": "address"
        }
      ],
      "name": "isApprovedForAll",
      "outputs": [
        {
          "internalType": "bool",
          "name": "",
          "type": "bool"
        }
      ],
      "stateMutability": "view",
      "type": "function"
    },
    {
      "inputs": [
        {
          "internalType": "uint256",
          "name": "tokenId",
          "type": "uint256"
        },
        {
          "internalType": "string",
          "name": "keyStr",
          "type": "string"
        }
      ],
      "name": "metaValue",
      "outputs": [
        {
          "components": [
            {
              "internalType": "bytes32",
              "name": "key",
              "type": "bytes32"
            },
            {
              "internalType": "enum MetaDataResolver.DataTypes",
              "name": "dType",
              "type": "uint8"
            },
            {
              "internalType": "bytes",
              "name": "dValue",
              "type": "bytes"
            },
            {
              "internalType": "bool",
              "name": "editable",
              "type": "bool"
            },
            {
              "internalType": "bool",
              "name": "encrypted",
              "type": "bool"
            }
          ],
          "internalType": "struct MetaDataResolver.KeyValMeta",
          "name": "kv",
          "type": "tuple"
        }
      ],
      "stateMutability": "view",
      "type": "function"
    },
    {
      "inputs": [
        {
          "internalType": "uint256",
          "name": "tokenId",
          "type": "uint256"
        }
      ],
      "name": "metadata",
      "outputs": [
        {
          "internalType": "bytes32",
          "name": "",
          "type": "bytes32"
        }
      ],
      "stateMutability": "view",
      "type": "function"
    },
    {
      "inputs": [
        {
          "internalType": "bytes[]",
          "name": "data",
          "type": "bytes[]"
        }
      ],
      "name": "multicall",
      "outputs": [
        {
          "internalType": "bytes[]",
          "name": "results",
          "type": "bytes[]"
        }
      ],
      "stateMutability": "nonpayable",
      "type": "function"
    },
    {
      "inputs": [],
      "name": "myAccountInfo",
      "outputs": [
        {
          "components": [
            {
              "internalType": "uint256",
              "name": "tokenId",
              "type": "uint256"
            },
            {
              "internalType": "string",
              "name": "identity",
              "type": "string"
            },
            {
              "internalType": "address",
              "name": "owner",
              "type": "address"
            },
            {
              "internalType": "bytes32",
              "name": "metasId",
              "type": "bytes32"
            },
            {
              "internalType": "uint256",
              "name": "timestamp",
              "type": "uint256"
            }
          ],
          "internalType": "struct UserDataServiceResolver.AccountInfo",
          "name": "Info",
          "type": "tuple"
        }
      ],
      "stateMutability": "view",
      "type": "function"
    },
    {
      "inputs": [],
      "name": "name",
      "outputs": [
        {
          "internalType": "string",
          "name": "",
          "type": "string"
        }
      ],
      "stateMutability": "view",
      "type": "function"
    },
    {
      "inputs": [
        {
          "internalType": "string",
          "name": "_name",
          "type": "string"
        }
      ],
      "name": "nameOwner",
      "outputs": [
        {
          "internalType": "address",
          "name": "",
          "type": "address"
        }
      ],
      "stateMutability": "view",
      "type": "function"
    },
    {
      "inputs": [],
      "name": "owner",
      "outputs": [
        {
          "internalType": "address",
          "name": "",
          "type": "address"
        }
      ],
      "stateMutability": "view",
      "type": "function"
    },
    {
      "inputs": [
        {
          "internalType": "uint256",
          "name": "tokenId",
          "type": "uint256"
        }
      ],
      "name": "ownerOf",
      "outputs": [
        {
          "internalType": "address",
          "name": "",
          "type": "address"
        }
      ],
      "stateMutability": "view",
      "type": "function"
    },
    {
      "inputs": [
        {
          "internalType": "uint256",
          "name": "tokenId",
          "type": "uint256"
        }
      ],
      "name": "profile",
      "outputs": [
        {
          "internalType": "bytes32",
          "name": "",
          "type": "bytes32"
        }
      ],
      "stateMutability": "view",
      "type": "function"
    },
    {
      "inputs": [],
      "name": "renounceOwnership",
      "outputs": [],
      "stateMutability": "nonpayable",
      "type": "function"
    },
    {
      "inputs": [],
      "name": "rootNodeAddress",
      "outputs": [
        {
          "internalType": "bytes32",
          "name": "",
          "type": "bytes32"
        }
      ],
      "stateMutability": "view",
      "type": "function"
    },
    {
      "inputs": [
        {
          "internalType": "address",
          "name": "from",
          "type": "address"
        },
        {
          "internalType": "address",
          "name": "to",
          "type": "address"
        },
        {
          "internalType": "uint256",
          "name": "tokenId",
          "type": "uint256"
        }
      ],
      "name": "safeTransferFrom",
      "outputs": [],
      "stateMutability": "nonpayable",
      "type": "function"
    },
    {
      "inputs": [
        {
          "internalType": "address",
          "name": "from",
          "type": "address"
        },
        {
          "internalType": "address",
          "name": "to",
          "type": "address"
        },
        {
          "internalType": "uint256",
          "name": "tokenId",
          "type": "uint256"
        },
        {
          "internalType": "bytes",
          "name": "data",
          "type": "bytes"
        }
      ],
      "name": "safeTransferFrom",
      "outputs": [],
      "stateMutability": "nonpayable",
      "type": "function"
    },
    {
      "inputs": [
        {
          "internalType": "address",
          "name": "operator",
          "type": "address"
        },
        {
          "internalType": "bool",
          "name": "approved",
          "type": "bool"
        }
      ],
      "name": "setApprovalForAll",
      "outputs": [],
      "stateMutability": "nonpayable",
      "type": "function"
    },
    {
      "inputs": [
        {
          "internalType": "bytes32",
          "name": "profileId",
          "type": "bytes32"
        },
        {
          "internalType": "address",
          "name": "target",
          "type": "address"
        },
        {
          "internalType": "bool",
          "name": "_isAuthorised",
          "type": "bool"
        }
      ],
      "name": "setAuthorisation",
      "outputs": [],
      "stateMutability": "nonpayable",
      "type": "function"
    },
    {
      "inputs": [
        {
          "internalType": "uint256",
          "name": "tokenId",
          "type": "uint256"
        },
        {
          "internalType": "string",
          "name": "identifier",
          "type": "string"
        }
      ],
      "name": "setIdent",
      "outputs": [],
      "stateMutability": "nonpayable",
      "type": "function"
    },
    {
      "inputs": [
        {
          "internalType": "uint256",
          "name": "tokenId",
          "type": "uint256"
        },
        {
          "internalType": "string",
          "name": "keyStr",
          "type": "string"
        },
        {
          "internalType": "uint256",
          "name": "_dtype",
          "type": "uint256"
        },
        {
          "internalType": "bytes",
          "name": "value",
          "type": "bytes"
        },
        {
          "internalType": "bool",
          "name": "editable",
          "type": "bool"
        },
        {
          "internalType": "bool",
          "name": "encrypted",
          "type": "bool"
        }
      ],
      "name": "setMetaData",
      "outputs": [],
      "stateMutability": "nonpayable",
      "type": "function"
    },
    {
      "inputs": [
        {
          "internalType": "address",
          "name": "resolver",
          "type": "address"
        }
      ],
      "name": "setResolver",
      "outputs": [],
      "stateMutability": "nonpayable",
      "type": "function"
    },
    {
      "inputs": [
        {
          "internalType": "bytes4",
          "name": "interfaceID",
          "type": "bytes4"
        }
      ],
      "name": "supportsInterface",
      "outputs": [
        {
          "internalType": "bool",
          "name": "",
          "type": "bool"
        }
      ],
      "stateMutability": "view",
      "type": "function"
    },
    {
      "inputs": [],
      "name": "symbol",
      "outputs": [
        {
          "internalType": "string",
          "name": "",
          "type": "string"
        }
      ],
      "stateMutability": "view",
      "type": "function"
    },
    {
      "inputs": [
        {
          "internalType": "uint256",
          "name": "tokenId",
          "type": "uint256"
        }
      ],
      "name": "tokenURI",
      "outputs": [
        {
          "internalType": "string",
          "name": "",
          "type": "string"
        }
      ],
      "stateMutability": "view",
      "type": "function"
    },
    {
      "inputs": [
        {
          "internalType": "address",
          "name": "from",
          "type": "address"
        },
        {
          "internalType": "address",
          "name": "to",
          "type": "address"
        },
        {
          "internalType": "uint256",
          "name": "tokenId",
          "type": "uint256"
        }
      ],
      "name": "transferFrom",
      "outputs": [],
      "stateMutability": "nonpayable",
      "type": "function"
    },
    {
      "inputs": [
        {
          "internalType": "address",
          "name": "newOwner",
          "type": "address"
        }
      ],
      "name": "transferOwnership",
      "outputs": [],
      "stateMutability": "nonpayable",
      "type": "function"
    }
  ],
  "transactionHash": "0x4074b24e7bf92e2c9b09d026a87702f28289f99017623c65f9a6d480b8b7da10",
  "args": [
    "0x8ba93eb5190997a6584b6c7dbd7ef9e917afe0665c6e4cccd183e023c930c53b",
    "0x5FbDB2315678afecb367f032d93F642f64180aa3"
  ],
  "numDeployments": 6,
  "solcInputHash": "e8d38e86d4945b88f15444bba0f73d32",
  "bytecode": "0x60806040523480156200001157600080fd5b5060405162005d8438038062005d848339818101604052810190620000379190620002b8565b81816040518060400160405280601381526020017f414b58332045434f53595354454d2055534552000000000000000000000000008152506040518060400160405280600481526020017f414b58550000000000000000000000000000000000000000000000000000000081525081600e9081620000b6919062000579565b5080600f9081620000c8919062000579565b505050620000eb620000df6200014560201b60201c565b6200014d60201b60201c565b80601760006101000a81548173ffffffffffffffffffffffffffffffffffffffff021916908373ffffffffffffffffffffffffffffffffffffffff1602179055508160198190555060006018819055505050505062000660565b600033905090565b6000601460009054906101000a900473ffffffffffffffffffffffffffffffffffffffff16905081601460006101000a81548173ffffffffffffffffffffffffffffffffffffffff021916908373ffffffffffffffffffffffffffffffffffffffff1602179055508173ffffffffffffffffffffffffffffffffffffffff168173ffffffffffffffffffffffffffffffffffffffff167f8be0079c531659141344cd1fd0a4f28419497f9722a3daafe3b4186f6b6457e060405160405180910390a35050565b600080fd5b6000819050919050565b6200022d8162000218565b81146200023957600080fd5b50565b6000815190506200024d8162000222565b92915050565b600073ffffffffffffffffffffffffffffffffffffffff82169050919050565b6000620002808262000253565b9050919050565b620002928162000273565b81146200029e57600080fd5b50565b600081519050620002b28162000287565b92915050565b60008060408385031215620002d257620002d162000213565b5b6000620002e2858286016200023c565b9250506020620002f585828601620002a1565b9150509250929050565b600081519050919050565b7f4e487b7100000000000000000000000000000000000000000000000000000000600052604160045260246000fd5b7f4e487b7100000000000000000000000000000000000000000000000000000000600052602260045260246000fd5b600060028204905060018216806200038157607f821691505b60208210810362000397576200039662000339565b5b50919050565b60008190508160005260206000209050919050565b60006020601f8301049050919050565b600082821b905092915050565b600060088302620004017fffffffffffffffffffffffffffffffffffffffffffffffffffffffffffffffff82620003c2565b6200040d8683620003c2565b95508019841693508086168417925050509392505050565b6000819050919050565b6000819050919050565b60006200045a620004546200044e8462000425565b6200042f565b62000425565b9050919050565b6000819050919050565b620004768362000439565b6200048e620004858262000461565b848454620003cf565b825550505050565b600090565b620004a562000496565b620004b28184846200046b565b505050565b5b81811015620004da57620004ce6000826200049b565b600181019050620004b8565b5050565b601f8211156200052957620004f3816200039d565b620004fe84620003b2565b810160208510156200050e578190505b620005266200051d85620003b2565b830182620004b7565b50505b505050565b600082821c905092915050565b60006200054e600019846008026200052e565b1980831691505092915050565b60006200056983836200053b565b9150826002028217905092915050565b6200058482620002ff565b67ffffffffffffffff811115620005a0576200059f6200030a565b5b620005ac825462000368565b620005b9828285620004de565b600060209050601f831160018114620005f15760008415620005dc578287015190505b620005e885826200055b565b86555062000658565b601f19841662000601866200039d565b60005b828110156200062b5784890151825560018201915060208501945060208101905062000604565b868310156200064b578489015162000647601f8916826200053b565b8355505b6001600288020188555050505b505050505050565b61571480620006706000396000f3fe608060405234801561001057600080fd5b506004361061028a5760003560e01c806370a082311161015c578063c87b56dd116100ce578063e985e9c511610087578063e985e9c514610825578063eca0276314610855578063f2fde38b14610871578063f31a12521461088d578063f86bc879146108ab578063fe05c3d9146108db5761028a565b8063c87b56dd1461072b578063da8c229e1461075b578063e08670bf1461078b578063e18c3a06146107a9578063e2ab6cbf146107d9578063e3684e39146107f55761028a565b806395d89b411161012057806395d89b41146106695780639e502b5814610687578063a22cb465146106a5578063ac9650d8146106c1578063b88d4fde146106f1578063bbe39bf71461070d5761028a565b806370a08231146105c3578063715018a6146105f357806372cd2b1a146105fd5780637fc0a9e51461062d5780638da5cb5b1461064b5761028a565b80632ed55dec116102005780634f96baf1116101b95780634f96baf1146104c95780635258e560146104f957806359de0deb146105175780635fd4b08a146105335780636352211e146105635780636b8ff574146105935761028a565b80632ed55dec1461040957806334cf6659146104275780633e9ce7941461044557806342842e0e146104615780634dc346821461047d5780634e543b26146104ad5761028a565b806308730f071161025257806308730f0714610349578063095ea7b3146103655780630e2f9f101461038157806317d7de7c146103b157806323b872dd146103cf57806327b85035146103eb5761028a565b8063012089d21461028f57806301ffc9a7146102ad578063044c6c54146102dd57806306fdde03146102fb578063081812fc14610319575b600080fd5b61029761090b565b6040516102a491906135b9565b60405180910390f35b6102c760048036038101906102c29190613647565b610a68565b6040516102d4919061368f565b60405180910390f35b6102e5610a7a565b6040516102f291906136b9565b60405180910390f35b610303610a85565b604051610310919061371e565b60405180910390f35b610333600480360381019061032e919061376c565b610b17565b60405161034091906137a8565b60405180910390f35b610363600480360381019061035e91906139c5565b610b5d565b005b61037f600480360381019061037a9190613ab6565b610dfa565b005b61039b6004803603810190610396919061376c565b610f11565b6040516103a8919061371e565b60405180910390f35b6103b9610fb5565b6040516103c6919061371e565b60405180910390f35b6103e960048036038101906103e49190613af6565b611084565b005b6103f36110e4565b60405161040091906136b9565b60405180910390f35b6104116110ef565b60405161041e91906136b9565b60405180910390f35b61042f611245565b60405161043c91906136b9565b60405180910390f35b61045f600480360381019061045a9190613b75565b61124f565b005b61047b60048036038101906104769190613af6565b61135f565b005b61049760048036038101906104929190613bc8565b61137f565b6040516104a49190613d75565b60405180910390f35b6104c760048036038101906104c29190613d97565b61143a565b005b6104e360048036038101906104de9190613d97565b6114d6565b6040516104f09190613dd3565b60405180910390f35b610501611558565b60405161050e91906136b9565b60405180910390f35b610531600480360381019061052c9190613d97565b611563565b005b61054d60048036038101906105489190613d97565b6115c6565b60405161055a919061371e565b60405180910390f35b61057d6004803603810190610578919061376c565b611697565b60405161058a91906137a8565b60405180910390f35b6105ad60048036038101906105a8919061376c565b611748565b6040516105ba919061371e565b60405180910390f35b6105dd60048036038101906105d89190613d97565b6117ed565b6040516105ea9190613dd3565b60405180910390f35b6105fb6118a4565b005b6106176004803603810190610612919061376c565b6118b8565b6040516106249190613dfd565b60405180910390f35b6106356118d5565b60405161064291906136b9565b60405180910390f35b6106536118e0565b60405161066091906137a8565b60405180910390f35b61067161190a565b60405161067e919061371e565b60405180910390f35b61068f61199c565b60405161069c91906136b9565b60405180910390f35b6106bf60048036038101906106ba9190613e18565b6119c0565b005b6106db60048036038101906106d69190613eb8565b6119d6565b6040516106e89190613fc7565b60405180910390f35b61070b60048036038101906107069190613fe9565b611b10565b005b610715611b72565b6040516107229190613dfd565b60405180910390f35b6107456004803603810190610740919061376c565b611b78565b604051610752919061371e565b60405180910390f35b61077560048036038101906107709190613d97565b611be0565b604051610782919061368f565b60405180910390f35b610793611c00565b6040516107a091906136b9565b60405180910390f35b6107c360048036038101906107be919061406c565b611c0b565b6040516107d091906137a8565b60405180910390f35b6107f360048036038101906107ee9190613bc8565b611c53565b005b61080f600480360381019061080a919061376c565b611cde565b60405161081c9190613dfd565b60405180910390f35b61083f600480360381019061083a91906140b5565b611cfb565b60405161084c919061368f565b60405180910390f35b61086f600480360381019061086a9190613d97565b611d8f565b005b61088b60048036038101906108869190613d97565b611df2565b005b610895611e75565b6040516108a291906136b9565b60405180910390f35b6108c560048036038101906108c091906140f5565b611e99565b6040516108d2919061368f565b60405180910390f35b6108f560048036038101906108f09190614148565b611ed5565b6040516109029190613dd3565b60405180910390f35b6109136133b0565b601b60003373ffffffffffffffffffffffffffffffffffffffff1673ffffffffffffffffffffffffffffffffffffffff1681526020019081526020016000206040518060a001604052908160008201548152602001600182018054610977906141d3565b80601f01602080910402602001604051908101604052809291908181526020018280546109a3906141d3565b80156109f05780601f106109c5576101008083540402835291602001916109f0565b820191906000526020600020905b8154815290600101906020018083116109d357829003601f168201915b505050505081526020016002820160009054906101000a900473ffffffffffffffffffffffffffffffffffffffff1673ffffffffffffffffffffffffffffffffffffffff1673ffffffffffffffffffffffffffffffffffffffff16815260200160038201548152602001600482015481525050905090565b6000610a7382611ef8565b9050919050565b6308730f0760e01b81565b6060600e8054610a94906141d3565b80601f0160208091040260200160405190810160405280929190818152602001828054610ac0906141d3565b8015610b0d5780601f10610ae257610100808354040283529160200191610b0d565b820191906000526020600020905b815481529060010190602001808311610af057829003601f168201915b5050505050905090565b6000610b2282611fda565b6012600083815260200190815260200160002060009054906101000a900473ffffffffffffffffffffffffffffffffffffffff169050919050565b600d600087815260200190815260200160002060009054906101000a900473ffffffffffffffffffffffffffffffffffffffff1673ffffffffffffffffffffffffffffffffffffffff163373ffffffffffffffffffffffffffffffffffffffff1614610bfe576040517f08c379a0000000000000000000000000000000000000000000000000000000008152600401610bf590614250565b60405180910390fd5b60006007600088815260200190815260200160002054905060011515600b87604051610c2a91906142ac565b908152602001604051809103902060009054906101000a900460ff16151514610cce576001600b87604051610c5f91906142ac565b908152602001604051809103902060006101000a81548160ff02191690831515021790555085604051602001610c9591906142ac565b60405160208183030381529060405280519060200120600a87604051610cbb91906142ac565b9081526020016040518091039020819055505b6000600a87604051610ce091906142ac565b908152602001604051809103902054905060006040518060a00160405280838152602001886006811115610d1757610d16613c24565b5b6006811115610d2957610d28613c24565b5b815260200187604051602001610d3f919061430d565b60405160208183030381529060405281526020018615158152602001851515815250905080604051602001610d749190613d75565b604051602081830303815290604052600c600085815260200190815260200160002060008481526020019081526020016000209081610db391906144db565b507f0e7d31702c053db64a9bb1c5fa3ceeda422af277139cc645fccdcf87ad23970c898484604051610de7939291906145ad565b60405180910390a1505050505050505050565b6000610e0582611697565b90508073ffffffffffffffffffffffffffffffffffffffff168373ffffffffffffffffffffffffffffffffffffffff1603610e75576040517f08c379a0000000000000000000000000000000000000000000000000000000008152600401610e6c90614656565b60405180910390fd5b8073ffffffffffffffffffffffffffffffffffffffff16610e94612025565b73ffffffffffffffffffffffffffffffffffffffff161480610ec35750610ec281610ebd612025565b611cfb565b5b610f02576040517f08c379a0000000000000000000000000000000000000000000000000000000008152600401610ef9906146e8565b60405180910390fd5b610f0c838361202d565b505050565b60606000808381526020019081526020016000208054610f30906141d3565b80601f0160208091040260200160405190810160405280929190818152602001828054610f5c906141d3565b8015610fa95780601f10610f7e57610100808354040283529160200191610fa9565b820191906000526020600020905b815481529060010190602001808311610f8c57829003601f168201915b50505050509050919050565b6060600360003373ffffffffffffffffffffffffffffffffffffffff1673ffffffffffffffffffffffffffffffffffffffff1681526020019081526020016000208054611001906141d3565b80601f016020809104026020016040519081016040528092919081815260200182805461102d906141d3565b801561107a5780601f1061104f5761010080835404028352916020019161107a565b820191906000526020600020905b81548152906001019060200180831161105d57829003601f168201915b5050505050905090565b61109561108f612025565b826120e6565b6110d4576040517f08c379a00000000000000000000000000000000000000000000000000000000081526004016110cb9061477a565b60405180910390fd5b6110df83838361217b565b505050565b630e2f9f1060e01b81565b7f4420e4869750c98a56ac621854d2d00e598698ac87193cdfcbb6ed1164e9cbcd7fb88d4fde60196325a28bb7f99a2582e0b46de55b18761e960c14ad7a320994657f42842e0eb38857a7775b4e7364b2775df7325074d088e7fb39590cd6281184ed7f23b872dd7302113369cda2901243429419bec145408fa8b352b3dd92b66c680b7fe985e9c5c6636c6879256001057b28ccac7718ef0ac56553ff9b926452cab8a37fa22cb4651ab9570f89bb516380c40ce76762284fb1f21337ceaf6adab99e7d4a7f081812fc55e34fdc7cf5d8b5cf4e3621fa6423fde952ec6ab24afdc0d85c0b2e7f095ea7b334ae44009aa867bfb386f5c3b4b443ac6f0ee573fa91c4608fbadfba7f6352211e6566aa027e75ac9dbf2423197fbd9b82b9d981a3ab367d355866aa1c7f70a08231b98ef4ca268c9cc3f6b4590e4bfec28280db06bb5d45e689f2a360be18181818181818181881565b62ad800c60e01b81565b80601a600085815260200190815260200160002060003373ffffffffffffffffffffffffffffffffffffffff1673ffffffffffffffffffffffffffffffffffffffff16815260200190815260200160002060008473ffffffffffffffffffffffffffffffffffffffff1673ffffffffffffffffffffffffffffffffffffffff16815260200190815260200160002060006101000a81548160ff0219169083151502179055508173ffffffffffffffffffffffffffffffffffffffff163373ffffffffffffffffffffffffffffffffffffffff16847fe1c5610a6e0cbe10764ecd182adcef1ec338dc4e199c99c32ce98f38e12791df84604051611352919061368f565b60405180910390a4505050565b61137a83838360405180602001604052806000815250611b10565b505050565b6113876133f8565b60003073ffffffffffffffffffffffffffffffffffffffff1663e3684e39856040518263ffffffff1660e01b81526004016113c29190613dd3565b602060405180830381865afa1580156113df573d6000803e3d6000fd5b505050506040513d601f19601f8201168201806040525081019061140391906147af565b9050600061141a61141483866123e1565b83612453565b9050808060200190518101906114309190614938565b9250505092915050565b61144261250a565b601760009054906101000a900473ffffffffffffffffffffffffffffffffffffffff1673ffffffffffffffffffffffffffffffffffffffff16631896f70a601954836040518363ffffffff1660e01b81526004016114a1929190614981565b600060405180830381600087803b1580156114bb57600080fd5b505af11580156114cf573d6000803e3d6000fd5b5050505050565b60007fcf34ef537ac33ee1ac626ca1587a0a7e8e51561e5514f8cb36afa1c5102b3bab604051611505906149f6565b60405180910390a1600061151883612588565b90507fcf34ef537ac33ee1ac626ca1587a0a7e8e51561e5514f8cb36afa1c5102b3bab60405161154790614a62565b60405180910390a180915050919050565b63e3684e3960e01b81565b61156b61250a565b6000601560008373ffffffffffffffffffffffffffffffffffffffff1673ffffffffffffffffffffffffffffffffffffffff16815260200190815260200160002060006101000a81548160ff02191690831515021790555050565b6060600360008373ffffffffffffffffffffffffffffffffffffffff1673ffffffffffffffffffffffffffffffffffffffff1681526020019081526020016000208054611612906141d3565b80601f016020809104026020016040519081016040528092919081815260200182805461163e906141d3565b801561168b5780601f106116605761010080835404028352916020019161168b565b820191906000526020600020905b81548152906001019060200180831161166e57829003601f168201915b50505050509050919050565b6000806010600084815260200190815260200160002060009054906101000a900473ffffffffffffffffffffffffffffffffffffffff169050600073ffffffffffffffffffffffffffffffffffffffff168173ffffffffffffffffffffffffffffffffffffffff160361173f576040517f08c379a000000000000000000000000000000000000000000000000000000000815260040161173690614ace565b60405180910390fd5b80915050919050565b6060600260008381526020019081526020016000208054611768906141d3565b80601f0160208091040260200160405190810160405280929190818152602001828054611794906141d3565b80156117e15780601f106117b6576101008083540402835291602001916117e1565b820191906000526020600020905b8154815290600101906020018083116117c457829003601f168201915b50505050509050919050565b60008073ffffffffffffffffffffffffffffffffffffffff168273ffffffffffffffffffffffffffffffffffffffff160361185d576040517f08c379a000000000000000000000000000000000000000000000000000000000815260040161185490614b60565b60405180910390fd5b601160008373ffffffffffffffffffffffffffffffffffffffff1673ffffffffffffffffffffffffffffffffffffffff168152602001908152602001600020549050919050565b6118ac61250a565b6118b660006126e2565b565b600060056000838152602001908152602001600020549050919050565b6372cd2b1a60e01b81565b6000601460009054906101000a900473ffffffffffffffffffffffffffffffffffffffff16905090565b6060600f8054611919906141d3565b80601f0160208091040260200160405190810160405280929190818152602001828054611945906141d3565b80156119925780601f1061196757610100808354040283529160200191611992565b820191906000526020600020905b81548152906001019060200180831161197557829003601f168201915b5050505050905090565b7f28ed4f6c74b219a5819055dfbcd2f1837c046c364cf01fabb6799e4f440d6f1381565b6119d26119cb612025565b83836127a8565b5050565b60608282905067ffffffffffffffff8111156119f5576119f46137cd565b5b604051908082528060200260200182016040528015611a2857816020015b6060815260200190600190039081611a135790505b50905060005b83839050811015611b09576000803073ffffffffffffffffffffffffffffffffffffffff16868685818110611a6657611a65614b80565b5b9050602002810190611a789190614bbe565b604051611a86929190614c51565b600060405180830381855af49150503d8060008114611ac1576040519150601f19603f3d011682016040523d82523d6000602084013e611ac6565b606091505b509150915081611ad557600080fd5b80848481518110611ae957611ae8614b80565b5b602002602001018190525050508080611b0190614c99565b915050611a2e565b5092915050565b611b21611b1b612025565b836120e6565b611b60576040517f08c379a0000000000000000000000000000000000000000000000000000000008152600401611b579061477a565b60405180910390fd5b611b6c84848484612914565b50505050565b60195481565b6060611b8382611fda565b6000611b8d612970565b90506000815111611bad5760405180602001604052806000815250611bd8565b80611bb784612987565b604051602001611bc8929190614ce1565b6040516020818303038152906040525b915050919050565b60156020528060005260406000206000915054906101000a900460ff1681565b634dc3468260e01b81565b6000600482604051611c1d91906142ac565b908152602001604051809103902060009054906101000a900473ffffffffffffffffffffffffffffffffffffffff169050919050565b600115156001600084815260200190815260200160002060009054906101000a900460ff16151503611cba576040517f08c379a0000000000000000000000000000000000000000000000000000000008152600401611cb190614d51565b60405180910390fd5b806000808481526020019081526020016000209081611cd99190614dcc565b505050565b600060076000838152602001908152602001600020549050919050565b6000601360008473ffffffffffffffffffffffffffffffffffffffff1673ffffffffffffffffffffffffffffffffffffffff16815260200190815260200160002060008373ffffffffffffffffffffffffffffffffffffffff1673ffffffffffffffffffffffffffffffffffffffff16815260200190815260200160002060009054906101000a900460ff16905092915050565b611d9761250a565b6001601560008373ffffffffffffffffffffffffffffffffffffffff1673ffffffffffffffffffffffffffffffffffffffff16815260200190815260200160002060006101000a81548160ff02191690831515021790555050565b611dfa61250a565b600073ffffffffffffffffffffffffffffffffffffffff168173ffffffffffffffffffffffffffffffffffffffff1603611e69576040517f08c379a0000000000000000000000000000000000000000000000000000000008152600401611e6090614f10565b60405180910390fd5b611e72816126e2565b50565b7f56c708d57e33cc71507c0ab2242d1bed8052197860a551d2b84fd7e949ef74fb81565b601a602052826000526040600020602052816000526040600020602052806000526040600020600092509250509054906101000a900460ff1681565b600080611ee184612588565b9050611eee848285612ae7565b8091505092915050565b60007f80ac58cd000000000000000000000000000000000000000000000000000000007bffffffffffffffffffffffffffffffffffffffffffffffffffffffff1916827bffffffffffffffffffffffffffffffffffffffffffffffffffffffff19161480611fc357507f5b5e139f000000000000000000000000000000000000000000000000000000007bffffffffffffffffffffffffffffffffffffffffffffffffffffffff1916827bffffffffffffffffffffffffffffffffffffffffffffffffffffffff1916145b80611fd35750611fd282612bb7565b5b9050919050565b611fe381612bc9565b612022576040517f08c379a000000000000000000000000000000000000000000000000000000000815260040161201990614ace565b60405180910390fd5b50565b600033905090565b816012600083815260200190815260200160002060006101000a81548173ffffffffffffffffffffffffffffffffffffffff021916908373ffffffffffffffffffffffffffffffffffffffff160217905550808273ffffffffffffffffffffffffffffffffffffffff166120a083611697565b73ffffffffffffffffffffffffffffffffffffffff167f8c5be1e5ebec7d5bd14f71427d1e84f3dd0314c0f7b2291e5b200ac8c7c3b92560405160405180910390a45050565b6000806120f283611697565b90508073ffffffffffffffffffffffffffffffffffffffff168473ffffffffffffffffffffffffffffffffffffffff16148061216157508373ffffffffffffffffffffffffffffffffffffffff1661214984610b17565b73ffffffffffffffffffffffffffffffffffffffff16145b8061217257506121718185611cfb565b5b91505092915050565b8273ffffffffffffffffffffffffffffffffffffffff1661219b82611697565b73ffffffffffffffffffffffffffffffffffffffff16146121f1576040517f08c379a00000000000000000000000000000000000000000000000000000000081526004016121e890614fa2565b60405180910390fd5b600073ffffffffffffffffffffffffffffffffffffffff168273ffffffffffffffffffffffffffffffffffffffff1603612260576040517f08c379a000000000000000000000000000000000000000000000000000000000815260040161225790615034565b60405180910390fd5b61226b838383612c35565b61227660008261202d565b6001601160008573ffffffffffffffffffffffffffffffffffffffff1673ffffffffffffffffffffffffffffffffffffffff16815260200190815260200160002060008282546122c69190615054565b925050819055506001601160008473ffffffffffffffffffffffffffffffffffffffff1673ffffffffffffffffffffffffffffffffffffffff168152602001908152602001600020600082825461231d9190615088565b92505081905550816010600083815260200190815260200160002060006101000a81548173ffffffffffffffffffffffffffffffffffffffff021916908373ffffffffffffffffffffffffffffffffffffffff160217905550808273ffffffffffffffffffffffffffffffffffffffff168473ffffffffffffffffffffffffffffffffffffffff167fddf252ad1be2c89b69c2b068fc378daa952ba7f163c4a11628f55a4df523b3ef60405160405180910390a46123dc838383612c3a565b505050565b60006123ed8383612c3f565b61242c576040517f08c379a000000000000000000000000000000000000000000000000000000000815260040161242390615108565b60405180910390fd5b600a8260405161243c91906142ac565b908152602001604051809103902054905092915050565b6060600c600084815260200190815260200160002060008381526020019081526020016000208054612484906141d3565b80601f01602080910402602001604051908101604052809291908181526020018280546124b0906141d3565b80156124fd5780601f106124d2576101008083540402835291602001916124fd565b820191906000526020600020905b8154815290600101906020018083116124e057829003601f168201915b5050505050905092915050565b612512612025565b73ffffffffffffffffffffffffffffffffffffffff166125306118e0565b73ffffffffffffffffffffffffffffffffffffffff1614612586576040517f08c379a000000000000000000000000000000000000000000000000000000000815260040161257d90615174565b60405180910390fd5b565b60007fcf34ef537ac33ee1ac626ca1587a0a7e8e51561e5514f8cb36afa1c5102b3bab6040516125b790615206565b60405180910390a160006125cc836001612c8d565b90507fcf34ef537ac33ee1ac626ca1587a0a7e8e51561e5514f8cb36afa1c5102b3bab6040516125fb90615298565b60405180910390a160008184604051602001612618929190615321565b60405160208183030381529060405290506126338282611c53565b7fcf34ef537ac33ee1ac626ca1587a0a7e8e51561e5514f8cb36afa1c5102b3bab60405161266090615399565b60405180910390a160006126748386612d3d565b9050600061268484848885612e37565b90508573ffffffffffffffffffffffffffffffffffffffff167f9d19578a2c19f284d0746198abed6fe4f380208b97922b99bc6783cc611332d684866040516126ce9291906153b9565b60405180910390a283945050505050919050565b6000601460009054906101000a900473ffffffffffffffffffffffffffffffffffffffff16905081601460006101000a81548173ffffffffffffffffffffffffffffffffffffffff021916908373ffffffffffffffffffffffffffffffffffffffff1602179055508173ffffffffffffffffffffffffffffffffffffffff168173ffffffffffffffffffffffffffffffffffffffff167f8be0079c531659141344cd1fd0a4f28419497f9722a3daafe3b4186f6b6457e060405160405180910390a35050565b8173ffffffffffffffffffffffffffffffffffffffff168373ffffffffffffffffffffffffffffffffffffffff1603612816576040517f08c379a000000000000000000000000000000000000000000000000000000000815260040161280d90615435565b60405180910390fd5b80601360008573ffffffffffffffffffffffffffffffffffffffff1673ffffffffffffffffffffffffffffffffffffffff16815260200190815260200160002060008473ffffffffffffffffffffffffffffffffffffffff1673ffffffffffffffffffffffffffffffffffffffff16815260200190815260200160002060006101000a81548160ff0219169083151502179055508173ffffffffffffffffffffffffffffffffffffffff168373ffffffffffffffffffffffffffffffffffffffff167f17307eab39ab6107e8899845ad3d59bd9653f200f220920489ca2b5937696c3183604051612907919061368f565b60405180910390a3505050565b61291f84848461217b565b61292b84848484612f4a565b61296a576040517f08c379a0000000000000000000000000000000000000000000000000000000008152600401612961906154c7565b60405180910390fd5b50505050565b606060405180602001604052806000815250905090565b6060600082036129ce576040518060400160405280600181526020017f30000000000000000000000000000000000000000000000000000000000000008152509050612ae2565b600082905060005b60008214612a005780806129e990614c99565b915050600a826129f99190615516565b91506129d6565b60008167ffffffffffffffff811115612a1c57612a1b6137cd565b5b6040519080825280601f01601f191660200182016040528015612a4e5781602001600182028036833780820191505090505b5090505b60008514612adb57600182612a679190615054565b9150600a85612a769190615547565b6030612a829190615088565b60f81b818381518110612a9857612a97614b80565b5b60200101907effffffffffffffffffffffffffffffffffffffffffffffffffffffffffffff1916908160001a905350600a85612ad49190615516565b9450612a52565b8093505050505b919050565b80600260008481526020019081526020016000209081612b079190614dcc565b5080600360008573ffffffffffffffffffffffffffffffffffffffff1673ffffffffffffffffffffffffffffffffffffffff1681526020019081526020016000209081612b549190614dcc565b5082600482604051612b6691906142ac565b908152602001604051809103902060006101000a81548173ffffffffffffffffffffffffffffffffffffffff021916908373ffffffffffffffffffffffffffffffffffffffff160217905550505050565b6000612bc2826130d1565b9050919050565b60008073ffffffffffffffffffffffffffffffffffffffff166010600084815260200190815260200160002060009054906101000a900473ffffffffffffffffffffffffffffffffffffffff1673ffffffffffffffffffffffffffffffffffffffff1614159050919050565b505050565b505050565b6000600115156009600085815260200190815260200160002083604051612c6691906142ac565b908152602001604051809103902060009054906101000a900460ff16151514905092915050565b60008060186000815480929190612ca390614c99565b9190505590506001601660006018548152602001908152602001600020600083815260200190815260200160002060006101000a81548160ff021916908315150217905550612cf2848261313b565b6000601660006018548152602001908152602001600020600083815260200190815260200160002060006101000a81548160ff02191690831515021790555060185491505092915050565b600081600d600085815260200190815260200160002060006101000a81548173ffffffffffffffffffffffffffffffffffffffff021916908373ffffffffffffffffffffffffffffffffffffffff160217905550600083604051602001612da49190613dd3565b604051602081830303815290604052805190602001209050600115156008600083815260200190815260200160002060009054906101000a900460ff16151514612e2d5760016008600083815260200190815260200160002060006101000a81548160ff0219169083151502179055508060076000868152602001908152602001600020819055505b8091505092915050565b612e3f6133b0565b60006040518060a001604052808781526020018681526020018573ffffffffffffffffffffffffffffffffffffffff16815260200184815260200142815250905080601b60008673ffffffffffffffffffffffffffffffffffffffff1673ffffffffffffffffffffffffffffffffffffffff168152602001908152602001600020600082015181600001556020820151816001019081612edf9190614dcc565b5060408201518160020160006101000a81548173ffffffffffffffffffffffffffffffffffffffff021916908373ffffffffffffffffffffffffffffffffffffffff160217905550606082015181600301556080820151816004015590505080915050949350505050565b6000612f6b8473ffffffffffffffffffffffffffffffffffffffff16613159565b156130c4578373ffffffffffffffffffffffffffffffffffffffff1663150b7a02612f94612025565b8786866040518563ffffffff1660e01b8152600401612fb69493929190615578565b6020604051808303816000875af1925050508015612ff257506040513d601f19601f82011682018060405250810190612fef91906155d9565b60015b613074573d8060008114613022576040519150601f19603f3d011682016040523d82523d6000602084013e613027565b606091505b50600081510361306c576040517f08c379a0000000000000000000000000000000000000000000000000000000008152600401613063906154c7565b60405180910390fd5b805181602001fd5b63150b7a0260e01b7bffffffffffffffffffffffffffffffffffffffffffffffffffffffff1916817bffffffffffffffffffffffffffffffffffffffffffffffffffffffff1916149150506130c9565b600190505b949350505050565b60007f01ffc9a7000000000000000000000000000000000000000000000000000000007bffffffffffffffffffffffffffffffffffffffffffffffffffffffff1916827bffffffffffffffffffffffffffffffffffffffffffffffffffffffff1916149050919050565b61315582826040518060200160405280600081525061317c565b5050565b6000808273ffffffffffffffffffffffffffffffffffffffff163b119050919050565b61318683836131d7565b6131936000848484612f4a565b6131d2576040517f08c379a00000000000000000000000000000000000000000000000000000000081526004016131c9906154c7565b60405180910390fd5b505050565b600073ffffffffffffffffffffffffffffffffffffffff168273ffffffffffffffffffffffffffffffffffffffff1603613246576040517f08c379a000000000000000000000000000000000000000000000000000000000815260040161323d90615652565b60405180910390fd5b61324f81612bc9565b1561328f576040517f08c379a0000000000000000000000000000000000000000000000000000000008152600401613286906156be565b60405180910390fd5b61329b60008383612c35565b6001601160008473ffffffffffffffffffffffffffffffffffffffff1673ffffffffffffffffffffffffffffffffffffffff16815260200190815260200160002060008282546132eb9190615088565b92505081905550816010600083815260200190815260200160002060006101000a81548173ffffffffffffffffffffffffffffffffffffffff021916908373ffffffffffffffffffffffffffffffffffffffff160217905550808273ffffffffffffffffffffffffffffffffffffffff16600073ffffffffffffffffffffffffffffffffffffffff167fddf252ad1be2c89b69c2b068fc378daa952ba7f163c4a11628f55a4df523b3ef60405160405180910390a46133ac60008383612c3a565b5050565b6040518060a001604052806000815260200160608152602001600073ffffffffffffffffffffffffffffffffffffffff16815260200160008019168152602001600081525090565b6040518060a00160405280600080191681526020016000600681111561342157613420613c24565b5b8152602001606081526020016000151581526020016000151581525090565b6000819050919050565b61345381613440565b82525050565b600081519050919050565b600082825260208201905092915050565b60005b83811015613493578082015181840152602081019050613478565b60008484015250505050565b6000601f19601f8301169050919050565b60006134bb82613459565b6134c58185613464565b93506134d5818560208601613475565b6134de8161349f565b840191505092915050565b600073ffffffffffffffffffffffffffffffffffffffff82169050919050565b6000613514826134e9565b9050919050565b61352481613509565b82525050565b6000819050919050565b61353d8161352a565b82525050565b600060a08301600083015161355b600086018261344a565b506020830151848203602086015261357382826134b0565b9150506040830151613588604086018261351b565b50606083015161359b6060860182613534565b5060808301516135ae608086018261344a565b508091505092915050565b600060208201905081810360008301526135d38184613543565b905092915050565b6000604051905090565b600080fd5b600080fd5b60007fffffffff0000000000000000000000000000000000000000000000000000000082169050919050565b613624816135ef565b811461362f57600080fd5b50565b6000813590506136418161361b565b92915050565b60006020828403121561365d5761365c6135e5565b5b600061366b84828501613632565b91505092915050565b60008115159050919050565b61368981613674565b82525050565b60006020820190506136a46000830184613680565b92915050565b6136b3816135ef565b82525050565b60006020820190506136ce60008301846136aa565b92915050565b600082825260208201905092915050565b60006136f082613459565b6136fa81856136d4565b935061370a818560208601613475565b6137138161349f565b840191505092915050565b6000602082019050818103600083015261373881846136e5565b905092915050565b61374981613440565b811461375457600080fd5b50565b60008135905061376681613740565b92915050565b600060208284031215613782576137816135e5565b5b600061379084828501613757565b91505092915050565b6137a281613509565b82525050565b60006020820190506137bd6000830184613799565b92915050565b600080fd5b600080fd5b7f4e487b7100000000000000000000000000000000000000000000000000000000600052604160045260246000fd5b6138058261349f565b810181811067ffffffffffffffff82111715613824576138236137cd565b5b80604052505050565b60006138376135db565b905061384382826137fc565b919050565b600067ffffffffffffffff821115613863576138626137cd565b5b61386c8261349f565b9050602081019050919050565b82818337600083830152505050565b600061389b61389684613848565b61382d565b9050828152602081018484840111156138b7576138b66137c8565b5b6138c2848285613879565b509392505050565b600082601f8301126138df576138de6137c3565b5b81356138ef848260208601613888565b91505092915050565b600067ffffffffffffffff821115613913576139126137cd565b5b61391c8261349f565b9050602081019050919050565b600061393c613937846138f8565b61382d565b905082815260208101848484011115613958576139576137c8565b5b613963848285613879565b509392505050565b600082601f8301126139805761397f6137c3565b5b8135613990848260208601613929565b91505092915050565b6139a281613674565b81146139ad57600080fd5b50565b6000813590506139bf81613999565b92915050565b60008060008060008060c087890312156139e2576139e16135e5565b5b60006139f089828a01613757565b965050602087013567ffffffffffffffff811115613a1157613a106135ea565b5b613a1d89828a016138ca565b9550506040613a2e89828a01613757565b945050606087013567ffffffffffffffff811115613a4f57613a4e6135ea565b5b613a5b89828a0161396b565b9350506080613a6c89828a016139b0565b92505060a0613a7d89828a016139b0565b9150509295509295509295565b613a9381613509565b8114613a9e57600080fd5b50565b600081359050613ab081613a8a565b92915050565b60008060408385031215613acd57613acc6135e5565b5b6000613adb85828601613aa1565b9250506020613aec85828601613757565b9150509250929050565b600080600060608486031215613b0f57613b0e6135e5565b5b6000613b1d86828701613aa1565b9350506020613b2e86828701613aa1565b9250506040613b3f86828701613757565b9150509250925092565b613b528161352a565b8114613b5d57600080fd5b50565b600081359050613b6f81613b49565b92915050565b600080600060608486031215613b8e57613b8d6135e5565b5b6000613b9c86828701613b60565b9350506020613bad86828701613aa1565b9250506040613bbe868287016139b0565b9150509250925092565b60008060408385031215613bdf57613bde6135e5565b5b6000613bed85828601613757565b925050602083013567ffffffffffffffff811115613c0e57613c0d6135ea565b5b613c1a858286016138ca565b9150509250929050565b7f4e487b7100000000000000000000000000000000000000000000000000000000600052602160045260246000fd5b60078110613c6457613c63613c24565b5b50565b6000819050613c7582613c53565b919050565b6000613c8582613c67565b9050919050565b613c9581613c7a565b82525050565b600081519050919050565b600082825260208201905092915050565b6000613cc282613c9b565b613ccc8185613ca6565b9350613cdc818560208601613475565b613ce58161349f565b840191505092915050565b613cf981613674565b82525050565b600060a083016000830151613d176000860182613534565b506020830151613d2a6020860182613c8c565b5060408301518482036040860152613d428282613cb7565b9150506060830151613d576060860182613cf0565b506080830151613d6a6080860182613cf0565b508091505092915050565b60006020820190508181036000830152613d8f8184613cff565b905092915050565b600060208284031215613dad57613dac6135e5565b5b6000613dbb84828501613aa1565b91505092915050565b613dcd81613440565b82525050565b6000602082019050613de86000830184613dc4565b92915050565b613df78161352a565b82525050565b6000602082019050613e126000830184613dee565b92915050565b60008060408385031215613e2f57613e2e6135e5565b5b6000613e3d85828601613aa1565b9250506020613e4e858286016139b0565b9150509250929050565b600080fd5b600080fd5b60008083601f840112613e7857613e776137c3565b5b8235905067ffffffffffffffff811115613e9557613e94613e58565b5b602083019150836020820283011115613eb157613eb0613e5d565b5b9250929050565b60008060208385031215613ecf57613ece6135e5565b5b600083013567ffffffffffffffff811115613eed57613eec6135ea565b5b613ef985828601613e62565b92509250509250929050565b600081519050919050565b600082825260208201905092915050565b6000819050602082019050919050565b6000613f3d8383613cb7565b905092915050565b6000602082019050919050565b6000613f5d82613f05565b613f678185613f10565b935083602082028501613f7985613f21565b8060005b85811015613fb55784840389528151613f968582613f31565b9450613fa183613f45565b925060208a01995050600181019050613f7d565b50829750879550505050505092915050565b60006020820190508181036000830152613fe18184613f52565b905092915050565b60008060008060808587031215614003576140026135e5565b5b600061401187828801613aa1565b945050602061402287828801613aa1565b935050604061403387828801613757565b925050606085013567ffffffffffffffff811115614054576140536135ea565b5b6140608782880161396b565b91505092959194509250565b600060208284031215614082576140816135e5565b5b600082013567ffffffffffffffff8111156140a05761409f6135ea565b5b6140ac848285016138ca565b91505092915050565b600080604083850312156140cc576140cb6135e5565b5b60006140da85828601613aa1565b92505060206140eb85828601613aa1565b9150509250929050565b60008060006060848603121561410e5761410d6135e5565b5b600061411c86828701613b60565b935050602061412d86828701613aa1565b925050604061413e86828701613aa1565b9150509250925092565b6000806040838503121561415f5761415e6135e5565b5b600061416d85828601613aa1565b925050602083013567ffffffffffffffff81111561418e5761418d6135ea565b5b61419a858286016138ca565b9150509250929050565b7f4e487b7100000000000000000000000000000000000000000000000000000000600052602260045260246000fd5b600060028204905060018216806141eb57607f821691505b6020821081036141fe576141fd6141a4565b5b50919050565b7f6f6e6c79206f776e65722063616e20736574206d657461730000000000000000600082015250565b600061423a6018836136d4565b915061424582614204565b602082019050919050565b600060208201905081810360008301526142698161422d565b9050919050565b600081905092915050565b600061428682613459565b6142908185614270565b93506142a0818560208601613475565b80840191505092915050565b60006142b8828461427b565b915081905092915050565b600082825260208201905092915050565b60006142df82613c9b565b6142e981856142c3565b93506142f9818560208601613475565b6143028161349f565b840191505092915050565b6000602082019050818103600083015261432781846142d4565b905092915050565b60008190508160005260206000209050919050565b60006020601f8301049050919050565b600082821b905092915050565b6000600883026143917fffffffffffffffffffffffffffffffffffffffffffffffffffffffffffffffff82614354565b61439b8683614354565b95508019841693508086168417925050509392505050565b6000819050919050565b60006143d86143d36143ce84613440565b6143b3565b613440565b9050919050565b6000819050919050565b6143f2836143bd565b6144066143fe826143df565b848454614361565b825550505050565b600090565b61441b61440e565b6144268184846143e9565b505050565b5b8181101561444a5761443f600082614413565b60018101905061442c565b5050565b601f82111561448f576144608161432f565b61446984614344565b81016020851015614478578190505b61448c61448485614344565b83018261442b565b50505b505050565b600082821c905092915050565b60006144b260001984600802614494565b1980831691505092915050565b60006144cb83836144a1565b9150826002028217905092915050565b6144e482613c9b565b67ffffffffffffffff8111156144fd576144fc6137cd565b5b61450782546141d3565b61451282828561444e565b600060209050601f8311600181146145455760008415614533578287015190505b61453d85826144bf565b8655506145a5565b601f1984166145538661432f565b60005b8281101561457b57848901518255600182019150602085019450602081019050614556565b868310156145985784890151614594601f8916826144a1565b8355505b6001600288020188555050505b505050505050565b60006060820190506145c26000830186613dc4565b6145cf6020830185613dee565b6145dc6040830184613dee565b949350505050565b7f4552433732313a20617070726f76616c20746f2063757272656e74206f776e6560008201527f7200000000000000000000000000000000000000000000000000000000000000602082015250565b60006146406021836136d4565b915061464b826145e4565b604082019050919050565b6000602082019050818103600083015261466f81614633565b9050919050565b7f4552433732313a20617070726f76652063616c6c6572206973206e6f7420746f60008201527f6b656e206f776e6572206e6f7220617070726f76656420666f7220616c6c0000602082015250565b60006146d2603e836136d4565b91506146dd82614676565b604082019050919050565b60006020820190508181036000830152614701816146c5565b9050919050565b7f4552433732313a2063616c6c6572206973206e6f7420746f6b656e206f776e6560008201527f72206e6f7220617070726f766564000000000000000000000000000000000000602082015250565b6000614764602e836136d4565b915061476f82614708565b604082019050919050565b6000602082019050818103600083015261479381614757565b9050919050565b6000815190506147a981613b49565b92915050565b6000602082840312156147c5576147c46135e5565b5b60006147d38482850161479a565b91505092915050565b600080fd5b600080fd5b600781106147f357600080fd5b50565b600081519050614805816147e6565b92915050565b600061481e614819846138f8565b61382d565b90508281526020810184848401111561483a576148396137c8565b5b614845848285613475565b509392505050565b600082601f830112614862576148616137c3565b5b815161487284826020860161480b565b91505092915050565b60008151905061488a81613999565b92915050565b600060a082840312156148a6576148a56147dc565b5b6148b060a061382d565b905060006148c08482850161479a565b60008301525060206148d4848285016147f6565b602083015250604082015167ffffffffffffffff8111156148f8576148f76147e1565b5b6149048482850161484d565b60408301525060606149188482850161487b565b606083015250608061492c8482850161487b565b60808301525092915050565b60006020828403121561494e5761494d6135e5565b5b600082015167ffffffffffffffff81111561496c5761496b6135ea565b5b61497884828501614890565b91505092915050565b60006040820190506149966000830185613dee565b6149a36020830184613799565b9392505050565b7f637265617465206e6577206163636f756e742072657175657374656400000000600082015250565b60006149e0601c836136d4565b91506149eb826149aa565b602082019050919050565b60006020820190508181036000830152614a0f816149d3565b9050919050565b7f676f7420746f6b656e6964000000000000000000000000000000000000000000600082015250565b6000614a4c600b836136d4565b9150614a5782614a16565b602082019050919050565b60006020820190508181036000830152614a7b81614a3f565b9050919050565b7f4552433732313a20696e76616c696420746f6b656e2049440000000000000000600082015250565b6000614ab86018836136d4565b9150614ac382614a82565b602082019050919050565b60006020820190508181036000830152614ae781614aab565b9050919050565b7f4552433732313a2061646472657373207a65726f206973206e6f74206120766160008201527f6c6964206f776e65720000000000000000000000000000000000000000000000602082015250565b6000614b4a6029836136d4565b9150614b5582614aee565b604082019050919050565b60006020820190508181036000830152614b7981614b3d565b9050919050565b7f4e487b7100000000000000000000000000000000000000000000000000000000600052603260045260246000fd5b600080fd5b600080fd5b600080fd5b60008083356001602003843603038112614bdb57614bda614baf565b5b80840192508235915067ffffffffffffffff821115614bfd57614bfc614bb4565b5b602083019250600182023603831315614c1957614c18614bb9565b5b509250929050565b600081905092915050565b6000614c388385614c21565b9350614c45838584613879565b82840190509392505050565b6000614c5e828486614c2c565b91508190509392505050565b7f4e487b7100000000000000000000000000000000000000000000000000000000600052601160045260246000fd5b6000614ca482613440565b91507fffffffffffffffffffffffffffffffffffffffffffffffffffffffffffffffff8203614cd657614cd5614c6a565b5b600182019050919050565b6000614ced828561427b565b9150614cf9828461427b565b91508190509392505050565b7f6964656e7420616c726561647920736574000000000000000000000000000000600082015250565b6000614d3b6011836136d4565b9150614d4682614d05565b602082019050919050565b60006020820190508181036000830152614d6a81614d2e565b9050919050565b60008190508160005260206000209050919050565b601f821115614dc757614d9881614d71565b614da184614344565b81016020851015614db0578190505b614dc4614dbc85614344565b83018261442b565b50505b505050565b614dd582613459565b67ffffffffffffffff811115614dee57614ded6137cd565b5b614df882546141d3565b614e03828285614d86565b600060209050601f831160018114614e365760008415614e24578287015190505b614e2e85826144bf565b865550614e96565b601f198416614e4486614d71565b60005b82811015614e6c57848901518255600182019150602085019450602081019050614e47565b86831015614e895784890151614e85601f8916826144a1565b8355505b6001600288020188555050505b505050505050565b7f4f776e61626c653a206e6577206f776e657220697320746865207a65726f206160008201527f6464726573730000000000000000000000000000000000000000000000000000602082015250565b6000614efa6026836136d4565b9150614f0582614e9e565b604082019050919050565b60006020820190508181036000830152614f2981614eed565b9050919050565b7f4552433732313a207472616e736665722066726f6d20696e636f72726563742060008201527f6f776e6572000000000000000000000000000000000000000000000000000000602082015250565b6000614f8c6025836136d4565b9150614f9782614f30565b604082019050919050565b60006020820190508181036000830152614fbb81614f7f565b9050919050565b7f4552433732313a207472616e7366657220746f20746865207a65726f2061646460008201527f7265737300000000000000000000000000000000000000000000000000000000602082015250565b600061501e6024836136d4565b915061502982614fc2565b604082019050919050565b6000602082019050818103600083015261504d81615011565b9050919050565b600061505f82613440565b915061506a83613440565b925082820390508181111561508257615081614c6a565b5b92915050565b600061509382613440565b915061509e83613440565b92508282019050808211156150b6576150b5614c6a565b5b92915050565b7f696e76616c6964206b6579207265717565737465640000000000000000000000600082015250565b60006150f26015836136d4565b91506150fd826150bc565b602082019050919050565b60006020820190508181036000830152615121816150e5565b9050919050565b7f4f776e61626c653a2063616c6c6572206973206e6f7420746865206f776e6572600082015250565b600061515e6020836136d4565b915061516982615128565b602082019050919050565b6000602082019050818103600083015261518d81615151565b9050919050565b7f656e746572696e6720696e7465726e616c20637265617465206163636f756e7460008201527f20616e642073656e64696e672072656769737465720000000000000000000000602082015250565b60006151f06035836136d4565b91506151fb82615194565b604082019050919050565b6000602082019050818103600083015261521f816151e3565b9050919050565b7f73757065722e5f7265676973746572206973207375636365737366756c2e2e2e60008201527f2072657175657374696e67206964656e74000000000000000000000000000000602082015250565b60006152826031836136d4565b915061528d82615226565b604082019050919050565b600060208201905081810360008301526152b181615275565b9050919050565b6000819050919050565b6152d36152ce82613440565b6152b8565b82525050565b60008160601b9050919050565b60006152f1826152d9565b9050919050565b6000615303826152e6565b9050919050565b61531b61531682613509565b6152f8565b82525050565b600061532d82856152c2565b60208201915061533d828461530a565b6014820191508190509392505050565b7f6964656e74697479206372656174656400000000000000000000000000000000600082015250565b60006153836010836136d4565b915061538e8261534d565b602082019050919050565b600060208201905081810360008301526153b281615376565b9050919050565b600060408201905081810360008301526153d381856136e5565b90506153e26020830184613dc4565b9392505050565b7f4552433732313a20617070726f766520746f2063616c6c657200000000000000600082015250565b600061541f6019836136d4565b915061542a826153e9565b602082019050919050565b6000602082019050818103600083015261544e81615412565b9050919050565b7f4552433732313a207472616e7366657220746f206e6f6e20455243373231526560008201527f63656976657220696d706c656d656e7465720000000000000000000000000000602082015250565b60006154b16032836136d4565b91506154bc82615455565b604082019050919050565b600060208201905081810360008301526154e0816154a4565b9050919050565b7f4e487b7100000000000000000000000000000000000000000000000000000000600052601260045260246000fd5b600061552182613440565b915061552c83613440565b92508261553c5761553b6154e7565b5b828204905092915050565b600061555282613440565b915061555d83613440565b92508261556d5761556c6154e7565b5b828206905092915050565b600060808201905061558d6000830187613799565b61559a6020830186613799565b6155a76040830185613dc4565b81810360608301526155b981846142d4565b905095945050505050565b6000815190506155d38161361b565b92915050565b6000602082840312156155ef576155ee6135e5565b5b60006155fd848285016155c4565b91505092915050565b7f4552433732313a206d696e7420746f20746865207a65726f2061646472657373600082015250565b600061563c6020836136d4565b915061564782615606565b602082019050919050565b6000602082019050818103600083015261566b8161562f565b9050919050565b7f4552433732313a20746f6b656e20616c7265616479206d696e74656400000000600082015250565b60006156a8601c836136d4565b91506156b382615672565b602082019050919050565b600060208201905081810360008301526156d78161569b565b905091905056fea2646970667358221220640d09c895dececa4acbfdcebf2765a853725595ebf18ec718036dc03607995264736f6c63430008100033",
  "devdoc": {
    "kind": "dev",
    "methods": {
      "approve(address,uint256)": {
        "details": "See {IERC721-approve}."
      },
      "balanceOf(address)": {
        "details": "See {IERC721-balanceOf}."
      },
      "getApproved(uint256)": {
        "details": "See {IERC721-getApproved}."
      },
      "isApprovedForAll(address,address)": {
        "details": "See {IERC721-isApprovedForAll}."
      },
      "name()": {
        "details": "See {IERC721Metadata-name}."
      },
      "owner()": {
        "details": "Returns the address of the current owner."
      },
      "ownerOf(uint256)": {
        "details": "See {IERC721-ownerOf}."
      },
      "renounceOwnership()": {
        "details": "Leaves the contract without owner. It will not be possible to call `onlyOwner` functions anymore. Can only be called by the current owner. NOTE: Renouncing ownership will leave the contract without an owner, thereby removing any functionality that is only available to the owner."
      },
      "safeTransferFrom(address,address,uint256)": {
        "details": "See {IERC721-safeTransferFrom}."
      },
      "safeTransferFrom(address,address,uint256,bytes)": {
        "details": "See {IERC721-safeTransferFrom}."
      },
      "setApprovalForAll(address,bool)": {
        "details": "See {IERC721-setApprovalForAll}."
      },
      "symbol()": {
        "details": "See {IERC721Metadata-symbol}."
      },
      "tokenURI(uint256)": {
        "details": "See {IERC721Metadata-tokenURI}."
      },
      "transferFrom(address,address,uint256)": {
        "details": "See {IERC721-transferFrom}."
      },
      "transferOwnership(address)": {
        "details": "Transfers ownership of the contract to a new account (`newOwner`). Can only be called by the current owner."
      }
    },
    "version": 1
  },
  "userdoc": {
    "kind": "user",
    "methods": {
      "authorisations(bytes32,address,address)": {
        "notice": "A mapping of authorisations. An address that is authorised for a profile name may make any changes to the name that the _owner could, but may not update the set of authorisations. (node,  _owner, caller) => isAuthorised"
      }
    },
    "version": 1
  },
  "storageLayout": {
    "storage": [
      {
        "astId": 3933,
        "contract": "contracts/modules/uds/UserDataServiceResolver.sol:UserDataServiceResolver",
        "label": "_idents",
        "offset": 0,
        "slot": "0",
        "type": "t_mapping(t_uint256,t_string_storage)"
      },
      {
        "astId": 3937,
        "contract": "contracts/modules/uds/UserDataServiceResolver.sol:UserDataServiceResolver",
        "label": "_idExists",
        "offset": 0,
        "slot": "1",
        "type": "t_mapping(t_uint256,t_bool)"
      },
      {
        "astId": 4309,
        "contract": "contracts/modules/uds/UserDataServiceResolver.sol:UserDataServiceResolver",
        "label": "_names",
        "offset": 0,
        "slot": "2",
        "type": "t_mapping(t_uint256,t_string_storage)"
      },
      {
        "astId": 4313,
        "contract": "contracts/modules/uds/UserDataServiceResolver.sol:UserDataServiceResolver",
        "label": "addressToNames",
        "offset": 0,
        "slot": "3",
        "type": "t_mapping(t_address,t_string_storage)"
      },
      {
        "astId": 4317,
        "contract": "contracts/modules/uds/UserDataServiceResolver.sol:UserDataServiceResolver",
        "label": "nameToAddress",
        "offset": 0,
        "slot": "4",
        "type": "t_mapping(t_string_memory_ptr,t_address)"
      },
      {
        "astId": 4405,
        "contract": "contracts/modules/uds/UserDataServiceResolver.sol:UserDataServiceResolver",
        "label": "_profiles",
        "offset": 0,
        "slot": "5",
        "type": "t_mapping(t_uint256,t_bytes32)"
      },
      {
        "astId": 4409,
        "contract": "contracts/modules/uds/UserDataServiceResolver.sol:UserDataServiceResolver",
        "label": "_profileExists",
        "offset": 0,
        "slot": "6",
        "type": "t_mapping(t_uint256,t_bool)"
      },
      {
        "astId": 3991,
        "contract": "contracts/modules/uds/UserDataServiceResolver.sol:UserDataServiceResolver",
        "label": "_metadataIds",
        "offset": 0,
        "slot": "7",
        "type": "t_mapping(t_uint256,t_bytes32)"
      },
      {
        "astId": 3995,
        "contract": "contracts/modules/uds/UserDataServiceResolver.sol:UserDataServiceResolver",
        "label": "_idExists",
        "offset": 0,
        "slot": "8",
        "type": "t_mapping(t_bytes32,t_bool)"
      },
      {
        "astId": 4001,
        "contract": "contracts/modules/uds/UserDataServiceResolver.sol:UserDataServiceResolver",
        "label": "_keysAvailable",
        "offset": 0,
        "slot": "9",
        "type": "t_mapping(t_bytes32,t_mapping(t_string_memory_ptr,t_bool))"
      },
      {
        "astId": 4005,
        "contract": "contracts/modules/uds/UserDataServiceResolver.sol:UserDataServiceResolver",
        "label": "_keyNames",
        "offset": 0,
        "slot": "10",
        "type": "t_mapping(t_string_memory_ptr,t_bytes32)"
      },
      {
        "astId": 4009,
        "contract": "contracts/modules/uds/UserDataServiceResolver.sol:UserDataServiceResolver",
        "label": "_keyExists",
        "offset": 0,
        "slot": "11",
        "type": "t_mapping(t_string_memory_ptr,t_bool)"
      },
      {
        "astId": 4015,
        "contract": "contracts/modules/uds/UserDataServiceResolver.sol:UserDataServiceResolver",
        "label": "_keyValMetas",
        "offset": 0,
        "slot": "12",
        "type": "t_mapping(t_bytes32,t_mapping(t_bytes32,t_bytes_storage))"
      },
      {
        "astId": 4019,
        "contract": "contracts/modules/uds/UserDataServiceResolver.sol:UserDataServiceResolver",
        "label": "_metaOwners",
        "offset": 0,
        "slot": "13",
        "type": "t_mapping(t_uint256,t_address)"
      },
      {
        "astId": 681,
        "contract": "contracts/modules/uds/UserDataServiceResolver.sol:UserDataServiceResolver",
        "label": "_name",
        "offset": 0,
        "slot": "14",
        "type": "t_string_storage"
      },
      {
        "astId": 683,
        "contract": "contracts/modules/uds/UserDataServiceResolver.sol:UserDataServiceResolver",
        "label": "_symbol",
        "offset": 0,
        "slot": "15",
        "type": "t_string_storage"
      },
      {
        "astId": 687,
        "contract": "contracts/modules/uds/UserDataServiceResolver.sol:UserDataServiceResolver",
        "label": "_owners",
        "offset": 0,
        "slot": "16",
        "type": "t_mapping(t_uint256,t_address)"
      },
      {
        "astId": 691,
        "contract": "contracts/modules/uds/UserDataServiceResolver.sol:UserDataServiceResolver",
        "label": "_balances",
        "offset": 0,
        "slot": "17",
        "type": "t_mapping(t_address,t_uint256)"
      },
      {
        "astId": 695,
        "contract": "contracts/modules/uds/UserDataServiceResolver.sol:UserDataServiceResolver",
        "label": "_tokenApprovals",
        "offset": 0,
        "slot": "18",
        "type": "t_mapping(t_uint256,t_address)"
      },
      {
        "astId": 701,
        "contract": "contracts/modules/uds/UserDataServiceResolver.sol:UserDataServiceResolver",
        "label": "_operatorApprovals",
        "offset": 0,
        "slot": "19",
        "type": "t_mapping(t_address,t_mapping(t_address,t_bool))"
      },
      {
        "astId": 550,
        "contract": "contracts/modules/uds/UserDataServiceResolver.sol:UserDataServiceResolver",
        "label": "_owner",
        "offset": 0,
        "slot": "20",
        "type": "t_address"
      },
      {
        "astId": 3621,
        "contract": "contracts/modules/uds/UserDataServiceResolver.sol:UserDataServiceResolver",
        "label": "controllers",
        "offset": 0,
        "slot": "21",
        "type": "t_mapping(t_address,t_bool)"
      },
      {
        "astId": 3627,
        "contract": "contracts/modules/uds/UserDataServiceResolver.sol:UserDataServiceResolver",
        "label": "registrationQueue",
        "offset": 0,
        "slot": "22",
        "type": "t_mapping(t_uint256,t_mapping(t_uint256,t_bool))"
      },
      {
        "astId": 3630,
        "contract": "contracts/modules/uds/UserDataServiceResolver.sol:UserDataServiceResolver",
        "label": "uds",
        "offset": 0,
        "slot": "23",
        "type": "t_contract(UDS)3132"
      },
      {
        "astId": 3632,
        "contract": "contracts/modules/uds/UserDataServiceResolver.sol:UserDataServiceResolver",
        "label": "index",
        "offset": 0,
        "slot": "24",
        "type": "t_uint256"
      },
      {
        "astId": 3634,
        "contract": "contracts/modules/uds/UserDataServiceResolver.sol:UserDataServiceResolver",
        "label": "rootNodeAddress",
        "offset": 0,
        "slot": "25",
        "type": "t_bytes32"
      },
      {
        "astId": 3151,
        "contract": "contracts/modules/uds/UserDataServiceResolver.sol:UserDataServiceResolver",
        "label": "authorisations",
        "offset": 0,
        "slot": "26",
        "type": "t_mapping(t_bytes32,t_mapping(t_address,t_mapping(t_address,t_bool)))"
      },
      {
        "astId": 3186,
        "contract": "contracts/modules/uds/UserDataServiceResolver.sol:UserDataServiceResolver",
        "label": "_info",
        "offset": 0,
        "slot": "27",
        "type": "t_mapping(t_address,t_struct(AccountInfo)3197_storage)"
      }
    ],
    "types": {
      "t_address": {
        "encoding": "inplace",
        "label": "address",
        "numberOfBytes": "20"
      },
      "t_bool": {
        "encoding": "inplace",
        "label": "bool",
        "numberOfBytes": "1"
      },
      "t_bytes32": {
        "encoding": "inplace",
        "label": "bytes32",
        "numberOfBytes": "32"
      },
      "t_bytes_storage": {
        "encoding": "bytes",
        "label": "bytes",
        "numberOfBytes": "32"
      },
      "t_contract(UDS)3132": {
        "encoding": "inplace",
        "label": "contract UDS",
        "numberOfBytes": "20"
      },
      "t_mapping(t_address,t_bool)": {
        "encoding": "mapping",
        "key": "t_address",
        "label": "mapping(address => bool)",
        "numberOfBytes": "32",
        "value": "t_bool"
      },
      "t_mapping(t_address,t_mapping(t_address,t_bool))": {
        "encoding": "mapping",
        "key": "t_address",
        "label": "mapping(address => mapping(address => bool))",
        "numberOfBytes": "32",
        "value": "t_mapping(t_address,t_bool)"
      },
      "t_mapping(t_address,t_string_storage)": {
        "encoding": "mapping",
        "key": "t_address",
        "label": "mapping(address => string)",
        "numberOfBytes": "32",
        "value": "t_string_storage"
      },
      "t_mapping(t_address,t_struct(AccountInfo)3197_storage)": {
        "encoding": "mapping",
        "key": "t_address",
        "label": "mapping(address => struct UserDataServiceResolver.AccountInfo)",
        "numberOfBytes": "32",
        "value": "t_struct(AccountInfo)3197_storage"
      },
      "t_mapping(t_address,t_uint256)": {
        "encoding": "mapping",
        "key": "t_address",
        "label": "mapping(address => uint256)",
        "numberOfBytes": "32",
        "value": "t_uint256"
      },
      "t_mapping(t_bytes32,t_bool)": {
        "encoding": "mapping",
        "key": "t_bytes32",
        "label": "mapping(bytes32 => bool)",
        "numberOfBytes": "32",
        "value": "t_bool"
      },
      "t_mapping(t_bytes32,t_bytes_storage)": {
        "encoding": "mapping",
        "key": "t_bytes32",
        "label": "mapping(bytes32 => bytes)",
        "numberOfBytes": "32",
        "value": "t_bytes_storage"
      },
      "t_mapping(t_bytes32,t_mapping(t_address,t_mapping(t_address,t_bool)))": {
        "encoding": "mapping",
        "key": "t_bytes32",
        "label": "mapping(bytes32 => mapping(address => mapping(address => bool)))",
        "numberOfBytes": "32",
        "value": "t_mapping(t_address,t_mapping(t_address,t_bool))"
      },
      "t_mapping(t_bytes32,t_mapping(t_bytes32,t_bytes_storage))": {
        "encoding": "mapping",
        "key": "t_bytes32",
        "label": "mapping(bytes32 => mapping(bytes32 => bytes))",
        "numberOfBytes": "32",
        "value": "t_mapping(t_bytes32,t_bytes_storage)"
      },
      "t_mapping(t_bytes32,t_mapping(t_string_memory_ptr,t_bool))": {
        "encoding": "mapping",
        "key": "t_bytes32",
        "label": "mapping(bytes32 => mapping(string => bool))",
        "numberOfBytes": "32",
        "value": "t_mapping(t_string_memory_ptr,t_bool)"
      },
      "t_mapping(t_string_memory_ptr,t_address)": {
        "encoding": "mapping",
        "key": "t_string_memory_ptr",
        "label": "mapping(string => address)",
        "numberOfBytes": "32",
        "value": "t_address"
      },
      "t_mapping(t_string_memory_ptr,t_bool)": {
        "encoding": "mapping",
        "key": "t_string_memory_ptr",
        "label": "mapping(string => bool)",
        "numberOfBytes": "32",
        "value": "t_bool"
      },
      "t_mapping(t_string_memory_ptr,t_bytes32)": {
        "encoding": "mapping",
        "key": "t_string_memory_ptr",
        "label": "mapping(string => bytes32)",
        "numberOfBytes": "32",
        "value": "t_bytes32"
      },
      "t_mapping(t_uint256,t_address)": {
        "encoding": "mapping",
        "key": "t_uint256",
        "label": "mapping(uint256 => address)",
        "numberOfBytes": "32",
        "value": "t_address"
      },
      "t_mapping(t_uint256,t_bool)": {
        "encoding": "mapping",
        "key": "t_uint256",
        "label": "mapping(uint256 => bool)",
        "numberOfBytes": "32",
        "value": "t_bool"
      },
      "t_mapping(t_uint256,t_bytes32)": {
        "encoding": "mapping",
        "key": "t_uint256",
        "label": "mapping(uint256 => bytes32)",
        "numberOfBytes": "32",
        "value": "t_bytes32"
      },
      "t_mapping(t_uint256,t_mapping(t_uint256,t_bool))": {
        "encoding": "mapping",
        "key": "t_uint256",
        "label": "mapping(uint256 => mapping(uint256 => bool))",
        "numberOfBytes": "32",
        "value": "t_mapping(t_uint256,t_bool)"
      },
      "t_mapping(t_uint256,t_string_storage)": {
        "encoding": "mapping",
        "key": "t_uint256",
        "label": "mapping(uint256 => string)",
        "numberOfBytes": "32",
        "value": "t_string_storage"
      },
      "t_string_memory_ptr": {
        "encoding": "bytes",
        "label": "string",
        "numberOfBytes": "32"
      },
      "t_string_storage": {
        "encoding": "bytes",
        "label": "string",
        "numberOfBytes": "32"
      },
      "t_struct(AccountInfo)3197_storage": {
        "encoding": "inplace",
        "label": "struct UserDataServiceResolver.AccountInfo",
        "members": [
          {
            "astId": 3188,
            "contract": "contracts/modules/uds/UserDataServiceResolver.sol:UserDataServiceResolver",
            "label": "tokenId",
            "offset": 0,
            "slot": "0",
            "type": "t_uint256"
          },
          {
            "astId": 3190,
            "contract": "contracts/modules/uds/UserDataServiceResolver.sol:UserDataServiceResolver",
            "label": "identity",
            "offset": 0,
            "slot": "1",
            "type": "t_string_storage"
          },
          {
            "astId": 3192,
            "contract": "contracts/modules/uds/UserDataServiceResolver.sol:UserDataServiceResolver",
            "label": "owner",
            "offset": 0,
            "slot": "2",
            "type": "t_address"
          },
          {
            "astId": 3194,
            "contract": "contracts/modules/uds/UserDataServiceResolver.sol:UserDataServiceResolver",
            "label": "metasId",
            "offset": 0,
            "slot": "3",
            "type": "t_bytes32"
          },
          {
            "astId": 3196,
            "contract": "contracts/modules/uds/UserDataServiceResolver.sol:UserDataServiceResolver",
            "label": "timestamp",
            "offset": 0,
            "slot": "4",
            "type": "t_uint256"
          }
        ],
        "numberOfBytes": "160"
      },
      "t_uint256": {
        "encoding": "inplace",
        "label": "uint256",
        "numberOfBytes": "32"
      }
    }
  }
}