{
	"contracts/Logic/FeeCollectionLogic.sol": {
		"FeeCollectionLogic": {
			"abi": [
				{
					"inputs": [
						{
							"internalType": "address payable",
							"name": "__feeToken",
							"type": "address"
						},
						{
							"internalType": "address payable",
							"name": "_feeEscrow",
							"type": "address"
						}
					],
					"stateMutability": "nonpayable",
					"type": "constructor"
				},
				{
					"anonymous": false,
					"inputs": [
						{
							"indexed": true,
							"internalType": "address",
							"name": "from",
							"type": "address"
						},
						{
							"indexed": true,
							"internalType": "address",
							"name": "to",
							"type": "address"
						},
						{
							"indexed": false,
							"internalType": "uint256",
							"name": "origAmt",
							"type": "uint256"
						},
						{
							"indexed": false,
							"internalType": "uint256",
							"name": "feeAmt",
							"type": "uint256"
						}
					],
					"name": "FeeCollected",
					"type": "event"
				},
				{
					"anonymous": false,
					"inputs": [
						{
							"indexed": true,
							"internalType": "address",
							"name": "previousOwner",
							"type": "address"
						},
						{
							"indexed": true,
							"internalType": "address",
							"name": "newOwner",
							"type": "address"
						}
					],
					"name": "OwnershipTransferred",
					"type": "event"
				},
				{
					"inputs": [
						{
							"internalType": "enum FeeCollectionLogic.FeeTypes",
							"name": "feeType",
							"type": "uint8"
						},
						{
							"internalType": "uint256",
							"name": "amount",
							"type": "uint256"
						},
						{
							"internalType": "uint256",
							"name": "amountWithFee",
							"type": "uint256"
						},
						{
							"internalType": "uint256",
							"name": "_fee",
							"type": "uint256"
						},
						{
							"internalType": "address",
							"name": "_sender",
							"type": "address"
						}
					],
					"name": "Collect",
					"outputs": [],
					"stateMutability": "nonpayable",
					"type": "function"
				},
				{
					"inputs": [],
					"name": "FeeRedistributionPercent",
					"outputs": [
						{
							"internalType": "uint128",
							"name": "",
							"type": "uint128"
						}
					],
					"stateMutability": "view",
					"type": "function"
				},
				{
					"inputs": [
						{
							"internalType": "bytes32",
							"name": "feeType",
							"type": "bytes32"
						},
						{
							"internalType": "uint256",
							"name": "amount",
							"type": "uint256"
						}
					],
					"name": "GetFee",
					"outputs": [
						{
							"internalType": "uint256",
							"name": "",
							"type": "uint256"
						}
					],
					"stateMutability": "view",
					"type": "function"
				},
				{
					"inputs": [],
					"name": "Mantissa",
					"outputs": [
						{
							"internalType": "uint128",
							"name": "",
							"type": "uint128"
						}
					],
					"stateMutability": "view",
					"type": "function"
				},
				{
					"inputs": [],
					"name": "PercentDefault",
					"outputs": [
						{
							"internalType": "uint128",
							"name": "",
							"type": "uint128"
						}
					],
					"stateMutability": "view",
					"type": "function"
				},
				{
					"inputs": [],
					"name": "PercentPerPledge",
					"outputs": [
						{
							"internalType": "uint128",
							"name": "",
							"type": "uint128"
						}
					],
					"stateMutability": "view",
					"type": "function"
				},
				{
					"inputs": [],
					"name": "feeEscrow",
					"outputs": [
						{
							"internalType": "address payable",
							"name": "",
							"type": "address"
						}
					],
					"stateMutability": "view",
					"type": "function"
				},
				{
					"inputs": [],
					"name": "owner",
					"outputs": [
						{
							"internalType": "address",
							"name": "",
							"type": "address"
						}
					],
					"stateMutability": "view",
					"type": "function"
				},
				{
					"inputs": [],
					"name": "renounceOwnership",
					"outputs": [],
					"stateMutability": "nonpayable",
					"type": "function"
				},
				{
					"inputs": [
						{
							"internalType": "address",
							"name": "newOwner",
							"type": "address"
						}
					],
					"name": "transferOwnership",
					"outputs": [],
					"stateMutability": "nonpayable",
					"type": "function"
				}
			],
			"devdoc": {
				"kind": "dev",
				"methods": {
					"owner()": {
						"details": "Returns the address of the current owner."
					},
					"renounceOwnership()": {
						"details": "Leaves the contract without owner. It will not be possible to call `onlyOwner` functions anymore. Can only be called by the current owner. NOTE: Renouncing ownership will leave the contract without an owner, thereby removing any functionality that is only available to the owner."
					},
					"transferOwnership(address)": {
						"details": "Transfers ownership of the contract to a new account (`newOwner`). Can only be called by the current owner."
					}
				},
				"version": 1
			},
			"evm": {
				"assembly": "    /* \"contracts/Logic/FeeCollectionLogic.sol\":233:3020  contract FeeCollectionLogic is Ownable {... */\n  mstore(0x40, 0x80)\n    /* \"contracts/Logic/FeeCollectionLogic.sol\":1716:2104  constructor(address payable __feeToken, address payable _feeEscrow) {... */\n  callvalue\n  dup1\n  iszero\n  tag_1\n  jumpi\n  0x00\n  dup1\n  revert\ntag_1:\n  pop\n  mload(0x40)\n  sub(codesize, bytecodeSize)\n  dup1\n  bytecodeSize\n  dup4\n  codecopy\n  dup2\n  dup2\n  add\n  0x40\n  mstore\n  dup2\n  add\n  swap1\n  tag_2\n  swap2\n  swap1\n  tag_3\n  jump\t// in\ntag_2:\n    /* \"@openzeppelin/contracts/access/Ownable.sol\":936:968  _transferOwnership(_msgSender()) */\n  tag_7\n    /* \"@openzeppelin/contracts/access/Ownable.sol\":955:967  _msgSender() */\n  tag_8\n    /* \"@openzeppelin/contracts/access/Ownable.sol\":955:965  _msgSender */\n  shl(0x20, tag_9)\n    /* \"@openzeppelin/contracts/access/Ownable.sol\":955:967  _msgSender() */\n  0x20\n  shr\n  jump\t// in\ntag_8:\n    /* \"@openzeppelin/contracts/access/Ownable.sol\":936:954  _transferOwnership */\n  shl(0x20, tag_10)\n    /* \"@openzeppelin/contracts/access/Ownable.sol\":936:968  _transferOwnership(_msgSender()) */\n  0x20\n  shr\n  jump\t// in\ntag_7:\n    /* \"contracts/Logic/FeeCollectionLogic.sol\":1811:1821  __feeToken */\n  dup2\n    /* \"contracts/Logic/FeeCollectionLogic.sol\":1794:1802  feeToken */\n  0x02\n  0x00\n    /* \"contracts/Logic/FeeCollectionLogic.sol\":1794:1822  feeToken = ERC20(__feeToken) */\n  0x0100\n  exp\n  dup2\n  sload\n  dup2\n  0xffffffffffffffffffffffffffffffffffffffff\n  mul\n  not\n  and\n  swap1\n  dup4\n  0xffffffffffffffffffffffffffffffffffffffff\n  and\n  mul\n  or\n  swap1\n  sstore\n  pop\n    /* \"contracts/Logic/FeeCollectionLogic.sol\":1844:1854  _feeEscrow */\n  dup1\n    /* \"contracts/Logic/FeeCollectionLogic.sol\":1832:1841  feeEscrow */\n  0x01\n  0x00\n    /* \"contracts/Logic/FeeCollectionLogic.sol\":1832:1854  feeEscrow = _feeEscrow */\n  0x0100\n  exp\n  dup2\n  sload\n  dup2\n  0xffffffffffffffffffffffffffffffffffffffff\n  mul\n  not\n  and\n  swap1\n  dup4\n  0xffffffffffffffffffffffffffffffffffffffff\n  and\n  mul\n  or\n  swap1\n  sstore\n  pop\n    /* \"contracts/Logic/FeeCollectionLogic.sol\":995:1001  150000 */\n  0x0249f0\n    /* \"contracts/Logic/FeeCollectionLogic.sol\":1864:1873  _feeTypes */\n  0x06\n    /* \"contracts/Logic/FeeCollectionLogic.sol\":1864:1886  _feeTypes[DEFAULT_FEE] */\n  0x00\n    /* \"contracts/Logic/FeeCollectionLogic.sol\":1337:1361  keccak256(\"DEFAULT_FEE\") */\n  0xf2bc62803c5d5b781e71b137d2085aa78cea06cc76ef4920380aba12522bcff9\n    /* \"contracts/Logic/FeeCollectionLogic.sol\":1864:1886  _feeTypes[DEFAULT_FEE] */\n  dup2\n  mstore\n  0x20\n  add\n  swap1\n  dup2\n  mstore\n  0x20\n  add\n  0x00\n  keccak256\n  0x00\n    /* \"contracts/Logic/FeeCollectionLogic.sol\":1864:1903  _feeTypes[DEFAULT_FEE] = PercentDefault */\n  0x0100\n  exp\n  dup2\n  sload\n  dup2\n  0xffffffffffffffffffffffffffffffff\n  mul\n  not\n  and\n  swap1\n  dup4\n  0xffffffffffffffffffffffffffffffff\n  and\n  mul\n  or\n  swap1\n  sstore\n  pop\n    /* \"contracts/Logic/FeeCollectionLogic.sol\":995:1001  150000 */\n  0x0249f0\n    /* \"contracts/Logic/FeeCollectionLogic.sol\":1913:1922  _feeTypes */\n  0x06\n    /* \"contracts/Logic/FeeCollectionLogic.sol\":1913:1930  _feeTypes[TX_FEE] */\n  0x00\n    /* \"contracts/Logic/FeeCollectionLogic.sol\":1401:1420  keccak256(\"TX_FEE\") */\n  0xca98bfd69a76cebc3cfdc13ba9619ee85b5756f131ca915c4eebc8ef2c631bba\n    /* \"contracts/Logic/FeeCollectionLogic.sol\":1913:1930  _feeTypes[TX_FEE] */\n  dup2\n  mstore\n  0x20\n  add\n  swap1\n  dup2\n  mstore\n  0x20\n  add\n  0x00\n  keccak256\n  0x00\n    /* \"contracts/Logic/FeeCollectionLogic.sol\":1913:1947  _feeTypes[TX_FEE] = PercentDefault */\n  0x0100\n  exp\n  dup2\n  sload\n  dup2\n  0xffffffffffffffffffffffffffffffff\n  mul\n  not\n  and\n  swap1\n  dup4\n  0xffffffffffffffffffffffffffffffff\n  and\n  mul\n  or\n  swap1\n  sstore\n  pop\n    /* \"contracts/Logic/FeeCollectionLogic.sol\":945:948  1e6 */\n  0x0f4240\n    /* \"contracts/Logic/FeeCollectionLogic.sol\":1108:1110  10 */\n  0x0a\n    /* \"contracts/Logic/FeeCollectionLogic.sol\":1108:1121  10 * Mantissa */\n  tag_12\n  swap2\n  swap1\n  tag_13\n  jump\t// in\ntag_12:\n    /* \"contracts/Logic/FeeCollectionLogic.sol\":1957:1966  _feeTypes */\n  0x06\n    /* \"contracts/Logic/FeeCollectionLogic.sol\":1957:1978  _feeTypes[TX_PREMIUM] */\n  0x00\n    /* \"contracts/Logic/FeeCollectionLogic.sol\":1464:1487  keccak256(\"TX_PREMIUM\") */\n  0x56017eb4b19e2dc7ac1209ff82f4b8a3c7347815c9f7aad6c80f6465c993d14b\n    /* \"contracts/Logic/FeeCollectionLogic.sol\":1957:1978  _feeTypes[TX_PREMIUM] */\n  dup2\n  mstore\n  0x20\n  add\n  swap1\n  dup2\n  mstore\n  0x20\n  add\n  0x00\n  keccak256\n  0x00\n    /* \"contracts/Logic/FeeCollectionLogic.sol\":1957:1997  _feeTypes[TX_PREMIUM] = PercentPerPledge */\n  0x0100\n  exp\n  dup2\n  sload\n  dup2\n  0xffffffffffffffffffffffffffffffff\n  mul\n  not\n  and\n  swap1\n  dup4\n  0xffffffffffffffffffffffffffffffff\n  and\n  mul\n  or\n  swap1\n  sstore\n  pop\n    /* \"contracts/Logic/FeeCollectionLogic.sol\":2028:2029  0 */\n  0x00\n    /* \"contracts/Logic/FeeCollectionLogic.sol\":2007:2016  _feeTypes */\n  0x06\n    /* \"contracts/Logic/FeeCollectionLogic.sol\":2007:2025  _feeTypes[DAO_FEE] */\n  0x00\n    /* \"contracts/Logic/FeeCollectionLogic.sol\":1528:1548  keccak256(\"DAO_FEE\") */\n  0x1772ed10bde34d5919cbe159f3a6abaacb1616d8c7dedb130601afd99de8b6ca\n    /* \"contracts/Logic/FeeCollectionLogic.sol\":2007:2025  _feeTypes[DAO_FEE] */\n  dup2\n  mstore\n  0x20\n  add\n  swap1\n  dup2\n  mstore\n  0x20\n  add\n  0x00\n  keccak256\n  0x00\n    /* \"contracts/Logic/FeeCollectionLogic.sol\":2007:2029  _feeTypes[DAO_FEE] = 0 */\n  0x0100\n  exp\n  dup2\n  sload\n  dup2\n  0xffffffffffffffffffffffffffffffff\n  mul\n  not\n  and\n  swap1\n  dup4\n  0xffffffffffffffffffffffffffffffff\n  and\n  mul\n  or\n  swap1\n  sstore\n  pop\n    /* \"contracts/Logic/FeeCollectionLogic.sol\":2078:2079  0 */\n  0x00\n    /* \"contracts/Logic/FeeCollectionLogic.sol\":2057:2066  _feeTypes */\n  0x06\n    /* \"contracts/Logic/FeeCollectionLogic.sol\":2057:2075  _feeTypes[DEX_FEE] */\n  0x00\n    /* \"contracts/Logic/FeeCollectionLogic.sol\":1589:1609  keccak256(\"DEX_FEE\") */\n  0xdcb40a570d6498353a1742db752babb0f0d72dc3e61f9ddcc7be3944a0e89928\n    /* \"contracts/Logic/FeeCollectionLogic.sol\":2057:2075  _feeTypes[DEX_FEE] */\n  dup2\n  mstore\n  0x20\n  add\n  swap1\n  dup2\n  mstore\n  0x20\n  add\n  0x00\n  keccak256\n  0x00\n    /* \"contracts/Logic/FeeCollectionLogic.sol\":2057:2079  _feeTypes[DEX_FEE] = 0 */\n  0x0100\n  exp\n  dup2\n  sload\n  dup2\n  0xffffffffffffffffffffffffffffffff\n  mul\n  not\n  and\n  swap1\n  dup4\n  0xffffffffffffffffffffffffffffffff\n  and\n  mul\n  or\n  swap1\n  sstore\n  pop\n    /* \"contracts/Logic/FeeCollectionLogic.sol\":1716:2104  constructor(address payable __feeToken, address payable _feeEscrow) {... */\n  pop\n  pop\n    /* \"contracts/Logic/FeeCollectionLogic.sol\":233:3020  contract FeeCollectionLogic is Ownable {... */\n  jump(tag_14)\n    /* \"@openzeppelin/contracts/utils/Context.sol\":640:736  function _msgSender() internal view virtual returns (address) {... */\ntag_9:\n    /* \"@openzeppelin/contracts/utils/Context.sol\":693:700  address */\n  0x00\n    /* \"@openzeppelin/contracts/utils/Context.sol\":719:729  msg.sender */\n  caller\n    /* \"@openzeppelin/contracts/utils/Context.sol\":712:729  return msg.sender */\n  swap1\n  pop\n    /* \"@openzeppelin/contracts/utils/Context.sol\":640:736  function _msgSender() internal view virtual returns (address) {... */\n  swap1\n  jump\t// out\n    /* \"@openzeppelin/contracts/access/Ownable.sol\":2433:2620  function _transferOwnership(address newOwner) internal virtual {... */\ntag_10:\n    /* \"@openzeppelin/contracts/access/Ownable.sol\":2506:2522  address oldOwner */\n  0x00\n    /* \"@openzeppelin/contracts/access/Ownable.sol\":2525:2531  _owner */\n  dup1\n  0x00\n  swap1\n  sload\n  swap1\n  0x0100\n  exp\n  swap1\n  div\n  0xffffffffffffffffffffffffffffffffffffffff\n  and\n    /* \"@openzeppelin/contracts/access/Ownable.sol\":2506:2531  address oldOwner = _owner */\n  swap1\n  pop\n    /* \"@openzeppelin/contracts/access/Ownable.sol\":2550:2558  newOwner */\n  dup2\n    /* \"@openzeppelin/contracts/access/Ownable.sol\":2541:2547  _owner */\n  0x00\n  dup1\n    /* \"@openzeppelin/contracts/access/Ownable.sol\":2541:2558  _owner = newOwner */\n  0x0100\n  exp\n  dup2\n  sload\n  dup2\n  0xffffffffffffffffffffffffffffffffffffffff\n  mul\n  not\n  and\n  swap1\n  dup4\n  0xffffffffffffffffffffffffffffffffffffffff\n  and\n  mul\n  or\n  swap1\n  sstore\n  pop\n    /* \"@openzeppelin/contracts/access/Ownable.sol\":2604:2612  newOwner */\n  dup2\n    /* \"@openzeppelin/contracts/access/Ownable.sol\":2573:2613  OwnershipTransferred(oldOwner, newOwner) */\n  0xffffffffffffffffffffffffffffffffffffffff\n  and\n    /* \"@openzeppelin/contracts/access/Ownable.sol\":2594:2602  oldOwner */\n  dup2\n    /* \"@openzeppelin/contracts/access/Ownable.sol\":2573:2613  OwnershipTransferred(oldOwner, newOwner) */\n  0xffffffffffffffffffffffffffffffffffffffff\n  and\n  0x8be0079c531659141344cd1fd0a4f28419497f9722a3daafe3b4186f6b6457e0\n  mload(0x40)\n  mload(0x40)\n  dup1\n  swap2\n  sub\n  swap1\n  log3\n    /* \"@openzeppelin/contracts/access/Ownable.sol\":2496:2620  {... */\n  pop\n    /* \"@openzeppelin/contracts/access/Ownable.sol\":2433:2620  function _transferOwnership(address newOwner) internal virtual {... */\n  pop\n  jump\t// out\n    /* \"#utility.yul\":88:205   */\ntag_18:\n    /* \"#utility.yul\":197:198   */\n  0x00\n    /* \"#utility.yul\":194:195   */\n  dup1\n    /* \"#utility.yul\":187:199   */\n  revert\n    /* \"#utility.yul\":334:460   */\ntag_20:\n    /* \"#utility.yul\":371:378   */\n  0x00\n    /* \"#utility.yul\":411:453   */\n  0xffffffffffffffffffffffffffffffffffffffff\n    /* \"#utility.yul\":404:409   */\n  dup3\n    /* \"#utility.yul\":400:454   */\n  and\n    /* \"#utility.yul\":389:454   */\n  swap1\n  pop\n    /* \"#utility.yul\":334:460   */\n  swap2\n  swap1\n  pop\n  jump\t// out\n    /* \"#utility.yul\":466:570   */\ntag_21:\n    /* \"#utility.yul\":511:518   */\n  0x00\n    /* \"#utility.yul\":540:564   */\n  tag_32\n    /* \"#utility.yul\":558:563   */\n  dup3\n    /* \"#utility.yul\":540:564   */\n  tag_20\n  jump\t// in\ntag_32:\n    /* \"#utility.yul\":529:564   */\n  swap1\n  pop\n    /* \"#utility.yul\":466:570   */\n  swap2\n  swap1\n  pop\n  jump\t// out\n    /* \"#utility.yul\":576:714   */\ntag_22:\n    /* \"#utility.yul\":657:689   */\n  tag_34\n    /* \"#utility.yul\":683:688   */\n  dup2\n    /* \"#utility.yul\":657:689   */\n  tag_21\n  jump\t// in\ntag_34:\n    /* \"#utility.yul\":650:655   */\n  dup2\n    /* \"#utility.yul\":647:690   */\n  eq\n    /* \"#utility.yul\":637:708   */\n  tag_35\n  jumpi\n    /* \"#utility.yul\":704:705   */\n  0x00\n    /* \"#utility.yul\":701:702   */\n  dup1\n    /* \"#utility.yul\":694:706   */\n  revert\n    /* \"#utility.yul\":637:708   */\ntag_35:\n    /* \"#utility.yul\":576:714   */\n  pop\n  jump\t// out\n    /* \"#utility.yul\":720:879   */\ntag_23:\n    /* \"#utility.yul\":785:790   */\n  0x00\n    /* \"#utility.yul\":816:822   */\n  dup2\n    /* \"#utility.yul\":810:823   */\n  mload\n    /* \"#utility.yul\":801:823   */\n  swap1\n  pop\n    /* \"#utility.yul\":832:873   */\n  tag_37\n    /* \"#utility.yul\":867:872   */\n  dup2\n    /* \"#utility.yul\":832:873   */\n  tag_22\n  jump\t// in\ntag_37:\n    /* \"#utility.yul\":720:879   */\n  swap3\n  swap2\n  pop\n  pop\n  jump\t// out\n    /* \"#utility.yul\":885:1424   */\ntag_3:\n    /* \"#utility.yul\":980:986   */\n  0x00\n    /* \"#utility.yul\":988:994   */\n  dup1\n    /* \"#utility.yul\":1037:1039   */\n  0x40\n    /* \"#utility.yul\":1025:1034   */\n  dup4\n    /* \"#utility.yul\":1016:1023   */\n  dup6\n    /* \"#utility.yul\":1012:1035   */\n  sub\n    /* \"#utility.yul\":1008:1040   */\n  slt\n    /* \"#utility.yul\":1005:1124   */\n  iszero\n  tag_39\n  jumpi\n    /* \"#utility.yul\":1043:1122   */\n  tag_40\n  tag_18\n  jump\t// in\ntag_40:\n    /* \"#utility.yul\":1005:1124   */\ntag_39:\n    /* \"#utility.yul\":1163:1164   */\n  0x00\n    /* \"#utility.yul\":1188:1260   */\n  tag_41\n    /* \"#utility.yul\":1252:1259   */\n  dup6\n    /* \"#utility.yul\":1243:1249   */\n  dup3\n    /* \"#utility.yul\":1232:1241   */\n  dup7\n    /* \"#utility.yul\":1228:1250   */\n  add\n    /* \"#utility.yul\":1188:1260   */\n  tag_23\n  jump\t// in\ntag_41:\n    /* \"#utility.yul\":1178:1260   */\n  swap3\n  pop\n    /* \"#utility.yul\":1134:1270   */\n  pop\n    /* \"#utility.yul\":1309:1311   */\n  0x20\n    /* \"#utility.yul\":1335:1407   */\n  tag_42\n    /* \"#utility.yul\":1399:1406   */\n  dup6\n    /* \"#utility.yul\":1390:1396   */\n  dup3\n    /* \"#utility.yul\":1379:1388   */\n  dup7\n    /* \"#utility.yul\":1375:1397   */\n  add\n    /* \"#utility.yul\":1335:1407   */\n  tag_23\n  jump\t// in\ntag_42:\n    /* \"#utility.yul\":1325:1407   */\n  swap2\n  pop\n    /* \"#utility.yul\":1280:1417   */\n  pop\n    /* \"#utility.yul\":885:1424   */\n  swap3\n  pop\n  swap3\n  swap1\n  pop\n  jump\t// out\n    /* \"#utility.yul\":1430:1548   */\ntag_24:\n    /* \"#utility.yul\":1467:1474   */\n  0x00\n    /* \"#utility.yul\":1507:1541   */\n  0xffffffffffffffffffffffffffffffff\n    /* \"#utility.yul\":1500:1505   */\n  dup3\n    /* \"#utility.yul\":1496:1542   */\n  and\n    /* \"#utility.yul\":1485:1542   */\n  swap1\n  pop\n    /* \"#utility.yul\":1430:1548   */\n  swap2\n  swap1\n  pop\n  jump\t// out\n    /* \"#utility.yul\":1554:1734   */\ntag_25:\n    /* \"#utility.yul\":1602:1679   */\n  0x4e487b7100000000000000000000000000000000000000000000000000000000\n    /* \"#utility.yul\":1599:1600   */\n  0x00\n    /* \"#utility.yul\":1592:1680   */\n  mstore\n    /* \"#utility.yul\":1699:1703   */\n  0x11\n    /* \"#utility.yul\":1696:1697   */\n  0x04\n    /* \"#utility.yul\":1689:1704   */\n  mstore\n    /* \"#utility.yul\":1723:1727   */\n  0x24\n    /* \"#utility.yul\":1720:1721   */\n  0x00\n    /* \"#utility.yul\":1713:1728   */\n  revert\n    /* \"#utility.yul\":1740:2019   */\ntag_13:\n    /* \"#utility.yul\":1780:1787   */\n  0x00\n    /* \"#utility.yul\":1803:1823   */\n  tag_46\n    /* \"#utility.yul\":1821:1822   */\n  dup3\n    /* \"#utility.yul\":1803:1823   */\n  tag_24\n  jump\t// in\ntag_46:\n    /* \"#utility.yul\":1798:1823   */\n  swap2\n  pop\n    /* \"#utility.yul\":1837:1857   */\n  tag_47\n    /* \"#utility.yul\":1855:1856   */\n  dup4\n    /* \"#utility.yul\":1837:1857   */\n  tag_24\n  jump\t// in\ntag_47:\n    /* \"#utility.yul\":1832:1857   */\n  swap3\n  pop\n    /* \"#utility.yul\":1892:1893   */\n  dup3\n    /* \"#utility.yul\":1889:1890   */\n  dup3\n    /* \"#utility.yul\":1885:1894   */\n  mul\n    /* \"#utility.yul\":1914:1944   */\n  tag_48\n    /* \"#utility.yul\":1932:1943   */\n  dup2\n    /* \"#utility.yul\":1914:1944   */\n  tag_24\n  jump\t// in\ntag_48:\n    /* \"#utility.yul\":1903:1944   */\n  swap2\n  pop\n    /* \"#utility.yul\":1976:1987   */\n  dup1\n    /* \"#utility.yul\":1967:1974   */\n  dup3\n    /* \"#utility.yul\":1964:1988   */\n  eq\n    /* \"#utility.yul\":1954:2012   */\n  tag_49\n  jumpi\n    /* \"#utility.yul\":1992:2010   */\n  tag_50\n  tag_25\n  jump\t// in\ntag_50:\n    /* \"#utility.yul\":1954:2012   */\ntag_49:\n    /* \"#utility.yul\":1788:2019   */\n  pop\n    /* \"#utility.yul\":1740:2019   */\n  swap3\n  swap2\n  pop\n  pop\n  jump\t// out\n    /* \"contracts/Logic/FeeCollectionLogic.sol\":233:3020  contract FeeCollectionLogic is Ownable {... */\ntag_14:\n  dataSize(sub_0)\n  dup1\n  dataOffset(sub_0)\n  0x00\n  codecopy\n  0x00\n  return\nstop\n\nsub_0: assembly {\n        /* \"contracts/Logic/FeeCollectionLogic.sol\":233:3020  contract FeeCollectionLogic is Ownable {... */\n      mstore(0x40, 0x80)\n      callvalue\n      dup1\n      iszero\n      tag_1\n      jumpi\n      0x00\n      dup1\n      revert\n    tag_1:\n      pop\n      jumpi(tag_2, lt(calldatasize, 0x04))\n      shr(0xe0, calldataload(0x00))\n      dup1\n      0xa8df9994\n      gt\n      tag_13\n      jumpi\n      dup1\n      0xa8df9994\n      eq\n      tag_8\n      jumpi\n      dup1\n      0xafc2b0a6\n      eq\n      tag_9\n      jumpi\n      dup1\n      0xc4b7de97\n      eq\n      tag_10\n      jumpi\n      dup1\n      0xd5858823\n      eq\n      tag_11\n      jumpi\n      dup1\n      0xf2fde38b\n      eq\n      tag_12\n      jumpi\n      jump(tag_2)\n    tag_13:\n      dup1\n      0x24c8a328\n      eq\n      tag_3\n      jumpi\n      dup1\n      0x4811040c\n      eq\n      tag_4\n      jumpi\n      dup1\n      0x715018a6\n      eq\n      tag_5\n      jumpi\n      dup1\n      0x77ef50fb\n      eq\n      tag_6\n      jumpi\n      dup1\n      0x8da5cb5b\n      eq\n      tag_7\n      jumpi\n    tag_2:\n      0x00\n      dup1\n      revert\n        /* \"contracts/Logic/FeeCollectionLogic.sol\":1178:1242  uint128 public constant FeeRedistributionPercent = 60 * Mantissa */\n    tag_3:\n      tag_14\n      tag_15\n      jump\t// in\n    tag_14:\n      mload(0x40)\n      tag_16\n      swap2\n      swap1\n      tag_17\n      jump\t// in\n    tag_16:\n      mload(0x40)\n      dup1\n      swap2\n      sub\n      swap1\n      return\n        /* \"contracts/Logic/FeeCollectionLogic.sol\":910:948  uint128 public constant Mantissa = 1e6 */\n    tag_4:\n      tag_18\n      tag_19\n      jump\t// in\n    tag_18:\n      mload(0x40)\n      tag_20\n      swap2\n      swap1\n      tag_17\n      jump\t// in\n    tag_20:\n      mload(0x40)\n      dup1\n      swap2\n      sub\n      swap1\n      return\n        /* \"@openzeppelin/contracts/access/Ownable.sol\":1831:1932  function renounceOwnership() public virtual onlyOwner {... */\n    tag_5:\n      tag_21\n      tag_22\n      jump\t// in\n    tag_21:\n      stop\n        /* \"contracts/Logic/FeeCollectionLogic.sol\":1065:1121  uint128 public constant PercentPerPledge = 10 * Mantissa */\n    tag_6:\n      tag_23\n      tag_24\n      jump\t// in\n    tag_23:\n      mload(0x40)\n      tag_25\n      swap2\n      swap1\n      tag_17\n      jump\t// in\n    tag_25:\n      mload(0x40)\n      dup1\n      swap2\n      sub\n      swap1\n      return\n        /* \"@openzeppelin/contracts/access/Ownable.sol\":1201:1286  function owner() public view virtual returns (address) {... */\n    tag_7:\n      tag_26\n      tag_27\n      jump\t// in\n    tag_26:\n      mload(0x40)\n      tag_28\n      swap2\n      swap1\n      tag_29\n      jump\t// in\n    tag_28:\n      mload(0x40)\n      dup1\n      swap2\n      sub\n      swap1\n      return\n        /* \"contracts/Logic/FeeCollectionLogic.sol\":2110:2395  function GetFee(bytes32 feeType, uint256 amount) public view onlyOwner returns(uint256) {... */\n    tag_8:\n      tag_30\n      0x04\n      dup1\n      calldatasize\n      sub\n      dup2\n      add\n      swap1\n      tag_31\n      swap2\n      swap1\n      tag_32\n      jump\t// in\n    tag_31:\n      tag_33\n      jump\t// in\n    tag_30:\n      mload(0x40)\n      tag_34\n      swap2\n      swap1\n      tag_35\n      jump\t// in\n    tag_34:\n      mload(0x40)\n      dup1\n      swap2\n      sub\n      swap1\n      return\n        /* \"contracts/Logic/FeeCollectionLogic.sol\":954:1001  uint128 public constant PercentDefault = 150000 */\n    tag_9:\n      tag_36\n      tag_37\n      jump\t// in\n    tag_36:\n      mload(0x40)\n      tag_38\n      swap2\n      swap1\n      tag_17\n      jump\t// in\n    tag_38:\n      mload(0x40)\n      dup1\n      swap2\n      sub\n      swap1\n      return\n        /* \"contracts/Logic/FeeCollectionLogic.sol\":279:311  address payable public feeEscrow */\n    tag_10:\n      tag_39\n      tag_40\n      jump\t// in\n    tag_39:\n      mload(0x40)\n      tag_41\n      swap2\n      swap1\n      tag_42\n      jump\t// in\n    tag_41:\n      mload(0x40)\n      dup1\n      swap2\n      sub\n      swap1\n      return\n        /* \"contracts/Logic/FeeCollectionLogic.sol\":2401:2875  function Collect(FeeTypes feeType, uint256 amount, uint256 amountWithFee, uint256 _fee, address _sender) public onlyOwner {... */\n    tag_11:\n      tag_43\n      0x04\n      dup1\n      calldatasize\n      sub\n      dup2\n      add\n      swap1\n      tag_44\n      swap2\n      swap1\n      tag_45\n      jump\t// in\n    tag_44:\n      tag_46\n      jump\t// in\n    tag_43:\n      stop\n        /* \"@openzeppelin/contracts/access/Ownable.sol\":2081:2279  function transferOwnership(address newOwner) public virtual onlyOwner {... */\n    tag_12:\n      tag_47\n      0x04\n      dup1\n      calldatasize\n      sub\n      dup2\n      add\n      swap1\n      tag_48\n      swap2\n      swap1\n      tag_49\n      jump\t// in\n    tag_48:\n      tag_50\n      jump\t// in\n    tag_47:\n      stop\n        /* \"contracts/Logic/FeeCollectionLogic.sol\":1178:1242  uint128 public constant FeeRedistributionPercent = 60 * Mantissa */\n    tag_15:\n        /* \"contracts/Logic/FeeCollectionLogic.sol\":945:948  1e6 */\n      0x0f4240\n        /* \"contracts/Logic/FeeCollectionLogic.sol\":1229:1231  60 */\n      0x3c\n        /* \"contracts/Logic/FeeCollectionLogic.sol\":1229:1242  60 * Mantissa */\n      tag_51\n      swap2\n      swap1\n      tag_52\n      jump\t// in\n    tag_51:\n        /* \"contracts/Logic/FeeCollectionLogic.sol\":1178:1242  uint128 public constant FeeRedistributionPercent = 60 * Mantissa */\n      dup2\n      jump\t// out\n        /* \"contracts/Logic/FeeCollectionLogic.sol\":910:948  uint128 public constant Mantissa = 1e6 */\n    tag_19:\n        /* \"contracts/Logic/FeeCollectionLogic.sol\":945:948  1e6 */\n      0x0f4240\n        /* \"contracts/Logic/FeeCollectionLogic.sol\":910:948  uint128 public constant Mantissa = 1e6 */\n      dup2\n      jump\t// out\n        /* \"@openzeppelin/contracts/access/Ownable.sol\":1831:1932  function renounceOwnership() public virtual onlyOwner {... */\n    tag_22:\n        /* \"@openzeppelin/contracts/access/Ownable.sol\":1094:1107  _checkOwner() */\n      tag_54\n        /* \"@openzeppelin/contracts/access/Ownable.sol\":1094:1105  _checkOwner */\n      tag_55\n        /* \"@openzeppelin/contracts/access/Ownable.sol\":1094:1107  _checkOwner() */\n      jump\t// in\n    tag_54:\n        /* \"@openzeppelin/contracts/access/Ownable.sol\":1895:1925  _transferOwnership(address(0)) */\n      tag_57\n        /* \"@openzeppelin/contracts/access/Ownable.sol\":1922:1923  0 */\n      0x00\n        /* \"@openzeppelin/contracts/access/Ownable.sol\":1895:1913  _transferOwnership */\n      tag_58\n        /* \"@openzeppelin/contracts/access/Ownable.sol\":1895:1925  _transferOwnership(address(0)) */\n      jump\t// in\n    tag_57:\n        /* \"@openzeppelin/contracts/access/Ownable.sol\":1831:1932  function renounceOwnership() public virtual onlyOwner {... */\n      jump\t// out\n        /* \"contracts/Logic/FeeCollectionLogic.sol\":1065:1121  uint128 public constant PercentPerPledge = 10 * Mantissa */\n    tag_24:\n        /* \"contracts/Logic/FeeCollectionLogic.sol\":945:948  1e6 */\n      0x0f4240\n        /* \"contracts/Logic/FeeCollectionLogic.sol\":1108:1110  10 */\n      0x0a\n        /* \"contracts/Logic/FeeCollectionLogic.sol\":1108:1121  10 * Mantissa */\n      tag_59\n      swap2\n      swap1\n      tag_52\n      jump\t// in\n    tag_59:\n        /* \"contracts/Logic/FeeCollectionLogic.sol\":1065:1121  uint128 public constant PercentPerPledge = 10 * Mantissa */\n      dup2\n      jump\t// out\n        /* \"@openzeppelin/contracts/access/Ownable.sol\":1201:1286  function owner() public view virtual returns (address) {... */\n    tag_27:\n        /* \"@openzeppelin/contracts/access/Ownable.sol\":1247:1254  address */\n      0x00\n        /* \"@openzeppelin/contracts/access/Ownable.sol\":1273:1279  _owner */\n      dup1\n      0x00\n      swap1\n      sload\n      swap1\n      0x0100\n      exp\n      swap1\n      div\n      0xffffffffffffffffffffffffffffffffffffffff\n      and\n        /* \"@openzeppelin/contracts/access/Ownable.sol\":1266:1279  return _owner */\n      swap1\n      pop\n        /* \"@openzeppelin/contracts/access/Ownable.sol\":1201:1286  function owner() public view virtual returns (address) {... */\n      swap1\n      jump\t// out\n        /* \"contracts/Logic/FeeCollectionLogic.sol\":2110:2395  function GetFee(bytes32 feeType, uint256 amount) public view onlyOwner returns(uint256) {... */\n    tag_33:\n        /* \"contracts/Logic/FeeCollectionLogic.sol\":2189:2196  uint256 */\n      0x00\n        /* \"@openzeppelin/contracts/access/Ownable.sol\":1094:1107  _checkOwner() */\n      tag_62\n        /* \"@openzeppelin/contracts/access/Ownable.sol\":1094:1105  _checkOwner */\n      tag_55\n        /* \"@openzeppelin/contracts/access/Ownable.sol\":1094:1107  _checkOwner() */\n      jump\t// in\n    tag_62:\n        /* \"contracts/Logic/FeeCollectionLogic.sol\":2217:2235  uint128 feePercent */\n      0x00\n        /* \"contracts/Logic/FeeCollectionLogic.sol\":2238:2247  _feeTypes */\n      0x06\n        /* \"contracts/Logic/FeeCollectionLogic.sol\":2238:2256  _feeTypes[feeType] */\n      0x00\n        /* \"contracts/Logic/FeeCollectionLogic.sol\":2248:2255  feeType */\n      dup6\n        /* \"contracts/Logic/FeeCollectionLogic.sol\":2238:2256  _feeTypes[feeType] */\n      dup2\n      mstore\n      0x20\n      add\n      swap1\n      dup2\n      mstore\n      0x20\n      add\n      0x00\n      keccak256\n      0x00\n      swap1\n      sload\n      swap1\n      0x0100\n      exp\n      swap1\n      div\n      0xffffffffffffffffffffffffffffffff\n      and\n        /* \"contracts/Logic/FeeCollectionLogic.sol\":2217:2256  uint128 feePercent = _feeTypes[feeType] */\n      swap1\n      pop\n        /* \"contracts/Logic/FeeCollectionLogic.sol\":2266:2277  uint128 amt */\n      0x00\n        /* \"contracts/Logic/FeeCollectionLogic.sol\":2288:2294  amount */\n      dup4\n        /* \"contracts/Logic/FeeCollectionLogic.sol\":2266:2295  uint128 amt = uint128(amount) */\n      swap1\n      pop\n        /* \"contracts/Logic/FeeCollectionLogic.sol\":2305:2316  uint128 fee */\n      0x00\n        /* \"contracts/Logic/FeeCollectionLogic.sol\":2327:2357  _calculateFee(amt, feePercent) */\n      tag_64\n        /* \"contracts/Logic/FeeCollectionLogic.sol\":2341:2344  amt */\n      dup3\n        /* \"contracts/Logic/FeeCollectionLogic.sol\":2346:2356  feePercent */\n      dup5\n        /* \"contracts/Logic/FeeCollectionLogic.sol\":2327:2340  _calculateFee */\n      tag_65\n        /* \"contracts/Logic/FeeCollectionLogic.sol\":2327:2357  _calculateFee(amt, feePercent) */\n      jump\t// in\n    tag_64:\n        /* \"contracts/Logic/FeeCollectionLogic.sol\":2305:2358  uint128 fee = uint128(_calculateFee(amt, feePercent)) */\n      swap1\n      pop\n        /* \"contracts/Logic/FeeCollectionLogic.sol\":2383:2386  fee */\n      dup1\n        /* \"contracts/Logic/FeeCollectionLogic.sol\":2375:2387  uint256(fee) */\n      0xffffffffffffffffffffffffffffffff\n      and\n        /* \"contracts/Logic/FeeCollectionLogic.sol\":2368:2387  return uint256(fee) */\n      swap4\n      pop\n      pop\n      pop\n      pop\n        /* \"contracts/Logic/FeeCollectionLogic.sol\":2110:2395  function GetFee(bytes32 feeType, uint256 amount) public view onlyOwner returns(uint256) {... */\n      swap3\n      swap2\n      pop\n      pop\n      jump\t// out\n        /* \"contracts/Logic/FeeCollectionLogic.sol\":954:1001  uint128 public constant PercentDefault = 150000 */\n    tag_37:\n        /* \"contracts/Logic/FeeCollectionLogic.sol\":995:1001  150000 */\n      0x0249f0\n        /* \"contracts/Logic/FeeCollectionLogic.sol\":954:1001  uint128 public constant PercentDefault = 150000 */\n      dup2\n      jump\t// out\n        /* \"contracts/Logic/FeeCollectionLogic.sol\":279:311  address payable public feeEscrow */\n    tag_40:\n      0x01\n      0x00\n      swap1\n      sload\n      swap1\n      0x0100\n      exp\n      swap1\n      div\n      0xffffffffffffffffffffffffffffffffffffffff\n      and\n      dup2\n      jump\t// out\n        /* \"contracts/Logic/FeeCollectionLogic.sol\":2401:2875  function Collect(FeeTypes feeType, uint256 amount, uint256 amountWithFee, uint256 _fee, address _sender) public onlyOwner {... */\n    tag_46:\n        /* \"@openzeppelin/contracts/access/Ownable.sol\":1094:1107  _checkOwner() */\n      tag_67\n        /* \"@openzeppelin/contracts/access/Ownable.sol\":1094:1105  _checkOwner */\n      tag_55\n        /* \"@openzeppelin/contracts/access/Ownable.sol\":1094:1107  _checkOwner() */\n      jump\t// in\n    tag_67:\n        /* \"contracts/Logic/FeeCollectionLogic.sol\":2554:2555  1 */\n      0x01\n        /* \"contracts/Logic/FeeCollectionLogic.sol\":2533:2541  _indexes */\n      0x04\n        /* \"contracts/Logic/FeeCollectionLogic.sol\":2533:2550  _indexes[_sender] */\n      0x00\n        /* \"contracts/Logic/FeeCollectionLogic.sol\":2542:2549  _sender */\n      dup4\n        /* \"contracts/Logic/FeeCollectionLogic.sol\":2533:2550  _indexes[_sender] */\n      0xffffffffffffffffffffffffffffffffffffffff\n      and\n      0xffffffffffffffffffffffffffffffffffffffff\n      and\n      dup2\n      mstore\n      0x20\n      add\n      swap1\n      dup2\n      mstore\n      0x20\n      add\n      0x00\n      keccak256\n      0x00\n        /* \"contracts/Logic/FeeCollectionLogic.sol\":2533:2555  _indexes[_sender] += 1 */\n      dup3\n      dup3\n      sload\n      tag_69\n      swap2\n      swap1\n      tag_70\n      jump\t// in\n    tag_69:\n      swap3\n      pop\n      pop\n      dup2\n      swap1\n      sstore\n      pop\n        /* \"contracts/Logic/FeeCollectionLogic.sol\":2565:2586  FeeDetails memory _fd */\n      0x00\n        /* \"contracts/Logic/FeeCollectionLogic.sol\":2589:2648  FeeDetails(feeType, TxAmounts(amount, amountWithFee), _fee) */\n      mload(0x40)\n      dup1\n      0x60\n      add\n      0x40\n      mstore\n      dup1\n        /* \"contracts/Logic/FeeCollectionLogic.sol\":2600:2607  feeType */\n      dup8\n        /* \"contracts/Logic/FeeCollectionLogic.sol\":2589:2648  FeeDetails(feeType, TxAmounts(amount, amountWithFee), _fee) */\n      0x04\n      dup2\n      gt\n      iszero\n      tag_71\n      jumpi\n      tag_72\n      tag_73\n      jump\t// in\n    tag_72:\n    tag_71:\n      dup2\n      mstore\n      0x20\n      add\n        /* \"contracts/Logic/FeeCollectionLogic.sol\":2609:2641  TxAmounts(amount, amountWithFee) */\n      mload(0x40)\n      dup1\n      0x40\n      add\n      0x40\n      mstore\n      dup1\n        /* \"contracts/Logic/FeeCollectionLogic.sol\":2619:2625  amount */\n      dup9\n        /* \"contracts/Logic/FeeCollectionLogic.sol\":2609:2641  TxAmounts(amount, amountWithFee) */\n      dup2\n      mstore\n      0x20\n      add\n        /* \"contracts/Logic/FeeCollectionLogic.sol\":2627:2640  amountWithFee */\n      dup8\n        /* \"contracts/Logic/FeeCollectionLogic.sol\":2609:2641  TxAmounts(amount, amountWithFee) */\n      dup2\n      mstore\n      pop\n        /* \"contracts/Logic/FeeCollectionLogic.sol\":2589:2648  FeeDetails(feeType, TxAmounts(amount, amountWithFee), _fee) */\n      dup2\n      mstore\n      0x20\n      add\n        /* \"contracts/Logic/FeeCollectionLogic.sol\":2643:2647  _fee */\n      dup5\n        /* \"contracts/Logic/FeeCollectionLogic.sol\":2589:2648  FeeDetails(feeType, TxAmounts(amount, amountWithFee), _fee) */\n      dup2\n      mstore\n      pop\n        /* \"contracts/Logic/FeeCollectionLogic.sol\":2565:2648  FeeDetails memory _fd = FeeDetails(feeType, TxAmounts(amount, amountWithFee), _fee) */\n      swap1\n      pop\n        /* \"contracts/Logic/FeeCollectionLogic.sol\":2703:2706  _fd */\n      dup1\n        /* \"contracts/Logic/FeeCollectionLogic.sol\":2658:2672  _feesByAddress */\n      0x03\n        /* \"contracts/Logic/FeeCollectionLogic.sol\":2658:2681  _feesByAddress[_sender] */\n      0x00\n        /* \"contracts/Logic/FeeCollectionLogic.sol\":2673:2680  _sender */\n      dup5\n        /* \"contracts/Logic/FeeCollectionLogic.sol\":2658:2681  _feesByAddress[_sender] */\n      0xffffffffffffffffffffffffffffffffffffffff\n      and\n      0xffffffffffffffffffffffffffffffffffffffff\n      and\n      dup2\n      mstore\n      0x20\n      add\n      swap1\n      dup2\n      mstore\n      0x20\n      add\n      0x00\n      keccak256\n        /* \"contracts/Logic/FeeCollectionLogic.sol\":2658:2700  _feesByAddress[_sender][_indexes[_sender]] */\n      0x00\n        /* \"contracts/Logic/FeeCollectionLogic.sol\":2682:2690  _indexes */\n      0x04\n        /* \"contracts/Logic/FeeCollectionLogic.sol\":2682:2699  _indexes[_sender] */\n      0x00\n        /* \"contracts/Logic/FeeCollectionLogic.sol\":2691:2698  _sender */\n      dup7\n        /* \"contracts/Logic/FeeCollectionLogic.sol\":2682:2699  _indexes[_sender] */\n      0xffffffffffffffffffffffffffffffffffffffff\n      and\n      0xffffffffffffffffffffffffffffffffffffffff\n      and\n      dup2\n      mstore\n      0x20\n      add\n      swap1\n      dup2\n      mstore\n      0x20\n      add\n      0x00\n      keccak256\n      sload\n        /* \"contracts/Logic/FeeCollectionLogic.sol\":2658:2700  _feesByAddress[_sender][_indexes[_sender]] */\n      dup2\n      mstore\n      0x20\n      add\n      swap1\n      dup2\n      mstore\n      0x20\n      add\n      0x00\n      keccak256\n        /* \"contracts/Logic/FeeCollectionLogic.sol\":2658:2706  _feesByAddress[_sender][_indexes[_sender]] = _fd */\n      0x00\n      dup3\n      add\n      mload\n      dup2\n      0x00\n      add\n      exp(0x0100, 0x00)\n      dup2\n      sload\n      dup2\n      0xff\n      mul\n      not\n      and\n      swap1\n      dup4\n      0x04\n      dup2\n      gt\n      iszero\n      tag_74\n      jumpi\n      tag_75\n      tag_73\n      jump\t// in\n    tag_75:\n    tag_74:\n      mul\n      or\n      swap1\n      sstore\n      pop\n      0x20\n      dup3\n      add\n      mload\n      dup2\n      0x01\n      add\n      0x00\n      dup3\n      add\n      mload\n      dup2\n      0x00\n      add\n      sstore\n      0x20\n      dup3\n      add\n      mload\n      dup2\n      0x01\n      add\n      sstore\n      pop\n      pop\n      0x40\n      dup3\n      add\n      mload\n      dup2\n      0x03\n      add\n      sstore\n      swap1\n      pop\n      pop\n        /* \"contracts/Logic/FeeCollectionLogic.sol\":2742:2746  _fee */\n      dup3\n        /* \"contracts/Logic/FeeCollectionLogic.sol\":2716:2729  _totalFeePaid */\n      0x05\n        /* \"contracts/Logic/FeeCollectionLogic.sol\":2716:2738  _totalFeePaid[_sender] */\n      0x00\n        /* \"contracts/Logic/FeeCollectionLogic.sol\":2730:2737  _sender */\n      dup5\n        /* \"contracts/Logic/FeeCollectionLogic.sol\":2716:2738  _totalFeePaid[_sender] */\n      0xffffffffffffffffffffffffffffffffffffffff\n      and\n      0xffffffffffffffffffffffffffffffffffffffff\n      and\n      dup2\n      mstore\n      0x20\n      add\n      swap1\n      dup2\n      mstore\n      0x20\n      add\n      0x00\n      keccak256\n      0x00\n        /* \"contracts/Logic/FeeCollectionLogic.sol\":2716:2746  _totalFeePaid[_sender] += _fee */\n      dup3\n      dup3\n      sload\n      tag_76\n      swap2\n      swap1\n      tag_70\n      jump\t// in\n    tag_76:\n      swap3\n      pop\n      pop\n      dup2\n      swap1\n      sstore\n      pop\n        /* \"contracts/Logic/FeeCollectionLogic.sol\":2756:2807  feeToken.safeTransferFrom(_sender, feeEscrow, _fee) */\n      tag_77\n        /* \"contracts/Logic/FeeCollectionLogic.sol\":2782:2789  _sender */\n      dup3\n        /* \"contracts/Logic/FeeCollectionLogic.sol\":2791:2800  feeEscrow */\n      0x01\n      0x00\n      swap1\n      sload\n      swap1\n      0x0100\n      exp\n      swap1\n      div\n      0xffffffffffffffffffffffffffffffffffffffff\n      and\n        /* \"contracts/Logic/FeeCollectionLogic.sol\":2802:2806  _fee */\n      dup6\n        /* \"contracts/Logic/FeeCollectionLogic.sol\":2756:2764  feeToken */\n      0x02\n      0x00\n      swap1\n      sload\n      swap1\n      0x0100\n      exp\n      swap1\n      div\n      0xffffffffffffffffffffffffffffffffffffffff\n      and\n        /* \"contracts/Logic/FeeCollectionLogic.sol\":2756:2781  feeToken.safeTransferFrom */\n      0xffffffffffffffffffffffffffffffffffffffff\n      and\n      tag_78\n      swap1\n        /* \"contracts/Logic/FeeCollectionLogic.sol\":2756:2807  feeToken.safeTransferFrom(_sender, feeEscrow, _fee) */\n      swap4\n      swap3\n      swap2\n      swap1\n      0xffffffff\n      and\n      jump\t// in\n    tag_77:\n        /* \"contracts/Logic/FeeCollectionLogic.sol\":2844:2853  feeEscrow */\n      0x01\n      0x00\n      swap1\n      sload\n      swap1\n      0x0100\n      exp\n      swap1\n      div\n      0xffffffffffffffffffffffffffffffffffffffff\n      and\n        /* \"contracts/Logic/FeeCollectionLogic.sol\":2822:2868  FeeCollected(_sender, feeEscrow, amount, _fee) */\n      0xffffffffffffffffffffffffffffffffffffffff\n      and\n        /* \"contracts/Logic/FeeCollectionLogic.sol\":2835:2842  _sender */\n      dup3\n        /* \"contracts/Logic/FeeCollectionLogic.sol\":2822:2868  FeeCollected(_sender, feeEscrow, amount, _fee) */\n      0xffffffffffffffffffffffffffffffffffffffff\n      and\n      0x205442d60b70af1203d43cab62352c3b69b94f091be32fe683198057282b5c92\n        /* \"contracts/Logic/FeeCollectionLogic.sol\":2855:2861  amount */\n      dup8\n        /* \"contracts/Logic/FeeCollectionLogic.sol\":2863:2867  _fee */\n      dup7\n        /* \"contracts/Logic/FeeCollectionLogic.sol\":2822:2868  FeeCollected(_sender, feeEscrow, amount, _fee) */\n      mload(0x40)\n      tag_79\n      swap3\n      swap2\n      swap1\n      tag_80\n      jump\t// in\n    tag_79:\n      mload(0x40)\n      dup1\n      swap2\n      sub\n      swap1\n      log3\n        /* \"contracts/Logic/FeeCollectionLogic.sol\":2523:2875  {... */\n      pop\n        /* \"contracts/Logic/FeeCollectionLogic.sol\":2401:2875  function Collect(FeeTypes feeType, uint256 amount, uint256 amountWithFee, uint256 _fee, address _sender) public onlyOwner {... */\n      pop\n      pop\n      pop\n      pop\n      pop\n      jump\t// out\n        /* \"@openzeppelin/contracts/access/Ownable.sol\":2081:2279  function transferOwnership(address newOwner) public virtual onlyOwner {... */\n    tag_50:\n        /* \"@openzeppelin/contracts/access/Ownable.sol\":1094:1107  _checkOwner() */\n      tag_82\n        /* \"@openzeppelin/contracts/access/Ownable.sol\":1094:1105  _checkOwner */\n      tag_55\n        /* \"@openzeppelin/contracts/access/Ownable.sol\":1094:1107  _checkOwner() */\n      jump\t// in\n    tag_82:\n        /* \"@openzeppelin/contracts/access/Ownable.sol\":2189:2190  0 */\n      0x00\n        /* \"@openzeppelin/contracts/access/Ownable.sol\":2169:2191  newOwner != address(0) */\n      0xffffffffffffffffffffffffffffffffffffffff\n      and\n        /* \"@openzeppelin/contracts/access/Ownable.sol\":2169:2177  newOwner */\n      dup2\n        /* \"@openzeppelin/contracts/access/Ownable.sol\":2169:2191  newOwner != address(0) */\n      0xffffffffffffffffffffffffffffffffffffffff\n      and\n      sub\n        /* \"@openzeppelin/contracts/access/Ownable.sol\":2161:2234  require(newOwner != address(0), \"Ownable: new owner is the zero address\") */\n      tag_84\n      jumpi\n      mload(0x40)\n      0x08c379a000000000000000000000000000000000000000000000000000000000\n      dup2\n      mstore\n      0x04\n      add\n      tag_85\n      swap1\n      tag_86\n      jump\t// in\n    tag_85:\n      mload(0x40)\n      dup1\n      swap2\n      sub\n      swap1\n      revert\n    tag_84:\n        /* \"@openzeppelin/contracts/access/Ownable.sol\":2244:2272  _transferOwnership(newOwner) */\n      tag_87\n        /* \"@openzeppelin/contracts/access/Ownable.sol\":2263:2271  newOwner */\n      dup2\n        /* \"@openzeppelin/contracts/access/Ownable.sol\":2244:2262  _transferOwnership */\n      tag_58\n        /* \"@openzeppelin/contracts/access/Ownable.sol\":2244:2272  _transferOwnership(newOwner) */\n      jump\t// in\n    tag_87:\n        /* \"@openzeppelin/contracts/access/Ownable.sol\":2081:2279  function transferOwnership(address newOwner) public virtual onlyOwner {... */\n      pop\n      jump\t// out\n        /* \"@openzeppelin/contracts/access/Ownable.sol\":1359:1489  function _checkOwner() internal view virtual {... */\n    tag_55:\n        /* \"@openzeppelin/contracts/access/Ownable.sol\":1433:1445  _msgSender() */\n      tag_89\n        /* \"@openzeppelin/contracts/access/Ownable.sol\":1433:1443  _msgSender */\n      tag_90\n        /* \"@openzeppelin/contracts/access/Ownable.sol\":1433:1445  _msgSender() */\n      jump\t// in\n    tag_89:\n        /* \"@openzeppelin/contracts/access/Ownable.sol\":1422:1445  owner() == _msgSender() */\n      0xffffffffffffffffffffffffffffffffffffffff\n      and\n        /* \"@openzeppelin/contracts/access/Ownable.sol\":1422:1429  owner() */\n      tag_91\n        /* \"@openzeppelin/contracts/access/Ownable.sol\":1422:1427  owner */\n      tag_27\n        /* \"@openzeppelin/contracts/access/Ownable.sol\":1422:1429  owner() */\n      jump\t// in\n    tag_91:\n        /* \"@openzeppelin/contracts/access/Ownable.sol\":1422:1445  owner() == _msgSender() */\n      0xffffffffffffffffffffffffffffffffffffffff\n      and\n      eq\n        /* \"@openzeppelin/contracts/access/Ownable.sol\":1414:1482  require(owner() == _msgSender(), \"Ownable: caller is not the owner\") */\n      tag_92\n      jumpi\n      mload(0x40)\n      0x08c379a000000000000000000000000000000000000000000000000000000000\n      dup2\n      mstore\n      0x04\n      add\n      tag_93\n      swap1\n      tag_94\n      jump\t// in\n    tag_93:\n      mload(0x40)\n      dup1\n      swap2\n      sub\n      swap1\n      revert\n    tag_92:\n        /* \"@openzeppelin/contracts/access/Ownable.sol\":1359:1489  function _checkOwner() internal view virtual {... */\n      jump\t// out\n        /* \"@openzeppelin/contracts/access/Ownable.sol\":2433:2620  function _transferOwnership(address newOwner) internal virtual {... */\n    tag_58:\n        /* \"@openzeppelin/contracts/access/Ownable.sol\":2506:2522  address oldOwner */\n      0x00\n        /* \"@openzeppelin/contracts/access/Ownable.sol\":2525:2531  _owner */\n      dup1\n      0x00\n      swap1\n      sload\n      swap1\n      0x0100\n      exp\n      swap1\n      div\n      0xffffffffffffffffffffffffffffffffffffffff\n      and\n        /* \"@openzeppelin/contracts/access/Ownable.sol\":2506:2531  address oldOwner = _owner */\n      swap1\n      pop\n        /* \"@openzeppelin/contracts/access/Ownable.sol\":2550:2558  newOwner */\n      dup2\n        /* \"@openzeppelin/contracts/access/Ownable.sol\":2541:2547  _owner */\n      0x00\n      dup1\n        /* \"@openzeppelin/contracts/access/Ownable.sol\":2541:2558  _owner = newOwner */\n      0x0100\n      exp\n      dup2\n      sload\n      dup2\n      0xffffffffffffffffffffffffffffffffffffffff\n      mul\n      not\n      and\n      swap1\n      dup4\n      0xffffffffffffffffffffffffffffffffffffffff\n      and\n      mul\n      or\n      swap1\n      sstore\n      pop\n        /* \"@openzeppelin/contracts/access/Ownable.sol\":2604:2612  newOwner */\n      dup2\n        /* \"@openzeppelin/contracts/access/Ownable.sol\":2573:2613  OwnershipTransferred(oldOwner, newOwner) */\n      0xffffffffffffffffffffffffffffffffffffffff\n      and\n        /* \"@openzeppelin/contracts/access/Ownable.sol\":2594:2602  oldOwner */\n      dup2\n        /* \"@openzeppelin/contracts/access/Ownable.sol\":2573:2613  OwnershipTransferred(oldOwner, newOwner) */\n      0xffffffffffffffffffffffffffffffffffffffff\n      and\n      0x8be0079c531659141344cd1fd0a4f28419497f9722a3daafe3b4186f6b6457e0\n      mload(0x40)\n      mload(0x40)\n      dup1\n      swap2\n      sub\n      swap1\n      log3\n        /* \"@openzeppelin/contracts/access/Ownable.sol\":2496:2620  {... */\n      pop\n        /* \"@openzeppelin/contracts/access/Ownable.sol\":2433:2620  function _transferOwnership(address newOwner) internal virtual {... */\n      pop\n      jump\t// out\n        /* \"contracts/Logic/FeeCollectionLogic.sol\":2881:3014  function _calculateFee(uint128 _amt, uint128 _percent) internal pure returns(uint) {... */\n    tag_65:\n        /* \"contracts/Logic/FeeCollectionLogic.sol\":2958:2962  uint */\n      0x00\n        /* \"contracts/Logic/FeeCollectionLogic.sol\":945:948  1e6 */\n      0x0f4240\n        /* \"contracts/Logic/FeeCollectionLogic.sol\":2988:2996  _percent */\n      dup3\n        /* \"contracts/Logic/FeeCollectionLogic.sol\":2981:2985  _amt */\n      dup5\n        /* \"contracts/Logic/FeeCollectionLogic.sol\":2981:2996  _amt * _percent */\n      tag_97\n      swap2\n      swap1\n      tag_52\n      jump\t// in\n    tag_97:\n        /* \"contracts/Logic/FeeCollectionLogic.sol\":2981:3007  _amt * _percent / Mantissa */\n      tag_98\n      swap2\n      swap1\n      tag_99\n      jump\t// in\n    tag_98:\n        /* \"contracts/Logic/FeeCollectionLogic.sol\":2974:3007  return _amt * _percent / Mantissa */\n      0xffffffffffffffffffffffffffffffff\n      and\n      swap1\n      pop\n        /* \"contracts/Logic/FeeCollectionLogic.sol\":2881:3014  function _calculateFee(uint128 _amt, uint128 _percent) internal pure returns(uint) {... */\n      swap3\n      swap2\n      pop\n      pop\n      jump\t// out\n        /* \"@openzeppelin/contracts/token/ERC20/utils/SafeERC20.sol\":974:1215  function safeTransferFrom(... */\n    tag_78:\n        /* \"@openzeppelin/contracts/token/ERC20/utils/SafeERC20.sol\":1112:1208  _callOptionalReturn(token, abi.encodeWithSelector(token.transferFrom.selector, from, to, value)) */\n      tag_101\n        /* \"@openzeppelin/contracts/token/ERC20/utils/SafeERC20.sol\":1132:1137  token */\n      dup5\n        /* \"@openzeppelin/contracts/token/ERC20/utils/SafeERC20.sol\":1162:1189  token.transferFrom.selector */\n      shl(0xe0, 0x23b872dd)\n        /* \"@openzeppelin/contracts/token/ERC20/utils/SafeERC20.sol\":1191:1195  from */\n      dup6\n        /* \"@openzeppelin/contracts/token/ERC20/utils/SafeERC20.sol\":1197:1199  to */\n      dup6\n        /* \"@openzeppelin/contracts/token/ERC20/utils/SafeERC20.sol\":1201:1206  value */\n      dup6\n        /* \"@openzeppelin/contracts/token/ERC20/utils/SafeERC20.sol\":1139:1207  abi.encodeWithSelector(token.transferFrom.selector, from, to, value) */\n      add(0x24, mload(0x40))\n      tag_102\n      swap4\n      swap3\n      swap2\n      swap1\n      tag_103\n      jump\t// in\n    tag_102:\n      mload(0x40)\n      0x20\n      dup2\n      dup4\n      sub\n      sub\n      dup2\n      mstore\n      swap1\n      0x40\n      mstore\n      swap1\n      not(0xffffffffffffffffffffffffffffffffffffffffffffffffffffffff)\n      and\n      0x20\n      dup3\n      add\n      dup1\n      mload\n      0xffffffffffffffffffffffffffffffffffffffffffffffffffffffff\n      dup4\n      dup2\n      dup4\n      and\n      or\n      dup4\n      mstore\n      pop\n      pop\n      pop\n      pop\n        /* \"@openzeppelin/contracts/token/ERC20/utils/SafeERC20.sol\":1112:1131  _callOptionalReturn */\n      tag_104\n        /* \"@openzeppelin/contracts/token/ERC20/utils/SafeERC20.sol\":1112:1208  _callOptionalReturn(token, abi.encodeWithSelector(token.transferFrom.selector, from, to, value)) */\n      jump\t// in\n    tag_101:\n        /* \"@openzeppelin/contracts/token/ERC20/utils/SafeERC20.sol\":974:1215  function safeTransferFrom(... */\n      pop\n      pop\n      pop\n      pop\n      jump\t// out\n        /* \"@openzeppelin/contracts/utils/Context.sol\":640:736  function _msgSender() internal view virtual returns (address) {... */\n    tag_90:\n        /* \"@openzeppelin/contracts/utils/Context.sol\":693:700  address */\n      0x00\n        /* \"@openzeppelin/contracts/utils/Context.sol\":719:729  msg.sender */\n      caller\n        /* \"@openzeppelin/contracts/utils/Context.sol\":712:729  return msg.sender */\n      swap1\n      pop\n        /* \"@openzeppelin/contracts/utils/Context.sol\":640:736  function _msgSender() internal view virtual returns (address) {... */\n      swap1\n      jump\t// out\n        /* \"@openzeppelin/contracts/token/ERC20/utils/SafeERC20.sol\":3747:4453  function _callOptionalReturn(IERC20 token, bytes memory data) private {... */\n    tag_104:\n        /* \"@openzeppelin/contracts/token/ERC20/utils/SafeERC20.sol\":4166:4189  bytes memory returndata */\n      0x00\n        /* \"@openzeppelin/contracts/token/ERC20/utils/SafeERC20.sol\":4192:4261  address(token).functionCall(data, \"SafeERC20: low-level call failed\") */\n      tag_107\n        /* \"@openzeppelin/contracts/token/ERC20/utils/SafeERC20.sol\":4220:4224  data */\n      dup3\n        /* \"@openzeppelin/contracts/token/ERC20/utils/SafeERC20.sol\":4192:4261  address(token).functionCall(data, \"SafeERC20: low-level call failed\") */\n      mload(0x40)\n      dup1\n      0x40\n      add\n      0x40\n      mstore\n      dup1\n      0x20\n      dup2\n      mstore\n      0x20\n      add\n      0x5361666545524332303a206c6f772d6c6576656c2063616c6c206661696c6564\n      dup2\n      mstore\n      pop\n        /* \"@openzeppelin/contracts/token/ERC20/utils/SafeERC20.sol\":4200:4205  token */\n      dup6\n        /* \"@openzeppelin/contracts/token/ERC20/utils/SafeERC20.sol\":4192:4219  address(token).functionCall */\n      0xffffffffffffffffffffffffffffffffffffffff\n      and\n      tag_108\n      swap1\n        /* \"@openzeppelin/contracts/token/ERC20/utils/SafeERC20.sol\":4192:4261  address(token).functionCall(data, \"SafeERC20: low-level call failed\") */\n      swap3\n      swap2\n      swap1\n      0xffffffff\n      and\n      jump\t// in\n    tag_107:\n        /* \"@openzeppelin/contracts/token/ERC20/utils/SafeERC20.sol\":4166:4261  bytes memory returndata = address(token).functionCall(data, \"SafeERC20: low-level call failed\") */\n      swap1\n      pop\n        /* \"@openzeppelin/contracts/token/ERC20/utils/SafeERC20.sol\":4295:4296  0 */\n      0x00\n        /* \"@openzeppelin/contracts/token/ERC20/utils/SafeERC20.sol\":4275:4285  returndata */\n      dup2\n        /* \"@openzeppelin/contracts/token/ERC20/utils/SafeERC20.sol\":4275:4292  returndata.length */\n      mload\n        /* \"@openzeppelin/contracts/token/ERC20/utils/SafeERC20.sol\":4275:4296  returndata.length > 0 */\n      gt\n        /* \"@openzeppelin/contracts/token/ERC20/utils/SafeERC20.sol\":4271:4447  if (returndata.length > 0) {... */\n      iszero\n      tag_109\n      jumpi\n        /* \"@openzeppelin/contracts/token/ERC20/utils/SafeERC20.sol\":4370:4380  returndata */\n      dup1\n        /* \"@openzeppelin/contracts/token/ERC20/utils/SafeERC20.sol\":4359:4389  abi.decode(returndata, (bool)) */\n      dup1\n      0x20\n      add\n      swap1\n      mload\n      dup2\n      add\n      swap1\n      tag_110\n      swap2\n      swap1\n      tag_111\n      jump\t// in\n    tag_110:\n        /* \"@openzeppelin/contracts/token/ERC20/utils/SafeERC20.sol\":4351:4436  require(abi.decode(returndata, (bool)), \"SafeERC20: ERC20 operation did not succeed\") */\n      tag_112\n      jumpi\n      mload(0x40)\n      0x08c379a000000000000000000000000000000000000000000000000000000000\n      dup2\n      mstore\n      0x04\n      add\n      tag_113\n      swap1\n      tag_114\n      jump\t// in\n    tag_113:\n      mload(0x40)\n      dup1\n      swap2\n      sub\n      swap1\n      revert\n    tag_112:\n        /* \"@openzeppelin/contracts/token/ERC20/utils/SafeERC20.sol\":4271:4447  if (returndata.length > 0) {... */\n    tag_109:\n        /* \"@openzeppelin/contracts/token/ERC20/utils/SafeERC20.sol\":3817:4453  {... */\n      pop\n        /* \"@openzeppelin/contracts/token/ERC20/utils/SafeERC20.sol\":3747:4453  function _callOptionalReturn(IERC20 token, bytes memory data) private {... */\n      pop\n      pop\n      jump\t// out\n        /* \"@openzeppelin/contracts/utils/Address.sol\":3861:4084  function functionCall(... */\n    tag_108:\n        /* \"@openzeppelin/contracts/utils/Address.sol\":3994:4006  bytes memory */\n      0x60\n        /* \"@openzeppelin/contracts/utils/Address.sol\":4025:4077  functionCallWithValue(target, data, 0, errorMessage) */\n      tag_116\n        /* \"@openzeppelin/contracts/utils/Address.sol\":4047:4053  target */\n      dup5\n        /* \"@openzeppelin/contracts/utils/Address.sol\":4055:4059  data */\n      dup5\n        /* \"@openzeppelin/contracts/utils/Address.sol\":4061:4062  0 */\n      0x00\n        /* \"@openzeppelin/contracts/utils/Address.sol\":4064:4076  errorMessage */\n      dup6\n        /* \"@openzeppelin/contracts/utils/Address.sol\":4025:4046  functionCallWithValue */\n      tag_117\n        /* \"@openzeppelin/contracts/utils/Address.sol\":4025:4077  functionCallWithValue(target, data, 0, errorMessage) */\n      jump\t// in\n    tag_116:\n        /* \"@openzeppelin/contracts/utils/Address.sol\":4018:4077  return functionCallWithValue(target, data, 0, errorMessage) */\n      swap1\n      pop\n        /* \"@openzeppelin/contracts/utils/Address.sol\":3861:4084  function functionCall(... */\n      swap4\n      swap3\n      pop\n      pop\n      pop\n      jump\t// out\n        /* \"@openzeppelin/contracts/utils/Address.sol\":4948:5447  function functionCallWithValue(... */\n    tag_117:\n        /* \"@openzeppelin/contracts/utils/Address.sol\":5113:5125  bytes memory */\n      0x60\n        /* \"@openzeppelin/contracts/utils/Address.sol\":5170:5175  value */\n      dup3\n        /* \"@openzeppelin/contracts/utils/Address.sol\":5145:5166  address(this).balance */\n      selfbalance\n        /* \"@openzeppelin/contracts/utils/Address.sol\":5145:5175  address(this).balance >= value */\n      lt\n      iszero\n        /* \"@openzeppelin/contracts/utils/Address.sol\":5137:5218  require(address(this).balance >= value, \"Address: insufficient balance for call\") */\n      tag_119\n      jumpi\n      mload(0x40)\n      0x08c379a000000000000000000000000000000000000000000000000000000000\n      dup2\n      mstore\n      0x04\n      add\n      tag_120\n      swap1\n      tag_121\n      jump\t// in\n    tag_120:\n      mload(0x40)\n      dup1\n      swap2\n      sub\n      swap1\n      revert\n    tag_119:\n        /* \"@openzeppelin/contracts/utils/Address.sol\":5236:5254  isContract(target) */\n      tag_122\n        /* \"@openzeppelin/contracts/utils/Address.sol\":5247:5253  target */\n      dup6\n        /* \"@openzeppelin/contracts/utils/Address.sol\":5236:5246  isContract */\n      tag_123\n        /* \"@openzeppelin/contracts/utils/Address.sol\":5236:5254  isContract(target) */\n      jump\t// in\n    tag_122:\n        /* \"@openzeppelin/contracts/utils/Address.sol\":5228:5288  require(isContract(target), \"Address: call to non-contract\") */\n      tag_124\n      jumpi\n      mload(0x40)\n      0x08c379a000000000000000000000000000000000000000000000000000000000\n      dup2\n      mstore\n      0x04\n      add\n      tag_125\n      swap1\n      tag_126\n      jump\t// in\n    tag_125:\n      mload(0x40)\n      dup1\n      swap2\n      sub\n      swap1\n      revert\n    tag_124:\n        /* \"@openzeppelin/contracts/utils/Address.sol\":5300:5312  bool success */\n      0x00\n        /* \"@openzeppelin/contracts/utils/Address.sol\":5314:5337  bytes memory returndata */\n      dup1\n        /* \"@openzeppelin/contracts/utils/Address.sol\":5341:5347  target */\n      dup7\n        /* \"@openzeppelin/contracts/utils/Address.sol\":5341:5352  target.call */\n      0xffffffffffffffffffffffffffffffffffffffff\n      and\n        /* \"@openzeppelin/contracts/utils/Address.sol\":5360:5365  value */\n      dup6\n        /* \"@openzeppelin/contracts/utils/Address.sol\":5367:5371  data */\n      dup8\n        /* \"@openzeppelin/contracts/utils/Address.sol\":5341:5372  target.call{value: value}(data) */\n      mload(0x40)\n      tag_127\n      swap2\n      swap1\n      tag_128\n      jump\t// in\n    tag_127:\n      0x00\n      mload(0x40)\n      dup1\n      dup4\n      sub\n      dup2\n      dup6\n      dup8\n      gas\n      call\n      swap3\n      pop\n      pop\n      pop\n      returndatasize\n      dup1\n      0x00\n      dup2\n      eq\n      tag_131\n      jumpi\n      mload(0x40)\n      swap2\n      pop\n      and(add(returndatasize, 0x3f), not(0x1f))\n      dup3\n      add\n      0x40\n      mstore\n      returndatasize\n      dup3\n      mstore\n      returndatasize\n      0x00\n      0x20\n      dup5\n      add\n      returndatacopy\n      jump(tag_130)\n    tag_131:\n      0x60\n      swap2\n      pop\n    tag_130:\n      pop\n        /* \"@openzeppelin/contracts/utils/Address.sol\":5299:5372  (bool success, bytes memory returndata) = target.call{value: value}(data) */\n      swap2\n      pop\n      swap2\n      pop\n        /* \"@openzeppelin/contracts/utils/Address.sol\":5389:5440  verifyCallResult(success, returndata, errorMessage) */\n      tag_132\n        /* \"@openzeppelin/contracts/utils/Address.sol\":5406:5413  success */\n      dup3\n        /* \"@openzeppelin/contracts/utils/Address.sol\":5415:5425  returndata */\n      dup3\n        /* \"@openzeppelin/contracts/utils/Address.sol\":5427:5439  errorMessage */\n      dup7\n        /* \"@openzeppelin/contracts/utils/Address.sol\":5389:5405  verifyCallResult */\n      tag_133\n        /* \"@openzeppelin/contracts/utils/Address.sol\":5389:5440  verifyCallResult(success, returndata, errorMessage) */\n      jump\t// in\n    tag_132:\n        /* \"@openzeppelin/contracts/utils/Address.sol\":5382:5440  return verifyCallResult(success, returndata, errorMessage) */\n      swap3\n      pop\n      pop\n      pop\n        /* \"@openzeppelin/contracts/utils/Address.sol\":4948:5447  function functionCallWithValue(... */\n      swap5\n      swap4\n      pop\n      pop\n      pop\n      pop\n      jump\t// out\n        /* \"@openzeppelin/contracts/utils/Address.sol\":1175:1495  function isContract(address account) internal view returns (bool) {... */\n    tag_123:\n        /* \"@openzeppelin/contracts/utils/Address.sol\":1235:1239  bool */\n      0x00\n        /* \"@openzeppelin/contracts/utils/Address.sol\":1487:1488  0 */\n      dup1\n        /* \"@openzeppelin/contracts/utils/Address.sol\":1465:1472  account */\n      dup3\n        /* \"@openzeppelin/contracts/utils/Address.sol\":1465:1484  account.code.length */\n      0xffffffffffffffffffffffffffffffffffffffff\n      and\n      extcodesize\n        /* \"@openzeppelin/contracts/utils/Address.sol\":1465:1488  account.code.length > 0 */\n      gt\n        /* \"@openzeppelin/contracts/utils/Address.sol\":1458:1488  return account.code.length > 0 */\n      swap1\n      pop\n        /* \"@openzeppelin/contracts/utils/Address.sol\":1175:1495  function isContract(address account) internal view returns (bool) {... */\n      swap2\n      swap1\n      pop\n      jump\t// out\n        /* \"@openzeppelin/contracts/utils/Address.sol\":7561:8303  function verifyCallResult(... */\n    tag_133:\n        /* \"@openzeppelin/contracts/utils/Address.sol\":7707:7719  bytes memory */\n      0x60\n        /* \"@openzeppelin/contracts/utils/Address.sol\":7735:7742  success */\n      dup4\n        /* \"@openzeppelin/contracts/utils/Address.sol\":7731:8297  if (success) {... */\n      iszero\n      tag_136\n      jumpi\n        /* \"@openzeppelin/contracts/utils/Address.sol\":7765:7775  returndata */\n      dup3\n        /* \"@openzeppelin/contracts/utils/Address.sol\":7758:7775  return returndata */\n      swap1\n      pop\n      jump(tag_135)\n        /* \"@openzeppelin/contracts/utils/Address.sol\":7731:8297  if (success) {... */\n    tag_136:\n        /* \"@openzeppelin/contracts/utils/Address.sol\":7896:7897  0 */\n      0x00\n        /* \"@openzeppelin/contracts/utils/Address.sol\":7876:7886  returndata */\n      dup4\n        /* \"@openzeppelin/contracts/utils/Address.sol\":7876:7893  returndata.length */\n      mload\n        /* \"@openzeppelin/contracts/utils/Address.sol\":7876:7897  returndata.length > 0 */\n      gt\n        /* \"@openzeppelin/contracts/utils/Address.sol\":7872:8287  if (returndata.length > 0) {... */\n      iszero\n      tag_138\n      jumpi\n        /* \"@openzeppelin/contracts/utils/Address.sol\":8120:8130  returndata */\n      dup3\n        /* \"@openzeppelin/contracts/utils/Address.sol\":8114:8131  mload(returndata) */\n      mload\n        /* \"@openzeppelin/contracts/utils/Address.sol\":8180:8195  returndata_size */\n      dup1\n        /* \"@openzeppelin/contracts/utils/Address.sol\":8167:8177  returndata */\n      dup5\n        /* \"@openzeppelin/contracts/utils/Address.sol\":8163:8165  32 */\n      0x20\n        /* \"@openzeppelin/contracts/utils/Address.sol\":8159:8178  add(32, returndata) */\n      add\n        /* \"@openzeppelin/contracts/utils/Address.sol\":8152:8196  revert(add(32, returndata), returndata_size) */\n      revert\n        /* \"@openzeppelin/contracts/utils/Address.sol\":7872:8287  if (returndata.length > 0) {... */\n    tag_138:\n        /* \"@openzeppelin/contracts/utils/Address.sol\":8259:8271  errorMessage */\n      dup2\n        /* \"@openzeppelin/contracts/utils/Address.sol\":8252:8272  revert(errorMessage) */\n      mload(0x40)\n      0x08c379a000000000000000000000000000000000000000000000000000000000\n      dup2\n      mstore\n      0x04\n      add\n      tag_140\n      swap2\n      swap1\n      tag_141\n      jump\t// in\n    tag_140:\n      mload(0x40)\n      dup1\n      swap2\n      sub\n      swap1\n      revert\n        /* \"@openzeppelin/contracts/utils/Address.sol\":7561:8303  function verifyCallResult(... */\n    tag_135:\n      swap4\n      swap3\n      pop\n      pop\n      pop\n      jump\t// out\n        /* \"#utility.yul\":7:125   */\n    tag_142:\n        /* \"#utility.yul\":44:51   */\n      0x00\n        /* \"#utility.yul\":84:118   */\n      0xffffffffffffffffffffffffffffffff\n        /* \"#utility.yul\":77:82   */\n      dup3\n        /* \"#utility.yul\":73:119   */\n      and\n        /* \"#utility.yul\":62:119   */\n      swap1\n      pop\n        /* \"#utility.yul\":7:125   */\n      swap2\n      swap1\n      pop\n      jump\t// out\n        /* \"#utility.yul\":131:249   */\n    tag_143:\n        /* \"#utility.yul\":218:242   */\n      tag_189\n        /* \"#utility.yul\":236:241   */\n      dup2\n        /* \"#utility.yul\":218:242   */\n      tag_142\n      jump\t// in\n    tag_189:\n        /* \"#utility.yul\":213:216   */\n      dup3\n        /* \"#utility.yul\":206:243   */\n      mstore\n        /* \"#utility.yul\":131:249   */\n      pop\n      pop\n      jump\t// out\n        /* \"#utility.yul\":255:477   */\n    tag_17:\n        /* \"#utility.yul\":348:352   */\n      0x00\n        /* \"#utility.yul\":386:388   */\n      0x20\n        /* \"#utility.yul\":375:384   */\n      dup3\n        /* \"#utility.yul\":371:389   */\n      add\n        /* \"#utility.yul\":363:389   */\n      swap1\n      pop\n        /* \"#utility.yul\":399:470   */\n      tag_191\n        /* \"#utility.yul\":467:468   */\n      0x00\n        /* \"#utility.yul\":456:465   */\n      dup4\n        /* \"#utility.yul\":452:469   */\n      add\n        /* \"#utility.yul\":443:449   */\n      dup5\n        /* \"#utility.yul\":399:470   */\n      tag_143\n      jump\t// in\n    tag_191:\n        /* \"#utility.yul\":255:477   */\n      swap3\n      swap2\n      pop\n      pop\n      jump\t// out\n        /* \"#utility.yul\":483:609   */\n    tag_144:\n        /* \"#utility.yul\":520:527   */\n      0x00\n        /* \"#utility.yul\":560:602   */\n      0xffffffffffffffffffffffffffffffffffffffff\n        /* \"#utility.yul\":553:558   */\n      dup3\n        /* \"#utility.yul\":549:603   */\n      and\n        /* \"#utility.yul\":538:603   */\n      swap1\n      pop\n        /* \"#utility.yul\":483:609   */\n      swap2\n      swap1\n      pop\n      jump\t// out\n        /* \"#utility.yul\":615:711   */\n    tag_145:\n        /* \"#utility.yul\":652:659   */\n      0x00\n        /* \"#utility.yul\":681:705   */\n      tag_194\n        /* \"#utility.yul\":699:704   */\n      dup3\n        /* \"#utility.yul\":681:705   */\n      tag_144\n      jump\t// in\n    tag_194:\n        /* \"#utility.yul\":670:705   */\n      swap1\n      pop\n        /* \"#utility.yul\":615:711   */\n      swap2\n      swap1\n      pop\n      jump\t// out\n        /* \"#utility.yul\":717:835   */\n    tag_146:\n        /* \"#utility.yul\":804:828   */\n      tag_196\n        /* \"#utility.yul\":822:827   */\n      dup2\n        /* \"#utility.yul\":804:828   */\n      tag_145\n      jump\t// in\n    tag_196:\n        /* \"#utility.yul\":799:802   */\n      dup3\n        /* \"#utility.yul\":792:829   */\n      mstore\n        /* \"#utility.yul\":717:835   */\n      pop\n      pop\n      jump\t// out\n        /* \"#utility.yul\":841:1063   */\n    tag_29:\n        /* \"#utility.yul\":934:938   */\n      0x00\n        /* \"#utility.yul\":972:974   */\n      0x20\n        /* \"#utility.yul\":961:970   */\n      dup3\n        /* \"#utility.yul\":957:975   */\n      add\n        /* \"#utility.yul\":949:975   */\n      swap1\n      pop\n        /* \"#utility.yul\":985:1056   */\n      tag_198\n        /* \"#utility.yul\":1053:1054   */\n      0x00\n        /* \"#utility.yul\":1042:1051   */\n      dup4\n        /* \"#utility.yul\":1038:1055   */\n      add\n        /* \"#utility.yul\":1029:1035   */\n      dup5\n        /* \"#utility.yul\":985:1056   */\n      tag_146\n      jump\t// in\n    tag_198:\n        /* \"#utility.yul\":841:1063   */\n      swap3\n      swap2\n      pop\n      pop\n      jump\t// out\n        /* \"#utility.yul\":1150:1267   */\n    tag_148:\n        /* \"#utility.yul\":1259:1260   */\n      0x00\n        /* \"#utility.yul\":1256:1257   */\n      dup1\n        /* \"#utility.yul\":1249:1261   */\n      revert\n        /* \"#utility.yul\":1396:1473   */\n    tag_150:\n        /* \"#utility.yul\":1433:1440   */\n      0x00\n        /* \"#utility.yul\":1462:1467   */\n      dup2\n        /* \"#utility.yul\":1451:1467   */\n      swap1\n      pop\n        /* \"#utility.yul\":1396:1473   */\n      swap2\n      swap1\n      pop\n      jump\t// out\n        /* \"#utility.yul\":1479:1601   */\n    tag_151:\n        /* \"#utility.yul\":1552:1576   */\n      tag_204\n        /* \"#utility.yul\":1570:1575   */\n      dup2\n        /* \"#utility.yul\":1552:1576   */\n      tag_150\n      jump\t// in\n    tag_204:\n        /* \"#utility.yul\":1545:1550   */\n      dup2\n        /* \"#utility.yul\":1542:1577   */\n      eq\n        /* \"#utility.yul\":1532:1595   */\n      tag_205\n      jumpi\n        /* \"#utility.yul\":1591:1592   */\n      0x00\n        /* \"#utility.yul\":1588:1589   */\n      dup1\n        /* \"#utility.yul\":1581:1593   */\n      revert\n        /* \"#utility.yul\":1532:1595   */\n    tag_205:\n        /* \"#utility.yul\":1479:1601   */\n      pop\n      jump\t// out\n        /* \"#utility.yul\":1607:1746   */\n    tag_152:\n        /* \"#utility.yul\":1653:1658   */\n      0x00\n        /* \"#utility.yul\":1691:1697   */\n      dup2\n        /* \"#utility.yul\":1678:1698   */\n      calldataload\n        /* \"#utility.yul\":1669:1698   */\n      swap1\n      pop\n        /* \"#utility.yul\":1707:1740   */\n      tag_207\n        /* \"#utility.yul\":1734:1739   */\n      dup2\n        /* \"#utility.yul\":1707:1740   */\n      tag_151\n      jump\t// in\n    tag_207:\n        /* \"#utility.yul\":1607:1746   */\n      swap3\n      swap2\n      pop\n      pop\n      jump\t// out\n        /* \"#utility.yul\":1752:1829   */\n    tag_153:\n        /* \"#utility.yul\":1789:1796   */\n      0x00\n        /* \"#utility.yul\":1818:1823   */\n      dup2\n        /* \"#utility.yul\":1807:1823   */\n      swap1\n      pop\n        /* \"#utility.yul\":1752:1829   */\n      swap2\n      swap1\n      pop\n      jump\t// out\n        /* \"#utility.yul\":1835:1957   */\n    tag_154:\n        /* \"#utility.yul\":1908:1932   */\n      tag_210\n        /* \"#utility.yul\":1926:1931   */\n      dup2\n        /* \"#utility.yul\":1908:1932   */\n      tag_153\n      jump\t// in\n    tag_210:\n        /* \"#utility.yul\":1901:1906   */\n      dup2\n        /* \"#utility.yul\":1898:1933   */\n      eq\n        /* \"#utility.yul\":1888:1951   */\n      tag_211\n      jumpi\n        /* \"#utility.yul\":1947:1948   */\n      0x00\n        /* \"#utility.yul\":1944:1945   */\n      dup1\n        /* \"#utility.yul\":1937:1949   */\n      revert\n        /* \"#utility.yul\":1888:1951   */\n    tag_211:\n        /* \"#utility.yul\":1835:1957   */\n      pop\n      jump\t// out\n        /* \"#utility.yul\":1963:2102   */\n    tag_155:\n        /* \"#utility.yul\":2009:2014   */\n      0x00\n        /* \"#utility.yul\":2047:2053   */\n      dup2\n        /* \"#utility.yul\":2034:2054   */\n      calldataload\n        /* \"#utility.yul\":2025:2054   */\n      swap1\n      pop\n        /* \"#utility.yul\":2063:2096   */\n      tag_213\n        /* \"#utility.yul\":2090:2095   */\n      dup2\n        /* \"#utility.yul\":2063:2096   */\n      tag_154\n      jump\t// in\n    tag_213:\n        /* \"#utility.yul\":1963:2102   */\n      swap3\n      swap2\n      pop\n      pop\n      jump\t// out\n        /* \"#utility.yul\":2108:2582   */\n    tag_32:\n        /* \"#utility.yul\":2176:2182   */\n      0x00\n        /* \"#utility.yul\":2184:2190   */\n      dup1\n        /* \"#utility.yul\":2233:2235   */\n      0x40\n        /* \"#utility.yul\":2221:2230   */\n      dup4\n        /* \"#utility.yul\":2212:2219   */\n      dup6\n        /* \"#utility.yul\":2208:2231   */\n      sub\n        /* \"#utility.yul\":2204:2236   */\n      slt\n        /* \"#utility.yul\":2201:2320   */\n      iszero\n      tag_215\n      jumpi\n        /* \"#utility.yul\":2239:2318   */\n      tag_216\n      tag_148\n      jump\t// in\n    tag_216:\n        /* \"#utility.yul\":2201:2320   */\n    tag_215:\n        /* \"#utility.yul\":2359:2360   */\n      0x00\n        /* \"#utility.yul\":2384:2437   */\n      tag_217\n        /* \"#utility.yul\":2429:2436   */\n      dup6\n        /* \"#utility.yul\":2420:2426   */\n      dup3\n        /* \"#utility.yul\":2409:2418   */\n      dup7\n        /* \"#utility.yul\":2405:2427   */\n      add\n        /* \"#utility.yul\":2384:2437   */\n      tag_152\n      jump\t// in\n    tag_217:\n        /* \"#utility.yul\":2374:2437   */\n      swap3\n      pop\n        /* \"#utility.yul\":2330:2447   */\n      pop\n        /* \"#utility.yul\":2486:2488   */\n      0x20\n        /* \"#utility.yul\":2512:2565   */\n      tag_218\n        /* \"#utility.yul\":2557:2564   */\n      dup6\n        /* \"#utility.yul\":2548:2554   */\n      dup3\n        /* \"#utility.yul\":2537:2546   */\n      dup7\n        /* \"#utility.yul\":2533:2555   */\n      add\n        /* \"#utility.yul\":2512:2565   */\n      tag_155\n      jump\t// in\n    tag_218:\n        /* \"#utility.yul\":2502:2565   */\n      swap2\n      pop\n        /* \"#utility.yul\":2457:2575   */\n      pop\n        /* \"#utility.yul\":2108:2582   */\n      swap3\n      pop\n      swap3\n      swap1\n      pop\n      jump\t// out\n        /* \"#utility.yul\":2588:2706   */\n    tag_156:\n        /* \"#utility.yul\":2675:2699   */\n      tag_220\n        /* \"#utility.yul\":2693:2698   */\n      dup2\n        /* \"#utility.yul\":2675:2699   */\n      tag_153\n      jump\t// in\n    tag_220:\n        /* \"#utility.yul\":2670:2673   */\n      dup3\n        /* \"#utility.yul\":2663:2700   */\n      mstore\n        /* \"#utility.yul\":2588:2706   */\n      pop\n      pop\n      jump\t// out\n        /* \"#utility.yul\":2712:2934   */\n    tag_35:\n        /* \"#utility.yul\":2805:2809   */\n      0x00\n        /* \"#utility.yul\":2843:2845   */\n      0x20\n        /* \"#utility.yul\":2832:2841   */\n      dup3\n        /* \"#utility.yul\":2828:2846   */\n      add\n        /* \"#utility.yul\":2820:2846   */\n      swap1\n      pop\n        /* \"#utility.yul\":2856:2927   */\n      tag_222\n        /* \"#utility.yul\":2924:2925   */\n      0x00\n        /* \"#utility.yul\":2913:2922   */\n      dup4\n        /* \"#utility.yul\":2909:2926   */\n      add\n        /* \"#utility.yul\":2900:2906   */\n      dup5\n        /* \"#utility.yul\":2856:2927   */\n      tag_156\n      jump\t// in\n    tag_222:\n        /* \"#utility.yul\":2712:2934   */\n      swap3\n      swap2\n      pop\n      pop\n      jump\t// out\n        /* \"#utility.yul\":2940:3044   */\n    tag_157:\n        /* \"#utility.yul\":2985:2992   */\n      0x00\n        /* \"#utility.yul\":3014:3038   */\n      tag_224\n        /* \"#utility.yul\":3032:3037   */\n      dup3\n        /* \"#utility.yul\":3014:3038   */\n      tag_144\n      jump\t// in\n    tag_224:\n        /* \"#utility.yul\":3003:3038   */\n      swap1\n      pop\n        /* \"#utility.yul\":2940:3044   */\n      swap2\n      swap1\n      pop\n      jump\t// out\n        /* \"#utility.yul\":3050:3192   */\n    tag_158:\n        /* \"#utility.yul\":3153:3185   */\n      tag_226\n        /* \"#utility.yul\":3179:3184   */\n      dup2\n        /* \"#utility.yul\":3153:3185   */\n      tag_157\n      jump\t// in\n    tag_226:\n        /* \"#utility.yul\":3148:3151   */\n      dup3\n        /* \"#utility.yul\":3141:3186   */\n      mstore\n        /* \"#utility.yul\":3050:3192   */\n      pop\n      pop\n      jump\t// out\n        /* \"#utility.yul\":3198:3452   */\n    tag_42:\n        /* \"#utility.yul\":3307:3311   */\n      0x00\n        /* \"#utility.yul\":3345:3347   */\n      0x20\n        /* \"#utility.yul\":3334:3343   */\n      dup3\n        /* \"#utility.yul\":3330:3348   */\n      add\n        /* \"#utility.yul\":3322:3348   */\n      swap1\n      pop\n        /* \"#utility.yul\":3358:3445   */\n      tag_228\n        /* \"#utility.yul\":3442:3443   */\n      0x00\n        /* \"#utility.yul\":3431:3440   */\n      dup4\n        /* \"#utility.yul\":3427:3444   */\n      add\n        /* \"#utility.yul\":3418:3424   */\n      dup5\n        /* \"#utility.yul\":3358:3445   */\n      tag_158\n      jump\t// in\n    tag_228:\n        /* \"#utility.yul\":3198:3452   */\n      swap3\n      swap2\n      pop\n      pop\n      jump\t// out\n        /* \"#utility.yul\":3458:3570   */\n    tag_159:\n        /* \"#utility.yul\":3544:3545   */\n      0x05\n        /* \"#utility.yul\":3537:3542   */\n      dup2\n        /* \"#utility.yul\":3534:3546   */\n      lt\n        /* \"#utility.yul\":3524:3564   */\n      tag_230\n      jumpi\n        /* \"#utility.yul\":3560:3561   */\n      0x00\n        /* \"#utility.yul\":3557:3558   */\n      dup1\n        /* \"#utility.yul\":3550:3562   */\n      revert\n        /* \"#utility.yul\":3524:3564   */\n    tag_230:\n        /* \"#utility.yul\":3458:3570   */\n      pop\n      jump\t// out\n        /* \"#utility.yul\":3576:3741   */\n    tag_160:\n        /* \"#utility.yul\":3635:3640   */\n      0x00\n        /* \"#utility.yul\":3673:3679   */\n      dup2\n        /* \"#utility.yul\":3660:3680   */\n      calldataload\n        /* \"#utility.yul\":3651:3680   */\n      swap1\n      pop\n        /* \"#utility.yul\":3689:3735   */\n      tag_232\n        /* \"#utility.yul\":3729:3734   */\n      dup2\n        /* \"#utility.yul\":3689:3735   */\n      tag_159\n      jump\t// in\n    tag_232:\n        /* \"#utility.yul\":3576:3741   */\n      swap3\n      swap2\n      pop\n      pop\n      jump\t// out\n        /* \"#utility.yul\":3747:3869   */\n    tag_161:\n        /* \"#utility.yul\":3820:3844   */\n      tag_234\n        /* \"#utility.yul\":3838:3843   */\n      dup2\n        /* \"#utility.yul\":3820:3844   */\n      tag_145\n      jump\t// in\n    tag_234:\n        /* \"#utility.yul\":3813:3818   */\n      dup2\n        /* \"#utility.yul\":3810:3845   */\n      eq\n        /* \"#utility.yul\":3800:3863   */\n      tag_235\n      jumpi\n        /* \"#utility.yul\":3859:3860   */\n      0x00\n        /* \"#utility.yul\":3856:3857   */\n      dup1\n        /* \"#utility.yul\":3849:3861   */\n      revert\n        /* \"#utility.yul\":3800:3863   */\n    tag_235:\n        /* \"#utility.yul\":3747:3869   */\n      pop\n      jump\t// out\n        /* \"#utility.yul\":3875:4014   */\n    tag_162:\n        /* \"#utility.yul\":3921:3926   */\n      0x00\n        /* \"#utility.yul\":3959:3965   */\n      dup2\n        /* \"#utility.yul\":3946:3966   */\n      calldataload\n        /* \"#utility.yul\":3937:3966   */\n      swap1\n      pop\n        /* \"#utility.yul\":3975:4008   */\n      tag_237\n        /* \"#utility.yul\":4002:4007   */\n      dup2\n        /* \"#utility.yul\":3975:4008   */\n      tag_161\n      jump\t// in\n    tag_237:\n        /* \"#utility.yul\":3875:4014   */\n      swap3\n      swap2\n      pop\n      pop\n      jump\t// out\n        /* \"#utility.yul\":4020:4957   */\n    tag_45:\n        /* \"#utility.yul\":4128:4134   */\n      0x00\n        /* \"#utility.yul\":4136:4142   */\n      dup1\n        /* \"#utility.yul\":4144:4150   */\n      0x00\n        /* \"#utility.yul\":4152:4158   */\n      dup1\n        /* \"#utility.yul\":4160:4166   */\n      0x00\n        /* \"#utility.yul\":4209:4212   */\n      0xa0\n        /* \"#utility.yul\":4197:4206   */\n      dup7\n        /* \"#utility.yul\":4188:4195   */\n      dup9\n        /* \"#utility.yul\":4184:4207   */\n      sub\n        /* \"#utility.yul\":4180:4213   */\n      slt\n        /* \"#utility.yul\":4177:4297   */\n      iszero\n      tag_239\n      jumpi\n        /* \"#utility.yul\":4216:4295   */\n      tag_240\n      tag_148\n      jump\t// in\n    tag_240:\n        /* \"#utility.yul\":4177:4297   */\n    tag_239:\n        /* \"#utility.yul\":4336:4337   */\n      0x00\n        /* \"#utility.yul\":4361:4427   */\n      tag_241\n        /* \"#utility.yul\":4419:4426   */\n      dup9\n        /* \"#utility.yul\":4410:4416   */\n      dup3\n        /* \"#utility.yul\":4399:4408   */\n      dup10\n        /* \"#utility.yul\":4395:4417   */\n      add\n        /* \"#utility.yul\":4361:4427   */\n      tag_160\n      jump\t// in\n    tag_241:\n        /* \"#utility.yul\":4351:4427   */\n      swap6\n      pop\n        /* \"#utility.yul\":4307:4437   */\n      pop\n        /* \"#utility.yul\":4476:4478   */\n      0x20\n        /* \"#utility.yul\":4502:4555   */\n      tag_242\n        /* \"#utility.yul\":4547:4554   */\n      dup9\n        /* \"#utility.yul\":4538:4544   */\n      dup3\n        /* \"#utility.yul\":4527:4536   */\n      dup10\n        /* \"#utility.yul\":4523:4545   */\n      add\n        /* \"#utility.yul\":4502:4555   */\n      tag_155\n      jump\t// in\n    tag_242:\n        /* \"#utility.yul\":4492:4555   */\n      swap5\n      pop\n        /* \"#utility.yul\":4447:4565   */\n      pop\n        /* \"#utility.yul\":4604:4606   */\n      0x40\n        /* \"#utility.yul\":4630:4683   */\n      tag_243\n        /* \"#utility.yul\":4675:4682   */\n      dup9\n        /* \"#utility.yul\":4666:4672   */\n      dup3\n        /* \"#utility.yul\":4655:4664   */\n      dup10\n        /* \"#utility.yul\":4651:4673   */\n      add\n        /* \"#utility.yul\":4630:4683   */\n      tag_155\n      jump\t// in\n    tag_243:\n        /* \"#utility.yul\":4620:4683   */\n      swap4\n      pop\n        /* \"#utility.yul\":4575:4693   */\n      pop\n        /* \"#utility.yul\":4732:4734   */\n      0x60\n        /* \"#utility.yul\":4758:4811   */\n      tag_244\n        /* \"#utility.yul\":4803:4810   */\n      dup9\n        /* \"#utility.yul\":4794:4800   */\n      dup3\n        /* \"#utility.yul\":4783:4792   */\n      dup10\n        /* \"#utility.yul\":4779:4801   */\n      add\n        /* \"#utility.yul\":4758:4811   */\n      tag_155\n      jump\t// in\n    tag_244:\n        /* \"#utility.yul\":4748:4811   */\n      swap3\n      pop\n        /* \"#utility.yul\":4703:4821   */\n      pop\n        /* \"#utility.yul\":4860:4863   */\n      0x80\n        /* \"#utility.yul\":4887:4940   */\n      tag_245\n        /* \"#utility.yul\":4932:4939   */\n      dup9\n        /* \"#utility.yul\":4923:4929   */\n      dup3\n        /* \"#utility.yul\":4912:4921   */\n      dup10\n        /* \"#utility.yul\":4908:4930   */\n      add\n        /* \"#utility.yul\":4887:4940   */\n      tag_162\n      jump\t// in\n    tag_245:\n        /* \"#utility.yul\":4877:4940   */\n      swap2\n      pop\n        /* \"#utility.yul\":4831:4950   */\n      pop\n        /* \"#utility.yul\":4020:4957   */\n      swap3\n      swap6\n      pop\n      swap3\n      swap6\n      swap1\n      swap4\n      pop\n      jump\t// out\n        /* \"#utility.yul\":4963:5292   */\n    tag_49:\n        /* \"#utility.yul\":5022:5028   */\n      0x00\n        /* \"#utility.yul\":5071:5073   */\n      0x20\n        /* \"#utility.yul\":5059:5068   */\n      dup3\n        /* \"#utility.yul\":5050:5057   */\n      dup5\n        /* \"#utility.yul\":5046:5069   */\n      sub\n        /* \"#utility.yul\":5042:5074   */\n      slt\n        /* \"#utility.yul\":5039:5158   */\n      iszero\n      tag_247\n      jumpi\n        /* \"#utility.yul\":5077:5156   */\n      tag_248\n      tag_148\n      jump\t// in\n    tag_248:\n        /* \"#utility.yul\":5039:5158   */\n    tag_247:\n        /* \"#utility.yul\":5197:5198   */\n      0x00\n        /* \"#utility.yul\":5222:5275   */\n      tag_249\n        /* \"#utility.yul\":5267:5274   */\n      dup5\n        /* \"#utility.yul\":5258:5264   */\n      dup3\n        /* \"#utility.yul\":5247:5256   */\n      dup6\n        /* \"#utility.yul\":5243:5265   */\n      add\n        /* \"#utility.yul\":5222:5275   */\n      tag_162\n      jump\t// in\n    tag_249:\n        /* \"#utility.yul\":5212:5275   */\n      swap2\n      pop\n        /* \"#utility.yul\":5168:5285   */\n      pop\n        /* \"#utility.yul\":4963:5292   */\n      swap3\n      swap2\n      pop\n      pop\n      jump\t// out\n        /* \"#utility.yul\":5298:5478   */\n    tag_163:\n        /* \"#utility.yul\":5346:5423   */\n      0x4e487b7100000000000000000000000000000000000000000000000000000000\n        /* \"#utility.yul\":5343:5344   */\n      0x00\n        /* \"#utility.yul\":5336:5424   */\n      mstore\n        /* \"#utility.yul\":5443:5447   */\n      0x11\n        /* \"#utility.yul\":5440:5441   */\n      0x04\n        /* \"#utility.yul\":5433:5448   */\n      mstore\n        /* \"#utility.yul\":5467:5471   */\n      0x24\n        /* \"#utility.yul\":5464:5465   */\n      0x00\n        /* \"#utility.yul\":5457:5472   */\n      revert\n        /* \"#utility.yul\":5484:5763   */\n    tag_52:\n        /* \"#utility.yul\":5524:5531   */\n      0x00\n        /* \"#utility.yul\":5547:5567   */\n      tag_252\n        /* \"#utility.yul\":5565:5566   */\n      dup3\n        /* \"#utility.yul\":5547:5567   */\n      tag_142\n      jump\t// in\n    tag_252:\n        /* \"#utility.yul\":5542:5567   */\n      swap2\n      pop\n        /* \"#utility.yul\":5581:5601   */\n      tag_253\n        /* \"#utility.yul\":5599:5600   */\n      dup4\n        /* \"#utility.yul\":5581:5601   */\n      tag_142\n      jump\t// in\n    tag_253:\n        /* \"#utility.yul\":5576:5601   */\n      swap3\n      pop\n        /* \"#utility.yul\":5636:5637   */\n      dup3\n        /* \"#utility.yul\":5633:5634   */\n      dup3\n        /* \"#utility.yul\":5629:5638   */\n      mul\n        /* \"#utility.yul\":5658:5688   */\n      tag_254\n        /* \"#utility.yul\":5676:5687   */\n      dup2\n        /* \"#utility.yul\":5658:5688   */\n      tag_142\n      jump\t// in\n    tag_254:\n        /* \"#utility.yul\":5647:5688   */\n      swap2\n      pop\n        /* \"#utility.yul\":5720:5731   */\n      dup1\n        /* \"#utility.yul\":5711:5718   */\n      dup3\n        /* \"#utility.yul\":5708:5732   */\n      eq\n        /* \"#utility.yul\":5698:5756   */\n      tag_255\n      jumpi\n        /* \"#utility.yul\":5736:5754   */\n      tag_256\n      tag_163\n      jump\t// in\n    tag_256:\n        /* \"#utility.yul\":5698:5756   */\n    tag_255:\n        /* \"#utility.yul\":5532:5763   */\n      pop\n        /* \"#utility.yul\":5484:5763   */\n      swap3\n      swap2\n      pop\n      pop\n      jump\t// out\n        /* \"#utility.yul\":5769:5960   */\n    tag_70:\n        /* \"#utility.yul\":5809:5812   */\n      0x00\n        /* \"#utility.yul\":5828:5848   */\n      tag_258\n        /* \"#utility.yul\":5846:5847   */\n      dup3\n        /* \"#utility.yul\":5828:5848   */\n      tag_153\n      jump\t// in\n    tag_258:\n        /* \"#utility.yul\":5823:5848   */\n      swap2\n      pop\n        /* \"#utility.yul\":5862:5882   */\n      tag_259\n        /* \"#utility.yul\":5880:5881   */\n      dup4\n        /* \"#utility.yul\":5862:5882   */\n      tag_153\n      jump\t// in\n    tag_259:\n        /* \"#utility.yul\":5857:5882   */\n      swap3\n      pop\n        /* \"#utility.yul\":5905:5906   */\n      dup3\n        /* \"#utility.yul\":5902:5903   */\n      dup3\n        /* \"#utility.yul\":5898:5907   */\n      add\n        /* \"#utility.yul\":5891:5907   */\n      swap1\n      pop\n        /* \"#utility.yul\":5926:5929   */\n      dup1\n        /* \"#utility.yul\":5923:5924   */\n      dup3\n        /* \"#utility.yul\":5920:5930   */\n      gt\n        /* \"#utility.yul\":5917:5953   */\n      iszero\n      tag_260\n      jumpi\n        /* \"#utility.yul\":5933:5951   */\n      tag_261\n      tag_163\n      jump\t// in\n    tag_261:\n        /* \"#utility.yul\":5917:5953   */\n    tag_260:\n        /* \"#utility.yul\":5769:5960   */\n      swap3\n      swap2\n      pop\n      pop\n      jump\t// out\n        /* \"#utility.yul\":5966:6146   */\n    tag_73:\n        /* \"#utility.yul\":6014:6091   */\n      0x4e487b7100000000000000000000000000000000000000000000000000000000\n        /* \"#utility.yul\":6011:6012   */\n      0x00\n        /* \"#utility.yul\":6004:6092   */\n      mstore\n        /* \"#utility.yul\":6111:6115   */\n      0x21\n        /* \"#utility.yul\":6108:6109   */\n      0x04\n        /* \"#utility.yul\":6101:6116   */\n      mstore\n        /* \"#utility.yul\":6135:6139   */\n      0x24\n        /* \"#utility.yul\":6132:6133   */\n      0x00\n        /* \"#utility.yul\":6125:6140   */\n      revert\n        /* \"#utility.yul\":6152:6484   */\n    tag_80:\n        /* \"#utility.yul\":6273:6277   */\n      0x00\n        /* \"#utility.yul\":6311:6313   */\n      0x40\n        /* \"#utility.yul\":6300:6309   */\n      dup3\n        /* \"#utility.yul\":6296:6314   */\n      add\n        /* \"#utility.yul\":6288:6314   */\n      swap1\n      pop\n        /* \"#utility.yul\":6324:6395   */\n      tag_264\n        /* \"#utility.yul\":6392:6393   */\n      0x00\n        /* \"#utility.yul\":6381:6390   */\n      dup4\n        /* \"#utility.yul\":6377:6394   */\n      add\n        /* \"#utility.yul\":6368:6374   */\n      dup6\n        /* \"#utility.yul\":6324:6395   */\n      tag_156\n      jump\t// in\n    tag_264:\n        /* \"#utility.yul\":6405:6477   */\n      tag_265\n        /* \"#utility.yul\":6473:6475   */\n      0x20\n        /* \"#utility.yul\":6462:6471   */\n      dup4\n        /* \"#utility.yul\":6458:6476   */\n      add\n        /* \"#utility.yul\":6449:6455   */\n      dup5\n        /* \"#utility.yul\":6405:6477   */\n      tag_156\n      jump\t// in\n    tag_265:\n        /* \"#utility.yul\":6152:6484   */\n      swap4\n      swap3\n      pop\n      pop\n      pop\n      jump\t// out\n        /* \"#utility.yul\":6490:6659   */\n    tag_164:\n        /* \"#utility.yul\":6574:6585   */\n      0x00\n        /* \"#utility.yul\":6608:6614   */\n      dup3\n        /* \"#utility.yul\":6603:6606   */\n      dup3\n        /* \"#utility.yul\":6596:6615   */\n      mstore\n        /* \"#utility.yul\":6648:6652   */\n      0x20\n        /* \"#utility.yul\":6643:6646   */\n      dup3\n        /* \"#utility.yul\":6639:6653   */\n      add\n        /* \"#utility.yul\":6624:6653   */\n      swap1\n      pop\n        /* \"#utility.yul\":6490:6659   */\n      swap3\n      swap2\n      pop\n      pop\n      jump\t// out\n        /* \"#utility.yul\":6665:6890   */\n    tag_165:\n        /* \"#utility.yul\":6805:6839   */\n      0x4f776e61626c653a206e6577206f776e657220697320746865207a65726f2061\n        /* \"#utility.yul\":6801:6802   */\n      0x00\n        /* \"#utility.yul\":6793:6799   */\n      dup3\n        /* \"#utility.yul\":6789:6803   */\n      add\n        /* \"#utility.yul\":6782:6840   */\n      mstore\n        /* \"#utility.yul\":6874:6882   */\n      0x6464726573730000000000000000000000000000000000000000000000000000\n        /* \"#utility.yul\":6869:6871   */\n      0x20\n        /* \"#utility.yul\":6861:6867   */\n      dup3\n        /* \"#utility.yul\":6857:6872   */\n      add\n        /* \"#utility.yul\":6850:6883   */\n      mstore\n        /* \"#utility.yul\":6665:6890   */\n      pop\n      jump\t// out\n        /* \"#utility.yul\":6896:7262   */\n    tag_166:\n        /* \"#utility.yul\":7038:7041   */\n      0x00\n        /* \"#utility.yul\":7059:7126   */\n      tag_269\n        /* \"#utility.yul\":7123:7125   */\n      0x26\n        /* \"#utility.yul\":7118:7121   */\n      dup4\n        /* \"#utility.yul\":7059:7126   */\n      tag_164\n      jump\t// in\n    tag_269:\n        /* \"#utility.yul\":7052:7126   */\n      swap2\n      pop\n        /* \"#utility.yul\":7135:7228   */\n      tag_270\n        /* \"#utility.yul\":7224:7227   */\n      dup3\n        /* \"#utility.yul\":7135:7228   */\n      tag_165\n      jump\t// in\n    tag_270:\n        /* \"#utility.yul\":7253:7255   */\n      0x40\n        /* \"#utility.yul\":7248:7251   */\n      dup3\n        /* \"#utility.yul\":7244:7256   */\n      add\n        /* \"#utility.yul\":7237:7256   */\n      swap1\n      pop\n        /* \"#utility.yul\":6896:7262   */\n      swap2\n      swap1\n      pop\n      jump\t// out\n        /* \"#utility.yul\":7268:7687   */\n    tag_86:\n        /* \"#utility.yul\":7434:7438   */\n      0x00\n        /* \"#utility.yul\":7472:7474   */\n      0x20\n        /* \"#utility.yul\":7461:7470   */\n      dup3\n        /* \"#utility.yul\":7457:7475   */\n      add\n        /* \"#utility.yul\":7449:7475   */\n      swap1\n      pop\n        /* \"#utility.yul\":7521:7530   */\n      dup2\n        /* \"#utility.yul\":7515:7519   */\n      dup2\n        /* \"#utility.yul\":7511:7531   */\n      sub\n        /* \"#utility.yul\":7507:7508   */\n      0x00\n        /* \"#utility.yul\":7496:7505   */\n      dup4\n        /* \"#utility.yul\":7492:7509   */\n      add\n        /* \"#utility.yul\":7485:7532   */\n      mstore\n        /* \"#utility.yul\":7549:7680   */\n      tag_272\n        /* \"#utility.yul\":7675:7679   */\n      dup2\n        /* \"#utility.yul\":7549:7680   */\n      tag_166\n      jump\t// in\n    tag_272:\n        /* \"#utility.yul\":7541:7680   */\n      swap1\n      pop\n        /* \"#utility.yul\":7268:7687   */\n      swap2\n      swap1\n      pop\n      jump\t// out\n        /* \"#utility.yul\":7693:7875   */\n    tag_167:\n        /* \"#utility.yul\":7833:7867   */\n      0x4f776e61626c653a2063616c6c6572206973206e6f7420746865206f776e6572\n        /* \"#utility.yul\":7829:7830   */\n      0x00\n        /* \"#utility.yul\":7821:7827   */\n      dup3\n        /* \"#utility.yul\":7817:7831   */\n      add\n        /* \"#utility.yul\":7810:7868   */\n      mstore\n        /* \"#utility.yul\":7693:7875   */\n      pop\n      jump\t// out\n        /* \"#utility.yul\":7881:8247   */\n    tag_168:\n        /* \"#utility.yul\":8023:8026   */\n      0x00\n        /* \"#utility.yul\":8044:8111   */\n      tag_275\n        /* \"#utility.yul\":8108:8110   */\n      0x20\n        /* \"#utility.yul\":8103:8106   */\n      dup4\n        /* \"#utility.yul\":8044:8111   */\n      tag_164\n      jump\t// in\n    tag_275:\n        /* \"#utility.yul\":8037:8111   */\n      swap2\n      pop\n        /* \"#utility.yul\":8120:8213   */\n      tag_276\n        /* \"#utility.yul\":8209:8212   */\n      dup3\n        /* \"#utility.yul\":8120:8213   */\n      tag_167\n      jump\t// in\n    tag_276:\n        /* \"#utility.yul\":8238:8240   */\n      0x20\n        /* \"#utility.yul\":8233:8236   */\n      dup3\n        /* \"#utility.yul\":8229:8241   */\n      add\n        /* \"#utility.yul\":8222:8241   */\n      swap1\n      pop\n        /* \"#utility.yul\":7881:8247   */\n      swap2\n      swap1\n      pop\n      jump\t// out\n        /* \"#utility.yul\":8253:8672   */\n    tag_94:\n        /* \"#utility.yul\":8419:8423   */\n      0x00\n        /* \"#utility.yul\":8457:8459   */\n      0x20\n        /* \"#utility.yul\":8446:8455   */\n      dup3\n        /* \"#utility.yul\":8442:8460   */\n      add\n        /* \"#utility.yul\":8434:8460   */\n      swap1\n      pop\n        /* \"#utility.yul\":8506:8515   */\n      dup2\n        /* \"#utility.yul\":8500:8504   */\n      dup2\n        /* \"#utility.yul\":8496:8516   */\n      sub\n        /* \"#utility.yul\":8492:8493   */\n      0x00\n        /* \"#utility.yul\":8481:8490   */\n      dup4\n        /* \"#utility.yul\":8477:8494   */\n      add\n        /* \"#utility.yul\":8470:8517   */\n      mstore\n        /* \"#utility.yul\":8534:8665   */\n      tag_278\n        /* \"#utility.yul\":8660:8664   */\n      dup2\n        /* \"#utility.yul\":8534:8665   */\n      tag_168\n      jump\t// in\n    tag_278:\n        /* \"#utility.yul\":8526:8665   */\n      swap1\n      pop\n        /* \"#utility.yul\":8253:8672   */\n      swap2\n      swap1\n      pop\n      jump\t// out\n        /* \"#utility.yul\":8678:8858   */\n    tag_169:\n        /* \"#utility.yul\":8726:8803   */\n      0x4e487b7100000000000000000000000000000000000000000000000000000000\n        /* \"#utility.yul\":8723:8724   */\n      0x00\n        /* \"#utility.yul\":8716:8804   */\n      mstore\n        /* \"#utility.yul\":8823:8827   */\n      0x12\n        /* \"#utility.yul\":8820:8821   */\n      0x04\n        /* \"#utility.yul\":8813:8828   */\n      mstore\n        /* \"#utility.yul\":8847:8851   */\n      0x24\n        /* \"#utility.yul\":8844:8845   */\n      0x00\n        /* \"#utility.yul\":8837:8852   */\n      revert\n        /* \"#utility.yul\":8864:9049   */\n    tag_99:\n        /* \"#utility.yul\":8904:8905   */\n      0x00\n        /* \"#utility.yul\":8921:8941   */\n      tag_281\n        /* \"#utility.yul\":8939:8940   */\n      dup3\n        /* \"#utility.yul\":8921:8941   */\n      tag_142\n      jump\t// in\n    tag_281:\n        /* \"#utility.yul\":8916:8941   */\n      swap2\n      pop\n        /* \"#utility.yul\":8955:8975   */\n      tag_282\n        /* \"#utility.yul\":8973:8974   */\n      dup4\n        /* \"#utility.yul\":8955:8975   */\n      tag_142\n      jump\t// in\n    tag_282:\n        /* \"#utility.yul\":8950:8975   */\n      swap3\n      pop\n        /* \"#utility.yul\":8994:8995   */\n      dup3\n        /* \"#utility.yul\":8984:9019   */\n      tag_283\n      jumpi\n        /* \"#utility.yul\":8999:9017   */\n      tag_284\n      tag_169\n      jump\t// in\n    tag_284:\n        /* \"#utility.yul\":8984:9019   */\n    tag_283:\n        /* \"#utility.yul\":9041:9042   */\n      dup3\n        /* \"#utility.yul\":9038:9039   */\n      dup3\n        /* \"#utility.yul\":9034:9043   */\n      div\n        /* \"#utility.yul\":9029:9043   */\n      swap1\n      pop\n        /* \"#utility.yul\":8864:9049   */\n      swap3\n      swap2\n      pop\n      pop\n      jump\t// out\n        /* \"#utility.yul\":9055:9497   */\n    tag_103:\n        /* \"#utility.yul\":9204:9208   */\n      0x00\n        /* \"#utility.yul\":9242:9244   */\n      0x60\n        /* \"#utility.yul\":9231:9240   */\n      dup3\n        /* \"#utility.yul\":9227:9245   */\n      add\n        /* \"#utility.yul\":9219:9245   */\n      swap1\n      pop\n        /* \"#utility.yul\":9255:9326   */\n      tag_286\n        /* \"#utility.yul\":9323:9324   */\n      0x00\n        /* \"#utility.yul\":9312:9321   */\n      dup4\n        /* \"#utility.yul\":9308:9325   */\n      add\n        /* \"#utility.yul\":9299:9305   */\n      dup7\n        /* \"#utility.yul\":9255:9326   */\n      tag_146\n      jump\t// in\n    tag_286:\n        /* \"#utility.yul\":9336:9408   */\n      tag_287\n        /* \"#utility.yul\":9404:9406   */\n      0x20\n        /* \"#utility.yul\":9393:9402   */\n      dup4\n        /* \"#utility.yul\":9389:9407   */\n      add\n        /* \"#utility.yul\":9380:9386   */\n      dup6\n        /* \"#utility.yul\":9336:9408   */\n      tag_146\n      jump\t// in\n    tag_287:\n        /* \"#utility.yul\":9418:9490   */\n      tag_288\n        /* \"#utility.yul\":9486:9488   */\n      0x40\n        /* \"#utility.yul\":9475:9484   */\n      dup4\n        /* \"#utility.yul\":9471:9489   */\n      add\n        /* \"#utility.yul\":9462:9468   */\n      dup5\n        /* \"#utility.yul\":9418:9490   */\n      tag_156\n      jump\t// in\n    tag_288:\n        /* \"#utility.yul\":9055:9497   */\n      swap5\n      swap4\n      pop\n      pop\n      pop\n      pop\n      jump\t// out\n        /* \"#utility.yul\":9503:9593   */\n    tag_170:\n        /* \"#utility.yul\":9537:9544   */\n      0x00\n        /* \"#utility.yul\":9580:9585   */\n      dup2\n        /* \"#utility.yul\":9573:9586   */\n      iszero\n        /* \"#utility.yul\":9566:9587   */\n      iszero\n        /* \"#utility.yul\":9555:9587   */\n      swap1\n      pop\n        /* \"#utility.yul\":9503:9593   */\n      swap2\n      swap1\n      pop\n      jump\t// out\n        /* \"#utility.yul\":9599:9715   */\n    tag_171:\n        /* \"#utility.yul\":9669:9690   */\n      tag_291\n        /* \"#utility.yul\":9684:9689   */\n      dup2\n        /* \"#utility.yul\":9669:9690   */\n      tag_170\n      jump\t// in\n    tag_291:\n        /* \"#utility.yul\":9662:9667   */\n      dup2\n        /* \"#utility.yul\":9659:9691   */\n      eq\n        /* \"#utility.yul\":9649:9709   */\n      tag_292\n      jumpi\n        /* \"#utility.yul\":9705:9706   */\n      0x00\n        /* \"#utility.yul\":9702:9703   */\n      dup1\n        /* \"#utility.yul\":9695:9707   */\n      revert\n        /* \"#utility.yul\":9649:9709   */\n    tag_292:\n        /* \"#utility.yul\":9599:9715   */\n      pop\n      jump\t// out\n        /* \"#utility.yul\":9721:9858   */\n    tag_172:\n        /* \"#utility.yul\":9775:9780   */\n      0x00\n        /* \"#utility.yul\":9806:9812   */\n      dup2\n        /* \"#utility.yul\":9800:9813   */\n      mload\n        /* \"#utility.yul\":9791:9813   */\n      swap1\n      pop\n        /* \"#utility.yul\":9822:9852   */\n      tag_294\n        /* \"#utility.yul\":9846:9851   */\n      dup2\n        /* \"#utility.yul\":9822:9852   */\n      tag_171\n      jump\t// in\n    tag_294:\n        /* \"#utility.yul\":9721:9858   */\n      swap3\n      swap2\n      pop\n      pop\n      jump\t// out\n        /* \"#utility.yul\":9864:10209   */\n    tag_111:\n        /* \"#utility.yul\":9931:9937   */\n      0x00\n        /* \"#utility.yul\":9980:9982   */\n      0x20\n        /* \"#utility.yul\":9968:9977   */\n      dup3\n        /* \"#utility.yul\":9959:9966   */\n      dup5\n        /* \"#utility.yul\":9955:9978   */\n      sub\n        /* \"#utility.yul\":9951:9983   */\n      slt\n        /* \"#utility.yul\":9948:10067   */\n      iszero\n      tag_296\n      jumpi\n        /* \"#utility.yul\":9986:10065   */\n      tag_297\n      tag_148\n      jump\t// in\n    tag_297:\n        /* \"#utility.yul\":9948:10067   */\n    tag_296:\n        /* \"#utility.yul\":10106:10107   */\n      0x00\n        /* \"#utility.yul\":10131:10192   */\n      tag_298\n        /* \"#utility.yul\":10184:10191   */\n      dup5\n        /* \"#utility.yul\":10175:10181   */\n      dup3\n        /* \"#utility.yul\":10164:10173   */\n      dup6\n        /* \"#utility.yul\":10160:10182   */\n      add\n        /* \"#utility.yul\":10131:10192   */\n      tag_172\n      jump\t// in\n    tag_298:\n        /* \"#utility.yul\":10121:10192   */\n      swap2\n      pop\n        /* \"#utility.yul\":10077:10202   */\n      pop\n        /* \"#utility.yul\":9864:10209   */\n      swap3\n      swap2\n      pop\n      pop\n      jump\t// out\n        /* \"#utility.yul\":10215:10444   */\n    tag_173:\n        /* \"#utility.yul\":10355:10389   */\n      0x5361666545524332303a204552433230206f7065726174696f6e20646964206e\n        /* \"#utility.yul\":10351:10352   */\n      0x00\n        /* \"#utility.yul\":10343:10349   */\n      dup3\n        /* \"#utility.yul\":10339:10353   */\n      add\n        /* \"#utility.yul\":10332:10390   */\n      mstore\n        /* \"#utility.yul\":10424:10436   */\n      0x6f74207375636365656400000000000000000000000000000000000000000000\n        /* \"#utility.yul\":10419:10421   */\n      0x20\n        /* \"#utility.yul\":10411:10417   */\n      dup3\n        /* \"#utility.yul\":10407:10422   */\n      add\n        /* \"#utility.yul\":10400:10437   */\n      mstore\n        /* \"#utility.yul\":10215:10444   */\n      pop\n      jump\t// out\n        /* \"#utility.yul\":10450:10816   */\n    tag_174:\n        /* \"#utility.yul\":10592:10595   */\n      0x00\n        /* \"#utility.yul\":10613:10680   */\n      tag_301\n        /* \"#utility.yul\":10677:10679   */\n      0x2a\n        /* \"#utility.yul\":10672:10675   */\n      dup4\n        /* \"#utility.yul\":10613:10680   */\n      tag_164\n      jump\t// in\n    tag_301:\n        /* \"#utility.yul\":10606:10680   */\n      swap2\n      pop\n        /* \"#utility.yul\":10689:10782   */\n      tag_302\n        /* \"#utility.yul\":10778:10781   */\n      dup3\n        /* \"#utility.yul\":10689:10782   */\n      tag_173\n      jump\t// in\n    tag_302:\n        /* \"#utility.yul\":10807:10809   */\n      0x40\n        /* \"#utility.yul\":10802:10805   */\n      dup3\n        /* \"#utility.yul\":10798:10810   */\n      add\n        /* \"#utility.yul\":10791:10810   */\n      swap1\n      pop\n        /* \"#utility.yul\":10450:10816   */\n      swap2\n      swap1\n      pop\n      jump\t// out\n        /* \"#utility.yul\":10822:11241   */\n    tag_114:\n        /* \"#utility.yul\":10988:10992   */\n      0x00\n        /* \"#utility.yul\":11026:11028   */\n      0x20\n        /* \"#utility.yul\":11015:11024   */\n      dup3\n        /* \"#utility.yul\":11011:11029   */\n      add\n        /* \"#utility.yul\":11003:11029   */\n      swap1\n      pop\n        /* \"#utility.yul\":11075:11084   */\n      dup2\n        /* \"#utility.yul\":11069:11073   */\n      dup2\n        /* \"#utility.yul\":11065:11085   */\n      sub\n        /* \"#utility.yul\":11061:11062   */\n      0x00\n        /* \"#utility.yul\":11050:11059   */\n      dup4\n        /* \"#utility.yul\":11046:11063   */\n      add\n        /* \"#utility.yul\":11039:11086   */\n      mstore\n        /* \"#utility.yul\":11103:11234   */\n      tag_304\n        /* \"#utility.yul\":11229:11233   */\n      dup2\n        /* \"#utility.yul\":11103:11234   */\n      tag_174\n      jump\t// in\n    tag_304:\n        /* \"#utility.yul\":11095:11234   */\n      swap1\n      pop\n        /* \"#utility.yul\":10822:11241   */\n      swap2\n      swap1\n      pop\n      jump\t// out\n        /* \"#utility.yul\":11247:11472   */\n    tag_175:\n        /* \"#utility.yul\":11387:11421   */\n      0x416464726573733a20696e73756666696369656e742062616c616e636520666f\n        /* \"#utility.yul\":11383:11384   */\n      0x00\n        /* \"#utility.yul\":11375:11381   */\n      dup3\n        /* \"#utility.yul\":11371:11385   */\n      add\n        /* \"#utility.yul\":11364:11422   */\n      mstore\n        /* \"#utility.yul\":11456:11464   */\n      0x722063616c6c0000000000000000000000000000000000000000000000000000\n        /* \"#utility.yul\":11451:11453   */\n      0x20\n        /* \"#utility.yul\":11443:11449   */\n      dup3\n        /* \"#utility.yul\":11439:11454   */\n      add\n        /* \"#utility.yul\":11432:11465   */\n      mstore\n        /* \"#utility.yul\":11247:11472   */\n      pop\n      jump\t// out\n        /* \"#utility.yul\":11478:11844   */\n    tag_176:\n        /* \"#utility.yul\":11620:11623   */\n      0x00\n        /* \"#utility.yul\":11641:11708   */\n      tag_307\n        /* \"#utility.yul\":11705:11707   */\n      0x26\n        /* \"#utility.yul\":11700:11703   */\n      dup4\n        /* \"#utility.yul\":11641:11708   */\n      tag_164\n      jump\t// in\n    tag_307:\n        /* \"#utility.yul\":11634:11708   */\n      swap2\n      pop\n        /* \"#utility.yul\":11717:11810   */\n      tag_308\n        /* \"#utility.yul\":11806:11809   */\n      dup3\n        /* \"#utility.yul\":11717:11810   */\n      tag_175\n      jump\t// in\n    tag_308:\n        /* \"#utility.yul\":11835:11837   */\n      0x40\n        /* \"#utility.yul\":11830:11833   */\n      dup3\n        /* \"#utility.yul\":11826:11838   */\n      add\n        /* \"#utility.yul\":11819:11838   */\n      swap1\n      pop\n        /* \"#utility.yul\":11478:11844   */\n      swap2\n      swap1\n      pop\n      jump\t// out\n        /* \"#utility.yul\":11850:12269   */\n    tag_121:\n        /* \"#utility.yul\":12016:12020   */\n      0x00\n        /* \"#utility.yul\":12054:12056   */\n      0x20\n        /* \"#utility.yul\":12043:12052   */\n      dup3\n        /* \"#utility.yul\":12039:12057   */\n      add\n        /* \"#utility.yul\":12031:12057   */\n      swap1\n      pop\n        /* \"#utility.yul\":12103:12112   */\n      dup2\n        /* \"#utility.yul\":12097:12101   */\n      dup2\n        /* \"#utility.yul\":12093:12113   */\n      sub\n        /* \"#utility.yul\":12089:12090   */\n      0x00\n        /* \"#utility.yul\":12078:12087   */\n      dup4\n        /* \"#utility.yul\":12074:12091   */\n      add\n        /* \"#utility.yul\":12067:12114   */\n      mstore\n        /* \"#utility.yul\":12131:12262   */\n      tag_310\n        /* \"#utility.yul\":12257:12261   */\n      dup2\n        /* \"#utility.yul\":12131:12262   */\n      tag_176\n      jump\t// in\n    tag_310:\n        /* \"#utility.yul\":12123:12262   */\n      swap1\n      pop\n        /* \"#utility.yul\":11850:12269   */\n      swap2\n      swap1\n      pop\n      jump\t// out\n        /* \"#utility.yul\":12275:12454   */\n    tag_177:\n        /* \"#utility.yul\":12415:12446   */\n      0x416464726573733a2063616c6c20746f206e6f6e2d636f6e7472616374000000\n        /* \"#utility.yul\":12411:12412   */\n      0x00\n        /* \"#utility.yul\":12403:12409   */\n      dup3\n        /* \"#utility.yul\":12399:12413   */\n      add\n        /* \"#utility.yul\":12392:12447   */\n      mstore\n        /* \"#utility.yul\":12275:12454   */\n      pop\n      jump\t// out\n        /* \"#utility.yul\":12460:12826   */\n    tag_178:\n        /* \"#utility.yul\":12602:12605   */\n      0x00\n        /* \"#utility.yul\":12623:12690   */\n      tag_313\n        /* \"#utility.yul\":12687:12689   */\n      0x1d\n        /* \"#utility.yul\":12682:12685   */\n      dup4\n        /* \"#utility.yul\":12623:12690   */\n      tag_164\n      jump\t// in\n    tag_313:\n        /* \"#utility.yul\":12616:12690   */\n      swap2\n      pop\n        /* \"#utility.yul\":12699:12792   */\n      tag_314\n        /* \"#utility.yul\":12788:12791   */\n      dup3\n        /* \"#utility.yul\":12699:12792   */\n      tag_177\n      jump\t// in\n    tag_314:\n        /* \"#utility.yul\":12817:12819   */\n      0x20\n        /* \"#utility.yul\":12812:12815   */\n      dup3\n        /* \"#utility.yul\":12808:12820   */\n      add\n        /* \"#utility.yul\":12801:12820   */\n      swap1\n      pop\n        /* \"#utility.yul\":12460:12826   */\n      swap2\n      swap1\n      pop\n      jump\t// out\n        /* \"#utility.yul\":12832:13251   */\n    tag_126:\n        /* \"#utility.yul\":12998:13002   */\n      0x00\n        /* \"#utility.yul\":13036:13038   */\n      0x20\n        /* \"#utility.yul\":13025:13034   */\n      dup3\n        /* \"#utility.yul\":13021:13039   */\n      add\n        /* \"#utility.yul\":13013:13039   */\n      swap1\n      pop\n        /* \"#utility.yul\":13085:13094   */\n      dup2\n        /* \"#utility.yul\":13079:13083   */\n      dup2\n        /* \"#utility.yul\":13075:13095   */\n      sub\n        /* \"#utility.yul\":13071:13072   */\n      0x00\n        /* \"#utility.yul\":13060:13069   */\n      dup4\n        /* \"#utility.yul\":13056:13073   */\n      add\n        /* \"#utility.yul\":13049:13096   */\n      mstore\n        /* \"#utility.yul\":13113:13244   */\n      tag_316\n        /* \"#utility.yul\":13239:13243   */\n      dup2\n        /* \"#utility.yul\":13113:13244   */\n      tag_178\n      jump\t// in\n    tag_316:\n        /* \"#utility.yul\":13105:13244   */\n      swap1\n      pop\n        /* \"#utility.yul\":12832:13251   */\n      swap2\n      swap1\n      pop\n      jump\t// out\n        /* \"#utility.yul\":13257:13355   */\n    tag_179:\n        /* \"#utility.yul\":13308:13314   */\n      0x00\n        /* \"#utility.yul\":13342:13347   */\n      dup2\n        /* \"#utility.yul\":13336:13348   */\n      mload\n        /* \"#utility.yul\":13326:13348   */\n      swap1\n      pop\n        /* \"#utility.yul\":13257:13355   */\n      swap2\n      swap1\n      pop\n      jump\t// out\n        /* \"#utility.yul\":13361:13508   */\n    tag_180:\n        /* \"#utility.yul\":13462:13473   */\n      0x00\n        /* \"#utility.yul\":13499:13502   */\n      dup2\n        /* \"#utility.yul\":13484:13502   */\n      swap1\n      pop\n        /* \"#utility.yul\":13361:13508   */\n      swap3\n      swap2\n      pop\n      pop\n      jump\t// out\n        /* \"#utility.yul\":13514:13760   */\n    tag_181:\n        /* \"#utility.yul\":13595:13596   */\n      0x00\n        /* \"#utility.yul\":13605:13718   */\n    tag_320:\n        /* \"#utility.yul\":13619:13625   */\n      dup4\n        /* \"#utility.yul\":13616:13617   */\n      dup2\n        /* \"#utility.yul\":13613:13626   */\n      lt\n        /* \"#utility.yul\":13605:13718   */\n      iszero\n      tag_322\n      jumpi\n        /* \"#utility.yul\":13704:13705   */\n      dup1\n        /* \"#utility.yul\":13699:13702   */\n      dup3\n        /* \"#utility.yul\":13695:13706   */\n      add\n        /* \"#utility.yul\":13689:13707   */\n      mload\n        /* \"#utility.yul\":13685:13686   */\n      dup2\n        /* \"#utility.yul\":13680:13683   */\n      dup5\n        /* \"#utility.yul\":13676:13687   */\n      add\n        /* \"#utility.yul\":13669:13708   */\n      mstore\n        /* \"#utility.yul\":13641:13643   */\n      0x20\n        /* \"#utility.yul\":13638:13639   */\n      dup2\n        /* \"#utility.yul\":13634:13644   */\n      add\n        /* \"#utility.yul\":13629:13644   */\n      swap1\n      pop\n        /* \"#utility.yul\":13605:13718   */\n      jump(tag_320)\n    tag_322:\n        /* \"#utility.yul\":13752:13753   */\n      0x00\n        /* \"#utility.yul\":13743:13749   */\n      dup5\n        /* \"#utility.yul\":13738:13741   */\n      dup5\n        /* \"#utility.yul\":13734:13750   */\n      add\n        /* \"#utility.yul\":13727:13754   */\n      mstore\n        /* \"#utility.yul\":13576:13760   */\n      pop\n        /* \"#utility.yul\":13514:13760   */\n      pop\n      pop\n      pop\n      jump\t// out\n        /* \"#utility.yul\":13766:14152   */\n    tag_182:\n        /* \"#utility.yul\":13870:13873   */\n      0x00\n        /* \"#utility.yul\":13898:13936   */\n      tag_324\n        /* \"#utility.yul\":13930:13935   */\n      dup3\n        /* \"#utility.yul\":13898:13936   */\n      tag_179\n      jump\t// in\n    tag_324:\n        /* \"#utility.yul\":13952:14040   */\n      tag_325\n        /* \"#utility.yul\":14033:14039   */\n      dup2\n        /* \"#utility.yul\":14028:14031   */\n      dup6\n        /* \"#utility.yul\":13952:14040   */\n      tag_180\n      jump\t// in\n    tag_325:\n        /* \"#utility.yul\":13945:14040   */\n      swap4\n      pop\n        /* \"#utility.yul\":14049:14114   */\n      tag_326\n        /* \"#utility.yul\":14107:14113   */\n      dup2\n        /* \"#utility.yul\":14102:14105   */\n      dup6\n        /* \"#utility.yul\":14095:14099   */\n      0x20\n        /* \"#utility.yul\":14088:14093   */\n      dup7\n        /* \"#utility.yul\":14084:14100   */\n      add\n        /* \"#utility.yul\":14049:14114   */\n      tag_181\n      jump\t// in\n    tag_326:\n        /* \"#utility.yul\":14139:14145   */\n      dup1\n        /* \"#utility.yul\":14134:14137   */\n      dup5\n        /* \"#utility.yul\":14130:14146   */\n      add\n        /* \"#utility.yul\":14123:14146   */\n      swap2\n      pop\n        /* \"#utility.yul\":13874:14152   */\n      pop\n        /* \"#utility.yul\":13766:14152   */\n      swap3\n      swap2\n      pop\n      pop\n      jump\t// out\n        /* \"#utility.yul\":14158:14429   */\n    tag_128:\n        /* \"#utility.yul\":14288:14291   */\n      0x00\n        /* \"#utility.yul\":14310:14403   */\n      tag_328\n        /* \"#utility.yul\":14399:14402   */\n      dup3\n        /* \"#utility.yul\":14390:14396   */\n      dup5\n        /* \"#utility.yul\":14310:14403   */\n      tag_182\n      jump\t// in\n    tag_328:\n        /* \"#utility.yul\":14303:14403   */\n      swap2\n      pop\n        /* \"#utility.yul\":14420:14423   */\n      dup2\n        /* \"#utility.yul\":14413:14423   */\n      swap1\n      pop\n        /* \"#utility.yul\":14158:14429   */\n      swap3\n      swap2\n      pop\n      pop\n      jump\t// out\n        /* \"#utility.yul\":14435:14534   */\n    tag_183:\n        /* \"#utility.yul\":14487:14493   */\n      0x00\n        /* \"#utility.yul\":14521:14526   */\n      dup2\n        /* \"#utility.yul\":14515:14527   */\n      mload\n        /* \"#utility.yul\":14505:14527   */\n      swap1\n      pop\n        /* \"#utility.yul\":14435:14534   */\n      swap2\n      swap1\n      pop\n      jump\t// out\n        /* \"#utility.yul\":14540:14642   */\n    tag_184:\n        /* \"#utility.yul\":14581:14587   */\n      0x00\n        /* \"#utility.yul\":14632:14634   */\n      0x1f\n        /* \"#utility.yul\":14628:14635   */\n      not\n        /* \"#utility.yul\":14623:14625   */\n      0x1f\n        /* \"#utility.yul\":14616:14621   */\n      dup4\n        /* \"#utility.yul\":14612:14626   */\n      add\n        /* \"#utility.yul\":14608:14636   */\n      and\n        /* \"#utility.yul\":14598:14636   */\n      swap1\n      pop\n        /* \"#utility.yul\":14540:14642   */\n      swap2\n      swap1\n      pop\n      jump\t// out\n        /* \"#utility.yul\":14648:15025   */\n    tag_185:\n        /* \"#utility.yul\":14736:14739   */\n      0x00\n        /* \"#utility.yul\":14764:14803   */\n      tag_332\n        /* \"#utility.yul\":14797:14802   */\n      dup3\n        /* \"#utility.yul\":14764:14803   */\n      tag_183\n      jump\t// in\n    tag_332:\n        /* \"#utility.yul\":14819:14890   */\n      tag_333\n        /* \"#utility.yul\":14883:14889   */\n      dup2\n        /* \"#utility.yul\":14878:14881   */\n      dup6\n        /* \"#utility.yul\":14819:14890   */\n      tag_164\n      jump\t// in\n    tag_333:\n        /* \"#utility.yul\":14812:14890   */\n      swap4\n      pop\n        /* \"#utility.yul\":14899:14964   */\n      tag_334\n        /* \"#utility.yul\":14957:14963   */\n      dup2\n        /* \"#utility.yul\":14952:14955   */\n      dup6\n        /* \"#utility.yul\":14945:14949   */\n      0x20\n        /* \"#utility.yul\":14938:14943   */\n      dup7\n        /* \"#utility.yul\":14934:14950   */\n      add\n        /* \"#utility.yul\":14899:14964   */\n      tag_181\n      jump\t// in\n    tag_334:\n        /* \"#utility.yul\":14989:15018   */\n      tag_335\n        /* \"#utility.yul\":15011:15017   */\n      dup2\n        /* \"#utility.yul\":14989:15018   */\n      tag_184\n      jump\t// in\n    tag_335:\n        /* \"#utility.yul\":14984:14987   */\n      dup5\n        /* \"#utility.yul\":14980:15019   */\n      add\n        /* \"#utility.yul\":14973:15019   */\n      swap2\n      pop\n        /* \"#utility.yul\":14740:15025   */\n      pop\n        /* \"#utility.yul\":14648:15025   */\n      swap3\n      swap2\n      pop\n      pop\n      jump\t// out\n        /* \"#utility.yul\":15031:15344   */\n    tag_141:\n        /* \"#utility.yul\":15144:15148   */\n      0x00\n        /* \"#utility.yul\":15182:15184   */\n      0x20\n        /* \"#utility.yul\":15171:15180   */\n      dup3\n        /* \"#utility.yul\":15167:15185   */\n      add\n        /* \"#utility.yul\":15159:15185   */\n      swap1\n      pop\n        /* \"#utility.yul\":15231:15240   */\n      dup2\n        /* \"#utility.yul\":15225:15229   */\n      dup2\n        /* \"#utility.yul\":15221:15241   */\n      sub\n        /* \"#utility.yul\":15217:15218   */\n      0x00\n        /* \"#utility.yul\":15206:15215   */\n      dup4\n        /* \"#utility.yul\":15202:15219   */\n      add\n        /* \"#utility.yul\":15195:15242   */\n      mstore\n        /* \"#utility.yul\":15259:15337   */\n      tag_337\n        /* \"#utility.yul\":15332:15336   */\n      dup2\n        /* \"#utility.yul\":15323:15329   */\n      dup5\n        /* \"#utility.yul\":15259:15337   */\n      tag_185\n      jump\t// in\n    tag_337:\n        /* \"#utility.yul\":15251:15337   */\n      swap1\n      pop\n        /* \"#utility.yul\":15031:15344   */\n      swap3\n      swap2\n      pop\n      pop\n      jump\t// out\n\n    auxdata: 0xa26469706673582212208bfd5b7474788a82be145cb286e8dc1e52e713b843707b4d5076d82887986bbe64736f6c63430008110033\n}\n",
				"bytecode": {
					"linkReferences": {},
					"object": "60806040523480156200001157600080fd5b506040516200186438038062001864833981810160405281019062000037919062000442565b620000576200004b6200030c60201b60201c565b6200031460201b60201c565b81600260006101000a81548173ffffffffffffffffffffffffffffffffffffffff021916908373ffffffffffffffffffffffffffffffffffffffff16021790555080600160006101000a81548173ffffffffffffffffffffffffffffffffffffffff021916908373ffffffffffffffffffffffffffffffffffffffff160217905550620249f0600660007ff2bc62803c5d5b781e71b137d2085aa78cea06cc76ef4920380aba12522bcff9815260200190815260200160002060006101000a8154816fffffffffffffffffffffffffffffffff02191690836fffffffffffffffffffffffffffffffff160217905550620249f0600660007fca98bfd69a76cebc3cfdc13ba9619ee85b5756f131ca915c4eebc8ef2c631bba815260200190815260200160002060006101000a8154816fffffffffffffffffffffffffffffffff02191690836fffffffffffffffffffffffffffffffff160217905550620f4240600a620001c59190620004d4565b600660007f56017eb4b19e2dc7ac1209ff82f4b8a3c7347815c9f7aad6c80f6465c993d14b815260200190815260200160002060006101000a8154816fffffffffffffffffffffffffffffffff02191690836fffffffffffffffffffffffffffffffff1602179055506000600660007f1772ed10bde34d5919cbe159f3a6abaacb1616d8c7dedb130601afd99de8b6ca815260200190815260200160002060006101000a8154816fffffffffffffffffffffffffffffffff02191690836fffffffffffffffffffffffffffffffff1602179055506000600660007fdcb40a570d6498353a1742db752babb0f0d72dc3e61f9ddcc7be3944a0e89928815260200190815260200160002060006101000a8154816fffffffffffffffffffffffffffffffff02191690836fffffffffffffffffffffffffffffffff16021790555050506200051a565b600033905090565b60008060009054906101000a900473ffffffffffffffffffffffffffffffffffffffff169050816000806101000a81548173ffffffffffffffffffffffffffffffffffffffff021916908373ffffffffffffffffffffffffffffffffffffffff1602179055508173ffffffffffffffffffffffffffffffffffffffff168173ffffffffffffffffffffffffffffffffffffffff167f8be0079c531659141344cd1fd0a4f28419497f9722a3daafe3b4186f6b6457e060405160405180910390a35050565b600080fd5b600073ffffffffffffffffffffffffffffffffffffffff82169050919050565b60006200040a82620003dd565b9050919050565b6200041c81620003fd565b81146200042857600080fd5b50565b6000815190506200043c8162000411565b92915050565b600080604083850312156200045c576200045b620003d8565b5b60006200046c858286016200042b565b92505060206200047f858286016200042b565b9150509250929050565b60006fffffffffffffffffffffffffffffffff82169050919050565b7f4e487b7100000000000000000000000000000000000000000000000000000000600052601160045260246000fd5b6000620004e18262000489565b9150620004ee8362000489565b9250828202620004fe8162000489565b9150808214620005135762000512620004a5565b5b5092915050565b61133a806200052a6000396000f3fe608060405234801561001057600080fd5b506004361061009e5760003560e01c8063a8df999411610066578063a8df999414610125578063afc2b0a614610155578063c4b7de9714610173578063d585882314610191578063f2fde38b146101ad5761009e565b806324c8a328146100a35780634811040c146100c1578063715018a6146100df57806377ef50fb146100e95780638da5cb5b14610107575b600080fd5b6100ab6101c9565b6040516100b89190610aeb565b60405180910390f35b6100c96101dc565b6040516100d69190610aeb565b60405180910390f35b6100e76101e3565b005b6100f16101f7565b6040516100fe9190610aeb565b60405180910390f35b61010f61020a565b60405161011c9190610b47565b60405180910390f35b61013f600480360381019061013a9190610bd3565b610233565b60405161014c9190610c22565b60405180910390f35b61015d6102a2565b60405161016a9190610aeb565b60405180910390f35b61017b6102a9565b6040516101889190610c5e565b60405180910390f35b6101ab60048036038101906101a69190610cca565b6102cf565b005b6101c760048036038101906101c29190610d45565b6105b7565b005b620f4240603c6101d99190610da1565b81565b620f424081565b6101eb61063a565b6101f560006106b8565b565b620f4240600a6102079190610da1565b81565b60008060009054906101000a900473ffffffffffffffffffffffffffffffffffffffff16905090565b600061023d61063a565b60006006600085815260200190815260200160002060009054906101000a90046fffffffffffffffffffffffffffffffff16905060008390506000610282828461077c565b9050806fffffffffffffffffffffffffffffffff16935050505092915050565b620249f081565b600160009054906101000a900473ffffffffffffffffffffffffffffffffffffffff1681565b6102d761063a565b6001600460008373ffffffffffffffffffffffffffffffffffffffff1673ffffffffffffffffffffffffffffffffffffffff16815260200190815260200160002060008282546103279190610dde565b925050819055506000604051806060016040528087600481111561034e5761034d610e12565b5b8152602001604051806040016040528088815260200187815250815260200184815250905080600360008473ffffffffffffffffffffffffffffffffffffffff1673ffffffffffffffffffffffffffffffffffffffff1681526020019081526020016000206000600460008673ffffffffffffffffffffffffffffffffffffffff1673ffffffffffffffffffffffffffffffffffffffff16815260200190815260200160002054815260200190815260200160002060008201518160000160006101000a81548160ff0219169083600481111561042e5761042d610e12565b5b0217905550602082015181600101600082015181600001556020820151816001015550506040820151816003015590505082600560008473ffffffffffffffffffffffffffffffffffffffff1673ffffffffffffffffffffffffffffffffffffffff16815260200190815260200160002060008282546104ae9190610dde565b9250508190555061052682600160009054906101000a900473ffffffffffffffffffffffffffffffffffffffff1685600260009054906101000a900473ffffffffffffffffffffffffffffffffffffffff1673ffffffffffffffffffffffffffffffffffffffff166107b2909392919063ffffffff16565b600160009054906101000a900473ffffffffffffffffffffffffffffffffffffffff1673ffffffffffffffffffffffffffffffffffffffff168273ffffffffffffffffffffffffffffffffffffffff167f205442d60b70af1203d43cab62352c3b69b94f091be32fe683198057282b5c9287866040516105a7929190610e41565b60405180910390a3505050505050565b6105bf61063a565b600073ffffffffffffffffffffffffffffffffffffffff168173ffffffffffffffffffffffffffffffffffffffff160361062e576040517f08c379a000000000000000000000000000000000000000000000000000000000815260040161062590610eed565b60405180910390fd5b610637816106b8565b50565b61064261083b565b73ffffffffffffffffffffffffffffffffffffffff1661066061020a565b73ffffffffffffffffffffffffffffffffffffffff16146106b6576040517f08c379a00000000000000000000000000000000000000000000000000000000081526004016106ad90610f59565b60405180910390fd5b565b60008060009054906101000a900473ffffffffffffffffffffffffffffffffffffffff169050816000806101000a81548173ffffffffffffffffffffffffffffffffffffffff021916908373ffffffffffffffffffffffffffffffffffffffff1602179055508173ffffffffffffffffffffffffffffffffffffffff168173ffffffffffffffffffffffffffffffffffffffff167f8be0079c531659141344cd1fd0a4f28419497f9722a3daafe3b4186f6b6457e060405160405180910390a35050565b6000620f4240828461078e9190610da1565b6107989190610fa8565b6fffffffffffffffffffffffffffffffff16905092915050565b610835846323b872dd60e01b8585856040516024016107d393929190610fd9565b604051602081830303815290604052907bffffffffffffffffffffffffffffffffffffffffffffffffffffffff19166020820180517bffffffffffffffffffffffffffffffffffffffffffffffffffffffff8381831617835250505050610843565b50505050565b600033905090565b60006108a5826040518060400160405280602081526020017f5361666545524332303a206c6f772d6c6576656c2063616c6c206661696c65648152508573ffffffffffffffffffffffffffffffffffffffff1661090a9092919063ffffffff16565b905060008151111561090557808060200190518101906108c59190611048565b610904576040517f08c379a00000000000000000000000000000000000000000000000000000000081526004016108fb906110e7565b60405180910390fd5b5b505050565b60606109198484600085610922565b90509392505050565b606082471015610967576040517f08c379a000000000000000000000000000000000000000000000000000000000815260040161095e90611179565b60405180910390fd5b61097085610a36565b6109af576040517f08c379a00000000000000000000000000000000000000000000000000000000081526004016109a6906111e5565b60405180910390fd5b6000808673ffffffffffffffffffffffffffffffffffffffff1685876040516109d89190611276565b60006040518083038185875af1925050503d8060008114610a15576040519150601f19603f3d011682016040523d82523d6000602084013e610a1a565b606091505b5091509150610a2a828286610a59565b92505050949350505050565b6000808273ffffffffffffffffffffffffffffffffffffffff163b119050919050565b60608315610a6957829050610ab9565b600083511115610a7c5782518084602001fd5b816040517f08c379a0000000000000000000000000000000000000000000000000000000008152600401610ab091906112e2565b60405180910390fd5b9392505050565b60006fffffffffffffffffffffffffffffffff82169050919050565b610ae581610ac0565b82525050565b6000602082019050610b006000830184610adc565b92915050565b600073ffffffffffffffffffffffffffffffffffffffff82169050919050565b6000610b3182610b06565b9050919050565b610b4181610b26565b82525050565b6000602082019050610b5c6000830184610b38565b92915050565b600080fd5b6000819050919050565b610b7a81610b67565b8114610b8557600080fd5b50565b600081359050610b9781610b71565b92915050565b6000819050919050565b610bb081610b9d565b8114610bbb57600080fd5b50565b600081359050610bcd81610ba7565b92915050565b60008060408385031215610bea57610be9610b62565b5b6000610bf885828601610b88565b9250506020610c0985828601610bbe565b9150509250929050565b610c1c81610b9d565b82525050565b6000602082019050610c376000830184610c13565b92915050565b6000610c4882610b06565b9050919050565b610c5881610c3d565b82525050565b6000602082019050610c736000830184610c4f565b92915050565b60058110610c8657600080fd5b50565b600081359050610c9881610c79565b92915050565b610ca781610b26565b8114610cb257600080fd5b50565b600081359050610cc481610c9e565b92915050565b600080600080600060a08688031215610ce657610ce5610b62565b5b6000610cf488828901610c89565b9550506020610d0588828901610bbe565b9450506040610d1688828901610bbe565b9350506060610d2788828901610bbe565b9250506080610d3888828901610cb5565b9150509295509295909350565b600060208284031215610d5b57610d5a610b62565b5b6000610d6984828501610cb5565b91505092915050565b7f4e487b7100000000000000000000000000000000000000000000000000000000600052601160045260246000fd5b6000610dac82610ac0565b9150610db783610ac0565b9250828202610dc581610ac0565b9150808214610dd757610dd6610d72565b5b5092915050565b6000610de982610b9d565b9150610df483610b9d565b9250828201905080821115610e0c57610e0b610d72565b5b92915050565b7f4e487b7100000000000000000000000000000000000000000000000000000000600052602160045260246000fd5b6000604082019050610e566000830185610c13565b610e636020830184610c13565b9392505050565b600082825260208201905092915050565b7f4f776e61626c653a206e6577206f776e657220697320746865207a65726f206160008201527f6464726573730000000000000000000000000000000000000000000000000000602082015250565b6000610ed7602683610e6a565b9150610ee282610e7b565b604082019050919050565b60006020820190508181036000830152610f0681610eca565b9050919050565b7f4f776e61626c653a2063616c6c6572206973206e6f7420746865206f776e6572600082015250565b6000610f43602083610e6a565b9150610f4e82610f0d565b602082019050919050565b60006020820190508181036000830152610f7281610f36565b9050919050565b7f4e487b7100000000000000000000000000000000000000000000000000000000600052601260045260246000fd5b6000610fb382610ac0565b9150610fbe83610ac0565b925082610fce57610fcd610f79565b5b828204905092915050565b6000606082019050610fee6000830186610b38565b610ffb6020830185610b38565b6110086040830184610c13565b949350505050565b60008115159050919050565b61102581611010565b811461103057600080fd5b50565b6000815190506110428161101c565b92915050565b60006020828403121561105e5761105d610b62565b5b600061106c84828501611033565b91505092915050565b7f5361666545524332303a204552433230206f7065726174696f6e20646964206e60008201527f6f74207375636365656400000000000000000000000000000000000000000000602082015250565b60006110d1602a83610e6a565b91506110dc82611075565b604082019050919050565b60006020820190508181036000830152611100816110c4565b9050919050565b7f416464726573733a20696e73756666696369656e742062616c616e636520666f60008201527f722063616c6c0000000000000000000000000000000000000000000000000000602082015250565b6000611163602683610e6a565b915061116e82611107565b604082019050919050565b6000602082019050818103600083015261119281611156565b9050919050565b7f416464726573733a2063616c6c20746f206e6f6e2d636f6e7472616374000000600082015250565b60006111cf601d83610e6a565b91506111da82611199565b602082019050919050565b600060208201905081810360008301526111fe816111c2565b9050919050565b600081519050919050565b600081905092915050565b60005b8381101561123957808201518184015260208101905061121e565b60008484015250505050565b600061125082611205565b61125a8185611210565b935061126a81856020860161121b565b80840191505092915050565b60006112828284611245565b915081905092915050565b600081519050919050565b6000601f19601f8301169050919050565b60006112b48261128d565b6112be8185610e6a565b93506112ce81856020860161121b565b6112d781611298565b840191505092915050565b600060208201905081810360008301526112fc81846112a9565b90509291505056fea26469706673582212208bfd5b7474788a82be145cb286e8dc1e52e713b843707b4d5076d82887986bbe64736f6c63430008110033",
					"opcodes": "PUSH1 0x80 PUSH1 0x40 MSTORE CALLVALUE DUP1 ISZERO PUSH3 0x11 JUMPI PUSH1 0x0 DUP1 REVERT JUMPDEST POP PUSH1 0x40 MLOAD PUSH3 0x1864 CODESIZE SUB DUP1 PUSH3 0x1864 DUP4 CODECOPY DUP2 DUP2 ADD PUSH1 0x40 MSTORE DUP2 ADD SWAP1 PUSH3 0x37 SWAP2 SWAP1 PUSH3 0x442 JUMP JUMPDEST PUSH3 0x57 PUSH3 0x4B PUSH3 0x30C PUSH1 0x20 SHL PUSH1 0x20 SHR JUMP JUMPDEST PUSH3 0x314 PUSH1 0x20 SHL PUSH1 0x20 SHR JUMP JUMPDEST DUP2 PUSH1 0x2 PUSH1 0x0 PUSH2 0x100 EXP DUP2 SLOAD DUP2 PUSH20 0xFFFFFFFFFFFFFFFFFFFFFFFFFFFFFFFFFFFFFFFF MUL NOT AND SWAP1 DUP4 PUSH20 0xFFFFFFFFFFFFFFFFFFFFFFFFFFFFFFFFFFFFFFFF AND MUL OR SWAP1 SSTORE POP DUP1 PUSH1 0x1 PUSH1 0x0 PUSH2 0x100 EXP DUP2 SLOAD DUP2 PUSH20 0xFFFFFFFFFFFFFFFFFFFFFFFFFFFFFFFFFFFFFFFF MUL NOT AND SWAP1 DUP4 PUSH20 0xFFFFFFFFFFFFFFFFFFFFFFFFFFFFFFFFFFFFFFFF AND MUL OR SWAP1 SSTORE POP PUSH3 0x249F0 PUSH1 0x6 PUSH1 0x0 PUSH32 0xF2BC62803C5D5B781E71B137D2085AA78CEA06CC76EF4920380ABA12522BCFF9 DUP2 MSTORE PUSH1 0x20 ADD SWAP1 DUP2 MSTORE PUSH1 0x20 ADD PUSH1 0x0 KECCAK256 PUSH1 0x0 PUSH2 0x100 EXP DUP2 SLOAD DUP2 PUSH16 0xFFFFFFFFFFFFFFFFFFFFFFFFFFFFFFFF MUL NOT AND SWAP1 DUP4 PUSH16 0xFFFFFFFFFFFFFFFFFFFFFFFFFFFFFFFF AND MUL OR SWAP1 SSTORE POP PUSH3 0x249F0 PUSH1 0x6 PUSH1 0x0 PUSH32 0xCA98BFD69A76CEBC3CFDC13BA9619EE85B5756F131CA915C4EEBC8EF2C631BBA DUP2 MSTORE PUSH1 0x20 ADD SWAP1 DUP2 MSTORE PUSH1 0x20 ADD PUSH1 0x0 KECCAK256 PUSH1 0x0 PUSH2 0x100 EXP DUP2 SLOAD DUP2 PUSH16 0xFFFFFFFFFFFFFFFFFFFFFFFFFFFFFFFF MUL NOT AND SWAP1 DUP4 PUSH16 0xFFFFFFFFFFFFFFFFFFFFFFFFFFFFFFFF AND MUL OR SWAP1 SSTORE POP PUSH3 0xF4240 PUSH1 0xA PUSH3 0x1C5 SWAP2 SWAP1 PUSH3 0x4D4 JUMP JUMPDEST PUSH1 0x6 PUSH1 0x0 PUSH32 0x56017EB4B19E2DC7AC1209FF82F4B8A3C7347815C9F7AAD6C80F6465C993D14B DUP2 MSTORE PUSH1 0x20 ADD SWAP1 DUP2 MSTORE PUSH1 0x20 ADD PUSH1 0x0 KECCAK256 PUSH1 0x0 PUSH2 0x100 EXP DUP2 SLOAD DUP2 PUSH16 0xFFFFFFFFFFFFFFFFFFFFFFFFFFFFFFFF MUL NOT AND SWAP1 DUP4 PUSH16 0xFFFFFFFFFFFFFFFFFFFFFFFFFFFFFFFF AND MUL OR SWAP1 SSTORE POP PUSH1 0x0 PUSH1 0x6 PUSH1 0x0 PUSH32 0x1772ED10BDE34D5919CBE159F3A6ABAACB1616D8C7DEDB130601AFD99DE8B6CA DUP2 MSTORE PUSH1 0x20 ADD SWAP1 DUP2 MSTORE PUSH1 0x20 ADD PUSH1 0x0 KECCAK256 PUSH1 0x0 PUSH2 0x100 EXP DUP2 SLOAD DUP2 PUSH16 0xFFFFFFFFFFFFFFFFFFFFFFFFFFFFFFFF MUL NOT AND SWAP1 DUP4 PUSH16 0xFFFFFFFFFFFFFFFFFFFFFFFFFFFFFFFF AND MUL OR SWAP1 SSTORE POP PUSH1 0x0 PUSH1 0x6 PUSH1 0x0 PUSH32 0xDCB40A570D6498353A1742DB752BABB0F0D72DC3E61F9DDCC7BE3944A0E89928 DUP2 MSTORE PUSH1 0x20 ADD SWAP1 DUP2 MSTORE PUSH1 0x20 ADD PUSH1 0x0 KECCAK256 PUSH1 0x0 PUSH2 0x100 EXP DUP2 SLOAD DUP2 PUSH16 0xFFFFFFFFFFFFFFFFFFFFFFFFFFFFFFFF MUL NOT AND SWAP1 DUP4 PUSH16 0xFFFFFFFFFFFFFFFFFFFFFFFFFFFFFFFF AND MUL OR SWAP1 SSTORE POP POP POP PUSH3 0x51A JUMP JUMPDEST PUSH1 0x0 CALLER SWAP1 POP SWAP1 JUMP JUMPDEST PUSH1 0x0 DUP1 PUSH1 0x0 SWAP1 SLOAD SWAP1 PUSH2 0x100 EXP SWAP1 DIV PUSH20 0xFFFFFFFFFFFFFFFFFFFFFFFFFFFFFFFFFFFFFFFF AND SWAP1 POP DUP2 PUSH1 0x0 DUP1 PUSH2 0x100 EXP DUP2 SLOAD DUP2 PUSH20 0xFFFFFFFFFFFFFFFFFFFFFFFFFFFFFFFFFFFFFFFF MUL NOT AND SWAP1 DUP4 PUSH20 0xFFFFFFFFFFFFFFFFFFFFFFFFFFFFFFFFFFFFFFFF AND MUL OR SWAP1 SSTORE POP DUP2 PUSH20 0xFFFFFFFFFFFFFFFFFFFFFFFFFFFFFFFFFFFFFFFF AND DUP2 PUSH20 0xFFFFFFFFFFFFFFFFFFFFFFFFFFFFFFFFFFFFFFFF AND PUSH32 0x8BE0079C531659141344CD1FD0A4F28419497F9722A3DAAFE3B4186F6B6457E0 PUSH1 0x40 MLOAD PUSH1 0x40 MLOAD DUP1 SWAP2 SUB SWAP1 LOG3 POP POP JUMP JUMPDEST PUSH1 0x0 DUP1 REVERT JUMPDEST PUSH1 0x0 PUSH20 0xFFFFFFFFFFFFFFFFFFFFFFFFFFFFFFFFFFFFFFFF DUP3 AND SWAP1 POP SWAP2 SWAP1 POP JUMP JUMPDEST PUSH1 0x0 PUSH3 0x40A DUP3 PUSH3 0x3DD JUMP JUMPDEST SWAP1 POP SWAP2 SWAP1 POP JUMP JUMPDEST PUSH3 0x41C DUP2 PUSH3 0x3FD JUMP JUMPDEST DUP2 EQ PUSH3 0x428 JUMPI PUSH1 0x0 DUP1 REVERT JUMPDEST POP JUMP JUMPDEST PUSH1 0x0 DUP2 MLOAD SWAP1 POP PUSH3 0x43C DUP2 PUSH3 0x411 JUMP JUMPDEST SWAP3 SWAP2 POP POP JUMP JUMPDEST PUSH1 0x0 DUP1 PUSH1 0x40 DUP4 DUP6 SUB SLT ISZERO PUSH3 0x45C JUMPI PUSH3 0x45B PUSH3 0x3D8 JUMP JUMPDEST JUMPDEST PUSH1 0x0 PUSH3 0x46C DUP6 DUP3 DUP7 ADD PUSH3 0x42B JUMP JUMPDEST SWAP3 POP POP PUSH1 0x20 PUSH3 0x47F DUP6 DUP3 DUP7 ADD PUSH3 0x42B JUMP JUMPDEST SWAP2 POP POP SWAP3 POP SWAP3 SWAP1 POP JUMP JUMPDEST PUSH1 0x0 PUSH16 0xFFFFFFFFFFFFFFFFFFFFFFFFFFFFFFFF DUP3 AND SWAP1 POP SWAP2 SWAP1 POP JUMP JUMPDEST PUSH32 0x4E487B7100000000000000000000000000000000000000000000000000000000 PUSH1 0x0 MSTORE PUSH1 0x11 PUSH1 0x4 MSTORE PUSH1 0x24 PUSH1 0x0 REVERT JUMPDEST PUSH1 0x0 PUSH3 0x4E1 DUP3 PUSH3 0x489 JUMP JUMPDEST SWAP2 POP PUSH3 0x4EE DUP4 PUSH3 0x489 JUMP JUMPDEST SWAP3 POP DUP3 DUP3 MUL PUSH3 0x4FE DUP2 PUSH3 0x489 JUMP JUMPDEST SWAP2 POP DUP1 DUP3 EQ PUSH3 0x513 JUMPI PUSH3 0x512 PUSH3 0x4A5 JUMP JUMPDEST JUMPDEST POP SWAP3 SWAP2 POP POP JUMP JUMPDEST PUSH2 0x133A DUP1 PUSH3 0x52A PUSH1 0x0 CODECOPY PUSH1 0x0 RETURN INVALID PUSH1 0x80 PUSH1 0x40 MSTORE CALLVALUE DUP1 ISZERO PUSH2 0x10 JUMPI PUSH1 0x0 DUP1 REVERT JUMPDEST POP PUSH1 0x4 CALLDATASIZE LT PUSH2 0x9E JUMPI PUSH1 0x0 CALLDATALOAD PUSH1 0xE0 SHR DUP1 PUSH4 0xA8DF9994 GT PUSH2 0x66 JUMPI DUP1 PUSH4 0xA8DF9994 EQ PUSH2 0x125 JUMPI DUP1 PUSH4 0xAFC2B0A6 EQ PUSH2 0x155 JUMPI DUP1 PUSH4 0xC4B7DE97 EQ PUSH2 0x173 JUMPI DUP1 PUSH4 0xD5858823 EQ PUSH2 0x191 JUMPI DUP1 PUSH4 0xF2FDE38B EQ PUSH2 0x1AD JUMPI PUSH2 0x9E JUMP JUMPDEST DUP1 PUSH4 0x24C8A328 EQ PUSH2 0xA3 JUMPI DUP1 PUSH4 0x4811040C EQ PUSH2 0xC1 JUMPI DUP1 PUSH4 0x715018A6 EQ PUSH2 0xDF JUMPI DUP1 PUSH4 0x77EF50FB EQ PUSH2 0xE9 JUMPI DUP1 PUSH4 0x8DA5CB5B EQ PUSH2 0x107 JUMPI JUMPDEST PUSH1 0x0 DUP1 REVERT JUMPDEST PUSH2 0xAB PUSH2 0x1C9 JUMP JUMPDEST PUSH1 0x40 MLOAD PUSH2 0xB8 SWAP2 SWAP1 PUSH2 0xAEB JUMP JUMPDEST PUSH1 0x40 MLOAD DUP1 SWAP2 SUB SWAP1 RETURN JUMPDEST PUSH2 0xC9 PUSH2 0x1DC JUMP JUMPDEST PUSH1 0x40 MLOAD PUSH2 0xD6 SWAP2 SWAP1 PUSH2 0xAEB JUMP JUMPDEST PUSH1 0x40 MLOAD DUP1 SWAP2 SUB SWAP1 RETURN JUMPDEST PUSH2 0xE7 PUSH2 0x1E3 JUMP JUMPDEST STOP JUMPDEST PUSH2 0xF1 PUSH2 0x1F7 JUMP JUMPDEST PUSH1 0x40 MLOAD PUSH2 0xFE SWAP2 SWAP1 PUSH2 0xAEB JUMP JUMPDEST PUSH1 0x40 MLOAD DUP1 SWAP2 SUB SWAP1 RETURN JUMPDEST PUSH2 0x10F PUSH2 0x20A JUMP JUMPDEST PUSH1 0x40 MLOAD PUSH2 0x11C SWAP2 SWAP1 PUSH2 0xB47 JUMP JUMPDEST PUSH1 0x40 MLOAD DUP1 SWAP2 SUB SWAP1 RETURN JUMPDEST PUSH2 0x13F PUSH1 0x4 DUP1 CALLDATASIZE SUB DUP2 ADD SWAP1 PUSH2 0x13A SWAP2 SWAP1 PUSH2 0xBD3 JUMP JUMPDEST PUSH2 0x233 JUMP JUMPDEST PUSH1 0x40 MLOAD PUSH2 0x14C SWAP2 SWAP1 PUSH2 0xC22 JUMP JUMPDEST PUSH1 0x40 MLOAD DUP1 SWAP2 SUB SWAP1 RETURN JUMPDEST PUSH2 0x15D PUSH2 0x2A2 JUMP JUMPDEST PUSH1 0x40 MLOAD PUSH2 0x16A SWAP2 SWAP1 PUSH2 0xAEB JUMP JUMPDEST PUSH1 0x40 MLOAD DUP1 SWAP2 SUB SWAP1 RETURN JUMPDEST PUSH2 0x17B PUSH2 0x2A9 JUMP JUMPDEST PUSH1 0x40 MLOAD PUSH2 0x188 SWAP2 SWAP1 PUSH2 0xC5E JUMP JUMPDEST PUSH1 0x40 MLOAD DUP1 SWAP2 SUB SWAP1 RETURN JUMPDEST PUSH2 0x1AB PUSH1 0x4 DUP1 CALLDATASIZE SUB DUP2 ADD SWAP1 PUSH2 0x1A6 SWAP2 SWAP1 PUSH2 0xCCA JUMP JUMPDEST PUSH2 0x2CF JUMP JUMPDEST STOP JUMPDEST PUSH2 0x1C7 PUSH1 0x4 DUP1 CALLDATASIZE SUB DUP2 ADD SWAP1 PUSH2 0x1C2 SWAP2 SWAP1 PUSH2 0xD45 JUMP JUMPDEST PUSH2 0x5B7 JUMP JUMPDEST STOP JUMPDEST PUSH3 0xF4240 PUSH1 0x3C PUSH2 0x1D9 SWAP2 SWAP1 PUSH2 0xDA1 JUMP JUMPDEST DUP2 JUMP JUMPDEST PUSH3 0xF4240 DUP2 JUMP JUMPDEST PUSH2 0x1EB PUSH2 0x63A JUMP JUMPDEST PUSH2 0x1F5 PUSH1 0x0 PUSH2 0x6B8 JUMP JUMPDEST JUMP JUMPDEST PUSH3 0xF4240 PUSH1 0xA PUSH2 0x207 SWAP2 SWAP1 PUSH2 0xDA1 JUMP JUMPDEST DUP2 JUMP JUMPDEST PUSH1 0x0 DUP1 PUSH1 0x0 SWAP1 SLOAD SWAP1 PUSH2 0x100 EXP SWAP1 DIV PUSH20 0xFFFFFFFFFFFFFFFFFFFFFFFFFFFFFFFFFFFFFFFF AND SWAP1 POP SWAP1 JUMP JUMPDEST PUSH1 0x0 PUSH2 0x23D PUSH2 0x63A JUMP JUMPDEST PUSH1 0x0 PUSH1 0x6 PUSH1 0x0 DUP6 DUP2 MSTORE PUSH1 0x20 ADD SWAP1 DUP2 MSTORE PUSH1 0x20 ADD PUSH1 0x0 KECCAK256 PUSH1 0x0 SWAP1 SLOAD SWAP1 PUSH2 0x100 EXP SWAP1 DIV PUSH16 0xFFFFFFFFFFFFFFFFFFFFFFFFFFFFFFFF AND SWAP1 POP PUSH1 0x0 DUP4 SWAP1 POP PUSH1 0x0 PUSH2 0x282 DUP3 DUP5 PUSH2 0x77C JUMP JUMPDEST SWAP1 POP DUP1 PUSH16 0xFFFFFFFFFFFFFFFFFFFFFFFFFFFFFFFF AND SWAP4 POP POP POP POP SWAP3 SWAP2 POP POP JUMP JUMPDEST PUSH3 0x249F0 DUP2 JUMP JUMPDEST PUSH1 0x1 PUSH1 0x0 SWAP1 SLOAD SWAP1 PUSH2 0x100 EXP SWAP1 DIV PUSH20 0xFFFFFFFFFFFFFFFFFFFFFFFFFFFFFFFFFFFFFFFF AND DUP2 JUMP JUMPDEST PUSH2 0x2D7 PUSH2 0x63A JUMP JUMPDEST PUSH1 0x1 PUSH1 0x4 PUSH1 0x0 DUP4 PUSH20 0xFFFFFFFFFFFFFFFFFFFFFFFFFFFFFFFFFFFFFFFF AND PUSH20 0xFFFFFFFFFFFFFFFFFFFFFFFFFFFFFFFFFFFFFFFF AND DUP2 MSTORE PUSH1 0x20 ADD SWAP1 DUP2 MSTORE PUSH1 0x20 ADD PUSH1 0x0 KECCAK256 PUSH1 0x0 DUP3 DUP3 SLOAD PUSH2 0x327 SWAP2 SWAP1 PUSH2 0xDDE JUMP JUMPDEST SWAP3 POP POP DUP2 SWAP1 SSTORE POP PUSH1 0x0 PUSH1 0x40 MLOAD DUP1 PUSH1 0x60 ADD PUSH1 0x40 MSTORE DUP1 DUP8 PUSH1 0x4 DUP2 GT ISZERO PUSH2 0x34E JUMPI PUSH2 0x34D PUSH2 0xE12 JUMP JUMPDEST JUMPDEST DUP2 MSTORE PUSH1 0x20 ADD PUSH1 0x40 MLOAD DUP1 PUSH1 0x40 ADD PUSH1 0x40 MSTORE DUP1 DUP9 DUP2 MSTORE PUSH1 0x20 ADD DUP8 DUP2 MSTORE POP DUP2 MSTORE PUSH1 0x20 ADD DUP5 DUP2 MSTORE POP SWAP1 POP DUP1 PUSH1 0x3 PUSH1 0x0 DUP5 PUSH20 0xFFFFFFFFFFFFFFFFFFFFFFFFFFFFFFFFFFFFFFFF AND PUSH20 0xFFFFFFFFFFFFFFFFFFFFFFFFFFFFFFFFFFFFFFFF AND DUP2 MSTORE PUSH1 0x20 ADD SWAP1 DUP2 MSTORE PUSH1 0x20 ADD PUSH1 0x0 KECCAK256 PUSH1 0x0 PUSH1 0x4 PUSH1 0x0 DUP7 PUSH20 0xFFFFFFFFFFFFFFFFFFFFFFFFFFFFFFFFFFFFFFFF AND PUSH20 0xFFFFFFFFFFFFFFFFFFFFFFFFFFFFFFFFFFFFFFFF AND DUP2 MSTORE PUSH1 0x20 ADD SWAP1 DUP2 MSTORE PUSH1 0x20 ADD PUSH1 0x0 KECCAK256 SLOAD DUP2 MSTORE PUSH1 0x20 ADD SWAP1 DUP2 MSTORE PUSH1 0x20 ADD PUSH1 0x0 KECCAK256 PUSH1 0x0 DUP3 ADD MLOAD DUP2 PUSH1 0x0 ADD PUSH1 0x0 PUSH2 0x100 EXP DUP2 SLOAD DUP2 PUSH1 0xFF MUL NOT AND SWAP1 DUP4 PUSH1 0x4 DUP2 GT ISZERO PUSH2 0x42E JUMPI PUSH2 0x42D PUSH2 0xE12 JUMP JUMPDEST JUMPDEST MUL OR SWAP1 SSTORE POP PUSH1 0x20 DUP3 ADD MLOAD DUP2 PUSH1 0x1 ADD PUSH1 0x0 DUP3 ADD MLOAD DUP2 PUSH1 0x0 ADD SSTORE PUSH1 0x20 DUP3 ADD MLOAD DUP2 PUSH1 0x1 ADD SSTORE POP POP PUSH1 0x40 DUP3 ADD MLOAD DUP2 PUSH1 0x3 ADD SSTORE SWAP1 POP POP DUP3 PUSH1 0x5 PUSH1 0x0 DUP5 PUSH20 0xFFFFFFFFFFFFFFFFFFFFFFFFFFFFFFFFFFFFFFFF AND PUSH20 0xFFFFFFFFFFFFFFFFFFFFFFFFFFFFFFFFFFFFFFFF AND DUP2 MSTORE PUSH1 0x20 ADD SWAP1 DUP2 MSTORE PUSH1 0x20 ADD PUSH1 0x0 KECCAK256 PUSH1 0x0 DUP3 DUP3 SLOAD PUSH2 0x4AE SWAP2 SWAP1 PUSH2 0xDDE JUMP JUMPDEST SWAP3 POP POP DUP2 SWAP1 SSTORE POP PUSH2 0x526 DUP3 PUSH1 0x1 PUSH1 0x0 SWAP1 SLOAD SWAP1 PUSH2 0x100 EXP SWAP1 DIV PUSH20 0xFFFFFFFFFFFFFFFFFFFFFFFFFFFFFFFFFFFFFFFF AND DUP6 PUSH1 0x2 PUSH1 0x0 SWAP1 SLOAD SWAP1 PUSH2 0x100 EXP SWAP1 DIV PUSH20 0xFFFFFFFFFFFFFFFFFFFFFFFFFFFFFFFFFFFFFFFF AND PUSH20 0xFFFFFFFFFFFFFFFFFFFFFFFFFFFFFFFFFFFFFFFF AND PUSH2 0x7B2 SWAP1 SWAP4 SWAP3 SWAP2 SWAP1 PUSH4 0xFFFFFFFF AND JUMP JUMPDEST PUSH1 0x1 PUSH1 0x0 SWAP1 SLOAD SWAP1 PUSH2 0x100 EXP SWAP1 DIV PUSH20 0xFFFFFFFFFFFFFFFFFFFFFFFFFFFFFFFFFFFFFFFF AND PUSH20 0xFFFFFFFFFFFFFFFFFFFFFFFFFFFFFFFFFFFFFFFF AND DUP3 PUSH20 0xFFFFFFFFFFFFFFFFFFFFFFFFFFFFFFFFFFFFFFFF AND PUSH32 0x205442D60B70AF1203D43CAB62352C3B69B94F091BE32FE683198057282B5C92 DUP8 DUP7 PUSH1 0x40 MLOAD PUSH2 0x5A7 SWAP3 SWAP2 SWAP1 PUSH2 0xE41 JUMP JUMPDEST PUSH1 0x40 MLOAD DUP1 SWAP2 SUB SWAP1 LOG3 POP POP POP POP POP POP JUMP JUMPDEST PUSH2 0x5BF PUSH2 0x63A JUMP JUMPDEST PUSH1 0x0 PUSH20 0xFFFFFFFFFFFFFFFFFFFFFFFFFFFFFFFFFFFFFFFF AND DUP2 PUSH20 0xFFFFFFFFFFFFFFFFFFFFFFFFFFFFFFFFFFFFFFFF AND SUB PUSH2 0x62E JUMPI PUSH1 0x40 MLOAD PUSH32 0x8C379A000000000000000000000000000000000000000000000000000000000 DUP2 MSTORE PUSH1 0x4 ADD PUSH2 0x625 SWAP1 PUSH2 0xEED JUMP JUMPDEST PUSH1 0x40 MLOAD DUP1 SWAP2 SUB SWAP1 REVERT JUMPDEST PUSH2 0x637 DUP2 PUSH2 0x6B8 JUMP JUMPDEST POP JUMP JUMPDEST PUSH2 0x642 PUSH2 0x83B JUMP JUMPDEST PUSH20 0xFFFFFFFFFFFFFFFFFFFFFFFFFFFFFFFFFFFFFFFF AND PUSH2 0x660 PUSH2 0x20A JUMP JUMPDEST PUSH20 0xFFFFFFFFFFFFFFFFFFFFFFFFFFFFFFFFFFFFFFFF AND EQ PUSH2 0x6B6 JUMPI PUSH1 0x40 MLOAD PUSH32 0x8C379A000000000000000000000000000000000000000000000000000000000 DUP2 MSTORE PUSH1 0x4 ADD PUSH2 0x6AD SWAP1 PUSH2 0xF59 JUMP JUMPDEST PUSH1 0x40 MLOAD DUP1 SWAP2 SUB SWAP1 REVERT JUMPDEST JUMP JUMPDEST PUSH1 0x0 DUP1 PUSH1 0x0 SWAP1 SLOAD SWAP1 PUSH2 0x100 EXP SWAP1 DIV PUSH20 0xFFFFFFFFFFFFFFFFFFFFFFFFFFFFFFFFFFFFFFFF AND SWAP1 POP DUP2 PUSH1 0x0 DUP1 PUSH2 0x100 EXP DUP2 SLOAD DUP2 PUSH20 0xFFFFFFFFFFFFFFFFFFFFFFFFFFFFFFFFFFFFFFFF MUL NOT AND SWAP1 DUP4 PUSH20 0xFFFFFFFFFFFFFFFFFFFFFFFFFFFFFFFFFFFFFFFF AND MUL OR SWAP1 SSTORE POP DUP2 PUSH20 0xFFFFFFFFFFFFFFFFFFFFFFFFFFFFFFFFFFFFFFFF AND DUP2 PUSH20 0xFFFFFFFFFFFFFFFFFFFFFFFFFFFFFFFFFFFFFFFF AND PUSH32 0x8BE0079C531659141344CD1FD0A4F28419497F9722A3DAAFE3B4186F6B6457E0 PUSH1 0x40 MLOAD PUSH1 0x40 MLOAD DUP1 SWAP2 SUB SWAP1 LOG3 POP POP JUMP JUMPDEST PUSH1 0x0 PUSH3 0xF4240 DUP3 DUP5 PUSH2 0x78E SWAP2 SWAP1 PUSH2 0xDA1 JUMP JUMPDEST PUSH2 0x798 SWAP2 SWAP1 PUSH2 0xFA8 JUMP JUMPDEST PUSH16 0xFFFFFFFFFFFFFFFFFFFFFFFFFFFFFFFF AND SWAP1 POP SWAP3 SWAP2 POP POP JUMP JUMPDEST PUSH2 0x835 DUP5 PUSH4 0x23B872DD PUSH1 0xE0 SHL DUP6 DUP6 DUP6 PUSH1 0x40 MLOAD PUSH1 0x24 ADD PUSH2 0x7D3 SWAP4 SWAP3 SWAP2 SWAP1 PUSH2 0xFD9 JUMP JUMPDEST PUSH1 0x40 MLOAD PUSH1 0x20 DUP2 DUP4 SUB SUB DUP2 MSTORE SWAP1 PUSH1 0x40 MSTORE SWAP1 PUSH28 0xFFFFFFFFFFFFFFFFFFFFFFFFFFFFFFFFFFFFFFFFFFFFFFFFFFFFFFFF NOT AND PUSH1 0x20 DUP3 ADD DUP1 MLOAD PUSH28 0xFFFFFFFFFFFFFFFFFFFFFFFFFFFFFFFFFFFFFFFFFFFFFFFFFFFFFFFF DUP4 DUP2 DUP4 AND OR DUP4 MSTORE POP POP POP POP PUSH2 0x843 JUMP JUMPDEST POP POP POP POP JUMP JUMPDEST PUSH1 0x0 CALLER SWAP1 POP SWAP1 JUMP JUMPDEST PUSH1 0x0 PUSH2 0x8A5 DUP3 PUSH1 0x40 MLOAD DUP1 PUSH1 0x40 ADD PUSH1 0x40 MSTORE DUP1 PUSH1 0x20 DUP2 MSTORE PUSH1 0x20 ADD PUSH32 0x5361666545524332303A206C6F772D6C6576656C2063616C6C206661696C6564 DUP2 MSTORE POP DUP6 PUSH20 0xFFFFFFFFFFFFFFFFFFFFFFFFFFFFFFFFFFFFFFFF AND PUSH2 0x90A SWAP1 SWAP3 SWAP2 SWAP1 PUSH4 0xFFFFFFFF AND JUMP JUMPDEST SWAP1 POP PUSH1 0x0 DUP2 MLOAD GT ISZERO PUSH2 0x905 JUMPI DUP1 DUP1 PUSH1 0x20 ADD SWAP1 MLOAD DUP2 ADD SWAP1 PUSH2 0x8C5 SWAP2 SWAP1 PUSH2 0x1048 JUMP JUMPDEST PUSH2 0x904 JUMPI PUSH1 0x40 MLOAD PUSH32 0x8C379A000000000000000000000000000000000000000000000000000000000 DUP2 MSTORE PUSH1 0x4 ADD PUSH2 0x8FB SWAP1 PUSH2 0x10E7 JUMP JUMPDEST PUSH1 0x40 MLOAD DUP1 SWAP2 SUB SWAP1 REVERT JUMPDEST JUMPDEST POP POP POP JUMP JUMPDEST PUSH1 0x60 PUSH2 0x919 DUP5 DUP5 PUSH1 0x0 DUP6 PUSH2 0x922 JUMP JUMPDEST SWAP1 POP SWAP4 SWAP3 POP POP POP JUMP JUMPDEST PUSH1 0x60 DUP3 SELFBALANCE LT ISZERO PUSH2 0x967 JUMPI PUSH1 0x40 MLOAD PUSH32 0x8C379A000000000000000000000000000000000000000000000000000000000 DUP2 MSTORE PUSH1 0x4 ADD PUSH2 0x95E SWAP1 PUSH2 0x1179 JUMP JUMPDEST PUSH1 0x40 MLOAD DUP1 SWAP2 SUB SWAP1 REVERT JUMPDEST PUSH2 0x970 DUP6 PUSH2 0xA36 JUMP JUMPDEST PUSH2 0x9AF JUMPI PUSH1 0x40 MLOAD PUSH32 0x8C379A000000000000000000000000000000000000000000000000000000000 DUP2 MSTORE PUSH1 0x4 ADD PUSH2 0x9A6 SWAP1 PUSH2 0x11E5 JUMP JUMPDEST PUSH1 0x40 MLOAD DUP1 SWAP2 SUB SWAP1 REVERT JUMPDEST PUSH1 0x0 DUP1 DUP7 PUSH20 0xFFFFFFFFFFFFFFFFFFFFFFFFFFFFFFFFFFFFFFFF AND DUP6 DUP8 PUSH1 0x40 MLOAD PUSH2 0x9D8 SWAP2 SWAP1 PUSH2 0x1276 JUMP JUMPDEST PUSH1 0x0 PUSH1 0x40 MLOAD DUP1 DUP4 SUB DUP2 DUP6 DUP8 GAS CALL SWAP3 POP POP POP RETURNDATASIZE DUP1 PUSH1 0x0 DUP2 EQ PUSH2 0xA15 JUMPI PUSH1 0x40 MLOAD SWAP2 POP PUSH1 0x1F NOT PUSH1 0x3F RETURNDATASIZE ADD AND DUP3 ADD PUSH1 0x40 MSTORE RETURNDATASIZE DUP3 MSTORE RETURNDATASIZE PUSH1 0x0 PUSH1 0x20 DUP5 ADD RETURNDATACOPY PUSH2 0xA1A JUMP JUMPDEST PUSH1 0x60 SWAP2 POP JUMPDEST POP SWAP2 POP SWAP2 POP PUSH2 0xA2A DUP3 DUP3 DUP7 PUSH2 0xA59 JUMP JUMPDEST SWAP3 POP POP POP SWAP5 SWAP4 POP POP POP POP JUMP JUMPDEST PUSH1 0x0 DUP1 DUP3 PUSH20 0xFFFFFFFFFFFFFFFFFFFFFFFFFFFFFFFFFFFFFFFF AND EXTCODESIZE GT SWAP1 POP SWAP2 SWAP1 POP JUMP JUMPDEST PUSH1 0x60 DUP4 ISZERO PUSH2 0xA69 JUMPI DUP3 SWAP1 POP PUSH2 0xAB9 JUMP JUMPDEST PUSH1 0x0 DUP4 MLOAD GT ISZERO PUSH2 0xA7C JUMPI DUP3 MLOAD DUP1 DUP5 PUSH1 0x20 ADD REVERT JUMPDEST DUP2 PUSH1 0x40 MLOAD PUSH32 0x8C379A000000000000000000000000000000000000000000000000000000000 DUP2 MSTORE PUSH1 0x4 ADD PUSH2 0xAB0 SWAP2 SWAP1 PUSH2 0x12E2 JUMP JUMPDEST PUSH1 0x40 MLOAD DUP1 SWAP2 SUB SWAP1 REVERT JUMPDEST SWAP4 SWAP3 POP POP POP JUMP JUMPDEST PUSH1 0x0 PUSH16 0xFFFFFFFFFFFFFFFFFFFFFFFFFFFFFFFF DUP3 AND SWAP1 POP SWAP2 SWAP1 POP JUMP JUMPDEST PUSH2 0xAE5 DUP2 PUSH2 0xAC0 JUMP JUMPDEST DUP3 MSTORE POP POP JUMP JUMPDEST PUSH1 0x0 PUSH1 0x20 DUP3 ADD SWAP1 POP PUSH2 0xB00 PUSH1 0x0 DUP4 ADD DUP5 PUSH2 0xADC JUMP JUMPDEST SWAP3 SWAP2 POP POP JUMP JUMPDEST PUSH1 0x0 PUSH20 0xFFFFFFFFFFFFFFFFFFFFFFFFFFFFFFFFFFFFFFFF DUP3 AND SWAP1 POP SWAP2 SWAP1 POP JUMP JUMPDEST PUSH1 0x0 PUSH2 0xB31 DUP3 PUSH2 0xB06 JUMP JUMPDEST SWAP1 POP SWAP2 SWAP1 POP JUMP JUMPDEST PUSH2 0xB41 DUP2 PUSH2 0xB26 JUMP JUMPDEST DUP3 MSTORE POP POP JUMP JUMPDEST PUSH1 0x0 PUSH1 0x20 DUP3 ADD SWAP1 POP PUSH2 0xB5C PUSH1 0x0 DUP4 ADD DUP5 PUSH2 0xB38 JUMP JUMPDEST SWAP3 SWAP2 POP POP JUMP JUMPDEST PUSH1 0x0 DUP1 REVERT JUMPDEST PUSH1 0x0 DUP2 SWAP1 POP SWAP2 SWAP1 POP JUMP JUMPDEST PUSH2 0xB7A DUP2 PUSH2 0xB67 JUMP JUMPDEST DUP2 EQ PUSH2 0xB85 JUMPI PUSH1 0x0 DUP1 REVERT JUMPDEST POP JUMP JUMPDEST PUSH1 0x0 DUP2 CALLDATALOAD SWAP1 POP PUSH2 0xB97 DUP2 PUSH2 0xB71 JUMP JUMPDEST SWAP3 SWAP2 POP POP JUMP JUMPDEST PUSH1 0x0 DUP2 SWAP1 POP SWAP2 SWAP1 POP JUMP JUMPDEST PUSH2 0xBB0 DUP2 PUSH2 0xB9D JUMP JUMPDEST DUP2 EQ PUSH2 0xBBB JUMPI PUSH1 0x0 DUP1 REVERT JUMPDEST POP JUMP JUMPDEST PUSH1 0x0 DUP2 CALLDATALOAD SWAP1 POP PUSH2 0xBCD DUP2 PUSH2 0xBA7 JUMP JUMPDEST SWAP3 SWAP2 POP POP JUMP JUMPDEST PUSH1 0x0 DUP1 PUSH1 0x40 DUP4 DUP6 SUB SLT ISZERO PUSH2 0xBEA JUMPI PUSH2 0xBE9 PUSH2 0xB62 JUMP JUMPDEST JUMPDEST PUSH1 0x0 PUSH2 0xBF8 DUP6 DUP3 DUP7 ADD PUSH2 0xB88 JUMP JUMPDEST SWAP3 POP POP PUSH1 0x20 PUSH2 0xC09 DUP6 DUP3 DUP7 ADD PUSH2 0xBBE JUMP JUMPDEST SWAP2 POP POP SWAP3 POP SWAP3 SWAP1 POP JUMP JUMPDEST PUSH2 0xC1C DUP2 PUSH2 0xB9D JUMP JUMPDEST DUP3 MSTORE POP POP JUMP JUMPDEST PUSH1 0x0 PUSH1 0x20 DUP3 ADD SWAP1 POP PUSH2 0xC37 PUSH1 0x0 DUP4 ADD DUP5 PUSH2 0xC13 JUMP JUMPDEST SWAP3 SWAP2 POP POP JUMP JUMPDEST PUSH1 0x0 PUSH2 0xC48 DUP3 PUSH2 0xB06 JUMP JUMPDEST SWAP1 POP SWAP2 SWAP1 POP JUMP JUMPDEST PUSH2 0xC58 DUP2 PUSH2 0xC3D JUMP JUMPDEST DUP3 MSTORE POP POP JUMP JUMPDEST PUSH1 0x0 PUSH1 0x20 DUP3 ADD SWAP1 POP PUSH2 0xC73 PUSH1 0x0 DUP4 ADD DUP5 PUSH2 0xC4F JUMP JUMPDEST SWAP3 SWAP2 POP POP JUMP JUMPDEST PUSH1 0x5 DUP2 LT PUSH2 0xC86 JUMPI PUSH1 0x0 DUP1 REVERT JUMPDEST POP JUMP JUMPDEST PUSH1 0x0 DUP2 CALLDATALOAD SWAP1 POP PUSH2 0xC98 DUP2 PUSH2 0xC79 JUMP JUMPDEST SWAP3 SWAP2 POP POP JUMP JUMPDEST PUSH2 0xCA7 DUP2 PUSH2 0xB26 JUMP JUMPDEST DUP2 EQ PUSH2 0xCB2 JUMPI PUSH1 0x0 DUP1 REVERT JUMPDEST POP JUMP JUMPDEST PUSH1 0x0 DUP2 CALLDATALOAD SWAP1 POP PUSH2 0xCC4 DUP2 PUSH2 0xC9E JUMP JUMPDEST SWAP3 SWAP2 POP POP JUMP JUMPDEST PUSH1 0x0 DUP1 PUSH1 0x0 DUP1 PUSH1 0x0 PUSH1 0xA0 DUP7 DUP9 SUB SLT ISZERO PUSH2 0xCE6 JUMPI PUSH2 0xCE5 PUSH2 0xB62 JUMP JUMPDEST JUMPDEST PUSH1 0x0 PUSH2 0xCF4 DUP9 DUP3 DUP10 ADD PUSH2 0xC89 JUMP JUMPDEST SWAP6 POP POP PUSH1 0x20 PUSH2 0xD05 DUP9 DUP3 DUP10 ADD PUSH2 0xBBE JUMP JUMPDEST SWAP5 POP POP PUSH1 0x40 PUSH2 0xD16 DUP9 DUP3 DUP10 ADD PUSH2 0xBBE JUMP JUMPDEST SWAP4 POP POP PUSH1 0x60 PUSH2 0xD27 DUP9 DUP3 DUP10 ADD PUSH2 0xBBE JUMP JUMPDEST SWAP3 POP POP PUSH1 0x80 PUSH2 0xD38 DUP9 DUP3 DUP10 ADD PUSH2 0xCB5 JUMP JUMPDEST SWAP2 POP POP SWAP3 SWAP6 POP SWAP3 SWAP6 SWAP1 SWAP4 POP JUMP JUMPDEST PUSH1 0x0 PUSH1 0x20 DUP3 DUP5 SUB SLT ISZERO PUSH2 0xD5B JUMPI PUSH2 0xD5A PUSH2 0xB62 JUMP JUMPDEST JUMPDEST PUSH1 0x0 PUSH2 0xD69 DUP5 DUP3 DUP6 ADD PUSH2 0xCB5 JUMP JUMPDEST SWAP2 POP POP SWAP3 SWAP2 POP POP JUMP JUMPDEST PUSH32 0x4E487B7100000000000000000000000000000000000000000000000000000000 PUSH1 0x0 MSTORE PUSH1 0x11 PUSH1 0x4 MSTORE PUSH1 0x24 PUSH1 0x0 REVERT JUMPDEST PUSH1 0x0 PUSH2 0xDAC DUP3 PUSH2 0xAC0 JUMP JUMPDEST SWAP2 POP PUSH2 0xDB7 DUP4 PUSH2 0xAC0 JUMP JUMPDEST SWAP3 POP DUP3 DUP3 MUL PUSH2 0xDC5 DUP2 PUSH2 0xAC0 JUMP JUMPDEST SWAP2 POP DUP1 DUP3 EQ PUSH2 0xDD7 JUMPI PUSH2 0xDD6 PUSH2 0xD72 JUMP JUMPDEST JUMPDEST POP SWAP3 SWAP2 POP POP JUMP JUMPDEST PUSH1 0x0 PUSH2 0xDE9 DUP3 PUSH2 0xB9D JUMP JUMPDEST SWAP2 POP PUSH2 0xDF4 DUP4 PUSH2 0xB9D JUMP JUMPDEST SWAP3 POP DUP3 DUP3 ADD SWAP1 POP DUP1 DUP3 GT ISZERO PUSH2 0xE0C JUMPI PUSH2 0xE0B PUSH2 0xD72 JUMP JUMPDEST JUMPDEST SWAP3 SWAP2 POP POP JUMP JUMPDEST PUSH32 0x4E487B7100000000000000000000000000000000000000000000000000000000 PUSH1 0x0 MSTORE PUSH1 0x21 PUSH1 0x4 MSTORE PUSH1 0x24 PUSH1 0x0 REVERT JUMPDEST PUSH1 0x0 PUSH1 0x40 DUP3 ADD SWAP1 POP PUSH2 0xE56 PUSH1 0x0 DUP4 ADD DUP6 PUSH2 0xC13 JUMP JUMPDEST PUSH2 0xE63 PUSH1 0x20 DUP4 ADD DUP5 PUSH2 0xC13 JUMP JUMPDEST SWAP4 SWAP3 POP POP POP JUMP JUMPDEST PUSH1 0x0 DUP3 DUP3 MSTORE PUSH1 0x20 DUP3 ADD SWAP1 POP SWAP3 SWAP2 POP POP JUMP JUMPDEST PUSH32 0x4F776E61626C653A206E6577206F776E657220697320746865207A65726F2061 PUSH1 0x0 DUP3 ADD MSTORE PUSH32 0x6464726573730000000000000000000000000000000000000000000000000000 PUSH1 0x20 DUP3 ADD MSTORE POP JUMP JUMPDEST PUSH1 0x0 PUSH2 0xED7 PUSH1 0x26 DUP4 PUSH2 0xE6A JUMP JUMPDEST SWAP2 POP PUSH2 0xEE2 DUP3 PUSH2 0xE7B JUMP JUMPDEST PUSH1 0x40 DUP3 ADD SWAP1 POP SWAP2 SWAP1 POP JUMP JUMPDEST PUSH1 0x0 PUSH1 0x20 DUP3 ADD SWAP1 POP DUP2 DUP2 SUB PUSH1 0x0 DUP4 ADD MSTORE PUSH2 0xF06 DUP2 PUSH2 0xECA JUMP JUMPDEST SWAP1 POP SWAP2 SWAP1 POP JUMP JUMPDEST PUSH32 0x4F776E61626C653A2063616C6C6572206973206E6F7420746865206F776E6572 PUSH1 0x0 DUP3 ADD MSTORE POP JUMP JUMPDEST PUSH1 0x0 PUSH2 0xF43 PUSH1 0x20 DUP4 PUSH2 0xE6A JUMP JUMPDEST SWAP2 POP PUSH2 0xF4E DUP3 PUSH2 0xF0D JUMP JUMPDEST PUSH1 0x20 DUP3 ADD SWAP1 POP SWAP2 SWAP1 POP JUMP JUMPDEST PUSH1 0x0 PUSH1 0x20 DUP3 ADD SWAP1 POP DUP2 DUP2 SUB PUSH1 0x0 DUP4 ADD MSTORE PUSH2 0xF72 DUP2 PUSH2 0xF36 JUMP JUMPDEST SWAP1 POP SWAP2 SWAP1 POP JUMP JUMPDEST PUSH32 0x4E487B7100000000000000000000000000000000000000000000000000000000 PUSH1 0x0 MSTORE PUSH1 0x12 PUSH1 0x4 MSTORE PUSH1 0x24 PUSH1 0x0 REVERT JUMPDEST PUSH1 0x0 PUSH2 0xFB3 DUP3 PUSH2 0xAC0 JUMP JUMPDEST SWAP2 POP PUSH2 0xFBE DUP4 PUSH2 0xAC0 JUMP JUMPDEST SWAP3 POP DUP3 PUSH2 0xFCE JUMPI PUSH2 0xFCD PUSH2 0xF79 JUMP JUMPDEST JUMPDEST DUP3 DUP3 DIV SWAP1 POP SWAP3 SWAP2 POP POP JUMP JUMPDEST PUSH1 0x0 PUSH1 0x60 DUP3 ADD SWAP1 POP PUSH2 0xFEE PUSH1 0x0 DUP4 ADD DUP7 PUSH2 0xB38 JUMP JUMPDEST PUSH2 0xFFB PUSH1 0x20 DUP4 ADD DUP6 PUSH2 0xB38 JUMP JUMPDEST PUSH2 0x1008 PUSH1 0x40 DUP4 ADD DUP5 PUSH2 0xC13 JUMP JUMPDEST SWAP5 SWAP4 POP POP POP POP JUMP JUMPDEST PUSH1 0x0 DUP2 ISZERO ISZERO SWAP1 POP SWAP2 SWAP1 POP JUMP JUMPDEST PUSH2 0x1025 DUP2 PUSH2 0x1010 JUMP JUMPDEST DUP2 EQ PUSH2 0x1030 JUMPI PUSH1 0x0 DUP1 REVERT JUMPDEST POP JUMP JUMPDEST PUSH1 0x0 DUP2 MLOAD SWAP1 POP PUSH2 0x1042 DUP2 PUSH2 0x101C JUMP JUMPDEST SWAP3 SWAP2 POP POP JUMP JUMPDEST PUSH1 0x0 PUSH1 0x20 DUP3 DUP5 SUB SLT ISZERO PUSH2 0x105E JUMPI PUSH2 0x105D PUSH2 0xB62 JUMP JUMPDEST JUMPDEST PUSH1 0x0 PUSH2 0x106C DUP5 DUP3 DUP6 ADD PUSH2 0x1033 JUMP JUMPDEST SWAP2 POP POP SWAP3 SWAP2 POP POP JUMP JUMPDEST PUSH32 0x5361666545524332303A204552433230206F7065726174696F6E20646964206E PUSH1 0x0 DUP3 ADD MSTORE PUSH32 0x6F74207375636365656400000000000000000000000000000000000000000000 PUSH1 0x20 DUP3 ADD MSTORE POP JUMP JUMPDEST PUSH1 0x0 PUSH2 0x10D1 PUSH1 0x2A DUP4 PUSH2 0xE6A JUMP JUMPDEST SWAP2 POP PUSH2 0x10DC DUP3 PUSH2 0x1075 JUMP JUMPDEST PUSH1 0x40 DUP3 ADD SWAP1 POP SWAP2 SWAP1 POP JUMP JUMPDEST PUSH1 0x0 PUSH1 0x20 DUP3 ADD SWAP1 POP DUP2 DUP2 SUB PUSH1 0x0 DUP4 ADD MSTORE PUSH2 0x1100 DUP2 PUSH2 0x10C4 JUMP JUMPDEST SWAP1 POP SWAP2 SWAP1 POP JUMP JUMPDEST PUSH32 0x416464726573733A20696E73756666696369656E742062616C616E636520666F PUSH1 0x0 DUP3 ADD MSTORE PUSH32 0x722063616C6C0000000000000000000000000000000000000000000000000000 PUSH1 0x20 DUP3 ADD MSTORE POP JUMP JUMPDEST PUSH1 0x0 PUSH2 0x1163 PUSH1 0x26 DUP4 PUSH2 0xE6A JUMP JUMPDEST SWAP2 POP PUSH2 0x116E DUP3 PUSH2 0x1107 JUMP JUMPDEST PUSH1 0x40 DUP3 ADD SWAP1 POP SWAP2 SWAP1 POP JUMP JUMPDEST PUSH1 0x0 PUSH1 0x20 DUP3 ADD SWAP1 POP DUP2 DUP2 SUB PUSH1 0x0 DUP4 ADD MSTORE PUSH2 0x1192 DUP2 PUSH2 0x1156 JUMP JUMPDEST SWAP1 POP SWAP2 SWAP1 POP JUMP JUMPDEST PUSH32 0x416464726573733A2063616C6C20746F206E6F6E2D636F6E7472616374000000 PUSH1 0x0 DUP3 ADD MSTORE POP JUMP JUMPDEST PUSH1 0x0 PUSH2 0x11CF PUSH1 0x1D DUP4 PUSH2 0xE6A JUMP JUMPDEST SWAP2 POP PUSH2 0x11DA DUP3 PUSH2 0x1199 JUMP JUMPDEST PUSH1 0x20 DUP3 ADD SWAP1 POP SWAP2 SWAP1 POP JUMP JUMPDEST PUSH1 0x0 PUSH1 0x20 DUP3 ADD SWAP1 POP DUP2 DUP2 SUB PUSH1 0x0 DUP4 ADD MSTORE PUSH2 0x11FE DUP2 PUSH2 0x11C2 JUMP JUMPDEST SWAP1 POP SWAP2 SWAP1 POP JUMP JUMPDEST PUSH1 0x0 DUP2 MLOAD SWAP1 POP SWAP2 SWAP1 POP JUMP JUMPDEST PUSH1 0x0 DUP2 SWAP1 POP SWAP3 SWAP2 POP POP JUMP JUMPDEST PUSH1 0x0 JUMPDEST DUP4 DUP2 LT ISZERO PUSH2 0x1239 JUMPI DUP1 DUP3 ADD MLOAD DUP2 DUP5 ADD MSTORE PUSH1 0x20 DUP2 ADD SWAP1 POP PUSH2 0x121E JUMP JUMPDEST PUSH1 0x0 DUP5 DUP5 ADD MSTORE POP POP POP POP JUMP JUMPDEST PUSH1 0x0 PUSH2 0x1250 DUP3 PUSH2 0x1205 JUMP JUMPDEST PUSH2 0x125A DUP2 DUP6 PUSH2 0x1210 JUMP JUMPDEST SWAP4 POP PUSH2 0x126A DUP2 DUP6 PUSH1 0x20 DUP7 ADD PUSH2 0x121B JUMP JUMPDEST DUP1 DUP5 ADD SWAP2 POP POP SWAP3 SWAP2 POP POP JUMP JUMPDEST PUSH1 0x0 PUSH2 0x1282 DUP3 DUP5 PUSH2 0x1245 JUMP JUMPDEST SWAP2 POP DUP2 SWAP1 POP SWAP3 SWAP2 POP POP JUMP JUMPDEST PUSH1 0x0 DUP2 MLOAD SWAP1 POP SWAP2 SWAP1 POP JUMP JUMPDEST PUSH1 0x0 PUSH1 0x1F NOT PUSH1 0x1F DUP4 ADD AND SWAP1 POP SWAP2 SWAP1 POP JUMP JUMPDEST PUSH1 0x0 PUSH2 0x12B4 DUP3 PUSH2 0x128D JUMP JUMPDEST PUSH2 0x12BE DUP2 DUP6 PUSH2 0xE6A JUMP JUMPDEST SWAP4 POP PUSH2 0x12CE DUP2 DUP6 PUSH1 0x20 DUP7 ADD PUSH2 0x121B JUMP JUMPDEST PUSH2 0x12D7 DUP2 PUSH2 0x1298 JUMP JUMPDEST DUP5 ADD SWAP2 POP POP SWAP3 SWAP2 POP POP JUMP JUMPDEST PUSH1 0x0 PUSH1 0x20 DUP3 ADD SWAP1 POP DUP2 DUP2 SUB PUSH1 0x0 DUP4 ADD MSTORE PUSH2 0x12FC DUP2 DUP5 PUSH2 0x12A9 JUMP JUMPDEST SWAP1 POP SWAP3 SWAP2 POP POP JUMP INVALID LOG2 PUSH5 0x6970667358 0x22 SLT KECCAK256 DUP12 REVERT JUMPDEST PUSH21 0x74788A82BE145CB286E8DC1E52E713B843707B4D50 PUSH23 0xD82887986BBE64736F6C63430008110033000000000000 "
				},
				"gasEstimates": {
					"creation": {
						"codeDepositCost": "984400",
						"executionCost": "infinite",
						"totalCost": "infinite"
					},
					"external": {
						"Collect(uint8,uint256,uint256,uint256,address)": "infinite",
						"FeeRedistributionPercent()": "infinite",
						"GetFee(bytes32,uint256)": "infinite",
						"Mantissa()": "358",
						"PercentDefault()": "357",
						"PercentPerPledge()": "infinite",
						"feeEscrow()": "2558",
						"owner()": "2611",
						"renounceOwnership()": "30443",
						"transferOwnership(address)": "30832"
					},
					"internal": {
						"_calculateFee(uint128,uint128)": "infinite"
					}
				},
				"methodIdentifiers": {
					"Collect(uint8,uint256,uint256,uint256,address)": "d5858823",
					"FeeRedistributionPercent()": "24c8a328",
					"GetFee(bytes32,uint256)": "a8df9994",
					"Mantissa()": "4811040c",
					"PercentDefault()": "afc2b0a6",
					"PercentPerPledge()": "77ef50fb",
					"feeEscrow()": "c4b7de97",
					"owner()": "8da5cb5b",
					"renounceOwnership()": "715018a6",
					"transferOwnership(address)": "f2fde38b"
				}
			},
			"storageLayout": {
				"storage": [
					{
						"astId": 7,
						"contract": "contracts/Logic/FeeCollectionLogic.sol:FeeCollectionLogic",
						"label": "_owner",
						"offset": 0,
						"slot": "0",
						"type": "t_address"
					},
					{
						"astId": 1444,
						"contract": "contracts/Logic/FeeCollectionLogic.sol:FeeCollectionLogic",
						"label": "feeEscrow",
						"offset": 0,
						"slot": "1",
						"type": "t_address_payable"
					},
					{
						"astId": 1447,
						"contract": "contracts/Logic/FeeCollectionLogic.sol:FeeCollectionLogic",
						"label": "feeToken",
						"offset": 0,
						"slot": "2",
						"type": "t_contract(ERC20)698"
					},
					{
						"astId": 1478,
						"contract": "contracts/Logic/FeeCollectionLogic.sol:FeeCollectionLogic",
						"label": "_feesByAddress",
						"offset": 0,
						"slot": "3",
						"type": "t_mapping(t_address,t_mapping(t_uint256,t_struct(FeeDetails)1471_storage))"
					},
					{
						"astId": 1482,
						"contract": "contracts/Logic/FeeCollectionLogic.sol:FeeCollectionLogic",
						"label": "_indexes",
						"offset": 0,
						"slot": "4",
						"type": "t_mapping(t_address,t_uint256)"
					},
					{
						"astId": 1486,
						"contract": "contracts/Logic/FeeCollectionLogic.sol:FeeCollectionLogic",
						"label": "_totalFeePaid",
						"offset": 0,
						"slot": "5",
						"type": "t_mapping(t_address,t_uint256)"
					},
					{
						"astId": 1490,
						"contract": "contracts/Logic/FeeCollectionLogic.sol:FeeCollectionLogic",
						"label": "_feeTypes",
						"offset": 0,
						"slot": "6",
						"type": "t_mapping(t_bytes32,t_uint128)"
					}
				],
				"types": {
					"t_address": {
						"encoding": "inplace",
						"label": "address",
						"numberOfBytes": "20"
					},
					"t_address_payable": {
						"encoding": "inplace",
						"label": "address payable",
						"numberOfBytes": "20"
					},
					"t_bytes32": {
						"encoding": "inplace",
						"label": "bytes32",
						"numberOfBytes": "32"
					},
					"t_contract(ERC20)698": {
						"encoding": "inplace",
						"label": "contract ERC20",
						"numberOfBytes": "20"
					},
					"t_enum(FeeTypes)1457": {
						"encoding": "inplace",
						"label": "enum FeeCollectionLogic.FeeTypes",
						"numberOfBytes": "1"
					},
					"t_mapping(t_address,t_mapping(t_uint256,t_struct(FeeDetails)1471_storage))": {
						"encoding": "mapping",
						"key": "t_address",
						"label": "mapping(address => mapping(uint256 => struct FeeCollectionLogic.FeeDetails))",
						"numberOfBytes": "32",
						"value": "t_mapping(t_uint256,t_struct(FeeDetails)1471_storage)"
					},
					"t_mapping(t_address,t_uint256)": {
						"encoding": "mapping",
						"key": "t_address",
						"label": "mapping(address => uint256)",
						"numberOfBytes": "32",
						"value": "t_uint256"
					},
					"t_mapping(t_bytes32,t_uint128)": {
						"encoding": "mapping",
						"key": "t_bytes32",
						"label": "mapping(bytes32 => uint128)",
						"numberOfBytes": "32",
						"value": "t_uint128"
					},
					"t_mapping(t_uint256,t_struct(FeeDetails)1471_storage)": {
						"encoding": "mapping",
						"key": "t_uint256",
						"label": "mapping(uint256 => struct FeeCollectionLogic.FeeDetails)",
						"numberOfBytes": "32",
						"value": "t_struct(FeeDetails)1471_storage"
					},
					"t_struct(FeeDetails)1471_storage": {
						"encoding": "inplace",
						"label": "struct FeeCollectionLogic.FeeDetails",
						"members": [
							{
								"astId": 1465,
								"contract": "contracts/Logic/FeeCollectionLogic.sol:FeeCollectionLogic",
								"label": "feeType",
								"offset": 0,
								"slot": "0",
								"type": "t_enum(FeeTypes)1457"
							},
							{
								"astId": 1468,
								"contract": "contracts/Logic/FeeCollectionLogic.sol:FeeCollectionLogic",
								"label": "txIO",
								"offset": 0,
								"slot": "1",
								"type": "t_struct(TxAmounts)1462_storage"
							},
							{
								"astId": 1470,
								"contract": "contracts/Logic/FeeCollectionLogic.sol:FeeCollectionLogic",
								"label": "fee",
								"offset": 0,
								"slot": "3",
								"type": "t_uint256"
							}
						],
						"numberOfBytes": "128"
					},
					"t_struct(TxAmounts)1462_storage": {
						"encoding": "inplace",
						"label": "struct FeeCollectionLogic.TxAmounts",
						"members": [
							{
								"astId": 1459,
								"contract": "contracts/Logic/FeeCollectionLogic.sol:FeeCollectionLogic",
								"label": "amountIn",
								"offset": 0,
								"slot": "0",
								"type": "t_uint256"
							},
							{
								"astId": 1461,
								"contract": "contracts/Logic/FeeCollectionLogic.sol:FeeCollectionLogic",
								"label": "amountOut",
								"offset": 0,
								"slot": "1",
								"type": "t_uint256"
							}
						],
						"numberOfBytes": "64"
					},
					"t_uint128": {
						"encoding": "inplace",
						"label": "uint128",
						"numberOfBytes": "16"
					},
					"t_uint256": {
						"encoding": "inplace",
						"label": "uint256",
						"numberOfBytes": "32"
					}
				}
			},
			"userdoc": {
				"kind": "user",
				"methods": {},
				"version": 1
			}
		}
	}
}