{
	"contracts/Logic/LockLogic.sol": {
		"LockLogic": {
			"abi": [
				{
					"inputs": [
						{
							"internalType": "address",
							"name": "_lockedToken",
							"type": "address"
						}
					],
					"stateMutability": "nonpayable",
					"type": "constructor"
				},
				{
					"anonymous": false,
					"inputs": [
						{
							"indexed": true,
							"internalType": "address",
							"name": "previousOwner",
							"type": "address"
						},
						{
							"indexed": true,
							"internalType": "address",
							"name": "newOwner",
							"type": "address"
						}
					],
					"name": "OwnershipTransferred",
					"type": "event"
				},
				{
					"inputs": [
						{
							"internalType": "address",
							"name": "_sender",
							"type": "address"
						}
					],
					"name": "availableBalance",
					"outputs": [
						{
							"internalType": "uint256",
							"name": "",
							"type": "uint256"
						}
					],
					"stateMutability": "view",
					"type": "function"
				},
				{
					"inputs": [],
					"name": "canSell",
					"outputs": [
						{
							"internalType": "bool",
							"name": "",
							"type": "bool"
						}
					],
					"stateMutability": "view",
					"type": "function"
				},
				{
					"inputs": [
						{
							"internalType": "address",
							"name": "_sender",
							"type": "address"
						}
					],
					"name": "isHavingAvailableBalance",
					"outputs": [
						{
							"internalType": "bool",
							"name": "",
							"type": "bool"
						}
					],
					"stateMutability": "view",
					"type": "function"
				},
				{
					"inputs": [],
					"name": "lockDuration",
					"outputs": [
						{
							"internalType": "uint256",
							"name": "",
							"type": "uint256"
						}
					],
					"stateMutability": "view",
					"type": "function"
				},
				{
					"inputs": [
						{
							"internalType": "address",
							"name": "_sender",
							"type": "address"
						},
						{
							"internalType": "uint256",
							"name": "amount",
							"type": "uint256"
						}
					],
					"name": "lockTokens",
					"outputs": [],
					"stateMutability": "nonpayable",
					"type": "function"
				},
				{
					"inputs": [
						{
							"internalType": "address",
							"name": "",
							"type": "address"
						}
					],
					"name": "lockedBalance",
					"outputs": [
						{
							"internalType": "uint256",
							"name": "",
							"type": "uint256"
						}
					],
					"stateMutability": "view",
					"type": "function"
				},
				{
					"inputs": [],
					"name": "owner",
					"outputs": [
						{
							"internalType": "address",
							"name": "",
							"type": "address"
						}
					],
					"stateMutability": "view",
					"type": "function"
				},
				{
					"inputs": [],
					"name": "renounceOwnership",
					"outputs": [],
					"stateMutability": "nonpayable",
					"type": "function"
				},
				{
					"inputs": [
						{
							"internalType": "address",
							"name": "newOwner",
							"type": "address"
						}
					],
					"name": "transferOwnership",
					"outputs": [],
					"stateMutability": "nonpayable",
					"type": "function"
				},
				{
					"inputs": [
						{
							"internalType": "address",
							"name": "_sender",
							"type": "address"
						},
						{
							"internalType": "uint256",
							"name": "_amount",
							"type": "uint256"
						}
					],
					"name": "unlockTokensFor",
					"outputs": [],
					"stateMutability": "nonpayable",
					"type": "function"
				},
				{
					"inputs": [
						{
							"internalType": "address",
							"name": "",
							"type": "address"
						}
					],
					"name": "unlockedBalance",
					"outputs": [
						{
							"internalType": "uint256",
							"name": "",
							"type": "uint256"
						}
					],
					"stateMutability": "view",
					"type": "function"
				},
				{
					"inputs": [
						{
							"internalType": "address",
							"name": "_sender",
							"type": "address"
						}
					],
					"name": "withdrawUnlockedTokens",
					"outputs": [],
					"stateMutability": "payable",
					"type": "function"
				}
			],
			"devdoc": {
				"kind": "dev",
				"methods": {
					"owner()": {
						"details": "Returns the address of the current owner."
					},
					"renounceOwnership()": {
						"details": "Leaves the contract without owner. It will not be possible to call `onlyOwner` functions anymore. Can only be called by the current owner. NOTE: Renouncing ownership will leave the contract without an owner, thereby removing any functionality that is only available to the owner."
					},
					"transferOwnership(address)": {
						"details": "Transfers ownership of the contract to a new account (`newOwner`). Can only be called by the current owner."
					}
				},
				"version": 1
			},
			"evm": {
				"assembly": "    /* \"contracts/Logic/LockLogic.sol\":297:2778  contract LockLogic is Ownable, ReentrancyGuard {... */\n  mstore(0x40, 0x80)\n    /* \"contracts/Logic/LockLogic.sol\":411:490  constructor(address _lockedToken) {... */\n  callvalue\n  dup1\n  iszero\n  tag_1\n  jumpi\n  0x00\n  dup1\n  revert\ntag_1:\n  pop\n  mload(0x40)\n  sub(codesize, bytecodeSize)\n  dup1\n  bytecodeSize\n  dup4\n  codecopy\n  dup2\n  dup2\n  add\n  0x40\n  mstore\n  dup2\n  add\n  swap1\n  tag_2\n  swap2\n  swap1\n  tag_3\n  jump\t// in\ntag_2:\n    /* \"@openzeppelin/contracts/access/Ownable.sol\":936:968  _transferOwnership(_msgSender()) */\n  tag_8\n    /* \"@openzeppelin/contracts/access/Ownable.sol\":955:967  _msgSender() */\n  tag_9\n    /* \"@openzeppelin/contracts/access/Ownable.sol\":955:965  _msgSender */\n  shl(0x20, tag_10)\n    /* \"@openzeppelin/contracts/access/Ownable.sol\":955:967  _msgSender() */\n  0x20\n  shr\n  jump\t// in\ntag_9:\n    /* \"@openzeppelin/contracts/access/Ownable.sol\":936:954  _transferOwnership */\n  shl(0x20, tag_11)\n    /* \"@openzeppelin/contracts/access/Ownable.sol\":936:968  _transferOwnership(_msgSender()) */\n  0x20\n  shr\n  jump\t// in\ntag_8:\n    /* \"@openzeppelin/contracts/security/ReentrancyGuard.sol\":1701:1702  1 */\n  0x01\n    /* \"@openzeppelin/contracts/security/ReentrancyGuard.sol\":1806:1813  _status */\n  dup1\n    /* \"@openzeppelin/contracts/security/ReentrancyGuard.sol\":1806:1828  _status = _NOT_ENTERED */\n  dup2\n  swap1\n  sstore\n  pop\n    /* \"contracts/Logic/LockLogic.sol\":470:482  _lockedToken */\n  dup1\n    /* \"contracts/Logic/LockLogic.sol\":455:461  _token */\n  0x02\n  0x00\n    /* \"contracts/Logic/LockLogic.sol\":455:483  _token = ERC20(_lockedToken) */\n  0x0100\n  exp\n  dup2\n  sload\n  dup2\n  0xffffffffffffffffffffffffffffffffffffffff\n  mul\n  not\n  and\n  swap1\n  dup4\n  0xffffffffffffffffffffffffffffffffffffffff\n  and\n  mul\n  or\n  swap1\n  sstore\n  pop\n    /* \"contracts/Logic/LockLogic.sol\":411:490  constructor(address _lockedToken) {... */\n  pop\n    /* \"contracts/Logic/LockLogic.sol\":297:2778  contract LockLogic is Ownable, ReentrancyGuard {... */\n  jump(tag_14)\n    /* \"@openzeppelin/contracts/utils/Context.sol\":640:736  function _msgSender() internal view virtual returns (address) {... */\ntag_10:\n    /* \"@openzeppelin/contracts/utils/Context.sol\":693:700  address */\n  0x00\n    /* \"@openzeppelin/contracts/utils/Context.sol\":719:729  msg.sender */\n  caller\n    /* \"@openzeppelin/contracts/utils/Context.sol\":712:729  return msg.sender */\n  swap1\n  pop\n    /* \"@openzeppelin/contracts/utils/Context.sol\":640:736  function _msgSender() internal view virtual returns (address) {... */\n  swap1\n  jump\t// out\n    /* \"@openzeppelin/contracts/access/Ownable.sol\":2433:2620  function _transferOwnership(address newOwner) internal virtual {... */\ntag_11:\n    /* \"@openzeppelin/contracts/access/Ownable.sol\":2506:2522  address oldOwner */\n  0x00\n    /* \"@openzeppelin/contracts/access/Ownable.sol\":2525:2531  _owner */\n  dup1\n  0x00\n  swap1\n  sload\n  swap1\n  0x0100\n  exp\n  swap1\n  div\n  0xffffffffffffffffffffffffffffffffffffffff\n  and\n    /* \"@openzeppelin/contracts/access/Ownable.sol\":2506:2531  address oldOwner = _owner */\n  swap1\n  pop\n    /* \"@openzeppelin/contracts/access/Ownable.sol\":2550:2558  newOwner */\n  dup2\n    /* \"@openzeppelin/contracts/access/Ownable.sol\":2541:2547  _owner */\n  0x00\n  dup1\n    /* \"@openzeppelin/contracts/access/Ownable.sol\":2541:2558  _owner = newOwner */\n  0x0100\n  exp\n  dup2\n  sload\n  dup2\n  0xffffffffffffffffffffffffffffffffffffffff\n  mul\n  not\n  and\n  swap1\n  dup4\n  0xffffffffffffffffffffffffffffffffffffffff\n  and\n  mul\n  or\n  swap1\n  sstore\n  pop\n    /* \"@openzeppelin/contracts/access/Ownable.sol\":2604:2612  newOwner */\n  dup2\n    /* \"@openzeppelin/contracts/access/Ownable.sol\":2573:2613  OwnershipTransferred(oldOwner, newOwner) */\n  0xffffffffffffffffffffffffffffffffffffffff\n  and\n    /* \"@openzeppelin/contracts/access/Ownable.sol\":2594:2602  oldOwner */\n  dup2\n    /* \"@openzeppelin/contracts/access/Ownable.sol\":2573:2613  OwnershipTransferred(oldOwner, newOwner) */\n  0xffffffffffffffffffffffffffffffffffffffff\n  and\n  0x8be0079c531659141344cd1fd0a4f28419497f9722a3daafe3b4186f6b6457e0\n  mload(0x40)\n  mload(0x40)\n  dup1\n  swap2\n  sub\n  swap1\n  log3\n    /* \"@openzeppelin/contracts/access/Ownable.sol\":2496:2620  {... */\n  pop\n    /* \"@openzeppelin/contracts/access/Ownable.sol\":2433:2620  function _transferOwnership(address newOwner) internal virtual {... */\n  pop\n  jump\t// out\n    /* \"#utility.yul\":88:205   */\ntag_18:\n    /* \"#utility.yul\":197:198   */\n  0x00\n    /* \"#utility.yul\":194:195   */\n  dup1\n    /* \"#utility.yul\":187:199   */\n  revert\n    /* \"#utility.yul\":334:460   */\ntag_20:\n    /* \"#utility.yul\":371:378   */\n  0x00\n    /* \"#utility.yul\":411:453   */\n  0xffffffffffffffffffffffffffffffffffffffff\n    /* \"#utility.yul\":404:409   */\n  dup3\n    /* \"#utility.yul\":400:454   */\n  and\n    /* \"#utility.yul\":389:454   */\n  swap1\n  pop\n    /* \"#utility.yul\":334:460   */\n  swap2\n  swap1\n  pop\n  jump\t// out\n    /* \"#utility.yul\":466:562   */\ntag_21:\n    /* \"#utility.yul\":503:510   */\n  0x00\n    /* \"#utility.yul\":532:556   */\n  tag_30\n    /* \"#utility.yul\":550:555   */\n  dup3\n    /* \"#utility.yul\":532:556   */\n  tag_20\n  jump\t// in\ntag_30:\n    /* \"#utility.yul\":521:556   */\n  swap1\n  pop\n    /* \"#utility.yul\":466:562   */\n  swap2\n  swap1\n  pop\n  jump\t// out\n    /* \"#utility.yul\":568:690   */\ntag_22:\n    /* \"#utility.yul\":641:665   */\n  tag_32\n    /* \"#utility.yul\":659:664   */\n  dup2\n    /* \"#utility.yul\":641:665   */\n  tag_21\n  jump\t// in\ntag_32:\n    /* \"#utility.yul\":634:639   */\n  dup2\n    /* \"#utility.yul\":631:666   */\n  eq\n    /* \"#utility.yul\":621:684   */\n  tag_33\n  jumpi\n    /* \"#utility.yul\":680:681   */\n  0x00\n    /* \"#utility.yul\":677:678   */\n  dup1\n    /* \"#utility.yul\":670:682   */\n  revert\n    /* \"#utility.yul\":621:684   */\ntag_33:\n    /* \"#utility.yul\":568:690   */\n  pop\n  jump\t// out\n    /* \"#utility.yul\":696:839   */\ntag_23:\n    /* \"#utility.yul\":753:758   */\n  0x00\n    /* \"#utility.yul\":784:790   */\n  dup2\n    /* \"#utility.yul\":778:791   */\n  mload\n    /* \"#utility.yul\":769:791   */\n  swap1\n  pop\n    /* \"#utility.yul\":800:833   */\n  tag_35\n    /* \"#utility.yul\":827:832   */\n  dup2\n    /* \"#utility.yul\":800:833   */\n  tag_22\n  jump\t// in\ntag_35:\n    /* \"#utility.yul\":696:839   */\n  swap3\n  swap2\n  pop\n  pop\n  jump\t// out\n    /* \"#utility.yul\":845:1196   */\ntag_3:\n    /* \"#utility.yul\":915:921   */\n  0x00\n    /* \"#utility.yul\":964:966   */\n  0x20\n    /* \"#utility.yul\":952:961   */\n  dup3\n    /* \"#utility.yul\":943:950   */\n  dup5\n    /* \"#utility.yul\":939:962   */\n  sub\n    /* \"#utility.yul\":935:967   */\n  slt\n    /* \"#utility.yul\":932:1051   */\n  iszero\n  tag_37\n  jumpi\n    /* \"#utility.yul\":970:1049   */\n  tag_38\n  tag_18\n  jump\t// in\ntag_38:\n    /* \"#utility.yul\":932:1051   */\ntag_37:\n    /* \"#utility.yul\":1090:1091   */\n  0x00\n    /* \"#utility.yul\":1115:1179   */\n  tag_39\n    /* \"#utility.yul\":1171:1178   */\n  dup5\n    /* \"#utility.yul\":1162:1168   */\n  dup3\n    /* \"#utility.yul\":1151:1160   */\n  dup6\n    /* \"#utility.yul\":1147:1169   */\n  add\n    /* \"#utility.yul\":1115:1179   */\n  tag_23\n  jump\t// in\ntag_39:\n    /* \"#utility.yul\":1105:1179   */\n  swap2\n  pop\n    /* \"#utility.yul\":1061:1189   */\n  pop\n    /* \"#utility.yul\":845:1196   */\n  swap3\n  swap2\n  pop\n  pop\n  jump\t// out\n    /* \"contracts/Logic/LockLogic.sol\":297:2778  contract LockLogic is Ownable, ReentrancyGuard {... */\ntag_14:\n  dataSize(sub_0)\n  dup1\n  dataOffset(sub_0)\n  0x00\n  codecopy\n  0x00\n  return\nstop\n\nsub_0: assembly {\n        /* \"contracts/Logic/LockLogic.sol\":297:2778  contract LockLogic is Ownable, ReentrancyGuard {... */\n      mstore(0x40, 0x80)\n      jumpi(tag_1, lt(calldatasize, 0x04))\n      shr(0xe0, calldataload(0x00))\n      dup1\n      0x8da5cb5b\n      gt\n      tag_14\n      jumpi\n      dup1\n      0x8da5cb5b\n      eq\n      tag_8\n      jumpi\n      dup1\n      0x9ae697bf\n      eq\n      tag_9\n      jumpi\n      dup1\n      0xa0821be3\n      eq\n      tag_10\n      jumpi\n      dup1\n      0xb1c25586\n      eq\n      tag_11\n      jumpi\n      dup1\n      0xf2fde38b\n      eq\n      tag_12\n      jumpi\n      dup1\n      0xfa3afbbf\n      eq\n      tag_13\n      jumpi\n      jump(tag_1)\n    tag_14:\n      dup1\n      0x04554443\n      eq\n      tag_2\n      jumpi\n      dup1\n      0x2890dc99\n      eq\n      tag_3\n      jumpi\n      dup1\n      0x2cbacb44\n      eq\n      tag_4\n      jumpi\n      dup1\n      0x34834c18\n      eq\n      tag_5\n      jumpi\n      dup1\n      0x5e0fac2e\n      eq\n      tag_6\n      jumpi\n      dup1\n      0x715018a6\n      eq\n      tag_7\n      jumpi\n    tag_1:\n      0x00\n      dup1\n      revert\n        /* \"contracts/Logic/LockLogic.sol\":493:520  uint256 public lockDuration */\n    tag_2:\n      callvalue\n      dup1\n      iszero\n      tag_15\n      jumpi\n      0x00\n      dup1\n      revert\n    tag_15:\n      pop\n      tag_16\n      tag_17\n      jump\t// in\n    tag_16:\n      mload(0x40)\n      tag_18\n      swap2\n      swap1\n      tag_19\n      jump\t// in\n    tag_18:\n      mload(0x40)\n      dup1\n      swap2\n      sub\n      swap1\n      return\n        /* \"contracts/Logic/LockLogic.sol\":2546:2776  function withdrawUnlockedTokens(address _sender) external payable nonReentrant {... */\n    tag_3:\n      tag_20\n      0x04\n      dup1\n      calldatasize\n      sub\n      dup2\n      add\n      swap1\n      tag_21\n      swap2\n      swap1\n      tag_22\n      jump\t// in\n    tag_21:\n      tag_23\n      jump\t// in\n    tag_20:\n      stop\n        /* \"contracts/Logic/LockLogic.sol\":1941:2100  function isHavingAvailableBalance(address _sender)... */\n    tag_4:\n      callvalue\n      dup1\n      iszero\n      tag_24\n      jumpi\n      0x00\n      dup1\n      revert\n    tag_24:\n      pop\n      tag_25\n      0x04\n      dup1\n      calldatasize\n      sub\n      dup2\n      add\n      swap1\n      tag_26\n      swap2\n      swap1\n      tag_22\n      jump\t// in\n    tag_26:\n      tag_27\n      jump\t// in\n    tag_25:\n      mload(0x40)\n      tag_28\n      swap2\n      swap1\n      tag_29\n      jump\t// in\n    tag_28:\n      mload(0x40)\n      dup1\n      swap2\n      sub\n      swap1\n      return\n        /* \"contracts/Logic/LockLogic.sol\":2279:2540  function unlockTokensFor(address _sender, uint256 _amount) public onlyOwner {... */\n    tag_5:\n      callvalue\n      dup1\n      iszero\n      tag_30\n      jumpi\n      0x00\n      dup1\n      revert\n    tag_30:\n      pop\n      tag_31\n      0x04\n      dup1\n      calldatasize\n      sub\n      dup2\n      add\n      swap1\n      tag_32\n      swap2\n      swap1\n      tag_33\n      jump\t// in\n    tag_32:\n      tag_34\n      jump\t// in\n    tag_31:\n      stop\n        /* \"contracts/Logic/LockLogic.sol\":737:787  mapping(address => uint256) public unlockedBalance */\n    tag_6:\n      callvalue\n      dup1\n      iszero\n      tag_35\n      jumpi\n      0x00\n      dup1\n      revert\n    tag_35:\n      pop\n      tag_36\n      0x04\n      dup1\n      calldatasize\n      sub\n      dup2\n      add\n      swap1\n      tag_37\n      swap2\n      swap1\n      tag_22\n      jump\t// in\n    tag_37:\n      tag_38\n      jump\t// in\n    tag_36:\n      mload(0x40)\n      tag_39\n      swap2\n      swap1\n      tag_19\n      jump\t// in\n    tag_39:\n      mload(0x40)\n      dup1\n      swap2\n      sub\n      swap1\n      return\n        /* \"@openzeppelin/contracts/access/Ownable.sol\":1831:1932  function renounceOwnership() public virtual onlyOwner {... */\n    tag_7:\n      callvalue\n      dup1\n      iszero\n      tag_40\n      jumpi\n      0x00\n      dup1\n      revert\n    tag_40:\n      pop\n      tag_41\n      tag_42\n      jump\t// in\n    tag_41:\n      stop\n        /* \"@openzeppelin/contracts/access/Ownable.sol\":1201:1286  function owner() public view virtual returns (address) {... */\n    tag_8:\n      callvalue\n      dup1\n      iszero\n      tag_43\n      jumpi\n      0x00\n      dup1\n      revert\n    tag_43:\n      pop\n      tag_44\n      tag_45\n      jump\t// in\n    tag_44:\n      mload(0x40)\n      tag_46\n      swap2\n      swap1\n      tag_47\n      jump\t// in\n    tag_46:\n      mload(0x40)\n      dup1\n      swap2\n      sub\n      swap1\n      return\n        /* \"contracts/Logic/LockLogic.sol\":683:731  mapping(address => uint256) public lockedBalance */\n    tag_9:\n      callvalue\n      dup1\n      iszero\n      tag_48\n      jumpi\n      0x00\n      dup1\n      revert\n    tag_48:\n      pop\n      tag_49\n      0x04\n      dup1\n      calldatasize\n      sub\n      dup2\n      add\n      swap1\n      tag_50\n      swap2\n      swap1\n      tag_22\n      jump\t// in\n    tag_50:\n      tag_51\n      jump\t// in\n    tag_49:\n      mload(0x40)\n      tag_52\n      swap2\n      swap1\n      tag_19\n      jump\t// in\n    tag_52:\n      mload(0x40)\n      dup1\n      swap2\n      sub\n      swap1\n      return\n        /* \"contracts/Logic/LockLogic.sol\":1726:1935  function availableBalance(address _sender) public view returns (uint256) {... */\n    tag_10:\n      callvalue\n      dup1\n      iszero\n      tag_53\n      jumpi\n      0x00\n      dup1\n      revert\n    tag_53:\n      pop\n      tag_54\n      0x04\n      dup1\n      calldatasize\n      sub\n      dup2\n      add\n      swap1\n      tag_55\n      swap2\n      swap1\n      tag_22\n      jump\t// in\n    tag_55:\n      tag_56\n      jump\t// in\n    tag_54:\n      mload(0x40)\n      tag_57\n      swap2\n      swap1\n      tag_19\n      jump\t// in\n    tag_57:\n      mload(0x40)\n      dup1\n      swap2\n      sub\n      swap1\n      return\n        /* \"contracts/Logic/LockLogic.sol\":2106:2273  function lockTokens(address _sender, uint256 amount) public onlyOwner {... */\n    tag_11:\n      callvalue\n      dup1\n      iszero\n      tag_58\n      jumpi\n      0x00\n      dup1\n      revert\n    tag_58:\n      pop\n      tag_59\n      0x04\n      dup1\n      calldatasize\n      sub\n      dup2\n      add\n      swap1\n      tag_60\n      swap2\n      swap1\n      tag_33\n      jump\t// in\n    tag_60:\n      tag_61\n      jump\t// in\n    tag_59:\n      stop\n        /* \"@openzeppelin/contracts/access/Ownable.sol\":2081:2279  function transferOwnership(address newOwner) public virtual onlyOwner {... */\n    tag_12:\n      callvalue\n      dup1\n      iszero\n      tag_62\n      jumpi\n      0x00\n      dup1\n      revert\n    tag_62:\n      pop\n      tag_63\n      0x04\n      dup1\n      calldatasize\n      sub\n      dup2\n      add\n      swap1\n      tag_64\n      swap2\n      swap1\n      tag_22\n      jump\t// in\n    tag_64:\n      tag_65\n      jump\t// in\n    tag_63:\n      stop\n        /* \"contracts/Logic/LockLogic.sol\":793:812  bool public canSell */\n    tag_13:\n      callvalue\n      dup1\n      iszero\n      tag_66\n      jumpi\n      0x00\n      dup1\n      revert\n    tag_66:\n      pop\n      tag_67\n      tag_68\n      jump\t// in\n    tag_67:\n      mload(0x40)\n      tag_69\n      swap2\n      swap1\n      tag_29\n      jump\t// in\n    tag_69:\n      mload(0x40)\n      dup1\n      swap2\n      sub\n      swap1\n      return\n        /* \"contracts/Logic/LockLogic.sol\":493:520  uint256 public lockDuration */\n    tag_17:\n      sload(0x03)\n      dup2\n      jump\t// out\n        /* \"contracts/Logic/LockLogic.sol\":2546:2776  function withdrawUnlockedTokens(address _sender) external payable nonReentrant {... */\n    tag_23:\n        /* \"@openzeppelin/contracts/security/ReentrancyGuard.sol\":1744:1745  2 */\n      0x02\n        /* \"@openzeppelin/contracts/security/ReentrancyGuard.sol\":2325:2332  _status */\n      sload(0x01)\n        /* \"@openzeppelin/contracts/security/ReentrancyGuard.sol\":2325:2344  _status != _ENTERED */\n      sub\n        /* \"@openzeppelin/contracts/security/ReentrancyGuard.sol\":2317:2380  require(_status != _ENTERED, \"ReentrancyGuard: reentrant call\") */\n      tag_71\n      jumpi\n      mload(0x40)\n      0x08c379a000000000000000000000000000000000000000000000000000000000\n      dup2\n      mstore\n      0x04\n      add\n      tag_72\n      swap1\n      tag_73\n      jump\t// in\n    tag_72:\n      mload(0x40)\n      dup1\n      swap2\n      sub\n      swap1\n      revert\n    tag_71:\n        /* \"@openzeppelin/contracts/security/ReentrancyGuard.sol\":1744:1745  2 */\n      0x02\n        /* \"@openzeppelin/contracts/security/ReentrancyGuard.sol\":2455:2462  _status */\n      0x01\n        /* \"@openzeppelin/contracts/security/ReentrancyGuard.sol\":2455:2473  _status = _ENTERED */\n      dup2\n      swap1\n      sstore\n      pop\n        /* \"contracts/Logic/LockLogic.sol\":2670:2671  0 */\n      0x00\n        /* \"contracts/Logic/LockLogic.sol\":2643:2658  unlockedBalance */\n      0x08\n        /* \"contracts/Logic/LockLogic.sol\":2643:2667  unlockedBalance[_sender] */\n      0x00\n        /* \"contracts/Logic/LockLogic.sol\":2659:2666  _sender */\n      dup4\n        /* \"contracts/Logic/LockLogic.sol\":2643:2667  unlockedBalance[_sender] */\n      0xffffffffffffffffffffffffffffffffffffffff\n      and\n      0xffffffffffffffffffffffffffffffffffffffff\n      and\n      dup2\n      mstore\n      0x20\n      add\n      swap1\n      dup2\n      mstore\n      0x20\n      add\n      0x00\n      keccak256\n      sload\n        /* \"contracts/Logic/LockLogic.sol\":2643:2671  unlockedBalance[_sender] > 0 */\n      gt\n        /* \"contracts/Logic/LockLogic.sol\":2635:2705  require(unlockedBalance[_sender] > 0, \"no unlocked balance available\") */\n      tag_75\n      jumpi\n      mload(0x40)\n      0x08c379a000000000000000000000000000000000000000000000000000000000\n      dup2\n      mstore\n      0x04\n      add\n      tag_76\n      swap1\n      tag_77\n      jump\t// in\n    tag_76:\n      mload(0x40)\n      dup1\n      swap2\n      sub\n      swap1\n      revert\n    tag_75:\n        /* \"contracts/Logic/LockLogic.sol\":2715:2769  _token.safeTransfer(_sender, unlockedBalance[_sender]) */\n      tag_78\n        /* \"contracts/Logic/LockLogic.sol\":2735:2742  _sender */\n      dup2\n        /* \"contracts/Logic/LockLogic.sol\":2744:2759  unlockedBalance */\n      0x08\n        /* \"contracts/Logic/LockLogic.sol\":2744:2768  unlockedBalance[_sender] */\n      0x00\n        /* \"contracts/Logic/LockLogic.sol\":2760:2767  _sender */\n      dup5\n        /* \"contracts/Logic/LockLogic.sol\":2744:2768  unlockedBalance[_sender] */\n      0xffffffffffffffffffffffffffffffffffffffff\n      and\n      0xffffffffffffffffffffffffffffffffffffffff\n      and\n      dup2\n      mstore\n      0x20\n      add\n      swap1\n      dup2\n      mstore\n      0x20\n      add\n      0x00\n      keccak256\n      sload\n        /* \"contracts/Logic/LockLogic.sol\":2715:2721  _token */\n      0x02\n      0x00\n      swap1\n      sload\n      swap1\n      0x0100\n      exp\n      swap1\n      div\n      0xffffffffffffffffffffffffffffffffffffffff\n      and\n        /* \"contracts/Logic/LockLogic.sol\":2715:2734  _token.safeTransfer */\n      0xffffffffffffffffffffffffffffffffffffffff\n      and\n      tag_79\n      swap1\n        /* \"contracts/Logic/LockLogic.sol\":2715:2769  _token.safeTransfer(_sender, unlockedBalance[_sender]) */\n      swap3\n      swap2\n      swap1\n      0xffffffff\n      and\n      jump\t// in\n    tag_78:\n        /* \"@openzeppelin/contracts/security/ReentrancyGuard.sol\":1701:1702  1 */\n      0x01\n        /* \"@openzeppelin/contracts/security/ReentrancyGuard.sol\":2628:2635  _status */\n      dup1\n        /* \"@openzeppelin/contracts/security/ReentrancyGuard.sol\":2628:2650  _status = _NOT_ENTERED */\n      dup2\n      swap1\n      sstore\n      pop\n        /* \"contracts/Logic/LockLogic.sol\":2546:2776  function withdrawUnlockedTokens(address _sender) external payable nonReentrant {... */\n      pop\n      jump\t// out\n        /* \"contracts/Logic/LockLogic.sol\":1941:2100  function isHavingAvailableBalance(address _sender)... */\n    tag_27:\n        /* \"contracts/Logic/LockLogic.sol\":2037:2041  bool */\n      0x00\n        /* \"contracts/Logic/LockLogic.sol\":2092:2093  0 */\n      dup1\n        /* \"contracts/Logic/LockLogic.sol\":2064:2089  availableBalance(_sender) */\n      tag_81\n        /* \"contracts/Logic/LockLogic.sol\":2081:2088  _sender */\n      dup4\n        /* \"contracts/Logic/LockLogic.sol\":2064:2080  availableBalance */\n      tag_56\n        /* \"contracts/Logic/LockLogic.sol\":2064:2089  availableBalance(_sender) */\n      jump\t// in\n    tag_81:\n        /* \"contracts/Logic/LockLogic.sol\":2064:2093  availableBalance(_sender) > 0 */\n      gt\n        /* \"contracts/Logic/LockLogic.sol\":2057:2093  return availableBalance(_sender) > 0 */\n      swap1\n      pop\n        /* \"contracts/Logic/LockLogic.sol\":1941:2100  function isHavingAvailableBalance(address _sender)... */\n      swap2\n      swap1\n      pop\n      jump\t// out\n        /* \"contracts/Logic/LockLogic.sol\":2279:2540  function unlockTokensFor(address _sender, uint256 _amount) public onlyOwner {... */\n    tag_34:\n        /* \"@openzeppelin/contracts/access/Ownable.sol\":1094:1107  _checkOwner() */\n      tag_83\n        /* \"@openzeppelin/contracts/access/Ownable.sol\":1094:1105  _checkOwner */\n      tag_84\n        /* \"@openzeppelin/contracts/access/Ownable.sol\":1094:1107  _checkOwner() */\n      jump\t// in\n    tag_83:\n        /* \"contracts/Logic/LockLogic.sol\":2416:2420  true */\n      0x01\n        /* \"contracts/Logic/LockLogic.sol\":2373:2420  verifySellPermissions(_sender, _amount) == true */\n      iszero\n      iszero\n        /* \"contracts/Logic/LockLogic.sol\":2373:2412  verifySellPermissions(_sender, _amount) */\n      tag_86\n        /* \"contracts/Logic/LockLogic.sol\":2395:2402  _sender */\n      dup4\n        /* \"contracts/Logic/LockLogic.sol\":2404:2411  _amount */\n      dup4\n        /* \"contracts/Logic/LockLogic.sol\":2373:2394  verifySellPermissions */\n      tag_87\n        /* \"contracts/Logic/LockLogic.sol\":2373:2412  verifySellPermissions(_sender, _amount) */\n      jump\t// in\n    tag_86:\n        /* \"contracts/Logic/LockLogic.sol\":2373:2420  verifySellPermissions(_sender, _amount) == true */\n      iszero\n      iszero\n      eq\n        /* \"contracts/Logic/LockLogic.sol\":2365:2445  require(verifySellPermissions(_sender, _amount) == true, \"cannot unlock tokens\") */\n      tag_88\n      jumpi\n      mload(0x40)\n      0x08c379a000000000000000000000000000000000000000000000000000000000\n      dup2\n      mstore\n      0x04\n      add\n      tag_89\n      swap1\n      tag_90\n      jump\t// in\n    tag_89:\n      mload(0x40)\n      dup1\n      swap2\n      sub\n      swap1\n      revert\n    tag_88:\n        /* \"contracts/Logic/LockLogic.sol\":2481:2488  _amount */\n      dup1\n        /* \"contracts/Logic/LockLogic.sol\":2455:2468  lockedBalance */\n      0x07\n        /* \"contracts/Logic/LockLogic.sol\":2455:2477  lockedBalance[_sender] */\n      0x00\n        /* \"contracts/Logic/LockLogic.sol\":2469:2476  _sender */\n      dup5\n        /* \"contracts/Logic/LockLogic.sol\":2455:2477  lockedBalance[_sender] */\n      0xffffffffffffffffffffffffffffffffffffffff\n      and\n      0xffffffffffffffffffffffffffffffffffffffff\n      and\n      dup2\n      mstore\n      0x20\n      add\n      swap1\n      dup2\n      mstore\n      0x20\n      add\n      0x00\n      keccak256\n      0x00\n        /* \"contracts/Logic/LockLogic.sol\":2455:2488  lockedBalance[_sender] -= _amount */\n      dup3\n      dup3\n      sload\n      tag_91\n      swap2\n      swap1\n      tag_92\n      jump\t// in\n    tag_91:\n      swap3\n      pop\n      pop\n      dup2\n      swap1\n      sstore\n      pop\n        /* \"contracts/Logic/LockLogic.sol\":2526:2533  _amount */\n      dup1\n        /* \"contracts/Logic/LockLogic.sol\":2498:2513  unlockedBalance */\n      0x08\n        /* \"contracts/Logic/LockLogic.sol\":2498:2522  unlockedBalance[_sender] */\n      0x00\n        /* \"contracts/Logic/LockLogic.sol\":2514:2521  _sender */\n      dup5\n        /* \"contracts/Logic/LockLogic.sol\":2498:2522  unlockedBalance[_sender] */\n      0xffffffffffffffffffffffffffffffffffffffff\n      and\n      0xffffffffffffffffffffffffffffffffffffffff\n      and\n      dup2\n      mstore\n      0x20\n      add\n      swap1\n      dup2\n      mstore\n      0x20\n      add\n      0x00\n      keccak256\n      0x00\n        /* \"contracts/Logic/LockLogic.sol\":2498:2533  unlockedBalance[_sender] += _amount */\n      dup3\n      dup3\n      sload\n      tag_93\n      swap2\n      swap1\n      tag_94\n      jump\t// in\n    tag_93:\n      swap3\n      pop\n      pop\n      dup2\n      swap1\n      sstore\n      pop\n        /* \"contracts/Logic/LockLogic.sol\":2279:2540  function unlockTokensFor(address _sender, uint256 _amount) public onlyOwner {... */\n      pop\n      pop\n      jump\t// out\n        /* \"contracts/Logic/LockLogic.sol\":737:787  mapping(address => uint256) public unlockedBalance */\n    tag_38:\n      mstore(0x20, 0x08)\n      dup1\n      0x00\n      mstore\n      keccak256(0x00, 0x40)\n      0x00\n      swap2\n      pop\n      swap1\n      pop\n      sload\n      dup2\n      jump\t// out\n        /* \"@openzeppelin/contracts/access/Ownable.sol\":1831:1932  function renounceOwnership() public virtual onlyOwner {... */\n    tag_42:\n        /* \"@openzeppelin/contracts/access/Ownable.sol\":1094:1107  _checkOwner() */\n      tag_96\n        /* \"@openzeppelin/contracts/access/Ownable.sol\":1094:1105  _checkOwner */\n      tag_84\n        /* \"@openzeppelin/contracts/access/Ownable.sol\":1094:1107  _checkOwner() */\n      jump\t// in\n    tag_96:\n        /* \"@openzeppelin/contracts/access/Ownable.sol\":1895:1925  _transferOwnership(address(0)) */\n      tag_98\n        /* \"@openzeppelin/contracts/access/Ownable.sol\":1922:1923  0 */\n      0x00\n        /* \"@openzeppelin/contracts/access/Ownable.sol\":1895:1913  _transferOwnership */\n      tag_99\n        /* \"@openzeppelin/contracts/access/Ownable.sol\":1895:1925  _transferOwnership(address(0)) */\n      jump\t// in\n    tag_98:\n        /* \"@openzeppelin/contracts/access/Ownable.sol\":1831:1932  function renounceOwnership() public virtual onlyOwner {... */\n      jump\t// out\n        /* \"@openzeppelin/contracts/access/Ownable.sol\":1201:1286  function owner() public view virtual returns (address) {... */\n    tag_45:\n        /* \"@openzeppelin/contracts/access/Ownable.sol\":1247:1254  address */\n      0x00\n        /* \"@openzeppelin/contracts/access/Ownable.sol\":1273:1279  _owner */\n      dup1\n      0x00\n      swap1\n      sload\n      swap1\n      0x0100\n      exp\n      swap1\n      div\n      0xffffffffffffffffffffffffffffffffffffffff\n      and\n        /* \"@openzeppelin/contracts/access/Ownable.sol\":1266:1279  return _owner */\n      swap1\n      pop\n        /* \"@openzeppelin/contracts/access/Ownable.sol\":1201:1286  function owner() public view virtual returns (address) {... */\n      swap1\n      jump\t// out\n        /* \"contracts/Logic/LockLogic.sol\":683:731  mapping(address => uint256) public lockedBalance */\n    tag_51:\n      mstore(0x20, 0x07)\n      dup1\n      0x00\n      mstore\n      keccak256(0x00, 0x40)\n      0x00\n      swap2\n      pop\n      swap1\n      pop\n      sload\n      dup2\n      jump\t// out\n        /* \"contracts/Logic/LockLogic.sol\":1726:1935  function availableBalance(address _sender) public view returns (uint256) {... */\n    tag_56:\n        /* \"contracts/Logic/LockLogic.sol\":1790:1797  uint256 */\n      0x00\n        /* \"contracts/Logic/LockLogic.sol\":1809:1824  uint256 _locked */\n      dup1\n        /* \"contracts/Logic/LockLogic.sol\":1827:1840  lockedBalance */\n      0x07\n        /* \"contracts/Logic/LockLogic.sol\":1827:1849  lockedBalance[_sender] */\n      0x00\n        /* \"contracts/Logic/LockLogic.sol\":1841:1848  _sender */\n      dup5\n        /* \"contracts/Logic/LockLogic.sol\":1827:1849  lockedBalance[_sender] */\n      0xffffffffffffffffffffffffffffffffffffffff\n      and\n      0xffffffffffffffffffffffffffffffffffffffff\n      and\n      dup2\n      mstore\n      0x20\n      add\n      swap1\n      dup2\n      mstore\n      0x20\n      add\n      0x00\n      keccak256\n      sload\n        /* \"contracts/Logic/LockLogic.sol\":1809:1849  uint256 _locked = lockedBalance[_sender] */\n      swap1\n      pop\n        /* \"contracts/Logic/LockLogic.sol\":1859:1870  uint256 bal */\n      0x00\n        /* \"contracts/Logic/LockLogic.sol\":1873:1879  _token */\n      0x02\n      0x00\n      swap1\n      sload\n      swap1\n      0x0100\n      exp\n      swap1\n      div\n      0xffffffffffffffffffffffffffffffffffffffff\n      and\n        /* \"contracts/Logic/LockLogic.sol\":1873:1889  _token.balanceOf */\n      0xffffffffffffffffffffffffffffffffffffffff\n      and\n      0x70a08231\n        /* \"contracts/Logic/LockLogic.sol\":1890:1897  _sender */\n      dup6\n        /* \"contracts/Logic/LockLogic.sol\":1873:1898  _token.balanceOf(_sender) */\n      mload(0x40)\n      dup3\n      0xffffffff\n      and\n      0xe0\n      shl\n      dup2\n      mstore\n      0x04\n      add\n      tag_102\n      swap2\n      swap1\n      tag_47\n      jump\t// in\n    tag_102:\n      0x20\n      mload(0x40)\n      dup1\n      dup4\n      sub\n      dup2\n      dup7\n      gas\n      staticcall\n      iszero\n      dup1\n      iszero\n      tag_104\n      jumpi\n      returndatasize\n      0x00\n      dup1\n      returndatacopy\n      revert(0x00, returndatasize)\n    tag_104:\n      pop\n      pop\n      pop\n      pop\n      mload(0x40)\n      returndatasize\n      not(0x1f)\n      0x1f\n      dup3\n      add\n      and\n      dup3\n      add\n      dup1\n      0x40\n      mstore\n      pop\n      dup2\n      add\n      swap1\n      tag_105\n      swap2\n      swap1\n      tag_106\n      jump\t// in\n    tag_105:\n        /* \"contracts/Logic/LockLogic.sol\":1859:1898  uint256 bal = _token.balanceOf(_sender) */\n      swap1\n      pop\n        /* \"contracts/Logic/LockLogic.sol\":1921:1928  _locked */\n      dup2\n        /* \"contracts/Logic/LockLogic.sol\":1915:1918  bal */\n      dup2\n        /* \"contracts/Logic/LockLogic.sol\":1915:1928  bal - _locked */\n      tag_107\n      swap2\n      swap1\n      tag_92\n      jump\t// in\n    tag_107:\n        /* \"contracts/Logic/LockLogic.sol\":1908:1928  return bal - _locked */\n      swap3\n      pop\n      pop\n      pop\n        /* \"contracts/Logic/LockLogic.sol\":1726:1935  function availableBalance(address _sender) public view returns (uint256) {... */\n      swap2\n      swap1\n      pop\n      jump\t// out\n        /* \"contracts/Logic/LockLogic.sol\":2106:2273  function lockTokens(address _sender, uint256 amount) public onlyOwner {... */\n    tag_61:\n        /* \"@openzeppelin/contracts/access/Ownable.sol\":1094:1107  _checkOwner() */\n      tag_109\n        /* \"@openzeppelin/contracts/access/Ownable.sol\":1094:1105  _checkOwner */\n      tag_84\n        /* \"@openzeppelin/contracts/access/Ownable.sol\":1094:1107  _checkOwner() */\n      jump\t// in\n    tag_109:\n        /* \"contracts/Logic/LockLogic.sol\":2211:2217  amount */\n      dup1\n        /* \"contracts/Logic/LockLogic.sol\":2186:2199  lockedBalance */\n      0x07\n        /* \"contracts/Logic/LockLogic.sol\":2186:2208  lockedBalance[_sender] */\n      0x00\n        /* \"contracts/Logic/LockLogic.sol\":2200:2207  _sender */\n      dup5\n        /* \"contracts/Logic/LockLogic.sol\":2186:2208  lockedBalance[_sender] */\n      0xffffffffffffffffffffffffffffffffffffffff\n      and\n      0xffffffffffffffffffffffffffffffffffffffff\n      and\n      dup2\n      mstore\n      0x20\n      add\n      swap1\n      dup2\n      mstore\n      0x20\n      add\n      0x00\n      keccak256\n        /* \"contracts/Logic/LockLogic.sol\":2186:2217  lockedBalance[_sender] = amount */\n      dup2\n      swap1\n      sstore\n      pop\n        /* \"contracts/Logic/LockLogic.sol\":2251:2266  block.timestamp */\n      timestamp\n        /* \"contracts/Logic/LockLogic.sol\":2227:2239  _lastBuyTime */\n      0x04\n        /* \"contracts/Logic/LockLogic.sol\":2227:2248  _lastBuyTime[_sender] */\n      0x00\n        /* \"contracts/Logic/LockLogic.sol\":2240:2247  _sender */\n      dup5\n        /* \"contracts/Logic/LockLogic.sol\":2227:2248  _lastBuyTime[_sender] */\n      0xffffffffffffffffffffffffffffffffffffffff\n      and\n      0xffffffffffffffffffffffffffffffffffffffff\n      and\n      dup2\n      mstore\n      0x20\n      add\n      swap1\n      dup2\n      mstore\n      0x20\n      add\n      0x00\n      keccak256\n        /* \"contracts/Logic/LockLogic.sol\":2227:2266  _lastBuyTime[_sender] = block.timestamp */\n      dup2\n      swap1\n      sstore\n      pop\n        /* \"contracts/Logic/LockLogic.sol\":2106:2273  function lockTokens(address _sender, uint256 amount) public onlyOwner {... */\n      pop\n      pop\n      jump\t// out\n        /* \"@openzeppelin/contracts/access/Ownable.sol\":2081:2279  function transferOwnership(address newOwner) public virtual onlyOwner {... */\n    tag_65:\n        /* \"@openzeppelin/contracts/access/Ownable.sol\":1094:1107  _checkOwner() */\n      tag_112\n        /* \"@openzeppelin/contracts/access/Ownable.sol\":1094:1105  _checkOwner */\n      tag_84\n        /* \"@openzeppelin/contracts/access/Ownable.sol\":1094:1107  _checkOwner() */\n      jump\t// in\n    tag_112:\n        /* \"@openzeppelin/contracts/access/Ownable.sol\":2189:2190  0 */\n      0x00\n        /* \"@openzeppelin/contracts/access/Ownable.sol\":2169:2191  newOwner != address(0) */\n      0xffffffffffffffffffffffffffffffffffffffff\n      and\n        /* \"@openzeppelin/contracts/access/Ownable.sol\":2169:2177  newOwner */\n      dup2\n        /* \"@openzeppelin/contracts/access/Ownable.sol\":2169:2191  newOwner != address(0) */\n      0xffffffffffffffffffffffffffffffffffffffff\n      and\n      sub\n        /* \"@openzeppelin/contracts/access/Ownable.sol\":2161:2234  require(newOwner != address(0), \"Ownable: new owner is the zero address\") */\n      tag_114\n      jumpi\n      mload(0x40)\n      0x08c379a000000000000000000000000000000000000000000000000000000000\n      dup2\n      mstore\n      0x04\n      add\n      tag_115\n      swap1\n      tag_116\n      jump\t// in\n    tag_115:\n      mload(0x40)\n      dup1\n      swap2\n      sub\n      swap1\n      revert\n    tag_114:\n        /* \"@openzeppelin/contracts/access/Ownable.sol\":2244:2272  _transferOwnership(newOwner) */\n      tag_117\n        /* \"@openzeppelin/contracts/access/Ownable.sol\":2263:2271  newOwner */\n      dup2\n        /* \"@openzeppelin/contracts/access/Ownable.sol\":2244:2262  _transferOwnership */\n      tag_99\n        /* \"@openzeppelin/contracts/access/Ownable.sol\":2244:2272  _transferOwnership(newOwner) */\n      jump\t// in\n    tag_117:\n        /* \"@openzeppelin/contracts/access/Ownable.sol\":2081:2279  function transferOwnership(address newOwner) public virtual onlyOwner {... */\n      pop\n      jump\t// out\n        /* \"contracts/Logic/LockLogic.sol\":793:812  bool public canSell */\n    tag_68:\n      0x09\n      0x00\n      swap1\n      sload\n      swap1\n      0x0100\n      exp\n      swap1\n      div\n      0xff\n      and\n      dup2\n      jump\t// out\n        /* \"@openzeppelin/contracts/token/ERC20/utils/SafeERC20.sol\":763:968  function safeTransfer(... */\n    tag_79:\n        /* \"@openzeppelin/contracts/token/ERC20/utils/SafeERC20.sol\":875:961  _callOptionalReturn(token, abi.encodeWithSelector(token.transfer.selector, to, value)) */\n      tag_119\n        /* \"@openzeppelin/contracts/token/ERC20/utils/SafeERC20.sol\":895:900  token */\n      dup4\n        /* \"@openzeppelin/contracts/token/ERC20/utils/SafeERC20.sol\":925:948  token.transfer.selector */\n      shl(0xe0, 0xa9059cbb)\n        /* \"@openzeppelin/contracts/token/ERC20/utils/SafeERC20.sol\":950:952  to */\n      dup5\n        /* \"@openzeppelin/contracts/token/ERC20/utils/SafeERC20.sol\":954:959  value */\n      dup5\n        /* \"@openzeppelin/contracts/token/ERC20/utils/SafeERC20.sol\":902:960  abi.encodeWithSelector(token.transfer.selector, to, value) */\n      add(0x24, mload(0x40))\n      tag_120\n      swap3\n      swap2\n      swap1\n      tag_121\n      jump\t// in\n    tag_120:\n      mload(0x40)\n      0x20\n      dup2\n      dup4\n      sub\n      sub\n      dup2\n      mstore\n      swap1\n      0x40\n      mstore\n      swap1\n      not(0xffffffffffffffffffffffffffffffffffffffffffffffffffffffff)\n      and\n      0x20\n      dup3\n      add\n      dup1\n      mload\n      0xffffffffffffffffffffffffffffffffffffffffffffffffffffffff\n      dup4\n      dup2\n      dup4\n      and\n      or\n      dup4\n      mstore\n      pop\n      pop\n      pop\n      pop\n        /* \"@openzeppelin/contracts/token/ERC20/utils/SafeERC20.sol\":875:894  _callOptionalReturn */\n      tag_122\n        /* \"@openzeppelin/contracts/token/ERC20/utils/SafeERC20.sol\":875:961  _callOptionalReturn(token, abi.encodeWithSelector(token.transfer.selector, to, value)) */\n      jump\t// in\n    tag_119:\n        /* \"@openzeppelin/contracts/token/ERC20/utils/SafeERC20.sol\":763:968  function safeTransfer(... */\n      pop\n      pop\n      pop\n      jump\t// out\n        /* \"@openzeppelin/contracts/access/Ownable.sol\":1359:1489  function _checkOwner() internal view virtual {... */\n    tag_84:\n        /* \"@openzeppelin/contracts/access/Ownable.sol\":1433:1445  _msgSender() */\n      tag_124\n        /* \"@openzeppelin/contracts/access/Ownable.sol\":1433:1443  _msgSender */\n      tag_125\n        /* \"@openzeppelin/contracts/access/Ownable.sol\":1433:1445  _msgSender() */\n      jump\t// in\n    tag_124:\n        /* \"@openzeppelin/contracts/access/Ownable.sol\":1422:1445  owner() == _msgSender() */\n      0xffffffffffffffffffffffffffffffffffffffff\n      and\n        /* \"@openzeppelin/contracts/access/Ownable.sol\":1422:1429  owner() */\n      tag_126\n        /* \"@openzeppelin/contracts/access/Ownable.sol\":1422:1427  owner */\n      tag_45\n        /* \"@openzeppelin/contracts/access/Ownable.sol\":1422:1429  owner() */\n      jump\t// in\n    tag_126:\n        /* \"@openzeppelin/contracts/access/Ownable.sol\":1422:1445  owner() == _msgSender() */\n      0xffffffffffffffffffffffffffffffffffffffff\n      and\n      eq\n        /* \"@openzeppelin/contracts/access/Ownable.sol\":1414:1482  require(owner() == _msgSender(), \"Ownable: caller is not the owner\") */\n      tag_127\n      jumpi\n      mload(0x40)\n      0x08c379a000000000000000000000000000000000000000000000000000000000\n      dup2\n      mstore\n      0x04\n      add\n      tag_128\n      swap1\n      tag_129\n      jump\t// in\n    tag_128:\n      mload(0x40)\n      dup1\n      swap2\n      sub\n      swap1\n      revert\n    tag_127:\n        /* \"@openzeppelin/contracts/access/Ownable.sol\":1359:1489  function _checkOwner() internal view virtual {... */\n      jump\t// out\n        /* \"contracts/Logic/LockLogic.sol\":823:1720  function verifySellPermissions(address _sender, uint256 amount)... */\n    tag_87:\n        /* \"contracts/Logic/LockLogic.sol\":921:925  bool */\n      0x00\n        /* \"contracts/Logic/LockLogic.sol\":1181:1185  true */\n      0x01\n        /* \"contracts/Logic/LockLogic.sol\":1157:1185  _vipHolders[_sender] == true */\n      iszero\n      iszero\n        /* \"contracts/Logic/LockLogic.sol\":1157:1168  _vipHolders */\n      0x05\n        /* \"contracts/Logic/LockLogic.sol\":1157:1177  _vipHolders[_sender] */\n      0x00\n        /* \"contracts/Logic/LockLogic.sol\":1169:1176  _sender */\n      dup6\n        /* \"contracts/Logic/LockLogic.sol\":1157:1177  _vipHolders[_sender] */\n      0xffffffffffffffffffffffffffffffffffffffff\n      and\n      0xffffffffffffffffffffffffffffffffffffffff\n      and\n      dup2\n      mstore\n      0x20\n      add\n      swap1\n      dup2\n      mstore\n      0x20\n      add\n      0x00\n      keccak256\n      0x00\n      swap1\n      sload\n      swap1\n      0x0100\n      exp\n      swap1\n      div\n      0xff\n      and\n        /* \"contracts/Logic/LockLogic.sol\":1157:1185  _vipHolders[_sender] == true */\n      iszero\n      iszero\n      eq\n        /* \"contracts/Logic/LockLogic.sol\":1157:1216  _vipHolders[_sender] == true &&... */\n      dup1\n      iszero\n      tag_131\n      jumpi\n      pop\n        /* \"contracts/Logic/LockLogic.sol\":1212:1216  true */\n      0x01\n        /* \"contracts/Logic/LockLogic.sol\":1201:1216  canSell == true */\n      iszero\n      iszero\n        /* \"contracts/Logic/LockLogic.sol\":1201:1208  canSell */\n      0x09\n      0x00\n      swap1\n      sload\n      swap1\n      0x0100\n      exp\n      swap1\n      div\n      0xff\n      and\n        /* \"contracts/Logic/LockLogic.sol\":1201:1216  canSell == true */\n      iszero\n      iszero\n      eq\n        /* \"contracts/Logic/LockLogic.sol\":1157:1216  _vipHolders[_sender] == true &&... */\n    tag_131:\n        /* \"contracts/Logic/LockLogic.sol\":1157:1299  _vipHolders[_sender] == true &&... */\n      dup1\n      iszero\n      tag_132\n      jumpi\n      pop\n        /* \"contracts/Logic/LockLogic.sol\":1289:1299  25 seconds */\n      0x19\n        /* \"contracts/Logic/LockLogic.sol\":1271:1286  block.timestamp */\n      timestamp\n        /* \"contracts/Logic/LockLogic.sol\":1271:1299  block.timestamp + 25 seconds */\n      tag_133\n      swap2\n      swap1\n      tag_94\n      jump\t// in\n    tag_133:\n        /* \"contracts/Logic/LockLogic.sol\":1256:1268  lockDuration */\n      sload(0x03)\n        /* \"contracts/Logic/LockLogic.sol\":1232:1244  _lastBuyTime */\n      0x04\n        /* \"contracts/Logic/LockLogic.sol\":1232:1253  _lastBuyTime[_sender] */\n      0x00\n        /* \"contracts/Logic/LockLogic.sol\":1245:1252  _sender */\n      dup7\n        /* \"contracts/Logic/LockLogic.sol\":1232:1253  _lastBuyTime[_sender] */\n      0xffffffffffffffffffffffffffffffffffffffff\n      and\n      0xffffffffffffffffffffffffffffffffffffffff\n      and\n      dup2\n      mstore\n      0x20\n      add\n      swap1\n      dup2\n      mstore\n      0x20\n      add\n      0x00\n      keccak256\n      sload\n        /* \"contracts/Logic/LockLogic.sol\":1232:1268  _lastBuyTime[_sender] + lockDuration */\n      tag_134\n      swap2\n      swap1\n      tag_94\n      jump\t// in\n    tag_134:\n        /* \"contracts/Logic/LockLogic.sol\":1232:1299  _lastBuyTime[_sender] + lockDuration > block.timestamp + 25 seconds */\n      gt\n        /* \"contracts/Logic/LockLogic.sol\":1157:1299  _vipHolders[_sender] == true &&... */\n    tag_132:\n        /* \"contracts/Logic/LockLogic.sol\":1140:1714  if (... */\n      iszero\n      tag_135\n      jumpi\n        /* \"contracts/Logic/LockLogic.sol\":1349:1350  0 */\n      0x00\n        /* \"contracts/Logic/LockLogic.sol\":1324:1337  lockedBalance */\n      0x07\n        /* \"contracts/Logic/LockLogic.sol\":1324:1346  lockedBalance[_sender] */\n      0x00\n        /* \"contracts/Logic/LockLogic.sol\":1338:1345  _sender */\n      dup6\n        /* \"contracts/Logic/LockLogic.sol\":1324:1346  lockedBalance[_sender] */\n      0xffffffffffffffffffffffffffffffffffffffff\n      and\n      0xffffffffffffffffffffffffffffffffffffffff\n      and\n      dup2\n      mstore\n      0x20\n      add\n      swap1\n      dup2\n      mstore\n      0x20\n      add\n      0x00\n      keccak256\n        /* \"contracts/Logic/LockLogic.sol\":1324:1350  lockedBalance[_sender] = 0 */\n      dup2\n      swap1\n      sstore\n      pop\n        /* \"contracts/Logic/LockLogic.sol\":1387:1391  true */\n      0x01\n        /* \"contracts/Logic/LockLogic.sol\":1364:1375  _isUnlocked */\n      0x06\n        /* \"contracts/Logic/LockLogic.sol\":1364:1384  _isUnlocked[_sender] */\n      0x00\n        /* \"contracts/Logic/LockLogic.sol\":1376:1383  _sender */\n      dup6\n        /* \"contracts/Logic/LockLogic.sol\":1364:1384  _isUnlocked[_sender] */\n      0xffffffffffffffffffffffffffffffffffffffff\n      and\n      0xffffffffffffffffffffffffffffffffffffffff\n      and\n      dup2\n      mstore\n      0x20\n      add\n      swap1\n      dup2\n      mstore\n      0x20\n      add\n      0x00\n      keccak256\n      0x00\n        /* \"contracts/Logic/LockLogic.sol\":1364:1391  _isUnlocked[_sender] = true */\n      0x0100\n      exp\n      dup2\n      sload\n      dup2\n      0xff\n      mul\n      not\n      and\n      swap1\n      dup4\n      iszero\n      iszero\n      mul\n      or\n      swap1\n      sstore\n      pop\n        /* \"contracts/Logic/LockLogic.sol\":1412:1416  true */\n      0x01\n        /* \"contracts/Logic/LockLogic.sol\":1405:1416  return true */\n      swap1\n      pop\n      jump(tag_130)\n        /* \"contracts/Logic/LockLogic.sol\":1140:1714  if (... */\n    tag_135:\n        /* \"contracts/Logic/LockLogic.sol\":1438:1471  isHavingAvailableBalance(_sender) */\n      tag_137\n        /* \"contracts/Logic/LockLogic.sol\":1463:1470  _sender */\n      dup4\n        /* \"contracts/Logic/LockLogic.sol\":1438:1462  isHavingAvailableBalance */\n      tag_27\n        /* \"contracts/Logic/LockLogic.sol\":1438:1471  isHavingAvailableBalance(_sender) */\n      jump\t// in\n    tag_137:\n        /* \"contracts/Logic/LockLogic.sol\":1433:1714  if (!isHavingAvailableBalance(_sender)) {... */\n      tag_138\n      jumpi\n        /* \"contracts/Logic/LockLogic.sol\":1494:1499  false */\n      0x00\n        /* \"contracts/Logic/LockLogic.sol\":1487:1499  return false */\n      swap1\n      pop\n      jump(tag_130)\n        /* \"contracts/Logic/LockLogic.sol\":1433:1714  if (!isHavingAvailableBalance(_sender)) {... */\n    tag_138:\n        /* \"contracts/Logic/LockLogic.sol\":1529:1554  availableBalance(_sender) */\n      tag_140\n        /* \"contracts/Logic/LockLogic.sol\":1546:1553  _sender */\n      dup4\n        /* \"contracts/Logic/LockLogic.sol\":1529:1545  availableBalance */\n      tag_56\n        /* \"contracts/Logic/LockLogic.sol\":1529:1554  availableBalance(_sender) */\n      jump\t// in\n    tag_140:\n        /* \"contracts/Logic/LockLogic.sol\":1520:1526  amount */\n      dup3\n        /* \"contracts/Logic/LockLogic.sol\":1520:1554  amount > availableBalance(_sender) */\n      gt\n        /* \"contracts/Logic/LockLogic.sol\":1516:1714  if (amount > availableBalance(_sender)) {... */\n      iszero\n      tag_141\n      jumpi\n        /* \"contracts/Logic/LockLogic.sol\":1577:1582  false */\n      0x00\n        /* \"contracts/Logic/LockLogic.sol\":1570:1582  return false */\n      swap1\n      pop\n      jump(tag_130)\n        /* \"contracts/Logic/LockLogic.sol\":1516:1714  if (amount > availableBalance(_sender)) {... */\n    tag_141:\n        /* \"contracts/Logic/LockLogic.sol\":1627:1631  true */\n      0x01\n        /* \"contracts/Logic/LockLogic.sol\":1603:1631  _isUnlocked[_sender] == true */\n      iszero\n      iszero\n        /* \"contracts/Logic/LockLogic.sol\":1603:1614  _isUnlocked */\n      0x06\n        /* \"contracts/Logic/LockLogic.sol\":1603:1623  _isUnlocked[_sender] */\n      0x00\n        /* \"contracts/Logic/LockLogic.sol\":1615:1622  _sender */\n      dup6\n        /* \"contracts/Logic/LockLogic.sol\":1603:1623  _isUnlocked[_sender] */\n      0xffffffffffffffffffffffffffffffffffffffff\n      and\n      0xffffffffffffffffffffffffffffffffffffffff\n      and\n      dup2\n      mstore\n      0x20\n      add\n      swap1\n      dup2\n      mstore\n      0x20\n      add\n      0x00\n      keccak256\n      0x00\n      swap1\n      sload\n      swap1\n      0x0100\n      exp\n      swap1\n      div\n      0xff\n      and\n        /* \"contracts/Logic/LockLogic.sol\":1603:1631  _isUnlocked[_sender] == true */\n      iszero\n      iszero\n      sub\n        /* \"contracts/Logic/LockLogic.sol\":1599:1714  if (_isUnlocked[_sender] == true) {... */\n      tag_143\n      jumpi\n        /* \"contracts/Logic/LockLogic.sol\":1654:1658  true */\n      0x01\n        /* \"contracts/Logic/LockLogic.sol\":1647:1658  return true */\n      swap1\n      pop\n      jump(tag_130)\n        /* \"contracts/Logic/LockLogic.sol\":1599:1714  if (_isUnlocked[_sender] == true) {... */\n    tag_143:\n        /* \"contracts/Logic/LockLogic.sol\":1696:1703  canSell */\n      0x09\n      0x00\n      swap1\n      sload\n      swap1\n      0x0100\n      exp\n      swap1\n      div\n      0xff\n      and\n        /* \"contracts/Logic/LockLogic.sol\":1689:1703  return canSell */\n      swap1\n      pop\n        /* \"contracts/Logic/LockLogic.sol\":823:1720  function verifySellPermissions(address _sender, uint256 amount)... */\n    tag_130:\n      swap3\n      swap2\n      pop\n      pop\n      jump\t// out\n        /* \"@openzeppelin/contracts/access/Ownable.sol\":2433:2620  function _transferOwnership(address newOwner) internal virtual {... */\n    tag_99:\n        /* \"@openzeppelin/contracts/access/Ownable.sol\":2506:2522  address oldOwner */\n      0x00\n        /* \"@openzeppelin/contracts/access/Ownable.sol\":2525:2531  _owner */\n      dup1\n      0x00\n      swap1\n      sload\n      swap1\n      0x0100\n      exp\n      swap1\n      div\n      0xffffffffffffffffffffffffffffffffffffffff\n      and\n        /* \"@openzeppelin/contracts/access/Ownable.sol\":2506:2531  address oldOwner = _owner */\n      swap1\n      pop\n        /* \"@openzeppelin/contracts/access/Ownable.sol\":2550:2558  newOwner */\n      dup2\n        /* \"@openzeppelin/contracts/access/Ownable.sol\":2541:2547  _owner */\n      0x00\n      dup1\n        /* \"@openzeppelin/contracts/access/Ownable.sol\":2541:2558  _owner = newOwner */\n      0x0100\n      exp\n      dup2\n      sload\n      dup2\n      0xffffffffffffffffffffffffffffffffffffffff\n      mul\n      not\n      and\n      swap1\n      dup4\n      0xffffffffffffffffffffffffffffffffffffffff\n      and\n      mul\n      or\n      swap1\n      sstore\n      pop\n        /* \"@openzeppelin/contracts/access/Ownable.sol\":2604:2612  newOwner */\n      dup2\n        /* \"@openzeppelin/contracts/access/Ownable.sol\":2573:2613  OwnershipTransferred(oldOwner, newOwner) */\n      0xffffffffffffffffffffffffffffffffffffffff\n      and\n        /* \"@openzeppelin/contracts/access/Ownable.sol\":2594:2602  oldOwner */\n      dup2\n        /* \"@openzeppelin/contracts/access/Ownable.sol\":2573:2613  OwnershipTransferred(oldOwner, newOwner) */\n      0xffffffffffffffffffffffffffffffffffffffff\n      and\n      0x8be0079c531659141344cd1fd0a4f28419497f9722a3daafe3b4186f6b6457e0\n      mload(0x40)\n      mload(0x40)\n      dup1\n      swap2\n      sub\n      swap1\n      log3\n        /* \"@openzeppelin/contracts/access/Ownable.sol\":2496:2620  {... */\n      pop\n        /* \"@openzeppelin/contracts/access/Ownable.sol\":2433:2620  function _transferOwnership(address newOwner) internal virtual {... */\n      pop\n      jump\t// out\n        /* \"@openzeppelin/contracts/token/ERC20/utils/SafeERC20.sol\":3747:4453  function _callOptionalReturn(IERC20 token, bytes memory data) private {... */\n    tag_122:\n        /* \"@openzeppelin/contracts/token/ERC20/utils/SafeERC20.sol\":4166:4189  bytes memory returndata */\n      0x00\n        /* \"@openzeppelin/contracts/token/ERC20/utils/SafeERC20.sol\":4192:4261  address(token).functionCall(data, \"SafeERC20: low-level call failed\") */\n      tag_147\n        /* \"@openzeppelin/contracts/token/ERC20/utils/SafeERC20.sol\":4220:4224  data */\n      dup3\n        /* \"@openzeppelin/contracts/token/ERC20/utils/SafeERC20.sol\":4192:4261  address(token).functionCall(data, \"SafeERC20: low-level call failed\") */\n      mload(0x40)\n      dup1\n      0x40\n      add\n      0x40\n      mstore\n      dup1\n      0x20\n      dup2\n      mstore\n      0x20\n      add\n      0x5361666545524332303a206c6f772d6c6576656c2063616c6c206661696c6564\n      dup2\n      mstore\n      pop\n        /* \"@openzeppelin/contracts/token/ERC20/utils/SafeERC20.sol\":4200:4205  token */\n      dup6\n        /* \"@openzeppelin/contracts/token/ERC20/utils/SafeERC20.sol\":4192:4219  address(token).functionCall */\n      0xffffffffffffffffffffffffffffffffffffffff\n      and\n      tag_148\n      swap1\n        /* \"@openzeppelin/contracts/token/ERC20/utils/SafeERC20.sol\":4192:4261  address(token).functionCall(data, \"SafeERC20: low-level call failed\") */\n      swap3\n      swap2\n      swap1\n      0xffffffff\n      and\n      jump\t// in\n    tag_147:\n        /* \"@openzeppelin/contracts/token/ERC20/utils/SafeERC20.sol\":4166:4261  bytes memory returndata = address(token).functionCall(data, \"SafeERC20: low-level call failed\") */\n      swap1\n      pop\n        /* \"@openzeppelin/contracts/token/ERC20/utils/SafeERC20.sol\":4295:4296  0 */\n      0x00\n        /* \"@openzeppelin/contracts/token/ERC20/utils/SafeERC20.sol\":4275:4285  returndata */\n      dup2\n        /* \"@openzeppelin/contracts/token/ERC20/utils/SafeERC20.sol\":4275:4292  returndata.length */\n      mload\n        /* \"@openzeppelin/contracts/token/ERC20/utils/SafeERC20.sol\":4275:4296  returndata.length > 0 */\n      gt\n        /* \"@openzeppelin/contracts/token/ERC20/utils/SafeERC20.sol\":4271:4447  if (returndata.length > 0) {... */\n      iszero\n      tag_149\n      jumpi\n        /* \"@openzeppelin/contracts/token/ERC20/utils/SafeERC20.sol\":4370:4380  returndata */\n      dup1\n        /* \"@openzeppelin/contracts/token/ERC20/utils/SafeERC20.sol\":4359:4389  abi.decode(returndata, (bool)) */\n      dup1\n      0x20\n      add\n      swap1\n      mload\n      dup2\n      add\n      swap1\n      tag_150\n      swap2\n      swap1\n      tag_151\n      jump\t// in\n    tag_150:\n        /* \"@openzeppelin/contracts/token/ERC20/utils/SafeERC20.sol\":4351:4436  require(abi.decode(returndata, (bool)), \"SafeERC20: ERC20 operation did not succeed\") */\n      tag_152\n      jumpi\n      mload(0x40)\n      0x08c379a000000000000000000000000000000000000000000000000000000000\n      dup2\n      mstore\n      0x04\n      add\n      tag_153\n      swap1\n      tag_154\n      jump\t// in\n    tag_153:\n      mload(0x40)\n      dup1\n      swap2\n      sub\n      swap1\n      revert\n    tag_152:\n        /* \"@openzeppelin/contracts/token/ERC20/utils/SafeERC20.sol\":4271:4447  if (returndata.length > 0) {... */\n    tag_149:\n        /* \"@openzeppelin/contracts/token/ERC20/utils/SafeERC20.sol\":3817:4453  {... */\n      pop\n        /* \"@openzeppelin/contracts/token/ERC20/utils/SafeERC20.sol\":3747:4453  function _callOptionalReturn(IERC20 token, bytes memory data) private {... */\n      pop\n      pop\n      jump\t// out\n        /* \"@openzeppelin/contracts/utils/Context.sol\":640:736  function _msgSender() internal view virtual returns (address) {... */\n    tag_125:\n        /* \"@openzeppelin/contracts/utils/Context.sol\":693:700  address */\n      0x00\n        /* \"@openzeppelin/contracts/utils/Context.sol\":719:729  msg.sender */\n      caller\n        /* \"@openzeppelin/contracts/utils/Context.sol\":712:729  return msg.sender */\n      swap1\n      pop\n        /* \"@openzeppelin/contracts/utils/Context.sol\":640:736  function _msgSender() internal view virtual returns (address) {... */\n      swap1\n      jump\t// out\n        /* \"@openzeppelin/contracts/utils/Address.sol\":3861:4084  function functionCall(... */\n    tag_148:\n        /* \"@openzeppelin/contracts/utils/Address.sol\":3994:4006  bytes memory */\n      0x60\n        /* \"@openzeppelin/contracts/utils/Address.sol\":4025:4077  functionCallWithValue(target, data, 0, errorMessage) */\n      tag_157\n        /* \"@openzeppelin/contracts/utils/Address.sol\":4047:4053  target */\n      dup5\n        /* \"@openzeppelin/contracts/utils/Address.sol\":4055:4059  data */\n      dup5\n        /* \"@openzeppelin/contracts/utils/Address.sol\":4061:4062  0 */\n      0x00\n        /* \"@openzeppelin/contracts/utils/Address.sol\":4064:4076  errorMessage */\n      dup6\n        /* \"@openzeppelin/contracts/utils/Address.sol\":4025:4046  functionCallWithValue */\n      tag_158\n        /* \"@openzeppelin/contracts/utils/Address.sol\":4025:4077  functionCallWithValue(target, data, 0, errorMessage) */\n      jump\t// in\n    tag_157:\n        /* \"@openzeppelin/contracts/utils/Address.sol\":4018:4077  return functionCallWithValue(target, data, 0, errorMessage) */\n      swap1\n      pop\n        /* \"@openzeppelin/contracts/utils/Address.sol\":3861:4084  function functionCall(... */\n      swap4\n      swap3\n      pop\n      pop\n      pop\n      jump\t// out\n        /* \"@openzeppelin/contracts/utils/Address.sol\":4948:5447  function functionCallWithValue(... */\n    tag_158:\n        /* \"@openzeppelin/contracts/utils/Address.sol\":5113:5125  bytes memory */\n      0x60\n        /* \"@openzeppelin/contracts/utils/Address.sol\":5170:5175  value */\n      dup3\n        /* \"@openzeppelin/contracts/utils/Address.sol\":5145:5166  address(this).balance */\n      selfbalance\n        /* \"@openzeppelin/contracts/utils/Address.sol\":5145:5175  address(this).balance >= value */\n      lt\n      iszero\n        /* \"@openzeppelin/contracts/utils/Address.sol\":5137:5218  require(address(this).balance >= value, \"Address: insufficient balance for call\") */\n      tag_160\n      jumpi\n      mload(0x40)\n      0x08c379a000000000000000000000000000000000000000000000000000000000\n      dup2\n      mstore\n      0x04\n      add\n      tag_161\n      swap1\n      tag_162\n      jump\t// in\n    tag_161:\n      mload(0x40)\n      dup1\n      swap2\n      sub\n      swap1\n      revert\n    tag_160:\n        /* \"@openzeppelin/contracts/utils/Address.sol\":5236:5254  isContract(target) */\n      tag_163\n        /* \"@openzeppelin/contracts/utils/Address.sol\":5247:5253  target */\n      dup6\n        /* \"@openzeppelin/contracts/utils/Address.sol\":5236:5246  isContract */\n      tag_164\n        /* \"@openzeppelin/contracts/utils/Address.sol\":5236:5254  isContract(target) */\n      jump\t// in\n    tag_163:\n        /* \"@openzeppelin/contracts/utils/Address.sol\":5228:5288  require(isContract(target), \"Address: call to non-contract\") */\n      tag_165\n      jumpi\n      mload(0x40)\n      0x08c379a000000000000000000000000000000000000000000000000000000000\n      dup2\n      mstore\n      0x04\n      add\n      tag_166\n      swap1\n      tag_167\n      jump\t// in\n    tag_166:\n      mload(0x40)\n      dup1\n      swap2\n      sub\n      swap1\n      revert\n    tag_165:\n        /* \"@openzeppelin/contracts/utils/Address.sol\":5300:5312  bool success */\n      0x00\n        /* \"@openzeppelin/contracts/utils/Address.sol\":5314:5337  bytes memory returndata */\n      dup1\n        /* \"@openzeppelin/contracts/utils/Address.sol\":5341:5347  target */\n      dup7\n        /* \"@openzeppelin/contracts/utils/Address.sol\":5341:5352  target.call */\n      0xffffffffffffffffffffffffffffffffffffffff\n      and\n        /* \"@openzeppelin/contracts/utils/Address.sol\":5360:5365  value */\n      dup6\n        /* \"@openzeppelin/contracts/utils/Address.sol\":5367:5371  data */\n      dup8\n        /* \"@openzeppelin/contracts/utils/Address.sol\":5341:5372  target.call{value: value}(data) */\n      mload(0x40)\n      tag_168\n      swap2\n      swap1\n      tag_169\n      jump\t// in\n    tag_168:\n      0x00\n      mload(0x40)\n      dup1\n      dup4\n      sub\n      dup2\n      dup6\n      dup8\n      gas\n      call\n      swap3\n      pop\n      pop\n      pop\n      returndatasize\n      dup1\n      0x00\n      dup2\n      eq\n      tag_172\n      jumpi\n      mload(0x40)\n      swap2\n      pop\n      and(add(returndatasize, 0x3f), not(0x1f))\n      dup3\n      add\n      0x40\n      mstore\n      returndatasize\n      dup3\n      mstore\n      returndatasize\n      0x00\n      0x20\n      dup5\n      add\n      returndatacopy\n      jump(tag_171)\n    tag_172:\n      0x60\n      swap2\n      pop\n    tag_171:\n      pop\n        /* \"@openzeppelin/contracts/utils/Address.sol\":5299:5372  (bool success, bytes memory returndata) = target.call{value: value}(data) */\n      swap2\n      pop\n      swap2\n      pop\n        /* \"@openzeppelin/contracts/utils/Address.sol\":5389:5440  verifyCallResult(success, returndata, errorMessage) */\n      tag_173\n        /* \"@openzeppelin/contracts/utils/Address.sol\":5406:5413  success */\n      dup3\n        /* \"@openzeppelin/contracts/utils/Address.sol\":5415:5425  returndata */\n      dup3\n        /* \"@openzeppelin/contracts/utils/Address.sol\":5427:5439  errorMessage */\n      dup7\n        /* \"@openzeppelin/contracts/utils/Address.sol\":5389:5405  verifyCallResult */\n      tag_174\n        /* \"@openzeppelin/contracts/utils/Address.sol\":5389:5440  verifyCallResult(success, returndata, errorMessage) */\n      jump\t// in\n    tag_173:\n        /* \"@openzeppelin/contracts/utils/Address.sol\":5382:5440  return verifyCallResult(success, returndata, errorMessage) */\n      swap3\n      pop\n      pop\n      pop\n        /* \"@openzeppelin/contracts/utils/Address.sol\":4948:5447  function functionCallWithValue(... */\n      swap5\n      swap4\n      pop\n      pop\n      pop\n      pop\n      jump\t// out\n        /* \"@openzeppelin/contracts/utils/Address.sol\":1175:1495  function isContract(address account) internal view returns (bool) {... */\n    tag_164:\n        /* \"@openzeppelin/contracts/utils/Address.sol\":1235:1239  bool */\n      0x00\n        /* \"@openzeppelin/contracts/utils/Address.sol\":1487:1488  0 */\n      dup1\n        /* \"@openzeppelin/contracts/utils/Address.sol\":1465:1472  account */\n      dup3\n        /* \"@openzeppelin/contracts/utils/Address.sol\":1465:1484  account.code.length */\n      0xffffffffffffffffffffffffffffffffffffffff\n      and\n      extcodesize\n        /* \"@openzeppelin/contracts/utils/Address.sol\":1465:1488  account.code.length > 0 */\n      gt\n        /* \"@openzeppelin/contracts/utils/Address.sol\":1458:1488  return account.code.length > 0 */\n      swap1\n      pop\n        /* \"@openzeppelin/contracts/utils/Address.sol\":1175:1495  function isContract(address account) internal view returns (bool) {... */\n      swap2\n      swap1\n      pop\n      jump\t// out\n        /* \"@openzeppelin/contracts/utils/Address.sol\":7561:8303  function verifyCallResult(... */\n    tag_174:\n        /* \"@openzeppelin/contracts/utils/Address.sol\":7707:7719  bytes memory */\n      0x60\n        /* \"@openzeppelin/contracts/utils/Address.sol\":7735:7742  success */\n      dup4\n        /* \"@openzeppelin/contracts/utils/Address.sol\":7731:8297  if (success) {... */\n      iszero\n      tag_177\n      jumpi\n        /* \"@openzeppelin/contracts/utils/Address.sol\":7765:7775  returndata */\n      dup3\n        /* \"@openzeppelin/contracts/utils/Address.sol\":7758:7775  return returndata */\n      swap1\n      pop\n      jump(tag_176)\n        /* \"@openzeppelin/contracts/utils/Address.sol\":7731:8297  if (success) {... */\n    tag_177:\n        /* \"@openzeppelin/contracts/utils/Address.sol\":7896:7897  0 */\n      0x00\n        /* \"@openzeppelin/contracts/utils/Address.sol\":7876:7886  returndata */\n      dup4\n        /* \"@openzeppelin/contracts/utils/Address.sol\":7876:7893  returndata.length */\n      mload\n        /* \"@openzeppelin/contracts/utils/Address.sol\":7876:7897  returndata.length > 0 */\n      gt\n        /* \"@openzeppelin/contracts/utils/Address.sol\":7872:8287  if (returndata.length > 0) {... */\n      iszero\n      tag_179\n      jumpi\n        /* \"@openzeppelin/contracts/utils/Address.sol\":8120:8130  returndata */\n      dup3\n        /* \"@openzeppelin/contracts/utils/Address.sol\":8114:8131  mload(returndata) */\n      mload\n        /* \"@openzeppelin/contracts/utils/Address.sol\":8180:8195  returndata_size */\n      dup1\n        /* \"@openzeppelin/contracts/utils/Address.sol\":8167:8177  returndata */\n      dup5\n        /* \"@openzeppelin/contracts/utils/Address.sol\":8163:8165  32 */\n      0x20\n        /* \"@openzeppelin/contracts/utils/Address.sol\":8159:8178  add(32, returndata) */\n      add\n        /* \"@openzeppelin/contracts/utils/Address.sol\":8152:8196  revert(add(32, returndata), returndata_size) */\n      revert\n        /* \"@openzeppelin/contracts/utils/Address.sol\":7872:8287  if (returndata.length > 0) {... */\n    tag_179:\n        /* \"@openzeppelin/contracts/utils/Address.sol\":8259:8271  errorMessage */\n      dup2\n        /* \"@openzeppelin/contracts/utils/Address.sol\":8252:8272  revert(errorMessage) */\n      mload(0x40)\n      0x08c379a000000000000000000000000000000000000000000000000000000000\n      dup2\n      mstore\n      0x04\n      add\n      tag_181\n      swap2\n      swap1\n      tag_182\n      jump\t// in\n    tag_181:\n      mload(0x40)\n      dup1\n      swap2\n      sub\n      swap1\n      revert\n        /* \"@openzeppelin/contracts/utils/Address.sol\":7561:8303  function verifyCallResult(... */\n    tag_176:\n      swap4\n      swap3\n      pop\n      pop\n      pop\n      jump\t// out\n        /* \"#utility.yul\":7:84   */\n    tag_183:\n        /* \"#utility.yul\":44:51   */\n      0x00\n        /* \"#utility.yul\":73:78   */\n      dup2\n        /* \"#utility.yul\":62:78   */\n      swap1\n      pop\n        /* \"#utility.yul\":7:84   */\n      swap2\n      swap1\n      pop\n      jump\t// out\n        /* \"#utility.yul\":90:208   */\n    tag_184:\n        /* \"#utility.yul\":177:201   */\n      tag_228\n        /* \"#utility.yul\":195:200   */\n      dup2\n        /* \"#utility.yul\":177:201   */\n      tag_183\n      jump\t// in\n    tag_228:\n        /* \"#utility.yul\":172:175   */\n      dup3\n        /* \"#utility.yul\":165:202   */\n      mstore\n        /* \"#utility.yul\":90:208   */\n      pop\n      pop\n      jump\t// out\n        /* \"#utility.yul\":214:436   */\n    tag_19:\n        /* \"#utility.yul\":307:311   */\n      0x00\n        /* \"#utility.yul\":345:347   */\n      0x20\n        /* \"#utility.yul\":334:343   */\n      dup3\n        /* \"#utility.yul\":330:348   */\n      add\n        /* \"#utility.yul\":322:348   */\n      swap1\n      pop\n        /* \"#utility.yul\":358:429   */\n      tag_230\n        /* \"#utility.yul\":426:427   */\n      0x00\n        /* \"#utility.yul\":415:424   */\n      dup4\n        /* \"#utility.yul\":411:428   */\n      add\n        /* \"#utility.yul\":402:408   */\n      dup5\n        /* \"#utility.yul\":358:429   */\n      tag_184\n      jump\t// in\n    tag_230:\n        /* \"#utility.yul\":214:436   */\n      swap3\n      swap2\n      pop\n      pop\n      jump\t// out\n        /* \"#utility.yul\":523:640   */\n    tag_186:\n        /* \"#utility.yul\":632:633   */\n      0x00\n        /* \"#utility.yul\":629:630   */\n      dup1\n        /* \"#utility.yul\":622:634   */\n      revert\n        /* \"#utility.yul\":769:895   */\n    tag_188:\n        /* \"#utility.yul\":806:813   */\n      0x00\n        /* \"#utility.yul\":846:888   */\n      0xffffffffffffffffffffffffffffffffffffffff\n        /* \"#utility.yul\":839:844   */\n      dup3\n        /* \"#utility.yul\":835:889   */\n      and\n        /* \"#utility.yul\":824:889   */\n      swap1\n      pop\n        /* \"#utility.yul\":769:895   */\n      swap2\n      swap1\n      pop\n      jump\t// out\n        /* \"#utility.yul\":901:997   */\n    tag_189:\n        /* \"#utility.yul\":938:945   */\n      0x00\n        /* \"#utility.yul\":967:991   */\n      tag_236\n        /* \"#utility.yul\":985:990   */\n      dup3\n        /* \"#utility.yul\":967:991   */\n      tag_188\n      jump\t// in\n    tag_236:\n        /* \"#utility.yul\":956:991   */\n      swap1\n      pop\n        /* \"#utility.yul\":901:997   */\n      swap2\n      swap1\n      pop\n      jump\t// out\n        /* \"#utility.yul\":1003:1125   */\n    tag_190:\n        /* \"#utility.yul\":1076:1100   */\n      tag_238\n        /* \"#utility.yul\":1094:1099   */\n      dup2\n        /* \"#utility.yul\":1076:1100   */\n      tag_189\n      jump\t// in\n    tag_238:\n        /* \"#utility.yul\":1069:1074   */\n      dup2\n        /* \"#utility.yul\":1066:1101   */\n      eq\n        /* \"#utility.yul\":1056:1119   */\n      tag_239\n      jumpi\n        /* \"#utility.yul\":1115:1116   */\n      0x00\n        /* \"#utility.yul\":1112:1113   */\n      dup1\n        /* \"#utility.yul\":1105:1117   */\n      revert\n        /* \"#utility.yul\":1056:1119   */\n    tag_239:\n        /* \"#utility.yul\":1003:1125   */\n      pop\n      jump\t// out\n        /* \"#utility.yul\":1131:1270   */\n    tag_191:\n        /* \"#utility.yul\":1177:1182   */\n      0x00\n        /* \"#utility.yul\":1215:1221   */\n      dup2\n        /* \"#utility.yul\":1202:1222   */\n      calldataload\n        /* \"#utility.yul\":1193:1222   */\n      swap1\n      pop\n        /* \"#utility.yul\":1231:1264   */\n      tag_241\n        /* \"#utility.yul\":1258:1263   */\n      dup2\n        /* \"#utility.yul\":1231:1264   */\n      tag_190\n      jump\t// in\n    tag_241:\n        /* \"#utility.yul\":1131:1270   */\n      swap3\n      swap2\n      pop\n      pop\n      jump\t// out\n        /* \"#utility.yul\":1276:1605   */\n    tag_22:\n        /* \"#utility.yul\":1335:1341   */\n      0x00\n        /* \"#utility.yul\":1384:1386   */\n      0x20\n        /* \"#utility.yul\":1372:1381   */\n      dup3\n        /* \"#utility.yul\":1363:1370   */\n      dup5\n        /* \"#utility.yul\":1359:1382   */\n      sub\n        /* \"#utility.yul\":1355:1387   */\n      slt\n        /* \"#utility.yul\":1352:1471   */\n      iszero\n      tag_243\n      jumpi\n        /* \"#utility.yul\":1390:1469   */\n      tag_244\n      tag_186\n      jump\t// in\n    tag_244:\n        /* \"#utility.yul\":1352:1471   */\n    tag_243:\n        /* \"#utility.yul\":1510:1511   */\n      0x00\n        /* \"#utility.yul\":1535:1588   */\n      tag_245\n        /* \"#utility.yul\":1580:1587   */\n      dup5\n        /* \"#utility.yul\":1571:1577   */\n      dup3\n        /* \"#utility.yul\":1560:1569   */\n      dup6\n        /* \"#utility.yul\":1556:1578   */\n      add\n        /* \"#utility.yul\":1535:1588   */\n      tag_191\n      jump\t// in\n    tag_245:\n        /* \"#utility.yul\":1525:1588   */\n      swap2\n      pop\n        /* \"#utility.yul\":1481:1598   */\n      pop\n        /* \"#utility.yul\":1276:1605   */\n      swap3\n      swap2\n      pop\n      pop\n      jump\t// out\n        /* \"#utility.yul\":1611:1701   */\n    tag_192:\n        /* \"#utility.yul\":1645:1652   */\n      0x00\n        /* \"#utility.yul\":1688:1693   */\n      dup2\n        /* \"#utility.yul\":1681:1694   */\n      iszero\n        /* \"#utility.yul\":1674:1695   */\n      iszero\n        /* \"#utility.yul\":1663:1695   */\n      swap1\n      pop\n        /* \"#utility.yul\":1611:1701   */\n      swap2\n      swap1\n      pop\n      jump\t// out\n        /* \"#utility.yul\":1707:1816   */\n    tag_193:\n        /* \"#utility.yul\":1788:1809   */\n      tag_248\n        /* \"#utility.yul\":1803:1808   */\n      dup2\n        /* \"#utility.yul\":1788:1809   */\n      tag_192\n      jump\t// in\n    tag_248:\n        /* \"#utility.yul\":1783:1786   */\n      dup3\n        /* \"#utility.yul\":1776:1810   */\n      mstore\n        /* \"#utility.yul\":1707:1816   */\n      pop\n      pop\n      jump\t// out\n        /* \"#utility.yul\":1822:2032   */\n    tag_29:\n        /* \"#utility.yul\":1909:1913   */\n      0x00\n        /* \"#utility.yul\":1947:1949   */\n      0x20\n        /* \"#utility.yul\":1936:1945   */\n      dup3\n        /* \"#utility.yul\":1932:1950   */\n      add\n        /* \"#utility.yul\":1924:1950   */\n      swap1\n      pop\n        /* \"#utility.yul\":1960:2025   */\n      tag_250\n        /* \"#utility.yul\":2022:2023   */\n      0x00\n        /* \"#utility.yul\":2011:2020   */\n      dup4\n        /* \"#utility.yul\":2007:2024   */\n      add\n        /* \"#utility.yul\":1998:2004   */\n      dup5\n        /* \"#utility.yul\":1960:2025   */\n      tag_193\n      jump\t// in\n    tag_250:\n        /* \"#utility.yul\":1822:2032   */\n      swap3\n      swap2\n      pop\n      pop\n      jump\t// out\n        /* \"#utility.yul\":2038:2160   */\n    tag_194:\n        /* \"#utility.yul\":2111:2135   */\n      tag_252\n        /* \"#utility.yul\":2129:2134   */\n      dup2\n        /* \"#utility.yul\":2111:2135   */\n      tag_183\n      jump\t// in\n    tag_252:\n        /* \"#utility.yul\":2104:2109   */\n      dup2\n        /* \"#utility.yul\":2101:2136   */\n      eq\n        /* \"#utility.yul\":2091:2154   */\n      tag_253\n      jumpi\n        /* \"#utility.yul\":2150:2151   */\n      0x00\n        /* \"#utility.yul\":2147:2148   */\n      dup1\n        /* \"#utility.yul\":2140:2152   */\n      revert\n        /* \"#utility.yul\":2091:2154   */\n    tag_253:\n        /* \"#utility.yul\":2038:2160   */\n      pop\n      jump\t// out\n        /* \"#utility.yul\":2166:2305   */\n    tag_195:\n        /* \"#utility.yul\":2212:2217   */\n      0x00\n        /* \"#utility.yul\":2250:2256   */\n      dup2\n        /* \"#utility.yul\":2237:2257   */\n      calldataload\n        /* \"#utility.yul\":2228:2257   */\n      swap1\n      pop\n        /* \"#utility.yul\":2266:2299   */\n      tag_255\n        /* \"#utility.yul\":2293:2298   */\n      dup2\n        /* \"#utility.yul\":2266:2299   */\n      tag_194\n      jump\t// in\n    tag_255:\n        /* \"#utility.yul\":2166:2305   */\n      swap3\n      swap2\n      pop\n      pop\n      jump\t// out\n        /* \"#utility.yul\":2311:2785   */\n    tag_33:\n        /* \"#utility.yul\":2379:2385   */\n      0x00\n        /* \"#utility.yul\":2387:2393   */\n      dup1\n        /* \"#utility.yul\":2436:2438   */\n      0x40\n        /* \"#utility.yul\":2424:2433   */\n      dup4\n        /* \"#utility.yul\":2415:2422   */\n      dup6\n        /* \"#utility.yul\":2411:2434   */\n      sub\n        /* \"#utility.yul\":2407:2439   */\n      slt\n        /* \"#utility.yul\":2404:2523   */\n      iszero\n      tag_257\n      jumpi\n        /* \"#utility.yul\":2442:2521   */\n      tag_258\n      tag_186\n      jump\t// in\n    tag_258:\n        /* \"#utility.yul\":2404:2523   */\n    tag_257:\n        /* \"#utility.yul\":2562:2563   */\n      0x00\n        /* \"#utility.yul\":2587:2640   */\n      tag_259\n        /* \"#utility.yul\":2632:2639   */\n      dup6\n        /* \"#utility.yul\":2623:2629   */\n      dup3\n        /* \"#utility.yul\":2612:2621   */\n      dup7\n        /* \"#utility.yul\":2608:2630   */\n      add\n        /* \"#utility.yul\":2587:2640   */\n      tag_191\n      jump\t// in\n    tag_259:\n        /* \"#utility.yul\":2577:2640   */\n      swap3\n      pop\n        /* \"#utility.yul\":2533:2650   */\n      pop\n        /* \"#utility.yul\":2689:2691   */\n      0x20\n        /* \"#utility.yul\":2715:2768   */\n      tag_260\n        /* \"#utility.yul\":2760:2767   */\n      dup6\n        /* \"#utility.yul\":2751:2757   */\n      dup3\n        /* \"#utility.yul\":2740:2749   */\n      dup7\n        /* \"#utility.yul\":2736:2758   */\n      add\n        /* \"#utility.yul\":2715:2768   */\n      tag_195\n      jump\t// in\n    tag_260:\n        /* \"#utility.yul\":2705:2768   */\n      swap2\n      pop\n        /* \"#utility.yul\":2660:2778   */\n      pop\n        /* \"#utility.yul\":2311:2785   */\n      swap3\n      pop\n      swap3\n      swap1\n      pop\n      jump\t// out\n        /* \"#utility.yul\":2791:2909   */\n    tag_196:\n        /* \"#utility.yul\":2878:2902   */\n      tag_262\n        /* \"#utility.yul\":2896:2901   */\n      dup2\n        /* \"#utility.yul\":2878:2902   */\n      tag_189\n      jump\t// in\n    tag_262:\n        /* \"#utility.yul\":2873:2876   */\n      dup3\n        /* \"#utility.yul\":2866:2903   */\n      mstore\n        /* \"#utility.yul\":2791:2909   */\n      pop\n      pop\n      jump\t// out\n        /* \"#utility.yul\":2915:3137   */\n    tag_47:\n        /* \"#utility.yul\":3008:3012   */\n      0x00\n        /* \"#utility.yul\":3046:3048   */\n      0x20\n        /* \"#utility.yul\":3035:3044   */\n      dup3\n        /* \"#utility.yul\":3031:3049   */\n      add\n        /* \"#utility.yul\":3023:3049   */\n      swap1\n      pop\n        /* \"#utility.yul\":3059:3130   */\n      tag_264\n        /* \"#utility.yul\":3127:3128   */\n      0x00\n        /* \"#utility.yul\":3116:3125   */\n      dup4\n        /* \"#utility.yul\":3112:3129   */\n      add\n        /* \"#utility.yul\":3103:3109   */\n      dup5\n        /* \"#utility.yul\":3059:3130   */\n      tag_196\n      jump\t// in\n    tag_264:\n        /* \"#utility.yul\":2915:3137   */\n      swap3\n      swap2\n      pop\n      pop\n      jump\t// out\n        /* \"#utility.yul\":3143:3312   */\n    tag_197:\n        /* \"#utility.yul\":3227:3238   */\n      0x00\n        /* \"#utility.yul\":3261:3267   */\n      dup3\n        /* \"#utility.yul\":3256:3259   */\n      dup3\n        /* \"#utility.yul\":3249:3268   */\n      mstore\n        /* \"#utility.yul\":3301:3305   */\n      0x20\n        /* \"#utility.yul\":3296:3299   */\n      dup3\n        /* \"#utility.yul\":3292:3306   */\n      add\n        /* \"#utility.yul\":3277:3306   */\n      swap1\n      pop\n        /* \"#utility.yul\":3143:3312   */\n      swap3\n      swap2\n      pop\n      pop\n      jump\t// out\n        /* \"#utility.yul\":3318:3499   */\n    tag_198:\n        /* \"#utility.yul\":3458:3491   */\n      0x5265656e7472616e637947756172643a207265656e7472616e742063616c6c00\n        /* \"#utility.yul\":3454:3455   */\n      0x00\n        /* \"#utility.yul\":3446:3452   */\n      dup3\n        /* \"#utility.yul\":3442:3456   */\n      add\n        /* \"#utility.yul\":3435:3492   */\n      mstore\n        /* \"#utility.yul\":3318:3499   */\n      pop\n      jump\t// out\n        /* \"#utility.yul\":3505:3871   */\n    tag_199:\n        /* \"#utility.yul\":3647:3650   */\n      0x00\n        /* \"#utility.yul\":3668:3735   */\n      tag_268\n        /* \"#utility.yul\":3732:3734   */\n      0x1f\n        /* \"#utility.yul\":3727:3730   */\n      dup4\n        /* \"#utility.yul\":3668:3735   */\n      tag_197\n      jump\t// in\n    tag_268:\n        /* \"#utility.yul\":3661:3735   */\n      swap2\n      pop\n        /* \"#utility.yul\":3744:3837   */\n      tag_269\n        /* \"#utility.yul\":3833:3836   */\n      dup3\n        /* \"#utility.yul\":3744:3837   */\n      tag_198\n      jump\t// in\n    tag_269:\n        /* \"#utility.yul\":3862:3864   */\n      0x20\n        /* \"#utility.yul\":3857:3860   */\n      dup3\n        /* \"#utility.yul\":3853:3865   */\n      add\n        /* \"#utility.yul\":3846:3865   */\n      swap1\n      pop\n        /* \"#utility.yul\":3505:3871   */\n      swap2\n      swap1\n      pop\n      jump\t// out\n        /* \"#utility.yul\":3877:4296   */\n    tag_73:\n        /* \"#utility.yul\":4043:4047   */\n      0x00\n        /* \"#utility.yul\":4081:4083   */\n      0x20\n        /* \"#utility.yul\":4070:4079   */\n      dup3\n        /* \"#utility.yul\":4066:4084   */\n      add\n        /* \"#utility.yul\":4058:4084   */\n      swap1\n      pop\n        /* \"#utility.yul\":4130:4139   */\n      dup2\n        /* \"#utility.yul\":4124:4128   */\n      dup2\n        /* \"#utility.yul\":4120:4140   */\n      sub\n        /* \"#utility.yul\":4116:4117   */\n      0x00\n        /* \"#utility.yul\":4105:4114   */\n      dup4\n        /* \"#utility.yul\":4101:4118   */\n      add\n        /* \"#utility.yul\":4094:4141   */\n      mstore\n        /* \"#utility.yul\":4158:4289   */\n      tag_271\n        /* \"#utility.yul\":4284:4288   */\n      dup2\n        /* \"#utility.yul\":4158:4289   */\n      tag_199\n      jump\t// in\n    tag_271:\n        /* \"#utility.yul\":4150:4289   */\n      swap1\n      pop\n        /* \"#utility.yul\":3877:4296   */\n      swap2\n      swap1\n      pop\n      jump\t// out\n        /* \"#utility.yul\":4302:4481   */\n    tag_200:\n        /* \"#utility.yul\":4442:4473   */\n      0x6e6f20756e6c6f636b65642062616c616e636520617661696c61626c65000000\n        /* \"#utility.yul\":4438:4439   */\n      0x00\n        /* \"#utility.yul\":4430:4436   */\n      dup3\n        /* \"#utility.yul\":4426:4440   */\n      add\n        /* \"#utility.yul\":4419:4474   */\n      mstore\n        /* \"#utility.yul\":4302:4481   */\n      pop\n      jump\t// out\n        /* \"#utility.yul\":4487:4853   */\n    tag_201:\n        /* \"#utility.yul\":4629:4632   */\n      0x00\n        /* \"#utility.yul\":4650:4717   */\n      tag_274\n        /* \"#utility.yul\":4714:4716   */\n      0x1d\n        /* \"#utility.yul\":4709:4712   */\n      dup4\n        /* \"#utility.yul\":4650:4717   */\n      tag_197\n      jump\t// in\n    tag_274:\n        /* \"#utility.yul\":4643:4717   */\n      swap2\n      pop\n        /* \"#utility.yul\":4726:4819   */\n      tag_275\n        /* \"#utility.yul\":4815:4818   */\n      dup3\n        /* \"#utility.yul\":4726:4819   */\n      tag_200\n      jump\t// in\n    tag_275:\n        /* \"#utility.yul\":4844:4846   */\n      0x20\n        /* \"#utility.yul\":4839:4842   */\n      dup3\n        /* \"#utility.yul\":4835:4847   */\n      add\n        /* \"#utility.yul\":4828:4847   */\n      swap1\n      pop\n        /* \"#utility.yul\":4487:4853   */\n      swap2\n      swap1\n      pop\n      jump\t// out\n        /* \"#utility.yul\":4859:5278   */\n    tag_77:\n        /* \"#utility.yul\":5025:5029   */\n      0x00\n        /* \"#utility.yul\":5063:5065   */\n      0x20\n        /* \"#utility.yul\":5052:5061   */\n      dup3\n        /* \"#utility.yul\":5048:5066   */\n      add\n        /* \"#utility.yul\":5040:5066   */\n      swap1\n      pop\n        /* \"#utility.yul\":5112:5121   */\n      dup2\n        /* \"#utility.yul\":5106:5110   */\n      dup2\n        /* \"#utility.yul\":5102:5122   */\n      sub\n        /* \"#utility.yul\":5098:5099   */\n      0x00\n        /* \"#utility.yul\":5087:5096   */\n      dup4\n        /* \"#utility.yul\":5083:5100   */\n      add\n        /* \"#utility.yul\":5076:5123   */\n      mstore\n        /* \"#utility.yul\":5140:5271   */\n      tag_277\n        /* \"#utility.yul\":5266:5270   */\n      dup2\n        /* \"#utility.yul\":5140:5271   */\n      tag_201\n      jump\t// in\n    tag_277:\n        /* \"#utility.yul\":5132:5271   */\n      swap1\n      pop\n        /* \"#utility.yul\":4859:5278   */\n      swap2\n      swap1\n      pop\n      jump\t// out\n        /* \"#utility.yul\":5284:5454   */\n    tag_202:\n        /* \"#utility.yul\":5424:5446   */\n      0x63616e6e6f7420756e6c6f636b20746f6b656e73000000000000000000000000\n        /* \"#utility.yul\":5420:5421   */\n      0x00\n        /* \"#utility.yul\":5412:5418   */\n      dup3\n        /* \"#utility.yul\":5408:5422   */\n      add\n        /* \"#utility.yul\":5401:5447   */\n      mstore\n        /* \"#utility.yul\":5284:5454   */\n      pop\n      jump\t// out\n        /* \"#utility.yul\":5460:5826   */\n    tag_203:\n        /* \"#utility.yul\":5602:5605   */\n      0x00\n        /* \"#utility.yul\":5623:5690   */\n      tag_280\n        /* \"#utility.yul\":5687:5689   */\n      0x14\n        /* \"#utility.yul\":5682:5685   */\n      dup4\n        /* \"#utility.yul\":5623:5690   */\n      tag_197\n      jump\t// in\n    tag_280:\n        /* \"#utility.yul\":5616:5690   */\n      swap2\n      pop\n        /* \"#utility.yul\":5699:5792   */\n      tag_281\n        /* \"#utility.yul\":5788:5791   */\n      dup3\n        /* \"#utility.yul\":5699:5792   */\n      tag_202\n      jump\t// in\n    tag_281:\n        /* \"#utility.yul\":5817:5819   */\n      0x20\n        /* \"#utility.yul\":5812:5815   */\n      dup3\n        /* \"#utility.yul\":5808:5820   */\n      add\n        /* \"#utility.yul\":5801:5820   */\n      swap1\n      pop\n        /* \"#utility.yul\":5460:5826   */\n      swap2\n      swap1\n      pop\n      jump\t// out\n        /* \"#utility.yul\":5832:6251   */\n    tag_90:\n        /* \"#utility.yul\":5998:6002   */\n      0x00\n        /* \"#utility.yul\":6036:6038   */\n      0x20\n        /* \"#utility.yul\":6025:6034   */\n      dup3\n        /* \"#utility.yul\":6021:6039   */\n      add\n        /* \"#utility.yul\":6013:6039   */\n      swap1\n      pop\n        /* \"#utility.yul\":6085:6094   */\n      dup2\n        /* \"#utility.yul\":6079:6083   */\n      dup2\n        /* \"#utility.yul\":6075:6095   */\n      sub\n        /* \"#utility.yul\":6071:6072   */\n      0x00\n        /* \"#utility.yul\":6060:6069   */\n      dup4\n        /* \"#utility.yul\":6056:6073   */\n      add\n        /* \"#utility.yul\":6049:6096   */\n      mstore\n        /* \"#utility.yul\":6113:6244   */\n      tag_283\n        /* \"#utility.yul\":6239:6243   */\n      dup2\n        /* \"#utility.yul\":6113:6244   */\n      tag_203\n      jump\t// in\n    tag_283:\n        /* \"#utility.yul\":6105:6244   */\n      swap1\n      pop\n        /* \"#utility.yul\":5832:6251   */\n      swap2\n      swap1\n      pop\n      jump\t// out\n        /* \"#utility.yul\":6257:6437   */\n    tag_204:\n        /* \"#utility.yul\":6305:6382   */\n      0x4e487b7100000000000000000000000000000000000000000000000000000000\n        /* \"#utility.yul\":6302:6303   */\n      0x00\n        /* \"#utility.yul\":6295:6383   */\n      mstore\n        /* \"#utility.yul\":6402:6406   */\n      0x11\n        /* \"#utility.yul\":6399:6400   */\n      0x04\n        /* \"#utility.yul\":6392:6407   */\n      mstore\n        /* \"#utility.yul\":6426:6430   */\n      0x24\n        /* \"#utility.yul\":6423:6424   */\n      0x00\n        /* \"#utility.yul\":6416:6431   */\n      revert\n        /* \"#utility.yul\":6443:6637   */\n    tag_92:\n        /* \"#utility.yul\":6483:6487   */\n      0x00\n        /* \"#utility.yul\":6503:6523   */\n      tag_286\n        /* \"#utility.yul\":6521:6522   */\n      dup3\n        /* \"#utility.yul\":6503:6523   */\n      tag_183\n      jump\t// in\n    tag_286:\n        /* \"#utility.yul\":6498:6523   */\n      swap2\n      pop\n        /* \"#utility.yul\":6537:6557   */\n      tag_287\n        /* \"#utility.yul\":6555:6556   */\n      dup4\n        /* \"#utility.yul\":6537:6557   */\n      tag_183\n      jump\t// in\n    tag_287:\n        /* \"#utility.yul\":6532:6557   */\n      swap3\n      pop\n        /* \"#utility.yul\":6581:6582   */\n      dup3\n        /* \"#utility.yul\":6578:6579   */\n      dup3\n        /* \"#utility.yul\":6574:6583   */\n      sub\n        /* \"#utility.yul\":6566:6583   */\n      swap1\n      pop\n        /* \"#utility.yul\":6605:6606   */\n      dup2\n        /* \"#utility.yul\":6599:6603   */\n      dup2\n        /* \"#utility.yul\":6596:6607   */\n      gt\n        /* \"#utility.yul\":6593:6630   */\n      iszero\n      tag_288\n      jumpi\n        /* \"#utility.yul\":6610:6628   */\n      tag_289\n      tag_204\n      jump\t// in\n    tag_289:\n        /* \"#utility.yul\":6593:6630   */\n    tag_288:\n        /* \"#utility.yul\":6443:6637   */\n      swap3\n      swap2\n      pop\n      pop\n      jump\t// out\n        /* \"#utility.yul\":6643:6834   */\n    tag_94:\n        /* \"#utility.yul\":6683:6686   */\n      0x00\n        /* \"#utility.yul\":6702:6722   */\n      tag_291\n        /* \"#utility.yul\":6720:6721   */\n      dup3\n        /* \"#utility.yul\":6702:6722   */\n      tag_183\n      jump\t// in\n    tag_291:\n        /* \"#utility.yul\":6697:6722   */\n      swap2\n      pop\n        /* \"#utility.yul\":6736:6756   */\n      tag_292\n        /* \"#utility.yul\":6754:6755   */\n      dup4\n        /* \"#utility.yul\":6736:6756   */\n      tag_183\n      jump\t// in\n    tag_292:\n        /* \"#utility.yul\":6731:6756   */\n      swap3\n      pop\n        /* \"#utility.yul\":6779:6780   */\n      dup3\n        /* \"#utility.yul\":6776:6777   */\n      dup3\n        /* \"#utility.yul\":6772:6781   */\n      add\n        /* \"#utility.yul\":6765:6781   */\n      swap1\n      pop\n        /* \"#utility.yul\":6800:6803   */\n      dup1\n        /* \"#utility.yul\":6797:6798   */\n      dup3\n        /* \"#utility.yul\":6794:6804   */\n      gt\n        /* \"#utility.yul\":6791:6827   */\n      iszero\n      tag_293\n      jumpi\n        /* \"#utility.yul\":6807:6825   */\n      tag_294\n      tag_204\n      jump\t// in\n    tag_294:\n        /* \"#utility.yul\":6791:6827   */\n    tag_293:\n        /* \"#utility.yul\":6643:6834   */\n      swap3\n      swap2\n      pop\n      pop\n      jump\t// out\n        /* \"#utility.yul\":6840:6983   */\n    tag_205:\n        /* \"#utility.yul\":6897:6902   */\n      0x00\n        /* \"#utility.yul\":6928:6934   */\n      dup2\n        /* \"#utility.yul\":6922:6935   */\n      mload\n        /* \"#utility.yul\":6913:6935   */\n      swap1\n      pop\n        /* \"#utility.yul\":6944:6977   */\n      tag_296\n        /* \"#utility.yul\":6971:6976   */\n      dup2\n        /* \"#utility.yul\":6944:6977   */\n      tag_194\n      jump\t// in\n    tag_296:\n        /* \"#utility.yul\":6840:6983   */\n      swap3\n      swap2\n      pop\n      pop\n      jump\t// out\n        /* \"#utility.yul\":6989:7340   */\n    tag_106:\n        /* \"#utility.yul\":7059:7065   */\n      0x00\n        /* \"#utility.yul\":7108:7110   */\n      0x20\n        /* \"#utility.yul\":7096:7105   */\n      dup3\n        /* \"#utility.yul\":7087:7094   */\n      dup5\n        /* \"#utility.yul\":7083:7106   */\n      sub\n        /* \"#utility.yul\":7079:7111   */\n      slt\n        /* \"#utility.yul\":7076:7195   */\n      iszero\n      tag_298\n      jumpi\n        /* \"#utility.yul\":7114:7193   */\n      tag_299\n      tag_186\n      jump\t// in\n    tag_299:\n        /* \"#utility.yul\":7076:7195   */\n    tag_298:\n        /* \"#utility.yul\":7234:7235   */\n      0x00\n        /* \"#utility.yul\":7259:7323   */\n      tag_300\n        /* \"#utility.yul\":7315:7322   */\n      dup5\n        /* \"#utility.yul\":7306:7312   */\n      dup3\n        /* \"#utility.yul\":7295:7304   */\n      dup6\n        /* \"#utility.yul\":7291:7313   */\n      add\n        /* \"#utility.yul\":7259:7323   */\n      tag_205\n      jump\t// in\n    tag_300:\n        /* \"#utility.yul\":7249:7323   */\n      swap2\n      pop\n        /* \"#utility.yul\":7205:7333   */\n      pop\n        /* \"#utility.yul\":6989:7340   */\n      swap3\n      swap2\n      pop\n      pop\n      jump\t// out\n        /* \"#utility.yul\":7346:7571   */\n    tag_206:\n        /* \"#utility.yul\":7486:7520   */\n      0x4f776e61626c653a206e6577206f776e657220697320746865207a65726f2061\n        /* \"#utility.yul\":7482:7483   */\n      0x00\n        /* \"#utility.yul\":7474:7480   */\n      dup3\n        /* \"#utility.yul\":7470:7484   */\n      add\n        /* \"#utility.yul\":7463:7521   */\n      mstore\n        /* \"#utility.yul\":7555:7563   */\n      0x6464726573730000000000000000000000000000000000000000000000000000\n        /* \"#utility.yul\":7550:7552   */\n      0x20\n        /* \"#utility.yul\":7542:7548   */\n      dup3\n        /* \"#utility.yul\":7538:7553   */\n      add\n        /* \"#utility.yul\":7531:7564   */\n      mstore\n        /* \"#utility.yul\":7346:7571   */\n      pop\n      jump\t// out\n        /* \"#utility.yul\":7577:7943   */\n    tag_207:\n        /* \"#utility.yul\":7719:7722   */\n      0x00\n        /* \"#utility.yul\":7740:7807   */\n      tag_303\n        /* \"#utility.yul\":7804:7806   */\n      0x26\n        /* \"#utility.yul\":7799:7802   */\n      dup4\n        /* \"#utility.yul\":7740:7807   */\n      tag_197\n      jump\t// in\n    tag_303:\n        /* \"#utility.yul\":7733:7807   */\n      swap2\n      pop\n        /* \"#utility.yul\":7816:7909   */\n      tag_304\n        /* \"#utility.yul\":7905:7908   */\n      dup3\n        /* \"#utility.yul\":7816:7909   */\n      tag_206\n      jump\t// in\n    tag_304:\n        /* \"#utility.yul\":7934:7936   */\n      0x40\n        /* \"#utility.yul\":7929:7932   */\n      dup3\n        /* \"#utility.yul\":7925:7937   */\n      add\n        /* \"#utility.yul\":7918:7937   */\n      swap1\n      pop\n        /* \"#utility.yul\":7577:7943   */\n      swap2\n      swap1\n      pop\n      jump\t// out\n        /* \"#utility.yul\":7949:8368   */\n    tag_116:\n        /* \"#utility.yul\":8115:8119   */\n      0x00\n        /* \"#utility.yul\":8153:8155   */\n      0x20\n        /* \"#utility.yul\":8142:8151   */\n      dup3\n        /* \"#utility.yul\":8138:8156   */\n      add\n        /* \"#utility.yul\":8130:8156   */\n      swap1\n      pop\n        /* \"#utility.yul\":8202:8211   */\n      dup2\n        /* \"#utility.yul\":8196:8200   */\n      dup2\n        /* \"#utility.yul\":8192:8212   */\n      sub\n        /* \"#utility.yul\":8188:8189   */\n      0x00\n        /* \"#utility.yul\":8177:8186   */\n      dup4\n        /* \"#utility.yul\":8173:8190   */\n      add\n        /* \"#utility.yul\":8166:8213   */\n      mstore\n        /* \"#utility.yul\":8230:8361   */\n      tag_306\n        /* \"#utility.yul\":8356:8360   */\n      dup2\n        /* \"#utility.yul\":8230:8361   */\n      tag_207\n      jump\t// in\n    tag_306:\n        /* \"#utility.yul\":8222:8361   */\n      swap1\n      pop\n        /* \"#utility.yul\":7949:8368   */\n      swap2\n      swap1\n      pop\n      jump\t// out\n        /* \"#utility.yul\":8374:8706   */\n    tag_121:\n        /* \"#utility.yul\":8495:8499   */\n      0x00\n        /* \"#utility.yul\":8533:8535   */\n      0x40\n        /* \"#utility.yul\":8522:8531   */\n      dup3\n        /* \"#utility.yul\":8518:8536   */\n      add\n        /* \"#utility.yul\":8510:8536   */\n      swap1\n      pop\n        /* \"#utility.yul\":8546:8617   */\n      tag_308\n        /* \"#utility.yul\":8614:8615   */\n      0x00\n        /* \"#utility.yul\":8603:8612   */\n      dup4\n        /* \"#utility.yul\":8599:8616   */\n      add\n        /* \"#utility.yul\":8590:8596   */\n      dup6\n        /* \"#utility.yul\":8546:8617   */\n      tag_196\n      jump\t// in\n    tag_308:\n        /* \"#utility.yul\":8627:8699   */\n      tag_309\n        /* \"#utility.yul\":8695:8697   */\n      0x20\n        /* \"#utility.yul\":8684:8693   */\n      dup4\n        /* \"#utility.yul\":8680:8698   */\n      add\n        /* \"#utility.yul\":8671:8677   */\n      dup5\n        /* \"#utility.yul\":8627:8699   */\n      tag_184\n      jump\t// in\n    tag_309:\n        /* \"#utility.yul\":8374:8706   */\n      swap4\n      swap3\n      pop\n      pop\n      pop\n      jump\t// out\n        /* \"#utility.yul\":8712:8894   */\n    tag_208:\n        /* \"#utility.yul\":8852:8886   */\n      0x4f776e61626c653a2063616c6c6572206973206e6f7420746865206f776e6572\n        /* \"#utility.yul\":8848:8849   */\n      0x00\n        /* \"#utility.yul\":8840:8846   */\n      dup3\n        /* \"#utility.yul\":8836:8850   */\n      add\n        /* \"#utility.yul\":8829:8887   */\n      mstore\n        /* \"#utility.yul\":8712:8894   */\n      pop\n      jump\t// out\n        /* \"#utility.yul\":8900:9266   */\n    tag_209:\n        /* \"#utility.yul\":9042:9045   */\n      0x00\n        /* \"#utility.yul\":9063:9130   */\n      tag_312\n        /* \"#utility.yul\":9127:9129   */\n      0x20\n        /* \"#utility.yul\":9122:9125   */\n      dup4\n        /* \"#utility.yul\":9063:9130   */\n      tag_197\n      jump\t// in\n    tag_312:\n        /* \"#utility.yul\":9056:9130   */\n      swap2\n      pop\n        /* \"#utility.yul\":9139:9232   */\n      tag_313\n        /* \"#utility.yul\":9228:9231   */\n      dup3\n        /* \"#utility.yul\":9139:9232   */\n      tag_208\n      jump\t// in\n    tag_313:\n        /* \"#utility.yul\":9257:9259   */\n      0x20\n        /* \"#utility.yul\":9252:9255   */\n      dup3\n        /* \"#utility.yul\":9248:9260   */\n      add\n        /* \"#utility.yul\":9241:9260   */\n      swap1\n      pop\n        /* \"#utility.yul\":8900:9266   */\n      swap2\n      swap1\n      pop\n      jump\t// out\n        /* \"#utility.yul\":9272:9691   */\n    tag_129:\n        /* \"#utility.yul\":9438:9442   */\n      0x00\n        /* \"#utility.yul\":9476:9478   */\n      0x20\n        /* \"#utility.yul\":9465:9474   */\n      dup3\n        /* \"#utility.yul\":9461:9479   */\n      add\n        /* \"#utility.yul\":9453:9479   */\n      swap1\n      pop\n        /* \"#utility.yul\":9525:9534   */\n      dup2\n        /* \"#utility.yul\":9519:9523   */\n      dup2\n        /* \"#utility.yul\":9515:9535   */\n      sub\n        /* \"#utility.yul\":9511:9512   */\n      0x00\n        /* \"#utility.yul\":9500:9509   */\n      dup4\n        /* \"#utility.yul\":9496:9513   */\n      add\n        /* \"#utility.yul\":9489:9536   */\n      mstore\n        /* \"#utility.yul\":9553:9684   */\n      tag_315\n        /* \"#utility.yul\":9679:9683   */\n      dup2\n        /* \"#utility.yul\":9553:9684   */\n      tag_209\n      jump\t// in\n    tag_315:\n        /* \"#utility.yul\":9545:9684   */\n      swap1\n      pop\n        /* \"#utility.yul\":9272:9691   */\n      swap2\n      swap1\n      pop\n      jump\t// out\n        /* \"#utility.yul\":9697:9813   */\n    tag_210:\n        /* \"#utility.yul\":9767:9788   */\n      tag_317\n        /* \"#utility.yul\":9782:9787   */\n      dup2\n        /* \"#utility.yul\":9767:9788   */\n      tag_192\n      jump\t// in\n    tag_317:\n        /* \"#utility.yul\":9760:9765   */\n      dup2\n        /* \"#utility.yul\":9757:9789   */\n      eq\n        /* \"#utility.yul\":9747:9807   */\n      tag_318\n      jumpi\n        /* \"#utility.yul\":9803:9804   */\n      0x00\n        /* \"#utility.yul\":9800:9801   */\n      dup1\n        /* \"#utility.yul\":9793:9805   */\n      revert\n        /* \"#utility.yul\":9747:9807   */\n    tag_318:\n        /* \"#utility.yul\":9697:9813   */\n      pop\n      jump\t// out\n        /* \"#utility.yul\":9819:9956   */\n    tag_211:\n        /* \"#utility.yul\":9873:9878   */\n      0x00\n        /* \"#utility.yul\":9904:9910   */\n      dup2\n        /* \"#utility.yul\":9898:9911   */\n      mload\n        /* \"#utility.yul\":9889:9911   */\n      swap1\n      pop\n        /* \"#utility.yul\":9920:9950   */\n      tag_320\n        /* \"#utility.yul\":9944:9949   */\n      dup2\n        /* \"#utility.yul\":9920:9950   */\n      tag_210\n      jump\t// in\n    tag_320:\n        /* \"#utility.yul\":9819:9956   */\n      swap3\n      swap2\n      pop\n      pop\n      jump\t// out\n        /* \"#utility.yul\":9962:10307   */\n    tag_151:\n        /* \"#utility.yul\":10029:10035   */\n      0x00\n        /* \"#utility.yul\":10078:10080   */\n      0x20\n        /* \"#utility.yul\":10066:10075   */\n      dup3\n        /* \"#utility.yul\":10057:10064   */\n      dup5\n        /* \"#utility.yul\":10053:10076   */\n      sub\n        /* \"#utility.yul\":10049:10081   */\n      slt\n        /* \"#utility.yul\":10046:10165   */\n      iszero\n      tag_322\n      jumpi\n        /* \"#utility.yul\":10084:10163   */\n      tag_323\n      tag_186\n      jump\t// in\n    tag_323:\n        /* \"#utility.yul\":10046:10165   */\n    tag_322:\n        /* \"#utility.yul\":10204:10205   */\n      0x00\n        /* \"#utility.yul\":10229:10290   */\n      tag_324\n        /* \"#utility.yul\":10282:10289   */\n      dup5\n        /* \"#utility.yul\":10273:10279   */\n      dup3\n        /* \"#utility.yul\":10262:10271   */\n      dup6\n        /* \"#utility.yul\":10258:10280   */\n      add\n        /* \"#utility.yul\":10229:10290   */\n      tag_211\n      jump\t// in\n    tag_324:\n        /* \"#utility.yul\":10219:10290   */\n      swap2\n      pop\n        /* \"#utility.yul\":10175:10300   */\n      pop\n        /* \"#utility.yul\":9962:10307   */\n      swap3\n      swap2\n      pop\n      pop\n      jump\t// out\n        /* \"#utility.yul\":10313:10542   */\n    tag_212:\n        /* \"#utility.yul\":10453:10487   */\n      0x5361666545524332303a204552433230206f7065726174696f6e20646964206e\n        /* \"#utility.yul\":10449:10450   */\n      0x00\n        /* \"#utility.yul\":10441:10447   */\n      dup3\n        /* \"#utility.yul\":10437:10451   */\n      add\n        /* \"#utility.yul\":10430:10488   */\n      mstore\n        /* \"#utility.yul\":10522:10534   */\n      0x6f74207375636365656400000000000000000000000000000000000000000000\n        /* \"#utility.yul\":10517:10519   */\n      0x20\n        /* \"#utility.yul\":10509:10515   */\n      dup3\n        /* \"#utility.yul\":10505:10520   */\n      add\n        /* \"#utility.yul\":10498:10535   */\n      mstore\n        /* \"#utility.yul\":10313:10542   */\n      pop\n      jump\t// out\n        /* \"#utility.yul\":10548:10914   */\n    tag_213:\n        /* \"#utility.yul\":10690:10693   */\n      0x00\n        /* \"#utility.yul\":10711:10778   */\n      tag_327\n        /* \"#utility.yul\":10775:10777   */\n      0x2a\n        /* \"#utility.yul\":10770:10773   */\n      dup4\n        /* \"#utility.yul\":10711:10778   */\n      tag_197\n      jump\t// in\n    tag_327:\n        /* \"#utility.yul\":10704:10778   */\n      swap2\n      pop\n        /* \"#utility.yul\":10787:10880   */\n      tag_328\n        /* \"#utility.yul\":10876:10879   */\n      dup3\n        /* \"#utility.yul\":10787:10880   */\n      tag_212\n      jump\t// in\n    tag_328:\n        /* \"#utility.yul\":10905:10907   */\n      0x40\n        /* \"#utility.yul\":10900:10903   */\n      dup3\n        /* \"#utility.yul\":10896:10908   */\n      add\n        /* \"#utility.yul\":10889:10908   */\n      swap1\n      pop\n        /* \"#utility.yul\":10548:10914   */\n      swap2\n      swap1\n      pop\n      jump\t// out\n        /* \"#utility.yul\":10920:11339   */\n    tag_154:\n        /* \"#utility.yul\":11086:11090   */\n      0x00\n        /* \"#utility.yul\":11124:11126   */\n      0x20\n        /* \"#utility.yul\":11113:11122   */\n      dup3\n        /* \"#utility.yul\":11109:11127   */\n      add\n        /* \"#utility.yul\":11101:11127   */\n      swap1\n      pop\n        /* \"#utility.yul\":11173:11182   */\n      dup2\n        /* \"#utility.yul\":11167:11171   */\n      dup2\n        /* \"#utility.yul\":11163:11183   */\n      sub\n        /* \"#utility.yul\":11159:11160   */\n      0x00\n        /* \"#utility.yul\":11148:11157   */\n      dup4\n        /* \"#utility.yul\":11144:11161   */\n      add\n        /* \"#utility.yul\":11137:11184   */\n      mstore\n        /* \"#utility.yul\":11201:11332   */\n      tag_330\n        /* \"#utility.yul\":11327:11331   */\n      dup2\n        /* \"#utility.yul\":11201:11332   */\n      tag_213\n      jump\t// in\n    tag_330:\n        /* \"#utility.yul\":11193:11332   */\n      swap1\n      pop\n        /* \"#utility.yul\":10920:11339   */\n      swap2\n      swap1\n      pop\n      jump\t// out\n        /* \"#utility.yul\":11345:11570   */\n    tag_214:\n        /* \"#utility.yul\":11485:11519   */\n      0x416464726573733a20696e73756666696369656e742062616c616e636520666f\n        /* \"#utility.yul\":11481:11482   */\n      0x00\n        /* \"#utility.yul\":11473:11479   */\n      dup3\n        /* \"#utility.yul\":11469:11483   */\n      add\n        /* \"#utility.yul\":11462:11520   */\n      mstore\n        /* \"#utility.yul\":11554:11562   */\n      0x722063616c6c0000000000000000000000000000000000000000000000000000\n        /* \"#utility.yul\":11549:11551   */\n      0x20\n        /* \"#utility.yul\":11541:11547   */\n      dup3\n        /* \"#utility.yul\":11537:11552   */\n      add\n        /* \"#utility.yul\":11530:11563   */\n      mstore\n        /* \"#utility.yul\":11345:11570   */\n      pop\n      jump\t// out\n        /* \"#utility.yul\":11576:11942   */\n    tag_215:\n        /* \"#utility.yul\":11718:11721   */\n      0x00\n        /* \"#utility.yul\":11739:11806   */\n      tag_333\n        /* \"#utility.yul\":11803:11805   */\n      0x26\n        /* \"#utility.yul\":11798:11801   */\n      dup4\n        /* \"#utility.yul\":11739:11806   */\n      tag_197\n      jump\t// in\n    tag_333:\n        /* \"#utility.yul\":11732:11806   */\n      swap2\n      pop\n        /* \"#utility.yul\":11815:11908   */\n      tag_334\n        /* \"#utility.yul\":11904:11907   */\n      dup3\n        /* \"#utility.yul\":11815:11908   */\n      tag_214\n      jump\t// in\n    tag_334:\n        /* \"#utility.yul\":11933:11935   */\n      0x40\n        /* \"#utility.yul\":11928:11931   */\n      dup3\n        /* \"#utility.yul\":11924:11936   */\n      add\n        /* \"#utility.yul\":11917:11936   */\n      swap1\n      pop\n        /* \"#utility.yul\":11576:11942   */\n      swap2\n      swap1\n      pop\n      jump\t// out\n        /* \"#utility.yul\":11948:12367   */\n    tag_162:\n        /* \"#utility.yul\":12114:12118   */\n      0x00\n        /* \"#utility.yul\":12152:12154   */\n      0x20\n        /* \"#utility.yul\":12141:12150   */\n      dup3\n        /* \"#utility.yul\":12137:12155   */\n      add\n        /* \"#utility.yul\":12129:12155   */\n      swap1\n      pop\n        /* \"#utility.yul\":12201:12210   */\n      dup2\n        /* \"#utility.yul\":12195:12199   */\n      dup2\n        /* \"#utility.yul\":12191:12211   */\n      sub\n        /* \"#utility.yul\":12187:12188   */\n      0x00\n        /* \"#utility.yul\":12176:12185   */\n      dup4\n        /* \"#utility.yul\":12172:12189   */\n      add\n        /* \"#utility.yul\":12165:12212   */\n      mstore\n        /* \"#utility.yul\":12229:12360   */\n      tag_336\n        /* \"#utility.yul\":12355:12359   */\n      dup2\n        /* \"#utility.yul\":12229:12360   */\n      tag_215\n      jump\t// in\n    tag_336:\n        /* \"#utility.yul\":12221:12360   */\n      swap1\n      pop\n        /* \"#utility.yul\":11948:12367   */\n      swap2\n      swap1\n      pop\n      jump\t// out\n        /* \"#utility.yul\":12373:12552   */\n    tag_216:\n        /* \"#utility.yul\":12513:12544   */\n      0x416464726573733a2063616c6c20746f206e6f6e2d636f6e7472616374000000\n        /* \"#utility.yul\":12509:12510   */\n      0x00\n        /* \"#utility.yul\":12501:12507   */\n      dup3\n        /* \"#utility.yul\":12497:12511   */\n      add\n        /* \"#utility.yul\":12490:12545   */\n      mstore\n        /* \"#utility.yul\":12373:12552   */\n      pop\n      jump\t// out\n        /* \"#utility.yul\":12558:12924   */\n    tag_217:\n        /* \"#utility.yul\":12700:12703   */\n      0x00\n        /* \"#utility.yul\":12721:12788   */\n      tag_339\n        /* \"#utility.yul\":12785:12787   */\n      0x1d\n        /* \"#utility.yul\":12780:12783   */\n      dup4\n        /* \"#utility.yul\":12721:12788   */\n      tag_197\n      jump\t// in\n    tag_339:\n        /* \"#utility.yul\":12714:12788   */\n      swap2\n      pop\n        /* \"#utility.yul\":12797:12890   */\n      tag_340\n        /* \"#utility.yul\":12886:12889   */\n      dup3\n        /* \"#utility.yul\":12797:12890   */\n      tag_216\n      jump\t// in\n    tag_340:\n        /* \"#utility.yul\":12915:12917   */\n      0x20\n        /* \"#utility.yul\":12910:12913   */\n      dup3\n        /* \"#utility.yul\":12906:12918   */\n      add\n        /* \"#utility.yul\":12899:12918   */\n      swap1\n      pop\n        /* \"#utility.yul\":12558:12924   */\n      swap2\n      swap1\n      pop\n      jump\t// out\n        /* \"#utility.yul\":12930:13349   */\n    tag_167:\n        /* \"#utility.yul\":13096:13100   */\n      0x00\n        /* \"#utility.yul\":13134:13136   */\n      0x20\n        /* \"#utility.yul\":13123:13132   */\n      dup3\n        /* \"#utility.yul\":13119:13137   */\n      add\n        /* \"#utility.yul\":13111:13137   */\n      swap1\n      pop\n        /* \"#utility.yul\":13183:13192   */\n      dup2\n        /* \"#utility.yul\":13177:13181   */\n      dup2\n        /* \"#utility.yul\":13173:13193   */\n      sub\n        /* \"#utility.yul\":13169:13170   */\n      0x00\n        /* \"#utility.yul\":13158:13167   */\n      dup4\n        /* \"#utility.yul\":13154:13171   */\n      add\n        /* \"#utility.yul\":13147:13194   */\n      mstore\n        /* \"#utility.yul\":13211:13342   */\n      tag_342\n        /* \"#utility.yul\":13337:13341   */\n      dup2\n        /* \"#utility.yul\":13211:13342   */\n      tag_217\n      jump\t// in\n    tag_342:\n        /* \"#utility.yul\":13203:13342   */\n      swap1\n      pop\n        /* \"#utility.yul\":12930:13349   */\n      swap2\n      swap1\n      pop\n      jump\t// out\n        /* \"#utility.yul\":13355:13453   */\n    tag_218:\n        /* \"#utility.yul\":13406:13412   */\n      0x00\n        /* \"#utility.yul\":13440:13445   */\n      dup2\n        /* \"#utility.yul\":13434:13446   */\n      mload\n        /* \"#utility.yul\":13424:13446   */\n      swap1\n      pop\n        /* \"#utility.yul\":13355:13453   */\n      swap2\n      swap1\n      pop\n      jump\t// out\n        /* \"#utility.yul\":13459:13606   */\n    tag_219:\n        /* \"#utility.yul\":13560:13571   */\n      0x00\n        /* \"#utility.yul\":13597:13600   */\n      dup2\n        /* \"#utility.yul\":13582:13600   */\n      swap1\n      pop\n        /* \"#utility.yul\":13459:13606   */\n      swap3\n      swap2\n      pop\n      pop\n      jump\t// out\n        /* \"#utility.yul\":13612:13858   */\n    tag_220:\n        /* \"#utility.yul\":13693:13694   */\n      0x00\n        /* \"#utility.yul\":13703:13816   */\n    tag_346:\n        /* \"#utility.yul\":13717:13723   */\n      dup4\n        /* \"#utility.yul\":13714:13715   */\n      dup2\n        /* \"#utility.yul\":13711:13724   */\n      lt\n        /* \"#utility.yul\":13703:13816   */\n      iszero\n      tag_348\n      jumpi\n        /* \"#utility.yul\":13802:13803   */\n      dup1\n        /* \"#utility.yul\":13797:13800   */\n      dup3\n        /* \"#utility.yul\":13793:13804   */\n      add\n        /* \"#utility.yul\":13787:13805   */\n      mload\n        /* \"#utility.yul\":13783:13784   */\n      dup2\n        /* \"#utility.yul\":13778:13781   */\n      dup5\n        /* \"#utility.yul\":13774:13785   */\n      add\n        /* \"#utility.yul\":13767:13806   */\n      mstore\n        /* \"#utility.yul\":13739:13741   */\n      0x20\n        /* \"#utility.yul\":13736:13737   */\n      dup2\n        /* \"#utility.yul\":13732:13742   */\n      add\n        /* \"#utility.yul\":13727:13742   */\n      swap1\n      pop\n        /* \"#utility.yul\":13703:13816   */\n      jump(tag_346)\n    tag_348:\n        /* \"#utility.yul\":13850:13851   */\n      0x00\n        /* \"#utility.yul\":13841:13847   */\n      dup5\n        /* \"#utility.yul\":13836:13839   */\n      dup5\n        /* \"#utility.yul\":13832:13848   */\n      add\n        /* \"#utility.yul\":13825:13852   */\n      mstore\n        /* \"#utility.yul\":13674:13858   */\n      pop\n        /* \"#utility.yul\":13612:13858   */\n      pop\n      pop\n      pop\n      jump\t// out\n        /* \"#utility.yul\":13864:14250   */\n    tag_221:\n        /* \"#utility.yul\":13968:13971   */\n      0x00\n        /* \"#utility.yul\":13996:14034   */\n      tag_350\n        /* \"#utility.yul\":14028:14033   */\n      dup3\n        /* \"#utility.yul\":13996:14034   */\n      tag_218\n      jump\t// in\n    tag_350:\n        /* \"#utility.yul\":14050:14138   */\n      tag_351\n        /* \"#utility.yul\":14131:14137   */\n      dup2\n        /* \"#utility.yul\":14126:14129   */\n      dup6\n        /* \"#utility.yul\":14050:14138   */\n      tag_219\n      jump\t// in\n    tag_351:\n        /* \"#utility.yul\":14043:14138   */\n      swap4\n      pop\n        /* \"#utility.yul\":14147:14212   */\n      tag_352\n        /* \"#utility.yul\":14205:14211   */\n      dup2\n        /* \"#utility.yul\":14200:14203   */\n      dup6\n        /* \"#utility.yul\":14193:14197   */\n      0x20\n        /* \"#utility.yul\":14186:14191   */\n      dup7\n        /* \"#utility.yul\":14182:14198   */\n      add\n        /* \"#utility.yul\":14147:14212   */\n      tag_220\n      jump\t// in\n    tag_352:\n        /* \"#utility.yul\":14237:14243   */\n      dup1\n        /* \"#utility.yul\":14232:14235   */\n      dup5\n        /* \"#utility.yul\":14228:14244   */\n      add\n        /* \"#utility.yul\":14221:14244   */\n      swap2\n      pop\n        /* \"#utility.yul\":13972:14250   */\n      pop\n        /* \"#utility.yul\":13864:14250   */\n      swap3\n      swap2\n      pop\n      pop\n      jump\t// out\n        /* \"#utility.yul\":14256:14527   */\n    tag_169:\n        /* \"#utility.yul\":14386:14389   */\n      0x00\n        /* \"#utility.yul\":14408:14501   */\n      tag_354\n        /* \"#utility.yul\":14497:14500   */\n      dup3\n        /* \"#utility.yul\":14488:14494   */\n      dup5\n        /* \"#utility.yul\":14408:14501   */\n      tag_221\n      jump\t// in\n    tag_354:\n        /* \"#utility.yul\":14401:14501   */\n      swap2\n      pop\n        /* \"#utility.yul\":14518:14521   */\n      dup2\n        /* \"#utility.yul\":14511:14521   */\n      swap1\n      pop\n        /* \"#utility.yul\":14256:14527   */\n      swap3\n      swap2\n      pop\n      pop\n      jump\t// out\n        /* \"#utility.yul\":14533:14632   */\n    tag_222:\n        /* \"#utility.yul\":14585:14591   */\n      0x00\n        /* \"#utility.yul\":14619:14624   */\n      dup2\n        /* \"#utility.yul\":14613:14625   */\n      mload\n        /* \"#utility.yul\":14603:14625   */\n      swap1\n      pop\n        /* \"#utility.yul\":14533:14632   */\n      swap2\n      swap1\n      pop\n      jump\t// out\n        /* \"#utility.yul\":14638:14740   */\n    tag_223:\n        /* \"#utility.yul\":14679:14685   */\n      0x00\n        /* \"#utility.yul\":14730:14732   */\n      0x1f\n        /* \"#utility.yul\":14726:14733   */\n      not\n        /* \"#utility.yul\":14721:14723   */\n      0x1f\n        /* \"#utility.yul\":14714:14719   */\n      dup4\n        /* \"#utility.yul\":14710:14724   */\n      add\n        /* \"#utility.yul\":14706:14734   */\n      and\n        /* \"#utility.yul\":14696:14734   */\n      swap1\n      pop\n        /* \"#utility.yul\":14638:14740   */\n      swap2\n      swap1\n      pop\n      jump\t// out\n        /* \"#utility.yul\":14746:15123   */\n    tag_224:\n        /* \"#utility.yul\":14834:14837   */\n      0x00\n        /* \"#utility.yul\":14862:14901   */\n      tag_358\n        /* \"#utility.yul\":14895:14900   */\n      dup3\n        /* \"#utility.yul\":14862:14901   */\n      tag_222\n      jump\t// in\n    tag_358:\n        /* \"#utility.yul\":14917:14988   */\n      tag_359\n        /* \"#utility.yul\":14981:14987   */\n      dup2\n        /* \"#utility.yul\":14976:14979   */\n      dup6\n        /* \"#utility.yul\":14917:14988   */\n      tag_197\n      jump\t// in\n    tag_359:\n        /* \"#utility.yul\":14910:14988   */\n      swap4\n      pop\n        /* \"#utility.yul\":14997:15062   */\n      tag_360\n        /* \"#utility.yul\":15055:15061   */\n      dup2\n        /* \"#utility.yul\":15050:15053   */\n      dup6\n        /* \"#utility.yul\":15043:15047   */\n      0x20\n        /* \"#utility.yul\":15036:15041   */\n      dup7\n        /* \"#utility.yul\":15032:15048   */\n      add\n        /* \"#utility.yul\":14997:15062   */\n      tag_220\n      jump\t// in\n    tag_360:\n        /* \"#utility.yul\":15087:15116   */\n      tag_361\n        /* \"#utility.yul\":15109:15115   */\n      dup2\n        /* \"#utility.yul\":15087:15116   */\n      tag_223\n      jump\t// in\n    tag_361:\n        /* \"#utility.yul\":15082:15085   */\n      dup5\n        /* \"#utility.yul\":15078:15117   */\n      add\n        /* \"#utility.yul\":15071:15117   */\n      swap2\n      pop\n        /* \"#utility.yul\":14838:15123   */\n      pop\n        /* \"#utility.yul\":14746:15123   */\n      swap3\n      swap2\n      pop\n      pop\n      jump\t// out\n        /* \"#utility.yul\":15129:15442   */\n    tag_182:\n        /* \"#utility.yul\":15242:15246   */\n      0x00\n        /* \"#utility.yul\":15280:15282   */\n      0x20\n        /* \"#utility.yul\":15269:15278   */\n      dup3\n        /* \"#utility.yul\":15265:15283   */\n      add\n        /* \"#utility.yul\":15257:15283   */\n      swap1\n      pop\n        /* \"#utility.yul\":15329:15338   */\n      dup2\n        /* \"#utility.yul\":15323:15327   */\n      dup2\n        /* \"#utility.yul\":15319:15339   */\n      sub\n        /* \"#utility.yul\":15315:15316   */\n      0x00\n        /* \"#utility.yul\":15304:15313   */\n      dup4\n        /* \"#utility.yul\":15300:15317   */\n      add\n        /* \"#utility.yul\":15293:15340   */\n      mstore\n        /* \"#utility.yul\":15357:15435   */\n      tag_363\n        /* \"#utility.yul\":15430:15434   */\n      dup2\n        /* \"#utility.yul\":15421:15427   */\n      dup5\n        /* \"#utility.yul\":15357:15435   */\n      tag_224\n      jump\t// in\n    tag_363:\n        /* \"#utility.yul\":15349:15435   */\n      swap1\n      pop\n        /* \"#utility.yul\":15129:15442   */\n      swap3\n      swap2\n      pop\n      pop\n      jump\t// out\n\n    auxdata: 0xa264697066735822122003c5482b91399de2ce33389e138379d8da81e0763360983aa063c27bf52dcb6764736f6c63430008110033\n}\n",
				"bytecode": {
					"linkReferences": {},
					"object": "60806040523480156200001157600080fd5b5060405162001881380380620018818339818101604052810190620000379190620001dc565b620000576200004b620000a660201b60201c565b620000ae60201b60201c565b6001808190555080600260006101000a81548173ffffffffffffffffffffffffffffffffffffffff021916908373ffffffffffffffffffffffffffffffffffffffff160217905550506200020e565b600033905090565b60008060009054906101000a900473ffffffffffffffffffffffffffffffffffffffff169050816000806101000a81548173ffffffffffffffffffffffffffffffffffffffff021916908373ffffffffffffffffffffffffffffffffffffffff1602179055508173ffffffffffffffffffffffffffffffffffffffff168173ffffffffffffffffffffffffffffffffffffffff167f8be0079c531659141344cd1fd0a4f28419497f9722a3daafe3b4186f6b6457e060405160405180910390a35050565b600080fd5b600073ffffffffffffffffffffffffffffffffffffffff82169050919050565b6000620001a48262000177565b9050919050565b620001b68162000197565b8114620001c257600080fd5b50565b600081519050620001d681620001ab565b92915050565b600060208284031215620001f557620001f462000172565b5b60006200020584828501620001c5565b91505092915050565b611663806200021e6000396000f3fe6080604052600436106100a75760003560e01c80638da5cb5b116100645780638da5cb5b146101ad5780639ae697bf146101d8578063a0821be314610215578063b1c2558614610252578063f2fde38b1461027b578063fa3afbbf146102a4576100a7565b806304554443146100ac5780632890dc99146100d75780632cbacb44146100f357806334834c18146101305780635e0fac2e14610159578063715018a614610196575b600080fd5b3480156100b857600080fd5b506100c16102cf565b6040516100ce9190610e79565b60405180910390f35b6100f160048036038101906100ec9190610ef7565b6102d5565b005b3480156100ff57600080fd5b5061011a60048036038101906101159190610ef7565b61043a565b6040516101279190610f3f565b60405180910390f35b34801561013c57600080fd5b5061015760048036038101906101529190610f86565b61044e565b005b34801561016557600080fd5b50610180600480360381019061017b9190610ef7565b610556565b60405161018d9190610e79565b60405180910390f35b3480156101a257600080fd5b506101ab61056e565b005b3480156101b957600080fd5b506101c2610582565b6040516101cf9190610fd5565b60405180910390f35b3480156101e457600080fd5b506101ff60048036038101906101fa9190610ef7565b6105ab565b60405161020c9190610e79565b60405180910390f35b34801561022157600080fd5b5061023c60048036038101906102379190610ef7565b6105c3565b6040516102499190610e79565b60405180910390f35b34801561025e57600080fd5b5061027960048036038101906102749190610f86565b6106bd565b005b34801561028757600080fd5b506102a2600480360381019061029d9190610ef7565b610751565b005b3480156102b057600080fd5b506102b96107d4565b6040516102c69190610f3f565b60405180910390f35b60035481565b60026001540361031a576040517f08c379a00000000000000000000000000000000000000000000000000000000081526004016103119061104d565b60405180910390fd5b60026001819055506000600860008373ffffffffffffffffffffffffffffffffffffffff1673ffffffffffffffffffffffffffffffffffffffff16815260200190815260200160002054116103a4576040517f08c379a000000000000000000000000000000000000000000000000000000000815260040161039b906110b9565b60405180910390fd5b61043081600860008473ffffffffffffffffffffffffffffffffffffffff1673ffffffffffffffffffffffffffffffffffffffff16815260200190815260200160002054600260009054906101000a900473ffffffffffffffffffffffffffffffffffffffff1673ffffffffffffffffffffffffffffffffffffffff166107e79092919063ffffffff16565b6001808190555050565b600080610446836105c3565b119050919050565b61045661086d565b6001151561046483836108eb565b1515146104a6576040517f08c379a000000000000000000000000000000000000000000000000000000000815260040161049d90611125565b60405180910390fd5b80600760008473ffffffffffffffffffffffffffffffffffffffff1673ffffffffffffffffffffffffffffffffffffffff16815260200190815260200160002060008282546104f59190611174565b9250508190555080600860008473ffffffffffffffffffffffffffffffffffffffff1673ffffffffffffffffffffffffffffffffffffffff168152602001908152602001600020600082825461054b91906111a8565b925050819055505050565b60086020528060005260406000206000915090505481565b61057661086d565b6105806000610b17565b565b60008060009054906101000a900473ffffffffffffffffffffffffffffffffffffffff16905090565b60076020528060005260406000206000915090505481565b600080600760008473ffffffffffffffffffffffffffffffffffffffff1673ffffffffffffffffffffffffffffffffffffffff1681526020019081526020016000205490506000600260009054906101000a900473ffffffffffffffffffffffffffffffffffffffff1673ffffffffffffffffffffffffffffffffffffffff166370a08231856040518263ffffffff1660e01b81526004016106659190610fd5565b602060405180830381865afa158015610682573d6000803e3d6000fd5b505050506040513d601f19601f820116820180604052508101906106a691906111f1565b905081816106b49190611174565b92505050919050565b6106c561086d565b80600760008473ffffffffffffffffffffffffffffffffffffffff1673ffffffffffffffffffffffffffffffffffffffff1681526020019081526020016000208190555042600460008473ffffffffffffffffffffffffffffffffffffffff1673ffffffffffffffffffffffffffffffffffffffff168152602001908152602001600020819055505050565b61075961086d565b600073ffffffffffffffffffffffffffffffffffffffff168173ffffffffffffffffffffffffffffffffffffffff16036107c8576040517f08c379a00000000000000000000000000000000000000000000000000000000081526004016107bf90611290565b60405180910390fd5b6107d181610b17565b50565b600960009054906101000a900460ff1681565b6108688363a9059cbb60e01b84846040516024016108069291906112b0565b604051602081830303815290604052907bffffffffffffffffffffffffffffffffffffffffffffffffffffffff19166020820180517bffffffffffffffffffffffffffffffffffffffffffffffffffffffff8381831617835250505050610bdb565b505050565b610875610ca2565b73ffffffffffffffffffffffffffffffffffffffff16610893610582565b73ffffffffffffffffffffffffffffffffffffffff16146108e9576040517f08c379a00000000000000000000000000000000000000000000000000000000081526004016108e090611325565b60405180910390fd5b565b600060011515600560008573ffffffffffffffffffffffffffffffffffffffff1673ffffffffffffffffffffffffffffffffffffffff16815260200190815260200160002060009054906101000a900460ff161515148015610960575060011515600960009054906101000a900460ff161515145b80156109c3575060194261097491906111a8565b600354600460008673ffffffffffffffffffffffffffffffffffffffff1673ffffffffffffffffffffffffffffffffffffffff168152602001908152602001600020546109c191906111a8565b115b15610a6e576000600760008573ffffffffffffffffffffffffffffffffffffffff1673ffffffffffffffffffffffffffffffffffffffff168152602001908152602001600020819055506001600660008573ffffffffffffffffffffffffffffffffffffffff1673ffffffffffffffffffffffffffffffffffffffff16815260200190815260200160002060006101000a81548160ff02191690831515021790555060019050610b11565b610a778361043a565b610a845760009050610b11565b610a8d836105c3565b821115610a9d5760009050610b11565b60011515600660008573ffffffffffffffffffffffffffffffffffffffff1673ffffffffffffffffffffffffffffffffffffffff16815260200190815260200160002060009054906101000a900460ff16151503610afe5760019050610b11565b600960009054906101000a900460ff1690505b92915050565b60008060009054906101000a900473ffffffffffffffffffffffffffffffffffffffff169050816000806101000a81548173ffffffffffffffffffffffffffffffffffffffff021916908373ffffffffffffffffffffffffffffffffffffffff1602179055508173ffffffffffffffffffffffffffffffffffffffff168173ffffffffffffffffffffffffffffffffffffffff167f8be0079c531659141344cd1fd0a4f28419497f9722a3daafe3b4186f6b6457e060405160405180910390a35050565b6000610c3d826040518060400160405280602081526020017f5361666545524332303a206c6f772d6c6576656c2063616c6c206661696c65648152508573ffffffffffffffffffffffffffffffffffffffff16610caa9092919063ffffffff16565b9050600081511115610c9d5780806020019051810190610c5d9190611371565b610c9c576040517f08c379a0000000000000000000000000000000000000000000000000000000008152600401610c9390611410565b60405180910390fd5b5b505050565b600033905090565b6060610cb98484600085610cc2565b90509392505050565b606082471015610d07576040517f08c379a0000000000000000000000000000000000000000000000000000000008152600401610cfe906114a2565b60405180910390fd5b610d1085610dd6565b610d4f576040517f08c379a0000000000000000000000000000000000000000000000000000000008152600401610d469061150e565b60405180910390fd5b6000808673ffffffffffffffffffffffffffffffffffffffff168587604051610d78919061159f565b60006040518083038185875af1925050503d8060008114610db5576040519150601f19603f3d011682016040523d82523d6000602084013e610dba565b606091505b5091509150610dca828286610df9565b92505050949350505050565b6000808273ffffffffffffffffffffffffffffffffffffffff163b119050919050565b60608315610e0957829050610e59565b600083511115610e1c5782518084602001fd5b816040517f08c379a0000000000000000000000000000000000000000000000000000000008152600401610e50919061160b565b60405180910390fd5b9392505050565b6000819050919050565b610e7381610e60565b82525050565b6000602082019050610e8e6000830184610e6a565b92915050565b600080fd5b600073ffffffffffffffffffffffffffffffffffffffff82169050919050565b6000610ec482610e99565b9050919050565b610ed481610eb9565b8114610edf57600080fd5b50565b600081359050610ef181610ecb565b92915050565b600060208284031215610f0d57610f0c610e94565b5b6000610f1b84828501610ee2565b91505092915050565b60008115159050919050565b610f3981610f24565b82525050565b6000602082019050610f546000830184610f30565b92915050565b610f6381610e60565b8114610f6e57600080fd5b50565b600081359050610f8081610f5a565b92915050565b60008060408385031215610f9d57610f9c610e94565b5b6000610fab85828601610ee2565b9250506020610fbc85828601610f71565b9150509250929050565b610fcf81610eb9565b82525050565b6000602082019050610fea6000830184610fc6565b92915050565b600082825260208201905092915050565b7f5265656e7472616e637947756172643a207265656e7472616e742063616c6c00600082015250565b6000611037601f83610ff0565b915061104282611001565b602082019050919050565b600060208201905081810360008301526110668161102a565b9050919050565b7f6e6f20756e6c6f636b65642062616c616e636520617661696c61626c65000000600082015250565b60006110a3601d83610ff0565b91506110ae8261106d565b602082019050919050565b600060208201905081810360008301526110d281611096565b9050919050565b7f63616e6e6f7420756e6c6f636b20746f6b656e73000000000000000000000000600082015250565b600061110f601483610ff0565b915061111a826110d9565b602082019050919050565b6000602082019050818103600083015261113e81611102565b9050919050565b7f4e487b7100000000000000000000000000000000000000000000000000000000600052601160045260246000fd5b600061117f82610e60565b915061118a83610e60565b92508282039050818111156111a2576111a1611145565b5b92915050565b60006111b382610e60565b91506111be83610e60565b92508282019050808211156111d6576111d5611145565b5b92915050565b6000815190506111eb81610f5a565b92915050565b60006020828403121561120757611206610e94565b5b6000611215848285016111dc565b91505092915050565b7f4f776e61626c653a206e6577206f776e657220697320746865207a65726f206160008201527f6464726573730000000000000000000000000000000000000000000000000000602082015250565b600061127a602683610ff0565b91506112858261121e565b604082019050919050565b600060208201905081810360008301526112a98161126d565b9050919050565b60006040820190506112c56000830185610fc6565b6112d26020830184610e6a565b9392505050565b7f4f776e61626c653a2063616c6c6572206973206e6f7420746865206f776e6572600082015250565b600061130f602083610ff0565b915061131a826112d9565b602082019050919050565b6000602082019050818103600083015261133e81611302565b9050919050565b61134e81610f24565b811461135957600080fd5b50565b60008151905061136b81611345565b92915050565b60006020828403121561138757611386610e94565b5b60006113958482850161135c565b91505092915050565b7f5361666545524332303a204552433230206f7065726174696f6e20646964206e60008201527f6f74207375636365656400000000000000000000000000000000000000000000602082015250565b60006113fa602a83610ff0565b91506114058261139e565b604082019050919050565b60006020820190508181036000830152611429816113ed565b9050919050565b7f416464726573733a20696e73756666696369656e742062616c616e636520666f60008201527f722063616c6c0000000000000000000000000000000000000000000000000000602082015250565b600061148c602683610ff0565b915061149782611430565b604082019050919050565b600060208201905081810360008301526114bb8161147f565b9050919050565b7f416464726573733a2063616c6c20746f206e6f6e2d636f6e7472616374000000600082015250565b60006114f8601d83610ff0565b9150611503826114c2565b602082019050919050565b60006020820190508181036000830152611527816114eb565b9050919050565b600081519050919050565b600081905092915050565b60005b83811015611562578082015181840152602081019050611547565b60008484015250505050565b60006115798261152e565b6115838185611539565b9350611593818560208601611544565b80840191505092915050565b60006115ab828461156e565b915081905092915050565b600081519050919050565b6000601f19601f8301169050919050565b60006115dd826115b6565b6115e78185610ff0565b93506115f7818560208601611544565b611600816115c1565b840191505092915050565b6000602082019050818103600083015261162581846115d2565b90509291505056fea264697066735822122003c5482b91399de2ce33389e138379d8da81e0763360983aa063c27bf52dcb6764736f6c63430008110033",
					"opcodes": "PUSH1 0x80 PUSH1 0x40 MSTORE CALLVALUE DUP1 ISZERO PUSH3 0x11 JUMPI PUSH1 0x0 DUP1 REVERT JUMPDEST POP PUSH1 0x40 MLOAD PUSH3 0x1881 CODESIZE SUB DUP1 PUSH3 0x1881 DUP4 CODECOPY DUP2 DUP2 ADD PUSH1 0x40 MSTORE DUP2 ADD SWAP1 PUSH3 0x37 SWAP2 SWAP1 PUSH3 0x1DC JUMP JUMPDEST PUSH3 0x57 PUSH3 0x4B PUSH3 0xA6 PUSH1 0x20 SHL PUSH1 0x20 SHR JUMP JUMPDEST PUSH3 0xAE PUSH1 0x20 SHL PUSH1 0x20 SHR JUMP JUMPDEST PUSH1 0x1 DUP1 DUP2 SWAP1 SSTORE POP DUP1 PUSH1 0x2 PUSH1 0x0 PUSH2 0x100 EXP DUP2 SLOAD DUP2 PUSH20 0xFFFFFFFFFFFFFFFFFFFFFFFFFFFFFFFFFFFFFFFF MUL NOT AND SWAP1 DUP4 PUSH20 0xFFFFFFFFFFFFFFFFFFFFFFFFFFFFFFFFFFFFFFFF AND MUL OR SWAP1 SSTORE POP POP PUSH3 0x20E JUMP JUMPDEST PUSH1 0x0 CALLER SWAP1 POP SWAP1 JUMP JUMPDEST PUSH1 0x0 DUP1 PUSH1 0x0 SWAP1 SLOAD SWAP1 PUSH2 0x100 EXP SWAP1 DIV PUSH20 0xFFFFFFFFFFFFFFFFFFFFFFFFFFFFFFFFFFFFFFFF AND SWAP1 POP DUP2 PUSH1 0x0 DUP1 PUSH2 0x100 EXP DUP2 SLOAD DUP2 PUSH20 0xFFFFFFFFFFFFFFFFFFFFFFFFFFFFFFFFFFFFFFFF MUL NOT AND SWAP1 DUP4 PUSH20 0xFFFFFFFFFFFFFFFFFFFFFFFFFFFFFFFFFFFFFFFF AND MUL OR SWAP1 SSTORE POP DUP2 PUSH20 0xFFFFFFFFFFFFFFFFFFFFFFFFFFFFFFFFFFFFFFFF AND DUP2 PUSH20 0xFFFFFFFFFFFFFFFFFFFFFFFFFFFFFFFFFFFFFFFF AND PUSH32 0x8BE0079C531659141344CD1FD0A4F28419497F9722A3DAAFE3B4186F6B6457E0 PUSH1 0x40 MLOAD PUSH1 0x40 MLOAD DUP1 SWAP2 SUB SWAP1 LOG3 POP POP JUMP JUMPDEST PUSH1 0x0 DUP1 REVERT JUMPDEST PUSH1 0x0 PUSH20 0xFFFFFFFFFFFFFFFFFFFFFFFFFFFFFFFFFFFFFFFF DUP3 AND SWAP1 POP SWAP2 SWAP1 POP JUMP JUMPDEST PUSH1 0x0 PUSH3 0x1A4 DUP3 PUSH3 0x177 JUMP JUMPDEST SWAP1 POP SWAP2 SWAP1 POP JUMP JUMPDEST PUSH3 0x1B6 DUP2 PUSH3 0x197 JUMP JUMPDEST DUP2 EQ PUSH3 0x1C2 JUMPI PUSH1 0x0 DUP1 REVERT JUMPDEST POP JUMP JUMPDEST PUSH1 0x0 DUP2 MLOAD SWAP1 POP PUSH3 0x1D6 DUP2 PUSH3 0x1AB JUMP JUMPDEST SWAP3 SWAP2 POP POP JUMP JUMPDEST PUSH1 0x0 PUSH1 0x20 DUP3 DUP5 SUB SLT ISZERO PUSH3 0x1F5 JUMPI PUSH3 0x1F4 PUSH3 0x172 JUMP JUMPDEST JUMPDEST PUSH1 0x0 PUSH3 0x205 DUP5 DUP3 DUP6 ADD PUSH3 0x1C5 JUMP JUMPDEST SWAP2 POP POP SWAP3 SWAP2 POP POP JUMP JUMPDEST PUSH2 0x1663 DUP1 PUSH3 0x21E PUSH1 0x0 CODECOPY PUSH1 0x0 RETURN INVALID PUSH1 0x80 PUSH1 0x40 MSTORE PUSH1 0x4 CALLDATASIZE LT PUSH2 0xA7 JUMPI PUSH1 0x0 CALLDATALOAD PUSH1 0xE0 SHR DUP1 PUSH4 0x8DA5CB5B GT PUSH2 0x64 JUMPI DUP1 PUSH4 0x8DA5CB5B EQ PUSH2 0x1AD JUMPI DUP1 PUSH4 0x9AE697BF EQ PUSH2 0x1D8 JUMPI DUP1 PUSH4 0xA0821BE3 EQ PUSH2 0x215 JUMPI DUP1 PUSH4 0xB1C25586 EQ PUSH2 0x252 JUMPI DUP1 PUSH4 0xF2FDE38B EQ PUSH2 0x27B JUMPI DUP1 PUSH4 0xFA3AFBBF EQ PUSH2 0x2A4 JUMPI PUSH2 0xA7 JUMP JUMPDEST DUP1 PUSH4 0x4554443 EQ PUSH2 0xAC JUMPI DUP1 PUSH4 0x2890DC99 EQ PUSH2 0xD7 JUMPI DUP1 PUSH4 0x2CBACB44 EQ PUSH2 0xF3 JUMPI DUP1 PUSH4 0x34834C18 EQ PUSH2 0x130 JUMPI DUP1 PUSH4 0x5E0FAC2E EQ PUSH2 0x159 JUMPI DUP1 PUSH4 0x715018A6 EQ PUSH2 0x196 JUMPI JUMPDEST PUSH1 0x0 DUP1 REVERT JUMPDEST CALLVALUE DUP1 ISZERO PUSH2 0xB8 JUMPI PUSH1 0x0 DUP1 REVERT JUMPDEST POP PUSH2 0xC1 PUSH2 0x2CF JUMP JUMPDEST PUSH1 0x40 MLOAD PUSH2 0xCE SWAP2 SWAP1 PUSH2 0xE79 JUMP JUMPDEST PUSH1 0x40 MLOAD DUP1 SWAP2 SUB SWAP1 RETURN JUMPDEST PUSH2 0xF1 PUSH1 0x4 DUP1 CALLDATASIZE SUB DUP2 ADD SWAP1 PUSH2 0xEC SWAP2 SWAP1 PUSH2 0xEF7 JUMP JUMPDEST PUSH2 0x2D5 JUMP JUMPDEST STOP JUMPDEST CALLVALUE DUP1 ISZERO PUSH2 0xFF JUMPI PUSH1 0x0 DUP1 REVERT JUMPDEST POP PUSH2 0x11A PUSH1 0x4 DUP1 CALLDATASIZE SUB DUP2 ADD SWAP1 PUSH2 0x115 SWAP2 SWAP1 PUSH2 0xEF7 JUMP JUMPDEST PUSH2 0x43A JUMP JUMPDEST PUSH1 0x40 MLOAD PUSH2 0x127 SWAP2 SWAP1 PUSH2 0xF3F JUMP JUMPDEST PUSH1 0x40 MLOAD DUP1 SWAP2 SUB SWAP1 RETURN JUMPDEST CALLVALUE DUP1 ISZERO PUSH2 0x13C JUMPI PUSH1 0x0 DUP1 REVERT JUMPDEST POP PUSH2 0x157 PUSH1 0x4 DUP1 CALLDATASIZE SUB DUP2 ADD SWAP1 PUSH2 0x152 SWAP2 SWAP1 PUSH2 0xF86 JUMP JUMPDEST PUSH2 0x44E JUMP JUMPDEST STOP JUMPDEST CALLVALUE DUP1 ISZERO PUSH2 0x165 JUMPI PUSH1 0x0 DUP1 REVERT JUMPDEST POP PUSH2 0x180 PUSH1 0x4 DUP1 CALLDATASIZE SUB DUP2 ADD SWAP1 PUSH2 0x17B SWAP2 SWAP1 PUSH2 0xEF7 JUMP JUMPDEST PUSH2 0x556 JUMP JUMPDEST PUSH1 0x40 MLOAD PUSH2 0x18D SWAP2 SWAP1 PUSH2 0xE79 JUMP JUMPDEST PUSH1 0x40 MLOAD DUP1 SWAP2 SUB SWAP1 RETURN JUMPDEST CALLVALUE DUP1 ISZERO PUSH2 0x1A2 JUMPI PUSH1 0x0 DUP1 REVERT JUMPDEST POP PUSH2 0x1AB PUSH2 0x56E JUMP JUMPDEST STOP JUMPDEST CALLVALUE DUP1 ISZERO PUSH2 0x1B9 JUMPI PUSH1 0x0 DUP1 REVERT JUMPDEST POP PUSH2 0x1C2 PUSH2 0x582 JUMP JUMPDEST PUSH1 0x40 MLOAD PUSH2 0x1CF SWAP2 SWAP1 PUSH2 0xFD5 JUMP JUMPDEST PUSH1 0x40 MLOAD DUP1 SWAP2 SUB SWAP1 RETURN JUMPDEST CALLVALUE DUP1 ISZERO PUSH2 0x1E4 JUMPI PUSH1 0x0 DUP1 REVERT JUMPDEST POP PUSH2 0x1FF PUSH1 0x4 DUP1 CALLDATASIZE SUB DUP2 ADD SWAP1 PUSH2 0x1FA SWAP2 SWAP1 PUSH2 0xEF7 JUMP JUMPDEST PUSH2 0x5AB JUMP JUMPDEST PUSH1 0x40 MLOAD PUSH2 0x20C SWAP2 SWAP1 PUSH2 0xE79 JUMP JUMPDEST PUSH1 0x40 MLOAD DUP1 SWAP2 SUB SWAP1 RETURN JUMPDEST CALLVALUE DUP1 ISZERO PUSH2 0x221 JUMPI PUSH1 0x0 DUP1 REVERT JUMPDEST POP PUSH2 0x23C PUSH1 0x4 DUP1 CALLDATASIZE SUB DUP2 ADD SWAP1 PUSH2 0x237 SWAP2 SWAP1 PUSH2 0xEF7 JUMP JUMPDEST PUSH2 0x5C3 JUMP JUMPDEST PUSH1 0x40 MLOAD PUSH2 0x249 SWAP2 SWAP1 PUSH2 0xE79 JUMP JUMPDEST PUSH1 0x40 MLOAD DUP1 SWAP2 SUB SWAP1 RETURN JUMPDEST CALLVALUE DUP1 ISZERO PUSH2 0x25E JUMPI PUSH1 0x0 DUP1 REVERT JUMPDEST POP PUSH2 0x279 PUSH1 0x4 DUP1 CALLDATASIZE SUB DUP2 ADD SWAP1 PUSH2 0x274 SWAP2 SWAP1 PUSH2 0xF86 JUMP JUMPDEST PUSH2 0x6BD JUMP JUMPDEST STOP JUMPDEST CALLVALUE DUP1 ISZERO PUSH2 0x287 JUMPI PUSH1 0x0 DUP1 REVERT JUMPDEST POP PUSH2 0x2A2 PUSH1 0x4 DUP1 CALLDATASIZE SUB DUP2 ADD SWAP1 PUSH2 0x29D SWAP2 SWAP1 PUSH2 0xEF7 JUMP JUMPDEST PUSH2 0x751 JUMP JUMPDEST STOP JUMPDEST CALLVALUE DUP1 ISZERO PUSH2 0x2B0 JUMPI PUSH1 0x0 DUP1 REVERT JUMPDEST POP PUSH2 0x2B9 PUSH2 0x7D4 JUMP JUMPDEST PUSH1 0x40 MLOAD PUSH2 0x2C6 SWAP2 SWAP1 PUSH2 0xF3F JUMP JUMPDEST PUSH1 0x40 MLOAD DUP1 SWAP2 SUB SWAP1 RETURN JUMPDEST PUSH1 0x3 SLOAD DUP2 JUMP JUMPDEST PUSH1 0x2 PUSH1 0x1 SLOAD SUB PUSH2 0x31A JUMPI PUSH1 0x40 MLOAD PUSH32 0x8C379A000000000000000000000000000000000000000000000000000000000 DUP2 MSTORE PUSH1 0x4 ADD PUSH2 0x311 SWAP1 PUSH2 0x104D JUMP JUMPDEST PUSH1 0x40 MLOAD DUP1 SWAP2 SUB SWAP1 REVERT JUMPDEST PUSH1 0x2 PUSH1 0x1 DUP2 SWAP1 SSTORE POP PUSH1 0x0 PUSH1 0x8 PUSH1 0x0 DUP4 PUSH20 0xFFFFFFFFFFFFFFFFFFFFFFFFFFFFFFFFFFFFFFFF AND PUSH20 0xFFFFFFFFFFFFFFFFFFFFFFFFFFFFFFFFFFFFFFFF AND DUP2 MSTORE PUSH1 0x20 ADD SWAP1 DUP2 MSTORE PUSH1 0x20 ADD PUSH1 0x0 KECCAK256 SLOAD GT PUSH2 0x3A4 JUMPI PUSH1 0x40 MLOAD PUSH32 0x8C379A000000000000000000000000000000000000000000000000000000000 DUP2 MSTORE PUSH1 0x4 ADD PUSH2 0x39B SWAP1 PUSH2 0x10B9 JUMP JUMPDEST PUSH1 0x40 MLOAD DUP1 SWAP2 SUB SWAP1 REVERT JUMPDEST PUSH2 0x430 DUP2 PUSH1 0x8 PUSH1 0x0 DUP5 PUSH20 0xFFFFFFFFFFFFFFFFFFFFFFFFFFFFFFFFFFFFFFFF AND PUSH20 0xFFFFFFFFFFFFFFFFFFFFFFFFFFFFFFFFFFFFFFFF AND DUP2 MSTORE PUSH1 0x20 ADD SWAP1 DUP2 MSTORE PUSH1 0x20 ADD PUSH1 0x0 KECCAK256 SLOAD PUSH1 0x2 PUSH1 0x0 SWAP1 SLOAD SWAP1 PUSH2 0x100 EXP SWAP1 DIV PUSH20 0xFFFFFFFFFFFFFFFFFFFFFFFFFFFFFFFFFFFFFFFF AND PUSH20 0xFFFFFFFFFFFFFFFFFFFFFFFFFFFFFFFFFFFFFFFF AND PUSH2 0x7E7 SWAP1 SWAP3 SWAP2 SWAP1 PUSH4 0xFFFFFFFF AND JUMP JUMPDEST PUSH1 0x1 DUP1 DUP2 SWAP1 SSTORE POP POP JUMP JUMPDEST PUSH1 0x0 DUP1 PUSH2 0x446 DUP4 PUSH2 0x5C3 JUMP JUMPDEST GT SWAP1 POP SWAP2 SWAP1 POP JUMP JUMPDEST PUSH2 0x456 PUSH2 0x86D JUMP JUMPDEST PUSH1 0x1 ISZERO ISZERO PUSH2 0x464 DUP4 DUP4 PUSH2 0x8EB JUMP JUMPDEST ISZERO ISZERO EQ PUSH2 0x4A6 JUMPI PUSH1 0x40 MLOAD PUSH32 0x8C379A000000000000000000000000000000000000000000000000000000000 DUP2 MSTORE PUSH1 0x4 ADD PUSH2 0x49D SWAP1 PUSH2 0x1125 JUMP JUMPDEST PUSH1 0x40 MLOAD DUP1 SWAP2 SUB SWAP1 REVERT JUMPDEST DUP1 PUSH1 0x7 PUSH1 0x0 DUP5 PUSH20 0xFFFFFFFFFFFFFFFFFFFFFFFFFFFFFFFFFFFFFFFF AND PUSH20 0xFFFFFFFFFFFFFFFFFFFFFFFFFFFFFFFFFFFFFFFF AND DUP2 MSTORE PUSH1 0x20 ADD SWAP1 DUP2 MSTORE PUSH1 0x20 ADD PUSH1 0x0 KECCAK256 PUSH1 0x0 DUP3 DUP3 SLOAD PUSH2 0x4F5 SWAP2 SWAP1 PUSH2 0x1174 JUMP JUMPDEST SWAP3 POP POP DUP2 SWAP1 SSTORE POP DUP1 PUSH1 0x8 PUSH1 0x0 DUP5 PUSH20 0xFFFFFFFFFFFFFFFFFFFFFFFFFFFFFFFFFFFFFFFF AND PUSH20 0xFFFFFFFFFFFFFFFFFFFFFFFFFFFFFFFFFFFFFFFF AND DUP2 MSTORE PUSH1 0x20 ADD SWAP1 DUP2 MSTORE PUSH1 0x20 ADD PUSH1 0x0 KECCAK256 PUSH1 0x0 DUP3 DUP3 SLOAD PUSH2 0x54B SWAP2 SWAP1 PUSH2 0x11A8 JUMP JUMPDEST SWAP3 POP POP DUP2 SWAP1 SSTORE POP POP POP JUMP JUMPDEST PUSH1 0x8 PUSH1 0x20 MSTORE DUP1 PUSH1 0x0 MSTORE PUSH1 0x40 PUSH1 0x0 KECCAK256 PUSH1 0x0 SWAP2 POP SWAP1 POP SLOAD DUP2 JUMP JUMPDEST PUSH2 0x576 PUSH2 0x86D JUMP JUMPDEST PUSH2 0x580 PUSH1 0x0 PUSH2 0xB17 JUMP JUMPDEST JUMP JUMPDEST PUSH1 0x0 DUP1 PUSH1 0x0 SWAP1 SLOAD SWAP1 PUSH2 0x100 EXP SWAP1 DIV PUSH20 0xFFFFFFFFFFFFFFFFFFFFFFFFFFFFFFFFFFFFFFFF AND SWAP1 POP SWAP1 JUMP JUMPDEST PUSH1 0x7 PUSH1 0x20 MSTORE DUP1 PUSH1 0x0 MSTORE PUSH1 0x40 PUSH1 0x0 KECCAK256 PUSH1 0x0 SWAP2 POP SWAP1 POP SLOAD DUP2 JUMP JUMPDEST PUSH1 0x0 DUP1 PUSH1 0x7 PUSH1 0x0 DUP5 PUSH20 0xFFFFFFFFFFFFFFFFFFFFFFFFFFFFFFFFFFFFFFFF AND PUSH20 0xFFFFFFFFFFFFFFFFFFFFFFFFFFFFFFFFFFFFFFFF AND DUP2 MSTORE PUSH1 0x20 ADD SWAP1 DUP2 MSTORE PUSH1 0x20 ADD PUSH1 0x0 KECCAK256 SLOAD SWAP1 POP PUSH1 0x0 PUSH1 0x2 PUSH1 0x0 SWAP1 SLOAD SWAP1 PUSH2 0x100 EXP SWAP1 DIV PUSH20 0xFFFFFFFFFFFFFFFFFFFFFFFFFFFFFFFFFFFFFFFF AND PUSH20 0xFFFFFFFFFFFFFFFFFFFFFFFFFFFFFFFFFFFFFFFF AND PUSH4 0x70A08231 DUP6 PUSH1 0x40 MLOAD DUP3 PUSH4 0xFFFFFFFF AND PUSH1 0xE0 SHL DUP2 MSTORE PUSH1 0x4 ADD PUSH2 0x665 SWAP2 SWAP1 PUSH2 0xFD5 JUMP JUMPDEST PUSH1 0x20 PUSH1 0x40 MLOAD DUP1 DUP4 SUB DUP2 DUP7 GAS STATICCALL ISZERO DUP1 ISZERO PUSH2 0x682 JUMPI RETURNDATASIZE PUSH1 0x0 DUP1 RETURNDATACOPY RETURNDATASIZE PUSH1 0x0 REVERT JUMPDEST POP POP POP POP PUSH1 0x40 MLOAD RETURNDATASIZE PUSH1 0x1F NOT PUSH1 0x1F DUP3 ADD AND DUP3 ADD DUP1 PUSH1 0x40 MSTORE POP DUP2 ADD SWAP1 PUSH2 0x6A6 SWAP2 SWAP1 PUSH2 0x11F1 JUMP JUMPDEST SWAP1 POP DUP2 DUP2 PUSH2 0x6B4 SWAP2 SWAP1 PUSH2 0x1174 JUMP JUMPDEST SWAP3 POP POP POP SWAP2 SWAP1 POP JUMP JUMPDEST PUSH2 0x6C5 PUSH2 0x86D JUMP JUMPDEST DUP1 PUSH1 0x7 PUSH1 0x0 DUP5 PUSH20 0xFFFFFFFFFFFFFFFFFFFFFFFFFFFFFFFFFFFFFFFF AND PUSH20 0xFFFFFFFFFFFFFFFFFFFFFFFFFFFFFFFFFFFFFFFF AND DUP2 MSTORE PUSH1 0x20 ADD SWAP1 DUP2 MSTORE PUSH1 0x20 ADD PUSH1 0x0 KECCAK256 DUP2 SWAP1 SSTORE POP TIMESTAMP PUSH1 0x4 PUSH1 0x0 DUP5 PUSH20 0xFFFFFFFFFFFFFFFFFFFFFFFFFFFFFFFFFFFFFFFF AND PUSH20 0xFFFFFFFFFFFFFFFFFFFFFFFFFFFFFFFFFFFFFFFF AND DUP2 MSTORE PUSH1 0x20 ADD SWAP1 DUP2 MSTORE PUSH1 0x20 ADD PUSH1 0x0 KECCAK256 DUP2 SWAP1 SSTORE POP POP POP JUMP JUMPDEST PUSH2 0x759 PUSH2 0x86D JUMP JUMPDEST PUSH1 0x0 PUSH20 0xFFFFFFFFFFFFFFFFFFFFFFFFFFFFFFFFFFFFFFFF AND DUP2 PUSH20 0xFFFFFFFFFFFFFFFFFFFFFFFFFFFFFFFFFFFFFFFF AND SUB PUSH2 0x7C8 JUMPI PUSH1 0x40 MLOAD PUSH32 0x8C379A000000000000000000000000000000000000000000000000000000000 DUP2 MSTORE PUSH1 0x4 ADD PUSH2 0x7BF SWAP1 PUSH2 0x1290 JUMP JUMPDEST PUSH1 0x40 MLOAD DUP1 SWAP2 SUB SWAP1 REVERT JUMPDEST PUSH2 0x7D1 DUP2 PUSH2 0xB17 JUMP JUMPDEST POP JUMP JUMPDEST PUSH1 0x9 PUSH1 0x0 SWAP1 SLOAD SWAP1 PUSH2 0x100 EXP SWAP1 DIV PUSH1 0xFF AND DUP2 JUMP JUMPDEST PUSH2 0x868 DUP4 PUSH4 0xA9059CBB PUSH1 0xE0 SHL DUP5 DUP5 PUSH1 0x40 MLOAD PUSH1 0x24 ADD PUSH2 0x806 SWAP3 SWAP2 SWAP1 PUSH2 0x12B0 JUMP JUMPDEST PUSH1 0x40 MLOAD PUSH1 0x20 DUP2 DUP4 SUB SUB DUP2 MSTORE SWAP1 PUSH1 0x40 MSTORE SWAP1 PUSH28 0xFFFFFFFFFFFFFFFFFFFFFFFFFFFFFFFFFFFFFFFFFFFFFFFFFFFFFFFF NOT AND PUSH1 0x20 DUP3 ADD DUP1 MLOAD PUSH28 0xFFFFFFFFFFFFFFFFFFFFFFFFFFFFFFFFFFFFFFFFFFFFFFFFFFFFFFFF DUP4 DUP2 DUP4 AND OR DUP4 MSTORE POP POP POP POP PUSH2 0xBDB JUMP JUMPDEST POP POP POP JUMP JUMPDEST PUSH2 0x875 PUSH2 0xCA2 JUMP JUMPDEST PUSH20 0xFFFFFFFFFFFFFFFFFFFFFFFFFFFFFFFFFFFFFFFF AND PUSH2 0x893 PUSH2 0x582 JUMP JUMPDEST PUSH20 0xFFFFFFFFFFFFFFFFFFFFFFFFFFFFFFFFFFFFFFFF AND EQ PUSH2 0x8E9 JUMPI PUSH1 0x40 MLOAD PUSH32 0x8C379A000000000000000000000000000000000000000000000000000000000 DUP2 MSTORE PUSH1 0x4 ADD PUSH2 0x8E0 SWAP1 PUSH2 0x1325 JUMP JUMPDEST PUSH1 0x40 MLOAD DUP1 SWAP2 SUB SWAP1 REVERT JUMPDEST JUMP JUMPDEST PUSH1 0x0 PUSH1 0x1 ISZERO ISZERO PUSH1 0x5 PUSH1 0x0 DUP6 PUSH20 0xFFFFFFFFFFFFFFFFFFFFFFFFFFFFFFFFFFFFFFFF AND PUSH20 0xFFFFFFFFFFFFFFFFFFFFFFFFFFFFFFFFFFFFFFFF AND DUP2 MSTORE PUSH1 0x20 ADD SWAP1 DUP2 MSTORE PUSH1 0x20 ADD PUSH1 0x0 KECCAK256 PUSH1 0x0 SWAP1 SLOAD SWAP1 PUSH2 0x100 EXP SWAP1 DIV PUSH1 0xFF AND ISZERO ISZERO EQ DUP1 ISZERO PUSH2 0x960 JUMPI POP PUSH1 0x1 ISZERO ISZERO PUSH1 0x9 PUSH1 0x0 SWAP1 SLOAD SWAP1 PUSH2 0x100 EXP SWAP1 DIV PUSH1 0xFF AND ISZERO ISZERO EQ JUMPDEST DUP1 ISZERO PUSH2 0x9C3 JUMPI POP PUSH1 0x19 TIMESTAMP PUSH2 0x974 SWAP2 SWAP1 PUSH2 0x11A8 JUMP JUMPDEST PUSH1 0x3 SLOAD PUSH1 0x4 PUSH1 0x0 DUP7 PUSH20 0xFFFFFFFFFFFFFFFFFFFFFFFFFFFFFFFFFFFFFFFF AND PUSH20 0xFFFFFFFFFFFFFFFFFFFFFFFFFFFFFFFFFFFFFFFF AND DUP2 MSTORE PUSH1 0x20 ADD SWAP1 DUP2 MSTORE PUSH1 0x20 ADD PUSH1 0x0 KECCAK256 SLOAD PUSH2 0x9C1 SWAP2 SWAP1 PUSH2 0x11A8 JUMP JUMPDEST GT JUMPDEST ISZERO PUSH2 0xA6E JUMPI PUSH1 0x0 PUSH1 0x7 PUSH1 0x0 DUP6 PUSH20 0xFFFFFFFFFFFFFFFFFFFFFFFFFFFFFFFFFFFFFFFF AND PUSH20 0xFFFFFFFFFFFFFFFFFFFFFFFFFFFFFFFFFFFFFFFF AND DUP2 MSTORE PUSH1 0x20 ADD SWAP1 DUP2 MSTORE PUSH1 0x20 ADD PUSH1 0x0 KECCAK256 DUP2 SWAP1 SSTORE POP PUSH1 0x1 PUSH1 0x6 PUSH1 0x0 DUP6 PUSH20 0xFFFFFFFFFFFFFFFFFFFFFFFFFFFFFFFFFFFFFFFF AND PUSH20 0xFFFFFFFFFFFFFFFFFFFFFFFFFFFFFFFFFFFFFFFF AND DUP2 MSTORE PUSH1 0x20 ADD SWAP1 DUP2 MSTORE PUSH1 0x20 ADD PUSH1 0x0 KECCAK256 PUSH1 0x0 PUSH2 0x100 EXP DUP2 SLOAD DUP2 PUSH1 0xFF MUL NOT AND SWAP1 DUP4 ISZERO ISZERO MUL OR SWAP1 SSTORE POP PUSH1 0x1 SWAP1 POP PUSH2 0xB11 JUMP JUMPDEST PUSH2 0xA77 DUP4 PUSH2 0x43A JUMP JUMPDEST PUSH2 0xA84 JUMPI PUSH1 0x0 SWAP1 POP PUSH2 0xB11 JUMP JUMPDEST PUSH2 0xA8D DUP4 PUSH2 0x5C3 JUMP JUMPDEST DUP3 GT ISZERO PUSH2 0xA9D JUMPI PUSH1 0x0 SWAP1 POP PUSH2 0xB11 JUMP JUMPDEST PUSH1 0x1 ISZERO ISZERO PUSH1 0x6 PUSH1 0x0 DUP6 PUSH20 0xFFFFFFFFFFFFFFFFFFFFFFFFFFFFFFFFFFFFFFFF AND PUSH20 0xFFFFFFFFFFFFFFFFFFFFFFFFFFFFFFFFFFFFFFFF AND DUP2 MSTORE PUSH1 0x20 ADD SWAP1 DUP2 MSTORE PUSH1 0x20 ADD PUSH1 0x0 KECCAK256 PUSH1 0x0 SWAP1 SLOAD SWAP1 PUSH2 0x100 EXP SWAP1 DIV PUSH1 0xFF AND ISZERO ISZERO SUB PUSH2 0xAFE JUMPI PUSH1 0x1 SWAP1 POP PUSH2 0xB11 JUMP JUMPDEST PUSH1 0x9 PUSH1 0x0 SWAP1 SLOAD SWAP1 PUSH2 0x100 EXP SWAP1 DIV PUSH1 0xFF AND SWAP1 POP JUMPDEST SWAP3 SWAP2 POP POP JUMP JUMPDEST PUSH1 0x0 DUP1 PUSH1 0x0 SWAP1 SLOAD SWAP1 PUSH2 0x100 EXP SWAP1 DIV PUSH20 0xFFFFFFFFFFFFFFFFFFFFFFFFFFFFFFFFFFFFFFFF AND SWAP1 POP DUP2 PUSH1 0x0 DUP1 PUSH2 0x100 EXP DUP2 SLOAD DUP2 PUSH20 0xFFFFFFFFFFFFFFFFFFFFFFFFFFFFFFFFFFFFFFFF MUL NOT AND SWAP1 DUP4 PUSH20 0xFFFFFFFFFFFFFFFFFFFFFFFFFFFFFFFFFFFFFFFF AND MUL OR SWAP1 SSTORE POP DUP2 PUSH20 0xFFFFFFFFFFFFFFFFFFFFFFFFFFFFFFFFFFFFFFFF AND DUP2 PUSH20 0xFFFFFFFFFFFFFFFFFFFFFFFFFFFFFFFFFFFFFFFF AND PUSH32 0x8BE0079C531659141344CD1FD0A4F28419497F9722A3DAAFE3B4186F6B6457E0 PUSH1 0x40 MLOAD PUSH1 0x40 MLOAD DUP1 SWAP2 SUB SWAP1 LOG3 POP POP JUMP JUMPDEST PUSH1 0x0 PUSH2 0xC3D DUP3 PUSH1 0x40 MLOAD DUP1 PUSH1 0x40 ADD PUSH1 0x40 MSTORE DUP1 PUSH1 0x20 DUP2 MSTORE PUSH1 0x20 ADD PUSH32 0x5361666545524332303A206C6F772D6C6576656C2063616C6C206661696C6564 DUP2 MSTORE POP DUP6 PUSH20 0xFFFFFFFFFFFFFFFFFFFFFFFFFFFFFFFFFFFFFFFF AND PUSH2 0xCAA SWAP1 SWAP3 SWAP2 SWAP1 PUSH4 0xFFFFFFFF AND JUMP JUMPDEST SWAP1 POP PUSH1 0x0 DUP2 MLOAD GT ISZERO PUSH2 0xC9D JUMPI DUP1 DUP1 PUSH1 0x20 ADD SWAP1 MLOAD DUP2 ADD SWAP1 PUSH2 0xC5D SWAP2 SWAP1 PUSH2 0x1371 JUMP JUMPDEST PUSH2 0xC9C JUMPI PUSH1 0x40 MLOAD PUSH32 0x8C379A000000000000000000000000000000000000000000000000000000000 DUP2 MSTORE PUSH1 0x4 ADD PUSH2 0xC93 SWAP1 PUSH2 0x1410 JUMP JUMPDEST PUSH1 0x40 MLOAD DUP1 SWAP2 SUB SWAP1 REVERT JUMPDEST JUMPDEST POP POP POP JUMP JUMPDEST PUSH1 0x0 CALLER SWAP1 POP SWAP1 JUMP JUMPDEST PUSH1 0x60 PUSH2 0xCB9 DUP5 DUP5 PUSH1 0x0 DUP6 PUSH2 0xCC2 JUMP JUMPDEST SWAP1 POP SWAP4 SWAP3 POP POP POP JUMP JUMPDEST PUSH1 0x60 DUP3 SELFBALANCE LT ISZERO PUSH2 0xD07 JUMPI PUSH1 0x40 MLOAD PUSH32 0x8C379A000000000000000000000000000000000000000000000000000000000 DUP2 MSTORE PUSH1 0x4 ADD PUSH2 0xCFE SWAP1 PUSH2 0x14A2 JUMP JUMPDEST PUSH1 0x40 MLOAD DUP1 SWAP2 SUB SWAP1 REVERT JUMPDEST PUSH2 0xD10 DUP6 PUSH2 0xDD6 JUMP JUMPDEST PUSH2 0xD4F JUMPI PUSH1 0x40 MLOAD PUSH32 0x8C379A000000000000000000000000000000000000000000000000000000000 DUP2 MSTORE PUSH1 0x4 ADD PUSH2 0xD46 SWAP1 PUSH2 0x150E JUMP JUMPDEST PUSH1 0x40 MLOAD DUP1 SWAP2 SUB SWAP1 REVERT JUMPDEST PUSH1 0x0 DUP1 DUP7 PUSH20 0xFFFFFFFFFFFFFFFFFFFFFFFFFFFFFFFFFFFFFFFF AND DUP6 DUP8 PUSH1 0x40 MLOAD PUSH2 0xD78 SWAP2 SWAP1 PUSH2 0x159F JUMP JUMPDEST PUSH1 0x0 PUSH1 0x40 MLOAD DUP1 DUP4 SUB DUP2 DUP6 DUP8 GAS CALL SWAP3 POP POP POP RETURNDATASIZE DUP1 PUSH1 0x0 DUP2 EQ PUSH2 0xDB5 JUMPI PUSH1 0x40 MLOAD SWAP2 POP PUSH1 0x1F NOT PUSH1 0x3F RETURNDATASIZE ADD AND DUP3 ADD PUSH1 0x40 MSTORE RETURNDATASIZE DUP3 MSTORE RETURNDATASIZE PUSH1 0x0 PUSH1 0x20 DUP5 ADD RETURNDATACOPY PUSH2 0xDBA JUMP JUMPDEST PUSH1 0x60 SWAP2 POP JUMPDEST POP SWAP2 POP SWAP2 POP PUSH2 0xDCA DUP3 DUP3 DUP7 PUSH2 0xDF9 JUMP JUMPDEST SWAP3 POP POP POP SWAP5 SWAP4 POP POP POP POP JUMP JUMPDEST PUSH1 0x0 DUP1 DUP3 PUSH20 0xFFFFFFFFFFFFFFFFFFFFFFFFFFFFFFFFFFFFFFFF AND EXTCODESIZE GT SWAP1 POP SWAP2 SWAP1 POP JUMP JUMPDEST PUSH1 0x60 DUP4 ISZERO PUSH2 0xE09 JUMPI DUP3 SWAP1 POP PUSH2 0xE59 JUMP JUMPDEST PUSH1 0x0 DUP4 MLOAD GT ISZERO PUSH2 0xE1C JUMPI DUP3 MLOAD DUP1 DUP5 PUSH1 0x20 ADD REVERT JUMPDEST DUP2 PUSH1 0x40 MLOAD PUSH32 0x8C379A000000000000000000000000000000000000000000000000000000000 DUP2 MSTORE PUSH1 0x4 ADD PUSH2 0xE50 SWAP2 SWAP1 PUSH2 0x160B JUMP JUMPDEST PUSH1 0x40 MLOAD DUP1 SWAP2 SUB SWAP1 REVERT JUMPDEST SWAP4 SWAP3 POP POP POP JUMP JUMPDEST PUSH1 0x0 DUP2 SWAP1 POP SWAP2 SWAP1 POP JUMP JUMPDEST PUSH2 0xE73 DUP2 PUSH2 0xE60 JUMP JUMPDEST DUP3 MSTORE POP POP JUMP JUMPDEST PUSH1 0x0 PUSH1 0x20 DUP3 ADD SWAP1 POP PUSH2 0xE8E PUSH1 0x0 DUP4 ADD DUP5 PUSH2 0xE6A JUMP JUMPDEST SWAP3 SWAP2 POP POP JUMP JUMPDEST PUSH1 0x0 DUP1 REVERT JUMPDEST PUSH1 0x0 PUSH20 0xFFFFFFFFFFFFFFFFFFFFFFFFFFFFFFFFFFFFFFFF DUP3 AND SWAP1 POP SWAP2 SWAP1 POP JUMP JUMPDEST PUSH1 0x0 PUSH2 0xEC4 DUP3 PUSH2 0xE99 JUMP JUMPDEST SWAP1 POP SWAP2 SWAP1 POP JUMP JUMPDEST PUSH2 0xED4 DUP2 PUSH2 0xEB9 JUMP JUMPDEST DUP2 EQ PUSH2 0xEDF JUMPI PUSH1 0x0 DUP1 REVERT JUMPDEST POP JUMP JUMPDEST PUSH1 0x0 DUP2 CALLDATALOAD SWAP1 POP PUSH2 0xEF1 DUP2 PUSH2 0xECB JUMP JUMPDEST SWAP3 SWAP2 POP POP JUMP JUMPDEST PUSH1 0x0 PUSH1 0x20 DUP3 DUP5 SUB SLT ISZERO PUSH2 0xF0D JUMPI PUSH2 0xF0C PUSH2 0xE94 JUMP JUMPDEST JUMPDEST PUSH1 0x0 PUSH2 0xF1B DUP5 DUP3 DUP6 ADD PUSH2 0xEE2 JUMP JUMPDEST SWAP2 POP POP SWAP3 SWAP2 POP POP JUMP JUMPDEST PUSH1 0x0 DUP2 ISZERO ISZERO SWAP1 POP SWAP2 SWAP1 POP JUMP JUMPDEST PUSH2 0xF39 DUP2 PUSH2 0xF24 JUMP JUMPDEST DUP3 MSTORE POP POP JUMP JUMPDEST PUSH1 0x0 PUSH1 0x20 DUP3 ADD SWAP1 POP PUSH2 0xF54 PUSH1 0x0 DUP4 ADD DUP5 PUSH2 0xF30 JUMP JUMPDEST SWAP3 SWAP2 POP POP JUMP JUMPDEST PUSH2 0xF63 DUP2 PUSH2 0xE60 JUMP JUMPDEST DUP2 EQ PUSH2 0xF6E JUMPI PUSH1 0x0 DUP1 REVERT JUMPDEST POP JUMP JUMPDEST PUSH1 0x0 DUP2 CALLDATALOAD SWAP1 POP PUSH2 0xF80 DUP2 PUSH2 0xF5A JUMP JUMPDEST SWAP3 SWAP2 POP POP JUMP JUMPDEST PUSH1 0x0 DUP1 PUSH1 0x40 DUP4 DUP6 SUB SLT ISZERO PUSH2 0xF9D JUMPI PUSH2 0xF9C PUSH2 0xE94 JUMP JUMPDEST JUMPDEST PUSH1 0x0 PUSH2 0xFAB DUP6 DUP3 DUP7 ADD PUSH2 0xEE2 JUMP JUMPDEST SWAP3 POP POP PUSH1 0x20 PUSH2 0xFBC DUP6 DUP3 DUP7 ADD PUSH2 0xF71 JUMP JUMPDEST SWAP2 POP POP SWAP3 POP SWAP3 SWAP1 POP JUMP JUMPDEST PUSH2 0xFCF DUP2 PUSH2 0xEB9 JUMP JUMPDEST DUP3 MSTORE POP POP JUMP JUMPDEST PUSH1 0x0 PUSH1 0x20 DUP3 ADD SWAP1 POP PUSH2 0xFEA PUSH1 0x0 DUP4 ADD DUP5 PUSH2 0xFC6 JUMP JUMPDEST SWAP3 SWAP2 POP POP JUMP JUMPDEST PUSH1 0x0 DUP3 DUP3 MSTORE PUSH1 0x20 DUP3 ADD SWAP1 POP SWAP3 SWAP2 POP POP JUMP JUMPDEST PUSH32 0x5265656E7472616E637947756172643A207265656E7472616E742063616C6C00 PUSH1 0x0 DUP3 ADD MSTORE POP JUMP JUMPDEST PUSH1 0x0 PUSH2 0x1037 PUSH1 0x1F DUP4 PUSH2 0xFF0 JUMP JUMPDEST SWAP2 POP PUSH2 0x1042 DUP3 PUSH2 0x1001 JUMP JUMPDEST PUSH1 0x20 DUP3 ADD SWAP1 POP SWAP2 SWAP1 POP JUMP JUMPDEST PUSH1 0x0 PUSH1 0x20 DUP3 ADD SWAP1 POP DUP2 DUP2 SUB PUSH1 0x0 DUP4 ADD MSTORE PUSH2 0x1066 DUP2 PUSH2 0x102A JUMP JUMPDEST SWAP1 POP SWAP2 SWAP1 POP JUMP JUMPDEST PUSH32 0x6E6F20756E6C6F636B65642062616C616E636520617661696C61626C65000000 PUSH1 0x0 DUP3 ADD MSTORE POP JUMP JUMPDEST PUSH1 0x0 PUSH2 0x10A3 PUSH1 0x1D DUP4 PUSH2 0xFF0 JUMP JUMPDEST SWAP2 POP PUSH2 0x10AE DUP3 PUSH2 0x106D JUMP JUMPDEST PUSH1 0x20 DUP3 ADD SWAP1 POP SWAP2 SWAP1 POP JUMP JUMPDEST PUSH1 0x0 PUSH1 0x20 DUP3 ADD SWAP1 POP DUP2 DUP2 SUB PUSH1 0x0 DUP4 ADD MSTORE PUSH2 0x10D2 DUP2 PUSH2 0x1096 JUMP JUMPDEST SWAP1 POP SWAP2 SWAP1 POP JUMP JUMPDEST PUSH32 0x63616E6E6F7420756E6C6F636B20746F6B656E73000000000000000000000000 PUSH1 0x0 DUP3 ADD MSTORE POP JUMP JUMPDEST PUSH1 0x0 PUSH2 0x110F PUSH1 0x14 DUP4 PUSH2 0xFF0 JUMP JUMPDEST SWAP2 POP PUSH2 0x111A DUP3 PUSH2 0x10D9 JUMP JUMPDEST PUSH1 0x20 DUP3 ADD SWAP1 POP SWAP2 SWAP1 POP JUMP JUMPDEST PUSH1 0x0 PUSH1 0x20 DUP3 ADD SWAP1 POP DUP2 DUP2 SUB PUSH1 0x0 DUP4 ADD MSTORE PUSH2 0x113E DUP2 PUSH2 0x1102 JUMP JUMPDEST SWAP1 POP SWAP2 SWAP1 POP JUMP JUMPDEST PUSH32 0x4E487B7100000000000000000000000000000000000000000000000000000000 PUSH1 0x0 MSTORE PUSH1 0x11 PUSH1 0x4 MSTORE PUSH1 0x24 PUSH1 0x0 REVERT JUMPDEST PUSH1 0x0 PUSH2 0x117F DUP3 PUSH2 0xE60 JUMP JUMPDEST SWAP2 POP PUSH2 0x118A DUP4 PUSH2 0xE60 JUMP JUMPDEST SWAP3 POP DUP3 DUP3 SUB SWAP1 POP DUP2 DUP2 GT ISZERO PUSH2 0x11A2 JUMPI PUSH2 0x11A1 PUSH2 0x1145 JUMP JUMPDEST JUMPDEST SWAP3 SWAP2 POP POP JUMP JUMPDEST PUSH1 0x0 PUSH2 0x11B3 DUP3 PUSH2 0xE60 JUMP JUMPDEST SWAP2 POP PUSH2 0x11BE DUP4 PUSH2 0xE60 JUMP JUMPDEST SWAP3 POP DUP3 DUP3 ADD SWAP1 POP DUP1 DUP3 GT ISZERO PUSH2 0x11D6 JUMPI PUSH2 0x11D5 PUSH2 0x1145 JUMP JUMPDEST JUMPDEST SWAP3 SWAP2 POP POP JUMP JUMPDEST PUSH1 0x0 DUP2 MLOAD SWAP1 POP PUSH2 0x11EB DUP2 PUSH2 0xF5A JUMP JUMPDEST SWAP3 SWAP2 POP POP JUMP JUMPDEST PUSH1 0x0 PUSH1 0x20 DUP3 DUP5 SUB SLT ISZERO PUSH2 0x1207 JUMPI PUSH2 0x1206 PUSH2 0xE94 JUMP JUMPDEST JUMPDEST PUSH1 0x0 PUSH2 0x1215 DUP5 DUP3 DUP6 ADD PUSH2 0x11DC JUMP JUMPDEST SWAP2 POP POP SWAP3 SWAP2 POP POP JUMP JUMPDEST PUSH32 0x4F776E61626C653A206E6577206F776E657220697320746865207A65726F2061 PUSH1 0x0 DUP3 ADD MSTORE PUSH32 0x6464726573730000000000000000000000000000000000000000000000000000 PUSH1 0x20 DUP3 ADD MSTORE POP JUMP JUMPDEST PUSH1 0x0 PUSH2 0x127A PUSH1 0x26 DUP4 PUSH2 0xFF0 JUMP JUMPDEST SWAP2 POP PUSH2 0x1285 DUP3 PUSH2 0x121E JUMP JUMPDEST PUSH1 0x40 DUP3 ADD SWAP1 POP SWAP2 SWAP1 POP JUMP JUMPDEST PUSH1 0x0 PUSH1 0x20 DUP3 ADD SWAP1 POP DUP2 DUP2 SUB PUSH1 0x0 DUP4 ADD MSTORE PUSH2 0x12A9 DUP2 PUSH2 0x126D JUMP JUMPDEST SWAP1 POP SWAP2 SWAP1 POP JUMP JUMPDEST PUSH1 0x0 PUSH1 0x40 DUP3 ADD SWAP1 POP PUSH2 0x12C5 PUSH1 0x0 DUP4 ADD DUP6 PUSH2 0xFC6 JUMP JUMPDEST PUSH2 0x12D2 PUSH1 0x20 DUP4 ADD DUP5 PUSH2 0xE6A JUMP JUMPDEST SWAP4 SWAP3 POP POP POP JUMP JUMPDEST PUSH32 0x4F776E61626C653A2063616C6C6572206973206E6F7420746865206F776E6572 PUSH1 0x0 DUP3 ADD MSTORE POP JUMP JUMPDEST PUSH1 0x0 PUSH2 0x130F PUSH1 0x20 DUP4 PUSH2 0xFF0 JUMP JUMPDEST SWAP2 POP PUSH2 0x131A DUP3 PUSH2 0x12D9 JUMP JUMPDEST PUSH1 0x20 DUP3 ADD SWAP1 POP SWAP2 SWAP1 POP JUMP JUMPDEST PUSH1 0x0 PUSH1 0x20 DUP3 ADD SWAP1 POP DUP2 DUP2 SUB PUSH1 0x0 DUP4 ADD MSTORE PUSH2 0x133E DUP2 PUSH2 0x1302 JUMP JUMPDEST SWAP1 POP SWAP2 SWAP1 POP JUMP JUMPDEST PUSH2 0x134E DUP2 PUSH2 0xF24 JUMP JUMPDEST DUP2 EQ PUSH2 0x1359 JUMPI PUSH1 0x0 DUP1 REVERT JUMPDEST POP JUMP JUMPDEST PUSH1 0x0 DUP2 MLOAD SWAP1 POP PUSH2 0x136B DUP2 PUSH2 0x1345 JUMP JUMPDEST SWAP3 SWAP2 POP POP JUMP JUMPDEST PUSH1 0x0 PUSH1 0x20 DUP3 DUP5 SUB SLT ISZERO PUSH2 0x1387 JUMPI PUSH2 0x1386 PUSH2 0xE94 JUMP JUMPDEST JUMPDEST PUSH1 0x0 PUSH2 0x1395 DUP5 DUP3 DUP6 ADD PUSH2 0x135C JUMP JUMPDEST SWAP2 POP POP SWAP3 SWAP2 POP POP JUMP JUMPDEST PUSH32 0x5361666545524332303A204552433230206F7065726174696F6E20646964206E PUSH1 0x0 DUP3 ADD MSTORE PUSH32 0x6F74207375636365656400000000000000000000000000000000000000000000 PUSH1 0x20 DUP3 ADD MSTORE POP JUMP JUMPDEST PUSH1 0x0 PUSH2 0x13FA PUSH1 0x2A DUP4 PUSH2 0xFF0 JUMP JUMPDEST SWAP2 POP PUSH2 0x1405 DUP3 PUSH2 0x139E JUMP JUMPDEST PUSH1 0x40 DUP3 ADD SWAP1 POP SWAP2 SWAP1 POP JUMP JUMPDEST PUSH1 0x0 PUSH1 0x20 DUP3 ADD SWAP1 POP DUP2 DUP2 SUB PUSH1 0x0 DUP4 ADD MSTORE PUSH2 0x1429 DUP2 PUSH2 0x13ED JUMP JUMPDEST SWAP1 POP SWAP2 SWAP1 POP JUMP JUMPDEST PUSH32 0x416464726573733A20696E73756666696369656E742062616C616E636520666F PUSH1 0x0 DUP3 ADD MSTORE PUSH32 0x722063616C6C0000000000000000000000000000000000000000000000000000 PUSH1 0x20 DUP3 ADD MSTORE POP JUMP JUMPDEST PUSH1 0x0 PUSH2 0x148C PUSH1 0x26 DUP4 PUSH2 0xFF0 JUMP JUMPDEST SWAP2 POP PUSH2 0x1497 DUP3 PUSH2 0x1430 JUMP JUMPDEST PUSH1 0x40 DUP3 ADD SWAP1 POP SWAP2 SWAP1 POP JUMP JUMPDEST PUSH1 0x0 PUSH1 0x20 DUP3 ADD SWAP1 POP DUP2 DUP2 SUB PUSH1 0x0 DUP4 ADD MSTORE PUSH2 0x14BB DUP2 PUSH2 0x147F JUMP JUMPDEST SWAP1 POP SWAP2 SWAP1 POP JUMP JUMPDEST PUSH32 0x416464726573733A2063616C6C20746F206E6F6E2D636F6E7472616374000000 PUSH1 0x0 DUP3 ADD MSTORE POP JUMP JUMPDEST PUSH1 0x0 PUSH2 0x14F8 PUSH1 0x1D DUP4 PUSH2 0xFF0 JUMP JUMPDEST SWAP2 POP PUSH2 0x1503 DUP3 PUSH2 0x14C2 JUMP JUMPDEST PUSH1 0x20 DUP3 ADD SWAP1 POP SWAP2 SWAP1 POP JUMP JUMPDEST PUSH1 0x0 PUSH1 0x20 DUP3 ADD SWAP1 POP DUP2 DUP2 SUB PUSH1 0x0 DUP4 ADD MSTORE PUSH2 0x1527 DUP2 PUSH2 0x14EB JUMP JUMPDEST SWAP1 POP SWAP2 SWAP1 POP JUMP JUMPDEST PUSH1 0x0 DUP2 MLOAD SWAP1 POP SWAP2 SWAP1 POP JUMP JUMPDEST PUSH1 0x0 DUP2 SWAP1 POP SWAP3 SWAP2 POP POP JUMP JUMPDEST PUSH1 0x0 JUMPDEST DUP4 DUP2 LT ISZERO PUSH2 0x1562 JUMPI DUP1 DUP3 ADD MLOAD DUP2 DUP5 ADD MSTORE PUSH1 0x20 DUP2 ADD SWAP1 POP PUSH2 0x1547 JUMP JUMPDEST PUSH1 0x0 DUP5 DUP5 ADD MSTORE POP POP POP POP JUMP JUMPDEST PUSH1 0x0 PUSH2 0x1579 DUP3 PUSH2 0x152E JUMP JUMPDEST PUSH2 0x1583 DUP2 DUP6 PUSH2 0x1539 JUMP JUMPDEST SWAP4 POP PUSH2 0x1593 DUP2 DUP6 PUSH1 0x20 DUP7 ADD PUSH2 0x1544 JUMP JUMPDEST DUP1 DUP5 ADD SWAP2 POP POP SWAP3 SWAP2 POP POP JUMP JUMPDEST PUSH1 0x0 PUSH2 0x15AB DUP3 DUP5 PUSH2 0x156E JUMP JUMPDEST SWAP2 POP DUP2 SWAP1 POP SWAP3 SWAP2 POP POP JUMP JUMPDEST PUSH1 0x0 DUP2 MLOAD SWAP1 POP SWAP2 SWAP1 POP JUMP JUMPDEST PUSH1 0x0 PUSH1 0x1F NOT PUSH1 0x1F DUP4 ADD AND SWAP1 POP SWAP2 SWAP1 POP JUMP JUMPDEST PUSH1 0x0 PUSH2 0x15DD DUP3 PUSH2 0x15B6 JUMP JUMPDEST PUSH2 0x15E7 DUP2 DUP6 PUSH2 0xFF0 JUMP JUMPDEST SWAP4 POP PUSH2 0x15F7 DUP2 DUP6 PUSH1 0x20 DUP7 ADD PUSH2 0x1544 JUMP JUMPDEST PUSH2 0x1600 DUP2 PUSH2 0x15C1 JUMP JUMPDEST DUP5 ADD SWAP2 POP POP SWAP3 SWAP2 POP POP JUMP JUMPDEST PUSH1 0x0 PUSH1 0x20 DUP3 ADD SWAP1 POP DUP2 DUP2 SUB PUSH1 0x0 DUP4 ADD MSTORE PUSH2 0x1625 DUP2 DUP5 PUSH2 0x15D2 JUMP JUMPDEST SWAP1 POP SWAP3 SWAP2 POP POP JUMP INVALID LOG2 PUSH5 0x6970667358 0x22 SLT KECCAK256 SUB 0xC5 BASEFEE 0x2B SWAP2 CODECOPY SWAP14 0xE2 0xCE CALLER CODESIZE SWAP15 SGT DUP4 PUSH26 0xD8DA81E0763360983AA063C27BF52DCB6764736F6C6343000811 STOP CALLER "
				},
				"gasEstimates": {
					"creation": {
						"codeDepositCost": "1146200",
						"executionCost": "infinite",
						"totalCost": "infinite"
					},
					"external": {
						"availableBalance(address)": "infinite",
						"canSell()": "2581",
						"isHavingAvailableBalance(address)": "infinite",
						"lockDuration()": "2430",
						"lockTokens(address,uint256)": "47365",
						"lockedBalance(address)": "2836",
						"owner()": "2522",
						"renounceOwnership()": "30509",
						"transferOwnership(address)": "30832",
						"unlockTokensFor(address,uint256)": "infinite",
						"unlockedBalance(address)": "2903",
						"withdrawUnlockedTokens(address)": "infinite"
					},
					"internal": {
						"verifySellPermissions(address,uint256)": "infinite"
					}
				},
				"methodIdentifiers": {
					"availableBalance(address)": "a0821be3",
					"canSell()": "fa3afbbf",
					"isHavingAvailableBalance(address)": "2cbacb44",
					"lockDuration()": "04554443",
					"lockTokens(address,uint256)": "b1c25586",
					"lockedBalance(address)": "9ae697bf",
					"owner()": "8da5cb5b",
					"renounceOwnership()": "715018a6",
					"transferOwnership(address)": "f2fde38b",
					"unlockTokensFor(address,uint256)": "34834c18",
					"unlockedBalance(address)": "5e0fac2e",
					"withdrawUnlockedTokens(address)": "2890dc99"
				}
			},
			"storageLayout": {
				"storage": [
					{
						"astId": 7,
						"contract": "contracts/Logic/LockLogic.sol:LockLogic",
						"label": "_owner",
						"offset": 0,
						"slot": "0",
						"type": "t_address"
					},
					{
						"astId": 123,
						"contract": "contracts/Logic/LockLogic.sol:LockLogic",
						"label": "_status",
						"offset": 0,
						"slot": "1",
						"type": "t_uint256"
					},
					{
						"astId": 1492,
						"contract": "contracts/Logic/LockLogic.sol:LockLogic",
						"label": "_token",
						"offset": 0,
						"slot": "2",
						"type": "t_contract(ERC20)738"
					},
					{
						"astId": 1506,
						"contract": "contracts/Logic/LockLogic.sol:LockLogic",
						"label": "lockDuration",
						"offset": 0,
						"slot": "3",
						"type": "t_uint256"
					},
					{
						"astId": 1510,
						"contract": "contracts/Logic/LockLogic.sol:LockLogic",
						"label": "_lastBuyTime",
						"offset": 0,
						"slot": "4",
						"type": "t_mapping(t_address,t_uint256)"
					},
					{
						"astId": 1514,
						"contract": "contracts/Logic/LockLogic.sol:LockLogic",
						"label": "_vipHolders",
						"offset": 0,
						"slot": "5",
						"type": "t_mapping(t_address,t_bool)"
					},
					{
						"astId": 1518,
						"contract": "contracts/Logic/LockLogic.sol:LockLogic",
						"label": "_isUnlocked",
						"offset": 0,
						"slot": "6",
						"type": "t_mapping(t_address,t_bool)"
					},
					{
						"astId": 1522,
						"contract": "contracts/Logic/LockLogic.sol:LockLogic",
						"label": "lockedBalance",
						"offset": 0,
						"slot": "7",
						"type": "t_mapping(t_address,t_uint256)"
					},
					{
						"astId": 1526,
						"contract": "contracts/Logic/LockLogic.sol:LockLogic",
						"label": "unlockedBalance",
						"offset": 0,
						"slot": "8",
						"type": "t_mapping(t_address,t_uint256)"
					},
					{
						"astId": 1528,
						"contract": "contracts/Logic/LockLogic.sol:LockLogic",
						"label": "canSell",
						"offset": 0,
						"slot": "9",
						"type": "t_bool"
					}
				],
				"types": {
					"t_address": {
						"encoding": "inplace",
						"label": "address",
						"numberOfBytes": "20"
					},
					"t_bool": {
						"encoding": "inplace",
						"label": "bool",
						"numberOfBytes": "1"
					},
					"t_contract(ERC20)738": {
						"encoding": "inplace",
						"label": "contract ERC20",
						"numberOfBytes": "20"
					},
					"t_mapping(t_address,t_bool)": {
						"encoding": "mapping",
						"key": "t_address",
						"label": "mapping(address => bool)",
						"numberOfBytes": "32",
						"value": "t_bool"
					},
					"t_mapping(t_address,t_uint256)": {
						"encoding": "mapping",
						"key": "t_address",
						"label": "mapping(address => uint256)",
						"numberOfBytes": "32",
						"value": "t_uint256"
					},
					"t_uint256": {
						"encoding": "inplace",
						"label": "uint256",
						"numberOfBytes": "32"
					}
				}
			},
			"userdoc": {
				"kind": "user",
				"methods": {},
				"version": 1
			}
		}
	}
}