{
	"contracts/Logic/ReferralLogic.sol": {
		"ReferralLogic": {
			"abi": [
				{
					"inputs": [],
					"stateMutability": "nonpayable",
					"type": "constructor"
				},
				{
					"anonymous": false,
					"inputs": [
						{
							"indexed": false,
							"internalType": "address",
							"name": "_logic",
							"type": "address"
						}
					],
					"name": "LogicInitialized",
					"type": "event"
				},
				{
					"anonymous": false,
					"inputs": [
						{
							"indexed": true,
							"internalType": "address",
							"name": "previousOwner",
							"type": "address"
						},
						{
							"indexed": true,
							"internalType": "address",
							"name": "newOwner",
							"type": "address"
						}
					],
					"name": "OwnershipTransferred",
					"type": "event"
				},
				{
					"inputs": [
						{
							"internalType": "bytes",
							"name": "_data",
							"type": "bytes"
						}
					],
					"name": "coreLogic",
					"outputs": [],
					"stateMutability": "nonpayable",
					"type": "function"
				},
				{
					"inputs": [
						{
							"internalType": "address",
							"name": "_from",
							"type": "address"
						},
						{
							"internalType": "bytes",
							"name": "_data",
							"type": "bytes"
						}
					],
					"name": "execute",
					"outputs": [
						{
							"internalType": "bool",
							"name": "",
							"type": "bool"
						}
					],
					"stateMutability": "nonpayable",
					"type": "function"
				},
				{
					"inputs": [
						{
							"internalType": "address",
							"name": "_from",
							"type": "address"
						}
					],
					"name": "getResults",
					"outputs": [
						{
							"internalType": "uint256",
							"name": "",
							"type": "uint256"
						}
					],
					"stateMutability": "nonpayable",
					"type": "function"
				},
				{
					"inputs": [],
					"name": "owner",
					"outputs": [
						{
							"internalType": "address",
							"name": "",
							"type": "address"
						}
					],
					"stateMutability": "view",
					"type": "function"
				},
				{
					"inputs": [],
					"name": "renounceOwnership",
					"outputs": [],
					"stateMutability": "nonpayable",
					"type": "function"
				},
				{
					"inputs": [
						{
							"internalType": "bytes",
							"name": "_data",
							"type": "bytes"
						}
					],
					"name": "setLogicData",
					"outputs": [],
					"stateMutability": "nonpayable",
					"type": "function"
				},
				{
					"inputs": [
						{
							"internalType": "address",
							"name": "newOwner",
							"type": "address"
						}
					],
					"name": "transferOwnership",
					"outputs": [],
					"stateMutability": "nonpayable",
					"type": "function"
				}
			],
			"devdoc": {
				"kind": "dev",
				"methods": {
					"owner()": {
						"details": "Returns the address of the current owner."
					},
					"renounceOwnership()": {
						"details": "Leaves the contract without owner. It will not be possible to call `onlyOwner` functions anymore. Can only be called by the current owner. NOTE: Renouncing ownership will leave the contract without an owner, thereby removing any functionality that is only available to the owner."
					},
					"transferOwnership(address)": {
						"details": "Transfers ownership of the contract to a new account (`newOwner`). Can only be called by the current owner."
					}
				},
				"version": 1
			},
			"evm": {
				"assembly": "    /* \"contracts/Logic/ReferralLogic.sol\":147:2223  contract ReferralLogic is ILogic, Ownable {... */\n  mstore(0x40, 0x80)\n    /* \"contracts/Logic/ReferralLogic.sol\":381:384  1e6 */\n  0x0f4240\n    /* \"contracts/Logic/ReferralLogic.sol\":354:384  uint256 private mantissa = 1e6 */\n  0x02\n  sstore\n    /* \"contracts/Logic/ReferralLogic.sol\":800:848  constructor() {... */\n  callvalue\n  dup1\n  iszero\n  tag_1\n  jumpi\n  0x00\n  dup1\n  revert\ntag_1:\n  pop\n    /* \"@openzeppelin/contracts/access/Ownable.sol\":936:968  _transferOwnership(_msgSender()) */\n  tag_5\n    /* \"@openzeppelin/contracts/access/Ownable.sol\":955:967  _msgSender() */\n  tag_6\n    /* \"@openzeppelin/contracts/access/Ownable.sol\":955:965  _msgSender */\n  shl(0x20, tag_7)\n    /* \"@openzeppelin/contracts/access/Ownable.sol\":955:967  _msgSender() */\n  0x20\n  shr\n  jump\t// in\ntag_6:\n    /* \"@openzeppelin/contracts/access/Ownable.sol\":936:954  _transferOwnership */\n  shl(0x20, tag_8)\n    /* \"@openzeppelin/contracts/access/Ownable.sol\":936:968  _transferOwnership(_msgSender()) */\n  0x20\n  shr\n  jump\t// in\ntag_5:\n    /* \"contracts/Logic/ReferralLogic.sol\":833:834  0 */\n  0x00\n    /* \"contracts/Logic/ReferralLogic.sol\":824:830  _index */\n  0x01\n    /* \"contracts/Logic/ReferralLogic.sol\":824:834  _index = 0 */\n  dup2\n  swap1\n  sstore\n  pop\n    /* \"contracts/Logic/ReferralLogic.sol\":147:2223  contract ReferralLogic is ILogic, Ownable {... */\n  jump(tag_10)\n    /* \"@openzeppelin/contracts/utils/Context.sol\":640:736  function _msgSender() internal view virtual returns (address) {... */\ntag_7:\n    /* \"@openzeppelin/contracts/utils/Context.sol\":693:700  address */\n  0x00\n    /* \"@openzeppelin/contracts/utils/Context.sol\":719:729  msg.sender */\n  caller\n    /* \"@openzeppelin/contracts/utils/Context.sol\":712:729  return msg.sender */\n  swap1\n  pop\n    /* \"@openzeppelin/contracts/utils/Context.sol\":640:736  function _msgSender() internal view virtual returns (address) {... */\n  swap1\n  jump\t// out\n    /* \"@openzeppelin/contracts/access/Ownable.sol\":2433:2620  function _transferOwnership(address newOwner) internal virtual {... */\ntag_8:\n    /* \"@openzeppelin/contracts/access/Ownable.sol\":2506:2522  address oldOwner */\n  0x00\n    /* \"@openzeppelin/contracts/access/Ownable.sol\":2525:2531  _owner */\n  dup1\n  0x00\n  swap1\n  sload\n  swap1\n  0x0100\n  exp\n  swap1\n  div\n  0xffffffffffffffffffffffffffffffffffffffff\n  and\n    /* \"@openzeppelin/contracts/access/Ownable.sol\":2506:2531  address oldOwner = _owner */\n  swap1\n  pop\n    /* \"@openzeppelin/contracts/access/Ownable.sol\":2550:2558  newOwner */\n  dup2\n    /* \"@openzeppelin/contracts/access/Ownable.sol\":2541:2547  _owner */\n  0x00\n  dup1\n    /* \"@openzeppelin/contracts/access/Ownable.sol\":2541:2558  _owner = newOwner */\n  0x0100\n  exp\n  dup2\n  sload\n  dup2\n  0xffffffffffffffffffffffffffffffffffffffff\n  mul\n  not\n  and\n  swap1\n  dup4\n  0xffffffffffffffffffffffffffffffffffffffff\n  and\n  mul\n  or\n  swap1\n  sstore\n  pop\n    /* \"@openzeppelin/contracts/access/Ownable.sol\":2604:2612  newOwner */\n  dup2\n    /* \"@openzeppelin/contracts/access/Ownable.sol\":2573:2613  OwnershipTransferred(oldOwner, newOwner) */\n  0xffffffffffffffffffffffffffffffffffffffff\n  and\n    /* \"@openzeppelin/contracts/access/Ownable.sol\":2594:2602  oldOwner */\n  dup2\n    /* \"@openzeppelin/contracts/access/Ownable.sol\":2573:2613  OwnershipTransferred(oldOwner, newOwner) */\n  0xffffffffffffffffffffffffffffffffffffffff\n  and\n  0x8be0079c531659141344cd1fd0a4f28419497f9722a3daafe3b4186f6b6457e0\n  mload(0x40)\n  mload(0x40)\n  dup1\n  swap2\n  sub\n  swap1\n  log3\n    /* \"@openzeppelin/contracts/access/Ownable.sol\":2496:2620  {... */\n  pop\n    /* \"@openzeppelin/contracts/access/Ownable.sol\":2433:2620  function _transferOwnership(address newOwner) internal virtual {... */\n  pop\n  jump\t// out\n    /* \"contracts/Logic/ReferralLogic.sol\":147:2223  contract ReferralLogic is ILogic, Ownable {... */\ntag_10:\n  dataSize(sub_0)\n  dup1\n  dataOffset(sub_0)\n  0x00\n  codecopy\n  0x00\n  return\nstop\n\nsub_0: assembly {\n        /* \"contracts/Logic/ReferralLogic.sol\":147:2223  contract ReferralLogic is ILogic, Ownable {... */\n      mstore(0x40, 0x80)\n      callvalue\n      dup1\n      iszero\n      tag_1\n      jumpi\n      0x00\n      dup1\n      revert\n    tag_1:\n      pop\n      jumpi(tag_2, lt(calldatasize, 0x04))\n      shr(0xe0, calldataload(0x00))\n      dup1\n      0x715018a6\n      gt\n      tag_10\n      jumpi\n      dup1\n      0x715018a6\n      eq\n      tag_6\n      jumpi\n      dup1\n      0x8da5cb5b\n      eq\n      tag_7\n      jumpi\n      dup1\n      0xf2fde38b\n      eq\n      tag_8\n      jumpi\n      dup1\n      0xf40a7edd\n      eq\n      tag_9\n      jumpi\n      jump(tag_2)\n    tag_10:\n      dup1\n      0x1cff79cd\n      eq\n      tag_3\n      jumpi\n      dup1\n      0x46267665\n      eq\n      tag_4\n      jumpi\n      dup1\n      0x50bc4a98\n      eq\n      tag_5\n      jumpi\n    tag_2:\n      0x00\n      dup1\n      revert\n        /* \"contracts/Logic/ReferralLogic.sol\":1159:1415  function execute(address _from, bytes memory _data) public override onlyOwner returns(bool) {... */\n    tag_3:\n      tag_11\n      0x04\n      dup1\n      calldatasize\n      sub\n      dup2\n      add\n      swap1\n      tag_12\n      swap2\n      swap1\n      tag_13\n      jump\t// in\n    tag_12:\n      tag_14\n      jump\t// in\n    tag_11:\n      mload(0x40)\n      tag_15\n      swap2\n      swap1\n      tag_16\n      jump\t// in\n    tag_15:\n      mload(0x40)\n      dup1\n      swap2\n      sub\n      swap1\n      return\n        /* \"contracts/Logic/ReferralLogic.sol\":854:1153  function setLogicData(bytes memory _data) public override onlyOwner {... */\n    tag_4:\n      tag_17\n      0x04\n      dup1\n      calldatasize\n      sub\n      dup2\n      add\n      swap1\n      tag_18\n      swap2\n      swap1\n      tag_19\n      jump\t// in\n    tag_18:\n      tag_20\n      jump\t// in\n    tag_17:\n      stop\n        /* \"contracts/Logic/ReferralLogic.sol\":2008:2221  function getResults(address _from) external returns(uint256) {... */\n    tag_5:\n      tag_21\n      0x04\n      dup1\n      calldatasize\n      sub\n      dup2\n      add\n      swap1\n      tag_22\n      swap2\n      swap1\n      tag_23\n      jump\t// in\n    tag_22:\n      tag_24\n      jump\t// in\n    tag_21:\n      mload(0x40)\n      tag_25\n      swap2\n      swap1\n      tag_26\n      jump\t// in\n    tag_25:\n      mload(0x40)\n      dup1\n      swap2\n      sub\n      swap1\n      return\n        /* \"@openzeppelin/contracts/access/Ownable.sol\":1831:1932  function renounceOwnership() public virtual onlyOwner {... */\n    tag_6:\n      tag_27\n      tag_28\n      jump\t// in\n    tag_27:\n      stop\n        /* \"@openzeppelin/contracts/access/Ownable.sol\":1201:1286  function owner() public view virtual returns (address) {... */\n    tag_7:\n      tag_29\n      tag_30\n      jump\t// in\n    tag_29:\n      mload(0x40)\n      tag_31\n      swap2\n      swap1\n      tag_32\n      jump\t// in\n    tag_31:\n      mload(0x40)\n      dup1\n      swap2\n      sub\n      swap1\n      return\n        /* \"@openzeppelin/contracts/access/Ownable.sol\":2081:2279  function transferOwnership(address newOwner) public virtual onlyOwner {... */\n    tag_8:\n      tag_33\n      0x04\n      dup1\n      calldatasize\n      sub\n      dup2\n      add\n      swap1\n      tag_34\n      swap2\n      swap1\n      tag_23\n      jump\t// in\n    tag_34:\n      tag_35\n      jump\t// in\n    tag_33:\n      stop\n        /* \"contracts/Logic/ReferralLogic.sol\":1421:2002  function coreLogic(bytes memory _data) public override onlyOwner  {... */\n    tag_9:\n      tag_36\n      0x04\n      dup1\n      calldatasize\n      sub\n      dup2\n      add\n      swap1\n      tag_37\n      swap2\n      swap1\n      tag_19\n      jump\t// in\n    tag_37:\n      tag_38\n      jump\t// in\n    tag_36:\n      stop\n        /* \"contracts/Logic/ReferralLogic.sol\":1159:1415  function execute(address _from, bytes memory _data) public override onlyOwner returns(bool) {... */\n    tag_14:\n        /* \"contracts/Logic/ReferralLogic.sol\":1245:1249  bool */\n      0x00\n        /* \"@openzeppelin/contracts/access/Ownable.sol\":1094:1107  _checkOwner() */\n      tag_40\n        /* \"@openzeppelin/contracts/access/Ownable.sol\":1094:1105  _checkOwner */\n      tag_41\n        /* \"@openzeppelin/contracts/access/Ownable.sol\":1094:1107  _checkOwner() */\n      jump\t// in\n    tag_40:\n        /* \"contracts/Logic/ReferralLogic.sol\":1261:1277  coreLogic(_data) */\n      tag_43\n        /* \"contracts/Logic/ReferralLogic.sol\":1271:1276  _data */\n      dup3\n        /* \"contracts/Logic/ReferralLogic.sol\":1261:1270  coreLogic */\n      tag_38\n        /* \"contracts/Logic/ReferralLogic.sol\":1261:1277  coreLogic(_data) */\n      jump\t// in\n    tag_43:\n        /* \"contracts/Logic/ReferralLogic.sol\":1287:1298  uint256 req */\n      0x00\n        /* \"contracts/Logic/ReferralLogic.sol\":1301:1323  _currentReqIdByAddress */\n      0x04\n        /* \"contracts/Logic/ReferralLogic.sol\":1301:1330  _currentReqIdByAddress[_from] */\n      0x00\n        /* \"contracts/Logic/ReferralLogic.sol\":1324:1329  _from */\n      dup6\n        /* \"contracts/Logic/ReferralLogic.sol\":1301:1330  _currentReqIdByAddress[_from] */\n      0xffffffffffffffffffffffffffffffffffffffff\n      and\n      0xffffffffffffffffffffffffffffffffffffffff\n      and\n      dup2\n      mstore\n      0x20\n      add\n      swap1\n      dup2\n      mstore\n      0x20\n      add\n      0x00\n      keccak256\n      sload\n        /* \"contracts/Logic/ReferralLogic.sol\":1287:1330  uint256 req = _currentReqIdByAddress[_from] */\n      swap1\n      pop\n        /* \"contracts/Logic/ReferralLogic.sol\":1347:1355  _pending */\n      0x05\n        /* \"contracts/Logic/ReferralLogic.sol\":1347:1360  _pending[req] */\n      0x00\n        /* \"contracts/Logic/ReferralLogic.sol\":1356:1359  req */\n      dup3\n        /* \"contracts/Logic/ReferralLogic.sol\":1347:1360  _pending[req] */\n      dup2\n      mstore\n      0x20\n      add\n      swap1\n      dup2\n      mstore\n      0x20\n      add\n      0x00\n      keccak256\n      0x00\n        /* \"contracts/Logic/ReferralLogic.sol\":1340:1360  delete _pending[req] */\n      0x0100\n      exp\n      dup2\n      sload\n      swap1\n      0xff\n      mul\n      not\n      and\n      swap1\n      sstore\n        /* \"contracts/Logic/ReferralLogic.sol\":1383:1387  true */\n      0x01\n        /* \"contracts/Logic/ReferralLogic.sol\":1370:1375  _done */\n      0x07\n        /* \"contracts/Logic/ReferralLogic.sol\":1370:1380  _done[req] */\n      0x00\n        /* \"contracts/Logic/ReferralLogic.sol\":1376:1379  req */\n      dup4\n        /* \"contracts/Logic/ReferralLogic.sol\":1370:1380  _done[req] */\n      dup2\n      mstore\n      0x20\n      add\n      swap1\n      dup2\n      mstore\n      0x20\n      add\n      0x00\n      keccak256\n      0x00\n        /* \"contracts/Logic/ReferralLogic.sol\":1370:1387  _done[req] = true */\n      0x0100\n      exp\n      dup2\n      sload\n      dup2\n      0xff\n      mul\n      not\n      and\n      swap1\n      dup4\n      iszero\n      iszero\n      mul\n      or\n      swap1\n      sstore\n      pop\n        /* \"contracts/Logic/ReferralLogic.sol\":1404:1408  true */\n      0x01\n        /* \"contracts/Logic/ReferralLogic.sol\":1397:1408  return true */\n      swap2\n      pop\n      pop\n        /* \"contracts/Logic/ReferralLogic.sol\":1159:1415  function execute(address _from, bytes memory _data) public override onlyOwner returns(bool) {... */\n      swap3\n      swap2\n      pop\n      pop\n      jump\t// out\n        /* \"contracts/Logic/ReferralLogic.sol\":854:1153  function setLogicData(bytes memory _data) public override onlyOwner {... */\n    tag_20:\n        /* \"@openzeppelin/contracts/access/Ownable.sol\":1094:1107  _checkOwner() */\n      tag_45\n        /* \"@openzeppelin/contracts/access/Ownable.sol\":1094:1105  _checkOwner */\n      tag_41\n        /* \"@openzeppelin/contracts/access/Ownable.sol\":1094:1107  _checkOwner() */\n      jump\t// in\n    tag_45:\n        /* \"contracts/Logic/ReferralLogic.sol\":933:954  DataRequest memory _d */\n      0x00\n        /* \"contracts/Logic/ReferralLogic.sol\":969:974  _data */\n      dup2\n        /* \"contracts/Logic/ReferralLogic.sol\":958:990  abi.decode(_data, (DataRequest)) */\n      dup1\n      0x20\n      add\n      swap1\n      mload\n      dup2\n      add\n      swap1\n      tag_47\n      swap2\n      swap1\n      tag_48\n      jump\t// in\n    tag_47:\n        /* \"contracts/Logic/ReferralLogic.sol\":933:990  DataRequest memory _d  = abi.decode(_data, (DataRequest)) */\n      swap1\n      pop\n        /* \"contracts/Logic/ReferralLogic.sol\":1000:1010  uint256 _i */\n      0x00\n        /* \"contracts/Logic/ReferralLogic.sol\":1013:1019  _index */\n      sload(0x01)\n        /* \"contracts/Logic/ReferralLogic.sol\":1000:1019  uint256 _i = _index */\n      swap1\n      pop\n        /* \"contracts/Logic/ReferralLogic.sol\":1039:1040  1 */\n      0x01\n        /* \"contracts/Logic/ReferralLogic.sol\":1029:1035  _index */\n      dup1\n      0x00\n        /* \"contracts/Logic/ReferralLogic.sol\":1029:1040  _index += 1 */\n      dup3\n      dup3\n      sload\n      tag_49\n      swap2\n      swap1\n      tag_50\n      jump\t// in\n    tag_49:\n      swap3\n      pop\n      pop\n      dup2\n      swap1\n      sstore\n      pop\n        /* \"contracts/Logic/ReferralLogic.sol\":1065:1067  _d */\n      dup2\n        /* \"contracts/Logic/ReferralLogic.sol\":1050:1058  _reqById */\n      0x03\n        /* \"contracts/Logic/ReferralLogic.sol\":1050:1062  _reqById[_i] */\n      0x00\n        /* \"contracts/Logic/ReferralLogic.sol\":1059:1061  _i */\n      dup4\n        /* \"contracts/Logic/ReferralLogic.sol\":1050:1062  _reqById[_i] */\n      dup2\n      mstore\n      0x20\n      add\n      swap1\n      dup2\n      mstore\n      0x20\n      add\n      0x00\n      keccak256\n        /* \"contracts/Logic/ReferralLogic.sol\":1050:1067  _reqById[_i] = _d */\n      0x00\n      dup3\n      add\n      mload\n      dup2\n      0x00\n      add\n      exp(0x0100, 0x00)\n      dup2\n      sload\n      dup2\n      0xffffffffffffffffffffffffffffffffffffffff\n      mul\n      not\n      and\n      swap1\n      dup4\n      0xffffffffffffffffffffffffffffffffffffffff\n      and\n      mul\n      or\n      swap1\n      sstore\n      pop\n      0x20\n      dup3\n      add\n      mload\n      dup2\n      0x01\n      add\n      swap1\n      dup2\n      tag_51\n      swap2\n      swap1\n      tag_52\n      jump\t// in\n    tag_51:\n      pop\n      0x40\n      dup3\n      add\n      mload\n      dup2\n      0x02\n      add\n      exp(0x0100, 0x00)\n      dup2\n      sload\n      dup2\n      0xffffffffffffffffffffffffffffffffffffffff\n      mul\n      not\n      and\n      swap1\n      dup4\n      0xffffffffffffffffffffffffffffffffffffffff\n      and\n      mul\n      or\n      swap1\n      sstore\n      pop\n      0x60\n      dup3\n      add\n      mload\n      dup2\n      0x03\n      add\n      sstore\n      swap1\n      pop\n      pop\n        /* \"contracts/Logic/ReferralLogic.sol\":1114:1116  _i */\n      dup1\n        /* \"contracts/Logic/ReferralLogic.sol\":1077:1099  _currentReqIdByAddress */\n      0x04\n        /* \"contracts/Logic/ReferralLogic.sol\":1077:1111  _currentReqIdByAddress[_d._sender] */\n      0x00\n        /* \"contracts/Logic/ReferralLogic.sol\":1100:1102  _d */\n      dup5\n        /* \"contracts/Logic/ReferralLogic.sol\":1100:1110  _d._sender */\n      0x00\n      add\n      mload\n        /* \"contracts/Logic/ReferralLogic.sol\":1077:1111  _currentReqIdByAddress[_d._sender] */\n      0xffffffffffffffffffffffffffffffffffffffff\n      and\n      0xffffffffffffffffffffffffffffffffffffffff\n      and\n      dup2\n      mstore\n      0x20\n      add\n      swap1\n      dup2\n      mstore\n      0x20\n      add\n      0x00\n      keccak256\n        /* \"contracts/Logic/ReferralLogic.sol\":1077:1116  _currentReqIdByAddress[_d._sender] = _i */\n      dup2\n      swap1\n      sstore\n      pop\n        /* \"contracts/Logic/ReferralLogic.sol\":1141:1145  true */\n      0x01\n        /* \"contracts/Logic/ReferralLogic.sol\":1126:1134  _pending */\n      0x05\n        /* \"contracts/Logic/ReferralLogic.sol\":1126:1138  _pending[_i] */\n      0x00\n        /* \"contracts/Logic/ReferralLogic.sol\":1135:1137  _i */\n      dup4\n        /* \"contracts/Logic/ReferralLogic.sol\":1126:1138  _pending[_i] */\n      dup2\n      mstore\n      0x20\n      add\n      swap1\n      dup2\n      mstore\n      0x20\n      add\n      0x00\n      keccak256\n      0x00\n        /* \"contracts/Logic/ReferralLogic.sol\":1126:1145  _pending[_i] = true */\n      0x0100\n      exp\n      dup2\n      sload\n      dup2\n      0xff\n      mul\n      not\n      and\n      swap1\n      dup4\n      iszero\n      iszero\n      mul\n      or\n      swap1\n      sstore\n      pop\n        /* \"contracts/Logic/ReferralLogic.sol\":922:1153  {... */\n      pop\n      pop\n        /* \"contracts/Logic/ReferralLogic.sol\":854:1153  function setLogicData(bytes memory _data) public override onlyOwner {... */\n      pop\n      jump\t// out\n        /* \"contracts/Logic/ReferralLogic.sol\":2008:2221  function getResults(address _from) external returns(uint256) {... */\n    tag_24:\n        /* \"contracts/Logic/ReferralLogic.sol\":2060:2067  uint256 */\n      0x00\n        /* \"contracts/Logic/ReferralLogic.sol\":2079:2090  uint256 req */\n      dup1\n        /* \"contracts/Logic/ReferralLogic.sol\":2093:2115  _currentReqIdByAddress */\n      0x04\n        /* \"contracts/Logic/ReferralLogic.sol\":2093:2122  _currentReqIdByAddress[_from] */\n      0x00\n        /* \"contracts/Logic/ReferralLogic.sol\":2116:2121  _from */\n      dup5\n        /* \"contracts/Logic/ReferralLogic.sol\":2093:2122  _currentReqIdByAddress[_from] */\n      0xffffffffffffffffffffffffffffffffffffffff\n      and\n      0xffffffffffffffffffffffffffffffffffffffff\n      and\n      dup2\n      mstore\n      0x20\n      add\n      swap1\n      dup2\n      mstore\n      0x20\n      add\n      0x00\n      keccak256\n      sload\n        /* \"contracts/Logic/ReferralLogic.sol\":2079:2122  uint256 req = _currentReqIdByAddress[_from] */\n      swap1\n      pop\n        /* \"contracts/Logic/ReferralLogic.sol\":2154:2158  true */\n      0x01\n        /* \"contracts/Logic/ReferralLogic.sol\":2140:2158  _done[req] == true */\n      iszero\n      iszero\n        /* \"contracts/Logic/ReferralLogic.sol\":2140:2145  _done */\n      0x07\n        /* \"contracts/Logic/ReferralLogic.sol\":2140:2150  _done[req] */\n      0x00\n        /* \"contracts/Logic/ReferralLogic.sol\":2146:2149  req */\n      dup4\n        /* \"contracts/Logic/ReferralLogic.sol\":2140:2150  _done[req] */\n      dup2\n      mstore\n      0x20\n      add\n      swap1\n      dup2\n      mstore\n      0x20\n      add\n      0x00\n      keccak256\n      0x00\n      swap1\n      sload\n      swap1\n      0x0100\n      exp\n      swap1\n      div\n      0xff\n      and\n        /* \"contracts/Logic/ReferralLogic.sol\":2140:2158  _done[req] == true */\n      iszero\n      iszero\n      eq\n        /* \"contracts/Logic/ReferralLogic.sol\":2132:2184  require(_done[req] == true, \"request is pending...\") */\n      tag_54\n      jumpi\n      mload(0x40)\n      0x08c379a000000000000000000000000000000000000000000000000000000000\n      dup2\n      mstore\n      0x04\n      add\n      tag_55\n      swap1\n      tag_56\n      jump\t// in\n    tag_55:\n      mload(0x40)\n      dup1\n      swap2\n      sub\n      swap1\n      revert\n    tag_54:\n        /* \"contracts/Logic/ReferralLogic.sol\":2201:2209  _results */\n      0x08\n        /* \"contracts/Logic/ReferralLogic.sol\":2201:2214  _results[req] */\n      0x00\n        /* \"contracts/Logic/ReferralLogic.sol\":2210:2213  req */\n      dup3\n        /* \"contracts/Logic/ReferralLogic.sol\":2201:2214  _results[req] */\n      dup2\n      mstore\n      0x20\n      add\n      swap1\n      dup2\n      mstore\n      0x20\n      add\n      0x00\n      keccak256\n      sload\n        /* \"contracts/Logic/ReferralLogic.sol\":2194:2214  return _results[req] */\n      swap2\n      pop\n      pop\n        /* \"contracts/Logic/ReferralLogic.sol\":2008:2221  function getResults(address _from) external returns(uint256) {... */\n      swap2\n      swap1\n      pop\n      jump\t// out\n        /* \"@openzeppelin/contracts/access/Ownable.sol\":1831:1932  function renounceOwnership() public virtual onlyOwner {... */\n    tag_28:\n        /* \"@openzeppelin/contracts/access/Ownable.sol\":1094:1107  _checkOwner() */\n      tag_58\n        /* \"@openzeppelin/contracts/access/Ownable.sol\":1094:1105  _checkOwner */\n      tag_41\n        /* \"@openzeppelin/contracts/access/Ownable.sol\":1094:1107  _checkOwner() */\n      jump\t// in\n    tag_58:\n        /* \"@openzeppelin/contracts/access/Ownable.sol\":1895:1925  _transferOwnership(address(0)) */\n      tag_60\n        /* \"@openzeppelin/contracts/access/Ownable.sol\":1922:1923  0 */\n      0x00\n        /* \"@openzeppelin/contracts/access/Ownable.sol\":1895:1913  _transferOwnership */\n      tag_61\n        /* \"@openzeppelin/contracts/access/Ownable.sol\":1895:1925  _transferOwnership(address(0)) */\n      jump\t// in\n    tag_60:\n        /* \"@openzeppelin/contracts/access/Ownable.sol\":1831:1932  function renounceOwnership() public virtual onlyOwner {... */\n      jump\t// out\n        /* \"@openzeppelin/contracts/access/Ownable.sol\":1201:1286  function owner() public view virtual returns (address) {... */\n    tag_30:\n        /* \"@openzeppelin/contracts/access/Ownable.sol\":1247:1254  address */\n      0x00\n        /* \"@openzeppelin/contracts/access/Ownable.sol\":1273:1279  _owner */\n      dup1\n      0x00\n      swap1\n      sload\n      swap1\n      0x0100\n      exp\n      swap1\n      div\n      0xffffffffffffffffffffffffffffffffffffffff\n      and\n        /* \"@openzeppelin/contracts/access/Ownable.sol\":1266:1279  return _owner */\n      swap1\n      pop\n        /* \"@openzeppelin/contracts/access/Ownable.sol\":1201:1286  function owner() public view virtual returns (address) {... */\n      swap1\n      jump\t// out\n        /* \"@openzeppelin/contracts/access/Ownable.sol\":2081:2279  function transferOwnership(address newOwner) public virtual onlyOwner {... */\n    tag_35:\n        /* \"@openzeppelin/contracts/access/Ownable.sol\":1094:1107  _checkOwner() */\n      tag_64\n        /* \"@openzeppelin/contracts/access/Ownable.sol\":1094:1105  _checkOwner */\n      tag_41\n        /* \"@openzeppelin/contracts/access/Ownable.sol\":1094:1107  _checkOwner() */\n      jump\t// in\n    tag_64:\n        /* \"@openzeppelin/contracts/access/Ownable.sol\":2189:2190  0 */\n      0x00\n        /* \"@openzeppelin/contracts/access/Ownable.sol\":2169:2191  newOwner != address(0) */\n      0xffffffffffffffffffffffffffffffffffffffff\n      and\n        /* \"@openzeppelin/contracts/access/Ownable.sol\":2169:2177  newOwner */\n      dup2\n        /* \"@openzeppelin/contracts/access/Ownable.sol\":2169:2191  newOwner != address(0) */\n      0xffffffffffffffffffffffffffffffffffffffff\n      and\n      sub\n        /* \"@openzeppelin/contracts/access/Ownable.sol\":2161:2234  require(newOwner != address(0), \"Ownable: new owner is the zero address\") */\n      tag_66\n      jumpi\n      mload(0x40)\n      0x08c379a000000000000000000000000000000000000000000000000000000000\n      dup2\n      mstore\n      0x04\n      add\n      tag_67\n      swap1\n      tag_68\n      jump\t// in\n    tag_67:\n      mload(0x40)\n      dup1\n      swap2\n      sub\n      swap1\n      revert\n    tag_66:\n        /* \"@openzeppelin/contracts/access/Ownable.sol\":2244:2272  _transferOwnership(newOwner) */\n      tag_69\n        /* \"@openzeppelin/contracts/access/Ownable.sol\":2263:2271  newOwner */\n      dup2\n        /* \"@openzeppelin/contracts/access/Ownable.sol\":2244:2262  _transferOwnership */\n      tag_61\n        /* \"@openzeppelin/contracts/access/Ownable.sol\":2244:2272  _transferOwnership(newOwner) */\n      jump\t// in\n    tag_69:\n        /* \"@openzeppelin/contracts/access/Ownable.sol\":2081:2279  function transferOwnership(address newOwner) public virtual onlyOwner {... */\n      pop\n      jump\t// out\n        /* \"contracts/Logic/ReferralLogic.sol\":1421:2002  function coreLogic(bytes memory _data) public override onlyOwner  {... */\n    tag_38:\n        /* \"@openzeppelin/contracts/access/Ownable.sol\":1094:1107  _checkOwner() */\n      tag_71\n        /* \"@openzeppelin/contracts/access/Ownable.sol\":1094:1105  _checkOwner */\n      tag_41\n        /* \"@openzeppelin/contracts/access/Ownable.sol\":1094:1107  _checkOwner() */\n      jump\t// in\n    tag_71:\n        /* \"contracts/Logic/ReferralLogic.sol\":1497:1516  setLogicData(_data) */\n      tag_73\n        /* \"contracts/Logic/ReferralLogic.sol\":1510:1515  _data */\n      dup2\n        /* \"contracts/Logic/ReferralLogic.sol\":1497:1509  setLogicData */\n      tag_20\n        /* \"contracts/Logic/ReferralLogic.sol\":1497:1516  setLogicData(_data) */\n      jump\t// in\n    tag_73:\n        /* \"contracts/Logic/ReferralLogic.sol\":1526:1549  DataRequest memory _req */\n      0x00\n        /* \"contracts/Logic/ReferralLogic.sol\":1552:1560  _reqById */\n      0x03\n        /* \"contracts/Logic/ReferralLogic.sol\":1552:1570  _reqById[_index-1] */\n      0x00\n        /* \"contracts/Logic/ReferralLogic.sol\":1568:1569  1 */\n      0x01\n        /* \"contracts/Logic/ReferralLogic.sol\":1561:1567  _index */\n      dup1\n      sload\n        /* \"contracts/Logic/ReferralLogic.sol\":1561:1569  _index-1 */\n      tag_74\n      swap2\n      swap1\n      tag_75\n      jump\t// in\n    tag_74:\n        /* \"contracts/Logic/ReferralLogic.sol\":1552:1570  _reqById[_index-1] */\n      dup2\n      mstore\n      0x20\n      add\n      swap1\n      dup2\n      mstore\n      0x20\n      add\n      0x00\n      keccak256\n        /* \"contracts/Logic/ReferralLogic.sol\":1526:1570  DataRequest memory _req = _reqById[_index-1] */\n      mload(0x40)\n      dup1\n      0x80\n      add\n      0x40\n      mstore\n      swap1\n      dup2\n      0x00\n      dup3\n      add\n      0x00\n      swap1\n      sload\n      swap1\n      0x0100\n      exp\n      swap1\n      div\n      0xffffffffffffffffffffffffffffffffffffffff\n      and\n      0xffffffffffffffffffffffffffffffffffffffff\n      and\n      0xffffffffffffffffffffffffffffffffffffffff\n      and\n      dup2\n      mstore\n      0x20\n      add\n      0x01\n      dup3\n      add\n      dup1\n      sload\n      tag_76\n      swap1\n      tag_77\n      jump\t// in\n    tag_76:\n      dup1\n      0x1f\n      add\n      0x20\n      dup1\n      swap2\n      div\n      mul\n      0x20\n      add\n      mload(0x40)\n      swap1\n      dup2\n      add\n      0x40\n      mstore\n      dup1\n      swap3\n      swap2\n      swap1\n      dup2\n      dup2\n      mstore\n      0x20\n      add\n      dup3\n      dup1\n      sload\n      tag_78\n      swap1\n      tag_77\n      jump\t// in\n    tag_78:\n      dup1\n      iszero\n      tag_79\n      jumpi\n      dup1\n      0x1f\n      lt\n      tag_80\n      jumpi\n      0x0100\n      dup1\n      dup4\n      sload\n      div\n      mul\n      dup4\n      mstore\n      swap2\n      0x20\n      add\n      swap2\n      jump(tag_79)\n    tag_80:\n      dup3\n      add\n      swap2\n      swap1\n      0x00\n      mstore\n      keccak256(0x00, 0x20)\n      swap1\n    tag_81:\n      dup2\n      sload\n      dup2\n      mstore\n      swap1\n      0x01\n      add\n      swap1\n      0x20\n      add\n      dup1\n      dup4\n      gt\n      tag_81\n      jumpi\n      dup3\n      swap1\n      sub\n      0x1f\n      and\n      dup3\n      add\n      swap2\n    tag_79:\n      pop\n      pop\n      pop\n      pop\n      pop\n      dup2\n      mstore\n      0x20\n      add\n      0x02\n      dup3\n      add\n      0x00\n      swap1\n      sload\n      swap1\n      0x0100\n      exp\n      swap1\n      div\n      0xffffffffffffffffffffffffffffffffffffffff\n      and\n      0xffffffffffffffffffffffffffffffffffffffff\n      and\n      0xffffffffffffffffffffffffffffffffffffffff\n      and\n      dup2\n      mstore\n      0x20\n      add\n      0x03\n      dup3\n      add\n      sload\n      dup2\n      mstore\n      pop\n      pop\n      swap1\n      pop\n        /* \"contracts/Logic/ReferralLogic.sol\":1580:1594  address sender */\n      0x00\n        /* \"contracts/Logic/ReferralLogic.sol\":1597:1601  _req */\n      dup2\n        /* \"contracts/Logic/ReferralLogic.sol\":1597:1609  _req._sender */\n      0x00\n      add\n      mload\n        /* \"contracts/Logic/ReferralLogic.sol\":1580:1609  address sender = _req._sender */\n      swap1\n      pop\n        /* \"contracts/Logic/ReferralLogic.sol\":1619:1632  uint256 reqId */\n      0x00\n        /* \"contracts/Logic/ReferralLogic.sol\":1635:1657  _currentReqIdByAddress */\n      0x04\n        /* \"contracts/Logic/ReferralLogic.sol\":1635:1671  _currentReqIdByAddress[_req._sender] */\n      0x00\n        /* \"contracts/Logic/ReferralLogic.sol\":1658:1662  _req */\n      dup5\n        /* \"contracts/Logic/ReferralLogic.sol\":1658:1670  _req._sender */\n      0x00\n      add\n      mload\n        /* \"contracts/Logic/ReferralLogic.sol\":1635:1671  _currentReqIdByAddress[_req._sender] */\n      0xffffffffffffffffffffffffffffffffffffffff\n      and\n      0xffffffffffffffffffffffffffffffffffffffff\n      and\n      dup2\n      mstore\n      0x20\n      add\n      swap1\n      dup2\n      mstore\n      0x20\n      add\n      0x00\n      keccak256\n      sload\n        /* \"contracts/Logic/ReferralLogic.sol\":1619:1671  uint256 reqId = _currentReqIdByAddress[_req._sender] */\n      swap1\n      pop\n        /* \"contracts/Logic/ReferralLogic.sol\":1699:1700  0 */\n      0x00\n        /* \"contracts/Logic/ReferralLogic.sol\":1681:1689  _results */\n      0x08\n        /* \"contracts/Logic/ReferralLogic.sol\":1681:1696  _results[reqId] */\n      0x00\n        /* \"contracts/Logic/ReferralLogic.sol\":1690:1695  reqId */\n      dup4\n        /* \"contracts/Logic/ReferralLogic.sol\":1681:1696  _results[reqId] */\n      dup2\n      mstore\n      0x20\n      add\n      swap1\n      dup2\n      mstore\n      0x20\n      add\n      0x00\n      keccak256\n        /* \"contracts/Logic/ReferralLogic.sol\":1681:1700  _results[reqId] = 0 */\n      dup2\n      swap1\n      sstore\n      pop\n        /* \"contracts/Logic/ReferralLogic.sol\":1736:1754  uint256 percentage */\n      0x00\n        /* \"contracts/Logic/ReferralLogic.sol\":1776:1784  mantissa */\n      sload(0x02)\n        /* \"contracts/Logic/ReferralLogic.sol\":1757:1765  _percent */\n      0x09\n        /* \"contracts/Logic/ReferralLogic.sol\":1757:1773  _percent[sender] */\n      0x00\n        /* \"contracts/Logic/ReferralLogic.sol\":1766:1772  sender */\n      dup6\n        /* \"contracts/Logic/ReferralLogic.sol\":1757:1773  _percent[sender] */\n      0xffffffffffffffffffffffffffffffffffffffff\n      and\n      0xffffffffffffffffffffffffffffffffffffffff\n      and\n      dup2\n      mstore\n      0x20\n      add\n      swap1\n      dup2\n      mstore\n      0x20\n      add\n      0x00\n      keccak256\n      sload\n        /* \"contracts/Logic/ReferralLogic.sol\":1757:1784  _percent[sender] * mantissa */\n      tag_82\n      swap2\n      swap1\n      tag_83\n      jump\t// in\n    tag_82:\n        /* \"contracts/Logic/ReferralLogic.sol\":1736:1784  uint256 percentage = _percent[sender] * mantissa */\n      swap1\n      pop\n        /* \"contracts/Logic/ReferralLogic.sol\":1794:1812  uint256 multiplier */\n      0x00\n        /* \"contracts/Logic/ReferralLogic.sol\":1837:1845  mantissa */\n      sload(0x02)\n        /* \"contracts/Logic/ReferralLogic.sol\":1815:1826  _multiplier */\n      0x0a\n        /* \"contracts/Logic/ReferralLogic.sol\":1815:1834  _multiplier[sender] */\n      0x00\n        /* \"contracts/Logic/ReferralLogic.sol\":1827:1833  sender */\n      dup7\n        /* \"contracts/Logic/ReferralLogic.sol\":1815:1834  _multiplier[sender] */\n      0xffffffffffffffffffffffffffffffffffffffff\n      and\n      0xffffffffffffffffffffffffffffffffffffffff\n      and\n      dup2\n      mstore\n      0x20\n      add\n      swap1\n      dup2\n      mstore\n      0x20\n      add\n      0x00\n      keccak256\n      sload\n        /* \"contracts/Logic/ReferralLogic.sol\":1815:1845  _multiplier[sender] * mantissa */\n      tag_84\n      swap2\n      swap1\n      tag_83\n      jump\t// in\n    tag_84:\n        /* \"contracts/Logic/ReferralLogic.sol\":1794:1845  uint256 multiplier = _multiplier[sender] * mantissa */\n      swap1\n      pop\n        /* \"contracts/Logic/ReferralLogic.sol\":1855:1869  uint256 amount */\n      0x00\n        /* \"contracts/Logic/ReferralLogic.sol\":1887:1895  mantissa */\n      sload(0x02)\n        /* \"contracts/Logic/ReferralLogic.sol\":1872:1876  _req */\n      dup7\n        /* \"contracts/Logic/ReferralLogic.sol\":1872:1884  _req._amount */\n      0x60\n      add\n      mload\n        /* \"contracts/Logic/ReferralLogic.sol\":1872:1895  _req._amount / mantissa */\n      tag_85\n      swap2\n      swap1\n      tag_86\n      jump\t// in\n    tag_85:\n        /* \"contracts/Logic/ReferralLogic.sol\":1855:1895  uint256 amount = _req._amount / mantissa */\n      swap1\n      pop\n        /* \"contracts/Logic/ReferralLogic.sol\":1905:1916  uint256 amt */\n      0x00\n        /* \"contracts/Logic/ReferralLogic.sol\":1956:1964  mantissa */\n      sload(0x02)\n        /* \"contracts/Logic/ReferralLogic.sol\":1942:1952  multiplier */\n      dup4\n        /* \"contracts/Logic/ReferralLogic.sol\":1929:1939  percentage */\n      dup6\n        /* \"contracts/Logic/ReferralLogic.sol\":1929:1952  percentage * multiplier */\n      tag_87\n      swap2\n      swap1\n      tag_83\n      jump\t// in\n    tag_87:\n        /* \"contracts/Logic/ReferralLogic.sol\":1919:1925  amount */\n      dup4\n        /* \"contracts/Logic/ReferralLogic.sol\":1919:1953  amount * (percentage * multiplier) */\n      tag_88\n      swap2\n      swap1\n      tag_83\n      jump\t// in\n    tag_88:\n        /* \"contracts/Logic/ReferralLogic.sol\":1919:1964  amount * (percentage * multiplier) / mantissa */\n      tag_89\n      swap2\n      swap1\n      tag_86\n      jump\t// in\n    tag_89:\n        /* \"contracts/Logic/ReferralLogic.sol\":1905:1964  uint256 amt = amount * (percentage * multiplier) / mantissa */\n      swap1\n      pop\n        /* \"contracts/Logic/ReferralLogic.sol\":1992:1995  amt */\n      dup1\n        /* \"contracts/Logic/ReferralLogic.sol\":1974:1982  _results */\n      0x08\n        /* \"contracts/Logic/ReferralLogic.sol\":1974:1989  _results[reqId] */\n      0x00\n        /* \"contracts/Logic/ReferralLogic.sol\":1983:1988  reqId */\n      dup8\n        /* \"contracts/Logic/ReferralLogic.sol\":1974:1989  _results[reqId] */\n      dup2\n      mstore\n      0x20\n      add\n      swap1\n      dup2\n      mstore\n      0x20\n      add\n      0x00\n      keccak256\n        /* \"contracts/Logic/ReferralLogic.sol\":1974:1995  _results[reqId] = amt */\n      dup2\n      swap1\n      sstore\n      pop\n        /* \"contracts/Logic/ReferralLogic.sol\":1487:2002  {... */\n      pop\n      pop\n      pop\n      pop\n      pop\n      pop\n      pop\n        /* \"contracts/Logic/ReferralLogic.sol\":1421:2002  function coreLogic(bytes memory _data) public override onlyOwner  {... */\n      pop\n      jump\t// out\n        /* \"@openzeppelin/contracts/access/Ownable.sol\":1359:1489  function _checkOwner() internal view virtual {... */\n    tag_41:\n        /* \"@openzeppelin/contracts/access/Ownable.sol\":1433:1445  _msgSender() */\n      tag_91\n        /* \"@openzeppelin/contracts/access/Ownable.sol\":1433:1443  _msgSender */\n      tag_92\n        /* \"@openzeppelin/contracts/access/Ownable.sol\":1433:1445  _msgSender() */\n      jump\t// in\n    tag_91:\n        /* \"@openzeppelin/contracts/access/Ownable.sol\":1422:1445  owner() == _msgSender() */\n      0xffffffffffffffffffffffffffffffffffffffff\n      and\n        /* \"@openzeppelin/contracts/access/Ownable.sol\":1422:1429  owner() */\n      tag_93\n        /* \"@openzeppelin/contracts/access/Ownable.sol\":1422:1427  owner */\n      tag_30\n        /* \"@openzeppelin/contracts/access/Ownable.sol\":1422:1429  owner() */\n      jump\t// in\n    tag_93:\n        /* \"@openzeppelin/contracts/access/Ownable.sol\":1422:1445  owner() == _msgSender() */\n      0xffffffffffffffffffffffffffffffffffffffff\n      and\n      eq\n        /* \"@openzeppelin/contracts/access/Ownable.sol\":1414:1482  require(owner() == _msgSender(), \"Ownable: caller is not the owner\") */\n      tag_94\n      jumpi\n      mload(0x40)\n      0x08c379a000000000000000000000000000000000000000000000000000000000\n      dup2\n      mstore\n      0x04\n      add\n      tag_95\n      swap1\n      tag_96\n      jump\t// in\n    tag_95:\n      mload(0x40)\n      dup1\n      swap2\n      sub\n      swap1\n      revert\n    tag_94:\n        /* \"@openzeppelin/contracts/access/Ownable.sol\":1359:1489  function _checkOwner() internal view virtual {... */\n      jump\t// out\n        /* \"@openzeppelin/contracts/access/Ownable.sol\":2433:2620  function _transferOwnership(address newOwner) internal virtual {... */\n    tag_61:\n        /* \"@openzeppelin/contracts/access/Ownable.sol\":2506:2522  address oldOwner */\n      0x00\n        /* \"@openzeppelin/contracts/access/Ownable.sol\":2525:2531  _owner */\n      dup1\n      0x00\n      swap1\n      sload\n      swap1\n      0x0100\n      exp\n      swap1\n      div\n      0xffffffffffffffffffffffffffffffffffffffff\n      and\n        /* \"@openzeppelin/contracts/access/Ownable.sol\":2506:2531  address oldOwner = _owner */\n      swap1\n      pop\n        /* \"@openzeppelin/contracts/access/Ownable.sol\":2550:2558  newOwner */\n      dup2\n        /* \"@openzeppelin/contracts/access/Ownable.sol\":2541:2547  _owner */\n      0x00\n      dup1\n        /* \"@openzeppelin/contracts/access/Ownable.sol\":2541:2558  _owner = newOwner */\n      0x0100\n      exp\n      dup2\n      sload\n      dup2\n      0xffffffffffffffffffffffffffffffffffffffff\n      mul\n      not\n      and\n      swap1\n      dup4\n      0xffffffffffffffffffffffffffffffffffffffff\n      and\n      mul\n      or\n      swap1\n      sstore\n      pop\n        /* \"@openzeppelin/contracts/access/Ownable.sol\":2604:2612  newOwner */\n      dup2\n        /* \"@openzeppelin/contracts/access/Ownable.sol\":2573:2613  OwnershipTransferred(oldOwner, newOwner) */\n      0xffffffffffffffffffffffffffffffffffffffff\n      and\n        /* \"@openzeppelin/contracts/access/Ownable.sol\":2594:2602  oldOwner */\n      dup2\n        /* \"@openzeppelin/contracts/access/Ownable.sol\":2573:2613  OwnershipTransferred(oldOwner, newOwner) */\n      0xffffffffffffffffffffffffffffffffffffffff\n      and\n      0x8be0079c531659141344cd1fd0a4f28419497f9722a3daafe3b4186f6b6457e0\n      mload(0x40)\n      mload(0x40)\n      dup1\n      swap2\n      sub\n      swap1\n      log3\n        /* \"@openzeppelin/contracts/access/Ownable.sol\":2496:2620  {... */\n      pop\n        /* \"@openzeppelin/contracts/access/Ownable.sol\":2433:2620  function _transferOwnership(address newOwner) internal virtual {... */\n      pop\n      jump\t// out\n        /* \"@openzeppelin/contracts/utils/Context.sol\":640:736  function _msgSender() internal view virtual returns (address) {... */\n    tag_92:\n        /* \"@openzeppelin/contracts/utils/Context.sol\":693:700  address */\n      0x00\n        /* \"@openzeppelin/contracts/utils/Context.sol\":719:729  msg.sender */\n      caller\n        /* \"@openzeppelin/contracts/utils/Context.sol\":712:729  return msg.sender */\n      swap1\n      pop\n        /* \"@openzeppelin/contracts/utils/Context.sol\":640:736  function _msgSender() internal view virtual returns (address) {... */\n      swap1\n      jump\t// out\n        /* \"#utility.yul\":7:82   */\n    tag_99:\n        /* \"#utility.yul\":40:46   */\n      0x00\n        /* \"#utility.yul\":73:75   */\n      0x40\n        /* \"#utility.yul\":67:76   */\n      mload\n        /* \"#utility.yul\":57:76   */\n      swap1\n      pop\n        /* \"#utility.yul\":7:82   */\n      swap1\n      jump\t// out\n        /* \"#utility.yul\":88:205   */\n    tag_100:\n        /* \"#utility.yul\":197:198   */\n      0x00\n        /* \"#utility.yul\":194:195   */\n      dup1\n        /* \"#utility.yul\":187:199   */\n      revert\n        /* \"#utility.yul\":211:328   */\n    tag_101:\n        /* \"#utility.yul\":320:321   */\n      0x00\n        /* \"#utility.yul\":317:318   */\n      dup1\n        /* \"#utility.yul\":310:322   */\n      revert\n        /* \"#utility.yul\":334:460   */\n    tag_102:\n        /* \"#utility.yul\":371:378   */\n      0x00\n        /* \"#utility.yul\":411:453   */\n      0xffffffffffffffffffffffffffffffffffffffff\n        /* \"#utility.yul\":404:409   */\n      dup3\n        /* \"#utility.yul\":400:454   */\n      and\n        /* \"#utility.yul\":389:454   */\n      swap1\n      pop\n        /* \"#utility.yul\":334:460   */\n      swap2\n      swap1\n      pop\n      jump\t// out\n        /* \"#utility.yul\":466:562   */\n    tag_103:\n        /* \"#utility.yul\":503:510   */\n      0x00\n        /* \"#utility.yul\":532:556   */\n      tag_163\n        /* \"#utility.yul\":550:555   */\n      dup3\n        /* \"#utility.yul\":532:556   */\n      tag_102\n      jump\t// in\n    tag_163:\n        /* \"#utility.yul\":521:556   */\n      swap1\n      pop\n        /* \"#utility.yul\":466:562   */\n      swap2\n      swap1\n      pop\n      jump\t// out\n        /* \"#utility.yul\":568:690   */\n    tag_104:\n        /* \"#utility.yul\":641:665   */\n      tag_165\n        /* \"#utility.yul\":659:664   */\n      dup2\n        /* \"#utility.yul\":641:665   */\n      tag_103\n      jump\t// in\n    tag_165:\n        /* \"#utility.yul\":634:639   */\n      dup2\n        /* \"#utility.yul\":631:666   */\n      eq\n        /* \"#utility.yul\":621:684   */\n      tag_166\n      jumpi\n        /* \"#utility.yul\":680:681   */\n      0x00\n        /* \"#utility.yul\":677:678   */\n      dup1\n        /* \"#utility.yul\":670:682   */\n      revert\n        /* \"#utility.yul\":621:684   */\n    tag_166:\n        /* \"#utility.yul\":568:690   */\n      pop\n      jump\t// out\n        /* \"#utility.yul\":696:835   */\n    tag_105:\n        /* \"#utility.yul\":742:747   */\n      0x00\n        /* \"#utility.yul\":780:786   */\n      dup2\n        /* \"#utility.yul\":767:787   */\n      calldataload\n        /* \"#utility.yul\":758:787   */\n      swap1\n      pop\n        /* \"#utility.yul\":796:829   */\n      tag_168\n        /* \"#utility.yul\":823:828   */\n      dup2\n        /* \"#utility.yul\":796:829   */\n      tag_104\n      jump\t// in\n    tag_168:\n        /* \"#utility.yul\":696:835   */\n      swap3\n      swap2\n      pop\n      pop\n      jump\t// out\n        /* \"#utility.yul\":841:958   */\n    tag_106:\n        /* \"#utility.yul\":950:951   */\n      0x00\n        /* \"#utility.yul\":947:948   */\n      dup1\n        /* \"#utility.yul\":940:952   */\n      revert\n        /* \"#utility.yul\":964:1081   */\n    tag_107:\n        /* \"#utility.yul\":1073:1074   */\n      0x00\n        /* \"#utility.yul\":1070:1071   */\n      dup1\n        /* \"#utility.yul\":1063:1075   */\n      revert\n        /* \"#utility.yul\":1087:1189   */\n    tag_108:\n        /* \"#utility.yul\":1128:1134   */\n      0x00\n        /* \"#utility.yul\":1179:1181   */\n      0x1f\n        /* \"#utility.yul\":1175:1182   */\n      not\n        /* \"#utility.yul\":1170:1172   */\n      0x1f\n        /* \"#utility.yul\":1163:1168   */\n      dup4\n        /* \"#utility.yul\":1159:1173   */\n      add\n        /* \"#utility.yul\":1155:1183   */\n      and\n        /* \"#utility.yul\":1145:1183   */\n      swap1\n      pop\n        /* \"#utility.yul\":1087:1189   */\n      swap2\n      swap1\n      pop\n      jump\t// out\n        /* \"#utility.yul\":1195:1375   */\n    tag_109:\n        /* \"#utility.yul\":1243:1320   */\n      0x4e487b7100000000000000000000000000000000000000000000000000000000\n        /* \"#utility.yul\":1240:1241   */\n      0x00\n        /* \"#utility.yul\":1233:1321   */\n      mstore\n        /* \"#utility.yul\":1340:1344   */\n      0x41\n        /* \"#utility.yul\":1337:1338   */\n      0x04\n        /* \"#utility.yul\":1330:1345   */\n      mstore\n        /* \"#utility.yul\":1364:1368   */\n      0x24\n        /* \"#utility.yul\":1361:1362   */\n      0x00\n        /* \"#utility.yul\":1354:1369   */\n      revert\n        /* \"#utility.yul\":1381:1662   */\n    tag_110:\n        /* \"#utility.yul\":1464:1491   */\n      tag_174\n        /* \"#utility.yul\":1486:1490   */\n      dup3\n        /* \"#utility.yul\":1464:1491   */\n      tag_108\n      jump\t// in\n    tag_174:\n        /* \"#utility.yul\":1456:1462   */\n      dup2\n        /* \"#utility.yul\":1452:1492   */\n      add\n        /* \"#utility.yul\":1594:1600   */\n      dup2\n        /* \"#utility.yul\":1582:1592   */\n      dup2\n        /* \"#utility.yul\":1579:1601   */\n      lt\n        /* \"#utility.yul\":1558:1576   */\n      0xffffffffffffffff\n        /* \"#utility.yul\":1546:1556   */\n      dup3\n        /* \"#utility.yul\":1543:1577   */\n      gt\n        /* \"#utility.yul\":1540:1602   */\n      or\n        /* \"#utility.yul\":1537:1625   */\n      iszero\n      tag_175\n      jumpi\n        /* \"#utility.yul\":1605:1623   */\n      tag_176\n      tag_109\n      jump\t// in\n    tag_176:\n        /* \"#utility.yul\":1537:1625   */\n    tag_175:\n        /* \"#utility.yul\":1645:1655   */\n      dup1\n        /* \"#utility.yul\":1641:1643   */\n      0x40\n        /* \"#utility.yul\":1634:1656   */\n      mstore\n        /* \"#utility.yul\":1424:1662   */\n      pop\n        /* \"#utility.yul\":1381:1662   */\n      pop\n      pop\n      jump\t// out\n        /* \"#utility.yul\":1668:1797   */\n    tag_111:\n        /* \"#utility.yul\":1702:1708   */\n      0x00\n        /* \"#utility.yul\":1729:1749   */\n      tag_178\n      tag_99\n      jump\t// in\n    tag_178:\n        /* \"#utility.yul\":1719:1749   */\n      swap1\n      pop\n        /* \"#utility.yul\":1758:1791   */\n      tag_179\n        /* \"#utility.yul\":1786:1790   */\n      dup3\n        /* \"#utility.yul\":1778:1784   */\n      dup3\n        /* \"#utility.yul\":1758:1791   */\n      tag_110\n      jump\t// in\n    tag_179:\n        /* \"#utility.yul\":1668:1797   */\n      swap2\n      swap1\n      pop\n      jump\t// out\n        /* \"#utility.yul\":1803:2110   */\n    tag_112:\n        /* \"#utility.yul\":1864:1868   */\n      0x00\n        /* \"#utility.yul\":1954:1972   */\n      0xffffffffffffffff\n        /* \"#utility.yul\":1946:1952   */\n      dup3\n        /* \"#utility.yul\":1943:1973   */\n      gt\n        /* \"#utility.yul\":1940:1996   */\n      iszero\n      tag_181\n      jumpi\n        /* \"#utility.yul\":1976:1994   */\n      tag_182\n      tag_109\n      jump\t// in\n    tag_182:\n        /* \"#utility.yul\":1940:1996   */\n    tag_181:\n        /* \"#utility.yul\":2014:2043   */\n      tag_183\n        /* \"#utility.yul\":2036:2042   */\n      dup3\n        /* \"#utility.yul\":2014:2043   */\n      tag_108\n      jump\t// in\n    tag_183:\n        /* \"#utility.yul\":2006:2043   */\n      swap1\n      pop\n        /* \"#utility.yul\":2098:2102   */\n      0x20\n        /* \"#utility.yul\":2092:2096   */\n      dup2\n        /* \"#utility.yul\":2088:2103   */\n      add\n        /* \"#utility.yul\":2080:2103   */\n      swap1\n      pop\n        /* \"#utility.yul\":1803:2110   */\n      swap2\n      swap1\n      pop\n      jump\t// out\n        /* \"#utility.yul\":2116:2262   */\n    tag_113:\n        /* \"#utility.yul\":2213:2219   */\n      dup3\n        /* \"#utility.yul\":2208:2211   */\n      dup2\n        /* \"#utility.yul\":2203:2206   */\n      dup4\n        /* \"#utility.yul\":2190:2220   */\n      calldatacopy\n        /* \"#utility.yul\":2254:2255   */\n      0x00\n        /* \"#utility.yul\":2245:2251   */\n      dup4\n        /* \"#utility.yul\":2240:2243   */\n      dup4\n        /* \"#utility.yul\":2236:2252   */\n      add\n        /* \"#utility.yul\":2229:2256   */\n      mstore\n        /* \"#utility.yul\":2116:2262   */\n      pop\n      pop\n      pop\n      jump\t// out\n        /* \"#utility.yul\":2268:2691   */\n    tag_114:\n        /* \"#utility.yul\":2345:2350   */\n      0x00\n        /* \"#utility.yul\":2370:2435   */\n      tag_186\n        /* \"#utility.yul\":2386:2434   */\n      tag_187\n        /* \"#utility.yul\":2427:2433   */\n      dup5\n        /* \"#utility.yul\":2386:2434   */\n      tag_112\n      jump\t// in\n    tag_187:\n        /* \"#utility.yul\":2370:2435   */\n      tag_111\n      jump\t// in\n    tag_186:\n        /* \"#utility.yul\":2361:2435   */\n      swap1\n      pop\n        /* \"#utility.yul\":2458:2464   */\n      dup3\n        /* \"#utility.yul\":2451:2456   */\n      dup2\n        /* \"#utility.yul\":2444:2465   */\n      mstore\n        /* \"#utility.yul\":2496:2500   */\n      0x20\n        /* \"#utility.yul\":2489:2494   */\n      dup2\n        /* \"#utility.yul\":2485:2501   */\n      add\n        /* \"#utility.yul\":2534:2537   */\n      dup5\n        /* \"#utility.yul\":2525:2531   */\n      dup5\n        /* \"#utility.yul\":2520:2523   */\n      dup5\n        /* \"#utility.yul\":2516:2532   */\n      add\n        /* \"#utility.yul\":2513:2538   */\n      gt\n        /* \"#utility.yul\":2510:2622   */\n      iszero\n      tag_188\n      jumpi\n        /* \"#utility.yul\":2541:2620   */\n      tag_189\n      tag_107\n      jump\t// in\n    tag_189:\n        /* \"#utility.yul\":2510:2622   */\n    tag_188:\n        /* \"#utility.yul\":2631:2685   */\n      tag_190\n        /* \"#utility.yul\":2678:2684   */\n      dup5\n        /* \"#utility.yul\":2673:2676   */\n      dup3\n        /* \"#utility.yul\":2668:2671   */\n      dup6\n        /* \"#utility.yul\":2631:2685   */\n      tag_113\n      jump\t// in\n    tag_190:\n        /* \"#utility.yul\":2351:2691   */\n      pop\n        /* \"#utility.yul\":2268:2691   */\n      swap4\n      swap3\n      pop\n      pop\n      pop\n      jump\t// out\n        /* \"#utility.yul\":2710:3048   */\n    tag_115:\n        /* \"#utility.yul\":2765:2770   */\n      0x00\n        /* \"#utility.yul\":2814:2817   */\n      dup3\n        /* \"#utility.yul\":2807:2811   */\n      0x1f\n        /* \"#utility.yul\":2799:2805   */\n      dup4\n        /* \"#utility.yul\":2795:2812   */\n      add\n        /* \"#utility.yul\":2791:2818   */\n      slt\n        /* \"#utility.yul\":2781:2903   */\n      tag_192\n      jumpi\n        /* \"#utility.yul\":2822:2901   */\n      tag_193\n      tag_106\n      jump\t// in\n    tag_193:\n        /* \"#utility.yul\":2781:2903   */\n    tag_192:\n        /* \"#utility.yul\":2939:2945   */\n      dup2\n        /* \"#utility.yul\":2926:2946   */\n      calldataload\n        /* \"#utility.yul\":2964:3042   */\n      tag_194\n        /* \"#utility.yul\":3038:3041   */\n      dup5\n        /* \"#utility.yul\":3030:3036   */\n      dup3\n        /* \"#utility.yul\":3023:3027   */\n      0x20\n        /* \"#utility.yul\":3015:3021   */\n      dup7\n        /* \"#utility.yul\":3011:3028   */\n      add\n        /* \"#utility.yul\":2964:3042   */\n      tag_114\n      jump\t// in\n    tag_194:\n        /* \"#utility.yul\":2955:3042   */\n      swap2\n      pop\n        /* \"#utility.yul\":2771:3048   */\n      pop\n        /* \"#utility.yul\":2710:3048   */\n      swap3\n      swap2\n      pop\n      pop\n      jump\t// out\n        /* \"#utility.yul\":3054:3706   */\n    tag_13:\n        /* \"#utility.yul\":3131:3137   */\n      0x00\n        /* \"#utility.yul\":3139:3145   */\n      dup1\n        /* \"#utility.yul\":3188:3190   */\n      0x40\n        /* \"#utility.yul\":3176:3185   */\n      dup4\n        /* \"#utility.yul\":3167:3174   */\n      dup6\n        /* \"#utility.yul\":3163:3186   */\n      sub\n        /* \"#utility.yul\":3159:3191   */\n      slt\n        /* \"#utility.yul\":3156:3275   */\n      iszero\n      tag_196\n      jumpi\n        /* \"#utility.yul\":3194:3273   */\n      tag_197\n      tag_100\n      jump\t// in\n    tag_197:\n        /* \"#utility.yul\":3156:3275   */\n    tag_196:\n        /* \"#utility.yul\":3314:3315   */\n      0x00\n        /* \"#utility.yul\":3339:3392   */\n      tag_198\n        /* \"#utility.yul\":3384:3391   */\n      dup6\n        /* \"#utility.yul\":3375:3381   */\n      dup3\n        /* \"#utility.yul\":3364:3373   */\n      dup7\n        /* \"#utility.yul\":3360:3382   */\n      add\n        /* \"#utility.yul\":3339:3392   */\n      tag_105\n      jump\t// in\n    tag_198:\n        /* \"#utility.yul\":3329:3392   */\n      swap3\n      pop\n        /* \"#utility.yul\":3285:3402   */\n      pop\n        /* \"#utility.yul\":3469:3471   */\n      0x20\n        /* \"#utility.yul\":3458:3467   */\n      dup4\n        /* \"#utility.yul\":3454:3472   */\n      add\n        /* \"#utility.yul\":3441:3473   */\n      calldataload\n        /* \"#utility.yul\":3500:3518   */\n      0xffffffffffffffff\n        /* \"#utility.yul\":3492:3498   */\n      dup2\n        /* \"#utility.yul\":3489:3519   */\n      gt\n        /* \"#utility.yul\":3486:3603   */\n      iszero\n      tag_199\n      jumpi\n        /* \"#utility.yul\":3522:3601   */\n      tag_200\n      tag_101\n      jump\t// in\n    tag_200:\n        /* \"#utility.yul\":3486:3603   */\n    tag_199:\n        /* \"#utility.yul\":3627:3689   */\n      tag_201\n        /* \"#utility.yul\":3681:3688   */\n      dup6\n        /* \"#utility.yul\":3672:3678   */\n      dup3\n        /* \"#utility.yul\":3661:3670   */\n      dup7\n        /* \"#utility.yul\":3657:3679   */\n      add\n        /* \"#utility.yul\":3627:3689   */\n      tag_115\n      jump\t// in\n    tag_201:\n        /* \"#utility.yul\":3617:3689   */\n      swap2\n      pop\n        /* \"#utility.yul\":3412:3699   */\n      pop\n        /* \"#utility.yul\":3054:3706   */\n      swap3\n      pop\n      swap3\n      swap1\n      pop\n      jump\t// out\n        /* \"#utility.yul\":3712:3802   */\n    tag_116:\n        /* \"#utility.yul\":3746:3753   */\n      0x00\n        /* \"#utility.yul\":3789:3794   */\n      dup2\n        /* \"#utility.yul\":3782:3795   */\n      iszero\n        /* \"#utility.yul\":3775:3796   */\n      iszero\n        /* \"#utility.yul\":3764:3796   */\n      swap1\n      pop\n        /* \"#utility.yul\":3712:3802   */\n      swap2\n      swap1\n      pop\n      jump\t// out\n        /* \"#utility.yul\":3808:3917   */\n    tag_117:\n        /* \"#utility.yul\":3889:3910   */\n      tag_204\n        /* \"#utility.yul\":3904:3909   */\n      dup2\n        /* \"#utility.yul\":3889:3910   */\n      tag_116\n      jump\t// in\n    tag_204:\n        /* \"#utility.yul\":3884:3887   */\n      dup3\n        /* \"#utility.yul\":3877:3911   */\n      mstore\n        /* \"#utility.yul\":3808:3917   */\n      pop\n      pop\n      jump\t// out\n        /* \"#utility.yul\":3923:4133   */\n    tag_16:\n        /* \"#utility.yul\":4010:4014   */\n      0x00\n        /* \"#utility.yul\":4048:4050   */\n      0x20\n        /* \"#utility.yul\":4037:4046   */\n      dup3\n        /* \"#utility.yul\":4033:4051   */\n      add\n        /* \"#utility.yul\":4025:4051   */\n      swap1\n      pop\n        /* \"#utility.yul\":4061:4126   */\n      tag_206\n        /* \"#utility.yul\":4123:4124   */\n      0x00\n        /* \"#utility.yul\":4112:4121   */\n      dup4\n        /* \"#utility.yul\":4108:4125   */\n      add\n        /* \"#utility.yul\":4099:4105   */\n      dup5\n        /* \"#utility.yul\":4061:4126   */\n      tag_117\n      jump\t// in\n    tag_206:\n        /* \"#utility.yul\":3923:4133   */\n      swap3\n      swap2\n      pop\n      pop\n      jump\t// out\n        /* \"#utility.yul\":4139:4646   */\n    tag_19:\n        /* \"#utility.yul\":4207:4213   */\n      0x00\n        /* \"#utility.yul\":4256:4258   */\n      0x20\n        /* \"#utility.yul\":4244:4253   */\n      dup3\n        /* \"#utility.yul\":4235:4242   */\n      dup5\n        /* \"#utility.yul\":4231:4254   */\n      sub\n        /* \"#utility.yul\":4227:4259   */\n      slt\n        /* \"#utility.yul\":4224:4343   */\n      iszero\n      tag_208\n      jumpi\n        /* \"#utility.yul\":4262:4341   */\n      tag_209\n      tag_100\n      jump\t// in\n    tag_209:\n        /* \"#utility.yul\":4224:4343   */\n    tag_208:\n        /* \"#utility.yul\":4410:4411   */\n      0x00\n        /* \"#utility.yul\":4399:4408   */\n      dup3\n        /* \"#utility.yul\":4395:4412   */\n      add\n        /* \"#utility.yul\":4382:4413   */\n      calldataload\n        /* \"#utility.yul\":4440:4458   */\n      0xffffffffffffffff\n        /* \"#utility.yul\":4432:4438   */\n      dup2\n        /* \"#utility.yul\":4429:4459   */\n      gt\n        /* \"#utility.yul\":4426:4543   */\n      iszero\n      tag_210\n      jumpi\n        /* \"#utility.yul\":4462:4541   */\n      tag_211\n      tag_101\n      jump\t// in\n    tag_211:\n        /* \"#utility.yul\":4426:4543   */\n    tag_210:\n        /* \"#utility.yul\":4567:4629   */\n      tag_212\n        /* \"#utility.yul\":4621:4628   */\n      dup5\n        /* \"#utility.yul\":4612:4618   */\n      dup3\n        /* \"#utility.yul\":4601:4610   */\n      dup6\n        /* \"#utility.yul\":4597:4619   */\n      add\n        /* \"#utility.yul\":4567:4629   */\n      tag_115\n      jump\t// in\n    tag_212:\n        /* \"#utility.yul\":4557:4629   */\n      swap2\n      pop\n        /* \"#utility.yul\":4353:4639   */\n      pop\n        /* \"#utility.yul\":4139:4646   */\n      swap3\n      swap2\n      pop\n      pop\n      jump\t// out\n        /* \"#utility.yul\":4652:4981   */\n    tag_23:\n        /* \"#utility.yul\":4711:4717   */\n      0x00\n        /* \"#utility.yul\":4760:4762   */\n      0x20\n        /* \"#utility.yul\":4748:4757   */\n      dup3\n        /* \"#utility.yul\":4739:4746   */\n      dup5\n        /* \"#utility.yul\":4735:4758   */\n      sub\n        /* \"#utility.yul\":4731:4763   */\n      slt\n        /* \"#utility.yul\":4728:4847   */\n      iszero\n      tag_214\n      jumpi\n        /* \"#utility.yul\":4766:4845   */\n      tag_215\n      tag_100\n      jump\t// in\n    tag_215:\n        /* \"#utility.yul\":4728:4847   */\n    tag_214:\n        /* \"#utility.yul\":4886:4887   */\n      0x00\n        /* \"#utility.yul\":4911:4964   */\n      tag_216\n        /* \"#utility.yul\":4956:4963   */\n      dup5\n        /* \"#utility.yul\":4947:4953   */\n      dup3\n        /* \"#utility.yul\":4936:4945   */\n      dup6\n        /* \"#utility.yul\":4932:4954   */\n      add\n        /* \"#utility.yul\":4911:4964   */\n      tag_105\n      jump\t// in\n    tag_216:\n        /* \"#utility.yul\":4901:4964   */\n      swap2\n      pop\n        /* \"#utility.yul\":4857:4974   */\n      pop\n        /* \"#utility.yul\":4652:4981   */\n      swap3\n      swap2\n      pop\n      pop\n      jump\t// out\n        /* \"#utility.yul\":4987:5064   */\n    tag_118:\n        /* \"#utility.yul\":5024:5031   */\n      0x00\n        /* \"#utility.yul\":5053:5058   */\n      dup2\n        /* \"#utility.yul\":5042:5058   */\n      swap1\n      pop\n        /* \"#utility.yul\":4987:5064   */\n      swap2\n      swap1\n      pop\n      jump\t// out\n        /* \"#utility.yul\":5070:5188   */\n    tag_119:\n        /* \"#utility.yul\":5157:5181   */\n      tag_219\n        /* \"#utility.yul\":5175:5180   */\n      dup2\n        /* \"#utility.yul\":5157:5181   */\n      tag_118\n      jump\t// in\n    tag_219:\n        /* \"#utility.yul\":5152:5155   */\n      dup3\n        /* \"#utility.yul\":5145:5182   */\n      mstore\n        /* \"#utility.yul\":5070:5188   */\n      pop\n      pop\n      jump\t// out\n        /* \"#utility.yul\":5194:5416   */\n    tag_26:\n        /* \"#utility.yul\":5287:5291   */\n      0x00\n        /* \"#utility.yul\":5325:5327   */\n      0x20\n        /* \"#utility.yul\":5314:5323   */\n      dup3\n        /* \"#utility.yul\":5310:5328   */\n      add\n        /* \"#utility.yul\":5302:5328   */\n      swap1\n      pop\n        /* \"#utility.yul\":5338:5409   */\n      tag_221\n        /* \"#utility.yul\":5406:5407   */\n      0x00\n        /* \"#utility.yul\":5395:5404   */\n      dup4\n        /* \"#utility.yul\":5391:5408   */\n      add\n        /* \"#utility.yul\":5382:5388   */\n      dup5\n        /* \"#utility.yul\":5338:5409   */\n      tag_119\n      jump\t// in\n    tag_221:\n        /* \"#utility.yul\":5194:5416   */\n      swap3\n      swap2\n      pop\n      pop\n      jump\t// out\n        /* \"#utility.yul\":5422:5540   */\n    tag_120:\n        /* \"#utility.yul\":5509:5533   */\n      tag_223\n        /* \"#utility.yul\":5527:5532   */\n      dup2\n        /* \"#utility.yul\":5509:5533   */\n      tag_103\n      jump\t// in\n    tag_223:\n        /* \"#utility.yul\":5504:5507   */\n      dup3\n        /* \"#utility.yul\":5497:5534   */\n      mstore\n        /* \"#utility.yul\":5422:5540   */\n      pop\n      pop\n      jump\t// out\n        /* \"#utility.yul\":5546:5768   */\n    tag_32:\n        /* \"#utility.yul\":5639:5643   */\n      0x00\n        /* \"#utility.yul\":5677:5679   */\n      0x20\n        /* \"#utility.yul\":5666:5675   */\n      dup3\n        /* \"#utility.yul\":5662:5680   */\n      add\n        /* \"#utility.yul\":5654:5680   */\n      swap1\n      pop\n        /* \"#utility.yul\":5690:5761   */\n      tag_225\n        /* \"#utility.yul\":5758:5759   */\n      0x00\n        /* \"#utility.yul\":5747:5756   */\n      dup4\n        /* \"#utility.yul\":5743:5760   */\n      add\n        /* \"#utility.yul\":5734:5740   */\n      dup5\n        /* \"#utility.yul\":5690:5761   */\n      tag_120\n      jump\t// in\n    tag_225:\n        /* \"#utility.yul\":5546:5768   */\n      swap3\n      swap2\n      pop\n      pop\n      jump\t// out\n        /* \"#utility.yul\":5774:5891   */\n    tag_121:\n        /* \"#utility.yul\":5883:5884   */\n      0x00\n        /* \"#utility.yul\":5880:5881   */\n      dup1\n        /* \"#utility.yul\":5873:5885   */\n      revert\n        /* \"#utility.yul\":5897:6014   */\n    tag_122:\n        /* \"#utility.yul\":6006:6007   */\n      0x00\n        /* \"#utility.yul\":6003:6004   */\n      dup1\n        /* \"#utility.yul\":5996:6008   */\n      revert\n        /* \"#utility.yul\":6020:6163   */\n    tag_123:\n        /* \"#utility.yul\":6077:6082   */\n      0x00\n        /* \"#utility.yul\":6108:6114   */\n      dup2\n        /* \"#utility.yul\":6102:6115   */\n      mload\n        /* \"#utility.yul\":6093:6115   */\n      swap1\n      pop\n        /* \"#utility.yul\":6124:6157   */\n      tag_229\n        /* \"#utility.yul\":6151:6156   */\n      dup2\n        /* \"#utility.yul\":6124:6157   */\n      tag_104\n      jump\t// in\n    tag_229:\n        /* \"#utility.yul\":6020:6163   */\n      swap3\n      swap2\n      pop\n      pop\n      jump\t// out\n        /* \"#utility.yul\":6169:6477   */\n    tag_124:\n        /* \"#utility.yul\":6231:6235   */\n      0x00\n        /* \"#utility.yul\":6321:6339   */\n      0xffffffffffffffff\n        /* \"#utility.yul\":6313:6319   */\n      dup3\n        /* \"#utility.yul\":6310:6340   */\n      gt\n        /* \"#utility.yul\":6307:6363   */\n      iszero\n      tag_231\n      jumpi\n        /* \"#utility.yul\":6343:6361   */\n      tag_232\n      tag_109\n      jump\t// in\n    tag_232:\n        /* \"#utility.yul\":6307:6363   */\n    tag_231:\n        /* \"#utility.yul\":6381:6410   */\n      tag_233\n        /* \"#utility.yul\":6403:6409   */\n      dup3\n        /* \"#utility.yul\":6381:6410   */\n      tag_108\n      jump\t// in\n    tag_233:\n        /* \"#utility.yul\":6373:6410   */\n      swap1\n      pop\n        /* \"#utility.yul\":6465:6469   */\n      0x20\n        /* \"#utility.yul\":6459:6463   */\n      dup2\n        /* \"#utility.yul\":6455:6470   */\n      add\n        /* \"#utility.yul\":6447:6470   */\n      swap1\n      pop\n        /* \"#utility.yul\":6169:6477   */\n      swap2\n      swap1\n      pop\n      jump\t// out\n        /* \"#utility.yul\":6483:6729   */\n    tag_125:\n        /* \"#utility.yul\":6564:6565   */\n      0x00\n        /* \"#utility.yul\":6574:6687   */\n    tag_235:\n        /* \"#utility.yul\":6588:6594   */\n      dup4\n        /* \"#utility.yul\":6585:6586   */\n      dup2\n        /* \"#utility.yul\":6582:6595   */\n      lt\n        /* \"#utility.yul\":6574:6687   */\n      iszero\n      tag_237\n      jumpi\n        /* \"#utility.yul\":6673:6674   */\n      dup1\n        /* \"#utility.yul\":6668:6671   */\n      dup3\n        /* \"#utility.yul\":6664:6675   */\n      add\n        /* \"#utility.yul\":6658:6676   */\n      mload\n        /* \"#utility.yul\":6654:6655   */\n      dup2\n        /* \"#utility.yul\":6649:6652   */\n      dup5\n        /* \"#utility.yul\":6645:6656   */\n      add\n        /* \"#utility.yul\":6638:6677   */\n      mstore\n        /* \"#utility.yul\":6610:6612   */\n      0x20\n        /* \"#utility.yul\":6607:6608   */\n      dup2\n        /* \"#utility.yul\":6603:6613   */\n      add\n        /* \"#utility.yul\":6598:6613   */\n      swap1\n      pop\n        /* \"#utility.yul\":6574:6687   */\n      jump(tag_235)\n    tag_237:\n        /* \"#utility.yul\":6721:6722   */\n      0x00\n        /* \"#utility.yul\":6712:6718   */\n      dup5\n        /* \"#utility.yul\":6707:6710   */\n      dup5\n        /* \"#utility.yul\":6703:6719   */\n      add\n        /* \"#utility.yul\":6696:6723   */\n      mstore\n        /* \"#utility.yul\":6545:6729   */\n      pop\n        /* \"#utility.yul\":6483:6729   */\n      pop\n      pop\n      pop\n      jump\t// out\n        /* \"#utility.yul\":6735:7169   */\n    tag_126:\n        /* \"#utility.yul\":6824:6829   */\n      0x00\n        /* \"#utility.yul\":6849:6915   */\n      tag_239\n        /* \"#utility.yul\":6865:6914   */\n      tag_240\n        /* \"#utility.yul\":6907:6913   */\n      dup5\n        /* \"#utility.yul\":6865:6914   */\n      tag_124\n      jump\t// in\n    tag_240:\n        /* \"#utility.yul\":6849:6915   */\n      tag_111\n      jump\t// in\n    tag_239:\n        /* \"#utility.yul\":6840:6915   */\n      swap1\n      pop\n        /* \"#utility.yul\":6938:6944   */\n      dup3\n        /* \"#utility.yul\":6931:6936   */\n      dup2\n        /* \"#utility.yul\":6924:6945   */\n      mstore\n        /* \"#utility.yul\":6976:6980   */\n      0x20\n        /* \"#utility.yul\":6969:6974   */\n      dup2\n        /* \"#utility.yul\":6965:6981   */\n      add\n        /* \"#utility.yul\":7014:7017   */\n      dup5\n        /* \"#utility.yul\":7005:7011   */\n      dup5\n        /* \"#utility.yul\":7000:7003   */\n      dup5\n        /* \"#utility.yul\":6996:7012   */\n      add\n        /* \"#utility.yul\":6993:7018   */\n      gt\n        /* \"#utility.yul\":6990:7102   */\n      iszero\n      tag_241\n      jumpi\n        /* \"#utility.yul\":7021:7100   */\n      tag_242\n      tag_107\n      jump\t// in\n    tag_242:\n        /* \"#utility.yul\":6990:7102   */\n    tag_241:\n        /* \"#utility.yul\":7111:7163   */\n      tag_243\n        /* \"#utility.yul\":7156:7162   */\n      dup5\n        /* \"#utility.yul\":7151:7154   */\n      dup3\n        /* \"#utility.yul\":7146:7149   */\n      dup6\n        /* \"#utility.yul\":7111:7163   */\n      tag_125\n      jump\t// in\n    tag_243:\n        /* \"#utility.yul\":6830:7169   */\n      pop\n        /* \"#utility.yul\":6735:7169   */\n      swap4\n      swap3\n      pop\n      pop\n      pop\n      jump\t// out\n        /* \"#utility.yul\":7189:7544   */\n    tag_127:\n        /* \"#utility.yul\":7256:7261   */\n      0x00\n        /* \"#utility.yul\":7305:7308   */\n      dup3\n        /* \"#utility.yul\":7298:7302   */\n      0x1f\n        /* \"#utility.yul\":7290:7296   */\n      dup4\n        /* \"#utility.yul\":7286:7303   */\n      add\n        /* \"#utility.yul\":7282:7309   */\n      slt\n        /* \"#utility.yul\":7272:7394   */\n      tag_245\n      jumpi\n        /* \"#utility.yul\":7313:7392   */\n      tag_246\n      tag_106\n      jump\t// in\n    tag_246:\n        /* \"#utility.yul\":7272:7394   */\n    tag_245:\n        /* \"#utility.yul\":7423:7429   */\n      dup2\n        /* \"#utility.yul\":7417:7430   */\n      mload\n        /* \"#utility.yul\":7448:7538   */\n      tag_247\n        /* \"#utility.yul\":7534:7537   */\n      dup5\n        /* \"#utility.yul\":7526:7532   */\n      dup3\n        /* \"#utility.yul\":7519:7523   */\n      0x20\n        /* \"#utility.yul\":7511:7517   */\n      dup7\n        /* \"#utility.yul\":7507:7524   */\n      add\n        /* \"#utility.yul\":7448:7538   */\n      tag_126\n      jump\t// in\n    tag_247:\n        /* \"#utility.yul\":7439:7538   */\n      swap2\n      pop\n        /* \"#utility.yul\":7262:7544   */\n      pop\n        /* \"#utility.yul\":7189:7544   */\n      swap3\n      swap2\n      pop\n      pop\n      jump\t// out\n        /* \"#utility.yul\":7550:7672   */\n    tag_128:\n        /* \"#utility.yul\":7623:7647   */\n      tag_249\n        /* \"#utility.yul\":7641:7646   */\n      dup2\n        /* \"#utility.yul\":7623:7647   */\n      tag_118\n      jump\t// in\n    tag_249:\n        /* \"#utility.yul\":7616:7621   */\n      dup2\n        /* \"#utility.yul\":7613:7648   */\n      eq\n        /* \"#utility.yul\":7603:7666   */\n      tag_250\n      jumpi\n        /* \"#utility.yul\":7662:7663   */\n      0x00\n        /* \"#utility.yul\":7659:7660   */\n      dup1\n        /* \"#utility.yul\":7652:7664   */\n      revert\n        /* \"#utility.yul\":7603:7666   */\n    tag_250:\n        /* \"#utility.yul\":7550:7672   */\n      pop\n      jump\t// out\n        /* \"#utility.yul\":7678:7821   */\n    tag_129:\n        /* \"#utility.yul\":7735:7740   */\n      0x00\n        /* \"#utility.yul\":7766:7772   */\n      dup2\n        /* \"#utility.yul\":7760:7773   */\n      mload\n        /* \"#utility.yul\":7751:7773   */\n      swap1\n      pop\n        /* \"#utility.yul\":7782:7815   */\n      tag_252\n        /* \"#utility.yul\":7809:7814   */\n      dup2\n        /* \"#utility.yul\":7782:7815   */\n      tag_128\n      jump\t// in\n    tag_252:\n        /* \"#utility.yul\":7678:7821   */\n      swap3\n      swap2\n      pop\n      pop\n      jump\t// out\n        /* \"#utility.yul\":7867:8995   */\n    tag_130:\n        /* \"#utility.yul\":7955:7960   */\n      0x00\n        /* \"#utility.yul\":7999:8003   */\n      0x80\n        /* \"#utility.yul\":7987:7996   */\n      dup3\n        /* \"#utility.yul\":7982:7985   */\n      dup5\n        /* \"#utility.yul\":7978:7997   */\n      sub\n        /* \"#utility.yul\":7974:8004   */\n      slt\n        /* \"#utility.yul\":7971:8088   */\n      iszero\n      tag_254\n      jumpi\n        /* \"#utility.yul\":8007:8086   */\n      tag_255\n      tag_121\n      jump\t// in\n    tag_255:\n        /* \"#utility.yul\":7971:8088   */\n    tag_254:\n        /* \"#utility.yul\":8106:8127   */\n      tag_256\n        /* \"#utility.yul\":8122:8126   */\n      0x80\n        /* \"#utility.yul\":8106:8127   */\n      tag_111\n      jump\t// in\n    tag_256:\n        /* \"#utility.yul\":8097:8127   */\n      swap1\n      pop\n        /* \"#utility.yul\":8189:8190   */\n      0x00\n        /* \"#utility.yul\":8229:8289   */\n      tag_257\n        /* \"#utility.yul\":8285:8288   */\n      dup5\n        /* \"#utility.yul\":8276:8282   */\n      dup3\n        /* \"#utility.yul\":8265:8274   */\n      dup6\n        /* \"#utility.yul\":8261:8283   */\n      add\n        /* \"#utility.yul\":8229:8289   */\n      tag_123\n      jump\t// in\n    tag_257:\n        /* \"#utility.yul\":8222:8226   */\n      0x00\n        /* \"#utility.yul\":8215:8220   */\n      dup4\n        /* \"#utility.yul\":8211:8227   */\n      add\n        /* \"#utility.yul\":8204:8290   */\n      mstore\n        /* \"#utility.yul\":8137:8301   */\n      pop\n        /* \"#utility.yul\":8381:8383   */\n      0x20\n        /* \"#utility.yul\":8370:8379   */\n      dup3\n        /* \"#utility.yul\":8366:8384   */\n      add\n        /* \"#utility.yul\":8360:8385   */\n      mload\n        /* \"#utility.yul\":8412:8430   */\n      0xffffffffffffffff\n        /* \"#utility.yul\":8404:8410   */\n      dup2\n        /* \"#utility.yul\":8401:8431   */\n      gt\n        /* \"#utility.yul\":8398:8515   */\n      iszero\n      tag_258\n      jumpi\n        /* \"#utility.yul\":8434:8513   */\n      tag_259\n      tag_122\n      jump\t// in\n    tag_259:\n        /* \"#utility.yul\":8398:8515   */\n    tag_258:\n        /* \"#utility.yul\":8554:8624   */\n      tag_260\n        /* \"#utility.yul\":8620:8623   */\n      dup5\n        /* \"#utility.yul\":8611:8617   */\n      dup3\n        /* \"#utility.yul\":8600:8609   */\n      dup6\n        /* \"#utility.yul\":8596:8618   */\n      add\n        /* \"#utility.yul\":8554:8624   */\n      tag_127\n      jump\t// in\n    tag_260:\n        /* \"#utility.yul\":8547:8551   */\n      0x20\n        /* \"#utility.yul\":8540:8545   */\n      dup4\n        /* \"#utility.yul\":8536:8552   */\n      add\n        /* \"#utility.yul\":8529:8625   */\n      mstore\n        /* \"#utility.yul\":8311:8636   */\n      pop\n        /* \"#utility.yul\":8700:8702   */\n      0x40\n        /* \"#utility.yul\":8741:8801   */\n      tag_261\n        /* \"#utility.yul\":8797:8800   */\n      dup5\n        /* \"#utility.yul\":8788:8794   */\n      dup3\n        /* \"#utility.yul\":8777:8786   */\n      dup6\n        /* \"#utility.yul\":8773:8795   */\n      add\n        /* \"#utility.yul\":8741:8801   */\n      tag_123\n      jump\t// in\n    tag_261:\n        /* \"#utility.yul\":8734:8738   */\n      0x40\n        /* \"#utility.yul\":8727:8732   */\n      dup4\n        /* \"#utility.yul\":8723:8739   */\n      add\n        /* \"#utility.yul\":8716:8802   */\n      mstore\n        /* \"#utility.yul\":8646:8813   */\n      pop\n        /* \"#utility.yul\":8875:8877   */\n      0x60\n        /* \"#utility.yul\":8916:8976   */\n      tag_262\n        /* \"#utility.yul\":8972:8975   */\n      dup5\n        /* \"#utility.yul\":8963:8969   */\n      dup3\n        /* \"#utility.yul\":8952:8961   */\n      dup6\n        /* \"#utility.yul\":8948:8970   */\n      add\n        /* \"#utility.yul\":8916:8976   */\n      tag_129\n      jump\t// in\n    tag_262:\n        /* \"#utility.yul\":8909:8913   */\n      0x60\n        /* \"#utility.yul\":8902:8907   */\n      dup4\n        /* \"#utility.yul\":8898:8914   */\n      add\n        /* \"#utility.yul\":8891:8977   */\n      mstore\n        /* \"#utility.yul\":8823:8988   */\n      pop\n        /* \"#utility.yul\":7867:8995   */\n      swap3\n      swap2\n      pop\n      pop\n      jump\t// out\n        /* \"#utility.yul\":9001:9561   */\n    tag_48:\n        /* \"#utility.yul\":9099:9105   */\n      0x00\n        /* \"#utility.yul\":9148:9150   */\n      0x20\n        /* \"#utility.yul\":9136:9145   */\n      dup3\n        /* \"#utility.yul\":9127:9134   */\n      dup5\n        /* \"#utility.yul\":9123:9146   */\n      sub\n        /* \"#utility.yul\":9119:9151   */\n      slt\n        /* \"#utility.yul\":9116:9235   */\n      iszero\n      tag_264\n      jumpi\n        /* \"#utility.yul\":9154:9233   */\n      tag_265\n      tag_100\n      jump\t// in\n    tag_265:\n        /* \"#utility.yul\":9116:9235   */\n    tag_264:\n        /* \"#utility.yul\":9295:9296   */\n      0x00\n        /* \"#utility.yul\":9284:9293   */\n      dup3\n        /* \"#utility.yul\":9280:9297   */\n      add\n        /* \"#utility.yul\":9274:9298   */\n      mload\n        /* \"#utility.yul\":9325:9343   */\n      0xffffffffffffffff\n        /* \"#utility.yul\":9317:9323   */\n      dup2\n        /* \"#utility.yul\":9314:9344   */\n      gt\n        /* \"#utility.yul\":9311:9428   */\n      iszero\n      tag_266\n      jumpi\n        /* \"#utility.yul\":9347:9426   */\n      tag_267\n      tag_101\n      jump\t// in\n    tag_267:\n        /* \"#utility.yul\":9311:9428   */\n    tag_266:\n        /* \"#utility.yul\":9452:9544   */\n      tag_268\n        /* \"#utility.yul\":9536:9543   */\n      dup5\n        /* \"#utility.yul\":9527:9533   */\n      dup3\n        /* \"#utility.yul\":9516:9525   */\n      dup6\n        /* \"#utility.yul\":9512:9534   */\n      add\n        /* \"#utility.yul\":9452:9544   */\n      tag_130\n      jump\t// in\n    tag_268:\n        /* \"#utility.yul\":9442:9544   */\n      swap2\n      pop\n        /* \"#utility.yul\":9245:9554   */\n      pop\n        /* \"#utility.yul\":9001:9561   */\n      swap3\n      swap2\n      pop\n      pop\n      jump\t// out\n        /* \"#utility.yul\":9567:9747   */\n    tag_131:\n        /* \"#utility.yul\":9615:9692   */\n      0x4e487b7100000000000000000000000000000000000000000000000000000000\n        /* \"#utility.yul\":9612:9613   */\n      0x00\n        /* \"#utility.yul\":9605:9693   */\n      mstore\n        /* \"#utility.yul\":9712:9716   */\n      0x11\n        /* \"#utility.yul\":9709:9710   */\n      0x04\n        /* \"#utility.yul\":9702:9717   */\n      mstore\n        /* \"#utility.yul\":9736:9740   */\n      0x24\n        /* \"#utility.yul\":9733:9734   */\n      0x00\n        /* \"#utility.yul\":9726:9741   */\n      revert\n        /* \"#utility.yul\":9753:9944   */\n    tag_50:\n        /* \"#utility.yul\":9793:9796   */\n      0x00\n        /* \"#utility.yul\":9812:9832   */\n      tag_271\n        /* \"#utility.yul\":9830:9831   */\n      dup3\n        /* \"#utility.yul\":9812:9832   */\n      tag_118\n      jump\t// in\n    tag_271:\n        /* \"#utility.yul\":9807:9832   */\n      swap2\n      pop\n        /* \"#utility.yul\":9846:9866   */\n      tag_272\n        /* \"#utility.yul\":9864:9865   */\n      dup4\n        /* \"#utility.yul\":9846:9866   */\n      tag_118\n      jump\t// in\n    tag_272:\n        /* \"#utility.yul\":9841:9866   */\n      swap3\n      pop\n        /* \"#utility.yul\":9889:9890   */\n      dup3\n        /* \"#utility.yul\":9886:9887   */\n      dup3\n        /* \"#utility.yul\":9882:9891   */\n      add\n        /* \"#utility.yul\":9875:9891   */\n      swap1\n      pop\n        /* \"#utility.yul\":9910:9913   */\n      dup1\n        /* \"#utility.yul\":9907:9908   */\n      dup3\n        /* \"#utility.yul\":9904:9914   */\n      gt\n        /* \"#utility.yul\":9901:9937   */\n      iszero\n      tag_273\n      jumpi\n        /* \"#utility.yul\":9917:9935   */\n      tag_274\n      tag_131\n      jump\t// in\n    tag_274:\n        /* \"#utility.yul\":9901:9937   */\n    tag_273:\n        /* \"#utility.yul\":9753:9944   */\n      swap3\n      swap2\n      pop\n      pop\n      jump\t// out\n        /* \"#utility.yul\":9950:10049   */\n    tag_132:\n        /* \"#utility.yul\":10002:10008   */\n      0x00\n        /* \"#utility.yul\":10036:10041   */\n      dup2\n        /* \"#utility.yul\":10030:10042   */\n      mload\n        /* \"#utility.yul\":10020:10042   */\n      swap1\n      pop\n        /* \"#utility.yul\":9950:10049   */\n      swap2\n      swap1\n      pop\n      jump\t// out\n        /* \"#utility.yul\":10055:10235   */\n    tag_133:\n        /* \"#utility.yul\":10103:10180   */\n      0x4e487b7100000000000000000000000000000000000000000000000000000000\n        /* \"#utility.yul\":10100:10101   */\n      0x00\n        /* \"#utility.yul\":10093:10181   */\n      mstore\n        /* \"#utility.yul\":10200:10204   */\n      0x22\n        /* \"#utility.yul\":10197:10198   */\n      0x04\n        /* \"#utility.yul\":10190:10205   */\n      mstore\n        /* \"#utility.yul\":10224:10228   */\n      0x24\n        /* \"#utility.yul\":10221:10222   */\n      0x00\n        /* \"#utility.yul\":10214:10229   */\n      revert\n        /* \"#utility.yul\":10241:10561   */\n    tag_77:\n        /* \"#utility.yul\":10285:10291   */\n      0x00\n        /* \"#utility.yul\":10322:10323   */\n      0x02\n        /* \"#utility.yul\":10316:10320   */\n      dup3\n        /* \"#utility.yul\":10312:10324   */\n      div\n        /* \"#utility.yul\":10302:10324   */\n      swap1\n      pop\n        /* \"#utility.yul\":10369:10370   */\n      0x01\n        /* \"#utility.yul\":10363:10367   */\n      dup3\n        /* \"#utility.yul\":10359:10371   */\n      and\n        /* \"#utility.yul\":10390:10408   */\n      dup1\n        /* \"#utility.yul\":10380:10461   */\n      tag_278\n      jumpi\n        /* \"#utility.yul\":10446:10450   */\n      0x7f\n        /* \"#utility.yul\":10438:10444   */\n      dup3\n        /* \"#utility.yul\":10434:10451   */\n      and\n        /* \"#utility.yul\":10424:10451   */\n      swap2\n      pop\n        /* \"#utility.yul\":10380:10461   */\n    tag_278:\n        /* \"#utility.yul\":10508:10510   */\n      0x20\n        /* \"#utility.yul\":10500:10506   */\n      dup3\n        /* \"#utility.yul\":10497:10511   */\n      lt\n        /* \"#utility.yul\":10477:10495   */\n      dup2\n        /* \"#utility.yul\":10474:10512   */\n      sub\n        /* \"#utility.yul\":10471:10555   */\n      tag_279\n      jumpi\n        /* \"#utility.yul\":10527:10545   */\n      tag_280\n      tag_133\n      jump\t// in\n    tag_280:\n        /* \"#utility.yul\":10471:10555   */\n    tag_279:\n        /* \"#utility.yul\":10292:10561   */\n      pop\n        /* \"#utility.yul\":10241:10561   */\n      swap2\n      swap1\n      pop\n      jump\t// out\n        /* \"#utility.yul\":10567:10708   */\n    tag_134:\n        /* \"#utility.yul\":10616:10620   */\n      0x00\n        /* \"#utility.yul\":10639:10642   */\n      dup2\n        /* \"#utility.yul\":10631:10642   */\n      swap1\n      pop\n        /* \"#utility.yul\":10662:10665   */\n      dup2\n        /* \"#utility.yul\":10659:10660   */\n      0x00\n        /* \"#utility.yul\":10652:10666   */\n      mstore\n        /* \"#utility.yul\":10696:10700   */\n      0x20\n        /* \"#utility.yul\":10693:10694   */\n      0x00\n        /* \"#utility.yul\":10683:10701   */\n      keccak256\n        /* \"#utility.yul\":10675:10701   */\n      swap1\n      pop\n        /* \"#utility.yul\":10567:10708   */\n      swap2\n      swap1\n      pop\n      jump\t// out\n        /* \"#utility.yul\":10714:10807   */\n    tag_135:\n        /* \"#utility.yul\":10751:10757   */\n      0x00\n        /* \"#utility.yul\":10798:10800   */\n      0x20\n        /* \"#utility.yul\":10793:10795   */\n      0x1f\n        /* \"#utility.yul\":10786:10791   */\n      dup4\n        /* \"#utility.yul\":10782:10796   */\n      add\n        /* \"#utility.yul\":10778:10801   */\n      div\n        /* \"#utility.yul\":10768:10801   */\n      swap1\n      pop\n        /* \"#utility.yul\":10714:10807   */\n      swap2\n      swap1\n      pop\n      jump\t// out\n        /* \"#utility.yul\":10813:10920   */\n    tag_136:\n        /* \"#utility.yul\":10857:10865   */\n      0x00\n        /* \"#utility.yul\":10907:10912   */\n      dup3\n        /* \"#utility.yul\":10901:10905   */\n      dup3\n        /* \"#utility.yul\":10897:10913   */\n      shl\n        /* \"#utility.yul\":10876:10913   */\n      swap1\n      pop\n        /* \"#utility.yul\":10813:10920   */\n      swap3\n      swap2\n      pop\n      pop\n      jump\t// out\n        /* \"#utility.yul\":10926:11319   */\n    tag_137:\n        /* \"#utility.yul\":10995:11001   */\n      0x00\n        /* \"#utility.yul\":11045:11046   */\n      0x08\n        /* \"#utility.yul\":11033:11043   */\n      dup4\n        /* \"#utility.yul\":11029:11047   */\n      mul\n        /* \"#utility.yul\":11068:11165   */\n      tag_285\n        /* \"#utility.yul\":11098:11164   */\n      0xffffffffffffffffffffffffffffffffffffffffffffffffffffffffffffffff\n        /* \"#utility.yul\":11087:11096   */\n      dup3\n        /* \"#utility.yul\":11068:11165   */\n      tag_136\n      jump\t// in\n    tag_285:\n        /* \"#utility.yul\":11186:11225   */\n      tag_286\n        /* \"#utility.yul\":11216:11224   */\n      dup7\n        /* \"#utility.yul\":11205:11214   */\n      dup4\n        /* \"#utility.yul\":11186:11225   */\n      tag_136\n      jump\t// in\n    tag_286:\n        /* \"#utility.yul\":11174:11225   */\n      swap6\n      pop\n        /* \"#utility.yul\":11258:11262   */\n      dup1\n        /* \"#utility.yul\":11254:11263   */\n      not\n        /* \"#utility.yul\":11247:11252   */\n      dup5\n        /* \"#utility.yul\":11243:11264   */\n      and\n        /* \"#utility.yul\":11234:11264   */\n      swap4\n      pop\n        /* \"#utility.yul\":11307:11311   */\n      dup1\n        /* \"#utility.yul\":11297:11305   */\n      dup7\n        /* \"#utility.yul\":11293:11312   */\n      and\n        /* \"#utility.yul\":11286:11291   */\n      dup5\n        /* \"#utility.yul\":11283:11313   */\n      or\n        /* \"#utility.yul\":11273:11313   */\n      swap3\n      pop\n        /* \"#utility.yul\":11002:11319   */\n      pop\n      pop\n        /* \"#utility.yul\":10926:11319   */\n      swap4\n      swap3\n      pop\n      pop\n      pop\n      jump\t// out\n        /* \"#utility.yul\":11325:11385   */\n    tag_138:\n        /* \"#utility.yul\":11353:11356   */\n      0x00\n        /* \"#utility.yul\":11374:11379   */\n      dup2\n        /* \"#utility.yul\":11367:11379   */\n      swap1\n      pop\n        /* \"#utility.yul\":11325:11385   */\n      swap2\n      swap1\n      pop\n      jump\t// out\n        /* \"#utility.yul\":11391:11533   */\n    tag_139:\n        /* \"#utility.yul\":11441:11450   */\n      0x00\n        /* \"#utility.yul\":11474:11527   */\n      tag_289\n        /* \"#utility.yul\":11492:11526   */\n      tag_290\n        /* \"#utility.yul\":11501:11525   */\n      tag_291\n        /* \"#utility.yul\":11519:11524   */\n      dup5\n        /* \"#utility.yul\":11501:11525   */\n      tag_118\n      jump\t// in\n    tag_291:\n        /* \"#utility.yul\":11492:11526   */\n      tag_138\n      jump\t// in\n    tag_290:\n        /* \"#utility.yul\":11474:11527   */\n      tag_118\n      jump\t// in\n    tag_289:\n        /* \"#utility.yul\":11461:11527   */\n      swap1\n      pop\n        /* \"#utility.yul\":11391:11533   */\n      swap2\n      swap1\n      pop\n      jump\t// out\n        /* \"#utility.yul\":11539:11614   */\n    tag_140:\n        /* \"#utility.yul\":11582:11585   */\n      0x00\n        /* \"#utility.yul\":11603:11608   */\n      dup2\n        /* \"#utility.yul\":11596:11608   */\n      swap1\n      pop\n        /* \"#utility.yul\":11539:11614   */\n      swap2\n      swap1\n      pop\n      jump\t// out\n        /* \"#utility.yul\":11620:11889   */\n    tag_141:\n        /* \"#utility.yul\":11730:11769   */\n      tag_294\n        /* \"#utility.yul\":11761:11768   */\n      dup4\n        /* \"#utility.yul\":11730:11769   */\n      tag_139\n      jump\t// in\n    tag_294:\n        /* \"#utility.yul\":11791:11882   */\n      tag_295\n        /* \"#utility.yul\":11840:11881   */\n      tag_296\n        /* \"#utility.yul\":11864:11880   */\n      dup3\n        /* \"#utility.yul\":11840:11881   */\n      tag_140\n      jump\t// in\n    tag_296:\n        /* \"#utility.yul\":11832:11838   */\n      dup5\n        /* \"#utility.yul\":11825:11829   */\n      dup5\n        /* \"#utility.yul\":11819:11830   */\n      sload\n        /* \"#utility.yul\":11791:11882   */\n      tag_137\n      jump\t// in\n    tag_295:\n        /* \"#utility.yul\":11785:11789   */\n      dup3\n        /* \"#utility.yul\":11778:11883   */\n      sstore\n        /* \"#utility.yul\":11696:11889   */\n      pop\n        /* \"#utility.yul\":11620:11889   */\n      pop\n      pop\n      pop\n      jump\t// out\n        /* \"#utility.yul\":11895:11968   */\n    tag_142:\n        /* \"#utility.yul\":11940:11943   */\n      0x00\n        /* \"#utility.yul\":11895:11968   */\n      swap1\n      jump\t// out\n        /* \"#utility.yul\":11974:12163   */\n    tag_143:\n        /* \"#utility.yul\":12051:12083   */\n      tag_299\n      tag_142\n      jump\t// in\n    tag_299:\n        /* \"#utility.yul\":12092:12157   */\n      tag_300\n        /* \"#utility.yul\":12150:12156   */\n      dup2\n        /* \"#utility.yul\":12142:12148   */\n      dup5\n        /* \"#utility.yul\":12136:12140   */\n      dup5\n        /* \"#utility.yul\":12092:12157   */\n      tag_141\n      jump\t// in\n    tag_300:\n        /* \"#utility.yul\":12027:12163   */\n      pop\n        /* \"#utility.yul\":11974:12163   */\n      pop\n      pop\n      jump\t// out\n        /* \"#utility.yul\":12169:12355   */\n    tag_144:\n        /* \"#utility.yul\":12229:12349   */\n    tag_302:\n        /* \"#utility.yul\":12246:12249   */\n      dup2\n        /* \"#utility.yul\":12239:12244   */\n      dup2\n        /* \"#utility.yul\":12236:12250   */\n      lt\n        /* \"#utility.yul\":12229:12349   */\n      iszero\n      tag_304\n      jumpi\n        /* \"#utility.yul\":12300:12339   */\n      tag_305\n        /* \"#utility.yul\":12337:12338   */\n      0x00\n        /* \"#utility.yul\":12330:12335   */\n      dup3\n        /* \"#utility.yul\":12300:12339   */\n      tag_143\n      jump\t// in\n    tag_305:\n        /* \"#utility.yul\":12273:12274   */\n      0x01\n        /* \"#utility.yul\":12266:12271   */\n      dup2\n        /* \"#utility.yul\":12262:12275   */\n      add\n        /* \"#utility.yul\":12253:12275   */\n      swap1\n      pop\n        /* \"#utility.yul\":12229:12349   */\n      jump(tag_302)\n    tag_304:\n        /* \"#utility.yul\":12169:12355   */\n      pop\n      pop\n      jump\t// out\n        /* \"#utility.yul\":12361:12904   */\n    tag_145:\n        /* \"#utility.yul\":12462:12464   */\n      0x1f\n        /* \"#utility.yul\":12457:12460   */\n      dup3\n        /* \"#utility.yul\":12454:12465   */\n      gt\n        /* \"#utility.yul\":12451:12897   */\n      iszero\n      tag_307\n      jumpi\n        /* \"#utility.yul\":12496:12534   */\n      tag_308\n        /* \"#utility.yul\":12528:12533   */\n      dup2\n        /* \"#utility.yul\":12496:12534   */\n      tag_134\n      jump\t// in\n    tag_308:\n        /* \"#utility.yul\":12580:12609   */\n      tag_309\n        /* \"#utility.yul\":12598:12608   */\n      dup5\n        /* \"#utility.yul\":12580:12609   */\n      tag_135\n      jump\t// in\n    tag_309:\n        /* \"#utility.yul\":12570:12578   */\n      dup2\n        /* \"#utility.yul\":12566:12610   */\n      add\n        /* \"#utility.yul\":12763:12765   */\n      0x20\n        /* \"#utility.yul\":12751:12761   */\n      dup6\n        /* \"#utility.yul\":12748:12766   */\n      lt\n        /* \"#utility.yul\":12745:12794   */\n      iszero\n      tag_310\n      jumpi\n        /* \"#utility.yul\":12784:12792   */\n      dup2\n        /* \"#utility.yul\":12769:12792   */\n      swap1\n      pop\n        /* \"#utility.yul\":12745:12794   */\n    tag_310:\n        /* \"#utility.yul\":12807:12887   */\n      tag_311\n        /* \"#utility.yul\":12863:12885   */\n      tag_312\n        /* \"#utility.yul\":12881:12884   */\n      dup6\n        /* \"#utility.yul\":12863:12885   */\n      tag_135\n      jump\t// in\n    tag_312:\n        /* \"#utility.yul\":12853:12861   */\n      dup4\n        /* \"#utility.yul\":12849:12886   */\n      add\n        /* \"#utility.yul\":12836:12847   */\n      dup3\n        /* \"#utility.yul\":12807:12887   */\n      tag_144\n      jump\t// in\n    tag_311:\n        /* \"#utility.yul\":12466:12897   */\n      pop\n      pop\n        /* \"#utility.yul\":12451:12897   */\n    tag_307:\n        /* \"#utility.yul\":12361:12904   */\n      pop\n      pop\n      pop\n      jump\t// out\n        /* \"#utility.yul\":12910:13027   */\n    tag_146:\n        /* \"#utility.yul\":12964:12972   */\n      0x00\n        /* \"#utility.yul\":13014:13019   */\n      dup3\n        /* \"#utility.yul\":13008:13012   */\n      dup3\n        /* \"#utility.yul\":13004:13020   */\n      shr\n        /* \"#utility.yul\":12983:13020   */\n      swap1\n      pop\n        /* \"#utility.yul\":12910:13027   */\n      swap3\n      swap2\n      pop\n      pop\n      jump\t// out\n        /* \"#utility.yul\":13033:13202   */\n    tag_147:\n        /* \"#utility.yul\":13077:13083   */\n      0x00\n        /* \"#utility.yul\":13110:13161   */\n      tag_315\n        /* \"#utility.yul\":13158:13159   */\n      0x00\n        /* \"#utility.yul\":13154:13160   */\n      not\n        /* \"#utility.yul\":13146:13151   */\n      dup5\n        /* \"#utility.yul\":13143:13144   */\n      0x08\n        /* \"#utility.yul\":13139:13152   */\n      mul\n        /* \"#utility.yul\":13110:13161   */\n      tag_146\n      jump\t// in\n    tag_315:\n        /* \"#utility.yul\":13106:13162   */\n      not\n        /* \"#utility.yul\":13191:13195   */\n      dup1\n        /* \"#utility.yul\":13185:13189   */\n      dup4\n        /* \"#utility.yul\":13181:13196   */\n      and\n        /* \"#utility.yul\":13171:13196   */\n      swap2\n      pop\n        /* \"#utility.yul\":13084:13202   */\n      pop\n        /* \"#utility.yul\":13033:13202   */\n      swap3\n      swap2\n      pop\n      pop\n      jump\t// out\n        /* \"#utility.yul\":13207:13502   */\n    tag_148:\n        /* \"#utility.yul\":13283:13287   */\n      0x00\n        /* \"#utility.yul\":13429:13458   */\n      tag_317\n        /* \"#utility.yul\":13454:13457   */\n      dup4\n        /* \"#utility.yul\":13448:13452   */\n      dup4\n        /* \"#utility.yul\":13429:13458   */\n      tag_147\n      jump\t// in\n    tag_317:\n        /* \"#utility.yul\":13421:13458   */\n      swap2\n      pop\n        /* \"#utility.yul\":13491:13494   */\n      dup3\n        /* \"#utility.yul\":13488:13489   */\n      0x02\n        /* \"#utility.yul\":13484:13495   */\n      mul\n        /* \"#utility.yul\":13478:13482   */\n      dup3\n        /* \"#utility.yul\":13475:13496   */\n      or\n        /* \"#utility.yul\":13467:13496   */\n      swap1\n      pop\n        /* \"#utility.yul\":13207:13502   */\n      swap3\n      swap2\n      pop\n      pop\n      jump\t// out\n        /* \"#utility.yul\":13507:14902   */\n    tag_52:\n        /* \"#utility.yul\":13624:13661   */\n      tag_319\n        /* \"#utility.yul\":13657:13660   */\n      dup3\n        /* \"#utility.yul\":13624:13661   */\n      tag_132\n      jump\t// in\n    tag_319:\n        /* \"#utility.yul\":13726:13744   */\n      0xffffffffffffffff\n        /* \"#utility.yul\":13718:13724   */\n      dup2\n        /* \"#utility.yul\":13715:13745   */\n      gt\n        /* \"#utility.yul\":13712:13768   */\n      iszero\n      tag_320\n      jumpi\n        /* \"#utility.yul\":13748:13766   */\n      tag_321\n      tag_109\n      jump\t// in\n    tag_321:\n        /* \"#utility.yul\":13712:13768   */\n    tag_320:\n        /* \"#utility.yul\":13792:13830   */\n      tag_322\n        /* \"#utility.yul\":13824:13828   */\n      dup3\n        /* \"#utility.yul\":13818:13829   */\n      sload\n        /* \"#utility.yul\":13792:13830   */\n      tag_77\n      jump\t// in\n    tag_322:\n        /* \"#utility.yul\":13877:13944   */\n      tag_323\n        /* \"#utility.yul\":13937:13943   */\n      dup3\n        /* \"#utility.yul\":13929:13935   */\n      dup3\n        /* \"#utility.yul\":13923:13927   */\n      dup6\n        /* \"#utility.yul\":13877:13944   */\n      tag_145\n      jump\t// in\n    tag_323:\n        /* \"#utility.yul\":13971:13972   */\n      0x00\n        /* \"#utility.yul\":13995:13999   */\n      0x20\n        /* \"#utility.yul\":13982:13999   */\n      swap1\n      pop\n        /* \"#utility.yul\":14027:14029   */\n      0x1f\n        /* \"#utility.yul\":14019:14025   */\n      dup4\n        /* \"#utility.yul\":14016:14030   */\n      gt\n        /* \"#utility.yul\":14044:14045   */\n      0x01\n        /* \"#utility.yul\":14039:14657   */\n      dup2\n      eq\n      tag_325\n      jumpi\n        /* \"#utility.yul\":14701:14702   */\n      0x00\n        /* \"#utility.yul\":14718:14724   */\n      dup5\n        /* \"#utility.yul\":14715:14792   */\n      iszero\n      tag_326\n      jumpi\n        /* \"#utility.yul\":14767:14776   */\n      dup3\n        /* \"#utility.yul\":14762:14765   */\n      dup8\n        /* \"#utility.yul\":14758:14777   */\n      add\n        /* \"#utility.yul\":14752:14778   */\n      mload\n        /* \"#utility.yul\":14743:14778   */\n      swap1\n      pop\n        /* \"#utility.yul\":14715:14792   */\n    tag_326:\n        /* \"#utility.yul\":14818:14885   */\n      tag_327\n        /* \"#utility.yul\":14878:14884   */\n      dup6\n        /* \"#utility.yul\":14871:14876   */\n      dup3\n        /* \"#utility.yul\":14818:14885   */\n      tag_148\n      jump\t// in\n    tag_327:\n        /* \"#utility.yul\":14812:14816   */\n      dup7\n        /* \"#utility.yul\":14805:14886   */\n      sstore\n        /* \"#utility.yul\":14674:14896   */\n      pop\n        /* \"#utility.yul\":14009:14896   */\n      jump(tag_324)\n        /* \"#utility.yul\":14039:14657   */\n    tag_325:\n        /* \"#utility.yul\":14091:14095   */\n      0x1f\n        /* \"#utility.yul\":14087:14096   */\n      not\n        /* \"#utility.yul\":14079:14085   */\n      dup5\n        /* \"#utility.yul\":14075:14097   */\n      and\n        /* \"#utility.yul\":14125:14162   */\n      tag_328\n        /* \"#utility.yul\":14157:14161   */\n      dup7\n        /* \"#utility.yul\":14125:14162   */\n      tag_134\n      jump\t// in\n    tag_328:\n        /* \"#utility.yul\":14184:14185   */\n      0x00\n        /* \"#utility.yul\":14198:14406   */\n    tag_329:\n        /* \"#utility.yul\":14212:14219   */\n      dup3\n        /* \"#utility.yul\":14209:14210   */\n      dup2\n        /* \"#utility.yul\":14206:14220   */\n      lt\n        /* \"#utility.yul\":14198:14406   */\n      iszero\n      tag_331\n      jumpi\n        /* \"#utility.yul\":14291:14300   */\n      dup5\n        /* \"#utility.yul\":14286:14289   */\n      dup10\n        /* \"#utility.yul\":14282:14301   */\n      add\n        /* \"#utility.yul\":14276:14302   */\n      mload\n        /* \"#utility.yul\":14268:14274   */\n      dup3\n        /* \"#utility.yul\":14261:14303   */\n      sstore\n        /* \"#utility.yul\":14342:14343   */\n      0x01\n        /* \"#utility.yul\":14334:14340   */\n      dup3\n        /* \"#utility.yul\":14330:14344   */\n      add\n        /* \"#utility.yul\":14320:14344   */\n      swap2\n      pop\n        /* \"#utility.yul\":14389:14391   */\n      0x20\n        /* \"#utility.yul\":14378:14387   */\n      dup6\n        /* \"#utility.yul\":14374:14392   */\n      add\n        /* \"#utility.yul\":14361:14392   */\n      swap5\n      pop\n        /* \"#utility.yul\":14235:14239   */\n      0x20\n        /* \"#utility.yul\":14232:14233   */\n      dup2\n        /* \"#utility.yul\":14228:14240   */\n      add\n        /* \"#utility.yul\":14223:14240   */\n      swap1\n      pop\n        /* \"#utility.yul\":14198:14406   */\n      jump(tag_329)\n    tag_331:\n        /* \"#utility.yul\":14434:14440   */\n      dup7\n        /* \"#utility.yul\":14425:14432   */\n      dup4\n        /* \"#utility.yul\":14422:14441   */\n      lt\n        /* \"#utility.yul\":14419:14598   */\n      iszero\n      tag_332\n      jumpi\n        /* \"#utility.yul\":14492:14501   */\n      dup5\n        /* \"#utility.yul\":14487:14490   */\n      dup10\n        /* \"#utility.yul\":14483:14502   */\n      add\n        /* \"#utility.yul\":14477:14503   */\n      mload\n        /* \"#utility.yul\":14535:14583   */\n      tag_333\n        /* \"#utility.yul\":14577:14581   */\n      0x1f\n        /* \"#utility.yul\":14569:14575   */\n      dup10\n        /* \"#utility.yul\":14565:14582   */\n      and\n        /* \"#utility.yul\":14554:14563   */\n      dup3\n        /* \"#utility.yul\":14535:14583   */\n      tag_147\n      jump\t// in\n    tag_333:\n        /* \"#utility.yul\":14527:14533   */\n      dup4\n        /* \"#utility.yul\":14520:14584   */\n      sstore\n        /* \"#utility.yul\":14442:14598   */\n      pop\n        /* \"#utility.yul\":14419:14598   */\n    tag_332:\n        /* \"#utility.yul\":14644:14645   */\n      0x01\n        /* \"#utility.yul\":14640:14641   */\n      0x02\n        /* \"#utility.yul\":14632:14638   */\n      dup9\n        /* \"#utility.yul\":14628:14642   */\n      mul\n        /* \"#utility.yul\":14624:14646   */\n      add\n        /* \"#utility.yul\":14618:14622   */\n      dup9\n        /* \"#utility.yul\":14611:14647   */\n      sstore\n        /* \"#utility.yul\":14046:14657   */\n      pop\n      pop\n      pop\n        /* \"#utility.yul\":14009:14896   */\n    tag_324:\n      pop\n        /* \"#utility.yul\":13599:14902   */\n      pop\n      pop\n      pop\n        /* \"#utility.yul\":13507:14902   */\n      pop\n      pop\n      jump\t// out\n        /* \"#utility.yul\":14908:15077   */\n    tag_149:\n        /* \"#utility.yul\":14992:15003   */\n      0x00\n        /* \"#utility.yul\":15026:15032   */\n      dup3\n        /* \"#utility.yul\":15021:15024   */\n      dup3\n        /* \"#utility.yul\":15014:15033   */\n      mstore\n        /* \"#utility.yul\":15066:15070   */\n      0x20\n        /* \"#utility.yul\":15061:15064   */\n      dup3\n        /* \"#utility.yul\":15057:15071   */\n      add\n        /* \"#utility.yul\":15042:15071   */\n      swap1\n      pop\n        /* \"#utility.yul\":14908:15077   */\n      swap3\n      swap2\n      pop\n      pop\n      jump\t// out\n        /* \"#utility.yul\":15083:15254   */\n    tag_150:\n        /* \"#utility.yul\":15223:15246   */\n      0x726571756573742069732070656e64696e672e2e2e0000000000000000000000\n        /* \"#utility.yul\":15219:15220   */\n      0x00\n        /* \"#utility.yul\":15211:15217   */\n      dup3\n        /* \"#utility.yul\":15207:15221   */\n      add\n        /* \"#utility.yul\":15200:15247   */\n      mstore\n        /* \"#utility.yul\":15083:15254   */\n      pop\n      jump\t// out\n        /* \"#utility.yul\":15260:15626   */\n    tag_151:\n        /* \"#utility.yul\":15402:15405   */\n      0x00\n        /* \"#utility.yul\":15423:15490   */\n      tag_337\n        /* \"#utility.yul\":15487:15489   */\n      0x15\n        /* \"#utility.yul\":15482:15485   */\n      dup4\n        /* \"#utility.yul\":15423:15490   */\n      tag_149\n      jump\t// in\n    tag_337:\n        /* \"#utility.yul\":15416:15490   */\n      swap2\n      pop\n        /* \"#utility.yul\":15499:15592   */\n      tag_338\n        /* \"#utility.yul\":15588:15591   */\n      dup3\n        /* \"#utility.yul\":15499:15592   */\n      tag_150\n      jump\t// in\n    tag_338:\n        /* \"#utility.yul\":15617:15619   */\n      0x20\n        /* \"#utility.yul\":15612:15615   */\n      dup3\n        /* \"#utility.yul\":15608:15620   */\n      add\n        /* \"#utility.yul\":15601:15620   */\n      swap1\n      pop\n        /* \"#utility.yul\":15260:15626   */\n      swap2\n      swap1\n      pop\n      jump\t// out\n        /* \"#utility.yul\":15632:16051   */\n    tag_56:\n        /* \"#utility.yul\":15798:15802   */\n      0x00\n        /* \"#utility.yul\":15836:15838   */\n      0x20\n        /* \"#utility.yul\":15825:15834   */\n      dup3\n        /* \"#utility.yul\":15821:15839   */\n      add\n        /* \"#utility.yul\":15813:15839   */\n      swap1\n      pop\n        /* \"#utility.yul\":15885:15894   */\n      dup2\n        /* \"#utility.yul\":15879:15883   */\n      dup2\n        /* \"#utility.yul\":15875:15895   */\n      sub\n        /* \"#utility.yul\":15871:15872   */\n      0x00\n        /* \"#utility.yul\":15860:15869   */\n      dup4\n        /* \"#utility.yul\":15856:15873   */\n      add\n        /* \"#utility.yul\":15849:15896   */\n      mstore\n        /* \"#utility.yul\":15913:16044   */\n      tag_340\n        /* \"#utility.yul\":16039:16043   */\n      dup2\n        /* \"#utility.yul\":15913:16044   */\n      tag_151\n      jump\t// in\n    tag_340:\n        /* \"#utility.yul\":15905:16044   */\n      swap1\n      pop\n        /* \"#utility.yul\":15632:16051   */\n      swap2\n      swap1\n      pop\n      jump\t// out\n        /* \"#utility.yul\":16057:16282   */\n    tag_152:\n        /* \"#utility.yul\":16197:16231   */\n      0x4f776e61626c653a206e6577206f776e657220697320746865207a65726f2061\n        /* \"#utility.yul\":16193:16194   */\n      0x00\n        /* \"#utility.yul\":16185:16191   */\n      dup3\n        /* \"#utility.yul\":16181:16195   */\n      add\n        /* \"#utility.yul\":16174:16232   */\n      mstore\n        /* \"#utility.yul\":16266:16274   */\n      0x6464726573730000000000000000000000000000000000000000000000000000\n        /* \"#utility.yul\":16261:16263   */\n      0x20\n        /* \"#utility.yul\":16253:16259   */\n      dup3\n        /* \"#utility.yul\":16249:16264   */\n      add\n        /* \"#utility.yul\":16242:16275   */\n      mstore\n        /* \"#utility.yul\":16057:16282   */\n      pop\n      jump\t// out\n        /* \"#utility.yul\":16288:16654   */\n    tag_153:\n        /* \"#utility.yul\":16430:16433   */\n      0x00\n        /* \"#utility.yul\":16451:16518   */\n      tag_343\n        /* \"#utility.yul\":16515:16517   */\n      0x26\n        /* \"#utility.yul\":16510:16513   */\n      dup4\n        /* \"#utility.yul\":16451:16518   */\n      tag_149\n      jump\t// in\n    tag_343:\n        /* \"#utility.yul\":16444:16518   */\n      swap2\n      pop\n        /* \"#utility.yul\":16527:16620   */\n      tag_344\n        /* \"#utility.yul\":16616:16619   */\n      dup3\n        /* \"#utility.yul\":16527:16620   */\n      tag_152\n      jump\t// in\n    tag_344:\n        /* \"#utility.yul\":16645:16647   */\n      0x40\n        /* \"#utility.yul\":16640:16643   */\n      dup3\n        /* \"#utility.yul\":16636:16648   */\n      add\n        /* \"#utility.yul\":16629:16648   */\n      swap1\n      pop\n        /* \"#utility.yul\":16288:16654   */\n      swap2\n      swap1\n      pop\n      jump\t// out\n        /* \"#utility.yul\":16660:17079   */\n    tag_68:\n        /* \"#utility.yul\":16826:16830   */\n      0x00\n        /* \"#utility.yul\":16864:16866   */\n      0x20\n        /* \"#utility.yul\":16853:16862   */\n      dup3\n        /* \"#utility.yul\":16849:16867   */\n      add\n        /* \"#utility.yul\":16841:16867   */\n      swap1\n      pop\n        /* \"#utility.yul\":16913:16922   */\n      dup2\n        /* \"#utility.yul\":16907:16911   */\n      dup2\n        /* \"#utility.yul\":16903:16923   */\n      sub\n        /* \"#utility.yul\":16899:16900   */\n      0x00\n        /* \"#utility.yul\":16888:16897   */\n      dup4\n        /* \"#utility.yul\":16884:16901   */\n      add\n        /* \"#utility.yul\":16877:16924   */\n      mstore\n        /* \"#utility.yul\":16941:17072   */\n      tag_346\n        /* \"#utility.yul\":17067:17071   */\n      dup2\n        /* \"#utility.yul\":16941:17072   */\n      tag_153\n      jump\t// in\n    tag_346:\n        /* \"#utility.yul\":16933:17072   */\n      swap1\n      pop\n        /* \"#utility.yul\":16660:17079   */\n      swap2\n      swap1\n      pop\n      jump\t// out\n        /* \"#utility.yul\":17085:17279   */\n    tag_75:\n        /* \"#utility.yul\":17125:17129   */\n      0x00\n        /* \"#utility.yul\":17145:17165   */\n      tag_348\n        /* \"#utility.yul\":17163:17164   */\n      dup3\n        /* \"#utility.yul\":17145:17165   */\n      tag_118\n      jump\t// in\n    tag_348:\n        /* \"#utility.yul\":17140:17165   */\n      swap2\n      pop\n        /* \"#utility.yul\":17179:17199   */\n      tag_349\n        /* \"#utility.yul\":17197:17198   */\n      dup4\n        /* \"#utility.yul\":17179:17199   */\n      tag_118\n      jump\t// in\n    tag_349:\n        /* \"#utility.yul\":17174:17199   */\n      swap3\n      pop\n        /* \"#utility.yul\":17223:17224   */\n      dup3\n        /* \"#utility.yul\":17220:17221   */\n      dup3\n        /* \"#utility.yul\":17216:17225   */\n      sub\n        /* \"#utility.yul\":17208:17225   */\n      swap1\n      pop\n        /* \"#utility.yul\":17247:17248   */\n      dup2\n        /* \"#utility.yul\":17241:17245   */\n      dup2\n        /* \"#utility.yul\":17238:17249   */\n      gt\n        /* \"#utility.yul\":17235:17272   */\n      iszero\n      tag_350\n      jumpi\n        /* \"#utility.yul\":17252:17270   */\n      tag_351\n      tag_131\n      jump\t// in\n    tag_351:\n        /* \"#utility.yul\":17235:17272   */\n    tag_350:\n        /* \"#utility.yul\":17085:17279   */\n      swap3\n      swap2\n      pop\n      pop\n      jump\t// out\n        /* \"#utility.yul\":17285:17695   */\n    tag_83:\n        /* \"#utility.yul\":17325:17332   */\n      0x00\n        /* \"#utility.yul\":17348:17368   */\n      tag_353\n        /* \"#utility.yul\":17366:17367   */\n      dup3\n        /* \"#utility.yul\":17348:17368   */\n      tag_118\n      jump\t// in\n    tag_353:\n        /* \"#utility.yul\":17343:17368   */\n      swap2\n      pop\n        /* \"#utility.yul\":17382:17402   */\n      tag_354\n        /* \"#utility.yul\":17400:17401   */\n      dup4\n        /* \"#utility.yul\":17382:17402   */\n      tag_118\n      jump\t// in\n    tag_354:\n        /* \"#utility.yul\":17377:17402   */\n      swap3\n      pop\n        /* \"#utility.yul\":17437:17438   */\n      dup3\n        /* \"#utility.yul\":17434:17435   */\n      dup3\n        /* \"#utility.yul\":17430:17439   */\n      mul\n        /* \"#utility.yul\":17459:17489   */\n      tag_355\n        /* \"#utility.yul\":17477:17488   */\n      dup2\n        /* \"#utility.yul\":17459:17489   */\n      tag_118\n      jump\t// in\n    tag_355:\n        /* \"#utility.yul\":17448:17489   */\n      swap2\n      pop\n        /* \"#utility.yul\":17638:17639   */\n      dup3\n        /* \"#utility.yul\":17629:17636   */\n      dup3\n        /* \"#utility.yul\":17625:17640   */\n      div\n        /* \"#utility.yul\":17622:17623   */\n      dup5\n        /* \"#utility.yul\":17619:17641   */\n      eq\n        /* \"#utility.yul\":17599:17600   */\n      dup4\n        /* \"#utility.yul\":17592:17601   */\n      iszero\n        /* \"#utility.yul\":17572:17655   */\n      or\n        /* \"#utility.yul\":17549:17688   */\n      tag_356\n      jumpi\n        /* \"#utility.yul\":17668:17686   */\n      tag_357\n      tag_131\n      jump\t// in\n    tag_357:\n        /* \"#utility.yul\":17549:17688   */\n    tag_356:\n        /* \"#utility.yul\":17333:17695   */\n      pop\n        /* \"#utility.yul\":17285:17695   */\n      swap3\n      swap2\n      pop\n      pop\n      jump\t// out\n        /* \"#utility.yul\":17701:17881   */\n    tag_154:\n        /* \"#utility.yul\":17749:17826   */\n      0x4e487b7100000000000000000000000000000000000000000000000000000000\n        /* \"#utility.yul\":17746:17747   */\n      0x00\n        /* \"#utility.yul\":17739:17827   */\n      mstore\n        /* \"#utility.yul\":17846:17850   */\n      0x12\n        /* \"#utility.yul\":17843:17844   */\n      0x04\n        /* \"#utility.yul\":17836:17851   */\n      mstore\n        /* \"#utility.yul\":17870:17874   */\n      0x24\n        /* \"#utility.yul\":17867:17868   */\n      0x00\n        /* \"#utility.yul\":17860:17875   */\n      revert\n        /* \"#utility.yul\":17887:18072   */\n    tag_86:\n        /* \"#utility.yul\":17927:17928   */\n      0x00\n        /* \"#utility.yul\":17944:17964   */\n      tag_360\n        /* \"#utility.yul\":17962:17963   */\n      dup3\n        /* \"#utility.yul\":17944:17964   */\n      tag_118\n      jump\t// in\n    tag_360:\n        /* \"#utility.yul\":17939:17964   */\n      swap2\n      pop\n        /* \"#utility.yul\":17978:17998   */\n      tag_361\n        /* \"#utility.yul\":17996:17997   */\n      dup4\n        /* \"#utility.yul\":17978:17998   */\n      tag_118\n      jump\t// in\n    tag_361:\n        /* \"#utility.yul\":17973:17998   */\n      swap3\n      pop\n        /* \"#utility.yul\":18017:18018   */\n      dup3\n        /* \"#utility.yul\":18007:18042   */\n      tag_362\n      jumpi\n        /* \"#utility.yul\":18022:18040   */\n      tag_363\n      tag_154\n      jump\t// in\n    tag_363:\n        /* \"#utility.yul\":18007:18042   */\n    tag_362:\n        /* \"#utility.yul\":18064:18065   */\n      dup3\n        /* \"#utility.yul\":18061:18062   */\n      dup3\n        /* \"#utility.yul\":18057:18066   */\n      div\n        /* \"#utility.yul\":18052:18066   */\n      swap1\n      pop\n        /* \"#utility.yul\":17887:18072   */\n      swap3\n      swap2\n      pop\n      pop\n      jump\t// out\n        /* \"#utility.yul\":18078:18260   */\n    tag_155:\n        /* \"#utility.yul\":18218:18252   */\n      0x4f776e61626c653a2063616c6c6572206973206e6f7420746865206f776e6572\n        /* \"#utility.yul\":18214:18215   */\n      0x00\n        /* \"#utility.yul\":18206:18212   */\n      dup3\n        /* \"#utility.yul\":18202:18216   */\n      add\n        /* \"#utility.yul\":18195:18253   */\n      mstore\n        /* \"#utility.yul\":18078:18260   */\n      pop\n      jump\t// out\n        /* \"#utility.yul\":18266:18632   */\n    tag_156:\n        /* \"#utility.yul\":18408:18411   */\n      0x00\n        /* \"#utility.yul\":18429:18496   */\n      tag_366\n        /* \"#utility.yul\":18493:18495   */\n      0x20\n        /* \"#utility.yul\":18488:18491   */\n      dup4\n        /* \"#utility.yul\":18429:18496   */\n      tag_149\n      jump\t// in\n    tag_366:\n        /* \"#utility.yul\":18422:18496   */\n      swap2\n      pop\n        /* \"#utility.yul\":18505:18598   */\n      tag_367\n        /* \"#utility.yul\":18594:18597   */\n      dup3\n        /* \"#utility.yul\":18505:18598   */\n      tag_155\n      jump\t// in\n    tag_367:\n        /* \"#utility.yul\":18623:18625   */\n      0x20\n        /* \"#utility.yul\":18618:18621   */\n      dup3\n        /* \"#utility.yul\":18614:18626   */\n      add\n        /* \"#utility.yul\":18607:18626   */\n      swap1\n      pop\n        /* \"#utility.yul\":18266:18632   */\n      swap2\n      swap1\n      pop\n      jump\t// out\n        /* \"#utility.yul\":18638:19057   */\n    tag_96:\n        /* \"#utility.yul\":18804:18808   */\n      0x00\n        /* \"#utility.yul\":18842:18844   */\n      0x20\n        /* \"#utility.yul\":18831:18840   */\n      dup3\n        /* \"#utility.yul\":18827:18845   */\n      add\n        /* \"#utility.yul\":18819:18845   */\n      swap1\n      pop\n        /* \"#utility.yul\":18891:18900   */\n      dup2\n        /* \"#utility.yul\":18885:18889   */\n      dup2\n        /* \"#utility.yul\":18881:18901   */\n      sub\n        /* \"#utility.yul\":18877:18878   */\n      0x00\n        /* \"#utility.yul\":18866:18875   */\n      dup4\n        /* \"#utility.yul\":18862:18879   */\n      add\n        /* \"#utility.yul\":18855:18902   */\n      mstore\n        /* \"#utility.yul\":18919:19050   */\n      tag_369\n        /* \"#utility.yul\":19045:19049   */\n      dup2\n        /* \"#utility.yul\":18919:19050   */\n      tag_156\n      jump\t// in\n    tag_369:\n        /* \"#utility.yul\":18911:19050   */\n      swap1\n      pop\n        /* \"#utility.yul\":18638:19057   */\n      swap2\n      swap1\n      pop\n      jump\t// out\n\n    auxdata: 0xa264697066735822122033ca83edc4f28fe6c038fac858e2991a5d2d51f3cb742997c3ddfb891d74c86864736f6c63430008110033\n}\n",
				"bytecode": {
					"linkReferences": {},
					"object": "6080604052620f424060025534801561001757600080fd5b5061003461002961004160201b60201c565b61004960201b60201c565b600060018190555061010d565b600033905090565b60008060009054906101000a900473ffffffffffffffffffffffffffffffffffffffff169050816000806101000a81548173ffffffffffffffffffffffffffffffffffffffff021916908373ffffffffffffffffffffffffffffffffffffffff1602179055508173ffffffffffffffffffffffffffffffffffffffff168173ffffffffffffffffffffffffffffffffffffffff167f8be0079c531659141344cd1fd0a4f28419497f9722a3daafe3b4186f6b6457e060405160405180910390a35050565b6114378061011c6000396000f3fe608060405234801561001057600080fd5b506004361061007d5760003560e01c8063715018a61161005b578063715018a6146100fe5780638da5cb5b14610108578063f2fde38b14610126578063f40a7edd146101425761007d565b80631cff79cd1461008257806346267665146100b257806350bc4a98146100ce575b600080fd5b61009c60048036038101906100979190610b0b565b61015e565b6040516100a99190610b82565b60405180910390f35b6100cc60048036038101906100c79190610b9d565b61020f565b005b6100e860048036038101906100e39190610be6565b61038d565b6040516100f59190610c2c565b60405180910390f35b610106610455565b005b610110610469565b60405161011d9190610c56565b60405180910390f35b610140600480360381019061013b9190610be6565b610492565b005b61015c60048036038101906101579190610b9d565b610515565b005b6000610168610809565b61017182610515565b6000600460008573ffffffffffffffffffffffffffffffffffffffff1673ffffffffffffffffffffffffffffffffffffffff1681526020019081526020016000205490506005600082815260200190815260200160002060006101000a81549060ff021916905560016007600083815260200190815260200160002060006101000a81548160ff021916908315150217905550600191505092915050565b610217610809565b60008180602001905181019061022d9190610e1b565b90506000600154905060018060008282546102489190610e93565b92505081905550816003600083815260200190815260200160002060008201518160000160006101000a81548173ffffffffffffffffffffffffffffffffffffffff021916908373ffffffffffffffffffffffffffffffffffffffff16021790555060208201518160010190816102bf91906110de565b5060408201518160020160006101000a81548173ffffffffffffffffffffffffffffffffffffffff021916908373ffffffffffffffffffffffffffffffffffffffff160217905550606082015181600301559050508060046000846000015173ffffffffffffffffffffffffffffffffffffffff1673ffffffffffffffffffffffffffffffffffffffff1681526020019081526020016000208190555060016005600083815260200190815260200160002060006101000a81548160ff021916908315150217905550505050565b600080600460008473ffffffffffffffffffffffffffffffffffffffff1673ffffffffffffffffffffffffffffffffffffffff168152602001908152602001600020549050600115156007600083815260200190815260200160002060009054906101000a900460ff16151514610439576040517f08c379a00000000000000000000000000000000000000000000000000000000081526004016104309061120d565b60405180910390fd5b6008600082815260200190815260200160002054915050919050565b61045d610809565b6104676000610887565b565b60008060009054906101000a900473ffffffffffffffffffffffffffffffffffffffff16905090565b61049a610809565b600073ffffffffffffffffffffffffffffffffffffffff168173ffffffffffffffffffffffffffffffffffffffff1603610509576040517f08c379a00000000000000000000000000000000000000000000000000000000081526004016105009061129f565b60405180910390fd5b61051281610887565b50565b61051d610809565b6105268161020f565b6000600360006001805461053a91906112bf565b81526020019081526020016000206040518060800160405290816000820160009054906101000a900473ffffffffffffffffffffffffffffffffffffffff1673ffffffffffffffffffffffffffffffffffffffff1673ffffffffffffffffffffffffffffffffffffffff1681526020016001820180546105b990610f01565b80601f01602080910402602001604051908101604052809291908181526020018280546105e590610f01565b80156106325780601f1061060757610100808354040283529160200191610632565b820191906000526020600020905b81548152906001019060200180831161061557829003601f168201915b505050505081526020016002820160009054906101000a900473ffffffffffffffffffffffffffffffffffffffff1673ffffffffffffffffffffffffffffffffffffffff1673ffffffffffffffffffffffffffffffffffffffff1681526020016003820154815250509050600081600001519050600060046000846000015173ffffffffffffffffffffffffffffffffffffffff1673ffffffffffffffffffffffffffffffffffffffff168152602001908152602001600020549050600060086000838152602001908152602001600020819055506000600254600960008573ffffffffffffffffffffffffffffffffffffffff1673ffffffffffffffffffffffffffffffffffffffff1681526020019081526020016000205461075691906112f3565b90506000600254600a60008673ffffffffffffffffffffffffffffffffffffffff1673ffffffffffffffffffffffffffffffffffffffff168152602001908152602001600020546107a791906112f3565b9050600060025486606001516107bd9190611364565b9050600060025483856107d091906112f3565b836107db91906112f3565b6107e59190611364565b90508060086000878152602001908152602001600020819055505050505050505050565b61081161094b565b73ffffffffffffffffffffffffffffffffffffffff1661082f610469565b73ffffffffffffffffffffffffffffffffffffffff1614610885576040517f08c379a000000000000000000000000000000000000000000000000000000000815260040161087c906113e1565b60405180910390fd5b565b60008060009054906101000a900473ffffffffffffffffffffffffffffffffffffffff169050816000806101000a81548173ffffffffffffffffffffffffffffffffffffffff021916908373ffffffffffffffffffffffffffffffffffffffff1602179055508173ffffffffffffffffffffffffffffffffffffffff168173ffffffffffffffffffffffffffffffffffffffff167f8be0079c531659141344cd1fd0a4f28419497f9722a3daafe3b4186f6b6457e060405160405180910390a35050565b600033905090565b6000604051905090565b600080fd5b600080fd5b600073ffffffffffffffffffffffffffffffffffffffff82169050919050565b600061099282610967565b9050919050565b6109a281610987565b81146109ad57600080fd5b50565b6000813590506109bf81610999565b92915050565b600080fd5b600080fd5b6000601f19601f8301169050919050565b7f4e487b7100000000000000000000000000000000000000000000000000000000600052604160045260246000fd5b610a18826109cf565b810181811067ffffffffffffffff82111715610a3757610a366109e0565b5b80604052505050565b6000610a4a610953565b9050610a568282610a0f565b919050565b600067ffffffffffffffff821115610a7657610a756109e0565b5b610a7f826109cf565b9050602081019050919050565b82818337600083830152505050565b6000610aae610aa984610a5b565b610a40565b905082815260208101848484011115610aca57610ac96109ca565b5b610ad5848285610a8c565b509392505050565b600082601f830112610af257610af16109c5565b5b8135610b02848260208601610a9b565b91505092915050565b60008060408385031215610b2257610b2161095d565b5b6000610b30858286016109b0565b925050602083013567ffffffffffffffff811115610b5157610b50610962565b5b610b5d85828601610add565b9150509250929050565b60008115159050919050565b610b7c81610b67565b82525050565b6000602082019050610b976000830184610b73565b92915050565b600060208284031215610bb357610bb261095d565b5b600082013567ffffffffffffffff811115610bd157610bd0610962565b5b610bdd84828501610add565b91505092915050565b600060208284031215610bfc57610bfb61095d565b5b6000610c0a848285016109b0565b91505092915050565b6000819050919050565b610c2681610c13565b82525050565b6000602082019050610c416000830184610c1d565b92915050565b610c5081610987565b82525050565b6000602082019050610c6b6000830184610c47565b92915050565b600080fd5b600080fd5b600081519050610c8a81610999565b92915050565b600067ffffffffffffffff821115610cab57610caa6109e0565b5b610cb4826109cf565b9050602081019050919050565b60005b83811015610cdf578082015181840152602081019050610cc4565b60008484015250505050565b6000610cfe610cf984610c90565b610a40565b905082815260208101848484011115610d1a57610d196109ca565b5b610d25848285610cc1565b509392505050565b600082601f830112610d4257610d416109c5565b5b8151610d52848260208601610ceb565b91505092915050565b610d6481610c13565b8114610d6f57600080fd5b50565b600081519050610d8181610d5b565b92915050565b600060808284031215610d9d57610d9c610c71565b5b610da76080610a40565b90506000610db784828501610c7b565b600083015250602082015167ffffffffffffffff811115610ddb57610dda610c76565b5b610de784828501610d2d565b6020830152506040610dfb84828501610c7b565b6040830152506060610e0f84828501610d72565b60608301525092915050565b600060208284031215610e3157610e3061095d565b5b600082015167ffffffffffffffff811115610e4f57610e4e610962565b5b610e5b84828501610d87565b91505092915050565b7f4e487b7100000000000000000000000000000000000000000000000000000000600052601160045260246000fd5b6000610e9e82610c13565b9150610ea983610c13565b9250828201905080821115610ec157610ec0610e64565b5b92915050565b600081519050919050565b7f4e487b7100000000000000000000000000000000000000000000000000000000600052602260045260246000fd5b60006002820490506001821680610f1957607f821691505b602082108103610f2c57610f2b610ed2565b5b50919050565b60008190508160005260206000209050919050565b60006020601f8301049050919050565b600082821b905092915050565b600060088302610f947fffffffffffffffffffffffffffffffffffffffffffffffffffffffffffffffff82610f57565b610f9e8683610f57565b95508019841693508086168417925050509392505050565b6000819050919050565b6000610fdb610fd6610fd184610c13565b610fb6565b610c13565b9050919050565b6000819050919050565b610ff583610fc0565b61100961100182610fe2565b848454610f64565b825550505050565b600090565b61101e611011565b611029818484610fec565b505050565b5b8181101561104d57611042600082611016565b60018101905061102f565b5050565b601f8211156110925761106381610f32565b61106c84610f47565b8101602085101561107b578190505b61108f61108785610f47565b83018261102e565b50505b505050565b600082821c905092915050565b60006110b560001984600802611097565b1980831691505092915050565b60006110ce83836110a4565b9150826002028217905092915050565b6110e782610ec7565b67ffffffffffffffff811115611100576110ff6109e0565b5b61110a8254610f01565b611115828285611051565b600060209050601f8311600181146111485760008415611136578287015190505b61114085826110c2565b8655506111a8565b601f19841661115686610f32565b60005b8281101561117e57848901518255600182019150602085019450602081019050611159565b8683101561119b5784890151611197601f8916826110a4565b8355505b6001600288020188555050505b505050505050565b600082825260208201905092915050565b7f726571756573742069732070656e64696e672e2e2e0000000000000000000000600082015250565b60006111f76015836111b0565b9150611202826111c1565b602082019050919050565b60006020820190508181036000830152611226816111ea565b9050919050565b7f4f776e61626c653a206e6577206f776e657220697320746865207a65726f206160008201527f6464726573730000000000000000000000000000000000000000000000000000602082015250565b60006112896026836111b0565b91506112948261122d565b604082019050919050565b600060208201905081810360008301526112b88161127c565b9050919050565b60006112ca82610c13565b91506112d583610c13565b92508282039050818111156112ed576112ec610e64565b5b92915050565b60006112fe82610c13565b915061130983610c13565b925082820261131781610c13565b9150828204841483151761132e5761132d610e64565b5b5092915050565b7f4e487b7100000000000000000000000000000000000000000000000000000000600052601260045260246000fd5b600061136f82610c13565b915061137a83610c13565b92508261138a57611389611335565b5b828204905092915050565b7f4f776e61626c653a2063616c6c6572206973206e6f7420746865206f776e6572600082015250565b60006113cb6020836111b0565b91506113d682611395565b602082019050919050565b600060208201905081810360008301526113fa816113be565b905091905056fea264697066735822122033ca83edc4f28fe6c038fac858e2991a5d2d51f3cb742997c3ddfb891d74c86864736f6c63430008110033",
					"opcodes": "PUSH1 0x80 PUSH1 0x40 MSTORE PUSH3 0xF4240 PUSH1 0x2 SSTORE CALLVALUE DUP1 ISZERO PUSH2 0x17 JUMPI PUSH1 0x0 DUP1 REVERT JUMPDEST POP PUSH2 0x34 PUSH2 0x29 PUSH2 0x41 PUSH1 0x20 SHL PUSH1 0x20 SHR JUMP JUMPDEST PUSH2 0x49 PUSH1 0x20 SHL PUSH1 0x20 SHR JUMP JUMPDEST PUSH1 0x0 PUSH1 0x1 DUP2 SWAP1 SSTORE POP PUSH2 0x10D JUMP JUMPDEST PUSH1 0x0 CALLER SWAP1 POP SWAP1 JUMP JUMPDEST PUSH1 0x0 DUP1 PUSH1 0x0 SWAP1 SLOAD SWAP1 PUSH2 0x100 EXP SWAP1 DIV PUSH20 0xFFFFFFFFFFFFFFFFFFFFFFFFFFFFFFFFFFFFFFFF AND SWAP1 POP DUP2 PUSH1 0x0 DUP1 PUSH2 0x100 EXP DUP2 SLOAD DUP2 PUSH20 0xFFFFFFFFFFFFFFFFFFFFFFFFFFFFFFFFFFFFFFFF MUL NOT AND SWAP1 DUP4 PUSH20 0xFFFFFFFFFFFFFFFFFFFFFFFFFFFFFFFFFFFFFFFF AND MUL OR SWAP1 SSTORE POP DUP2 PUSH20 0xFFFFFFFFFFFFFFFFFFFFFFFFFFFFFFFFFFFFFFFF AND DUP2 PUSH20 0xFFFFFFFFFFFFFFFFFFFFFFFFFFFFFFFFFFFFFFFF AND PUSH32 0x8BE0079C531659141344CD1FD0A4F28419497F9722A3DAAFE3B4186F6B6457E0 PUSH1 0x40 MLOAD PUSH1 0x40 MLOAD DUP1 SWAP2 SUB SWAP1 LOG3 POP POP JUMP JUMPDEST PUSH2 0x1437 DUP1 PUSH2 0x11C PUSH1 0x0 CODECOPY PUSH1 0x0 RETURN INVALID PUSH1 0x80 PUSH1 0x40 MSTORE CALLVALUE DUP1 ISZERO PUSH2 0x10 JUMPI PUSH1 0x0 DUP1 REVERT JUMPDEST POP PUSH1 0x4 CALLDATASIZE LT PUSH2 0x7D JUMPI PUSH1 0x0 CALLDATALOAD PUSH1 0xE0 SHR DUP1 PUSH4 0x715018A6 GT PUSH2 0x5B JUMPI DUP1 PUSH4 0x715018A6 EQ PUSH2 0xFE JUMPI DUP1 PUSH4 0x8DA5CB5B EQ PUSH2 0x108 JUMPI DUP1 PUSH4 0xF2FDE38B EQ PUSH2 0x126 JUMPI DUP1 PUSH4 0xF40A7EDD EQ PUSH2 0x142 JUMPI PUSH2 0x7D JUMP JUMPDEST DUP1 PUSH4 0x1CFF79CD EQ PUSH2 0x82 JUMPI DUP1 PUSH4 0x46267665 EQ PUSH2 0xB2 JUMPI DUP1 PUSH4 0x50BC4A98 EQ PUSH2 0xCE JUMPI JUMPDEST PUSH1 0x0 DUP1 REVERT JUMPDEST PUSH2 0x9C PUSH1 0x4 DUP1 CALLDATASIZE SUB DUP2 ADD SWAP1 PUSH2 0x97 SWAP2 SWAP1 PUSH2 0xB0B JUMP JUMPDEST PUSH2 0x15E JUMP JUMPDEST PUSH1 0x40 MLOAD PUSH2 0xA9 SWAP2 SWAP1 PUSH2 0xB82 JUMP JUMPDEST PUSH1 0x40 MLOAD DUP1 SWAP2 SUB SWAP1 RETURN JUMPDEST PUSH2 0xCC PUSH1 0x4 DUP1 CALLDATASIZE SUB DUP2 ADD SWAP1 PUSH2 0xC7 SWAP2 SWAP1 PUSH2 0xB9D JUMP JUMPDEST PUSH2 0x20F JUMP JUMPDEST STOP JUMPDEST PUSH2 0xE8 PUSH1 0x4 DUP1 CALLDATASIZE SUB DUP2 ADD SWAP1 PUSH2 0xE3 SWAP2 SWAP1 PUSH2 0xBE6 JUMP JUMPDEST PUSH2 0x38D JUMP JUMPDEST PUSH1 0x40 MLOAD PUSH2 0xF5 SWAP2 SWAP1 PUSH2 0xC2C JUMP JUMPDEST PUSH1 0x40 MLOAD DUP1 SWAP2 SUB SWAP1 RETURN JUMPDEST PUSH2 0x106 PUSH2 0x455 JUMP JUMPDEST STOP JUMPDEST PUSH2 0x110 PUSH2 0x469 JUMP JUMPDEST PUSH1 0x40 MLOAD PUSH2 0x11D SWAP2 SWAP1 PUSH2 0xC56 JUMP JUMPDEST PUSH1 0x40 MLOAD DUP1 SWAP2 SUB SWAP1 RETURN JUMPDEST PUSH2 0x140 PUSH1 0x4 DUP1 CALLDATASIZE SUB DUP2 ADD SWAP1 PUSH2 0x13B SWAP2 SWAP1 PUSH2 0xBE6 JUMP JUMPDEST PUSH2 0x492 JUMP JUMPDEST STOP JUMPDEST PUSH2 0x15C PUSH1 0x4 DUP1 CALLDATASIZE SUB DUP2 ADD SWAP1 PUSH2 0x157 SWAP2 SWAP1 PUSH2 0xB9D JUMP JUMPDEST PUSH2 0x515 JUMP JUMPDEST STOP JUMPDEST PUSH1 0x0 PUSH2 0x168 PUSH2 0x809 JUMP JUMPDEST PUSH2 0x171 DUP3 PUSH2 0x515 JUMP JUMPDEST PUSH1 0x0 PUSH1 0x4 PUSH1 0x0 DUP6 PUSH20 0xFFFFFFFFFFFFFFFFFFFFFFFFFFFFFFFFFFFFFFFF AND PUSH20 0xFFFFFFFFFFFFFFFFFFFFFFFFFFFFFFFFFFFFFFFF AND DUP2 MSTORE PUSH1 0x20 ADD SWAP1 DUP2 MSTORE PUSH1 0x20 ADD PUSH1 0x0 KECCAK256 SLOAD SWAP1 POP PUSH1 0x5 PUSH1 0x0 DUP3 DUP2 MSTORE PUSH1 0x20 ADD SWAP1 DUP2 MSTORE PUSH1 0x20 ADD PUSH1 0x0 KECCAK256 PUSH1 0x0 PUSH2 0x100 EXP DUP2 SLOAD SWAP1 PUSH1 0xFF MUL NOT AND SWAP1 SSTORE PUSH1 0x1 PUSH1 0x7 PUSH1 0x0 DUP4 DUP2 MSTORE PUSH1 0x20 ADD SWAP1 DUP2 MSTORE PUSH1 0x20 ADD PUSH1 0x0 KECCAK256 PUSH1 0x0 PUSH2 0x100 EXP DUP2 SLOAD DUP2 PUSH1 0xFF MUL NOT AND SWAP1 DUP4 ISZERO ISZERO MUL OR SWAP1 SSTORE POP PUSH1 0x1 SWAP2 POP POP SWAP3 SWAP2 POP POP JUMP JUMPDEST PUSH2 0x217 PUSH2 0x809 JUMP JUMPDEST PUSH1 0x0 DUP2 DUP1 PUSH1 0x20 ADD SWAP1 MLOAD DUP2 ADD SWAP1 PUSH2 0x22D SWAP2 SWAP1 PUSH2 0xE1B JUMP JUMPDEST SWAP1 POP PUSH1 0x0 PUSH1 0x1 SLOAD SWAP1 POP PUSH1 0x1 DUP1 PUSH1 0x0 DUP3 DUP3 SLOAD PUSH2 0x248 SWAP2 SWAP1 PUSH2 0xE93 JUMP JUMPDEST SWAP3 POP POP DUP2 SWAP1 SSTORE POP DUP2 PUSH1 0x3 PUSH1 0x0 DUP4 DUP2 MSTORE PUSH1 0x20 ADD SWAP1 DUP2 MSTORE PUSH1 0x20 ADD PUSH1 0x0 KECCAK256 PUSH1 0x0 DUP3 ADD MLOAD DUP2 PUSH1 0x0 ADD PUSH1 0x0 PUSH2 0x100 EXP DUP2 SLOAD DUP2 PUSH20 0xFFFFFFFFFFFFFFFFFFFFFFFFFFFFFFFFFFFFFFFF MUL NOT AND SWAP1 DUP4 PUSH20 0xFFFFFFFFFFFFFFFFFFFFFFFFFFFFFFFFFFFFFFFF AND MUL OR SWAP1 SSTORE POP PUSH1 0x20 DUP3 ADD MLOAD DUP2 PUSH1 0x1 ADD SWAP1 DUP2 PUSH2 0x2BF SWAP2 SWAP1 PUSH2 0x10DE JUMP JUMPDEST POP PUSH1 0x40 DUP3 ADD MLOAD DUP2 PUSH1 0x2 ADD PUSH1 0x0 PUSH2 0x100 EXP DUP2 SLOAD DUP2 PUSH20 0xFFFFFFFFFFFFFFFFFFFFFFFFFFFFFFFFFFFFFFFF MUL NOT AND SWAP1 DUP4 PUSH20 0xFFFFFFFFFFFFFFFFFFFFFFFFFFFFFFFFFFFFFFFF AND MUL OR SWAP1 SSTORE POP PUSH1 0x60 DUP3 ADD MLOAD DUP2 PUSH1 0x3 ADD SSTORE SWAP1 POP POP DUP1 PUSH1 0x4 PUSH1 0x0 DUP5 PUSH1 0x0 ADD MLOAD PUSH20 0xFFFFFFFFFFFFFFFFFFFFFFFFFFFFFFFFFFFFFFFF AND PUSH20 0xFFFFFFFFFFFFFFFFFFFFFFFFFFFFFFFFFFFFFFFF AND DUP2 MSTORE PUSH1 0x20 ADD SWAP1 DUP2 MSTORE PUSH1 0x20 ADD PUSH1 0x0 KECCAK256 DUP2 SWAP1 SSTORE POP PUSH1 0x1 PUSH1 0x5 PUSH1 0x0 DUP4 DUP2 MSTORE PUSH1 0x20 ADD SWAP1 DUP2 MSTORE PUSH1 0x20 ADD PUSH1 0x0 KECCAK256 PUSH1 0x0 PUSH2 0x100 EXP DUP2 SLOAD DUP2 PUSH1 0xFF MUL NOT AND SWAP1 DUP4 ISZERO ISZERO MUL OR SWAP1 SSTORE POP POP POP POP JUMP JUMPDEST PUSH1 0x0 DUP1 PUSH1 0x4 PUSH1 0x0 DUP5 PUSH20 0xFFFFFFFFFFFFFFFFFFFFFFFFFFFFFFFFFFFFFFFF AND PUSH20 0xFFFFFFFFFFFFFFFFFFFFFFFFFFFFFFFFFFFFFFFF AND DUP2 MSTORE PUSH1 0x20 ADD SWAP1 DUP2 MSTORE PUSH1 0x20 ADD PUSH1 0x0 KECCAK256 SLOAD SWAP1 POP PUSH1 0x1 ISZERO ISZERO PUSH1 0x7 PUSH1 0x0 DUP4 DUP2 MSTORE PUSH1 0x20 ADD SWAP1 DUP2 MSTORE PUSH1 0x20 ADD PUSH1 0x0 KECCAK256 PUSH1 0x0 SWAP1 SLOAD SWAP1 PUSH2 0x100 EXP SWAP1 DIV PUSH1 0xFF AND ISZERO ISZERO EQ PUSH2 0x439 JUMPI PUSH1 0x40 MLOAD PUSH32 0x8C379A000000000000000000000000000000000000000000000000000000000 DUP2 MSTORE PUSH1 0x4 ADD PUSH2 0x430 SWAP1 PUSH2 0x120D JUMP JUMPDEST PUSH1 0x40 MLOAD DUP1 SWAP2 SUB SWAP1 REVERT JUMPDEST PUSH1 0x8 PUSH1 0x0 DUP3 DUP2 MSTORE PUSH1 0x20 ADD SWAP1 DUP2 MSTORE PUSH1 0x20 ADD PUSH1 0x0 KECCAK256 SLOAD SWAP2 POP POP SWAP2 SWAP1 POP JUMP JUMPDEST PUSH2 0x45D PUSH2 0x809 JUMP JUMPDEST PUSH2 0x467 PUSH1 0x0 PUSH2 0x887 JUMP JUMPDEST JUMP JUMPDEST PUSH1 0x0 DUP1 PUSH1 0x0 SWAP1 SLOAD SWAP1 PUSH2 0x100 EXP SWAP1 DIV PUSH20 0xFFFFFFFFFFFFFFFFFFFFFFFFFFFFFFFFFFFFFFFF AND SWAP1 POP SWAP1 JUMP JUMPDEST PUSH2 0x49A PUSH2 0x809 JUMP JUMPDEST PUSH1 0x0 PUSH20 0xFFFFFFFFFFFFFFFFFFFFFFFFFFFFFFFFFFFFFFFF AND DUP2 PUSH20 0xFFFFFFFFFFFFFFFFFFFFFFFFFFFFFFFFFFFFFFFF AND SUB PUSH2 0x509 JUMPI PUSH1 0x40 MLOAD PUSH32 0x8C379A000000000000000000000000000000000000000000000000000000000 DUP2 MSTORE PUSH1 0x4 ADD PUSH2 0x500 SWAP1 PUSH2 0x129F JUMP JUMPDEST PUSH1 0x40 MLOAD DUP1 SWAP2 SUB SWAP1 REVERT JUMPDEST PUSH2 0x512 DUP2 PUSH2 0x887 JUMP JUMPDEST POP JUMP JUMPDEST PUSH2 0x51D PUSH2 0x809 JUMP JUMPDEST PUSH2 0x526 DUP2 PUSH2 0x20F JUMP JUMPDEST PUSH1 0x0 PUSH1 0x3 PUSH1 0x0 PUSH1 0x1 DUP1 SLOAD PUSH2 0x53A SWAP2 SWAP1 PUSH2 0x12BF JUMP JUMPDEST DUP2 MSTORE PUSH1 0x20 ADD SWAP1 DUP2 MSTORE PUSH1 0x20 ADD PUSH1 0x0 KECCAK256 PUSH1 0x40 MLOAD DUP1 PUSH1 0x80 ADD PUSH1 0x40 MSTORE SWAP1 DUP2 PUSH1 0x0 DUP3 ADD PUSH1 0x0 SWAP1 SLOAD SWAP1 PUSH2 0x100 EXP SWAP1 DIV PUSH20 0xFFFFFFFFFFFFFFFFFFFFFFFFFFFFFFFFFFFFFFFF AND PUSH20 0xFFFFFFFFFFFFFFFFFFFFFFFFFFFFFFFFFFFFFFFF AND PUSH20 0xFFFFFFFFFFFFFFFFFFFFFFFFFFFFFFFFFFFFFFFF AND DUP2 MSTORE PUSH1 0x20 ADD PUSH1 0x1 DUP3 ADD DUP1 SLOAD PUSH2 0x5B9 SWAP1 PUSH2 0xF01 JUMP JUMPDEST DUP1 PUSH1 0x1F ADD PUSH1 0x20 DUP1 SWAP2 DIV MUL PUSH1 0x20 ADD PUSH1 0x40 MLOAD SWAP1 DUP2 ADD PUSH1 0x40 MSTORE DUP1 SWAP3 SWAP2 SWAP1 DUP2 DUP2 MSTORE PUSH1 0x20 ADD DUP3 DUP1 SLOAD PUSH2 0x5E5 SWAP1 PUSH2 0xF01 JUMP JUMPDEST DUP1 ISZERO PUSH2 0x632 JUMPI DUP1 PUSH1 0x1F LT PUSH2 0x607 JUMPI PUSH2 0x100 DUP1 DUP4 SLOAD DIV MUL DUP4 MSTORE SWAP2 PUSH1 0x20 ADD SWAP2 PUSH2 0x632 JUMP JUMPDEST DUP3 ADD SWAP2 SWAP1 PUSH1 0x0 MSTORE PUSH1 0x20 PUSH1 0x0 KECCAK256 SWAP1 JUMPDEST DUP2 SLOAD DUP2 MSTORE SWAP1 PUSH1 0x1 ADD SWAP1 PUSH1 0x20 ADD DUP1 DUP4 GT PUSH2 0x615 JUMPI DUP3 SWAP1 SUB PUSH1 0x1F AND DUP3 ADD SWAP2 JUMPDEST POP POP POP POP POP DUP2 MSTORE PUSH1 0x20 ADD PUSH1 0x2 DUP3 ADD PUSH1 0x0 SWAP1 SLOAD SWAP1 PUSH2 0x100 EXP SWAP1 DIV PUSH20 0xFFFFFFFFFFFFFFFFFFFFFFFFFFFFFFFFFFFFFFFF AND PUSH20 0xFFFFFFFFFFFFFFFFFFFFFFFFFFFFFFFFFFFFFFFF AND PUSH20 0xFFFFFFFFFFFFFFFFFFFFFFFFFFFFFFFFFFFFFFFF AND DUP2 MSTORE PUSH1 0x20 ADD PUSH1 0x3 DUP3 ADD SLOAD DUP2 MSTORE POP POP SWAP1 POP PUSH1 0x0 DUP2 PUSH1 0x0 ADD MLOAD SWAP1 POP PUSH1 0x0 PUSH1 0x4 PUSH1 0x0 DUP5 PUSH1 0x0 ADD MLOAD PUSH20 0xFFFFFFFFFFFFFFFFFFFFFFFFFFFFFFFFFFFFFFFF AND PUSH20 0xFFFFFFFFFFFFFFFFFFFFFFFFFFFFFFFFFFFFFFFF AND DUP2 MSTORE PUSH1 0x20 ADD SWAP1 DUP2 MSTORE PUSH1 0x20 ADD PUSH1 0x0 KECCAK256 SLOAD SWAP1 POP PUSH1 0x0 PUSH1 0x8 PUSH1 0x0 DUP4 DUP2 MSTORE PUSH1 0x20 ADD SWAP1 DUP2 MSTORE PUSH1 0x20 ADD PUSH1 0x0 KECCAK256 DUP2 SWAP1 SSTORE POP PUSH1 0x0 PUSH1 0x2 SLOAD PUSH1 0x9 PUSH1 0x0 DUP6 PUSH20 0xFFFFFFFFFFFFFFFFFFFFFFFFFFFFFFFFFFFFFFFF AND PUSH20 0xFFFFFFFFFFFFFFFFFFFFFFFFFFFFFFFFFFFFFFFF AND DUP2 MSTORE PUSH1 0x20 ADD SWAP1 DUP2 MSTORE PUSH1 0x20 ADD PUSH1 0x0 KECCAK256 SLOAD PUSH2 0x756 SWAP2 SWAP1 PUSH2 0x12F3 JUMP JUMPDEST SWAP1 POP PUSH1 0x0 PUSH1 0x2 SLOAD PUSH1 0xA PUSH1 0x0 DUP7 PUSH20 0xFFFFFFFFFFFFFFFFFFFFFFFFFFFFFFFFFFFFFFFF AND PUSH20 0xFFFFFFFFFFFFFFFFFFFFFFFFFFFFFFFFFFFFFFFF AND DUP2 MSTORE PUSH1 0x20 ADD SWAP1 DUP2 MSTORE PUSH1 0x20 ADD PUSH1 0x0 KECCAK256 SLOAD PUSH2 0x7A7 SWAP2 SWAP1 PUSH2 0x12F3 JUMP JUMPDEST SWAP1 POP PUSH1 0x0 PUSH1 0x2 SLOAD DUP7 PUSH1 0x60 ADD MLOAD PUSH2 0x7BD SWAP2 SWAP1 PUSH2 0x1364 JUMP JUMPDEST SWAP1 POP PUSH1 0x0 PUSH1 0x2 SLOAD DUP4 DUP6 PUSH2 0x7D0 SWAP2 SWAP1 PUSH2 0x12F3 JUMP JUMPDEST DUP4 PUSH2 0x7DB SWAP2 SWAP1 PUSH2 0x12F3 JUMP JUMPDEST PUSH2 0x7E5 SWAP2 SWAP1 PUSH2 0x1364 JUMP JUMPDEST SWAP1 POP DUP1 PUSH1 0x8 PUSH1 0x0 DUP8 DUP2 MSTORE PUSH1 0x20 ADD SWAP1 DUP2 MSTORE PUSH1 0x20 ADD PUSH1 0x0 KECCAK256 DUP2 SWAP1 SSTORE POP POP POP POP POP POP POP POP POP JUMP JUMPDEST PUSH2 0x811 PUSH2 0x94B JUMP JUMPDEST PUSH20 0xFFFFFFFFFFFFFFFFFFFFFFFFFFFFFFFFFFFFFFFF AND PUSH2 0x82F PUSH2 0x469 JUMP JUMPDEST PUSH20 0xFFFFFFFFFFFFFFFFFFFFFFFFFFFFFFFFFFFFFFFF AND EQ PUSH2 0x885 JUMPI PUSH1 0x40 MLOAD PUSH32 0x8C379A000000000000000000000000000000000000000000000000000000000 DUP2 MSTORE PUSH1 0x4 ADD PUSH2 0x87C SWAP1 PUSH2 0x13E1 JUMP JUMPDEST PUSH1 0x40 MLOAD DUP1 SWAP2 SUB SWAP1 REVERT JUMPDEST JUMP JUMPDEST PUSH1 0x0 DUP1 PUSH1 0x0 SWAP1 SLOAD SWAP1 PUSH2 0x100 EXP SWAP1 DIV PUSH20 0xFFFFFFFFFFFFFFFFFFFFFFFFFFFFFFFFFFFFFFFF AND SWAP1 POP DUP2 PUSH1 0x0 DUP1 PUSH2 0x100 EXP DUP2 SLOAD DUP2 PUSH20 0xFFFFFFFFFFFFFFFFFFFFFFFFFFFFFFFFFFFFFFFF MUL NOT AND SWAP1 DUP4 PUSH20 0xFFFFFFFFFFFFFFFFFFFFFFFFFFFFFFFFFFFFFFFF AND MUL OR SWAP1 SSTORE POP DUP2 PUSH20 0xFFFFFFFFFFFFFFFFFFFFFFFFFFFFFFFFFFFFFFFF AND DUP2 PUSH20 0xFFFFFFFFFFFFFFFFFFFFFFFFFFFFFFFFFFFFFFFF AND PUSH32 0x8BE0079C531659141344CD1FD0A4F28419497F9722A3DAAFE3B4186F6B6457E0 PUSH1 0x40 MLOAD PUSH1 0x40 MLOAD DUP1 SWAP2 SUB SWAP1 LOG3 POP POP JUMP JUMPDEST PUSH1 0x0 CALLER SWAP1 POP SWAP1 JUMP JUMPDEST PUSH1 0x0 PUSH1 0x40 MLOAD SWAP1 POP SWAP1 JUMP JUMPDEST PUSH1 0x0 DUP1 REVERT JUMPDEST PUSH1 0x0 DUP1 REVERT JUMPDEST PUSH1 0x0 PUSH20 0xFFFFFFFFFFFFFFFFFFFFFFFFFFFFFFFFFFFFFFFF DUP3 AND SWAP1 POP SWAP2 SWAP1 POP JUMP JUMPDEST PUSH1 0x0 PUSH2 0x992 DUP3 PUSH2 0x967 JUMP JUMPDEST SWAP1 POP SWAP2 SWAP1 POP JUMP JUMPDEST PUSH2 0x9A2 DUP2 PUSH2 0x987 JUMP JUMPDEST DUP2 EQ PUSH2 0x9AD JUMPI PUSH1 0x0 DUP1 REVERT JUMPDEST POP JUMP JUMPDEST PUSH1 0x0 DUP2 CALLDATALOAD SWAP1 POP PUSH2 0x9BF DUP2 PUSH2 0x999 JUMP JUMPDEST SWAP3 SWAP2 POP POP JUMP JUMPDEST PUSH1 0x0 DUP1 REVERT JUMPDEST PUSH1 0x0 DUP1 REVERT JUMPDEST PUSH1 0x0 PUSH1 0x1F NOT PUSH1 0x1F DUP4 ADD AND SWAP1 POP SWAP2 SWAP1 POP JUMP JUMPDEST PUSH32 0x4E487B7100000000000000000000000000000000000000000000000000000000 PUSH1 0x0 MSTORE PUSH1 0x41 PUSH1 0x4 MSTORE PUSH1 0x24 PUSH1 0x0 REVERT JUMPDEST PUSH2 0xA18 DUP3 PUSH2 0x9CF JUMP JUMPDEST DUP2 ADD DUP2 DUP2 LT PUSH8 0xFFFFFFFFFFFFFFFF DUP3 GT OR ISZERO PUSH2 0xA37 JUMPI PUSH2 0xA36 PUSH2 0x9E0 JUMP JUMPDEST JUMPDEST DUP1 PUSH1 0x40 MSTORE POP POP POP JUMP JUMPDEST PUSH1 0x0 PUSH2 0xA4A PUSH2 0x953 JUMP JUMPDEST SWAP1 POP PUSH2 0xA56 DUP3 DUP3 PUSH2 0xA0F JUMP JUMPDEST SWAP2 SWAP1 POP JUMP JUMPDEST PUSH1 0x0 PUSH8 0xFFFFFFFFFFFFFFFF DUP3 GT ISZERO PUSH2 0xA76 JUMPI PUSH2 0xA75 PUSH2 0x9E0 JUMP JUMPDEST JUMPDEST PUSH2 0xA7F DUP3 PUSH2 0x9CF JUMP JUMPDEST SWAP1 POP PUSH1 0x20 DUP2 ADD SWAP1 POP SWAP2 SWAP1 POP JUMP JUMPDEST DUP3 DUP2 DUP4 CALLDATACOPY PUSH1 0x0 DUP4 DUP4 ADD MSTORE POP POP POP JUMP JUMPDEST PUSH1 0x0 PUSH2 0xAAE PUSH2 0xAA9 DUP5 PUSH2 0xA5B JUMP JUMPDEST PUSH2 0xA40 JUMP JUMPDEST SWAP1 POP DUP3 DUP2 MSTORE PUSH1 0x20 DUP2 ADD DUP5 DUP5 DUP5 ADD GT ISZERO PUSH2 0xACA JUMPI PUSH2 0xAC9 PUSH2 0x9CA JUMP JUMPDEST JUMPDEST PUSH2 0xAD5 DUP5 DUP3 DUP6 PUSH2 0xA8C JUMP JUMPDEST POP SWAP4 SWAP3 POP POP POP JUMP JUMPDEST PUSH1 0x0 DUP3 PUSH1 0x1F DUP4 ADD SLT PUSH2 0xAF2 JUMPI PUSH2 0xAF1 PUSH2 0x9C5 JUMP JUMPDEST JUMPDEST DUP2 CALLDATALOAD PUSH2 0xB02 DUP5 DUP3 PUSH1 0x20 DUP7 ADD PUSH2 0xA9B JUMP JUMPDEST SWAP2 POP POP SWAP3 SWAP2 POP POP JUMP JUMPDEST PUSH1 0x0 DUP1 PUSH1 0x40 DUP4 DUP6 SUB SLT ISZERO PUSH2 0xB22 JUMPI PUSH2 0xB21 PUSH2 0x95D JUMP JUMPDEST JUMPDEST PUSH1 0x0 PUSH2 0xB30 DUP6 DUP3 DUP7 ADD PUSH2 0x9B0 JUMP JUMPDEST SWAP3 POP POP PUSH1 0x20 DUP4 ADD CALLDATALOAD PUSH8 0xFFFFFFFFFFFFFFFF DUP2 GT ISZERO PUSH2 0xB51 JUMPI PUSH2 0xB50 PUSH2 0x962 JUMP JUMPDEST JUMPDEST PUSH2 0xB5D DUP6 DUP3 DUP7 ADD PUSH2 0xADD JUMP JUMPDEST SWAP2 POP POP SWAP3 POP SWAP3 SWAP1 POP JUMP JUMPDEST PUSH1 0x0 DUP2 ISZERO ISZERO SWAP1 POP SWAP2 SWAP1 POP JUMP JUMPDEST PUSH2 0xB7C DUP2 PUSH2 0xB67 JUMP JUMPDEST DUP3 MSTORE POP POP JUMP JUMPDEST PUSH1 0x0 PUSH1 0x20 DUP3 ADD SWAP1 POP PUSH2 0xB97 PUSH1 0x0 DUP4 ADD DUP5 PUSH2 0xB73 JUMP JUMPDEST SWAP3 SWAP2 POP POP JUMP JUMPDEST PUSH1 0x0 PUSH1 0x20 DUP3 DUP5 SUB SLT ISZERO PUSH2 0xBB3 JUMPI PUSH2 0xBB2 PUSH2 0x95D JUMP JUMPDEST JUMPDEST PUSH1 0x0 DUP3 ADD CALLDATALOAD PUSH8 0xFFFFFFFFFFFFFFFF DUP2 GT ISZERO PUSH2 0xBD1 JUMPI PUSH2 0xBD0 PUSH2 0x962 JUMP JUMPDEST JUMPDEST PUSH2 0xBDD DUP5 DUP3 DUP6 ADD PUSH2 0xADD JUMP JUMPDEST SWAP2 POP POP SWAP3 SWAP2 POP POP JUMP JUMPDEST PUSH1 0x0 PUSH1 0x20 DUP3 DUP5 SUB SLT ISZERO PUSH2 0xBFC JUMPI PUSH2 0xBFB PUSH2 0x95D JUMP JUMPDEST JUMPDEST PUSH1 0x0 PUSH2 0xC0A DUP5 DUP3 DUP6 ADD PUSH2 0x9B0 JUMP JUMPDEST SWAP2 POP POP SWAP3 SWAP2 POP POP JUMP JUMPDEST PUSH1 0x0 DUP2 SWAP1 POP SWAP2 SWAP1 POP JUMP JUMPDEST PUSH2 0xC26 DUP2 PUSH2 0xC13 JUMP JUMPDEST DUP3 MSTORE POP POP JUMP JUMPDEST PUSH1 0x0 PUSH1 0x20 DUP3 ADD SWAP1 POP PUSH2 0xC41 PUSH1 0x0 DUP4 ADD DUP5 PUSH2 0xC1D JUMP JUMPDEST SWAP3 SWAP2 POP POP JUMP JUMPDEST PUSH2 0xC50 DUP2 PUSH2 0x987 JUMP JUMPDEST DUP3 MSTORE POP POP JUMP JUMPDEST PUSH1 0x0 PUSH1 0x20 DUP3 ADD SWAP1 POP PUSH2 0xC6B PUSH1 0x0 DUP4 ADD DUP5 PUSH2 0xC47 JUMP JUMPDEST SWAP3 SWAP2 POP POP JUMP JUMPDEST PUSH1 0x0 DUP1 REVERT JUMPDEST PUSH1 0x0 DUP1 REVERT JUMPDEST PUSH1 0x0 DUP2 MLOAD SWAP1 POP PUSH2 0xC8A DUP2 PUSH2 0x999 JUMP JUMPDEST SWAP3 SWAP2 POP POP JUMP JUMPDEST PUSH1 0x0 PUSH8 0xFFFFFFFFFFFFFFFF DUP3 GT ISZERO PUSH2 0xCAB JUMPI PUSH2 0xCAA PUSH2 0x9E0 JUMP JUMPDEST JUMPDEST PUSH2 0xCB4 DUP3 PUSH2 0x9CF JUMP JUMPDEST SWAP1 POP PUSH1 0x20 DUP2 ADD SWAP1 POP SWAP2 SWAP1 POP JUMP JUMPDEST PUSH1 0x0 JUMPDEST DUP4 DUP2 LT ISZERO PUSH2 0xCDF JUMPI DUP1 DUP3 ADD MLOAD DUP2 DUP5 ADD MSTORE PUSH1 0x20 DUP2 ADD SWAP1 POP PUSH2 0xCC4 JUMP JUMPDEST PUSH1 0x0 DUP5 DUP5 ADD MSTORE POP POP POP POP JUMP JUMPDEST PUSH1 0x0 PUSH2 0xCFE PUSH2 0xCF9 DUP5 PUSH2 0xC90 JUMP JUMPDEST PUSH2 0xA40 JUMP JUMPDEST SWAP1 POP DUP3 DUP2 MSTORE PUSH1 0x20 DUP2 ADD DUP5 DUP5 DUP5 ADD GT ISZERO PUSH2 0xD1A JUMPI PUSH2 0xD19 PUSH2 0x9CA JUMP JUMPDEST JUMPDEST PUSH2 0xD25 DUP5 DUP3 DUP6 PUSH2 0xCC1 JUMP JUMPDEST POP SWAP4 SWAP3 POP POP POP JUMP JUMPDEST PUSH1 0x0 DUP3 PUSH1 0x1F DUP4 ADD SLT PUSH2 0xD42 JUMPI PUSH2 0xD41 PUSH2 0x9C5 JUMP JUMPDEST JUMPDEST DUP2 MLOAD PUSH2 0xD52 DUP5 DUP3 PUSH1 0x20 DUP7 ADD PUSH2 0xCEB JUMP JUMPDEST SWAP2 POP POP SWAP3 SWAP2 POP POP JUMP JUMPDEST PUSH2 0xD64 DUP2 PUSH2 0xC13 JUMP JUMPDEST DUP2 EQ PUSH2 0xD6F JUMPI PUSH1 0x0 DUP1 REVERT JUMPDEST POP JUMP JUMPDEST PUSH1 0x0 DUP2 MLOAD SWAP1 POP PUSH2 0xD81 DUP2 PUSH2 0xD5B JUMP JUMPDEST SWAP3 SWAP2 POP POP JUMP JUMPDEST PUSH1 0x0 PUSH1 0x80 DUP3 DUP5 SUB SLT ISZERO PUSH2 0xD9D JUMPI PUSH2 0xD9C PUSH2 0xC71 JUMP JUMPDEST JUMPDEST PUSH2 0xDA7 PUSH1 0x80 PUSH2 0xA40 JUMP JUMPDEST SWAP1 POP PUSH1 0x0 PUSH2 0xDB7 DUP5 DUP3 DUP6 ADD PUSH2 0xC7B JUMP JUMPDEST PUSH1 0x0 DUP4 ADD MSTORE POP PUSH1 0x20 DUP3 ADD MLOAD PUSH8 0xFFFFFFFFFFFFFFFF DUP2 GT ISZERO PUSH2 0xDDB JUMPI PUSH2 0xDDA PUSH2 0xC76 JUMP JUMPDEST JUMPDEST PUSH2 0xDE7 DUP5 DUP3 DUP6 ADD PUSH2 0xD2D JUMP JUMPDEST PUSH1 0x20 DUP4 ADD MSTORE POP PUSH1 0x40 PUSH2 0xDFB DUP5 DUP3 DUP6 ADD PUSH2 0xC7B JUMP JUMPDEST PUSH1 0x40 DUP4 ADD MSTORE POP PUSH1 0x60 PUSH2 0xE0F DUP5 DUP3 DUP6 ADD PUSH2 0xD72 JUMP JUMPDEST PUSH1 0x60 DUP4 ADD MSTORE POP SWAP3 SWAP2 POP POP JUMP JUMPDEST PUSH1 0x0 PUSH1 0x20 DUP3 DUP5 SUB SLT ISZERO PUSH2 0xE31 JUMPI PUSH2 0xE30 PUSH2 0x95D JUMP JUMPDEST JUMPDEST PUSH1 0x0 DUP3 ADD MLOAD PUSH8 0xFFFFFFFFFFFFFFFF DUP2 GT ISZERO PUSH2 0xE4F JUMPI PUSH2 0xE4E PUSH2 0x962 JUMP JUMPDEST JUMPDEST PUSH2 0xE5B DUP5 DUP3 DUP6 ADD PUSH2 0xD87 JUMP JUMPDEST SWAP2 POP POP SWAP3 SWAP2 POP POP JUMP JUMPDEST PUSH32 0x4E487B7100000000000000000000000000000000000000000000000000000000 PUSH1 0x0 MSTORE PUSH1 0x11 PUSH1 0x4 MSTORE PUSH1 0x24 PUSH1 0x0 REVERT JUMPDEST PUSH1 0x0 PUSH2 0xE9E DUP3 PUSH2 0xC13 JUMP JUMPDEST SWAP2 POP PUSH2 0xEA9 DUP4 PUSH2 0xC13 JUMP JUMPDEST SWAP3 POP DUP3 DUP3 ADD SWAP1 POP DUP1 DUP3 GT ISZERO PUSH2 0xEC1 JUMPI PUSH2 0xEC0 PUSH2 0xE64 JUMP JUMPDEST JUMPDEST SWAP3 SWAP2 POP POP JUMP JUMPDEST PUSH1 0x0 DUP2 MLOAD SWAP1 POP SWAP2 SWAP1 POP JUMP JUMPDEST PUSH32 0x4E487B7100000000000000000000000000000000000000000000000000000000 PUSH1 0x0 MSTORE PUSH1 0x22 PUSH1 0x4 MSTORE PUSH1 0x24 PUSH1 0x0 REVERT JUMPDEST PUSH1 0x0 PUSH1 0x2 DUP3 DIV SWAP1 POP PUSH1 0x1 DUP3 AND DUP1 PUSH2 0xF19 JUMPI PUSH1 0x7F DUP3 AND SWAP2 POP JUMPDEST PUSH1 0x20 DUP3 LT DUP2 SUB PUSH2 0xF2C JUMPI PUSH2 0xF2B PUSH2 0xED2 JUMP JUMPDEST JUMPDEST POP SWAP2 SWAP1 POP JUMP JUMPDEST PUSH1 0x0 DUP2 SWAP1 POP DUP2 PUSH1 0x0 MSTORE PUSH1 0x20 PUSH1 0x0 KECCAK256 SWAP1 POP SWAP2 SWAP1 POP JUMP JUMPDEST PUSH1 0x0 PUSH1 0x20 PUSH1 0x1F DUP4 ADD DIV SWAP1 POP SWAP2 SWAP1 POP JUMP JUMPDEST PUSH1 0x0 DUP3 DUP3 SHL SWAP1 POP SWAP3 SWAP2 POP POP JUMP JUMPDEST PUSH1 0x0 PUSH1 0x8 DUP4 MUL PUSH2 0xF94 PUSH32 0xFFFFFFFFFFFFFFFFFFFFFFFFFFFFFFFFFFFFFFFFFFFFFFFFFFFFFFFFFFFFFFFF DUP3 PUSH2 0xF57 JUMP JUMPDEST PUSH2 0xF9E DUP7 DUP4 PUSH2 0xF57 JUMP JUMPDEST SWAP6 POP DUP1 NOT DUP5 AND SWAP4 POP DUP1 DUP7 AND DUP5 OR SWAP3 POP POP POP SWAP4 SWAP3 POP POP POP JUMP JUMPDEST PUSH1 0x0 DUP2 SWAP1 POP SWAP2 SWAP1 POP JUMP JUMPDEST PUSH1 0x0 PUSH2 0xFDB PUSH2 0xFD6 PUSH2 0xFD1 DUP5 PUSH2 0xC13 JUMP JUMPDEST PUSH2 0xFB6 JUMP JUMPDEST PUSH2 0xC13 JUMP JUMPDEST SWAP1 POP SWAP2 SWAP1 POP JUMP JUMPDEST PUSH1 0x0 DUP2 SWAP1 POP SWAP2 SWAP1 POP JUMP JUMPDEST PUSH2 0xFF5 DUP4 PUSH2 0xFC0 JUMP JUMPDEST PUSH2 0x1009 PUSH2 0x1001 DUP3 PUSH2 0xFE2 JUMP JUMPDEST DUP5 DUP5 SLOAD PUSH2 0xF64 JUMP JUMPDEST DUP3 SSTORE POP POP POP POP JUMP JUMPDEST PUSH1 0x0 SWAP1 JUMP JUMPDEST PUSH2 0x101E PUSH2 0x1011 JUMP JUMPDEST PUSH2 0x1029 DUP2 DUP5 DUP5 PUSH2 0xFEC JUMP JUMPDEST POP POP POP JUMP JUMPDEST JUMPDEST DUP2 DUP2 LT ISZERO PUSH2 0x104D JUMPI PUSH2 0x1042 PUSH1 0x0 DUP3 PUSH2 0x1016 JUMP JUMPDEST PUSH1 0x1 DUP2 ADD SWAP1 POP PUSH2 0x102F JUMP JUMPDEST POP POP JUMP JUMPDEST PUSH1 0x1F DUP3 GT ISZERO PUSH2 0x1092 JUMPI PUSH2 0x1063 DUP2 PUSH2 0xF32 JUMP JUMPDEST PUSH2 0x106C DUP5 PUSH2 0xF47 JUMP JUMPDEST DUP2 ADD PUSH1 0x20 DUP6 LT ISZERO PUSH2 0x107B JUMPI DUP2 SWAP1 POP JUMPDEST PUSH2 0x108F PUSH2 0x1087 DUP6 PUSH2 0xF47 JUMP JUMPDEST DUP4 ADD DUP3 PUSH2 0x102E JUMP JUMPDEST POP POP JUMPDEST POP POP POP JUMP JUMPDEST PUSH1 0x0 DUP3 DUP3 SHR SWAP1 POP SWAP3 SWAP2 POP POP JUMP JUMPDEST PUSH1 0x0 PUSH2 0x10B5 PUSH1 0x0 NOT DUP5 PUSH1 0x8 MUL PUSH2 0x1097 JUMP JUMPDEST NOT DUP1 DUP4 AND SWAP2 POP POP SWAP3 SWAP2 POP POP JUMP JUMPDEST PUSH1 0x0 PUSH2 0x10CE DUP4 DUP4 PUSH2 0x10A4 JUMP JUMPDEST SWAP2 POP DUP3 PUSH1 0x2 MUL DUP3 OR SWAP1 POP SWAP3 SWAP2 POP POP JUMP JUMPDEST PUSH2 0x10E7 DUP3 PUSH2 0xEC7 JUMP JUMPDEST PUSH8 0xFFFFFFFFFFFFFFFF DUP2 GT ISZERO PUSH2 0x1100 JUMPI PUSH2 0x10FF PUSH2 0x9E0 JUMP JUMPDEST JUMPDEST PUSH2 0x110A DUP3 SLOAD PUSH2 0xF01 JUMP JUMPDEST PUSH2 0x1115 DUP3 DUP3 DUP6 PUSH2 0x1051 JUMP JUMPDEST PUSH1 0x0 PUSH1 0x20 SWAP1 POP PUSH1 0x1F DUP4 GT PUSH1 0x1 DUP2 EQ PUSH2 0x1148 JUMPI PUSH1 0x0 DUP5 ISZERO PUSH2 0x1136 JUMPI DUP3 DUP8 ADD MLOAD SWAP1 POP JUMPDEST PUSH2 0x1140 DUP6 DUP3 PUSH2 0x10C2 JUMP JUMPDEST DUP7 SSTORE POP PUSH2 0x11A8 JUMP JUMPDEST PUSH1 0x1F NOT DUP5 AND PUSH2 0x1156 DUP7 PUSH2 0xF32 JUMP JUMPDEST PUSH1 0x0 JUMPDEST DUP3 DUP2 LT ISZERO PUSH2 0x117E JUMPI DUP5 DUP10 ADD MLOAD DUP3 SSTORE PUSH1 0x1 DUP3 ADD SWAP2 POP PUSH1 0x20 DUP6 ADD SWAP5 POP PUSH1 0x20 DUP2 ADD SWAP1 POP PUSH2 0x1159 JUMP JUMPDEST DUP7 DUP4 LT ISZERO PUSH2 0x119B JUMPI DUP5 DUP10 ADD MLOAD PUSH2 0x1197 PUSH1 0x1F DUP10 AND DUP3 PUSH2 0x10A4 JUMP JUMPDEST DUP4 SSTORE POP JUMPDEST PUSH1 0x1 PUSH1 0x2 DUP9 MUL ADD DUP9 SSTORE POP POP POP JUMPDEST POP POP POP POP POP POP JUMP JUMPDEST PUSH1 0x0 DUP3 DUP3 MSTORE PUSH1 0x20 DUP3 ADD SWAP1 POP SWAP3 SWAP2 POP POP JUMP JUMPDEST PUSH32 0x726571756573742069732070656E64696E672E2E2E0000000000000000000000 PUSH1 0x0 DUP3 ADD MSTORE POP JUMP JUMPDEST PUSH1 0x0 PUSH2 0x11F7 PUSH1 0x15 DUP4 PUSH2 0x11B0 JUMP JUMPDEST SWAP2 POP PUSH2 0x1202 DUP3 PUSH2 0x11C1 JUMP JUMPDEST PUSH1 0x20 DUP3 ADD SWAP1 POP SWAP2 SWAP1 POP JUMP JUMPDEST PUSH1 0x0 PUSH1 0x20 DUP3 ADD SWAP1 POP DUP2 DUP2 SUB PUSH1 0x0 DUP4 ADD MSTORE PUSH2 0x1226 DUP2 PUSH2 0x11EA JUMP JUMPDEST SWAP1 POP SWAP2 SWAP1 POP JUMP JUMPDEST PUSH32 0x4F776E61626C653A206E6577206F776E657220697320746865207A65726F2061 PUSH1 0x0 DUP3 ADD MSTORE PUSH32 0x6464726573730000000000000000000000000000000000000000000000000000 PUSH1 0x20 DUP3 ADD MSTORE POP JUMP JUMPDEST PUSH1 0x0 PUSH2 0x1289 PUSH1 0x26 DUP4 PUSH2 0x11B0 JUMP JUMPDEST SWAP2 POP PUSH2 0x1294 DUP3 PUSH2 0x122D JUMP JUMPDEST PUSH1 0x40 DUP3 ADD SWAP1 POP SWAP2 SWAP1 POP JUMP JUMPDEST PUSH1 0x0 PUSH1 0x20 DUP3 ADD SWAP1 POP DUP2 DUP2 SUB PUSH1 0x0 DUP4 ADD MSTORE PUSH2 0x12B8 DUP2 PUSH2 0x127C JUMP JUMPDEST SWAP1 POP SWAP2 SWAP1 POP JUMP JUMPDEST PUSH1 0x0 PUSH2 0x12CA DUP3 PUSH2 0xC13 JUMP JUMPDEST SWAP2 POP PUSH2 0x12D5 DUP4 PUSH2 0xC13 JUMP JUMPDEST SWAP3 POP DUP3 DUP3 SUB SWAP1 POP DUP2 DUP2 GT ISZERO PUSH2 0x12ED JUMPI PUSH2 0x12EC PUSH2 0xE64 JUMP JUMPDEST JUMPDEST SWAP3 SWAP2 POP POP JUMP JUMPDEST PUSH1 0x0 PUSH2 0x12FE DUP3 PUSH2 0xC13 JUMP JUMPDEST SWAP2 POP PUSH2 0x1309 DUP4 PUSH2 0xC13 JUMP JUMPDEST SWAP3 POP DUP3 DUP3 MUL PUSH2 0x1317 DUP2 PUSH2 0xC13 JUMP JUMPDEST SWAP2 POP DUP3 DUP3 DIV DUP5 EQ DUP4 ISZERO OR PUSH2 0x132E JUMPI PUSH2 0x132D PUSH2 0xE64 JUMP JUMPDEST JUMPDEST POP SWAP3 SWAP2 POP POP JUMP JUMPDEST PUSH32 0x4E487B7100000000000000000000000000000000000000000000000000000000 PUSH1 0x0 MSTORE PUSH1 0x12 PUSH1 0x4 MSTORE PUSH1 0x24 PUSH1 0x0 REVERT JUMPDEST PUSH1 0x0 PUSH2 0x136F DUP3 PUSH2 0xC13 JUMP JUMPDEST SWAP2 POP PUSH2 0x137A DUP4 PUSH2 0xC13 JUMP JUMPDEST SWAP3 POP DUP3 PUSH2 0x138A JUMPI PUSH2 0x1389 PUSH2 0x1335 JUMP JUMPDEST JUMPDEST DUP3 DUP3 DIV SWAP1 POP SWAP3 SWAP2 POP POP JUMP JUMPDEST PUSH32 0x4F776E61626C653A2063616C6C6572206973206E6F7420746865206F776E6572 PUSH1 0x0 DUP3 ADD MSTORE POP JUMP JUMPDEST PUSH1 0x0 PUSH2 0x13CB PUSH1 0x20 DUP4 PUSH2 0x11B0 JUMP JUMPDEST SWAP2 POP PUSH2 0x13D6 DUP3 PUSH2 0x1395 JUMP JUMPDEST PUSH1 0x20 DUP3 ADD SWAP1 POP SWAP2 SWAP1 POP JUMP JUMPDEST PUSH1 0x0 PUSH1 0x20 DUP3 ADD SWAP1 POP DUP2 DUP2 SUB PUSH1 0x0 DUP4 ADD MSTORE PUSH2 0x13FA DUP2 PUSH2 0x13BE JUMP JUMPDEST SWAP1 POP SWAP2 SWAP1 POP JUMP INVALID LOG2 PUSH5 0x6970667358 0x22 SLT KECCAK256 CALLER 0xCA DUP4 0xED 0xC4 CALLCODE DUP16 0xE6 0xC0 CODESIZE STATICCALL 0xC8 PC 0xE2 SWAP10 BYTE 0x5D 0x2D MLOAD RETURN 0xCB PUSH21 0x2997C3DDFB891D74C86864736F6C63430008110033 "
				},
				"gasEstimates": {
					"creation": {
						"codeDepositCost": "1035000",
						"executionCost": "infinite",
						"totalCost": "infinite"
					},
					"external": {
						"coreLogic(bytes)": "infinite",
						"execute(address,bytes)": "infinite",
						"getResults(address)": "7326",
						"owner()": "2544",
						"renounceOwnership()": "30398",
						"setLogicData(bytes)": "infinite",
						"transferOwnership(address)": "30788"
					}
				},
				"methodIdentifiers": {
					"coreLogic(bytes)": "f40a7edd",
					"execute(address,bytes)": "1cff79cd",
					"getResults(address)": "50bc4a98",
					"owner()": "8da5cb5b",
					"renounceOwnership()": "715018a6",
					"setLogicData(bytes)": "46267665",
					"transferOwnership(address)": "f2fde38b"
				}
			},
			"storageLayout": {
				"storage": [
					{
						"astId": 7,
						"contract": "contracts/Logic/ReferralLogic.sol:ReferralLogic",
						"label": "_owner",
						"offset": 0,
						"slot": "0",
						"type": "t_address"
					},
					{
						"astId": 153,
						"contract": "contracts/Logic/ReferralLogic.sol:ReferralLogic",
						"label": "_index",
						"offset": 0,
						"slot": "1",
						"type": "t_uint256"
					},
					{
						"astId": 156,
						"contract": "contracts/Logic/ReferralLogic.sol:ReferralLogic",
						"label": "mantissa",
						"offset": 0,
						"slot": "2",
						"type": "t_uint256"
					},
					{
						"astId": 161,
						"contract": "contracts/Logic/ReferralLogic.sol:ReferralLogic",
						"label": "_reqById",
						"offset": 0,
						"slot": "3",
						"type": "t_mapping(t_uint256,t_struct(DataRequest)151_storage)"
					},
					{
						"astId": 165,
						"contract": "contracts/Logic/ReferralLogic.sol:ReferralLogic",
						"label": "_currentReqIdByAddress",
						"offset": 0,
						"slot": "4",
						"type": "t_mapping(t_address,t_uint256)"
					},
					{
						"astId": 169,
						"contract": "contracts/Logic/ReferralLogic.sol:ReferralLogic",
						"label": "_pending",
						"offset": 0,
						"slot": "5",
						"type": "t_mapping(t_uint256,t_bool)"
					},
					{
						"astId": 173,
						"contract": "contracts/Logic/ReferralLogic.sol:ReferralLogic",
						"label": "_failed",
						"offset": 0,
						"slot": "6",
						"type": "t_mapping(t_uint256,t_bool)"
					},
					{
						"astId": 177,
						"contract": "contracts/Logic/ReferralLogic.sol:ReferralLogic",
						"label": "_done",
						"offset": 0,
						"slot": "7",
						"type": "t_mapping(t_uint256,t_bool)"
					},
					{
						"astId": 181,
						"contract": "contracts/Logic/ReferralLogic.sol:ReferralLogic",
						"label": "_results",
						"offset": 0,
						"slot": "8",
						"type": "t_mapping(t_uint256,t_uint256)"
					},
					{
						"astId": 185,
						"contract": "contracts/Logic/ReferralLogic.sol:ReferralLogic",
						"label": "_percent",
						"offset": 0,
						"slot": "9",
						"type": "t_mapping(t_address,t_uint256)"
					},
					{
						"astId": 189,
						"contract": "contracts/Logic/ReferralLogic.sol:ReferralLogic",
						"label": "_multiplier",
						"offset": 0,
						"slot": "10",
						"type": "t_mapping(t_address,t_uint256)"
					}
				],
				"types": {
					"t_address": {
						"encoding": "inplace",
						"label": "address",
						"numberOfBytes": "20"
					},
					"t_bool": {
						"encoding": "inplace",
						"label": "bool",
						"numberOfBytes": "1"
					},
					"t_mapping(t_address,t_uint256)": {
						"encoding": "mapping",
						"key": "t_address",
						"label": "mapping(address => uint256)",
						"numberOfBytes": "32",
						"value": "t_uint256"
					},
					"t_mapping(t_uint256,t_bool)": {
						"encoding": "mapping",
						"key": "t_uint256",
						"label": "mapping(uint256 => bool)",
						"numberOfBytes": "32",
						"value": "t_bool"
					},
					"t_mapping(t_uint256,t_struct(DataRequest)151_storage)": {
						"encoding": "mapping",
						"key": "t_uint256",
						"label": "mapping(uint256 => struct ReferralLogic.DataRequest)",
						"numberOfBytes": "32",
						"value": "t_struct(DataRequest)151_storage"
					},
					"t_mapping(t_uint256,t_uint256)": {
						"encoding": "mapping",
						"key": "t_uint256",
						"label": "mapping(uint256 => uint256)",
						"numberOfBytes": "32",
						"value": "t_uint256"
					},
					"t_string_storage": {
						"encoding": "bytes",
						"label": "string",
						"numberOfBytes": "32"
					},
					"t_struct(DataRequest)151_storage": {
						"encoding": "inplace",
						"label": "struct ReferralLogic.DataRequest",
						"members": [
							{
								"astId": 144,
								"contract": "contracts/Logic/ReferralLogic.sol:ReferralLogic",
								"label": "_sender",
								"offset": 0,
								"slot": "0",
								"type": "t_address"
							},
							{
								"astId": 146,
								"contract": "contracts/Logic/ReferralLogic.sol:ReferralLogic",
								"label": "code",
								"offset": 0,
								"slot": "1",
								"type": "t_string_storage"
							},
							{
								"astId": 148,
								"contract": "contracts/Logic/ReferralLogic.sol:ReferralLogic",
								"label": "_referree",
								"offset": 0,
								"slot": "2",
								"type": "t_address"
							},
							{
								"astId": 150,
								"contract": "contracts/Logic/ReferralLogic.sol:ReferralLogic",
								"label": "_amount",
								"offset": 0,
								"slot": "3",
								"type": "t_uint256"
							}
						],
						"numberOfBytes": "128"
					},
					"t_uint256": {
						"encoding": "inplace",
						"label": "uint256",
						"numberOfBytes": "32"
					}
				}
			},
			"userdoc": {
				"kind": "user",
				"methods": {},
				"version": 1
			}
		}
	}
}