{
  "_format": "hh-sol-artifact-1",
  "contractName": "PoolModule",
  "sourceName": "contracts/modules/pool/PoolModule.sol",
  "abi": [
    {
      "inputs": [],
      "stateMutability": "nonpayable",
      "type": "constructor"
    },
    {
      "anonymous": false,
      "inputs": [
        {
          "indexed": false,
          "internalType": "uint8",
          "name": "version",
          "type": "uint8"
        }
      ],
      "name": "Initialized",
      "type": "event"
    },
    {
      "anonymous": false,
      "inputs": [
        {
          "indexed": false,
          "internalType": "bytes32",
          "name": "_name",
          "type": "bytes32"
        }
      ],
      "name": "ModuleAdded",
      "type": "event"
    },
    {
      "anonymous": false,
      "inputs": [
        {
          "indexed": false,
          "internalType": "bytes32",
          "name": "_name",
          "type": "bytes32"
        }
      ],
      "name": "ModuleRemoved",
      "type": "event"
    },
    {
      "inputs": [],
      "name": "_loaded",
      "outputs": [
        {
          "internalType": "bool",
          "name": "",
          "type": "bool"
        }
      ],
      "stateMutability": "view",
      "type": "function"
    },
    {
      "inputs": [],
      "name": "_moduleAuthor",
      "outputs": [
        {
          "internalType": "bytes32",
          "name": "",
          "type": "bytes32"
        }
      ],
      "stateMutability": "view",
      "type": "function"
    },
    {
      "inputs": [],
      "name": "_moduleContract",
      "outputs": [
        {
          "internalType": "address",
          "name": "",
          "type": "address"
        }
      ],
      "stateMutability": "view",
      "type": "function"
    },
    {
      "inputs": [],
      "name": "_moduleName",
      "outputs": [
        {
          "internalType": "bytes32",
          "name": "",
          "type": "bytes32"
        }
      ],
      "stateMutability": "view",
      "type": "function"
    },
    {
      "inputs": [],
      "name": "_moduleVersion",
      "outputs": [
        {
          "internalType": "string",
          "name": "",
          "type": "string"
        }
      ],
      "stateMutability": "view",
      "type": "function"
    },
    {
      "inputs": [],
      "name": "admin",
      "outputs": [
        {
          "internalType": "address",
          "name": "",
          "type": "address"
        }
      ],
      "stateMutability": "view",
      "type": "function"
    },
    {
      "inputs": [
        {
          "internalType": "string",
          "name": "v1",
          "type": "string"
        },
        {
          "internalType": "string",
          "name": "v2",
          "type": "string"
        }
      ],
      "name": "compareVersions",
      "outputs": [
        {
          "internalType": "bool",
          "name": "",
          "type": "bool"
        }
      ],
      "stateMutability": "pure",
      "type": "function"
    },
    {
      "inputs": [],
      "name": "implementation",
      "outputs": [
        {
          "internalType": "address",
          "name": "",
          "type": "address"
        }
      ],
      "stateMutability": "view",
      "type": "function"
    },
    {
      "inputs": [
        {
          "internalType": "address",
          "name": "_reg",
          "type": "address"
        }
      ],
      "name": "initialize",
      "outputs": [],
      "stateMutability": "nonpayable",
      "type": "function"
    },
    {
      "inputs": [
        {
          "internalType": "bytes32",
          "name": "_name",
          "type": "bytes32"
        },
        {
          "internalType": "string",
          "name": "version",
          "type": "string"
        }
      ],
      "name": "loadModule",
      "outputs": [],
      "stateMutability": "nonpayable",
      "type": "function"
    },
    {
      "inputs": [],
      "name": "moduleAuthor",
      "outputs": [
        {
          "internalType": "bytes32",
          "name": "",
          "type": "bytes32"
        }
      ],
      "stateMutability": "view",
      "type": "function"
    },
    {
      "inputs": [],
      "name": "moduleContract",
      "outputs": [
        {
          "internalType": "address",
          "name": "",
          "type": "address"
        }
      ],
      "stateMutability": "view",
      "type": "function"
    },
    {
      "inputs": [],
      "name": "moduleHash",
      "outputs": [
        {
          "internalType": "bytes32",
          "name": "",
          "type": "bytes32"
        }
      ],
      "stateMutability": "view",
      "type": "function"
    },
    {
      "inputs": [],
      "name": "moduleName",
      "outputs": [
        {
          "internalType": "bytes32",
          "name": "",
          "type": "bytes32"
        }
      ],
      "stateMutability": "view",
      "type": "function"
    },
    {
      "inputs": [],
      "name": "moduleType",
      "outputs": [
        {
          "internalType": "string",
          "name": "",
          "type": "string"
        }
      ],
      "stateMutability": "view",
      "type": "function"
    },
    {
      "inputs": [],
      "name": "moduleVersion",
      "outputs": [
        {
          "internalType": "string",
          "name": "",
          "type": "string"
        }
      ],
      "stateMutability": "view",
      "type": "function"
    },
    {
      "inputs": [],
      "name": "registry",
      "outputs": [
        {
          "internalType": "address",
          "name": "",
          "type": "address"
        }
      ],
      "stateMutability": "view",
      "type": "function"
    }
  ],
  "bytecode": "0x608060405234801561001057600080fd5b5033600760006101000a81548173ffffffffffffffffffffffffffffffffffffffff021916908373ffffffffffffffffffffffffffffffffffffffff160217905550611c09806100616000396000f3fe608060405234801561001057600080fd5b506004361061010b5760003560e01c806393f0899a116100a2578063c4d66de811610071578063c4d66de814610288578063d097d0e0146102a4578063ef4ce6e1146102c2578063f4906944146102e0578063f851a440146102fe5761010b565b806393f0899a14610200578063a6c790391461021e578063b94fc1571461023a578063baa3b4d71461026a5761010b565b80635c60da1b116100de5780635c60da1b146101885780636465e69f146101a65780637b103999146101c45780638aada05d146101e25761010b565b80631fc1caee1461011057806324d4fdec1461012e5780633ea392f31461014c578063488d9f1e1461016a575b600080fd5b61011861031c565b6040516101259190610e16565b60405180910390f35b610136610342565b6040516101439190610e4c565b60405180910390f35b610154610355565b6040516101619190610e80565b60405180910390f35b61017261035f565b60405161017f9190610e80565b60405180910390f35b610190610392565b60405161019d9190610e16565b60405180910390f35b6101ae6103b8565b6040516101bb9190610f2b565b60405180910390f35b6101cc61044a565b6040516101d99190610e16565b60405180910390f35b6101ea610470565b6040516101f79190610e80565b60405180910390f35b610208610476565b6040516102159190610e80565b60405180910390f35b610238600480360381019061023391906110c2565b610480565b005b610254600480360381019061024f919061111e565b610755565b6040516102619190610e4c565b60405180910390f35b6102726107ae565b60405161027f9190610f2b565b60405180910390f35b6102a2600480360381019061029d91906111c2565b610840565b005b6102ac610a01565b6040516102b99190610e16565b60405180910390f35b6102ca610a2b565b6040516102d79190610e80565b60405180910390f35b6102e8610a31565b6040516102f59190610f2b565b60405180910390f35b610306610abf565b6040516103139190610e16565b60405180910390f35b600460009054906101000a900473ffffffffffffffffffffffffffffffffffffffff1681565b600660009054906101000a900460ff1681565b6000600554905090565b60006002546003604051602001610377929190611313565b60405160208183030381529060405280519060200120905090565b600660019054906101000a900473ffffffffffffffffffffffffffffffffffffffff1681565b6060600180546103c79061123f565b80601f01602080910402602001604051908101604052809291908181526020018280546103f39061123f565b80156104405780601f1061041557610100808354040283529160200191610440565b820191906000526020600020905b81548152906001019060200180831161042357829003601f168201915b5050505050905090565b600860009054906101000a900473ffffffffffffffffffffffffffffffffffffffff1681565b60025481565b6000600254905090565b600760009054906101000a900473ffffffffffffffffffffffffffffffffffffffff1673ffffffffffffffffffffffffffffffffffffffff163373ffffffffffffffffffffffffffffffffffffffff1614610510576040517f08c379a000000000000000000000000000000000000000000000000000000000815260040161050790611387565b60405180910390fd5b60001515600660009054906101000a900460ff16151514610566576040517f08c379a000000000000000000000000000000000000000000000000000000000815260040161055d906113f3565b60405180910390fd5b60025482146105aa576040517f08c379a00000000000000000000000000000000000000000000000000000000081526004016105a19061145f565b60405180910390fd5b6000600380546105b99061123f565b80601f01602080910402602001604051908101604052809291908181526020018280546105e59061123f565b80156106325780601f1061060757610100808354040283529160200191610632565b820191906000526020600020905b81548152906001019060200180831161061557829003601f168201915b505050505090503073ffffffffffffffffffffffffffffffffffffffff1663b94fc15783836040518363ffffffff1660e01b815260040161067492919061147f565b602060405180830381865afa158015610691573d6000803e3d6000fd5b505050506040513d601f19601f820116820180604052508101906106b591906114e2565b6106f4576040517f08c379a00000000000000000000000000000000000000000000000000000000081526004016106eb9061155b565b60405180910390fd5b6106fc610ae5565b6001600660006101000a81548160ff0219169083151502179055507fdd60e025a59890bf911edf70d31eb7b8609c81d316897488188d3cb2f2c3ee846002546040516107489190610e80565b60405180910390a1505050565b60008160405160200161076891906115ac565b604051602081830303815290604052805190602001208360405160200161078f91906115ac565b6040516020818303038152906040528051906020012014905092915050565b6060600380546107bd9061123f565b80601f01602080910402602001604051908101604052809291908181526020018280546107e99061123f565b80156108365780601f1061080b57610100808354040283529160200191610836565b820191906000526020600020905b81548152906001019060200180831161081957829003601f168201915b5050505050905090565b60008060019054906101000a900460ff161590508080156108715750600160008054906101000a900460ff1660ff16105b8061089e575061088030610c0a565b15801561089d5750600160008054906101000a900460ff1660ff16145b5b6108dd576040517f08c379a00000000000000000000000000000000000000000000000000000000081526004016108d490611635565b60405180910390fd5b60016000806101000a81548160ff021916908360ff160217905550801561091a576001600060016101000a81548160ff0219169083151502179055505b81600660016101000a81548173ffffffffffffffffffffffffffffffffffffffff021916908373ffffffffffffffffffffffffffffffffffffffff16021790555081600960006101000a81548173ffffffffffffffffffffffffffffffffffffffff021916908373ffffffffffffffffffffffffffffffffffffffff1602179055506109a4610c2d565b80156109fd5760008060016101000a81548160ff0219169083151502179055507f7f26b83ff96e1f2b6a682f133852f6798a09c465da95921460cefb384740249860016040516109f491906116a7565b60405180910390a15b5050565b6000600460009054906101000a900473ffffffffffffffffffffffffffffffffffffffff16905090565b60055481565b60038054610a3e9061123f565b80601f0160208091040260200160405190810160405280929190818152602001828054610a6a9061123f565b8015610ab75780601f10610a8c57610100808354040283529160200191610ab7565b820191906000526020600020905b815481529060010190602001808311610a9a57829003601f168201915b505050505081565b600760009054906101000a900473ffffffffffffffffffffffffffffffffffffffff1681565b600960009054906101000a900473ffffffffffffffffffffffffffffffffffffffff1673ffffffffffffffffffffffffffffffffffffffff166385acd6416002546040518263ffffffff1660e01b8152600401610b429190610e80565b600060405180830381865afa158015610b5f573d6000803e3d6000fd5b505050506040513d6000823e3d601f19601f82011682018060405250810190610b88919061180e565b600a600082015181600001556020820151816001019081610ba991906119ee565b506040820151816002015560608201518160030160006101000a81548173ffffffffffffffffffffffffffffffffffffffff021916908373ffffffffffffffffffffffffffffffffffffffff16021790555060808201518160040155905050565b6000808273ffffffffffffffffffffffffffffffffffffffff163b119050919050565b604051602001610c3c90611b0c565b60405160208183030381529060405280519060200120600281905550600660019054906101000a900473ffffffffffffffffffffffffffffffffffffffff16600460006101000a81548173ffffffffffffffffffffffffffffffffffffffff021916908373ffffffffffffffffffffffffffffffffffffffff160217905550604051602001610cca90611b6d565b604051602081830303815290604052805190602001206005819055506040518060400160405280600181526020017f310000000000000000000000000000000000000000000000000000000000000081525060039081610d2a91906119ee565b50600960009054906101000a900473ffffffffffffffffffffffffffffffffffffffff1673ffffffffffffffffffffffffffffffffffffffff1663f3559371306040518263ffffffff1660e01b8152600401610d869190611ba5565b600060405180830381600087803b158015610da057600080fd5b505af1158015610db4573d6000803e3d6000fd5b505050506000600660006101000a81548160ff021916908315150217905550565b600073ffffffffffffffffffffffffffffffffffffffff82169050919050565b6000610e0082610dd5565b9050919050565b610e1081610df5565b82525050565b6000602082019050610e2b6000830184610e07565b92915050565b60008115159050919050565b610e4681610e31565b82525050565b6000602082019050610e616000830184610e3d565b92915050565b6000819050919050565b610e7a81610e67565b82525050565b6000602082019050610e956000830184610e71565b92915050565b600081519050919050565b600082825260208201905092915050565b60005b83811015610ed5578082015181840152602081019050610eba565b60008484015250505050565b6000601f19601f8301169050919050565b6000610efd82610e9b565b610f078185610ea6565b9350610f17818560208601610eb7565b610f2081610ee1565b840191505092915050565b60006020820190508181036000830152610f458184610ef2565b905092915050565b6000604051905090565b600080fd5b600080fd5b610f6a81610e67565b8114610f7557600080fd5b50565b600081359050610f8781610f61565b92915050565b600080fd5b600080fd5b7f4e487b7100000000000000000000000000000000000000000000000000000000600052604160045260246000fd5b610fcf82610ee1565b810181811067ffffffffffffffff82111715610fee57610fed610f97565b5b80604052505050565b6000611001610f4d565b905061100d8282610fc6565b919050565b600067ffffffffffffffff82111561102d5761102c610f97565b5b61103682610ee1565b9050602081019050919050565b82818337600083830152505050565b600061106561106084611012565b610ff7565b90508281526020810184848401111561108157611080610f92565b5b61108c848285611043565b509392505050565b600082601f8301126110a9576110a8610f8d565b5b81356110b9848260208601611052565b91505092915050565b600080604083850312156110d9576110d8610f57565b5b60006110e785828601610f78565b925050602083013567ffffffffffffffff81111561110857611107610f5c565b5b61111485828601611094565b9150509250929050565b6000806040838503121561113557611134610f57565b5b600083013567ffffffffffffffff81111561115357611152610f5c565b5b61115f85828601611094565b925050602083013567ffffffffffffffff8111156111805761117f610f5c565b5b61118c85828601611094565b9150509250929050565b61119f81610df5565b81146111aa57600080fd5b50565b6000813590506111bc81611196565b92915050565b6000602082840312156111d8576111d7610f57565b5b60006111e6848285016111ad565b91505092915050565b6000819050919050565b61120a61120582610e67565b6111ef565b82525050565b7f4e487b7100000000000000000000000000000000000000000000000000000000600052602260045260246000fd5b6000600282049050600182168061125757607f821691505b60208210810361126a57611269611210565b5b50919050565b600081905092915050565b60008190508160005260206000209050919050565b6000815461129d8161123f565b6112a78186611270565b945060018216600081146112c257600181146112d75761130a565b60ff198316865281151582028601935061130a565b6112e08561127b565b60005b83811015611302578154818901526001820191506020810190506112e3565b838801955050505b50505092915050565b600061131f82856111f9565b60208201915061132f8284611290565b91508190509392505050565b7f6f6e6c79206f776e657220616c6c6f7765640000000000000000000000000000600082015250565b6000611371601283610ea6565b915061137c8261133b565b602082019050919050565b600060208201905081810360008301526113a081611364565b9050919050565b7f616c7265616479206c6f61646564000000000000000000000000000000000000600082015250565b60006113dd600e83610ea6565b91506113e8826113a7565b602082019050919050565b6000602082019050818103600083015261140c816113d0565b9050919050565b7f696e76616c6964206e616d650000000000000000000000000000000000000000600082015250565b6000611449600c83610ea6565b915061145482611413565b602082019050919050565b600060208201905081810360008301526114788161143c565b9050919050565b600060408201905081810360008301526114998185610ef2565b905081810360208301526114ad8184610ef2565b90509392505050565b6114bf81610e31565b81146114ca57600080fd5b50565b6000815190506114dc816114b6565b92915050565b6000602082840312156114f8576114f7610f57565b5b6000611506848285016114cd565b91505092915050565b7f696e76616c69642076657273696f6e0000000000000000000000000000000000600082015250565b6000611545600f83610ea6565b91506115508261150f565b602082019050919050565b6000602082019050818103600083015261157481611538565b9050919050565b600061158682610e9b565b6115908185611270565b93506115a0818560208601610eb7565b80840191505092915050565b60006115b8828461157b565b915081905092915050565b7f496e697469616c697a61626c653a20636f6e747261637420697320616c72656160008201527f647920696e697469616c697a6564000000000000000000000000000000000000602082015250565b600061161f602e83610ea6565b915061162a826115c3565b604082019050919050565b6000602082019050818103600083015261164e81611612565b9050919050565b6000819050919050565b600060ff82169050919050565b6000819050919050565b600061169161168c61168784611655565b61166c565b61165f565b9050919050565b6116a181611676565b82525050565b60006020820190506116bc6000830184611698565b92915050565b600080fd5b600080fd5b6000815190506116db81610f61565b92915050565b60006116f46116ef84611012565b610ff7565b9050828152602081018484840111156117105761170f610f92565b5b61171b848285610eb7565b509392505050565b600082601f83011261173857611737610f8d565b5b81516117488482602086016116e1565b91505092915050565b60008151905061176081611196565b92915050565b600060a0828403121561177c5761177b6116c2565b5b61178660a0610ff7565b90506000611796848285016116cc565b600083015250602082015167ffffffffffffffff8111156117ba576117b96116c7565b5b6117c684828501611723565b60208301525060406117da848285016116cc565b60408301525060606117ee84828501611751565b6060830152506080611802848285016116cc565b60808301525092915050565b60006020828403121561182457611823610f57565b5b600082015167ffffffffffffffff81111561184257611841610f5c565b5b61184e84828501611766565b91505092915050565b60006020601f8301049050919050565b600082821b905092915050565b6000600883026118a47fffffffffffffffffffffffffffffffffffffffffffffffffffffffffffffffff82611867565b6118ae8683611867565b95508019841693508086168417925050509392505050565b6000819050919050565b60006118eb6118e66118e1846118c6565b61166c565b6118c6565b9050919050565b6000819050919050565b611905836118d0565b611919611911826118f2565b848454611874565b825550505050565b600090565b61192e611921565b6119398184846118fc565b505050565b5b8181101561195d57611952600082611926565b60018101905061193f565b5050565b601f8211156119a2576119738161127b565b61197c84611857565b8101602085101561198b578190505b61199f61199785611857565b83018261193e565b50505b505050565b600082821c905092915050565b60006119c5600019846008026119a7565b1980831691505092915050565b60006119de83836119b4565b9150826002028217905092915050565b6119f782610e9b565b67ffffffffffffffff811115611a1057611a0f610f97565b5b611a1a825461123f565b611a25828285611961565b600060209050601f831160018114611a585760008415611a46578287015190505b611a5085826119d2565b865550611ab8565b601f198416611a668661127b565b60005b82811015611a8e57848901518255600182019150602085019450602081019050611a69565b86831015611aab5784890151611aa7601f8916826119b4565b8355505b6001600288020188555050505b505050505050565b7f506f6f6c4d6f64756c6500000000000000000000000000000000000000000000600082015250565b6000611af6600a83611270565b9150611b0182611ac0565b600a82019050919050565b6000611b1782611ae9565b9150819050919050565b7f414b583300000000000000000000000000000000000000000000000000000000600082015250565b6000611b57600483611270565b9150611b6282611b21565b600482019050919050565b6000611b7882611b4a565b9150819050919050565b6000611b8f600a83610ea6565b9150611b9a82611ac0565b602082019050919050565b6000604082019050611bba6000830184610e07565b8181036020830152611bcb81611b82565b90509291505056fea26469706673582212208c66136bf842974a1401f0a1b90b76f3fa54f52c74298a27d519863bf2603d6c64736f6c63430008100033",
  "linkReferences": {},
  "deployedLinkReferences": {}
}