{
  "_format": "hh-sol-artifact-1",
  "contractName": "LabzERC2055",
  "sourceName": "contracts/LabzERC2055/LabzERC2055.sol",
  "abi": [
    {
      "inputs": [
        {
          "internalType": "address",
          "name": "userRegistry",
          "type": "address"
        },
        {
          "internalType": "uint256",
          "name": "initialPrice",
          "type": "uint256"
        },
        {
          "internalType": "address",
          "name": "PricingStorage",
          "type": "address"
        },
        {
          "internalType": "address",
          "name": "_gnosisMulti",
          "type": "address"
        }
      ],
      "stateMutability": "nonpayable",
      "type": "constructor"
    },
    {
      "anonymous": false,
      "inputs": [
        {
          "indexed": true,
          "internalType": "address",
          "name": "owner",
          "type": "address"
        },
        {
          "indexed": true,
          "internalType": "address",
          "name": "spender",
          "type": "address"
        },
        {
          "indexed": false,
          "internalType": "uint256",
          "name": "value",
          "type": "uint256"
        }
      ],
      "name": "Approval",
      "type": "event"
    },
    {
      "anonymous": false,
      "inputs": [
        {
          "indexed": false,
          "internalType": "uint256",
          "name": "priceForOne",
          "type": "uint256"
        },
        {
          "indexed": false,
          "internalType": "uint256",
          "name": "chainId",
          "type": "uint256"
        }
      ],
      "name": "PriceSet",
      "type": "event"
    },
    {
      "anonymous": false,
      "inputs": [
        {
          "indexed": false,
          "internalType": "uint256",
          "name": "lastPrice",
          "type": "uint256"
        },
        {
          "indexed": false,
          "internalType": "uint256",
          "name": "priceForOne",
          "type": "uint256"
        },
        {
          "indexed": false,
          "internalType": "uint256",
          "name": "chainId",
          "type": "uint256"
        }
      ],
      "name": "PriceUpdated",
      "type": "event"
    },
    {
      "anonymous": false,
      "inputs": [
        {
          "indexed": true,
          "internalType": "address",
          "name": "from",
          "type": "address"
        },
        {
          "indexed": true,
          "internalType": "address",
          "name": "to",
          "type": "address"
        },
        {
          "indexed": false,
          "internalType": "uint256",
          "name": "value",
          "type": "uint256"
        }
      ],
      "name": "Transfer",
      "type": "event"
    },
    {
      "inputs": [],
      "name": "_totalSupply",
      "outputs": [
        {
          "internalType": "uint256",
          "name": "",
          "type": "uint256"
        }
      ],
      "stateMutability": "view",
      "type": "function"
    },
    {
      "inputs": [
        {
          "internalType": "address",
          "name": "_owner",
          "type": "address"
        },
        {
          "internalType": "address",
          "name": "spender",
          "type": "address"
        }
      ],
      "name": "allowance",
      "outputs": [
        {
          "internalType": "uint256",
          "name": "",
          "type": "uint256"
        }
      ],
      "stateMutability": "view",
      "type": "function"
    },
    {
      "inputs": [
        {
          "internalType": "address",
          "name": "spender",
          "type": "address"
        },
        {
          "internalType": "uint256",
          "name": "amount",
          "type": "uint256"
        }
      ],
      "name": "approve",
      "outputs": [
        {
          "internalType": "bool",
          "name": "",
          "type": "bool"
        }
      ],
      "stateMutability": "nonpayable",
      "type": "function"
    },
    {
      "inputs": [
        {
          "internalType": "address",
          "name": "_sender",
          "type": "address"
        }
      ],
      "name": "availableBalance",
      "outputs": [
        {
          "internalType": "uint256",
          "name": "",
          "type": "uint256"
        }
      ],
      "stateMutability": "view",
      "type": "function"
    },
    {
      "inputs": [
        {
          "internalType": "address",
          "name": "account",
          "type": "address"
        }
      ],
      "name": "balanceOf",
      "outputs": [
        {
          "internalType": "uint256",
          "name": "",
          "type": "uint256"
        }
      ],
      "stateMutability": "view",
      "type": "function"
    },
    {
      "inputs": [],
      "name": "buy",
      "outputs": [],
      "stateMutability": "payable",
      "type": "function"
    },
    {
      "inputs": [
        {
          "internalType": "address",
          "name": "_sender",
          "type": "address"
        },
        {
          "internalType": "uint256",
          "name": "_val",
          "type": "uint256"
        }
      ],
      "name": "buyVip",
      "outputs": [],
      "stateMutability": "nonpayable",
      "type": "function"
    },
    {
      "inputs": [],
      "name": "currentPrice",
      "outputs": [
        {
          "internalType": "uint256",
          "name": "",
          "type": "uint256"
        }
      ],
      "stateMutability": "nonpayable",
      "type": "function"
    },
    {
      "inputs": [],
      "name": "decimals",
      "outputs": [
        {
          "internalType": "uint8",
          "name": "",
          "type": "uint8"
        }
      ],
      "stateMutability": "view",
      "type": "function"
    },
    {
      "inputs": [
        {
          "internalType": "address",
          "name": "spender",
          "type": "address"
        },
        {
          "internalType": "uint256",
          "name": "subtractedValue",
          "type": "uint256"
        }
      ],
      "name": "decreaseAllowance",
      "outputs": [
        {
          "internalType": "bool",
          "name": "",
          "type": "bool"
        }
      ],
      "stateMutability": "nonpayable",
      "type": "function"
    },
    {
      "inputs": [
        {
          "internalType": "uint256",
          "name": "amount",
          "type": "uint256"
        }
      ],
      "name": "feeEstimate",
      "outputs": [
        {
          "internalType": "uint256",
          "name": "",
          "type": "uint256"
        }
      ],
      "stateMutability": "view",
      "type": "function"
    },
    {
      "inputs": [
        {
          "internalType": "address",
          "name": "spender",
          "type": "address"
        },
        {
          "internalType": "uint256",
          "name": "addedValue",
          "type": "uint256"
        }
      ],
      "name": "increaseAllowance",
      "outputs": [
        {
          "internalType": "bool",
          "name": "",
          "type": "bool"
        }
      ],
      "stateMutability": "nonpayable",
      "type": "function"
    },
    {
      "inputs": [
        {
          "internalType": "address",
          "name": "_sender",
          "type": "address"
        }
      ],
      "name": "isHavingAvailableBalance",
      "outputs": [
        {
          "internalType": "bool",
          "name": "",
          "type": "bool"
        }
      ],
      "stateMutability": "view",
      "type": "function"
    },
    {
      "inputs": [],
      "name": "isLocked",
      "outputs": [
        {
          "internalType": "bool",
          "name": "",
          "type": "bool"
        }
      ],
      "stateMutability": "view",
      "type": "function"
    },
    {
      "inputs": [],
      "name": "lockDuration",
      "outputs": [
        {
          "internalType": "uint256",
          "name": "",
          "type": "uint256"
        }
      ],
      "stateMutability": "view",
      "type": "function"
    },
    {
      "inputs": [
        {
          "internalType": "uint256",
          "name": "until",
          "type": "uint256"
        }
      ],
      "name": "lockToken",
      "outputs": [],
      "stateMutability": "nonpayable",
      "type": "function"
    },
    {
      "inputs": [
        {
          "internalType": "address",
          "name": "",
          "type": "address"
        }
      ],
      "name": "lockedBalance",
      "outputs": [
        {
          "internalType": "uint256",
          "name": "",
          "type": "uint256"
        }
      ],
      "stateMutability": "view",
      "type": "function"
    },
    {
      "inputs": [],
      "name": "lockedUntil",
      "outputs": [
        {
          "internalType": "uint256",
          "name": "",
          "type": "uint256"
        }
      ],
      "stateMutability": "view",
      "type": "function"
    },
    {
      "inputs": [],
      "name": "maxSupply",
      "outputs": [
        {
          "internalType": "uint256",
          "name": "",
          "type": "uint256"
        }
      ],
      "stateMutability": "view",
      "type": "function"
    },
    {
      "inputs": [],
      "name": "multiSignatureWallet",
      "outputs": [
        {
          "internalType": "address",
          "name": "",
          "type": "address"
        }
      ],
      "stateMutability": "view",
      "type": "function"
    },
    {
      "inputs": [],
      "name": "name",
      "outputs": [
        {
          "internalType": "string",
          "name": "",
          "type": "string"
        }
      ],
      "stateMutability": "view",
      "type": "function"
    },
    {
      "inputs": [],
      "name": "owner",
      "outputs": [
        {
          "internalType": "address",
          "name": "",
          "type": "address"
        }
      ],
      "stateMutability": "view",
      "type": "function"
    },
    {
      "inputs": [
        {
          "internalType": "uint256",
          "name": "amount",
          "type": "uint256"
        },
        {
          "internalType": "address",
          "name": "to",
          "type": "address"
        }
      ],
      "name": "safeMint",
      "outputs": [
        {
          "internalType": "bool",
          "name": "",
          "type": "bool"
        }
      ],
      "stateMutability": "nonpayable",
      "type": "function"
    },
    {
      "inputs": [
        {
          "internalType": "address",
          "name": "token",
          "type": "address"
        },
        {
          "internalType": "address",
          "name": "receiver",
          "type": "address"
        },
        {
          "internalType": "uint256",
          "name": "amount",
          "type": "uint256"
        }
      ],
      "name": "safeTransferToken",
      "outputs": [
        {
          "internalType": "bool",
          "name": "transferred",
          "type": "bool"
        }
      ],
      "stateMutability": "nonpayable",
      "type": "function"
    },
    {
      "inputs": [
        {
          "internalType": "uint256",
          "name": "supply",
          "type": "uint256"
        }
      ],
      "name": "setMaxSupply",
      "outputs": [],
      "stateMutability": "nonpayable",
      "type": "function"
    },
    {
      "inputs": [
        {
          "internalType": "uint256",
          "name": "supply",
          "type": "uint256"
        }
      ],
      "name": "setTotalSupply",
      "outputs": [],
      "stateMutability": "nonpayable",
      "type": "function"
    },
    {
      "inputs": [],
      "name": "symbol",
      "outputs": [
        {
          "internalType": "string",
          "name": "",
          "type": "string"
        }
      ],
      "stateMutability": "view",
      "type": "function"
    },
    {
      "inputs": [],
      "name": "totalSupply",
      "outputs": [
        {
          "internalType": "uint256",
          "name": "",
          "type": "uint256"
        }
      ],
      "stateMutability": "view",
      "type": "function"
    },
    {
      "inputs": [
        {
          "internalType": "address",
          "name": "to",
          "type": "address"
        },
        {
          "internalType": "uint256",
          "name": "amount",
          "type": "uint256"
        }
      ],
      "name": "transfer",
      "outputs": [
        {
          "internalType": "bool",
          "name": "",
          "type": "bool"
        }
      ],
      "stateMutability": "nonpayable",
      "type": "function"
    },
    {
      "inputs": [
        {
          "internalType": "address",
          "name": "from",
          "type": "address"
        },
        {
          "internalType": "address",
          "name": "to",
          "type": "address"
        },
        {
          "internalType": "uint256",
          "name": "amount",
          "type": "uint256"
        }
      ],
      "name": "transferFrom",
      "outputs": [
        {
          "internalType": "bool",
          "name": "",
          "type": "bool"
        }
      ],
      "stateMutability": "nonpayable",
      "type": "function"
    },
    {
      "inputs": [],
      "name": "unlockToken",
      "outputs": [],
      "stateMutability": "nonpayable",
      "type": "function"
    },
    {
      "stateMutability": "payable",
      "type": "receive"
    }
  ],
  "bytecode": "0x60806040523480156200001157600080fd5b50604051620036ce380380620036ce8339818101604052810190620000379190620004ed565b6040518060400160405280601581526020017f4c41425a2028414b58332045434f53595354454d2900000000000000000000008152506040518060400160405280600481526020017f4c41425a000000000000000000000000000000000000000000000000000000008152508160009081620000b49190620007cf565b508060019081620000c69190620007cf565b5033600560006101000a81548173ffffffffffffffffffffffffffffffffffffffff021916908373ffffffffffffffffffffffffffffffffffffffff1602179055506012600260006101000a81548160ff021916908360ff16021790555050506001600a819055506200014060006200023e60201b60201c565b6200015e6c03c95a2f0b4856475fe0000000620002db60201b60201c565b80600b60006101000a81548173ffffffffffffffffffffffffffffffffffffffff021916908373ffffffffffffffffffffffffffffffffffffffff1602179055506089461480620001b157506201388146145b15620001e157620001e0670214e8348c4f0000620001d46200037860201b60201c565b6200038560201b60201c565b5b6b1363156bbee3016d70000000600c819055506276a700600d819055506000600b60156101000a81548160ff0219169083151502179055506001600b60166101000a81548160ff0219169083151502179055505050505062000977565b600560009054906101000a900473ffffffffffffffffffffffffffffffffffffffff1673ffffffffffffffffffffffffffffffffffffffff163373ffffffffffffffffffffffffffffffffffffffff1614620002d1576040517f08c379a0000000000000000000000000000000000000000000000000000000008152600401620002c89062000917565b60405180910390fd5b8060038190555050565b600560009054906101000a900473ffffffffffffffffffffffffffffffffffffffff1673ffffffffffffffffffffffffffffffffffffffff163373ffffffffffffffffffffffffffffffffffffffff16146200036e576040517f08c379a0000000000000000000000000000000000000000000000000000000008152600401620003659062000917565b60405180910390fd5b8060048190555050565b6000804690508091505090565b6000620003976200041b60201b60201c565b90506040518060400160405280848152602001600081525081600001600084815260200190815260200160002060008201518160000155602082015181600101559050507fa0f1665b7b659537b52deec61ea64d134a3bccda74c7f4e79f2246e7a8187a8a83836040516200040e9291906200094a565b60405180910390a1505050565b6000807fb2e0faf03e937b56283ca5aaf3bcce7ae30c1cc0c6867497bcc767160d349b0790508091505090565b600080fd5b600073ffffffffffffffffffffffffffffffffffffffff82169050919050565b60006200047a826200044d565b9050919050565b6200048c816200046d565b81146200049857600080fd5b50565b600081519050620004ac8162000481565b92915050565b6000819050919050565b620004c781620004b2565b8114620004d357600080fd5b50565b600081519050620004e781620004bc565b92915050565b600080600080608085870312156200050a576200050962000448565b5b60006200051a878288016200049b565b94505060206200052d87828801620004d6565b935050604062000540878288016200049b565b925050606062000553878288016200049b565b91505092959194509250565b600081519050919050565b7f4e487b7100000000000000000000000000000000000000000000000000000000600052604160045260246000fd5b7f4e487b7100000000000000000000000000000000000000000000000000000000600052602260045260246000fd5b60006002820490506001821680620005e157607f821691505b602082108103620005f757620005f662000599565b5b50919050565b60008190508160005260206000209050919050565b60006020601f8301049050919050565b600082821b905092915050565b600060088302620006617fffffffffffffffffffffffffffffffffffffffffffffffffffffffffffffffff8262000622565b6200066d868362000622565b95508019841693508086168417925050509392505050565b6000819050919050565b6000620006b0620006aa620006a484620004b2565b62000685565b620004b2565b9050919050565b6000819050919050565b620006cc836200068f565b620006e4620006db82620006b7565b8484546200062f565b825550505050565b600090565b620006fb620006ec565b62000708818484620006c1565b505050565b5b81811015620007305762000724600082620006f1565b6001810190506200070e565b5050565b601f8211156200077f576200074981620005fd565b620007548462000612565b8101602085101562000764578190505b6200077c620007738562000612565b8301826200070d565b50505b505050565b600082821c905092915050565b6000620007a46000198460080262000784565b1980831691505092915050565b6000620007bf838362000791565b9150826002028217905092915050565b620007da826200055f565b67ffffffffffffffff811115620007f657620007f56200056a565b5b620008028254620005c8565b6200080f82828562000734565b600060209050601f83116001811462000847576000841562000832578287015190505b6200083e8582620007b1565b865550620008ae565b601f1984166200085786620005fd565b60005b8281101562000881578489015182556001820191506020850194506020810190506200085a565b86831015620008a157848901516200089d601f89168262000791565b8355505b6001600288020188555050505b505050505050565b600082825260208201905092915050565b7f6f6e6c79206f776e65722063616e20646f207468697300000000000000000000600082015250565b6000620008ff601683620008b6565b91506200090c82620008c7565b602082019050919050565b600060208201905081810360008301526200093281620008f0565b9050919050565b6200094481620004b2565b82525050565b600060408201905062000961600083018562000939565b62000970602083018462000939565b9392505050565b612d4780620009876000396000f3fe6080604052600436106101dc5760003560e01c80638da5cb5b11610102578063a9059cbb11610095578063d37b09ea11610064578063d37b09ea14610710578063d5abeb0114610739578063dd62ed3e14610764578063f7ea7a3d146107a1576101e3565b8063a9059cbb1461062e578063b076a18a1461066b578063cc1e752e146106a8578063ce0617ec146106e5576101e3565b8063a0821be3116100d1578063a0821be31461057f578063a457c2d7146105bc578063a4e2d634146105f9578063a6f2ae3a14610624576101e3565b80638da5cb5b146104c157806395d89b41146104ec5780639ae697bf146105175780639d1b464a14610554576101e3565b80632cbacb441161017a57806362bdfceb1161014957806362bdfceb146103f55780636f8b44b01461043257806370a082311461045b57806380f2036314610498576101e3565b80632cbacb4414610325578063313ce56714610362578063395093511461038d5780633eaaf86b146103ca576101e3565b806318160ddd116101b657806318160ddd1461027b57806318a24b5b146102a657806323b872dd146102bd578063243ab804146102fa576101e3565b806304554443146101e857806306fdde0314610213578063095ea7b31461023e576101e3565b366101e357005b600080fd5b3480156101f457600080fd5b506101fd6107ca565b60405161020a9190611fdb565b60405180910390f35b34801561021f57600080fd5b506102286107d0565b6040516102359190612086565b60405180910390f35b34801561024a57600080fd5b5061026560048036038101906102609190612137565b61085e565b6040516102729190612192565b60405180910390f35b34801561028757600080fd5b50610290610905565b60405161029d9190611fdb565b60405180910390f35b3480156102b257600080fd5b506102bb61090f565b005b3480156102c957600080fd5b506102e460048036038101906102df91906121ad565b610971565b6040516102f19190612192565b60405180910390f35b34801561030657600080fd5b5061030f610989565b60405161031c919061220f565b60405180910390f35b34801561033157600080fd5b5061034c6004803603810190610347919061222a565b6109af565b6040516103599190612192565b60405180910390f35b34801561036e57600080fd5b506103776109c3565b6040516103849190612273565b60405180910390f35b34801561039957600080fd5b506103b460048036038101906103af9190612137565b6109d6565b6040516103c19190612192565b60405180910390f35b3480156103d657600080fd5b506103df610a28565b6040516103ec9190611fdb565b60405180910390f35b34801561040157600080fd5b5061041c6004803603810190610417919061228e565b610a2e565b6040516104299190612192565b60405180910390f35b34801561043e57600080fd5b50610459600480360381019061045491906122ce565b610c69565b005b34801561046757600080fd5b50610482600480360381019061047d919061222a565b610d03565b60405161048f9190611fdb565b60405180910390f35b3480156104a457600080fd5b506104bf60048036038101906104ba91906122ce565b610d4c565b005b3480156104cd57600080fd5b506104d6610e57565b6040516104e3919061220f565b60405180910390f35b3480156104f857600080fd5b50610501610e7d565b60405161050e9190612086565b60405180910390f35b34801561052357600080fd5b5061053e6004803603810190610539919061222a565b610f0b565b60405161054b9190611fdb565b60405180910390f35b34801561056057600080fd5b50610569610f23565b6040516105769190611fdb565b60405180910390f35b34801561058b57600080fd5b506105a660048036038101906105a1919061222a565b610f33565b6040516105b39190611fdb565b60405180910390f35b3480156105c857600080fd5b506105e360048036038101906105de9190612137565b610f9a565b6040516105f09190612192565b60405180910390f35b34801561060557600080fd5b5061060e61102c565b60405161061b9190612192565b60405180910390f35b61062c61103f565b005b34801561063a57600080fd5b5061065560048036038101906106509190612137565b6112e9565b6040516106629190612192565b60405180910390f35b34801561067757600080fd5b50610692600480360381019061068d91906121ad565b6113ff565b60405161069f9190612192565b60405180910390f35b3480156106b457600080fd5b506106cf60048036038101906106ca91906122ce565b6114a7565b6040516106dc9190611fdb565b60405180910390f35b3480156106f157600080fd5b506106fa6114ae565b6040516107079190611fdb565b60405180910390f35b34801561071c57600080fd5b5061073760048036038101906107329190612137565b6114b4565b005b34801561074557600080fd5b5061074e611786565b60405161075b9190611fdb565b60405180910390f35b34801561077057600080fd5b5061078b600480360381019061078691906122fb565b61178c565b6040516107989190611fdb565b60405180910390f35b3480156107ad57600080fd5b506107c860048036038101906107c391906122ce565b611813565b005b600d5481565b600080546107dd9061236a565b80601f01602080910402602001604051908101604052809291908181526020018280546108099061236a565b80156108565780601f1061082b57610100808354040283529160200191610856565b820191906000526020600020905b81548152906001019060200180831161083957829003601f168201915b505050505081565b6000600560009054906101000a900473ffffffffffffffffffffffffffffffffffffffff1673ffffffffffffffffffffffffffffffffffffffff163373ffffffffffffffffffffffffffffffffffffffff16146108f0576040517f08c379a00000000000000000000000000000000000000000000000000000000081526004016108e7906123e7565b60405180910390fd5b6108fb3084846118ad565b6001905092915050565b6000600354905090565b600654421115610954576040517f08c379a000000000000000000000000000000000000000000000000000000000815260040161094b90612453565b60405180910390fd5b6000600560146101000a81548160ff021916908315150217905550565b600061097e848484611a76565b600190509392505050565b600b60009054906101000a900473ffffffffffffffffffffffffffffffffffffffff1681565b6000806109bb83610f33565b119050919050565b600260009054906101000a900460ff1681565b600080600560009054906101000a900473ffffffffffffffffffffffffffffffffffffffff169050610a1d818585610a0e858961178c565b610a1891906124a2565b6118ad565b600191505092915050565b60035481565b6000600560009054906101000a900473ffffffffffffffffffffffffffffffffffffffff1673ffffffffffffffffffffffffffffffffffffffff163373ffffffffffffffffffffffffffffffffffffffff1614610ac0576040517f08c379a0000000000000000000000000000000000000000000000000000000008152600401610ab7906123e7565b60405180910390fd5b600454831115610b05576040517f08c379a0000000000000000000000000000000000000000000000000000000008152600401610afc90612548565b60405180910390fd5b60008303610b48576040517f08c379a0000000000000000000000000000000000000000000000000000000008152600401610b3f906125b4565b60405180910390fd5b600060035403610b5e5782600381905550610b78565b8260036000828254610b7091906124a2565b925050819055505b6000600760008473ffffffffffffffffffffffffffffffffffffffff1673ffffffffffffffffffffffffffffffffffffffff1681526020019081526020016000205403610c085782600760008473ffffffffffffffffffffffffffffffffffffffff1673ffffffffffffffffffffffffffffffffffffffff16815260200190815260200160002081905550610c5f565b82600760008473ffffffffffffffffffffffffffffffffffffffff1673ffffffffffffffffffffffffffffffffffffffff1681526020019081526020016000206000828254610c5791906124a2565b925050819055505b6001905092915050565b600560009054906101000a900473ffffffffffffffffffffffffffffffffffffffff1673ffffffffffffffffffffffffffffffffffffffff163373ffffffffffffffffffffffffffffffffffffffff1614610cf9576040517f08c379a0000000000000000000000000000000000000000000000000000000008152600401610cf0906123e7565b60405180910390fd5b8060048190555050565b6000600760008373ffffffffffffffffffffffffffffffffffffffff1673ffffffffffffffffffffffffffffffffffffffff168152602001908152602001600020549050919050565b600560009054906101000a900473ffffffffffffffffffffffffffffffffffffffff1673ffffffffffffffffffffffffffffffffffffffff163373ffffffffffffffffffffffffffffffffffffffff1614610ddc576040517f08c379a0000000000000000000000000000000000000000000000000000000008152600401610dd3906123e7565b60405180910390fd5b60011515600560149054906101000a900460ff16151503610e32576040517f08c379a0000000000000000000000000000000000000000000000000000000008152600401610e2990612620565b60405180910390fd5b6001600560146101000a81548160ff0219169083151502179055508060068190555050565b600560009054906101000a900473ffffffffffffffffffffffffffffffffffffffff1681565b60018054610e8a9061236a565b80601f0160208091040260200160405190810160405280929190818152602001828054610eb69061236a565b8015610f035780601f10610ed857610100808354040283529160200191610f03565b820191906000526020600020905b815481529060010190602001808311610ee657829003601f168201915b505050505081565b60116020528060005260406000206000915090505481565b6000610f2e46611ce2565b905090565b600080601160008473ffffffffffffffffffffffffffffffffffffffff1673ffffffffffffffffffffffffffffffffffffffff1681526020019081526020016000205490506000610f8384610d03565b90508181610f919190612640565b92505050919050565b600080600560009054906101000a900473ffffffffffffffffffffffffffffffffffffffff1690506000610fce828661178c565b905083811015611013576040517f08c379a000000000000000000000000000000000000000000000000000000000815260040161100a906126e6565b60405180910390fd5b61102082868684036118ad565b60019250505092915050565b600560149054906101000a900460ff1681565b6002600a5403611084576040517f08c379a000000000000000000000000000000000000000000000000000000000815260040161107b90612752565b60405180910390fd5b6002600a8190555060011515600b60159054906101000a900460ff161515146110e2576040517f08c379a00000000000000000000000000000000000000000000000000000000081526004016110d9906127be565b60405180910390fd5b60003490506000339050600073ffffffffffffffffffffffffffffffffffffffff168173ffffffffffffffffffffffffffffffffffffffff160361115b576040517f08c379a000000000000000000000000000000000000000000000000000000000815260040161115290612850565b60405180910390fd5b600073__$b9a7b4aa3595a96d3d047e82c26e42ff29$__63a49a52b6846040518263ffffffff1660e01b8152600401611194919061287f565b602060405180830381865af41580156111b1573d6000803e3d6000fd5b505050506040513d601f19601f820116820180604052508101906111d591906128af565b90506000670de0b6b3a764000073__$b9a7b4aa3595a96d3d047e82c26e42ff29$__6399a5d747670de0b6b3a76400008561121091906128dc565b6040518263ffffffff1660e01b815260040161122c919061287f565b602060405180830381865af4158015611249573d6000803e3d6000fd5b505050506040513d601f19601f8201168201806040525081019061126d91906128af565b61127791906128dc565b9050600081670de0b6b3a76400008461129091906128dc565b61129a9190612640565b905060008290506112ab8286610a2e565b506112d881600b60009054906101000a900473ffffffffffffffffffffffffffffffffffffffff16610a2e565b505050505050506001600a81905550565b60006002600a5403611330576040517f08c379a000000000000000000000000000000000000000000000000000000000815260040161132790612752565b60405180910390fd5b6002600a81905550600115156113463384611d16565b1515141580156113a45750600b60009054906101000a900473ffffffffffffffffffffffffffffffffffffffff1673ffffffffffffffffffffffffffffffffffffffff168373ffffffffffffffffffffffffffffffffffffffff1614155b156113e4576040517f08c379a00000000000000000000000000000000000000000000000000000000081526004016113db90612982565b60405180910390fd5b6113ef3084846113ff565b90506001600a8190555092915050565b60008063a9059cbb848460405160240161141a9291906129a2565b6040516020818303038152906040529060e01b6020820180517bffffffffffffffffffffffffffffffffffffffffffffffffffffffff83818316178352505050509050602060008251602084016000896127105a03f13d6000811461148a5760208114611492576000935061149d565b81935061149d565b600051158215171593505b5050509392505050565b6000919050565b60065481565b6002600a54036114f9576040517f08c379a00000000000000000000000000000000000000000000000000000000081526004016114f090612752565b60405180910390fd5b6002600a8190555060011515600b60169054906101000a900460ff16151514611557576040517f08c379a000000000000000000000000000000000000000000000000000000000815260040161154e90612a17565b60405180910390fd5b600c54611562610905565b036115705761156f611f42565b5b600073__$b9a7b4aa3595a96d3d047e82c26e42ff29$__63a49a52b6836040518263ffffffff1660e01b81526004016115a9919061287f565b602060405180830381865af41580156115c6573d6000803e3d6000fd5b505050506040513d601f19601f820116820180604052508101906115ea91906128af565b90506000670de0b6b3a764000073__$b9a7b4aa3595a96d3d047e82c26e42ff29$__6399a5d747670de0b6b3a76400008561162591906128dc565b6040518263ffffffff1660e01b8152600401611641919061287f565b602060405180830381865af415801561165e573d6000803e3d6000fd5b505050506040513d601f19601f8201168201806040525081019061168291906128af565b61168c91906128dc565b9050600081670de0b6b3a7640000846116a591906128dc565b6116af9190612640565b905060008290506116c08287610a2e565b506116ed81600b60009054906101000a900473ffffffffffffffffffffffffffffffffffffffff16610a2e565b5081601160008873ffffffffffffffffffffffffffffffffffffffff1673ffffffffffffffffffffffffffffffffffffffff1681526020019081526020016000208190555042600e60008873ffffffffffffffffffffffffffffffffffffffff1673ffffffffffffffffffffffffffffffffffffffff16815260200190815260200160002081905550505050506001600a819055505050565b60045481565b6000600860008473ffffffffffffffffffffffffffffffffffffffff1673ffffffffffffffffffffffffffffffffffffffff16815260200190815260200160002060008373ffffffffffffffffffffffffffffffffffffffff1673ffffffffffffffffffffffffffffffffffffffff16815260200190815260200160002054905092915050565b600560009054906101000a900473ffffffffffffffffffffffffffffffffffffffff1673ffffffffffffffffffffffffffffffffffffffff163373ffffffffffffffffffffffffffffffffffffffff16146118a3576040517f08c379a000000000000000000000000000000000000000000000000000000000815260040161189a906123e7565b60405180910390fd5b8060038190555050565b600073ffffffffffffffffffffffffffffffffffffffff168373ffffffffffffffffffffffffffffffffffffffff160361191c576040517f08c379a000000000000000000000000000000000000000000000000000000000815260040161191390612aa9565b60405180910390fd5b600073ffffffffffffffffffffffffffffffffffffffff168273ffffffffffffffffffffffffffffffffffffffff160361198b576040517f08c379a000000000000000000000000000000000000000000000000000000000815260040161198290612b3b565b60405180910390fd5b80600860008573ffffffffffffffffffffffffffffffffffffffff1673ffffffffffffffffffffffffffffffffffffffff16815260200190815260200160002060008473ffffffffffffffffffffffffffffffffffffffff1673ffffffffffffffffffffffffffffffffffffffff168152602001908152602001600020819055508173ffffffffffffffffffffffffffffffffffffffff168373ffffffffffffffffffffffffffffffffffffffff167f8c5be1e5ebec7d5bd14f71427d1e84f3dd0314c0f7b2291e5b200ac8c7c3b92583604051611a699190611fdb565b60405180910390a3505050565b600073ffffffffffffffffffffffffffffffffffffffff168373ffffffffffffffffffffffffffffffffffffffff1603611ae5576040517f08c379a0000000000000000000000000000000000000000000000000000000008152600401611adc90612bcd565b60405180910390fd5b600073ffffffffffffffffffffffffffffffffffffffff168273ffffffffffffffffffffffffffffffffffffffff1603611b54576040517f08c379a0000000000000000000000000000000000000000000000000000000008152600401611b4b90612c5f565b60405180910390fd5b6000600760008573ffffffffffffffffffffffffffffffffffffffff1673ffffffffffffffffffffffffffffffffffffffff16815260200190815260200160002054905081811015611bdb576040517f08c379a0000000000000000000000000000000000000000000000000000000008152600401611bd290612cf1565b60405180910390fd5b818103600760008673ffffffffffffffffffffffffffffffffffffffff1673ffffffffffffffffffffffffffffffffffffffff1681526020019081526020016000208190555081600760008573ffffffffffffffffffffffffffffffffffffffff1673ffffffffffffffffffffffffffffffffffffffff1681526020019081526020016000206000828254611c7091906124a2565b925050819055508273ffffffffffffffffffffffffffffffffffffffff168473ffffffffffffffffffffffffffffffffffffffff167fddf252ad1be2c89b69c2b068fc378daa952ba7f163c4a11628f55a4df523b3ef84604051611cd49190611fdb565b60405180910390a350505050565b600080611ced611f95565b905060008160000160008581526020019081526020016000206000015490508092505050919050565b600060011515600f60008573ffffffffffffffffffffffffffffffffffffffff1673ffffffffffffffffffffffffffffffffffffffff16815260200190815260200160002060009054906101000a900460ff161515148015611d8b575060011515600b60149054906101000a900460ff161515145b8015611dee5750601942611d9f91906124a2565b600d54600e60008673ffffffffffffffffffffffffffffffffffffffff1673ffffffffffffffffffffffffffffffffffffffff16815260200190815260200160002054611dec91906124a2565b115b15611e99576000601160008573ffffffffffffffffffffffffffffffffffffffff1673ffffffffffffffffffffffffffffffffffffffff168152602001908152602001600020819055506001601060008573ffffffffffffffffffffffffffffffffffffffff1673ffffffffffffffffffffffffffffffffffffffff16815260200190815260200160002060006101000a81548160ff02191690831515021790555060019050611f3c565b611ea2836109af565b611eaf5760009050611f3c565b611eb883610f33565b821115611ec85760009050611f3c565b60011515601060008573ffffffffffffffffffffffffffffffffffffffff1673ffffffffffffffffffffffffffffffffffffffff16815260200190815260200160002060009054906101000a900460ff16151503611f295760019050611f3c565b600b60149054906101000a900460ff1690505b92915050565b6000600b60166101000a81548160ff0219169083151502179055506001600b60156101000a81548160ff0219169083151502179055506001600b60146101000a81548160ff021916908315150217905550565b6000807fb2e0faf03e937b56283ca5aaf3bcce7ae30c1cc0c6867497bcc767160d349b0790508091505090565b6000819050919050565b611fd581611fc2565b82525050565b6000602082019050611ff06000830184611fcc565b92915050565b600081519050919050565b600082825260208201905092915050565b60005b83811015612030578082015181840152602081019050612015565b60008484015250505050565b6000601f19601f8301169050919050565b600061205882611ff6565b6120628185612001565b9350612072818560208601612012565b61207b8161203c565b840191505092915050565b600060208201905081810360008301526120a0818461204d565b905092915050565b600080fd5b600073ffffffffffffffffffffffffffffffffffffffff82169050919050565b60006120d8826120ad565b9050919050565b6120e8816120cd565b81146120f357600080fd5b50565b600081359050612105816120df565b92915050565b61211481611fc2565b811461211f57600080fd5b50565b6000813590506121318161210b565b92915050565b6000806040838503121561214e5761214d6120a8565b5b600061215c858286016120f6565b925050602061216d85828601612122565b9150509250929050565b60008115159050919050565b61218c81612177565b82525050565b60006020820190506121a76000830184612183565b92915050565b6000806000606084860312156121c6576121c56120a8565b5b60006121d4868287016120f6565b93505060206121e5868287016120f6565b92505060406121f686828701612122565b9150509250925092565b612209816120cd565b82525050565b60006020820190506122246000830184612200565b92915050565b6000602082840312156122405761223f6120a8565b5b600061224e848285016120f6565b91505092915050565b600060ff82169050919050565b61226d81612257565b82525050565b60006020820190506122886000830184612264565b92915050565b600080604083850312156122a5576122a46120a8565b5b60006122b385828601612122565b92505060206122c4858286016120f6565b9150509250929050565b6000602082840312156122e4576122e36120a8565b5b60006122f284828501612122565b91505092915050565b60008060408385031215612312576123116120a8565b5b6000612320858286016120f6565b9250506020612331858286016120f6565b9150509250929050565b7f4e487b7100000000000000000000000000000000000000000000000000000000600052602260045260246000fd5b6000600282049050600182168061238257607f821691505b6020821081036123955761239461233b565b5b50919050565b7f6f6e6c79206f776e65722063616e20646f207468697300000000000000000000600082015250565b60006123d1601683612001565b91506123dc8261239b565b602082019050919050565b60006020820190508181036000830152612400816123c4565b9050919050565b7f63616e6e6f7420756e6c6f636b00000000000000000000000000000000000000600082015250565b600061243d600d83612001565b915061244882612407565b602082019050919050565b6000602082019050818103600083015261246c81612430565b9050919050565b7f4e487b7100000000000000000000000000000000000000000000000000000000600052601160045260246000fd5b60006124ad82611fc2565b91506124b883611fc2565b92508282019050808211156124d0576124cf612473565b5b92915050565b7f616d6f756e7420697320686967686572207468616e20746865206d617820737560008201527f70706c7920284341502900000000000000000000000000000000000000000000602082015250565b6000612532602a83612001565b915061253d826124d6565b604082019050919050565b6000602082019050818103600083015261256181612525565b9050919050565b7f616d6f756e742063616e6e6f74206265207a65726f0000000000000000000000600082015250565b600061259e601583612001565b91506125a982612568565b602082019050919050565b600060208201905081810360008301526125cd81612591565b9050919050565b7f616c7265616479206c6f636b6564000000000000000000000000000000000000600082015250565b600061260a600e83612001565b9150612615826125d4565b602082019050919050565b60006020820190508181036000830152612639816125fd565b9050919050565b600061264b82611fc2565b915061265683611fc2565b925082820390508181111561266e5761266d612473565b5b92915050565b7f45524332303a2064656372656173656420616c6c6f77616e63652062656c6f7760008201527f207a65726f000000000000000000000000000000000000000000000000000000602082015250565b60006126d0602583612001565b91506126db82612674565b604082019050919050565b600060208201905081810360008301526126ff816126c3565b9050919050565b7f5265656e7472616e637947756172643a207265656e7472616e742063616c6c00600082015250565b600061273c601f83612001565b915061274782612706565b602082019050919050565b6000602082019050818103600083015261276b8161272f565b9050919050565b7f4c41425a3a2063616e6e6f742062757920796574000000000000000000000000600082015250565b60006127a8601483612001565b91506127b382612772565b602082019050919050565b600060208201905081810360008301526127d78161279b565b9050919050565b7f4c41425a3a207472616e73666572205f73656e64657220746865207a65726f2060008201527f6164647265737300000000000000000000000000000000000000000000000000602082015250565b600061283a602783612001565b9150612845826127de565b604082019050919050565b600060208201905081810360008301526128698161282d565b9050919050565b61287981611fc2565b82525050565b60006020820190506128946000830184612870565b92915050565b6000815190506128a98161210b565b92915050565b6000602082840312156128c5576128c46120a8565b5b60006128d38482850161289a565b91505092915050565b60006128e782611fc2565b91506128f283611fc2565b9250817fffffffffffffffffffffffffffffffffffffffffffffffffffffffffffffffff048311821515161561292b5761292a612473565b5b828202905092915050565b7f4c41425a3a2063616e6e6f74207472616e736665722079657400000000000000600082015250565b600061296c601983612001565b915061297782612936565b602082019050919050565b6000602082019050818103600083015261299b8161295f565b9050919050565b60006040820190506129b76000830185612200565b6129c46020830184611fcc565b9392505050565b7f4c41425a3a207669702073616c65206973206f76657200000000000000000000600082015250565b6000612a01601683612001565b9150612a0c826129cb565b602082019050919050565b60006020820190508181036000830152612a30816129f4565b9050919050565b7f45524332303a20617070726f76652066726f6d20746865207a65726f2061646460008201527f7265737300000000000000000000000000000000000000000000000000000000602082015250565b6000612a93602483612001565b9150612a9e82612a37565b604082019050919050565b60006020820190508181036000830152612ac281612a86565b9050919050565b7f45524332303a20617070726f766520746f20746865207a65726f20616464726560008201527f7373000000000000000000000000000000000000000000000000000000000000602082015250565b6000612b25602283612001565b9150612b3082612ac9565b604082019050919050565b60006020820190508181036000830152612b5481612b18565b9050919050565b7f45524332303a207472616e736665722066726f6d20746865207a65726f20616460008201527f6472657373000000000000000000000000000000000000000000000000000000602082015250565b6000612bb7602583612001565b9150612bc282612b5b565b604082019050919050565b60006020820190508181036000830152612be681612baa565b9050919050565b7f45524332303a207472616e7366657220746f20746865207a65726f206164647260008201527f6573730000000000000000000000000000000000000000000000000000000000602082015250565b6000612c49602383612001565b9150612c5482612bed565b604082019050919050565b60006020820190508181036000830152612c7881612c3c565b9050919050565b7f45524332303a207472616e7366657220616d6f756e742065786365656473206260008201527f616c616e63650000000000000000000000000000000000000000000000000000602082015250565b6000612cdb602683612001565b9150612ce682612c7f565b604082019050919050565b60006020820190508181036000830152612d0a81612cce565b905091905056fea2646970667358221220f8483823176a9adde18fc092bfe3c2882db9be6dec5f8339fb9f560529e1988b64736f6c63430008100033",
  "linkReferences": {
    "contracts/LabzERC2055/LibMath.sol": {
      "LibMath": [
        {
          "length": 20,
          "start": 6886
        },
        {
          "length": 20,
          "start": 7019
        },
        {
          "length": 20,
          "start": 7931
        },
        {
          "length": 20,
          "start": 8064
        }
      ]
    }
  },
  "deployedLinkReferences": {
    "contracts/LabzERC2055/LibMath.sol": {
      "LibMath": [
        {
          "length": 20,
          "start": 4447
        },
        {
          "length": 20,
          "start": 4580
        },
        {
          "length": 20,
          "start": 5492
        },
        {
          "length": 20,
          "start": 5625
        }
      ]
    }
  }
}