{
  "_format": "hh-sol-artifact-1",
  "contractName": "LabzERC2055",
  "sourceName": "contracts/LabzERC2055/LabzERC2055.sol",
  "abi": [
    {
      "inputs": [
        {
          "internalType": "address",
          "name": "userRegistry",
          "type": "address"
        },
        {
          "internalType": "address",
          "name": "_gnosisMulti",
          "type": "address"
        }
      ],
      "stateMutability": "nonpayable",
      "type": "constructor"
    },
    {
      "anonymous": false,
      "inputs": [
        {
          "indexed": true,
          "internalType": "address",
          "name": "owner",
          "type": "address"
        },
        {
          "indexed": true,
          "internalType": "address",
          "name": "spender",
          "type": "address"
        },
        {
          "indexed": false,
          "internalType": "uint256",
          "name": "value",
          "type": "uint256"
        }
      ],
      "name": "Approval",
      "type": "event"
    },
    {
      "anonymous": false,
      "inputs": [
        {
          "indexed": true,
          "internalType": "address",
          "name": "to",
          "type": "address"
        },
        {
          "indexed": false,
          "internalType": "uint256",
          "name": "labzQty",
          "type": "uint256"
        }
      ],
      "name": "FeeTransactionEvent",
      "type": "event"
    },
    {
      "anonymous": false,
      "inputs": [
        {
          "indexed": true,
          "internalType": "address",
          "name": "buyer",
          "type": "address"
        },
        {
          "indexed": false,
          "internalType": "uint256",
          "name": "matics",
          "type": "uint256"
        },
        {
          "indexed": false,
          "internalType": "uint256",
          "name": "labzQty",
          "type": "uint256"
        }
      ],
      "name": "NewVIPBuyerEvent",
      "type": "event"
    },
    {
      "anonymous": false,
      "inputs": [
        {
          "indexed": false,
          "internalType": "uint256",
          "name": "priceForOne",
          "type": "uint256"
        },
        {
          "indexed": false,
          "internalType": "uint256",
          "name": "chainId",
          "type": "uint256"
        }
      ],
      "name": "PriceSet",
      "type": "event"
    },
    {
      "anonymous": false,
      "inputs": [
        {
          "indexed": false,
          "internalType": "uint256",
          "name": "lastPrice",
          "type": "uint256"
        },
        {
          "indexed": false,
          "internalType": "uint256",
          "name": "priceForOne",
          "type": "uint256"
        },
        {
          "indexed": false,
          "internalType": "uint256",
          "name": "chainId",
          "type": "uint256"
        }
      ],
      "name": "PriceUpdated",
      "type": "event"
    },
    {
      "anonymous": false,
      "inputs": [
        {
          "indexed": true,
          "internalType": "address",
          "name": "from",
          "type": "address"
        },
        {
          "indexed": true,
          "internalType": "address",
          "name": "to",
          "type": "address"
        },
        {
          "indexed": false,
          "internalType": "uint256",
          "name": "value",
          "type": "uint256"
        }
      ],
      "name": "Transfer",
      "type": "event"
    },
    {
      "inputs": [],
      "name": "_totalSupply",
      "outputs": [
        {
          "internalType": "uint256",
          "name": "",
          "type": "uint256"
        }
      ],
      "stateMutability": "view",
      "type": "function"
    },
    {
      "inputs": [
        {
          "internalType": "address",
          "name": "_owner",
          "type": "address"
        },
        {
          "internalType": "address",
          "name": "spender",
          "type": "address"
        }
      ],
      "name": "allowance",
      "outputs": [
        {
          "internalType": "uint256",
          "name": "",
          "type": "uint256"
        }
      ],
      "stateMutability": "view",
      "type": "function"
    },
    {
      "inputs": [
        {
          "internalType": "address",
          "name": "spender",
          "type": "address"
        },
        {
          "internalType": "uint256",
          "name": "amount",
          "type": "uint256"
        }
      ],
      "name": "approve",
      "outputs": [
        {
          "internalType": "bool",
          "name": "",
          "type": "bool"
        }
      ],
      "stateMutability": "nonpayable",
      "type": "function"
    },
    {
      "inputs": [
        {
          "internalType": "address",
          "name": "_sender",
          "type": "address"
        }
      ],
      "name": "availableBalance",
      "outputs": [
        {
          "internalType": "uint256",
          "name": "",
          "type": "uint256"
        }
      ],
      "stateMutability": "view",
      "type": "function"
    },
    {
      "inputs": [
        {
          "internalType": "address",
          "name": "account",
          "type": "address"
        }
      ],
      "name": "balanceOf",
      "outputs": [
        {
          "internalType": "uint256",
          "name": "",
          "type": "uint256"
        }
      ],
      "stateMutability": "view",
      "type": "function"
    },
    {
      "inputs": [],
      "name": "buy",
      "outputs": [],
      "stateMutability": "payable",
      "type": "function"
    },
    {
      "inputs": [],
      "name": "buyVip",
      "outputs": [],
      "stateMutability": "payable",
      "type": "function"
    },
    {
      "inputs": [
        {
          "internalType": "uint256",
          "name": "qty",
          "type": "uint256"
        }
      ],
      "name": "calculateFee",
      "outputs": [
        {
          "internalType": "uint256",
          "name": "",
          "type": "uint256"
        }
      ],
      "stateMutability": "view",
      "type": "function"
    },
    {
      "inputs": [
        {
          "internalType": "uint256",
          "name": "maticsAmount",
          "type": "uint256"
        }
      ],
      "name": "calculateTokenQty",
      "outputs": [
        {
          "internalType": "uint256",
          "name": "",
          "type": "uint256"
        }
      ],
      "stateMutability": "view",
      "type": "function"
    },
    {
      "inputs": [],
      "name": "currentPrice",
      "outputs": [
        {
          "internalType": "uint256",
          "name": "",
          "type": "uint256"
        }
      ],
      "stateMutability": "view",
      "type": "function"
    },
    {
      "inputs": [],
      "name": "decimals",
      "outputs": [
        {
          "internalType": "uint8",
          "name": "",
          "type": "uint8"
        }
      ],
      "stateMutability": "view",
      "type": "function"
    },
    {
      "inputs": [
        {
          "internalType": "address",
          "name": "spender",
          "type": "address"
        },
        {
          "internalType": "uint256",
          "name": "subtractedValue",
          "type": "uint256"
        }
      ],
      "name": "decreaseAllowance",
      "outputs": [
        {
          "internalType": "bool",
          "name": "",
          "type": "bool"
        }
      ],
      "stateMutability": "nonpayable",
      "type": "function"
    },
    {
      "inputs": [
        {
          "internalType": "uint256",
          "name": "amount",
          "type": "uint256"
        }
      ],
      "name": "feeEstimate",
      "outputs": [
        {
          "internalType": "uint256",
          "name": "",
          "type": "uint256"
        }
      ],
      "stateMutability": "view",
      "type": "function"
    },
    {
      "inputs": [
        {
          "internalType": "address",
          "name": "spender",
          "type": "address"
        },
        {
          "internalType": "uint256",
          "name": "addedValue",
          "type": "uint256"
        }
      ],
      "name": "increaseAllowance",
      "outputs": [
        {
          "internalType": "bool",
          "name": "",
          "type": "bool"
        }
      ],
      "stateMutability": "nonpayable",
      "type": "function"
    },
    {
      "inputs": [
        {
          "internalType": "address",
          "name": "_sender",
          "type": "address"
        }
      ],
      "name": "isHavingAvailableBalance",
      "outputs": [
        {
          "internalType": "bool",
          "name": "",
          "type": "bool"
        }
      ],
      "stateMutability": "view",
      "type": "function"
    },
    {
      "inputs": [],
      "name": "isLocked",
      "outputs": [
        {
          "internalType": "bool",
          "name": "",
          "type": "bool"
        }
      ],
      "stateMutability": "view",
      "type": "function"
    },
    {
      "inputs": [],
      "name": "lockDuration",
      "outputs": [
        {
          "internalType": "uint256",
          "name": "",
          "type": "uint256"
        }
      ],
      "stateMutability": "view",
      "type": "function"
    },
    {
      "inputs": [
        {
          "internalType": "uint256",
          "name": "until",
          "type": "uint256"
        }
      ],
      "name": "lockToken",
      "outputs": [],
      "stateMutability": "nonpayable",
      "type": "function"
    },
    {
      "inputs": [
        {
          "internalType": "address",
          "name": "",
          "type": "address"
        }
      ],
      "name": "lockedBalance",
      "outputs": [
        {
          "internalType": "uint256",
          "name": "",
          "type": "uint256"
        }
      ],
      "stateMutability": "view",
      "type": "function"
    },
    {
      "inputs": [],
      "name": "lockedUntil",
      "outputs": [
        {
          "internalType": "uint256",
          "name": "",
          "type": "uint256"
        }
      ],
      "stateMutability": "view",
      "type": "function"
    },
    {
      "inputs": [],
      "name": "maxSupply",
      "outputs": [
        {
          "internalType": "uint256",
          "name": "",
          "type": "uint256"
        }
      ],
      "stateMutability": "view",
      "type": "function"
    },
    {
      "inputs": [],
      "name": "multiSignatureWallet",
      "outputs": [
        {
          "internalType": "address",
          "name": "",
          "type": "address"
        }
      ],
      "stateMutability": "view",
      "type": "function"
    },
    {
      "inputs": [],
      "name": "name",
      "outputs": [
        {
          "internalType": "string",
          "name": "",
          "type": "string"
        }
      ],
      "stateMutability": "view",
      "type": "function"
    },
    {
      "inputs": [],
      "name": "owner",
      "outputs": [
        {
          "internalType": "address",
          "name": "",
          "type": "address"
        }
      ],
      "stateMutability": "view",
      "type": "function"
    },
    {
      "inputs": [
        {
          "internalType": "uint256",
          "name": "amount",
          "type": "uint256"
        },
        {
          "internalType": "address",
          "name": "to",
          "type": "address"
        }
      ],
      "name": "safeMint",
      "outputs": [
        {
          "internalType": "bool",
          "name": "",
          "type": "bool"
        }
      ],
      "stateMutability": "nonpayable",
      "type": "function"
    },
    {
      "inputs": [
        {
          "internalType": "address",
          "name": "token",
          "type": "address"
        },
        {
          "internalType": "address",
          "name": "receiver",
          "type": "address"
        },
        {
          "internalType": "uint256",
          "name": "amount",
          "type": "uint256"
        }
      ],
      "name": "safeTransferToken",
      "outputs": [
        {
          "internalType": "bool",
          "name": "transferred",
          "type": "bool"
        }
      ],
      "stateMutability": "nonpayable",
      "type": "function"
    },
    {
      "inputs": [
        {
          "internalType": "uint256",
          "name": "supply",
          "type": "uint256"
        }
      ],
      "name": "setMaxSupply",
      "outputs": [],
      "stateMutability": "nonpayable",
      "type": "function"
    },
    {
      "inputs": [
        {
          "internalType": "uint256",
          "name": "supply",
          "type": "uint256"
        }
      ],
      "name": "setTotalSupply",
      "outputs": [],
      "stateMutability": "nonpayable",
      "type": "function"
    },
    {
      "inputs": [],
      "name": "symbol",
      "outputs": [
        {
          "internalType": "string",
          "name": "",
          "type": "string"
        }
      ],
      "stateMutability": "view",
      "type": "function"
    },
    {
      "inputs": [],
      "name": "totalSupply",
      "outputs": [
        {
          "internalType": "uint256",
          "name": "",
          "type": "uint256"
        }
      ],
      "stateMutability": "view",
      "type": "function"
    },
    {
      "inputs": [
        {
          "internalType": "address",
          "name": "to",
          "type": "address"
        },
        {
          "internalType": "uint256",
          "name": "amount",
          "type": "uint256"
        }
      ],
      "name": "transfer",
      "outputs": [
        {
          "internalType": "bool",
          "name": "",
          "type": "bool"
        }
      ],
      "stateMutability": "nonpayable",
      "type": "function"
    },
    {
      "inputs": [
        {
          "internalType": "address",
          "name": "from",
          "type": "address"
        },
        {
          "internalType": "address",
          "name": "to",
          "type": "address"
        },
        {
          "internalType": "uint256",
          "name": "amount",
          "type": "uint256"
        }
      ],
      "name": "transferFrom",
      "outputs": [
        {
          "internalType": "bool",
          "name": "",
          "type": "bool"
        }
      ],
      "stateMutability": "nonpayable",
      "type": "function"
    },
    {
      "inputs": [],
      "name": "unlockToken",
      "outputs": [],
      "stateMutability": "nonpayable",
      "type": "function"
    },
    {
      "inputs": [],
      "name": "vipSale",
      "outputs": [
        {
          "internalType": "bool",
          "name": "",
          "type": "bool"
        }
      ],
      "stateMutability": "view",
      "type": "function"
    },
    {
      "inputs": [],
      "name": "vipSupply",
      "outputs": [
        {
          "internalType": "uint256",
          "name": "",
          "type": "uint256"
        }
      ],
      "stateMutability": "view",
      "type": "function"
    },
    {
      "stateMutability": "payable",
      "type": "receive"
    }
  ],
  "bytecode": "0x60806040523480156200001157600080fd5b5060405162003508380380620035088339818101604052810190620000379190620003cf565b6040518060400160405280600481526020017f4c41425a000000000000000000000000000000000000000000000000000000008152506040518060400160405280600481526020017f4c41425a000000000000000000000000000000000000000000000000000000008152508160009081620000b4919062000690565b508060019081620000c6919062000690565b5033600560006101000a81548173ffffffffffffffffffffffffffffffffffffffff021916908373ffffffffffffffffffffffffffffffffffffffff1602179055506012600260006101000a81548160ff021916908360ff16021790555050506001600a819055506200014c6c03c95a2f0b4856475fe00000006200020560201b60201c565b62000169670214e8348c4f000062013881620002a260201b60201c565b80600b60006101000a81548173ffffffffffffffffffffffffffffffffffffffff021916908373ffffffffffffffffffffffffffffffffffffffff1602179055506b1363156bbee3016d70000000600c819055506276a700600d819055506000600b60156101000a81548160ff0219169083151502179055506001600b60166101000a81548160ff021916908315150217905550505062000838565b600560009054906101000a900473ffffffffffffffffffffffffffffffffffffffff1673ffffffffffffffffffffffffffffffffffffffff163373ffffffffffffffffffffffffffffffffffffffff161462000298576040517f08c379a00000000000000000000000000000000000000000000000000000000081526004016200028f90620007d8565b60405180910390fd5b8060048190555050565b6000620002b46200033860201b60201c565b90506040518060400160405280848152602001600081525081600001600084815260200190815260200160002060008201518160000155602082015181600101559050507fa0f1665b7b659537b52deec61ea64d134a3bccda74c7f4e79f2246e7a8187a8a83836040516200032b9291906200080b565b60405180910390a1505050565b6000807fb2e0faf03e937b56283ca5aaf3bcce7ae30c1cc0c6867497bcc767160d349b0790508091505090565b600080fd5b600073ffffffffffffffffffffffffffffffffffffffff82169050919050565b600062000397826200036a565b9050919050565b620003a9816200038a565b8114620003b557600080fd5b50565b600081519050620003c9816200039e565b92915050565b60008060408385031215620003e957620003e862000365565b5b6000620003f985828601620003b8565b92505060206200040c85828601620003b8565b9150509250929050565b600081519050919050565b7f4e487b7100000000000000000000000000000000000000000000000000000000600052604160045260246000fd5b7f4e487b7100000000000000000000000000000000000000000000000000000000600052602260045260246000fd5b600060028204905060018216806200049857607f821691505b602082108103620004ae57620004ad62000450565b5b50919050565b60008190508160005260206000209050919050565b60006020601f8301049050919050565b600082821b905092915050565b600060088302620005187fffffffffffffffffffffffffffffffffffffffffffffffffffffffffffffffff82620004d9565b620005248683620004d9565b95508019841693508086168417925050509392505050565b6000819050919050565b6000819050919050565b6000620005716200056b62000565846200053c565b62000546565b6200053c565b9050919050565b6000819050919050565b6200058d8362000550565b620005a56200059c8262000578565b848454620004e6565b825550505050565b600090565b620005bc620005ad565b620005c981848462000582565b505050565b5b81811015620005f157620005e5600082620005b2565b600181019050620005cf565b5050565b601f82111562000640576200060a81620004b4565b6200061584620004c9565b8101602085101562000625578190505b6200063d6200063485620004c9565b830182620005ce565b50505b505050565b600082821c905092915050565b6000620006656000198460080262000645565b1980831691505092915050565b600062000680838362000652565b9150826002028217905092915050565b6200069b8262000416565b67ffffffffffffffff811115620006b757620006b662000421565b5b620006c382546200047f565b620006d0828285620005f5565b600060209050601f831160018114620007085760008415620006f3578287015190505b620006ff858262000672565b8655506200076f565b601f1984166200071886620004b4565b60005b8281101562000742578489015182556001820191506020850194506020810190506200071b565b868310156200076257848901516200075e601f89168262000652565b8355505b6001600288020188555050505b505050505050565b600082825260208201905092915050565b7f6f6e6c79206f776e65722063616e20646f207468697300000000000000000000600082015250565b6000620007c060168362000777565b9150620007cd8262000788565b602082019050919050565b60006020820190508181036000830152620007f381620007b1565b9050919050565b62000805816200053c565b82525050565b6000604082019050620008226000830185620007fa565b620008316020830184620007fa565b9392505050565b612cc080620008486000396000f3fe6080604052600436106102075760003560e01c80638da5cb5b11610118578063a4e2d634116100a0578063cc1e752e1161006f578063cc1e752e146107ad578063ce0617ec146107ea578063d5abeb0114610815578063dd62ed3e14610840578063f7ea7a3d1461087d5761020e565b8063a4e2d634146106fe578063a6f2ae3a14610729578063a9059cbb14610733578063b076a18a146107705761020e565b80639b2573ee116100e75780639b2573ee146105f15780639d1b464a1461061c578063a0821be314610647578063a457c2d714610684578063a49a52b6146106c15761020e565b80638da5cb5b1461052157806395d89b411461054c57806399a5d747146105775780639ae697bf146105b45761020e565b8063243ab8041161019b5780633eaaf86b1161016a5780633eaaf86b1461042a57806362bdfceb146104555780636f8b44b01461049257806370a08231146104bb57806380f20363146104f85761020e565b8063243ab8041461035a5780632cbacb4414610385578063313ce567146103c257806339509351146103ed5761020e565b8063095ea7b3116101d7578063095ea7b31461029e57806318160ddd146102db57806318a24b5b1461030657806323b872dd1461031d5761020e565b80620eadc614610213578063045544431461023e57806306fdde0314610269578063077e403e146102945761020e565b3661020e57005b600080fd5b34801561021f57600080fd5b506102286108a6565b6040516102359190611fcb565b60405180910390f35b34801561024a57600080fd5b506102536108b9565b6040516102609190611fff565b60405180910390f35b34801561027557600080fd5b5061027e6108bf565b60405161028b91906120aa565b60405180910390f35b61029c61094d565b005b3480156102aa57600080fd5b506102c560048036038101906102c0919061215b565b610bcd565b6040516102d29190611fcb565b60405180910390f35b3480156102e757600080fd5b506102f0610c74565b6040516102fd9190611fff565b60405180910390f35b34801561031257600080fd5b5061031b610c7e565b005b34801561032957600080fd5b50610344600480360381019061033f919061219b565b610ce0565b6040516103519190611fcb565b60405180910390f35b34801561036657600080fd5b5061036f610cf8565b60405161037c91906121fd565b60405180910390f35b34801561039157600080fd5b506103ac60048036038101906103a79190612218565b610d1e565b6040516103b99190611fcb565b60405180910390f35b3480156103ce57600080fd5b506103d7610d32565b6040516103e49190612261565b60405180910390f35b3480156103f957600080fd5b50610414600480360381019061040f919061215b565b610d45565b6040516104219190611fcb565b60405180910390f35b34801561043657600080fd5b5061043f610d97565b60405161044c9190611fff565b60405180910390f35b34801561046157600080fd5b5061047c6004803603810190610477919061227c565b610d9d565b6040516104899190611fcb565b60405180910390f35b34801561049e57600080fd5b506104b960048036038101906104b491906122bc565b610e43565b005b3480156104c757600080fd5b506104e260048036038101906104dd9190612218565b610edd565b6040516104ef9190611fff565b60405180910390f35b34801561050457600080fd5b5061051f600480360381019061051a91906122bc565b610f26565b005b34801561052d57600080fd5b50610536611031565b60405161054391906121fd565b60405180910390f35b34801561055857600080fd5b50610561611057565b60405161056e91906120aa565b60405180910390f35b34801561058357600080fd5b5061059e600480360381019061059991906122bc565b6110e5565b6040516105ab9190611fff565b60405180910390f35b3480156105c057600080fd5b506105db60048036038101906105d69190612218565b611123565b6040516105e89190611fff565b60405180910390f35b3480156105fd57600080fd5b5061060661113b565b6040516106139190611fff565b60405180910390f35b34801561062857600080fd5b50610631611141565b60405161063e9190611fff565b60405180910390f35b34801561065357600080fd5b5061066e60048036038101906106699190612218565b611154565b60405161067b9190611fff565b60405180910390f35b34801561069057600080fd5b506106ab60048036038101906106a6919061215b565b6111bb565b6040516106b89190611fcb565b60405180910390f35b3480156106cd57600080fd5b506106e860048036038101906106e391906122bc565b61124d565b6040516106f59190611fff565b60405180910390f35b34801561070a57600080fd5b50610713611282565b6040516107209190611fcb565b60405180910390f35b610731611295565b005b34801561073f57600080fd5b5061075a6004803603810190610755919061215b565b611461565b6040516107679190611fcb565b60405180910390f35b34801561077c57600080fd5b506107976004803603810190610792919061219b565b611577565b6040516107a49190611fcb565b60405180910390f35b3480156107b957600080fd5b506107d460048036038101906107cf91906122bc565b61161f565b6040516107e19190611fff565b60405180910390f35b3480156107f657600080fd5b506107ff611626565b60405161080c9190611fff565b60405180910390f35b34801561082157600080fd5b5061082a61162c565b6040516108379190611fff565b60405180910390f35b34801561084c57600080fd5b50610867600480360381019061086291906122e9565b611632565b6040516108749190611fff565b60405180910390f35b34801561088957600080fd5b506108a4600480360381019061089f91906122bc565b6116b9565b005b600b60169054906101000a900460ff1681565b600d5481565b600080546108cc90612358565b80601f01602080910402602001604051908101604052809291908181526020018280546108f890612358565b80156109455780601f1061091a57610100808354040283529160200191610945565b820191906000526020600020905b81548152906001019060200180831161092857829003601f168201915b505050505081565b6002600a5403610992576040517f08c379a0000000000000000000000000000000000000000000000000000000008152600401610989906123d5565b60405180910390fd5b6002600a8190555060011515600b60169054906101000a900460ff161515146109f0576040517f08c379a00000000000000000000000000000000000000000000000000000000081526004016109e790612441565b60405180910390fd5b60003490506000339050600c5460035403610a0e57610a0d611753565b5b6000610a198361124d565b90506000610a26826110e5565b905060008183610a369190612490565b90506000829050610a478286610d9d565b50610a7481600b60009054906101000a900473ffffffffffffffffffffffffffffffffffffffff16610d9d565b50600b60009054906101000a900473ffffffffffffffffffffffffffffffffffffffff1673ffffffffffffffffffffffffffffffffffffffff167f3e8ee61563e17dd7884b1076fe83d88f4f6eefdb1b157366a21b5784c166a8f182604051610add9190611fff565b60405180910390a281601160008773ffffffffffffffffffffffffffffffffffffffff1673ffffffffffffffffffffffffffffffffffffffff1681526020019081526020016000208190555042600e60008773ffffffffffffffffffffffffffffffffffffffff1673ffffffffffffffffffffffffffffffffffffffff168152602001908152602001600020819055508473ffffffffffffffffffffffffffffffffffffffff167f5c3aa40f618de4512d7458e27eefad56e9d8bfa5701b6b2dbaed10bf696d137c8786604051610bb59291906124c4565b60405180910390a25050505050506001600a81905550565b6000600560009054906101000a900473ffffffffffffffffffffffffffffffffffffffff1673ffffffffffffffffffffffffffffffffffffffff163373ffffffffffffffffffffffffffffffffffffffff1614610c5f576040517f08c379a0000000000000000000000000000000000000000000000000000000008152600401610c5690612539565b60405180910390fd5b610c6a3084846117a6565b6001905092915050565b6000600354905090565b600654421115610cc3576040517f08c379a0000000000000000000000000000000000000000000000000000000008152600401610cba906125a5565b60405180910390fd5b6000600560146101000a81548160ff021916908315150217905550565b6000610ced84848461196f565b600190509392505050565b600b60009054906101000a900473ffffffffffffffffffffffffffffffffffffffff1681565b600080610d2a83611154565b119050919050565b600260009054906101000a900460ff1681565b600080600560009054906101000a900473ffffffffffffffffffffffffffffffffffffffff169050610d8c818585610d7d8589611632565b610d8791906125c5565b6117a6565b600191505092915050565b60035481565b6000600560009054906101000a900473ffffffffffffffffffffffffffffffffffffffff1673ffffffffffffffffffffffffffffffffffffffff163373ffffffffffffffffffffffffffffffffffffffff1614610e2f576040517f08c379a0000000000000000000000000000000000000000000000000000000008152600401610e2690612539565b60405180910390fd5b610e398284611bdb565b6001905092915050565b600560009054906101000a900473ffffffffffffffffffffffffffffffffffffffff1673ffffffffffffffffffffffffffffffffffffffff163373ffffffffffffffffffffffffffffffffffffffff1614610ed3576040517f08c379a0000000000000000000000000000000000000000000000000000000008152600401610eca90612539565b60405180910390fd5b8060048190555050565b6000600760008373ffffffffffffffffffffffffffffffffffffffff1673ffffffffffffffffffffffffffffffffffffffff168152602001908152602001600020549050919050565b600560009054906101000a900473ffffffffffffffffffffffffffffffffffffffff1673ffffffffffffffffffffffffffffffffffffffff163373ffffffffffffffffffffffffffffffffffffffff1614610fb6576040517f08c379a0000000000000000000000000000000000000000000000000000000008152600401610fad90612539565b60405180910390fd5b60011515600560149054906101000a900460ff1615150361100c576040517f08c379a000000000000000000000000000000000000000000000000000000000815260040161100390612645565b60405180910390fd5b6001600560146101000a81548160ff0219169083151502179055508060068190555050565b600560009054906101000a900473ffffffffffffffffffffffffffffffffffffffff1681565b6001805461106490612358565b80601f016020809104026020016040519081016040528092919081815260200182805461109090612358565b80156110dd5780601f106110b2576101008083540402835291602001916110dd565b820191906000526020600020905b8154815290600101906020018083116110c057829003601f168201915b505050505081565b60008067016345785d8a000090506000620f42409050670de0b6b3a764000082856111109190612665565b61111a91906126ee565b92505050919050565b60116020528060005260406000206000915090505481565b600c5481565b600061114f62013881611d23565b905090565b600080601160008473ffffffffffffffffffffffffffffffffffffffff1673ffffffffffffffffffffffffffffffffffffffff16815260200190815260200160002054905060006111a484610edd565b905081816111b29190612490565b92505050919050565b600080600560009054906101000a900473ffffffffffffffffffffffffffffffffffffffff16905060006111ef8286611632565b905083811015611234576040517f08c379a000000000000000000000000000000000000000000000000000000000815260040161122b90612791565b60405180910390fd5b61124182868684036117a6565b60019250505092915050565b600080670214e8348c4f0000905080670de0b6b3a7640000846112709190612665565b61127a91906126ee565b915050919050565b600560149054906101000a900460ff1681565b6002600a54036112da576040517f08c379a00000000000000000000000000000000000000000000000000000000081526004016112d1906123d5565b60405180910390fd5b6002600a8190555060011515600b60159054906101000a900460ff16151514611338576040517f08c379a000000000000000000000000000000000000000000000000000000000815260040161132f906127fd565b60405180910390fd5b60003490506000339050600073ffffffffffffffffffffffffffffffffffffffff168173ffffffffffffffffffffffffffffffffffffffff16036113b1576040517f08c379a00000000000000000000000000000000000000000000000000000000081526004016113a89061288f565b60405180910390fd5b60006113bc8361124d565b90506000670de0b6b3a76400006113e5670de0b6b3a7640000846113e09190612665565b6110e5565b6113ef9190612665565b9050600081670de0b6b3a7640000846114089190612665565b6114129190612490565b905060008290506114238286610d9d565b5061145081600b60009054906101000a900473ffffffffffffffffffffffffffffffffffffffff16610d9d565b505050505050506001600a81905550565b60006002600a54036114a8576040517f08c379a000000000000000000000000000000000000000000000000000000000815260040161149f906123d5565b60405180910390fd5b6002600a81905550600115156114be3384611d57565b15151415801561151c5750600b60009054906101000a900473ffffffffffffffffffffffffffffffffffffffff1673ffffffffffffffffffffffffffffffffffffffff168373ffffffffffffffffffffffffffffffffffffffff1614155b1561155c576040517f08c379a0000000000000000000000000000000000000000000000000000000008152600401611553906128fb565b60405180910390fd5b611567308484611577565b90506001600a8190555092915050565b60008063a9059cbb848460405160240161159292919061291b565b6040516020818303038152906040529060e01b6020820180517bffffffffffffffffffffffffffffffffffffffffffffffffffffffff83818316178352505050509050602060008251602084016000896127105a03f13d60008114611602576020811461160a5760009350611615565b819350611615565b600051158215171593505b5050509392505050565b6000919050565b60065481565b60045481565b6000600860008473ffffffffffffffffffffffffffffffffffffffff1673ffffffffffffffffffffffffffffffffffffffff16815260200190815260200160002060008373ffffffffffffffffffffffffffffffffffffffff1673ffffffffffffffffffffffffffffffffffffffff16815260200190815260200160002054905092915050565b600560009054906101000a900473ffffffffffffffffffffffffffffffffffffffff1673ffffffffffffffffffffffffffffffffffffffff163373ffffffffffffffffffffffffffffffffffffffff1614611749576040517f08c379a000000000000000000000000000000000000000000000000000000000815260040161174090612539565b60405180910390fd5b8060038190555050565b6000600b60166101000a81548160ff0219169083151502179055506001600b60156101000a81548160ff0219169083151502179055506001600b60146101000a81548160ff021916908315150217905550565b600073ffffffffffffffffffffffffffffffffffffffff168373ffffffffffffffffffffffffffffffffffffffff1603611815576040517f08c379a000000000000000000000000000000000000000000000000000000000815260040161180c906129b6565b60405180910390fd5b600073ffffffffffffffffffffffffffffffffffffffff168273ffffffffffffffffffffffffffffffffffffffff1603611884576040517f08c379a000000000000000000000000000000000000000000000000000000000815260040161187b90612a48565b60405180910390fd5b80600860008573ffffffffffffffffffffffffffffffffffffffff1673ffffffffffffffffffffffffffffffffffffffff16815260200190815260200160002060008473ffffffffffffffffffffffffffffffffffffffff1673ffffffffffffffffffffffffffffffffffffffff168152602001908152602001600020819055508173ffffffffffffffffffffffffffffffffffffffff168373ffffffffffffffffffffffffffffffffffffffff167f8c5be1e5ebec7d5bd14f71427d1e84f3dd0314c0f7b2291e5b200ac8c7c3b925836040516119629190611fff565b60405180910390a3505050565b600073ffffffffffffffffffffffffffffffffffffffff168373ffffffffffffffffffffffffffffffffffffffff16036119de576040517f08c379a00000000000000000000000000000000000000000000000000000000081526004016119d590612ada565b60405180910390fd5b600073ffffffffffffffffffffffffffffffffffffffff168273ffffffffffffffffffffffffffffffffffffffff1603611a4d576040517f08c379a0000000000000000000000000000000000000000000000000000000008152600401611a4490612b6c565b60405180910390fd5b6000600760008573ffffffffffffffffffffffffffffffffffffffff1673ffffffffffffffffffffffffffffffffffffffff16815260200190815260200160002054905081811015611ad4576040517f08c379a0000000000000000000000000000000000000000000000000000000008152600401611acb90612bfe565b60405180910390fd5b818103600760008673ffffffffffffffffffffffffffffffffffffffff1673ffffffffffffffffffffffffffffffffffffffff1681526020019081526020016000208190555081600760008573ffffffffffffffffffffffffffffffffffffffff1673ffffffffffffffffffffffffffffffffffffffff1681526020019081526020016000206000828254611b6991906125c5565b925050819055508273ffffffffffffffffffffffffffffffffffffffff168473ffffffffffffffffffffffffffffffffffffffff167fddf252ad1be2c89b69c2b068fc378daa952ba7f163c4a11628f55a4df523b3ef84604051611bcd9190611fff565b60405180910390a350505050565b600073ffffffffffffffffffffffffffffffffffffffff168273ffffffffffffffffffffffffffffffffffffffff1603611c4a576040517f08c379a0000000000000000000000000000000000000000000000000000000008152600401611c4190612c6a565b60405180910390fd5b8060036000828254611c5c91906125c5565b9250508190555080600760008473ffffffffffffffffffffffffffffffffffffffff1673ffffffffffffffffffffffffffffffffffffffff1681526020019081526020016000206000828254611cb291906125c5565b925050819055508173ffffffffffffffffffffffffffffffffffffffff16600073ffffffffffffffffffffffffffffffffffffffff167fddf252ad1be2c89b69c2b068fc378daa952ba7f163c4a11628f55a4df523b3ef83604051611d179190611fff565b60405180910390a35050565b600080611d2e611f83565b905060008160000160008581526020019081526020016000206000015490508092505050919050565b600060011515600f60008573ffffffffffffffffffffffffffffffffffffffff1673ffffffffffffffffffffffffffffffffffffffff16815260200190815260200160002060009054906101000a900460ff161515148015611dcc575060011515600b60149054906101000a900460ff161515145b8015611e2f5750601942611de091906125c5565b600d54600e60008673ffffffffffffffffffffffffffffffffffffffff1673ffffffffffffffffffffffffffffffffffffffff16815260200190815260200160002054611e2d91906125c5565b115b15611eda576000601160008573ffffffffffffffffffffffffffffffffffffffff1673ffffffffffffffffffffffffffffffffffffffff168152602001908152602001600020819055506001601060008573ffffffffffffffffffffffffffffffffffffffff1673ffffffffffffffffffffffffffffffffffffffff16815260200190815260200160002060006101000a81548160ff02191690831515021790555060019050611f7d565b611ee383610d1e565b611ef05760009050611f7d565b611ef983611154565b821115611f095760009050611f7d565b60011515601060008573ffffffffffffffffffffffffffffffffffffffff1673ffffffffffffffffffffffffffffffffffffffff16815260200190815260200160002060009054906101000a900460ff16151503611f6a5760019050611f7d565b600b60149054906101000a900460ff1690505b92915050565b6000807fb2e0faf03e937b56283ca5aaf3bcce7ae30c1cc0c6867497bcc767160d349b0790508091505090565b60008115159050919050565b611fc581611fb0565b82525050565b6000602082019050611fe06000830184611fbc565b92915050565b6000819050919050565b611ff981611fe6565b82525050565b60006020820190506120146000830184611ff0565b92915050565b600081519050919050565b600082825260208201905092915050565b60005b83811015612054578082015181840152602081019050612039565b60008484015250505050565b6000601f19601f8301169050919050565b600061207c8261201a565b6120868185612025565b9350612096818560208601612036565b61209f81612060565b840191505092915050565b600060208201905081810360008301526120c48184612071565b905092915050565b600080fd5b600073ffffffffffffffffffffffffffffffffffffffff82169050919050565b60006120fc826120d1565b9050919050565b61210c816120f1565b811461211757600080fd5b50565b60008135905061212981612103565b92915050565b61213881611fe6565b811461214357600080fd5b50565b6000813590506121558161212f565b92915050565b60008060408385031215612172576121716120cc565b5b60006121808582860161211a565b925050602061219185828601612146565b9150509250929050565b6000806000606084860312156121b4576121b36120cc565b5b60006121c28682870161211a565b93505060206121d38682870161211a565b92505060406121e486828701612146565b9150509250925092565b6121f7816120f1565b82525050565b600060208201905061221260008301846121ee565b92915050565b60006020828403121561222e5761222d6120cc565b5b600061223c8482850161211a565b91505092915050565b600060ff82169050919050565b61225b81612245565b82525050565b60006020820190506122766000830184612252565b92915050565b60008060408385031215612293576122926120cc565b5b60006122a185828601612146565b92505060206122b28582860161211a565b9150509250929050565b6000602082840312156122d2576122d16120cc565b5b60006122e084828501612146565b91505092915050565b60008060408385031215612300576122ff6120cc565b5b600061230e8582860161211a565b925050602061231f8582860161211a565b9150509250929050565b7f4e487b7100000000000000000000000000000000000000000000000000000000600052602260045260246000fd5b6000600282049050600182168061237057607f821691505b60208210810361238357612382612329565b5b50919050565b7f5265656e7472616e637947756172643a207265656e7472616e742063616c6c00600082015250565b60006123bf601f83612025565b91506123ca82612389565b602082019050919050565b600060208201905081810360008301526123ee816123b2565b9050919050565b7f4c41425a3a207669702073616c65206973206f76657200000000000000000000600082015250565b600061242b601683612025565b9150612436826123f5565b602082019050919050565b6000602082019050818103600083015261245a8161241e565b9050919050565b7f4e487b7100000000000000000000000000000000000000000000000000000000600052601160045260246000fd5b600061249b82611fe6565b91506124a683611fe6565b92508282039050818111156124be576124bd612461565b5b92915050565b60006040820190506124d96000830185611ff0565b6124e66020830184611ff0565b9392505050565b7f6f6e6c79206f776e65722063616e20646f207468697300000000000000000000600082015250565b6000612523601683612025565b915061252e826124ed565b602082019050919050565b6000602082019050818103600083015261255281612516565b9050919050565b7f63616e6e6f7420756e6c6f636b00000000000000000000000000000000000000600082015250565b600061258f600d83612025565b915061259a82612559565b602082019050919050565b600060208201905081810360008301526125be81612582565b9050919050565b60006125d082611fe6565b91506125db83611fe6565b92508282019050808211156125f3576125f2612461565b5b92915050565b7f616c7265616479206c6f636b6564000000000000000000000000000000000000600082015250565b600061262f600e83612025565b915061263a826125f9565b602082019050919050565b6000602082019050818103600083015261265e81612622565b9050919050565b600061267082611fe6565b915061267b83611fe6565b9250817fffffffffffffffffffffffffffffffffffffffffffffffffffffffffffffffff04831182151516156126b4576126b3612461565b5b828202905092915050565b7f4e487b7100000000000000000000000000000000000000000000000000000000600052601260045260246000fd5b60006126f982611fe6565b915061270483611fe6565b925082612714576127136126bf565b5b828204905092915050565b7f45524332303a2064656372656173656420616c6c6f77616e63652062656c6f7760008201527f207a65726f000000000000000000000000000000000000000000000000000000602082015250565b600061277b602583612025565b91506127868261271f565b604082019050919050565b600060208201905081810360008301526127aa8161276e565b9050919050565b7f4c41425a3a2063616e6e6f742062757920796574000000000000000000000000600082015250565b60006127e7601483612025565b91506127f2826127b1565b602082019050919050565b60006020820190508181036000830152612816816127da565b9050919050565b7f4c41425a3a207472616e73666572205f73656e64657220746865207a65726f2060008201527f6164647265737300000000000000000000000000000000000000000000000000602082015250565b6000612879602783612025565b91506128848261281d565b604082019050919050565b600060208201905081810360008301526128a88161286c565b9050919050565b7f4c41425a3a2063616e6e6f74207472616e736665722079657400000000000000600082015250565b60006128e5601983612025565b91506128f0826128af565b602082019050919050565b60006020820190508181036000830152612914816128d8565b9050919050565b600060408201905061293060008301856121ee565b61293d6020830184611ff0565b9392505050565b7f45524332303a20617070726f76652066726f6d20746865207a65726f2061646460008201527f7265737300000000000000000000000000000000000000000000000000000000602082015250565b60006129a0602483612025565b91506129ab82612944565b604082019050919050565b600060208201905081810360008301526129cf81612993565b9050919050565b7f45524332303a20617070726f766520746f20746865207a65726f20616464726560008201527f7373000000000000000000000000000000000000000000000000000000000000602082015250565b6000612a32602283612025565b9150612a3d826129d6565b604082019050919050565b60006020820190508181036000830152612a6181612a25565b9050919050565b7f45524332303a207472616e736665722066726f6d20746865207a65726f20616460008201527f6472657373000000000000000000000000000000000000000000000000000000602082015250565b6000612ac4602583612025565b9150612acf82612a68565b604082019050919050565b60006020820190508181036000830152612af381612ab7565b9050919050565b7f45524332303a207472616e7366657220746f20746865207a65726f206164647260008201527f6573730000000000000000000000000000000000000000000000000000000000602082015250565b6000612b56602383612025565b9150612b6182612afa565b604082019050919050565b60006020820190508181036000830152612b8581612b49565b9050919050565b7f45524332303a207472616e7366657220616d6f756e742065786365656473206260008201527f616c616e63650000000000000000000000000000000000000000000000000000602082015250565b6000612be8602683612025565b9150612bf382612b8c565b604082019050919050565b60006020820190508181036000830152612c1781612bdb565b9050919050565b7f45524332303a206d696e7420746f20746865207a65726f206164647265737300600082015250565b6000612c54601f83612025565b9150612c5f82612c1e565b602082019050919050565b60006020820190508181036000830152612c8381612c47565b905091905056fea2646970667358221220ea6e2bce574e27aef0323c3734e593627a86495d5853f44c42811c9a8e95817864736f6c63430008100033",
  "linkReferences": {},
  "deployedLinkReferences": {}
}