{
  "_format": "hh-sol-artifact-1",
  "contractName": "EIP1155UHolder",
  "sourceName": "contracts/tokens/EIP1155U/EIP1155UHolder.sol",
  "abi": [
    {
      "inputs": [
        {
          "internalType": "address",
          "name": "",
          "type": "address"
        },
        {
          "internalType": "address",
          "name": "",
          "type": "address"
        },
        {
          "internalType": "bytes32[]",
          "name": "",
          "type": "bytes32[]"
        },
        {
          "internalType": "bytes",
          "name": "",
          "type": "bytes"
        }
      ],
      "name": "onEIP1155UBatchReceived",
      "outputs": [
        {
          "internalType": "bytes4",
          "name": "",
          "type": "bytes4"
        }
      ],
      "stateMutability": "nonpayable",
      "type": "function"
    },
    {
      "inputs": [
        {
          "internalType": "address",
          "name": "",
          "type": "address"
        },
        {
          "internalType": "address",
          "name": "",
          "type": "address"
        },
        {
          "internalType": "bytes32",
          "name": "",
          "type": "bytes32"
        },
        {
          "internalType": "bytes",
          "name": "",
          "type": "bytes"
        }
      ],
      "name": "onEIP1155UReceived",
      "outputs": [
        {
          "internalType": "bytes4",
          "name": "",
          "type": "bytes4"
        }
      ],
      "stateMutability": "nonpayable",
      "type": "function"
    },
    {
      "inputs": [
        {
          "internalType": "bytes4",
          "name": "interfaceId",
          "type": "bytes4"
        }
      ],
      "name": "supportsInterface",
      "outputs": [
        {
          "internalType": "bool",
          "name": "",
          "type": "bool"
        }
      ],
      "stateMutability": "view",
      "type": "function"
    }
  ],
  "bytecode": "0x608060405234801561001057600080fd5b50610736806100206000396000f3fe608060405234801561001057600080fd5b50600436106100415760003560e01c806301ffc9a7146100465780630e407b2014610076578063d1fe8a12146100a6575b600080fd5b610060600480360381019061005b919061024f565b6100d6565b60405161006d9190610297565b60405180910390f35b610090600480360381019061008b919061048c565b610150565b60405161009d919061051e565b60405180910390f35b6100c060048036038101906100bb919061065c565b610164565b6040516100cd919061051e565b60405180910390f35b60007fdfbef132000000000000000000000000000000000000000000000000000000007bffffffffffffffffffffffffffffffffffffffffffffffffffffffff1916827bffffffffffffffffffffffffffffffffffffffffffffffffffffffff19161480610149575061014882610179565b5b9050919050565b6000630e407b2060e01b9050949350505050565b600063d1fe8a1260e01b905095945050505050565b60007f01ffc9a7000000000000000000000000000000000000000000000000000000007bffffffffffffffffffffffffffffffffffffffffffffffffffffffff1916827bffffffffffffffffffffffffffffffffffffffffffffffffffffffff1916149050919050565b6000604051905090565b600080fd5b600080fd5b60007fffffffff0000000000000000000000000000000000000000000000000000000082169050919050565b61022c816101f7565b811461023757600080fd5b50565b60008135905061024981610223565b92915050565b600060208284031215610265576102646101ed565b5b60006102738482850161023a565b91505092915050565b60008115159050919050565b6102918161027c565b82525050565b60006020820190506102ac6000830184610288565b92915050565b600073ffffffffffffffffffffffffffffffffffffffff82169050919050565b60006102dd826102b2565b9050919050565b6102ed816102d2565b81146102f857600080fd5b50565b60008135905061030a816102e4565b92915050565b6000819050919050565b61032381610310565b811461032e57600080fd5b50565b6000813590506103408161031a565b92915050565b600080fd5b600080fd5b6000601f19601f8301169050919050565b7f4e487b7100000000000000000000000000000000000000000000000000000000600052604160045260246000fd5b61039982610350565b810181811067ffffffffffffffff821117156103b8576103b7610361565b5b80604052505050565b60006103cb6101e3565b90506103d78282610390565b919050565b600067ffffffffffffffff8211156103f7576103f6610361565b5b61040082610350565b9050602081019050919050565b82818337600083830152505050565b600061042f61042a846103dc565b6103c1565b90508281526020810184848401111561044b5761044a61034b565b5b61045684828561040d565b509392505050565b600082601f83011261047357610472610346565b5b813561048384826020860161041c565b91505092915050565b600080600080608085870312156104a6576104a56101ed565b5b60006104b4878288016102fb565b94505060206104c5878288016102fb565b93505060406104d687828801610331565b925050606085013567ffffffffffffffff8111156104f7576104f66101f2565b5b6105038782880161045e565b91505092959194509250565b610518816101f7565b82525050565b6000602082019050610533600083018461050f565b92915050565b600067ffffffffffffffff82111561055457610553610361565b5b602082029050602081019050919050565b600080fd5b600061057d61057884610539565b6103c1565b905080838252602082019050602084028301858111156105a05761059f610565565b5b835b818110156105c957806105b58882610331565b8452602084019350506020810190506105a2565b5050509392505050565b600082601f8301126105e8576105e7610346565b5b81356105f884826020860161056a565b91505092915050565b600080fd5b60008083601f84011261061c5761061b610346565b5b8235905067ffffffffffffffff81111561063957610638610601565b5b60208301915083600182028301111561065557610654610565565b5b9250929050565b600080600080600060808688031215610678576106776101ed565b5b6000610686888289016102fb565b9550506020610697888289016102fb565b945050604086013567ffffffffffffffff8111156106b8576106b76101f2565b5b6106c4888289016105d3565b935050606086013567ffffffffffffffff8111156106e5576106e46101f2565b5b6106f188828901610606565b9250925050929550929590935056fea2646970667358221220f51ff04f4d06f8f81201b5b811a997461baa5c3945d8c0427ab2b216a023937b64736f6c63430008100033",
  "linkReferences": {},
  "deployedLinkReferences": {}
}