{
  "_format": "hh-sol-artifact-1",
  "contractName": "ERC2055Implementation",
  "sourceName": "contracts/tokens/ERC2055/mock/ERC2055Implementation.sol",
  "abi": [
    {
      "inputs": [
        {
          "internalType": "string",
          "name": "_name",
          "type": "string"
        },
        {
          "internalType": "string",
          "name": "_symbol",
          "type": "string"
        }
      ],
      "stateMutability": "nonpayable",
      "type": "constructor"
    },
    {
      "anonymous": false,
      "inputs": [
        {
          "indexed": true,
          "internalType": "address",
          "name": "owner",
          "type": "address"
        },
        {
          "indexed": true,
          "internalType": "address",
          "name": "spender",
          "type": "address"
        },
        {
          "indexed": false,
          "internalType": "uint256",
          "name": "value",
          "type": "uint256"
        }
      ],
      "name": "Approval",
      "type": "event"
    },
    {
      "anonymous": false,
      "inputs": [
        {
          "indexed": true,
          "internalType": "address",
          "name": "underlying",
          "type": "address"
        },
        {
          "indexed": false,
          "internalType": "string",
          "name": "name",
          "type": "string"
        },
        {
          "indexed": false,
          "internalType": "string",
          "name": "symbol",
          "type": "string"
        }
      ],
      "name": "ERC2055Minted",
      "type": "event"
    },
    {
      "anonymous": false,
      "inputs": [
        {
          "indexed": true,
          "internalType": "address",
          "name": "from",
          "type": "address"
        },
        {
          "indexed": true,
          "internalType": "address",
          "name": "to",
          "type": "address"
        },
        {
          "indexed": false,
          "internalType": "uint256",
          "name": "value",
          "type": "uint256"
        }
      ],
      "name": "Transfer",
      "type": "event"
    },
    {
      "inputs": [
        {
          "internalType": "uint256",
          "name": "",
          "type": "uint256"
        }
      ],
      "name": "_decimals",
      "outputs": [
        {
          "internalType": "uint8",
          "name": "",
          "type": "uint8"
        }
      ],
      "stateMutability": "view",
      "type": "function"
    },
    {
      "inputs": [
        {
          "internalType": "address",
          "name": "",
          "type": "address"
        },
        {
          "internalType": "uint256",
          "name": "",
          "type": "uint256"
        }
      ],
      "name": "_holdsTokenIds",
      "outputs": [
        {
          "internalType": "uint256",
          "name": "",
          "type": "uint256"
        }
      ],
      "stateMutability": "view",
      "type": "function"
    },
    {
      "inputs": [
        {
          "internalType": "uint256",
          "name": "tokenId",
          "type": "uint256"
        }
      ],
      "name": "_tDecimal",
      "outputs": [
        {
          "internalType": "uint8",
          "name": "",
          "type": "uint8"
        }
      ],
      "stateMutability": "view",
      "type": "function"
    },
    {
      "inputs": [
        {
          "internalType": "uint256",
          "name": "tokenId",
          "type": "uint256"
        }
      ],
      "name": "_tMaxSupply",
      "outputs": [
        {
          "internalType": "uint256",
          "name": "",
          "type": "uint256"
        }
      ],
      "stateMutability": "view",
      "type": "function"
    },
    {
      "inputs": [
        {
          "internalType": "uint256",
          "name": "tokenId",
          "type": "uint256"
        }
      ],
      "name": "_tName",
      "outputs": [
        {
          "internalType": "string",
          "name": "",
          "type": "string"
        }
      ],
      "stateMutability": "view",
      "type": "function"
    },
    {
      "inputs": [
        {
          "internalType": "uint256",
          "name": "tokenId",
          "type": "uint256"
        }
      ],
      "name": "_tSymbol",
      "outputs": [
        {
          "internalType": "string",
          "name": "",
          "type": "string"
        }
      ],
      "stateMutability": "view",
      "type": "function"
    },
    {
      "inputs": [
        {
          "internalType": "uint256",
          "name": "tokenId",
          "type": "uint256"
        }
      ],
      "name": "_tTotalSupply",
      "outputs": [
        {
          "internalType": "uint256",
          "name": "",
          "type": "uint256"
        }
      ],
      "stateMutability": "view",
      "type": "function"
    },
    {
      "inputs": [],
      "name": "_totalSupply",
      "outputs": [
        {
          "internalType": "uint256",
          "name": "",
          "type": "uint256"
        }
      ],
      "stateMutability": "view",
      "type": "function"
    },
    {
      "inputs": [
        {
          "internalType": "address",
          "name": "erc2055Token",
          "type": "address"
        }
      ],
      "name": "addToken",
      "outputs": [
        {
          "internalType": "bool",
          "name": "",
          "type": "bool"
        }
      ],
      "stateMutability": "nonpayable",
      "type": "function"
    },
    {
      "inputs": [
        {
          "internalType": "address",
          "name": "_owner",
          "type": "address"
        },
        {
          "internalType": "address",
          "name": "spender",
          "type": "address"
        }
      ],
      "name": "allowance",
      "outputs": [
        {
          "internalType": "uint256",
          "name": "",
          "type": "uint256"
        }
      ],
      "stateMutability": "view",
      "type": "function"
    },
    {
      "inputs": [
        {
          "internalType": "uint256",
          "name": "",
          "type": "uint256"
        },
        {
          "internalType": "address",
          "name": "",
          "type": "address"
        }
      ],
      "name": "allowances",
      "outputs": [
        {
          "internalType": "uint256",
          "name": "",
          "type": "uint256"
        }
      ],
      "stateMutability": "view",
      "type": "function"
    },
    {
      "inputs": [
        {
          "internalType": "address",
          "name": "spender",
          "type": "address"
        },
        {
          "internalType": "uint256",
          "name": "amount",
          "type": "uint256"
        }
      ],
      "name": "approve",
      "outputs": [
        {
          "internalType": "bool",
          "name": "",
          "type": "bool"
        }
      ],
      "stateMutability": "nonpayable",
      "type": "function"
    },
    {
      "inputs": [
        {
          "internalType": "address",
          "name": "account",
          "type": "address"
        }
      ],
      "name": "balanceOf",
      "outputs": [
        {
          "internalType": "uint256",
          "name": "",
          "type": "uint256"
        }
      ],
      "stateMutability": "view",
      "type": "function"
    },
    {
      "inputs": [
        {
          "internalType": "address",
          "name": "holder",
          "type": "address"
        }
      ],
      "name": "balancesOf",
      "outputs": [
        {
          "components": [
            {
              "internalType": "address",
              "name": "owner",
              "type": "address"
            },
            {
              "internalType": "address",
              "name": "token",
              "type": "address"
            },
            {
              "internalType": "uint256",
              "name": "tokenId",
              "type": "uint256"
            },
            {
              "internalType": "uint256",
              "name": "amount",
              "type": "uint256"
            }
          ],
          "internalType": "struct ERC2055Storage.Balances[]",
          "name": "",
          "type": "tuple[]"
        }
      ],
      "stateMutability": "view",
      "type": "function"
    },
    {
      "inputs": [],
      "name": "baseFee",
      "outputs": [
        {
          "internalType": "uint256",
          "name": "",
          "type": "uint256"
        }
      ],
      "stateMutability": "view",
      "type": "function"
    },
    {
      "inputs": [],
      "name": "decimals",
      "outputs": [
        {
          "internalType": "uint8",
          "name": "",
          "type": "uint8"
        }
      ],
      "stateMutability": "view",
      "type": "function"
    },
    {
      "inputs": [
        {
          "internalType": "address",
          "name": "spender",
          "type": "address"
        },
        {
          "internalType": "uint256",
          "name": "subtractedValue",
          "type": "uint256"
        }
      ],
      "name": "decreaseAllowance",
      "outputs": [
        {
          "internalType": "bool",
          "name": "",
          "type": "bool"
        }
      ],
      "stateMutability": "nonpayable",
      "type": "function"
    },
    {
      "inputs": [
        {
          "internalType": "uint256",
          "name": "amount",
          "type": "uint256"
        }
      ],
      "name": "feeEstimate",
      "outputs": [
        {
          "internalType": "uint256",
          "name": "",
          "type": "uint256"
        }
      ],
      "stateMutability": "view",
      "type": "function"
    },
    {
      "inputs": [
        {
          "internalType": "uint256",
          "name": "tokenId",
          "type": "uint256"
        }
      ],
      "name": "getToken",
      "outputs": [
        {
          "internalType": "address",
          "name": "tokenAddress",
          "type": "address"
        }
      ],
      "stateMutability": "view",
      "type": "function"
    },
    {
      "inputs": [
        {
          "internalType": "address",
          "name": "spender",
          "type": "address"
        },
        {
          "internalType": "uint256",
          "name": "addedValue",
          "type": "uint256"
        }
      ],
      "name": "increaseAllowance",
      "outputs": [
        {
          "internalType": "bool",
          "name": "",
          "type": "bool"
        }
      ],
      "stateMutability": "nonpayable",
      "type": "function"
    },
    {
      "inputs": [],
      "name": "isLocked",
      "outputs": [
        {
          "internalType": "bool",
          "name": "",
          "type": "bool"
        }
      ],
      "stateMutability": "view",
      "type": "function"
    },
    {
      "inputs": [
        {
          "internalType": "uint256",
          "name": "until",
          "type": "uint256"
        }
      ],
      "name": "lockToken",
      "outputs": [],
      "stateMutability": "nonpayable",
      "type": "function"
    },
    {
      "inputs": [],
      "name": "lockedUntil",
      "outputs": [
        {
          "internalType": "uint256",
          "name": "",
          "type": "uint256"
        }
      ],
      "stateMutability": "view",
      "type": "function"
    },
    {
      "inputs": [],
      "name": "maxSupply",
      "outputs": [
        {
          "internalType": "uint256",
          "name": "",
          "type": "uint256"
        }
      ],
      "stateMutability": "view",
      "type": "function"
    },
    {
      "inputs": [
        {
          "internalType": "uint256",
          "name": "tokenId",
          "type": "uint256"
        }
      ],
      "name": "metas",
      "outputs": [
        {
          "components": [
            {
              "internalType": "string",
              "name": "logoUri",
              "type": "string"
            },
            {
              "internalType": "string",
              "name": "website",
              "type": "string"
            },
            {
              "internalType": "string",
              "name": "whitepaper",
              "type": "string"
            },
            {
              "internalType": "string[]",
              "name": "socialLinks",
              "type": "string[]"
            },
            {
              "internalType": "address[]",
              "name": "founders",
              "type": "address[]"
            },
            {
              "internalType": "address[]",
              "name": "sponsors",
              "type": "address[]"
            },
            {
              "internalType": "string[]",
              "name": "akas",
              "type": "string[]"
            },
            {
              "internalType": "string[]",
              "name": "networks",
              "type": "string[]"
            },
            {
              "internalType": "uint256[]",
              "name": "chainIds",
              "type": "uint256[]"
            }
          ],
          "internalType": "struct ERC2055Storage.OptionalTokenMetas",
          "name": "opts",
          "type": "tuple"
        }
      ],
      "stateMutability": "view",
      "type": "function"
    },
    {
      "inputs": [],
      "name": "name",
      "outputs": [
        {
          "internalType": "string",
          "name": "",
          "type": "string"
        }
      ],
      "stateMutability": "view",
      "type": "function"
    },
    {
      "inputs": [
        {
          "internalType": "uint256",
          "name": "",
          "type": "uint256"
        }
      ],
      "name": "names",
      "outputs": [
        {
          "internalType": "string",
          "name": "",
          "type": "string"
        }
      ],
      "stateMutability": "view",
      "type": "function"
    },
    {
      "inputs": [],
      "name": "numTokens",
      "outputs": [
        {
          "internalType": "uint256",
          "name": "",
          "type": "uint256"
        }
      ],
      "stateMutability": "view",
      "type": "function"
    },
    {
      "inputs": [],
      "name": "owner",
      "outputs": [
        {
          "internalType": "address",
          "name": "",
          "type": "address"
        }
      ],
      "stateMutability": "view",
      "type": "function"
    },
    {
      "inputs": [
        {
          "internalType": "uint256",
          "name": "",
          "type": "uint256"
        }
      ],
      "name": "ownerOf",
      "outputs": [
        {
          "internalType": "address",
          "name": "",
          "type": "address"
        }
      ],
      "stateMutability": "view",
      "type": "function"
    },
    {
      "inputs": [
        {
          "internalType": "uint256",
          "name": "amount",
          "type": "uint256"
        },
        {
          "internalType": "address",
          "name": "to",
          "type": "address"
        }
      ],
      "name": "safeMint",
      "outputs": [
        {
          "internalType": "bool",
          "name": "",
          "type": "bool"
        }
      ],
      "stateMutability": "nonpayable",
      "type": "function"
    },
    {
      "inputs": [
        {
          "internalType": "address",
          "name": "token",
          "type": "address"
        },
        {
          "internalType": "address",
          "name": "receiver",
          "type": "address"
        },
        {
          "internalType": "uint256",
          "name": "amount",
          "type": "uint256"
        }
      ],
      "name": "safeTransferToken",
      "outputs": [
        {
          "internalType": "bool",
          "name": "transferred",
          "type": "bool"
        }
      ],
      "stateMutability": "nonpayable",
      "type": "function"
    },
    {
      "inputs": [
        {
          "internalType": "uint256",
          "name": "supply",
          "type": "uint256"
        }
      ],
      "name": "setMaxSupply",
      "outputs": [],
      "stateMutability": "nonpayable",
      "type": "function"
    },
    {
      "inputs": [
        {
          "internalType": "uint256",
          "name": "supply",
          "type": "uint256"
        }
      ],
      "name": "setTotalSupply",
      "outputs": [],
      "stateMutability": "nonpayable",
      "type": "function"
    },
    {
      "inputs": [
        {
          "internalType": "uint256",
          "name": "",
          "type": "uint256"
        }
      ],
      "name": "supply",
      "outputs": [
        {
          "internalType": "uint256",
          "name": "",
          "type": "uint256"
        }
      ],
      "stateMutability": "view",
      "type": "function"
    },
    {
      "inputs": [],
      "name": "symbol",
      "outputs": [
        {
          "internalType": "string",
          "name": "",
          "type": "string"
        }
      ],
      "stateMutability": "view",
      "type": "function"
    },
    {
      "inputs": [
        {
          "internalType": "uint256",
          "name": "",
          "type": "uint256"
        }
      ],
      "name": "symbols",
      "outputs": [
        {
          "internalType": "string",
          "name": "",
          "type": "string"
        }
      ],
      "stateMutability": "view",
      "type": "function"
    },
    {
      "inputs": [
        {
          "internalType": "uint256",
          "name": "tokenId",
          "type": "uint256"
        }
      ],
      "name": "token",
      "outputs": [
        {
          "components": [
            {
              "internalType": "string",
              "name": "name",
              "type": "string"
            },
            {
              "internalType": "string",
              "name": "symbol",
              "type": "string"
            },
            {
              "internalType": "uint256",
              "name": "totalSupply",
              "type": "uint256"
            },
            {
              "internalType": "uint256",
              "name": "maxSupply",
              "type": "uint256"
            },
            {
              "internalType": "uint8",
              "name": "decimals",
              "type": "uint8"
            }
          ],
          "internalType": "struct ERC2055Storage.Token",
          "name": "",
          "type": "tuple"
        }
      ],
      "stateMutability": "view",
      "type": "function"
    },
    {
      "inputs": [],
      "name": "tokenIds",
      "outputs": [
        {
          "internalType": "uint256[]",
          "name": "",
          "type": "uint256[]"
        }
      ],
      "stateMutability": "view",
      "type": "function"
    },
    {
      "inputs": [
        {
          "internalType": "uint256",
          "name": "tokenId",
          "type": "uint256"
        }
      ],
      "name": "tokenName",
      "outputs": [
        {
          "internalType": "string",
          "name": "",
          "type": "string"
        }
      ],
      "stateMutability": "view",
      "type": "function"
    },
    {
      "inputs": [
        {
          "internalType": "uint256",
          "name": "tokenId",
          "type": "uint256"
        }
      ],
      "name": "tokenSymbol",
      "outputs": [
        {
          "internalType": "string",
          "name": "",
          "type": "string"
        }
      ],
      "stateMutability": "view",
      "type": "function"
    },
    {
      "inputs": [],
      "name": "totalSupply",
      "outputs": [
        {
          "internalType": "uint256",
          "name": "",
          "type": "uint256"
        }
      ],
      "stateMutability": "view",
      "type": "function"
    },
    {
      "inputs": [
        {
          "internalType": "address",
          "name": "to",
          "type": "address"
        },
        {
          "internalType": "uint256",
          "name": "amount",
          "type": "uint256"
        }
      ],
      "name": "transfer",
      "outputs": [
        {
          "internalType": "bool",
          "name": "",
          "type": "bool"
        }
      ],
      "stateMutability": "nonpayable",
      "type": "function"
    },
    {
      "inputs": [
        {
          "internalType": "address",
          "name": "from",
          "type": "address"
        },
        {
          "internalType": "address",
          "name": "to",
          "type": "address"
        },
        {
          "internalType": "uint256",
          "name": "amount",
          "type": "uint256"
        }
      ],
      "name": "transferFrom",
      "outputs": [
        {
          "internalType": "bool",
          "name": "",
          "type": "bool"
        }
      ],
      "stateMutability": "nonpayable",
      "type": "function"
    },
    {
      "inputs": [],
      "name": "unlockToken",
      "outputs": [],
      "stateMutability": "nonpayable",
      "type": "function"
    }
  ],
  "bytecode": "0x60806040523480156200001157600080fd5b5060405162004eb638038062004eb6833981810160405281019062000037919062000257565b818181600090816200004a919062000527565b5080600190816200005c919062000527565b5033600560006101000a81548173ffffffffffffffffffffffffffffffffffffffff021916908373ffffffffffffffffffffffffffffffffffffffff1602179055506012600260006101000a81548160ff021916908360ff160217905550505050506200060e565b6000604051905090565b600080fd5b600080fd5b600080fd5b600080fd5b6000601f19601f8301169050919050565b7f4e487b7100000000000000000000000000000000000000000000000000000000600052604160045260246000fd5b6200012d82620000e2565b810181811067ffffffffffffffff821117156200014f576200014e620000f3565b5b80604052505050565b600062000164620000c4565b905062000172828262000122565b919050565b600067ffffffffffffffff821115620001955762000194620000f3565b5b620001a082620000e2565b9050602081019050919050565b60005b83811015620001cd578082015181840152602081019050620001b0565b60008484015250505050565b6000620001f0620001ea8462000177565b62000158565b9050828152602081018484840111156200020f576200020e620000dd565b5b6200021c848285620001ad565b509392505050565b600082601f8301126200023c576200023b620000d8565b5b81516200024e848260208601620001d9565b91505092915050565b60008060408385031215620002715762000270620000ce565b5b600083015167ffffffffffffffff811115620002925762000291620000d3565b5b620002a08582860162000224565b925050602083015167ffffffffffffffff811115620002c457620002c3620000d3565b5b620002d28582860162000224565b9150509250929050565b600081519050919050565b7f4e487b7100000000000000000000000000000000000000000000000000000000600052602260045260246000fd5b600060028204905060018216806200032f57607f821691505b602082108103620003455762000344620002e7565b5b50919050565b60008190508160005260206000209050919050565b60006020601f8301049050919050565b600082821b905092915050565b600060088302620003af7fffffffffffffffffffffffffffffffffffffffffffffffffffffffffffffffff8262000370565b620003bb868362000370565b95508019841693508086168417925050509392505050565b6000819050919050565b6000819050919050565b60006200040862000402620003fc84620003d3565b620003dd565b620003d3565b9050919050565b6000819050919050565b6200042483620003e7565b6200043c62000433826200040f565b8484546200037d565b825550505050565b600090565b6200045362000444565b6200046081848462000419565b505050565b5b8181101562000488576200047c60008262000449565b60018101905062000466565b5050565b601f821115620004d757620004a1816200034b565b620004ac8462000360565b81016020851015620004bc578190505b620004d4620004cb8562000360565b83018262000465565b50505b505050565b600082821c905092915050565b6000620004fc60001984600802620004dc565b1980831691505092915050565b6000620005178383620004e9565b9150826002028217905092915050565b6200053282620002dc565b67ffffffffffffffff8111156200054e576200054d620000f3565b5b6200055a825462000316565b620005678282856200048c565b600060209050601f8311600181146200059f57600084156200058a578287015190505b62000596858262000509565b86555062000606565b601f198416620005af866200034b565b60005b82811015620005d957848901518255600182019150602085019450602081019050620005b2565b86831015620005f95784890151620005f5601f891682620004e9565b8355505b6001600288020188555050505b505050505050565b614898806200061e6000396000f3fe608060405234801561001057600080fd5b506004361061027f5760003560e01c8063714cff561161015c578063cc1e752e116100ce578063dd62ed3e11610087578063dd62ed3e146108ae578063e3b2adff146108de578063e4b50cb81461090e578063e725f8771461093e578063ec4d32061461096e578063f7ea7a3d1461099e5761027f565b8063cc1e752e146107b2578063ccce413b146107e2578063ce0617ec14610812578063d29c18f914610830578063d48bfca714610860578063d5abeb01146108905761027f565b8063a457c2d711610120578063a457c2d7146106a4578063a4e2d634146106d4578063a9059cbb146106f2578063ab2e4f9914610722578063b076a18a14610752578063b466f119146107825761027f565b8063714cff561461061057806380f203631461062e5780638da5cb5b1461064a5780638e499bcf1461066857806395d89b41146106865761027f565b806335403023116101f557806362bdfceb116101b957806362bdfceb146105165780636352211e146105465780636392a51f146105765780636ef25c3a146105a65780636f8b44b0146105c457806370a08231146105e05761027f565b8063354030231461043857806339509351146104685780633ac716cd146104985780633eaaf86b146104c85780634622ab03146104e65761027f565b806318160ddd1161024757806318160ddd1461036257806318a24b5b146103805780631a284acc1461038a57806323b872dd146103ba578063277ecfbb146103ea578063313ce5671461041a5761027f565b8063044215c61461028457806306fdde03146102b4578063095ea7b3146102d25780630c0a581a1461030257806317fd1d8014610332575b600080fd5b61029e600480360381019061029991906131d3565b6109ba565b6040516102ab9190613338565b60405180910390f35b6102bc610b3c565b6040516102c991906133a4565b60405180910390f35b6102ec60048036038101906102e79190613424565b610bca565b6040516102f9919061347f565b60405180910390f35b61031c600480360381019061031791906131d3565b610c71565b60405161032991906134a9565b60405180910390f35b61034c600480360381019061034791906131d3565b610cfd565b60405161035991906133a4565b60405180910390f35b61036a610d0f565b60405161037791906134d3565b60405180910390f35b610388610d19565b005b6103a4600480360381019061039f91906131d3565b610d7b565b6040516103b191906133a4565b60405180910390f35b6103d460048036038101906103cf91906134ee565b610e07565b6040516103e1919061347f565b60405180910390f35b61040460048036038101906103ff91906131d3565b610e1f565b604051610411919061386d565b60405180910390f35b6104226114b2565b60405161042f91906134a9565b60405180910390f35b610452600480360381019061044d91906131d3565b6114c5565b60405161045f91906134d3565b60405180910390f35b610482600480360381019061047d9190613424565b6114dd565b60405161048f919061347f565b60405180910390f35b6104b260048036038101906104ad91906131d3565b61152f565b6040516104bf91906134d3565b60405180910390f35b6104d06115bb565b6040516104dd91906134d3565b60405180910390f35b61050060048036038101906104fb91906131d3565b6115c1565b60405161050d91906133a4565b60405180910390f35b610530600480360381019061052b919061388f565b611661565b60405161053d919061347f565b60405180910390f35b610560600480360381019061055b91906131d3565b611707565b60405161056d91906138de565b60405180910390f35b610590600480360381019061058b91906138f9565b61173a565b60405161059d9190613a2a565b60405180910390f35b6105ae6118f8565b6040516105bb91906134d3565b60405180910390f35b6105de60048036038101906105d991906131d3565b6118fe565b005b6105fa60048036038101906105f591906138f9565b611998565b60405161060791906134d3565b60405180910390f35b6106186119e1565b6040516106259190613abb565b60405180910390f35b610648600480360381019061064391906131d3565b611a39565b005b610652611b44565b60405161065f91906138de565b60405180910390f35b610670611b6a565b60405161067d91906134d3565b60405180910390f35b61068e611b70565b60405161069b91906133a4565b60405180910390f35b6106be60048036038101906106b99190613424565b611bfe565b6040516106cb919061347f565b60405180910390f35b6106dc611c90565b6040516106e9919061347f565b60405180910390f35b61070c60048036038101906107079190613424565b611ca3565b604051610719919061347f565b60405180910390f35b61073c60048036038101906107379190613424565b611cbf565b60405161074991906134d3565b60405180910390f35b61076c600480360381019061076791906134ee565b611cf0565b604051610779919061347f565b60405180910390f35b61079c600480360381019061079791906131d3565b611d98565b6040516107a991906133a4565b60405180910390f35b6107cc60048036038101906107c791906131d3565b611e24565b6040516107d991906134d3565b60405180910390f35b6107fc60048036038101906107f791906131d3565b611e2b565b60405161080991906133a4565b60405180910390f35b61081a611ecb565b60405161082791906134d3565b60405180910390f35b61084a600480360381019061084591906131d3565b611ed1565b60405161085791906134a9565b60405180910390f35b61087a600480360381019061087591906138f9565b611ef1565b604051610887919061347f565b60405180910390f35b610898612038565b6040516108a591906134d3565b60405180910390f35b6108c860048036038101906108c39190613add565b61203e565b6040516108d591906134d3565b60405180910390f35b6108f860048036038101906108f391906131d3565b6120c5565b60405161090591906134d3565b60405180910390f35b610928600480360381019061092391906131d3565b612151565b60405161093591906138de565b60405180910390f35b610958600480360381019061095391906131d3565b61218e565b60405161096591906133a4565b60405180910390f35b6109886004803603810190610983919061388f565b6121a0565b60405161099591906134d3565b60405180910390f35b6109b860048036038101906109b391906131d3565b6121c5565b005b6109c261310b565b601360008381526020019081526020016000206040518060a00160405290816000820180546109f090613b4c565b80601f0160208091040260200160405190810160405280929190818152602001828054610a1c90613b4c565b8015610a695780601f10610a3e57610100808354040283529160200191610a69565b820191906000526020600020905b815481529060010190602001808311610a4c57829003601f168201915b50505050508152602001600182018054610a8290613b4c565b80601f0160208091040260200160405190810160405280929190818152602001828054610aae90613b4c565b8015610afb5780601f10610ad057610100808354040283529160200191610afb565b820191906000526020600020905b815481529060010190602001808311610ade57829003601f168201915b5050505050815260200160028201548152602001600382015481526020016004820160009054906101000a900460ff1660ff1660ff16815250509050919050565b60008054610b4990613b4c565b80601f0160208091040260200160405190810160405280929190818152602001828054610b7590613b4c565b8015610bc25780601f10610b9757610100808354040283529160200191610bc2565b820191906000526020600020905b815481529060010190602001808311610ba557829003601f168201915b505050505081565b6000600560009054906101000a900473ffffffffffffffffffffffffffffffffffffffff1673ffffffffffffffffffffffffffffffffffffffff163373ffffffffffffffffffffffffffffffffffffffff1614610c5c576040517f08c379a0000000000000000000000000000000000000000000000000000000008152600401610c5390613bc9565b60405180910390fd5b610c6730848461225f565b6001905092915050565b60003073ffffffffffffffffffffffffffffffffffffffff1663044215c6836040518263ffffffff1660e01b8152600401610cac91906134d3565b600060405180830381865afa158015610cc9573d6000803e3d6000fd5b505050506040513d6000823e3d601f19601f82011682018060405250810190610cf29190613e1e565b608001519050919050565b6060610d0882612428565b9050919050565b6000600354905090565b600654421115610d5e576040517f08c379a0000000000000000000000000000000000000000000000000000000008152600401610d5590613eb3565b60405180910390fd5b6000600560146101000a81548160ff021916908315150217905550565b60603073ffffffffffffffffffffffffffffffffffffffff1663044215c6836040518263ffffffff1660e01b8152600401610db691906134d3565b600060405180830381865afa158015610dd3573d6000803e3d6000fd5b505050506040513d6000823e3d601f19601f82011682018060405250810190610dfc9190613e1e565b602001519050919050565b6000610e148484846124cd565b600190509392505050565b610e2761313d565b60608060608060608060011515601560008a815260200190815260200160002060009054906101000a900460ff16151514610ed0576040518061012001604052806040518060200160405280600081525081526020016040518060200160405280600081525081526020016040518060200160405280600081525081526020018781526020018681526020018581526020018481526020018381526020018281525096506114a7565b6014600089815260200190815260200160002060405180610120016040529081600082018054610eff90613b4c565b80601f0160208091040260200160405190810160405280929190818152602001828054610f2b90613b4c565b8015610f785780601f10610f4d57610100808354040283529160200191610f78565b820191906000526020600020905b815481529060010190602001808311610f5b57829003601f168201915b50505050508152602001600182018054610f9190613b4c565b80601f0160208091040260200160405190810160405280929190818152602001828054610fbd90613b4c565b801561100a5780601f10610fdf5761010080835404028352916020019161100a565b820191906000526020600020905b815481529060010190602001808311610fed57829003601f168201915b5050505050815260200160028201805461102390613b4c565b80601f016020809104026020016040519081016040528092919081815260200182805461104f90613b4c565b801561109c5780601f106110715761010080835404028352916020019161109c565b820191906000526020600020905b81548152906001019060200180831161107f57829003601f168201915b5050505050815260200160038201805480602002602001604051908101604052809291908181526020016000905b828210156111765783829060005260206000200180546110e990613b4c565b80601f016020809104026020016040519081016040528092919081815260200182805461111590613b4c565b80156111625780601f1061113757610100808354040283529160200191611162565b820191906000526020600020905b81548152906001019060200180831161114557829003601f168201915b5050505050815260200190600101906110ca565b5050505081526020016004820180548060200260200160405190810160405280929190818152602001828054801561120357602002820191906000526020600020905b8160009054906101000a900473ffffffffffffffffffffffffffffffffffffffff1673ffffffffffffffffffffffffffffffffffffffff16815260200190600101908083116111b9575b505050505081526020016005820180548060200260200160405190810160405280929190818152602001828054801561129157602002820191906000526020600020905b8160009054906101000a900473ffffffffffffffffffffffffffffffffffffffff1673ffffffffffffffffffffffffffffffffffffffff1681526020019060010190808311611247575b5050505050815260200160068201805480602002602001604051908101604052809291908181526020016000905b8282101561136b5783829060005260206000200180546112de90613b4c565b80601f016020809104026020016040519081016040528092919081815260200182805461130a90613b4c565b80156113575780601f1061132c57610100808354040283529160200191611357565b820191906000526020600020905b81548152906001019060200180831161133a57829003601f168201915b5050505050815260200190600101906112bf565b50505050815260200160078201805480602002602001604051908101604052809291908181526020016000905b828210156114445783829060005260206000200180546113b790613b4c565b80601f01602080910402602001604051908101604052809291908181526020018280546113e390613b4c565b80156114305780601f1061140557610100808354040283529160200191611430565b820191906000526020600020905b81548152906001019060200180831161141357829003601f168201915b505050505081526020019060010190611398565b5050505081526020016008820180548060200260200160405190810160405280929190818152602001828054801561149b57602002820191906000526020600020905b815481526020019060010190808311611487575b50505050508152505096505b505050505050919050565b600260009054906101000a900460ff1681565b600d6020528060005260406000206000915090505481565b600080600560009054906101000a900473ffffffffffffffffffffffffffffffffffffffff169050611524818585611515858961203e565b61151f9190613f02565b61225f565b600191505092915050565b60003073ffffffffffffffffffffffffffffffffffffffff1663044215c6836040518263ffffffff1660e01b815260040161156a91906134d3565b600060405180830381865afa158015611587573d6000803e3d6000fd5b505050506040513d6000823e3d601f19601f820116820180604052508101906115b09190613e1e565b604001519050919050565b60035481565b600b60205280600052604060002060009150905080546115e090613b4c565b80601f016020809104026020016040519081016040528092919081815260200182805461160c90613b4c565b80156116595780601f1061162e57610100808354040283529160200191611659565b820191906000526020600020905b81548152906001019060200180831161163c57829003601f168201915b505050505081565b6000600560009054906101000a900473ffffffffffffffffffffffffffffffffffffffff1673ffffffffffffffffffffffffffffffffffffffff163373ffffffffffffffffffffffffffffffffffffffff16146116f3576040517f08c379a00000000000000000000000000000000000000000000000000000000081526004016116ea90613bc9565b60405180910390fd5b6116fd8284612739565b6001905092915050565b600a6020528060005260406000206000915054906101000a900473ffffffffffffffffffffffffffffffffffffffff1681565b6060600060605b601260008573ffffffffffffffffffffffffffffffffffffffff1673ffffffffffffffffffffffffffffffffffffffff168152602001908152602001600020805490508210156118ee576000601260008673ffffffffffffffffffffffffffffffffffffffff1673ffffffffffffffffffffffffffffffffffffffff16815260200190815260200160002083815481106117de576117dd613f36565b5b9060005260206000200154905060405180608001604052808673ffffffffffffffffffffffffffffffffffffffff1681526020016009600084815260200190815260200160002060009054906101000a900473ffffffffffffffffffffffffffffffffffffffff1673ffffffffffffffffffffffffffffffffffffffff168152602001828152602001600f600084815260200190815260200160002060008873ffffffffffffffffffffffffffffffffffffffff1673ffffffffffffffffffffffffffffffffffffffff168152602001908152602001600020548152508284815181106118ce576118cd613f36565b5b6020026020010181905250506001826118e79190613f02565b9150611741565b8092505050919050565b601e5481565b600560009054906101000a900473ffffffffffffffffffffffffffffffffffffffff1673ffffffffffffffffffffffffffffffffffffffff163373ffffffffffffffffffffffffffffffffffffffff161461198e576040517f08c379a000000000000000000000000000000000000000000000000000000000815260040161198590613bc9565b60405180910390fd5b8060048190555050565b6000600760008373ffffffffffffffffffffffffffffffffffffffff1673ffffffffffffffffffffffffffffffffffffffff168152602001908152602001600020549050919050565b60606017805480602002602001604051908101604052809291908181526020018280548015611a2f57602002820191906000526020600020905b815481526020019060010190808311611a1b575b5050505050905090565b600560009054906101000a900473ffffffffffffffffffffffffffffffffffffffff1673ffffffffffffffffffffffffffffffffffffffff163373ffffffffffffffffffffffffffffffffffffffff1614611ac9576040517f08c379a0000000000000000000000000000000000000000000000000000000008152600401611ac090613bc9565b60405180910390fd5b60011515600560149054906101000a900460ff16151503611b1f576040517f08c379a0000000000000000000000000000000000000000000000000000000008152600401611b1690613fb1565b60405180910390fd5b6001600560146101000a81548160ff0219169083151502179055508060068190555050565b600560009054906101000a900473ffffffffffffffffffffffffffffffffffffffff1681565b601d5481565b60018054611b7d90613b4c565b80601f0160208091040260200160405190810160405280929190818152602001828054611ba990613b4c565b8015611bf65780601f10611bcb57610100808354040283529160200191611bf6565b820191906000526020600020905b815481529060010190602001808311611bd957829003601f168201915b505050505081565b600080600560009054906101000a900473ffffffffffffffffffffffffffffffffffffffff1690506000611c32828661203e565b905083811015611c77576040517f08c379a0000000000000000000000000000000000000000000000000000000008152600401611c6e90614043565b60405180910390fd5b611c84828686840361225f565b60019250505092915050565b600560149054906101000a900460ff1681565b600080339050611cb48185856124cd565b600191505092915050565b60126020528160005260406000208181548110611cdb57600080fd5b90600052602060002001600091509150505481565b60008063a9059cbb8484604051602401611d0b929190614063565b6040516020818303038152906040529060e01b6020820180517bffffffffffffffffffffffffffffffffffffffffffffffffffffffff83818316178352505050509050602060008251602084016000896127105a03f13d60008114611d7b5760208114611d835760009350611d8e565b819350611d8e565b600051158215171593505b5050509392505050565b60603073ffffffffffffffffffffffffffffffffffffffff1663044215c6836040518263ffffffff1660e01b8152600401611dd391906134d3565b600060405180830381865afa158015611df0573d6000803e3d6000fd5b505050506040513d6000823e3d601f19601f82011682018060405250810190611e199190613e1e565b600001519050919050565b6000919050565b600c6020528060005260406000206000915090508054611e4a90613b4c565b80601f0160208091040260200160405190810160405280929190818152602001828054611e7690613b4c565b8015611ec35780601f10611e9857610100808354040283529160200191611ec3565b820191906000526020600020905b815481529060010190602001808311611ea657829003601f168201915b505050505081565b60065481565b600e6020528060005260406000206000915054906101000a900460ff1681565b6000600560009054906101000a900473ffffffffffffffffffffffffffffffffffffffff1673ffffffffffffffffffffffffffffffffffffffff163373ffffffffffffffffffffffffffffffffffffffff1614611f83576040517f08c379a0000000000000000000000000000000000000000000000000000000008152600401611f7a90613bc9565b60405180910390fd5b60011515601960008473ffffffffffffffffffffffffffffffffffffffff1673ffffffffffffffffffffffffffffffffffffffff16815260200190815260200160002060009054906101000a900460ff16151503612016576040517f08c379a000000000000000000000000000000000000000000000000000000000815260040161200d906140d8565b60405180910390fd5b6000612022601f6129e3565b905061202e601f6129f1565b6001915050919050565b60045481565b6000600860008473ffffffffffffffffffffffffffffffffffffffff1673ffffffffffffffffffffffffffffffffffffffff16815260200190815260200160002060008373ffffffffffffffffffffffffffffffffffffffff1673ffffffffffffffffffffffffffffffffffffffff16815260200190815260200160002054905092915050565b60003073ffffffffffffffffffffffffffffffffffffffff1663044215c6836040518263ffffffff1660e01b815260040161210091906134d3565b600060405180830381865afa15801561211d573d6000803e3d6000fd5b505050506040513d6000823e3d601f19601f820116820180604052508101906121469190613e1e565b606001519050919050565b60006009600083815260200190815260200160002060009054906101000a900473ffffffffffffffffffffffffffffffffffffffff169050919050565b606061219982612a07565b9050919050565b6011602052816000526040600020602052806000526040600020600091509150505481565b600560009054906101000a900473ffffffffffffffffffffffffffffffffffffffff1673ffffffffffffffffffffffffffffffffffffffff163373ffffffffffffffffffffffffffffffffffffffff1614612255576040517f08c379a000000000000000000000000000000000000000000000000000000000815260040161224c90613bc9565b60405180910390fd5b8060038190555050565b600073ffffffffffffffffffffffffffffffffffffffff168373ffffffffffffffffffffffffffffffffffffffff16036122ce576040517f08c379a00000000000000000000000000000000000000000000000000000000081526004016122c59061416a565b60405180910390fd5b600073ffffffffffffffffffffffffffffffffffffffff168273ffffffffffffffffffffffffffffffffffffffff160361233d576040517f08c379a0000000000000000000000000000000000000000000000000000000008152600401612334906141fc565b60405180910390fd5b80600860008573ffffffffffffffffffffffffffffffffffffffff1673ffffffffffffffffffffffffffffffffffffffff16815260200190815260200160002060008473ffffffffffffffffffffffffffffffffffffffff1673ffffffffffffffffffffffffffffffffffffffff168152602001908152602001600020819055508173ffffffffffffffffffffffffffffffffffffffff168373ffffffffffffffffffffffffffffffffffffffff167f8c5be1e5ebec7d5bd14f71427d1e84f3dd0314c0f7b2291e5b200ac8c7c3b9258360405161241b91906134d3565b60405180910390a3505050565b6060600c6000838152602001908152602001600020805461244890613b4c565b80601f016020809104026020016040519081016040528092919081815260200182805461247490613b4c565b80156124c15780601f10612496576101008083540402835291602001916124c1565b820191906000526020600020905b8154815290600101906020018083116124a457829003601f168201915b50505050509050919050565b600073ffffffffffffffffffffffffffffffffffffffff168373ffffffffffffffffffffffffffffffffffffffff160361253c576040517f08c379a00000000000000000000000000000000000000000000000000000000081526004016125339061428e565b60405180910390fd5b600073ffffffffffffffffffffffffffffffffffffffff168273ffffffffffffffffffffffffffffffffffffffff16036125ab576040517f08c379a00000000000000000000000000000000000000000000000000000000081526004016125a290614320565b60405180910390fd5b6000600760008573ffffffffffffffffffffffffffffffffffffffff1673ffffffffffffffffffffffffffffffffffffffff16815260200190815260200160002054905081811015612632576040517f08c379a0000000000000000000000000000000000000000000000000000000008152600401612629906143b2565b60405180910390fd5b818103600760008673ffffffffffffffffffffffffffffffffffffffff1673ffffffffffffffffffffffffffffffffffffffff1681526020019081526020016000208190555081600760008573ffffffffffffffffffffffffffffffffffffffff1673ffffffffffffffffffffffffffffffffffffffff16815260200190815260200160002060008282546126c79190613f02565b925050819055508273ffffffffffffffffffffffffffffffffffffffff168473ffffffffffffffffffffffffffffffffffffffff167fddf252ad1be2c89b69c2b068fc378daa952ba7f163c4a11628f55a4df523b3ef8460405161272b91906134d3565b60405180910390a350505050565b6127438282612aac565b612782576040517f08c379a00000000000000000000000000000000000000000000000000000000081526004016127799061441e565b60405180910390fd5b600061278d83612c44565b9050806013600084815260200190815260200160002060008201518160000190816127b891906145ea565b5060208201518160010190816127ce91906145ea565b50604082015181600201556060820151816003015560808201518160040160006101000a81548160ff021916908360ff16021790555090505061281082612eb3565b6017829080600181540180825580915050600190039060005260206000200160009091909190915055601960008473ffffffffffffffffffffffffffffffffffffffff1673ffffffffffffffffffffffffffffffffffffffff16815260200190815260200160002060006101000a81549060ff0219169055601a60008473ffffffffffffffffffffffffffffffffffffffff1673ffffffffffffffffffffffffffffffffffffffff16815260200190815260200160002060009055601c82815481106128df576128de613f36565b5b9060005260206000200160006101000a81549073ffffffffffffffffffffffffffffffffffffffff02191690556001601b60008573ffffffffffffffffffffffffffffffffffffffff1673ffffffffffffffffffffffffffffffffffffffff16815260200190815260200160002060006101000a81548160ff0219169083151502179055506001601d60008282546129779190613f02565b925050819055508273ffffffffffffffffffffffffffffffffffffffff167f537c8b04381d78794f6db4f4e99e1a1c84f7d968fe4a903a7d81e3bd18187ea26129bf8461218e565b6129c885610cfd565b6040516129d69291906146bc565b60405180910390a2505050565b600081600001549050919050565b6001816000016000828254019250508190555050565b6060600b60008381526020019081526020016000208054612a2790613b4c565b80601f0160208091040260200160405190810160405280929190818152602001828054612a5390613b4c565b8015612aa05780601f10612a7557610100808354040283529160200191612aa0565b820191906000526020600020905b815481529060010190602001808311612a8357829003601f168201915b50505050509050919050565b600060011515601b60008573ffffffffffffffffffffffffffffffffffffffff1673ffffffffffffffffffffffffffffffffffffffff16815260200190815260200160002060009054906101000a900460ff16151503612b41576040517f08c379a0000000000000000000000000000000000000000000000000000000008152600401612b389061473f565b60405180910390fd5b6001601960008573ffffffffffffffffffffffffffffffffffffffff1673ffffffffffffffffffffffffffffffffffffffff16815260200190815260200160002060006101000a81548160ff02191690831515021790555081601a60008573ffffffffffffffffffffffffffffffffffffffff1673ffffffffffffffffffffffffffffffffffffffff1681526020019081526020016000208190555082601c8381548110612bf257612bf1613f36565b5b9060005260206000200160006101000a81548173ffffffffffffffffffffffffffffffffffffffff021916908373ffffffffffffffffffffffffffffffffffffffff1602179055506001905092915050565b612c4c61310b565b60008290506040518060a001604052808273ffffffffffffffffffffffffffffffffffffffff166306fdde036040518163ffffffff1660e01b8152600401600060405180830381865afa158015612ca7573d6000803e3d6000fd5b505050506040513d6000823e3d601f19601f82011682018060405250810190612cd0919061475f565b81526020018273ffffffffffffffffffffffffffffffffffffffff166395d89b416040518163ffffffff1660e01b8152600401600060405180830381865afa158015612d20573d6000803e3d6000fd5b505050506040513d6000823e3d601f19601f82011682018060405250810190612d49919061475f565b81526020018273ffffffffffffffffffffffffffffffffffffffff166318160ddd6040518163ffffffff1660e01b8152600401602060405180830381865afa158015612d99573d6000803e3d6000fd5b505050506040513d601f19601f82011682018060405250810190612dbd91906147a8565b81526020018273ffffffffffffffffffffffffffffffffffffffff1663d5abeb016040518163ffffffff1660e01b8152600401602060405180830381865afa158015612e0d573d6000803e3d6000fd5b505050506040513d601f19601f82011682018060405250810190612e3191906147a8565b81526020018273ffffffffffffffffffffffffffffffffffffffff1663313ce5676040518163ffffffff1660e01b8152600401602060405180830381865afa158015612e81573d6000803e3d6000fd5b505050506040513d601f19601f82011682018060405250810190612ea591906147d5565b60ff16815250915050919050565b60003073ffffffffffffffffffffffffffffffffffffffff166395d89b416040518163ffffffff1660e01b8152600401600060405180830381865afa158015612f00573d6000803e3d6000fd5b505050506040513d6000823e3d601f19601f82011682018060405250810190612f29919061475f565b905060006016600084815260200190815260200160002060009054906101000a900473ffffffffffffffffffffffffffffffffffffffff1673ffffffffffffffffffffffffffffffffffffffff166306fdde036040518163ffffffff1660e01b8152600401600060405180830381865afa158015612fab573d6000803e3d6000fd5b505050506040513d6000823e3d601f19601f82011682018060405250810190612fd4919061475f565b905060006016600085815260200190815260200160002060009054906101000a900473ffffffffffffffffffffffffffffffffffffffff1673ffffffffffffffffffffffffffffffffffffffff166395d89b416040518163ffffffff1660e01b8152600401600060405180830381865afa158015613056573d6000803e3d6000fd5b505050506040513d6000823e3d601f19601f8201168201806040525081019061307f919061475f565b9050828260405160200161309492919061483e565b604051602081830303815290604052600b600086815260200190815260200160002090816130c291906145ea565b5082816040516020016130d692919061483e565b604051602081830303815290604052600c6000868152602001908152602001600020908161310491906145ea565b5050505050565b6040518060a0016040528060608152602001606081526020016000815260200160008152602001600060ff1681525090565b6040518061012001604052806060815260200160608152602001606081526020016060815260200160608152602001606081526020016060815260200160608152602001606081525090565b6000604051905090565b600080fd5b600080fd5b6000819050919050565b6131b08161319d565b81146131bb57600080fd5b50565b6000813590506131cd816131a7565b92915050565b6000602082840312156131e9576131e8613193565b5b60006131f7848285016131be565b91505092915050565b600081519050919050565b600082825260208201905092915050565b60005b8381101561323a57808201518184015260208101905061321f565b60008484015250505050565b6000601f19601f8301169050919050565b600061326282613200565b61326c818561320b565b935061327c81856020860161321c565b61328581613246565b840191505092915050565b6132998161319d565b82525050565b600060ff82169050919050565b6132b58161329f565b82525050565b600060a08301600083015184820360008601526132d88282613257565b915050602083015184820360208601526132f28282613257565b91505060408301516133076040860182613290565b50606083015161331a6060860182613290565b50608083015161332d60808601826132ac565b508091505092915050565b6000602082019050818103600083015261335281846132bb565b905092915050565b600082825260208201905092915050565b600061337682613200565b613380818561335a565b935061339081856020860161321c565b61339981613246565b840191505092915050565b600060208201905081810360008301526133be818461336b565b905092915050565b600073ffffffffffffffffffffffffffffffffffffffff82169050919050565b60006133f1826133c6565b9050919050565b613401816133e6565b811461340c57600080fd5b50565b60008135905061341e816133f8565b92915050565b6000806040838503121561343b5761343a613193565b5b60006134498582860161340f565b925050602061345a858286016131be565b9150509250929050565b60008115159050919050565b61347981613464565b82525050565b60006020820190506134946000830184613470565b92915050565b6134a38161329f565b82525050565b60006020820190506134be600083018461349a565b92915050565b6134cd8161319d565b82525050565b60006020820190506134e860008301846134c4565b92915050565b60008060006060848603121561350757613506613193565b5b60006135158682870161340f565b93505060206135268682870161340f565b9250506040613537868287016131be565b9150509250925092565b600081519050919050565b600082825260208201905092915050565b6000819050602082019050919050565b60006135798383613257565b905092915050565b6000602082019050919050565b600061359982613541565b6135a3818561354c565b9350836020820285016135b58561355d565b8060005b858110156135f157848403895281516135d2858261356d565b94506135dd83613581565b925060208a019950506001810190506135b9565b50829750879550505050505092915050565b600081519050919050565b600082825260208201905092915050565b6000819050602082019050919050565b613638816133e6565b82525050565b600061364a838361362f565b60208301905092915050565b6000602082019050919050565b600061366e82613603565b613678818561360e565b93506136838361361f565b8060005b838110156136b457815161369b888261363e565b97506136a683613656565b925050600181019050613687565b5085935050505092915050565b600081519050919050565b600082825260208201905092915050565b6000819050602082019050919050565b60006136f98383613290565b60208301905092915050565b6000602082019050919050565b600061371d826136c1565b61372781856136cc565b9350613732836136dd565b8060005b8381101561376357815161374a88826136ed565b975061375583613705565b925050600181019050613736565b5085935050505092915050565b600061012083016000830151848203600086015261378e8282613257565b915050602083015184820360208601526137a88282613257565b915050604083015184820360408601526137c28282613257565b915050606083015184820360608601526137dc828261358e565b915050608083015184820360808601526137f68282613663565b91505060a083015184820360a08601526138108282613663565b91505060c083015184820360c086015261382a828261358e565b91505060e083015184820360e0860152613844828261358e565b9150506101008301518482036101008601526138608282613712565b9150508091505092915050565b600060208201905081810360008301526138878184613770565b905092915050565b600080604083850312156138a6576138a5613193565b5b60006138b4858286016131be565b92505060206138c58582860161340f565b9150509250929050565b6138d8816133e6565b82525050565b60006020820190506138f360008301846138cf565b92915050565b60006020828403121561390f5761390e613193565b5b600061391d8482850161340f565b91505092915050565b600081519050919050565b600082825260208201905092915050565b6000819050602082019050919050565b608082016000820151613968600085018261362f565b50602082015161397b602085018261362f565b50604082015161398e6040850182613290565b5060608201516139a16060850182613290565b50505050565b60006139b38383613952565b60808301905092915050565b6000602082019050919050565b60006139d782613926565b6139e18185613931565b93506139ec83613942565b8060005b83811015613a1d578151613a0488826139a7565b9750613a0f836139bf565b9250506001810190506139f0565b5085935050505092915050565b60006020820190508181036000830152613a4481846139cc565b905092915050565b600082825260208201905092915050565b6000613a68826136c1565b613a728185613a4c565b9350613a7d836136dd565b8060005b83811015613aae578151613a9588826136ed565b9750613aa083613705565b925050600181019050613a81565b5085935050505092915050565b60006020820190508181036000830152613ad58184613a5d565b905092915050565b60008060408385031215613af457613af3613193565b5b6000613b028582860161340f565b9250506020613b138582860161340f565b9150509250929050565b7f4e487b7100000000000000000000000000000000000000000000000000000000600052602260045260246000fd5b60006002820490506001821680613b6457607f821691505b602082108103613b7757613b76613b1d565b5b50919050565b7f6f6e6c79206f776e65722063616e20646f207468697300000000000000000000600082015250565b6000613bb360168361335a565b9150613bbe82613b7d565b602082019050919050565b60006020820190508181036000830152613be281613ba6565b9050919050565b600080fd5b7f4e487b7100000000000000000000000000000000000000000000000000000000600052604160045260246000fd5b613c2682613246565b810181811067ffffffffffffffff82111715613c4557613c44613bee565b5b80604052505050565b6000613c58613189565b9050613c648282613c1d565b919050565b600080fd5b600080fd5b600080fd5b600067ffffffffffffffff821115613c9357613c92613bee565b5b613c9c82613246565b9050602081019050919050565b6000613cbc613cb784613c78565b613c4e565b905082815260208101848484011115613cd857613cd7613c73565b5b613ce384828561321c565b509392505050565b600082601f830112613d0057613cff613c6e565b5b8151613d10848260208601613ca9565b91505092915050565b600081519050613d28816131a7565b92915050565b613d378161329f565b8114613d4257600080fd5b50565b600081519050613d5481613d2e565b92915050565b600060a08284031215613d7057613d6f613be9565b5b613d7a60a0613c4e565b9050600082015167ffffffffffffffff811115613d9a57613d99613c69565b5b613da684828501613ceb565b600083015250602082015167ffffffffffffffff811115613dca57613dc9613c69565b5b613dd684828501613ceb565b6020830152506040613dea84828501613d19565b6040830152506060613dfe84828501613d19565b6060830152506080613e1284828501613d45565b60808301525092915050565b600060208284031215613e3457613e33613193565b5b600082015167ffffffffffffffff811115613e5257613e51613198565b5b613e5e84828501613d5a565b91505092915050565b7f63616e6e6f7420756e6c6f636b00000000000000000000000000000000000000600082015250565b6000613e9d600d8361335a565b9150613ea882613e67565b602082019050919050565b60006020820190508181036000830152613ecc81613e90565b9050919050565b7f4e487b7100000000000000000000000000000000000000000000000000000000600052601160045260246000fd5b6000613f0d8261319d565b9150613f188361319d565b9250828201905080821115613f3057613f2f613ed3565b5b92915050565b7f4e487b7100000000000000000000000000000000000000000000000000000000600052603260045260246000fd5b7f616c7265616479206c6f636b6564000000000000000000000000000000000000600082015250565b6000613f9b600e8361335a565b9150613fa682613f65565b602082019050919050565b60006020820190508181036000830152613fca81613f8e565b9050919050565b7f45524332303a2064656372656173656420616c6c6f77616e63652062656c6f7760008201527f207a65726f000000000000000000000000000000000000000000000000000000602082015250565b600061402d60258361335a565b915061403882613fd1565b604082019050919050565b6000602082019050818103600083015261405c81614020565b9050919050565b600060408201905061407860008301856138cf565b61408560208301846134c4565b9392505050565b7f746f6b656e20697320616c72656164792070656e64696e672071756575650000600082015250565b60006140c2601e8361335a565b91506140cd8261408c565b602082019050919050565b600060208201905081810360008301526140f1816140b5565b9050919050565b7f45524332303a20617070726f76652066726f6d20746865207a65726f2061646460008201527f7265737300000000000000000000000000000000000000000000000000000000602082015250565b600061415460248361335a565b915061415f826140f8565b604082019050919050565b6000602082019050818103600083015261418381614147565b9050919050565b7f45524332303a20617070726f766520746f20746865207a65726f20616464726560008201527f7373000000000000000000000000000000000000000000000000000000000000602082015250565b60006141e660228361335a565b91506141f18261418a565b604082019050919050565b60006020820190508181036000830152614215816141d9565b9050919050565b7f45524332303a207472616e736665722066726f6d20746865207a65726f20616460008201527f6472657373000000000000000000000000000000000000000000000000000000602082015250565b600061427860258361335a565b91506142838261421c565b604082019050919050565b600060208201905081810360008301526142a78161426b565b9050919050565b7f45524332303a207472616e7366657220746f20746865207a65726f206164647260008201527f6573730000000000000000000000000000000000000000000000000000000000602082015250565b600061430a60238361335a565b9150614315826142ae565b604082019050919050565b60006020820190508181036000830152614339816142fd565b9050919050565b7f45524332303a207472616e7366657220616d6f756e742065786365656473206260008201527f616c616e63650000000000000000000000000000000000000000000000000000602082015250565b600061439c60268361335a565b91506143a782614340565b604082019050919050565b600060208201905081810360008301526143cb8161438f565b9050919050565b7f455243323035353a2043414e4e4f542041444420544f20515545554500000000600082015250565b6000614408601c8361335a565b9150614413826143d2565b602082019050919050565b60006020820190508181036000830152614437816143fb565b9050919050565b60008190508160005260206000209050919050565b60006020601f8301049050919050565b600082821b905092915050565b6000600883026144a07fffffffffffffffffffffffffffffffffffffffffffffffffffffffffffffffff82614463565b6144aa8683614463565b95508019841693508086168417925050509392505050565b6000819050919050565b60006144e76144e26144dd8461319d565b6144c2565b61319d565b9050919050565b6000819050919050565b614501836144cc565b61451561450d826144ee565b848454614470565b825550505050565b600090565b61452a61451d565b6145358184846144f8565b505050565b5b818110156145595761454e600082614522565b60018101905061453b565b5050565b601f82111561459e5761456f8161443e565b61457884614453565b81016020851015614587578190505b61459b61459385614453565b83018261453a565b50505b505050565b600082821c905092915050565b60006145c1600019846008026145a3565b1980831691505092915050565b60006145da83836145b0565b9150826002028217905092915050565b6145f382613200565b67ffffffffffffffff81111561460c5761460b613bee565b5b6146168254613b4c565b61462182828561455d565b600060209050601f8311600181146146545760008415614642578287015190505b61464c85826145ce565b8655506146b4565b601f1984166146628661443e565b60005b8281101561468a57848901518255600182019150602085019450602081019050614665565b868310156146a757848901516146a3601f8916826145b0565b8355505b6001600288020188555050505b505050505050565b600060408201905081810360008301526146d6818561336b565b905081810360208301526146ea818461336b565b90509392505050565b7f746f6b656e20616c726561647920657869737473000000000000000000000000600082015250565b600061472960148361335a565b9150614734826146f3565b602082019050919050565b600060208201905081810360008301526147588161471c565b9050919050565b60006020828403121561477557614774613193565b5b600082015167ffffffffffffffff81111561479357614792613198565b5b61479f84828501613ceb565b91505092915050565b6000602082840312156147be576147bd613193565b5b60006147cc84828501613d19565b91505092915050565b6000602082840312156147eb576147ea613193565b5b60006147f984828501613d45565b91505092915050565b600081905092915050565b600061481882613200565b6148228185614802565b935061483281856020860161321c565b80840191505092915050565b600061484a828561480d565b9150614856828461480d565b9150819050939250505056fea2646970667358221220ba8220c404b695b19e6433c44685bcaf08d64151d377324c8e8e38d50fe627d564736f6c63430008100033",
  "linkReferences": {},
  "deployedLinkReferences": {}
}