{
  "_format": "hh-sol-artifact-1",
  "contractName": "ERC2055Implementation",
  "sourceName": "contracts/tokens/ERC2055/mock/ERC2055Implementation.sol",
  "abi": [
    {
      "inputs": [
        {
          "internalType": "string",
          "name": "_name",
          "type": "string"
        },
        {
          "internalType": "string",
          "name": "_symbol",
          "type": "string"
        }
      ],
      "stateMutability": "nonpayable",
      "type": "constructor"
    },
    {
      "anonymous": false,
      "inputs": [
        {
          "indexed": true,
          "internalType": "address",
          "name": "owner",
          "type": "address"
        },
        {
          "indexed": true,
          "internalType": "address",
          "name": "spender",
          "type": "address"
        },
        {
          "indexed": false,
          "internalType": "uint256",
          "name": "value",
          "type": "uint256"
        }
      ],
      "name": "Approval",
      "type": "event"
    },
    {
      "anonymous": false,
      "inputs": [
        {
          "indexed": true,
          "internalType": "address",
          "name": "underlying",
          "type": "address"
        },
        {
          "indexed": false,
          "internalType": "string",
          "name": "name",
          "type": "string"
        },
        {
          "indexed": false,
          "internalType": "string",
          "name": "symbol",
          "type": "string"
        }
      ],
      "name": "ERC2055Minted",
      "type": "event"
    },
    {
      "anonymous": false,
      "inputs": [
        {
          "indexed": true,
          "internalType": "address",
          "name": "from",
          "type": "address"
        },
        {
          "indexed": true,
          "internalType": "address",
          "name": "to",
          "type": "address"
        },
        {
          "indexed": false,
          "internalType": "uint256",
          "name": "value",
          "type": "uint256"
        }
      ],
      "name": "Transfer",
      "type": "event"
    },
    {
      "inputs": [
        {
          "internalType": "uint256",
          "name": "",
          "type": "uint256"
        }
      ],
      "name": "_decimals",
      "outputs": [
        {
          "internalType": "uint8",
          "name": "",
          "type": "uint8"
        }
      ],
      "stateMutability": "view",
      "type": "function"
    },
    {
      "inputs": [
        {
          "internalType": "address",
          "name": "",
          "type": "address"
        },
        {
          "internalType": "uint256",
          "name": "",
          "type": "uint256"
        }
      ],
      "name": "_holdsTokenIds",
      "outputs": [
        {
          "internalType": "uint256",
          "name": "",
          "type": "uint256"
        }
      ],
      "stateMutability": "view",
      "type": "function"
    },
    {
      "inputs": [
        {
          "internalType": "uint256",
          "name": "tokenId",
          "type": "uint256"
        }
      ],
      "name": "_tDecimal",
      "outputs": [
        {
          "internalType": "uint8",
          "name": "",
          "type": "uint8"
        }
      ],
      "stateMutability": "view",
      "type": "function"
    },
    {
      "inputs": [
        {
          "internalType": "uint256",
          "name": "tokenId",
          "type": "uint256"
        }
      ],
      "name": "_tMaxSupply",
      "outputs": [
        {
          "internalType": "uint256",
          "name": "",
          "type": "uint256"
        }
      ],
      "stateMutability": "view",
      "type": "function"
    },
    {
      "inputs": [
        {
          "internalType": "uint256",
          "name": "tokenId",
          "type": "uint256"
        }
      ],
      "name": "_tName",
      "outputs": [
        {
          "internalType": "string",
          "name": "",
          "type": "string"
        }
      ],
      "stateMutability": "view",
      "type": "function"
    },
    {
      "inputs": [
        {
          "internalType": "uint256",
          "name": "tokenId",
          "type": "uint256"
        }
      ],
      "name": "_tSymbol",
      "outputs": [
        {
          "internalType": "string",
          "name": "",
          "type": "string"
        }
      ],
      "stateMutability": "view",
      "type": "function"
    },
    {
      "inputs": [
        {
          "internalType": "uint256",
          "name": "tokenId",
          "type": "uint256"
        }
      ],
      "name": "_tTotalSupply",
      "outputs": [
        {
          "internalType": "uint256",
          "name": "",
          "type": "uint256"
        }
      ],
      "stateMutability": "view",
      "type": "function"
    },
    {
      "inputs": [],
      "name": "_totalSupply",
      "outputs": [
        {
          "internalType": "uint256",
          "name": "",
          "type": "uint256"
        }
      ],
      "stateMutability": "view",
      "type": "function"
    },
    {
      "inputs": [
        {
          "internalType": "address",
          "name": "erc2055Token",
          "type": "address"
        }
      ],
      "name": "addToken",
      "outputs": [
        {
          "internalType": "bool",
          "name": "",
          "type": "bool"
        }
      ],
      "stateMutability": "nonpayable",
      "type": "function"
    },
    {
      "inputs": [
        {
          "internalType": "address",
          "name": "_owner",
          "type": "address"
        },
        {
          "internalType": "address",
          "name": "spender",
          "type": "address"
        }
      ],
      "name": "allowance",
      "outputs": [
        {
          "internalType": "uint256",
          "name": "",
          "type": "uint256"
        }
      ],
      "stateMutability": "view",
      "type": "function"
    },
    {
      "inputs": [
        {
          "internalType": "uint256",
          "name": "",
          "type": "uint256"
        },
        {
          "internalType": "address",
          "name": "",
          "type": "address"
        }
      ],
      "name": "allowances",
      "outputs": [
        {
          "internalType": "uint256",
          "name": "",
          "type": "uint256"
        }
      ],
      "stateMutability": "view",
      "type": "function"
    },
    {
      "inputs": [
        {
          "internalType": "address",
          "name": "spender",
          "type": "address"
        },
        {
          "internalType": "uint256",
          "name": "amount",
          "type": "uint256"
        }
      ],
      "name": "approve",
      "outputs": [
        {
          "internalType": "bool",
          "name": "",
          "type": "bool"
        }
      ],
      "stateMutability": "nonpayable",
      "type": "function"
    },
    {
      "inputs": [
        {
          "internalType": "address",
          "name": "account",
          "type": "address"
        }
      ],
      "name": "balanceOf",
      "outputs": [
        {
          "internalType": "uint256",
          "name": "",
          "type": "uint256"
        }
      ],
      "stateMutability": "view",
      "type": "function"
    },
    {
      "inputs": [
        {
          "internalType": "address",
          "name": "holder",
          "type": "address"
        }
      ],
      "name": "balancesOf",
      "outputs": [
        {
          "components": [
            {
              "internalType": "address",
              "name": "owner",
              "type": "address"
            },
            {
              "internalType": "address",
              "name": "token",
              "type": "address"
            },
            {
              "internalType": "uint256",
              "name": "tokenId",
              "type": "uint256"
            },
            {
              "internalType": "uint256",
              "name": "amount",
              "type": "uint256"
            }
          ],
          "internalType": "struct ERC2055Storage.Balances[]",
          "name": "",
          "type": "tuple[]"
        }
      ],
      "stateMutability": "view",
      "type": "function"
    },
    {
      "inputs": [],
      "name": "decimals",
      "outputs": [
        {
          "internalType": "uint8",
          "name": "",
          "type": "uint8"
        }
      ],
      "stateMutability": "view",
      "type": "function"
    },
    {
      "inputs": [
        {
          "internalType": "address",
          "name": "spender",
          "type": "address"
        },
        {
          "internalType": "uint256",
          "name": "subtractedValue",
          "type": "uint256"
        }
      ],
      "name": "decreaseAllowance",
      "outputs": [
        {
          "internalType": "bool",
          "name": "",
          "type": "bool"
        }
      ],
      "stateMutability": "nonpayable",
      "type": "function"
    },
    {
      "inputs": [
        {
          "internalType": "address",
          "name": "spender",
          "type": "address"
        },
        {
          "internalType": "uint256",
          "name": "addedValue",
          "type": "uint256"
        }
      ],
      "name": "increaseAllowance",
      "outputs": [
        {
          "internalType": "bool",
          "name": "",
          "type": "bool"
        }
      ],
      "stateMutability": "nonpayable",
      "type": "function"
    },
    {
      "inputs": [],
      "name": "isLocked",
      "outputs": [
        {
          "internalType": "bool",
          "name": "",
          "type": "bool"
        }
      ],
      "stateMutability": "view",
      "type": "function"
    },
    {
      "inputs": [
        {
          "internalType": "uint256",
          "name": "until",
          "type": "uint256"
        }
      ],
      "name": "lockToken",
      "outputs": [],
      "stateMutability": "nonpayable",
      "type": "function"
    },
    {
      "inputs": [],
      "name": "lockedUntil",
      "outputs": [
        {
          "internalType": "uint256",
          "name": "",
          "type": "uint256"
        }
      ],
      "stateMutability": "view",
      "type": "function"
    },
    {
      "inputs": [],
      "name": "maxSupply",
      "outputs": [
        {
          "internalType": "uint256",
          "name": "",
          "type": "uint256"
        }
      ],
      "stateMutability": "view",
      "type": "function"
    },
    {
      "inputs": [
        {
          "internalType": "uint256",
          "name": "tokenId",
          "type": "uint256"
        }
      ],
      "name": "metas",
      "outputs": [
        {
          "components": [
            {
              "internalType": "string",
              "name": "logoUri",
              "type": "string"
            },
            {
              "internalType": "string",
              "name": "website",
              "type": "string"
            },
            {
              "internalType": "string",
              "name": "whitepaper",
              "type": "string"
            },
            {
              "internalType": "string[]",
              "name": "socialLinks",
              "type": "string[]"
            },
            {
              "internalType": "address[]",
              "name": "founders",
              "type": "address[]"
            },
            {
              "internalType": "address[]",
              "name": "sponsors",
              "type": "address[]"
            },
            {
              "internalType": "string[]",
              "name": "akas",
              "type": "string[]"
            },
            {
              "internalType": "string[]",
              "name": "networks",
              "type": "string[]"
            },
            {
              "internalType": "uint256[]",
              "name": "chainIds",
              "type": "uint256[]"
            }
          ],
          "internalType": "struct ERC2055Storage.OptionalTokenMetas",
          "name": "opts",
          "type": "tuple"
        }
      ],
      "stateMutability": "view",
      "type": "function"
    },
    {
      "inputs": [
        {
          "internalType": "address",
          "name": "erc2055Token",
          "type": "address"
        }
      ],
      "name": "mint",
      "outputs": [],
      "stateMutability": "nonpayable",
      "type": "function"
    },
    {
      "inputs": [],
      "name": "name",
      "outputs": [
        {
          "internalType": "string",
          "name": "",
          "type": "string"
        }
      ],
      "stateMutability": "view",
      "type": "function"
    },
    {
      "inputs": [
        {
          "internalType": "uint256",
          "name": "",
          "type": "uint256"
        }
      ],
      "name": "names",
      "outputs": [
        {
          "internalType": "string",
          "name": "",
          "type": "string"
        }
      ],
      "stateMutability": "view",
      "type": "function"
    },
    {
      "inputs": [],
      "name": "numTokens",
      "outputs": [
        {
          "internalType": "uint256",
          "name": "",
          "type": "uint256"
        }
      ],
      "stateMutability": "view",
      "type": "function"
    },
    {
      "inputs": [],
      "name": "onERC2055Receive",
      "outputs": [],
      "stateMutability": "nonpayable",
      "type": "function"
    },
    {
      "inputs": [],
      "name": "owner",
      "outputs": [
        {
          "internalType": "address",
          "name": "",
          "type": "address"
        }
      ],
      "stateMutability": "view",
      "type": "function"
    },
    {
      "inputs": [
        {
          "internalType": "uint256",
          "name": "",
          "type": "uint256"
        }
      ],
      "name": "ownerOf",
      "outputs": [
        {
          "internalType": "address",
          "name": "",
          "type": "address"
        }
      ],
      "stateMutability": "view",
      "type": "function"
    },
    {
      "inputs": [
        {
          "internalType": "uint256",
          "name": "amount",
          "type": "uint256"
        },
        {
          "internalType": "address",
          "name": "to",
          "type": "address"
        }
      ],
      "name": "safeBurn",
      "outputs": [
        {
          "internalType": "bool",
          "name": "",
          "type": "bool"
        }
      ],
      "stateMutability": "nonpayable",
      "type": "function"
    },
    {
      "inputs": [
        {
          "internalType": "uint256",
          "name": "amount",
          "type": "uint256"
        },
        {
          "internalType": "address",
          "name": "to",
          "type": "address"
        }
      ],
      "name": "safeMint",
      "outputs": [
        {
          "internalType": "bool",
          "name": "",
          "type": "bool"
        }
      ],
      "stateMutability": "nonpayable",
      "type": "function"
    },
    {
      "inputs": [
        {
          "internalType": "address",
          "name": "tokenAddress",
          "type": "address"
        },
        {
          "internalType": "address",
          "name": "to",
          "type": "address"
        }
      ],
      "name": "safeMint",
      "outputs": [
        {
          "internalType": "bool",
          "name": "",
          "type": "bool"
        }
      ],
      "stateMutability": "nonpayable",
      "type": "function"
    },
    {
      "inputs": [
        {
          "internalType": "address",
          "name": "token",
          "type": "address"
        },
        {
          "internalType": "address",
          "name": "receiver",
          "type": "address"
        },
        {
          "internalType": "uint256",
          "name": "amount",
          "type": "uint256"
        }
      ],
      "name": "safeTransferToken",
      "outputs": [
        {
          "internalType": "bool",
          "name": "transferred",
          "type": "bool"
        }
      ],
      "stateMutability": "nonpayable",
      "type": "function"
    },
    {
      "inputs": [
        {
          "internalType": "uint256",
          "name": "supply",
          "type": "uint256"
        }
      ],
      "name": "setMaxSupply",
      "outputs": [],
      "stateMutability": "nonpayable",
      "type": "function"
    },
    {
      "inputs": [
        {
          "internalType": "uint256",
          "name": "supply",
          "type": "uint256"
        }
      ],
      "name": "setTotalSupply",
      "outputs": [],
      "stateMutability": "nonpayable",
      "type": "function"
    },
    {
      "inputs": [
        {
          "internalType": "uint256",
          "name": "",
          "type": "uint256"
        }
      ],
      "name": "supply",
      "outputs": [
        {
          "internalType": "uint256",
          "name": "",
          "type": "uint256"
        }
      ],
      "stateMutability": "view",
      "type": "function"
    },
    {
      "inputs": [
        {
          "internalType": "bytes4",
          "name": "interfaceID",
          "type": "bytes4"
        }
      ],
      "name": "supportedTokenInterfaces",
      "outputs": [
        {
          "internalType": "bool",
          "name": "",
          "type": "bool"
        }
      ],
      "stateMutability": "view",
      "type": "function"
    },
    {
      "inputs": [],
      "name": "symbol",
      "outputs": [
        {
          "internalType": "string",
          "name": "",
          "type": "string"
        }
      ],
      "stateMutability": "view",
      "type": "function"
    },
    {
      "inputs": [
        {
          "internalType": "uint256",
          "name": "",
          "type": "uint256"
        }
      ],
      "name": "symbols",
      "outputs": [
        {
          "internalType": "string",
          "name": "",
          "type": "string"
        }
      ],
      "stateMutability": "view",
      "type": "function"
    },
    {
      "inputs": [
        {
          "internalType": "uint256",
          "name": "tokenId",
          "type": "uint256"
        }
      ],
      "name": "token",
      "outputs": [
        {
          "components": [
            {
              "internalType": "string",
              "name": "name",
              "type": "string"
            },
            {
              "internalType": "string",
              "name": "symbol",
              "type": "string"
            },
            {
              "internalType": "uint256",
              "name": "totalSupply",
              "type": "uint256"
            },
            {
              "internalType": "uint256",
              "name": "maxSupply",
              "type": "uint256"
            },
            {
              "internalType": "uint8",
              "name": "decimals",
              "type": "uint8"
            }
          ],
          "internalType": "struct ERC2055Storage.Token",
          "name": "",
          "type": "tuple"
        }
      ],
      "stateMutability": "view",
      "type": "function"
    },
    {
      "inputs": [],
      "name": "tokenIds",
      "outputs": [
        {
          "internalType": "uint256[]",
          "name": "",
          "type": "uint256[]"
        }
      ],
      "stateMutability": "view",
      "type": "function"
    },
    {
      "inputs": [
        {
          "internalType": "uint256",
          "name": "tokenId",
          "type": "uint256"
        }
      ],
      "name": "tokenName",
      "outputs": [
        {
          "internalType": "string",
          "name": "",
          "type": "string"
        }
      ],
      "stateMutability": "view",
      "type": "function"
    },
    {
      "inputs": [
        {
          "internalType": "uint256",
          "name": "tokenId",
          "type": "uint256"
        }
      ],
      "name": "tokenSymbol",
      "outputs": [
        {
          "internalType": "string",
          "name": "",
          "type": "string"
        }
      ],
      "stateMutability": "view",
      "type": "function"
    },
    {
      "inputs": [],
      "name": "totalSupply",
      "outputs": [
        {
          "internalType": "uint256",
          "name": "",
          "type": "uint256"
        }
      ],
      "stateMutability": "view",
      "type": "function"
    },
    {
      "inputs": [
        {
          "internalType": "address",
          "name": "to",
          "type": "address"
        },
        {
          "internalType": "uint256",
          "name": "amount",
          "type": "uint256"
        }
      ],
      "name": "transfer",
      "outputs": [
        {
          "internalType": "bool",
          "name": "",
          "type": "bool"
        }
      ],
      "stateMutability": "nonpayable",
      "type": "function"
    },
    {
      "inputs": [
        {
          "internalType": "address",
          "name": "from",
          "type": "address"
        },
        {
          "internalType": "address",
          "name": "to",
          "type": "address"
        },
        {
          "internalType": "uint256",
          "name": "amount",
          "type": "uint256"
        }
      ],
      "name": "transferFrom",
      "outputs": [
        {
          "internalType": "bool",
          "name": "",
          "type": "bool"
        }
      ],
      "stateMutability": "nonpayable",
      "type": "function"
    },
    {
      "inputs": [],
      "name": "unlockToken",
      "outputs": [],
      "stateMutability": "nonpayable",
      "type": "function"
    },
    {
      "inputs": [
        {
          "internalType": "address",
          "name": "tokenAddress1",
          "type": "address"
        }
      ],
      "name": "upgradeERC20ToERC2055",
      "outputs": [
        {
          "internalType": "contract IERC2055",
          "name": "",
          "type": "address"
        }
      ],
      "stateMutability": "nonpayable",
      "type": "function"
    }
  ],
  "bytecode": "0x60806040523480156200001157600080fd5b506040516200552938038062005529833981810160405281019062000037919062000257565b818181600090816200004a919062000527565b5080600190816200005c919062000527565b5033600560006101000a81548173ffffffffffffffffffffffffffffffffffffffff021916908373ffffffffffffffffffffffffffffffffffffffff1602179055506012600260006101000a81548160ff021916908360ff160217905550505050506200060e565b6000604051905090565b600080fd5b600080fd5b600080fd5b600080fd5b6000601f19601f8301169050919050565b7f4e487b7100000000000000000000000000000000000000000000000000000000600052604160045260246000fd5b6200012d82620000e2565b810181811067ffffffffffffffff821117156200014f576200014e620000f3565b5b80604052505050565b600062000164620000c4565b905062000172828262000122565b919050565b600067ffffffffffffffff821115620001955762000194620000f3565b5b620001a082620000e2565b9050602081019050919050565b60005b83811015620001cd578082015181840152602081019050620001b0565b60008484015250505050565b6000620001f0620001ea8462000177565b62000158565b9050828152602081018484840111156200020f576200020e620000dd565b5b6200021c848285620001ad565b509392505050565b600082601f8301126200023c576200023b620000d8565b5b81516200024e848260208601620001d9565b91505092915050565b60008060408385031215620002715762000270620000ce565b5b600083015167ffffffffffffffff811115620002925762000291620000d3565b5b620002a08582860162000224565b925050602083015167ffffffffffffffff811115620002c457620002c3620000d3565b5b620002d28582860162000224565b9150509250929050565b600081519050919050565b7f4e487b7100000000000000000000000000000000000000000000000000000000600052602260045260246000fd5b600060028204905060018216806200032f57607f821691505b602082108103620003455762000344620002e7565b5b50919050565b60008190508160005260206000209050919050565b60006020601f8301049050919050565b600082821b905092915050565b600060088302620003af7fffffffffffffffffffffffffffffffffffffffffffffffffffffffffffffffff8262000370565b620003bb868362000370565b95508019841693508086168417925050509392505050565b6000819050919050565b6000819050919050565b60006200040862000402620003fc84620003d3565b620003dd565b620003d3565b9050919050565b6000819050919050565b6200042483620003e7565b6200043c62000433826200040f565b8484546200037d565b825550505050565b600090565b6200045362000444565b6200046081848462000419565b505050565b5b8181101562000488576200047c60008262000449565b60018101905062000466565b5050565b601f821115620004d757620004a1816200034b565b620004ac8462000360565b81016020851015620004bc578190505b620004d4620004cb8562000360565b83018262000465565b50505b505050565b600082821c905092915050565b6000620004fc60001984600802620004dc565b1980831691505092915050565b6000620005178383620004e9565b9150826002028217905092915050565b6200053282620002dc565b67ffffffffffffffff8111156200054e576200054d620000f3565b5b6200055a825462000316565b620005678282856200048c565b600060209050601f8311600181146200059f57600084156200058a578287015190505b62000596858262000509565b86555062000606565b601f198416620005af866200034b565b60005b82811015620005d957848901518255600182019150602085019450602081019050620005b2565b86831015620005f95784890151620005f5601f891682620004e9565b8355505b6001600288020188555050505b505050505050565b614f0b806200061e6000396000f3fe608060405234801561001057600080fd5b50600436106102a05760003560e01c8063714cff5611610167578063ccce413b116100ce578063dd62ed3e11610087578063dd62ed3e14610937578063e3b2adff14610967578063e59aee0c14610997578063e725f877146109c7578063ec4d3206146109f7578063f7ea7a3d14610a27576102a0565b8063ccce413b1461083b578063ce0617ec1461086b578063d1e5a77d14610889578063d29c18f9146108b9578063d48bfca7146108e9578063d5abeb0114610919576102a0565b8063a457c2d711610120578063a457c2d71461072d578063a4e2d6341461075d578063a9059cbb1461077b578063ab2e4f99146107ab578063b076a18a146107db578063b466f1191461080b576102a0565b8063714cff561461068f57806380f20363146106ad57806383537058146106c95780638da5cb5b146106d35780638e499bcf146106f157806395d89b411461070f576102a0565b8063354030231161020b57806362bdfceb116101c457806362bdfceb146105975780636352211e146105c75780636392a51f146105f75780636a627842146106275780636f8b44b01461064357806370a082311461065f576102a0565b8063354030231461048957806339509351146104b95780633ac716cd146104e95780633eaaf86b146105195780634622ab03146105375780634ff6efdb14610567576102a0565b806318160ddd1161025d57806318160ddd146103b357806318a24b5b146103d15780631a284acc146103db57806323b872dd1461040b578063277ecfbb1461043b578063313ce5671461046b576102a0565b806301410427146102a5578063044215c6146102d557806306fdde0314610305578063095ea7b3146103235780630c0a581a1461035357806317fd1d8014610383575b600080fd5b6102bf60048036038101906102ba919061354f565b610a43565b6040516102cc9190613597565b60405180910390f35b6102ef60048036038101906102ea91906135e8565b610ab1565b6040516102fc919061374d565b60405180910390f35b61030d610c33565b60405161031a91906137b9565b60405180910390f35b61033d60048036038101906103389190613839565b610cc1565b60405161034a9190613597565b60405180910390f35b61036d600480360381019061036891906135e8565b610d68565b60405161037a9190613888565b60405180910390f35b61039d600480360381019061039891906135e8565b610df4565b6040516103aa91906137b9565b60405180910390f35b6103bb610e06565b6040516103c891906138b2565b60405180910390f35b6103d9610e10565b005b6103f560048036038101906103f091906135e8565b610e72565b60405161040291906137b9565b60405180910390f35b610425600480360381019061042091906138cd565b610efe565b6040516104329190613597565b60405180910390f35b610455600480360381019061045091906135e8565b610f16565b6040516104629190613c4c565b60405180910390f35b6104736115a9565b6040516104809190613888565b60405180910390f35b6104a3600480360381019061049e91906135e8565b6115bc565b6040516104b091906138b2565b60405180910390f35b6104d360048036038101906104ce9190613839565b6115d4565b6040516104e09190613597565b60405180910390f35b61050360048036038101906104fe91906135e8565b611626565b60405161051091906138b2565b60405180910390f35b6105216116b2565b60405161052e91906138b2565b60405180910390f35b610551600480360381019061054c91906135e8565b6116b8565b60405161055e91906137b9565b60405180910390f35b610581600480360381019061057c9190613c6e565b611758565b60405161058e9190613cfa565b60405180910390f35b6105b160048036038101906105ac9190613d15565b61175f565b6040516105be9190613597565b60405180910390f35b6105e160048036038101906105dc91906135e8565b61199a565b6040516105ee9190613d64565b60405180910390f35b610611600480360381019061060c9190613c6e565b6119cd565b60405161061e9190613e83565b60405180910390f35b610641600480360381019061063c9190613c6e565b611b8b565b005b61065d600480360381019061065891906135e8565b611c28565b005b61067960048036038101906106749190613c6e565b611cc2565b60405161068691906138b2565b60405180910390f35b610697611d0b565b6040516106a49190613f14565b60405180910390f35b6106c760048036038101906106c291906135e8565b611d63565b005b6106d1611e6e565b005b6106db611e70565b6040516106e89190613d64565b60405180910390f35b6106f9611e96565b60405161070691906138b2565b60405180910390f35b610717611e9c565b60405161072491906137b9565b60405180910390f35b61074760048036038101906107429190613839565b611f2a565b6040516107549190613597565b60405180910390f35b610765611fbc565b6040516107729190613597565b60405180910390f35b61079560048036038101906107909190613839565b611fcf565b6040516107a29190613597565b60405180910390f35b6107c560048036038101906107c09190613839565b61205c565b6040516107d291906138b2565b60405180910390f35b6107f560048036038101906107f091906138cd565b61208d565b6040516108029190613597565b60405180910390f35b610825600480360381019061082091906135e8565b612135565b60405161083291906137b9565b60405180910390f35b610855600480360381019061085091906135e8565b6121c1565b60405161086291906137b9565b60405180910390f35b610873612261565b60405161088091906138b2565b60405180910390f35b6108a3600480360381019061089e9190613d15565b612267565b6040516108b09190613597565b60405180910390f35b6108d360048036038101906108ce91906135e8565b61226f565b6040516108e09190613888565b60405180910390f35b61090360048036038101906108fe9190613c6e565b61228f565b6040516109109190613597565b60405180910390f35b61092161241f565b60405161092e91906138b2565b60405180910390f35b610951600480360381019061094c9190613f36565b612425565b60405161095e91906138b2565b60405180910390f35b610981600480360381019061097c91906135e8565b6124ac565b60405161098e91906138b2565b60405180910390f35b6109b160048036038101906109ac9190613f36565b612538565b6040516109be9190613597565b60405180910390f35b6109e160048036038101906109dc91906135e8565b612540565b6040516109ee91906137b9565b60405180910390f35b610a116004803603810190610a0c9190613d15565b612552565b604051610a1e91906138b2565b60405180910390f35b610a416004803603810190610a3c91906135e8565b612577565b005b6000604051602001610a5490613fcd565b604051602081830303815290604052805190602001207bffffffffffffffffffffffffffffffffffffffffffffffffffffffff1916827bffffffffffffffffffffffffffffffffffffffffffffffffffffffff1916149050919050565b610ab9613465565b601360008381526020019081526020016000206040518060a0016040529081600082018054610ae790614011565b80601f0160208091040260200160405190810160405280929190818152602001828054610b1390614011565b8015610b605780601f10610b3557610100808354040283529160200191610b60565b820191906000526020600020905b815481529060010190602001808311610b4357829003601f168201915b50505050508152602001600182018054610b7990614011565b80601f0160208091040260200160405190810160405280929190818152602001828054610ba590614011565b8015610bf25780601f10610bc757610100808354040283529160200191610bf2565b820191906000526020600020905b815481529060010190602001808311610bd557829003601f168201915b5050505050815260200160028201548152602001600382015481526020016004820160009054906101000a900460ff1660ff1660ff16815250509050919050565b60008054610c4090614011565b80601f0160208091040260200160405190810160405280929190818152602001828054610c6c90614011565b8015610cb95780601f10610c8e57610100808354040283529160200191610cb9565b820191906000526020600020905b815481529060010190602001808311610c9c57829003601f168201915b505050505081565b6000600560009054906101000a900473ffffffffffffffffffffffffffffffffffffffff1673ffffffffffffffffffffffffffffffffffffffff163373ffffffffffffffffffffffffffffffffffffffff1614610d53576040517f08c379a0000000000000000000000000000000000000000000000000000000008152600401610d4a9061408e565b60405180910390fd5b610d5e308484612611565b6001905092915050565b60003073ffffffffffffffffffffffffffffffffffffffff1663044215c6836040518263ffffffff1660e01b8152600401610da391906138b2565b600060405180830381865afa158015610dc0573d6000803e3d6000fd5b505050506040513d6000823e3d601f19601f82011682018060405250810190610de991906142e3565b608001519050919050565b6060610dff826127da565b9050919050565b6000600354905090565b600654421115610e55576040517f08c379a0000000000000000000000000000000000000000000000000000000008152600401610e4c90614378565b60405180910390fd5b6000600560146101000a81548160ff021916908315150217905550565b60603073ffffffffffffffffffffffffffffffffffffffff1663044215c6836040518263ffffffff1660e01b8152600401610ead91906138b2565b600060405180830381865afa158015610eca573d6000803e3d6000fd5b505050506040513d6000823e3d601f19601f82011682018060405250810190610ef391906142e3565b602001519050919050565b6000610f0b84848461287f565b600190509392505050565b610f1e613497565b60608060608060608060011515601560008a815260200190815260200160002060009054906101000a900460ff16151514610fc75760405180610120016040528060405180602001604052806000815250815260200160405180602001604052806000815250815260200160405180602001604052806000815250815260200187815260200186815260200185815260200184815260200183815260200182815250965061159e565b6014600089815260200190815260200160002060405180610120016040529081600082018054610ff690614011565b80601f016020809104026020016040519081016040528092919081815260200182805461102290614011565b801561106f5780601f106110445761010080835404028352916020019161106f565b820191906000526020600020905b81548152906001019060200180831161105257829003601f168201915b5050505050815260200160018201805461108890614011565b80601f01602080910402602001604051908101604052809291908181526020018280546110b490614011565b80156111015780601f106110d657610100808354040283529160200191611101565b820191906000526020600020905b8154815290600101906020018083116110e457829003601f168201915b5050505050815260200160028201805461111a90614011565b80601f016020809104026020016040519081016040528092919081815260200182805461114690614011565b80156111935780601f1061116857610100808354040283529160200191611193565b820191906000526020600020905b81548152906001019060200180831161117657829003601f168201915b5050505050815260200160038201805480602002602001604051908101604052809291908181526020016000905b8282101561126d5783829060005260206000200180546111e090614011565b80601f016020809104026020016040519081016040528092919081815260200182805461120c90614011565b80156112595780601f1061122e57610100808354040283529160200191611259565b820191906000526020600020905b81548152906001019060200180831161123c57829003601f168201915b5050505050815260200190600101906111c1565b505050508152602001600482018054806020026020016040519081016040528092919081815260200182805480156112fa57602002820191906000526020600020905b8160009054906101000a900473ffffffffffffffffffffffffffffffffffffffff1673ffffffffffffffffffffffffffffffffffffffff16815260200190600101908083116112b0575b505050505081526020016005820180548060200260200160405190810160405280929190818152602001828054801561138857602002820191906000526020600020905b8160009054906101000a900473ffffffffffffffffffffffffffffffffffffffff1673ffffffffffffffffffffffffffffffffffffffff168152602001906001019080831161133e575b5050505050815260200160068201805480602002602001604051908101604052809291908181526020016000905b828210156114625783829060005260206000200180546113d590614011565b80601f016020809104026020016040519081016040528092919081815260200182805461140190614011565b801561144e5780601f106114235761010080835404028352916020019161144e565b820191906000526020600020905b81548152906001019060200180831161143157829003601f168201915b5050505050815260200190600101906113b6565b50505050815260200160078201805480602002602001604051908101604052809291908181526020016000905b8282101561153b5783829060005260206000200180546114ae90614011565b80601f01602080910402602001604051908101604052809291908181526020018280546114da90614011565b80156115275780601f106114fc57610100808354040283529160200191611527565b820191906000526020600020905b81548152906001019060200180831161150a57829003601f168201915b50505050508152602001906001019061148f565b5050505081526020016008820180548060200260200160405190810160405280929190818152602001828054801561159257602002820191906000526020600020905b81548152602001906001019080831161157e575b50505050508152505096505b505050505050919050565b600260009054906101000a900460ff1681565b600d6020528060005260406000206000915090505481565b600080600560009054906101000a900473ffffffffffffffffffffffffffffffffffffffff16905061161b81858561160c8589612425565b61161691906143c7565b612611565b600191505092915050565b60003073ffffffffffffffffffffffffffffffffffffffff1663044215c6836040518263ffffffff1660e01b815260040161166191906138b2565b600060405180830381865afa15801561167e573d6000803e3d6000fd5b505050506040513d6000823e3d601f19601f820116820180604052508101906116a791906142e3565b604001519050919050565b60035481565b600b60205280600052604060002060009150905080546116d790614011565b80601f016020809104026020016040519081016040528092919081815260200182805461170390614011565b80156117505780601f1061172557610100808354040283529160200191611750565b820191906000526020600020905b81548152906001019060200180831161173357829003601f168201915b505050505081565b6000919050565b6000600560009054906101000a900473ffffffffffffffffffffffffffffffffffffffff1673ffffffffffffffffffffffffffffffffffffffff163373ffffffffffffffffffffffffffffffffffffffff16146117f1576040517f08c379a00000000000000000000000000000000000000000000000000000000081526004016117e89061408e565b60405180910390fd5b600454831115611836576040517f08c379a000000000000000000000000000000000000000000000000000000000815260040161182d9061446d565b60405180910390fd5b60008303611879576040517f08c379a0000000000000000000000000000000000000000000000000000000008152600401611870906144d9565b60405180910390fd5b60006003540361188f57826003819055506118a9565b82600360008282546118a191906143c7565b925050819055505b6000600760008473ffffffffffffffffffffffffffffffffffffffff1673ffffffffffffffffffffffffffffffffffffffff16815260200190815260200160002054036119395782600760008473ffffffffffffffffffffffffffffffffffffffff1673ffffffffffffffffffffffffffffffffffffffff16815260200190815260200160002081905550611990565b82600760008473ffffffffffffffffffffffffffffffffffffffff1673ffffffffffffffffffffffffffffffffffffffff168152602001908152602001600020600082825461198891906143c7565b925050819055505b6001905092915050565b600a6020528060005260406000206000915054906101000a900473ffffffffffffffffffffffffffffffffffffffff1681565b6060600060605b601260008573ffffffffffffffffffffffffffffffffffffffff1673ffffffffffffffffffffffffffffffffffffffff16815260200190815260200160002080549050821015611b81576000601260008673ffffffffffffffffffffffffffffffffffffffff1673ffffffffffffffffffffffffffffffffffffffff1681526020019081526020016000208381548110611a7157611a706144f9565b5b9060005260206000200154905060405180608001604052808673ffffffffffffffffffffffffffffffffffffffff1681526020016009600084815260200190815260200160002060009054906101000a900473ffffffffffffffffffffffffffffffffffffffff1673ffffffffffffffffffffffffffffffffffffffff168152602001828152602001600f600084815260200190815260200160002060008873ffffffffffffffffffffffffffffffffffffffff1673ffffffffffffffffffffffffffffffffffffffff16815260200190815260200160002054815250828481518110611b6157611b606144f9565b5b602002602001018190525050600182611b7a91906143c7565b91506119d4565b8092505050919050565b600560009054906101000a900473ffffffffffffffffffffffffffffffffffffffff1673ffffffffffffffffffffffffffffffffffffffff163373ffffffffffffffffffffffffffffffffffffffff1614611c1b576040517f08c379a0000000000000000000000000000000000000000000000000000000008152600401611c129061408e565b60405180910390fd5b611c248161228f565b5050565b600560009054906101000a900473ffffffffffffffffffffffffffffffffffffffff1673ffffffffffffffffffffffffffffffffffffffff163373ffffffffffffffffffffffffffffffffffffffff1614611cb8576040517f08c379a0000000000000000000000000000000000000000000000000000000008152600401611caf9061408e565b60405180910390fd5b8060048190555050565b6000600760008373ffffffffffffffffffffffffffffffffffffffff1673ffffffffffffffffffffffffffffffffffffffff168152602001908152602001600020549050919050565b60606017805480602002602001604051908101604052809291908181526020018280548015611d5957602002820191906000526020600020905b815481526020019060010190808311611d45575b5050505050905090565b600560009054906101000a900473ffffffffffffffffffffffffffffffffffffffff1673ffffffffffffffffffffffffffffffffffffffff163373ffffffffffffffffffffffffffffffffffffffff1614611df3576040517f08c379a0000000000000000000000000000000000000000000000000000000008152600401611dea9061408e565b60405180910390fd5b60011515600560149054906101000a900460ff16151503611e49576040517f08c379a0000000000000000000000000000000000000000000000000000000008152600401611e4090614574565b60405180910390fd5b6001600560146101000a81548160ff0219169083151502179055508060068190555050565b565b600560009054906101000a900473ffffffffffffffffffffffffffffffffffffffff1681565b601d5481565b60018054611ea990614011565b80601f0160208091040260200160405190810160405280929190818152602001828054611ed590614011565b8015611f225780601f10611ef757610100808354040283529160200191611f22565b820191906000526020600020905b815481529060010190602001808311611f0557829003601f168201915b505050505081565b600080600560009054906101000a900473ffffffffffffffffffffffffffffffffffffffff1690506000611f5e8286612425565b905083811015611fa3576040517f08c379a0000000000000000000000000000000000000000000000000000000008152600401611f9a90614606565b60405180910390fd5b611fb08286868403612611565b60019250505092915050565b600560149054906101000a900460ff1681565b60003073ffffffffffffffffffffffffffffffffffffffff1663b076a18a3085856040518463ffffffff1660e01b815260040161200e93929190614626565b6020604051808303816000875af115801561202d573d6000803e3d6000fd5b505050506040513d601f19601f820116820180604052508101906120519190614689565b506001905092915050565b6012602052816000526040600020818154811061207857600080fd5b90600052602060002001600091509150505481565b60008063a9059cbb84846040516024016120a89291906146b6565b6040516020818303038152906040529060e01b6020820180517bffffffffffffffffffffffffffffffffffffffffffffffffffffffff83818316178352505050509050602060008251602084016000896127105a03f13d600081146121185760208114612120576000935061212b565b81935061212b565b600051158215171593505b5050509392505050565b60603073ffffffffffffffffffffffffffffffffffffffff1663044215c6836040518263ffffffff1660e01b815260040161217091906138b2565b600060405180830381865afa15801561218d573d6000803e3d6000fd5b505050506040513d6000823e3d601f19601f820116820180604052508101906121b691906142e3565b600001519050919050565b600c60205280600052604060002060009150905080546121e090614011565b80601f016020809104026020016040519081016040528092919081815260200182805461220c90614011565b80156122595780601f1061222e57610100808354040283529160200191612259565b820191906000526020600020905b81548152906001019060200180831161223c57829003601f168201915b505050505081565b60065481565b600092915050565b600e6020528060005260406000206000915054906101000a900460ff1681565b6000600560009054906101000a900473ffffffffffffffffffffffffffffffffffffffff1673ffffffffffffffffffffffffffffffffffffffff163373ffffffffffffffffffffffffffffffffffffffff1614612321576040517f08c379a00000000000000000000000000000000000000000000000000000000081526004016123189061408e565b60405180910390fd5b60011515601960008473ffffffffffffffffffffffffffffffffffffffff1673ffffffffffffffffffffffffffffffffffffffff16815260200190815260200160002060009054906101000a900460ff161515036123b4576040517f08c379a00000000000000000000000000000000000000000000000000000000081526004016123ab9061472b565b60405180910390fd5b60006123c0601e612aeb565b90506123cc8382612af9565b61240b576040517f08c379a000000000000000000000000000000000000000000000000000000000815260040161240290614797565b60405180910390fd5b612415601e612d4b565b6001915050919050565b60045481565b6000600860008473ffffffffffffffffffffffffffffffffffffffff1673ffffffffffffffffffffffffffffffffffffffff16815260200190815260200160002060008373ffffffffffffffffffffffffffffffffffffffff1673ffffffffffffffffffffffffffffffffffffffff16815260200190815260200160002054905092915050565b60003073ffffffffffffffffffffffffffffffffffffffff1663044215c6836040518263ffffffff1660e01b81526004016124e791906138b2565b600060405180830381865afa158015612504573d6000803e3d6000fd5b505050506040513d6000823e3d601f19601f8201168201806040525081019061252d91906142e3565b606001519050919050565b600092915050565b606061254b82612d61565b9050919050565b6011602052816000526040600020602052806000526040600020600091509150505481565b600560009054906101000a900473ffffffffffffffffffffffffffffffffffffffff1673ffffffffffffffffffffffffffffffffffffffff163373ffffffffffffffffffffffffffffffffffffffff1614612607576040517f08c379a00000000000000000000000000000000000000000000000000000000081526004016125fe9061408e565b60405180910390fd5b8060038190555050565b600073ffffffffffffffffffffffffffffffffffffffff168373ffffffffffffffffffffffffffffffffffffffff1603612680576040517f08c379a000000000000000000000000000000000000000000000000000000000815260040161267790614829565b60405180910390fd5b600073ffffffffffffffffffffffffffffffffffffffff168273ffffffffffffffffffffffffffffffffffffffff16036126ef576040517f08c379a00000000000000000000000000000000000000000000000000000000081526004016126e6906148bb565b60405180910390fd5b80600860008573ffffffffffffffffffffffffffffffffffffffff1673ffffffffffffffffffffffffffffffffffffffff16815260200190815260200160002060008473ffffffffffffffffffffffffffffffffffffffff1673ffffffffffffffffffffffffffffffffffffffff168152602001908152602001600020819055508173ffffffffffffffffffffffffffffffffffffffff168373ffffffffffffffffffffffffffffffffffffffff167f8c5be1e5ebec7d5bd14f71427d1e84f3dd0314c0f7b2291e5b200ac8c7c3b925836040516127cd91906138b2565b60405180910390a3505050565b6060600c600083815260200190815260200160002080546127fa90614011565b80601f016020809104026020016040519081016040528092919081815260200182805461282690614011565b80156128735780601f1061284857610100808354040283529160200191612873565b820191906000526020600020905b81548152906001019060200180831161285657829003601f168201915b50505050509050919050565b600073ffffffffffffffffffffffffffffffffffffffff168373ffffffffffffffffffffffffffffffffffffffff16036128ee576040517f08c379a00000000000000000000000000000000000000000000000000000000081526004016128e59061494d565b60405180910390fd5b600073ffffffffffffffffffffffffffffffffffffffff168273ffffffffffffffffffffffffffffffffffffffff160361295d576040517f08c379a0000000000000000000000000000000000000000000000000000000008152600401612954906149df565b60405180910390fd5b6000600760008573ffffffffffffffffffffffffffffffffffffffff1673ffffffffffffffffffffffffffffffffffffffff168152602001908152602001600020549050818110156129e4576040517f08c379a00000000000000000000000000000000000000000000000000000000081526004016129db90614a71565b60405180910390fd5b818103600760008673ffffffffffffffffffffffffffffffffffffffff1673ffffffffffffffffffffffffffffffffffffffff1681526020019081526020016000208190555081600760008573ffffffffffffffffffffffffffffffffffffffff1673ffffffffffffffffffffffffffffffffffffffff1681526020019081526020016000206000828254612a7991906143c7565b925050819055508273ffffffffffffffffffffffffffffffffffffffff168473ffffffffffffffffffffffffffffffffffffffff167fddf252ad1be2c89b69c2b068fc378daa952ba7f163c4a11628f55a4df523b3ef84604051612add91906138b2565b60405180910390a350505050565b600081600001549050919050565b6000612b058383612e06565b612b44576040517f08c379a0000000000000000000000000000000000000000000000000000000008152600401612b3b90614add565b60405180910390fd5b6000612b4f84612f9e565b905080601360008581526020019081526020016000206000820151816000019081612b7a9190614c9f565b506020820151816001019081612b909190614c9f565b50604082015181600201556060820151816003015560808201518160040160006101000a81548160ff021916908360ff160217905550905050612bd28361320d565b6017839080600181540180825580915050600190039060005260206000200160009091909190915055601960008573ffffffffffffffffffffffffffffffffffffffff1673ffffffffffffffffffffffffffffffffffffffff16815260200190815260200160002060006101000a81549060ff0219169055601a60008573ffffffffffffffffffffffffffffffffffffffff1673ffffffffffffffffffffffffffffffffffffffff16815260200190815260200160002060009055601c8381548110612ca157612ca06144f9565b5b9060005260206000200160006101000a81549073ffffffffffffffffffffffffffffffffffffffff02191690556001601b60008673ffffffffffffffffffffffffffffffffffffffff1673ffffffffffffffffffffffffffffffffffffffff16815260200190815260200160002060006101000a81548160ff0219169083151502179055506001601d6000828254612d3991906143c7565b92505081905550600191505092915050565b6001816000016000828254019250508190555050565b6060600b60008381526020019081526020016000208054612d8190614011565b80601f0160208091040260200160405190810160405280929190818152602001828054612dad90614011565b8015612dfa5780601f10612dcf57610100808354040283529160200191612dfa565b820191906000526020600020905b815481529060010190602001808311612ddd57829003601f168201915b50505050509050919050565b600060011515601b60008573ffffffffffffffffffffffffffffffffffffffff1673ffffffffffffffffffffffffffffffffffffffff16815260200190815260200160002060009054906101000a900460ff16151503612e9b576040517f08c379a0000000000000000000000000000000000000000000000000000000008152600401612e9290614dbd565b60405180910390fd5b6001601960008573ffffffffffffffffffffffffffffffffffffffff1673ffffffffffffffffffffffffffffffffffffffff16815260200190815260200160002060006101000a81548160ff02191690831515021790555081601a60008573ffffffffffffffffffffffffffffffffffffffff1673ffffffffffffffffffffffffffffffffffffffff1681526020019081526020016000208190555082601c8381548110612f4c57612f4b6144f9565b5b9060005260206000200160006101000a81548173ffffffffffffffffffffffffffffffffffffffff021916908373ffffffffffffffffffffffffffffffffffffffff1602179055506001905092915050565b612fa6613465565b60008290506040518060a001604052808273ffffffffffffffffffffffffffffffffffffffff166306fdde036040518163ffffffff1660e01b8152600401600060405180830381865afa158015613001573d6000803e3d6000fd5b505050506040513d6000823e3d601f19601f8201168201806040525081019061302a9190614ddd565b81526020018273ffffffffffffffffffffffffffffffffffffffff166395d89b416040518163ffffffff1660e01b8152600401600060405180830381865afa15801561307a573d6000803e3d6000fd5b505050506040513d6000823e3d601f19601f820116820180604052508101906130a39190614ddd565b81526020018273ffffffffffffffffffffffffffffffffffffffff166318160ddd6040518163ffffffff1660e01b8152600401602060405180830381865afa1580156130f3573d6000803e3d6000fd5b505050506040513d601f19601f820116820180604052508101906131179190614e26565b81526020018273ffffffffffffffffffffffffffffffffffffffff1663d5abeb016040518163ffffffff1660e01b8152600401602060405180830381865afa158015613167573d6000803e3d6000fd5b505050506040513d601f19601f8201168201806040525081019061318b9190614e26565b81526020018273ffffffffffffffffffffffffffffffffffffffff1663313ce5676040518163ffffffff1660e01b8152600401602060405180830381865afa1580156131db573d6000803e3d6000fd5b505050506040513d601f19601f820116820180604052508101906131ff9190614e53565b60ff16815250915050919050565b60003073ffffffffffffffffffffffffffffffffffffffff166395d89b416040518163ffffffff1660e01b8152600401600060405180830381865afa15801561325a573d6000803e3d6000fd5b505050506040513d6000823e3d601f19601f820116820180604052508101906132839190614ddd565b905060006016600084815260200190815260200160002060009054906101000a900473ffffffffffffffffffffffffffffffffffffffff1673ffffffffffffffffffffffffffffffffffffffff166306fdde036040518163ffffffff1660e01b8152600401600060405180830381865afa158015613305573d6000803e3d6000fd5b505050506040513d6000823e3d601f19601f8201168201806040525081019061332e9190614ddd565b905060006016600085815260200190815260200160002060009054906101000a900473ffffffffffffffffffffffffffffffffffffffff1673ffffffffffffffffffffffffffffffffffffffff166395d89b416040518163ffffffff1660e01b8152600401600060405180830381865afa1580156133b0573d6000803e3d6000fd5b505050506040513d6000823e3d601f19601f820116820180604052508101906133d99190614ddd565b905082826040516020016133ee929190614eb1565b604051602081830303815290604052600b6000868152602001908152602001600020908161341c9190614c9f565b508281604051602001613430929190614eb1565b604051602081830303815290604052600c6000868152602001908152602001600020908161345e9190614c9f565b5050505050565b6040518060a0016040528060608152602001606081526020016000815260200160008152602001600060ff1681525090565b6040518061012001604052806060815260200160608152602001606081526020016060815260200160608152602001606081526020016060815260200160608152602001606081525090565b6000604051905090565b600080fd5b600080fd5b60007fffffffff0000000000000000000000000000000000000000000000000000000082169050919050565b61352c816134f7565b811461353757600080fd5b50565b60008135905061354981613523565b92915050565b600060208284031215613565576135646134ed565b5b60006135738482850161353a565b91505092915050565b60008115159050919050565b6135918161357c565b82525050565b60006020820190506135ac6000830184613588565b92915050565b6000819050919050565b6135c5816135b2565b81146135d057600080fd5b50565b6000813590506135e2816135bc565b92915050565b6000602082840312156135fe576135fd6134ed565b5b600061360c848285016135d3565b91505092915050565b600081519050919050565b600082825260208201905092915050565b60005b8381101561364f578082015181840152602081019050613634565b60008484015250505050565b6000601f19601f8301169050919050565b600061367782613615565b6136818185613620565b9350613691818560208601613631565b61369a8161365b565b840191505092915050565b6136ae816135b2565b82525050565b600060ff82169050919050565b6136ca816136b4565b82525050565b600060a08301600083015184820360008601526136ed828261366c565b91505060208301518482036020860152613707828261366c565b915050604083015161371c60408601826136a5565b50606083015161372f60608601826136a5565b50608083015161374260808601826136c1565b508091505092915050565b6000602082019050818103600083015261376781846136d0565b905092915050565b600082825260208201905092915050565b600061378b82613615565b613795818561376f565b93506137a5818560208601613631565b6137ae8161365b565b840191505092915050565b600060208201905081810360008301526137d38184613780565b905092915050565b600073ffffffffffffffffffffffffffffffffffffffff82169050919050565b6000613806826137db565b9050919050565b613816816137fb565b811461382157600080fd5b50565b6000813590506138338161380d565b92915050565b600080604083850312156138505761384f6134ed565b5b600061385e85828601613824565b925050602061386f858286016135d3565b9150509250929050565b613882816136b4565b82525050565b600060208201905061389d6000830184613879565b92915050565b6138ac816135b2565b82525050565b60006020820190506138c760008301846138a3565b92915050565b6000806000606084860312156138e6576138e56134ed565b5b60006138f486828701613824565b935050602061390586828701613824565b9250506040613916868287016135d3565b9150509250925092565b600081519050919050565b600082825260208201905092915050565b6000819050602082019050919050565b6000613958838361366c565b905092915050565b6000602082019050919050565b600061397882613920565b613982818561392b565b9350836020820285016139948561393c565b8060005b858110156139d057848403895281516139b1858261394c565b94506139bc83613960565b925060208a01995050600181019050613998565b50829750879550505050505092915050565b600081519050919050565b600082825260208201905092915050565b6000819050602082019050919050565b613a17816137fb565b82525050565b6000613a298383613a0e565b60208301905092915050565b6000602082019050919050565b6000613a4d826139e2565b613a5781856139ed565b9350613a62836139fe565b8060005b83811015613a93578151613a7a8882613a1d565b9750613a8583613a35565b925050600181019050613a66565b5085935050505092915050565b600081519050919050565b600082825260208201905092915050565b6000819050602082019050919050565b6000613ad883836136a5565b60208301905092915050565b6000602082019050919050565b6000613afc82613aa0565b613b068185613aab565b9350613b1183613abc565b8060005b83811015613b42578151613b298882613acc565b9750613b3483613ae4565b925050600181019050613b15565b5085935050505092915050565b6000610120830160008301518482036000860152613b6d828261366c565b91505060208301518482036020860152613b87828261366c565b91505060408301518482036040860152613ba1828261366c565b91505060608301518482036060860152613bbb828261396d565b91505060808301518482036080860152613bd58282613a42565b91505060a083015184820360a0860152613bef8282613a42565b91505060c083015184820360c0860152613c09828261396d565b91505060e083015184820360e0860152613c23828261396d565b915050610100830151848203610100860152613c3f8282613af1565b9150508091505092915050565b60006020820190508181036000830152613c668184613b4f565b905092915050565b600060208284031215613c8457613c836134ed565b5b6000613c9284828501613824565b91505092915050565b6000819050919050565b6000613cc0613cbb613cb6846137db565b613c9b565b6137db565b9050919050565b6000613cd282613ca5565b9050919050565b6000613ce482613cc7565b9050919050565b613cf481613cd9565b82525050565b6000602082019050613d0f6000830184613ceb565b92915050565b60008060408385031215613d2c57613d2b6134ed565b5b6000613d3a858286016135d3565b9250506020613d4b85828601613824565b9150509250929050565b613d5e816137fb565b82525050565b6000602082019050613d796000830184613d55565b92915050565b600081519050919050565b600082825260208201905092915050565b6000819050602082019050919050565b608082016000820151613dc16000850182613a0e565b506020820151613dd46020850182613a0e565b506040820151613de760408501826136a5565b506060820151613dfa60608501826136a5565b50505050565b6000613e0c8383613dab565b60808301905092915050565b6000602082019050919050565b6000613e3082613d7f565b613e3a8185613d8a565b9350613e4583613d9b565b8060005b83811015613e76578151613e5d8882613e00565b9750613e6883613e18565b925050600181019050613e49565b5085935050505092915050565b60006020820190508181036000830152613e9d8184613e25565b905092915050565b600082825260208201905092915050565b6000613ec182613aa0565b613ecb8185613ea5565b9350613ed683613abc565b8060005b83811015613f07578151613eee8882613acc565b9750613ef983613ae4565b925050600181019050613eda565b5085935050505092915050565b60006020820190508181036000830152613f2e8184613eb6565b905092915050565b60008060408385031215613f4d57613f4c6134ed565b5b6000613f5b85828601613824565b9250506020613f6c85828601613824565b9150509250929050565b600081905092915050565b7f737570706f72746564546f6b656e496e74657266616365732862797465733429600082015250565b6000613fb7602083613f76565b9150613fc282613f81565b602082019050919050565b6000613fd882613faa565b9150819050919050565b7f4e487b7100000000000000000000000000000000000000000000000000000000600052602260045260246000fd5b6000600282049050600182168061402957607f821691505b60208210810361403c5761403b613fe2565b5b50919050565b7f6f6e6c79206f776e65722063616e20646f207468697300000000000000000000600082015250565b600061407860168361376f565b915061408382614042565b602082019050919050565b600060208201905081810360008301526140a78161406b565b9050919050565b600080fd5b7f4e487b7100000000000000000000000000000000000000000000000000000000600052604160045260246000fd5b6140eb8261365b565b810181811067ffffffffffffffff8211171561410a576141096140b3565b5b80604052505050565b600061411d6134e3565b905061412982826140e2565b919050565b600080fd5b600080fd5b600080fd5b600067ffffffffffffffff821115614158576141576140b3565b5b6141618261365b565b9050602081019050919050565b600061418161417c8461413d565b614113565b90508281526020810184848401111561419d5761419c614138565b5b6141a8848285613631565b509392505050565b600082601f8301126141c5576141c4614133565b5b81516141d584826020860161416e565b91505092915050565b6000815190506141ed816135bc565b92915050565b6141fc816136b4565b811461420757600080fd5b50565b600081519050614219816141f3565b92915050565b600060a08284031215614235576142346140ae565b5b61423f60a0614113565b9050600082015167ffffffffffffffff81111561425f5761425e61412e565b5b61426b848285016141b0565b600083015250602082015167ffffffffffffffff81111561428f5761428e61412e565b5b61429b848285016141b0565b60208301525060406142af848285016141de565b60408301525060606142c3848285016141de565b60608301525060806142d78482850161420a565b60808301525092915050565b6000602082840312156142f9576142f86134ed565b5b600082015167ffffffffffffffff811115614317576143166134f2565b5b6143238482850161421f565b91505092915050565b7f63616e6e6f7420756e6c6f636b00000000000000000000000000000000000000600082015250565b6000614362600d8361376f565b915061436d8261432c565b602082019050919050565b6000602082019050818103600083015261439181614355565b9050919050565b7f4e487b7100000000000000000000000000000000000000000000000000000000600052601160045260246000fd5b60006143d2826135b2565b91506143dd836135b2565b92508282019050808211156143f5576143f4614398565b5b92915050565b7f616d6f756e7420697320686967686572207468616e20746865206d617820737560008201527f70706c7920284341502900000000000000000000000000000000000000000000602082015250565b6000614457602a8361376f565b9150614462826143fb565b604082019050919050565b600060208201905081810360008301526144868161444a565b9050919050565b7f616d6f756e742063616e6e6f74206265207a65726f0000000000000000000000600082015250565b60006144c360158361376f565b91506144ce8261448d565b602082019050919050565b600060208201905081810360008301526144f2816144b6565b9050919050565b7f4e487b7100000000000000000000000000000000000000000000000000000000600052603260045260246000fd5b7f616c7265616479206c6f636b6564000000000000000000000000000000000000600082015250565b600061455e600e8361376f565b915061456982614528565b602082019050919050565b6000602082019050818103600083015261458d81614551565b9050919050565b7f45524332303a2064656372656173656420616c6c6f77616e63652062656c6f7760008201527f207a65726f000000000000000000000000000000000000000000000000000000602082015250565b60006145f060258361376f565b91506145fb82614594565b604082019050919050565b6000602082019050818103600083015261461f816145e3565b9050919050565b600060608201905061463b6000830186613d55565b6146486020830185613d55565b61465560408301846138a3565b949350505050565b6146668161357c565b811461467157600080fd5b50565b6000815190506146838161465d565b92915050565b60006020828403121561469f5761469e6134ed565b5b60006146ad84828501614674565b91505092915050565b60006040820190506146cb6000830185613d55565b6146d860208301846138a3565b9392505050565b7f746f6b656e20697320616c72656164792070656e64696e672071756575650000600082015250565b6000614715601e8361376f565b9150614720826146df565b602082019050919050565b6000602082019050818103600083015261474481614708565b9050919050565b7f455243323035353a204552524f52204d494e54494e47204e455720544f4b454e600082015250565b600061478160208361376f565b915061478c8261474b565b602082019050919050565b600060208201905081810360008301526147b081614774565b9050919050565b7f45524332303a20617070726f76652066726f6d20746865207a65726f2061646460008201527f7265737300000000000000000000000000000000000000000000000000000000602082015250565b600061481360248361376f565b915061481e826147b7565b604082019050919050565b6000602082019050818103600083015261484281614806565b9050919050565b7f45524332303a20617070726f766520746f20746865207a65726f20616464726560008201527f7373000000000000000000000000000000000000000000000000000000000000602082015250565b60006148a560228361376f565b91506148b082614849565b604082019050919050565b600060208201905081810360008301526148d481614898565b9050919050565b7f45524332303a207472616e736665722066726f6d20746865207a65726f20616460008201527f6472657373000000000000000000000000000000000000000000000000000000602082015250565b600061493760258361376f565b9150614942826148db565b604082019050919050565b600060208201905081810360008301526149668161492a565b9050919050565b7f45524332303a207472616e7366657220746f20746865207a65726f206164647260008201527f6573730000000000000000000000000000000000000000000000000000000000602082015250565b60006149c960238361376f565b91506149d48261496d565b604082019050919050565b600060208201905081810360008301526149f8816149bc565b9050919050565b7f45524332303a207472616e7366657220616d6f756e742065786365656473206260008201527f616c616e63650000000000000000000000000000000000000000000000000000602082015250565b6000614a5b60268361376f565b9150614a66826149ff565b604082019050919050565b60006020820190508181036000830152614a8a81614a4e565b9050919050565b7f455243323035353a2043414e4e4f542041444420544f20515545554500000000600082015250565b6000614ac7601c8361376f565b9150614ad282614a91565b602082019050919050565b60006020820190508181036000830152614af681614aba565b9050919050565b60008190508160005260206000209050919050565b60006020601f8301049050919050565b600082821b905092915050565b600060088302614b5f7fffffffffffffffffffffffffffffffffffffffffffffffffffffffffffffffff82614b22565b614b698683614b22565b95508019841693508086168417925050509392505050565b6000614b9c614b97614b92846135b2565b613c9b565b6135b2565b9050919050565b6000819050919050565b614bb683614b81565b614bca614bc282614ba3565b848454614b2f565b825550505050565b600090565b614bdf614bd2565b614bea818484614bad565b505050565b5b81811015614c0e57614c03600082614bd7565b600181019050614bf0565b5050565b601f821115614c5357614c2481614afd565b614c2d84614b12565b81016020851015614c3c578190505b614c50614c4885614b12565b830182614bef565b50505b505050565b600082821c905092915050565b6000614c7660001984600802614c58565b1980831691505092915050565b6000614c8f8383614c65565b9150826002028217905092915050565b614ca882613615565b67ffffffffffffffff811115614cc157614cc06140b3565b5b614ccb8254614011565b614cd6828285614c12565b600060209050601f831160018114614d095760008415614cf7578287015190505b614d018582614c83565b865550614d69565b601f198416614d1786614afd565b60005b82811015614d3f57848901518255600182019150602085019450602081019050614d1a565b86831015614d5c5784890151614d58601f891682614c65565b8355505b6001600288020188555050505b505050505050565b7f746f6b656e20616c726561647920657869737473000000000000000000000000600082015250565b6000614da760148361376f565b9150614db282614d71565b602082019050919050565b60006020820190508181036000830152614dd681614d9a565b9050919050565b600060208284031215614df357614df26134ed565b5b600082015167ffffffffffffffff811115614e1157614e106134f2565b5b614e1d848285016141b0565b91505092915050565b600060208284031215614e3c57614e3b6134ed565b5b6000614e4a848285016141de565b91505092915050565b600060208284031215614e6957614e686134ed565b5b6000614e778482850161420a565b91505092915050565b6000614e8b82613615565b614e958185613f76565b9350614ea5818560208601613631565b80840191505092915050565b6000614ebd8285614e80565b9150614ec98284614e80565b9150819050939250505056fea2646970667358221220eeff15fb05af862c9a6daba1cb6ce0f9744fcfe1100689bc5619906c986d19b464736f6c63430008100033",
  "linkReferences": {},
  "deployedLinkReferences": {}
}