{
	"contracts/registry/Identity.sol": {
		"Identity": {
			"abi": [
				{
					"inputs": [
						{
							"internalType": "string",
							"name": "name",
							"type": "string"
						},
						{
							"internalType": "string",
							"name": "version",
							"type": "string"
						}
					],
					"stateMutability": "nonpayable",
					"type": "constructor"
				},
				{
					"anonymous": false,
					"inputs": [
						{
							"indexed": true,
							"internalType": "bytes32",
							"name": "approvedHash",
							"type": "bytes32"
						},
						{
							"indexed": true,
							"internalType": "address",
							"name": "owner",
							"type": "address"
						}
					],
					"name": "ApproveHash",
					"type": "event"
				},
				{
					"anonymous": false,
					"inputs": [
						{
							"indexed": true,
							"internalType": "address",
							"name": "previousOwner",
							"type": "address"
						},
						{
							"indexed": true,
							"internalType": "address",
							"name": "newOwner",
							"type": "address"
						}
					],
					"name": "OwnershipTransferred",
					"type": "event"
				},
				{
					"anonymous": false,
					"inputs": [
						{
							"indexed": true,
							"internalType": "bytes32",
							"name": "msgHash",
							"type": "bytes32"
						}
					],
					"name": "SignMsg",
					"type": "event"
				},
				{
					"inputs": [
						{
							"internalType": "bytes32",
							"name": "hashToApprove",
							"type": "bytes32"
						}
					],
					"name": "approveHash",
					"outputs": [],
					"stateMutability": "nonpayable",
					"type": "function"
				},
				{
					"inputs": [
						{
							"internalType": "address",
							"name": "",
							"type": "address"
						},
						{
							"internalType": "bytes32",
							"name": "",
							"type": "bytes32"
						}
					],
					"name": "approvedHashes",
					"outputs": [
						{
							"internalType": "uint256",
							"name": "",
							"type": "uint256"
						}
					],
					"stateMutability": "view",
					"type": "function"
				},
				{
					"inputs": [
						{
							"internalType": "bytes32",
							"name": "dataHash",
							"type": "bytes32"
						},
						{
							"internalType": "bytes",
							"name": "data",
							"type": "bytes"
						},
						{
							"internalType": "bytes",
							"name": "signatures",
							"type": "bytes"
						},
						{
							"internalType": "uint256",
							"name": "requiredSignatures",
							"type": "uint256"
						}
					],
					"name": "checkNSignatures",
					"outputs": [],
					"stateMutability": "view",
					"type": "function"
				},
				{
					"inputs": [
						{
							"internalType": "bytes32",
							"name": "dataHash",
							"type": "bytes32"
						},
						{
							"internalType": "bytes",
							"name": "data",
							"type": "bytes"
						},
						{
							"internalType": "bytes",
							"name": "signatures",
							"type": "bytes"
						}
					],
					"name": "checkSignatures",
					"outputs": [],
					"stateMutability": "view",
					"type": "function"
				},
				{
					"inputs": [],
					"name": "domainSeparator",
					"outputs": [
						{
							"internalType": "bytes32",
							"name": "",
							"type": "bytes32"
						}
					],
					"stateMutability": "view",
					"type": "function"
				},
				{
					"inputs": [
						{
							"internalType": "bytes32",
							"name": "key",
							"type": "bytes32"
						}
					],
					"name": "getData",
					"outputs": [
						{
							"internalType": "string",
							"name": "value",
							"type": "string"
						}
					],
					"stateMutability": "view",
					"type": "function"
				},
				{
					"inputs": [],
					"name": "getDomainSeparator",
					"outputs": [
						{
							"internalType": "bytes32",
							"name": "",
							"type": "bytes32"
						}
					],
					"stateMutability": "view",
					"type": "function"
				},
				{
					"inputs": [
						{
							"internalType": "bytes",
							"name": "message",
							"type": "bytes"
						}
					],
					"name": "getMessageHash",
					"outputs": [
						{
							"internalType": "bytes32",
							"name": "",
							"type": "bytes32"
						}
					],
					"stateMutability": "view",
					"type": "function"
				},
				{
					"inputs": [],
					"name": "owner",
					"outputs": [
						{
							"internalType": "address",
							"name": "",
							"type": "address"
						}
					],
					"stateMutability": "view",
					"type": "function"
				},
				{
					"inputs": [],
					"name": "renounceOwnership",
					"outputs": [],
					"stateMutability": "nonpayable",
					"type": "function"
				},
				{
					"inputs": [
						{
							"internalType": "bytes32",
							"name": "key",
							"type": "bytes32"
						},
						{
							"internalType": "string",
							"name": "value",
							"type": "string"
						}
					],
					"name": "setData",
					"outputs": [
						{
							"internalType": "bool",
							"name": "success",
							"type": "bool"
						}
					],
					"stateMutability": "nonpayable",
					"type": "function"
				},
				{
					"inputs": [
						{
							"internalType": "bytes",
							"name": "message",
							"type": "bytes"
						}
					],
					"name": "signMessage",
					"outputs": [],
					"stateMutability": "nonpayable",
					"type": "function"
				},
				{
					"inputs": [
						{
							"internalType": "bytes32",
							"name": "",
							"type": "bytes32"
						}
					],
					"name": "signedMessages",
					"outputs": [
						{
							"internalType": "uint256",
							"name": "",
							"type": "uint256"
						}
					],
					"stateMutability": "view",
					"type": "function"
				},
				{
					"inputs": [
						{
							"internalType": "address",
							"name": "newOwner",
							"type": "address"
						}
					],
					"name": "transferOwnership",
					"outputs": [],
					"stateMutability": "nonpayable",
					"type": "function"
				}
			],
			"devdoc": {
				"kind": "dev",
				"methods": {
					"checkNSignatures(bytes32,bytes,bytes,uint256)": {
						"details": "Checks whether the signature provided is valid for the provided data, hash. Will revert otherwise.",
						"params": {
							"data": "That should be signed (this is passed to an external validator contract)",
							"dataHash": "Hash of the data (could be either a message hash or transaction hash)",
							"requiredSignatures": "Amount of required valid signatures.",
							"signatures": "Signature data that should be verified. Can be ECDSA signature, contract signature (EIP-1271) or approved hash."
						}
					},
					"owner()": {
						"details": "Returns the address of the current owner."
					},
					"renounceOwnership()": {
						"details": "Leaves the contract without owner. It will not be possible to call `onlyOwner` functions anymore. Can only be called by the current owner. NOTE: Renouncing ownership will leave the contract without an owner, thereby removing any functionality that is only available to the owner."
					},
					"transferOwnership(address)": {
						"details": "Transfers ownership of the contract to a new account (`newOwner`). Can only be called by the current owner."
					}
				},
				"version": 1
			},
			"evm": {
				"assembly": "    /* \"contracts/registry/Identity.sol\":498:2431  contract Identity is Ownable, IdentitySigner, EIP712 {... */\n  mstore(0x40, 0x0140)\n    /* \"contracts/registry/Identity.sol\":1008:1132  constructor(string memory name, string memory version) EIP712(name, version) SignMessageLogic(_domainSeparatorV4()) {... */\n  callvalue\n  dup1\n  iszero\n  tag_1\n  jumpi\n  0x00\n  dup1\n  revert\ntag_1:\n  pop\n  mload(0x40)\n  sub(codesize, bytecodeSize)\n  dup1\n  bytecodeSize\n  dup4\n  codecopy\n  dup2\n  dup2\n  add\n  0x40\n  mstore\n  dup2\n  add\n  swap1\n  tag_2\n  swap2\n  swap1\n  tag_3\n  jump\t// in\ntag_2:\n    /* \"contracts/registry/Identity.sol\":1070:1074  name */\n  dup2\n    /* \"contracts/registry/Identity.sol\":1076:1083  version */\n  dup2\n    /* \"contracts/registry/Identity.sol\":1102:1122  _domainSeparatorV4() */\n  tag_6\n    /* \"contracts/registry/Identity.sol\":1102:1120  _domainSeparatorV4 */\n  shl(0x20, tag_7)\n    /* \"contracts/registry/Identity.sol\":1102:1122  _domainSeparatorV4() */\n  0x20\n  shr\n  jump\t// in\ntag_6:\n    /* \"@openzeppelin/contracts/access/Ownable.sol\":936:968  _transferOwnership(_msgSender()) */\n  tag_11\n    /* \"@openzeppelin/contracts/access/Ownable.sol\":955:967  _msgSender() */\n  tag_12\n    /* \"@openzeppelin/contracts/access/Ownable.sol\":955:965  _msgSender */\n  shl(0x20, tag_13)\n    /* \"@openzeppelin/contracts/access/Ownable.sol\":955:967  _msgSender() */\n  0x20\n  shr\n  jump\t// in\ntag_12:\n    /* \"@openzeppelin/contracts/access/Ownable.sol\":936:954  _transferOwnership */\n  shl(0x20, tag_14)\n    /* \"@openzeppelin/contracts/access/Ownable.sol\":936:968  _transferOwnership(_msgSender()) */\n  0x20\n  shr\n  jump\t// in\ntag_11:\n    /* \"contracts/Logic/SignMessage.sol\":1415:1431  domainSeparator_ */\n  dup1\n    /* \"contracts/Logic/SignMessage.sol\":1397:1412  domainSeparator */\n  0x02\n    /* \"contracts/Logic/SignMessage.sol\":1397:1431  domainSeparator = domainSeparator_ */\n  dup2\n  swap1\n  sstore\n  pop\n    /* \"contracts/Logic/SignMessage.sol\":1349:1438  constructor(bytes32 domainSeparator_) {... */\n  pop\n    /* \"@openzeppelin/contracts/utils/cryptography/draft-EIP712.sol\":2520:2538  bytes32 hashedName */\n  0x00\n    /* \"@openzeppelin/contracts/utils/cryptography/draft-EIP712.sol\":2557:2561  name */\n  dup3\n    /* \"@openzeppelin/contracts/utils/cryptography/draft-EIP712.sol\":2541:2563  keccak256(bytes(name)) */\n  dup1\n  mload\n  swap1\n  0x20\n  add\n  keccak256\n    /* \"@openzeppelin/contracts/utils/cryptography/draft-EIP712.sol\":2520:2563  bytes32 hashedName = keccak256(bytes(name)) */\n  swap1\n  pop\n    /* \"@openzeppelin/contracts/utils/cryptography/draft-EIP712.sol\":2573:2594  bytes32 hashedVersion */\n  0x00\n    /* \"@openzeppelin/contracts/utils/cryptography/draft-EIP712.sol\":2613:2620  version */\n  dup3\n    /* \"@openzeppelin/contracts/utils/cryptography/draft-EIP712.sol\":2597:2622  keccak256(bytes(version)) */\n  dup1\n  mload\n  swap1\n  0x20\n  add\n  keccak256\n    /* \"@openzeppelin/contracts/utils/cryptography/draft-EIP712.sol\":2573:2622  bytes32 hashedVersion = keccak256(bytes(version)) */\n  swap1\n  pop\n    /* \"@openzeppelin/contracts/utils/cryptography/draft-EIP712.sol\":2632:2648  bytes32 typeHash */\n  0x00\n    /* \"@openzeppelin/contracts/utils/cryptography/draft-EIP712.sol\":2651:2768  keccak256(... */\n  0x8b73c3c69bb8fe3d512ecc4cf759cc79239f7b179b0ffacaa9a75d522b39400f\n    /* \"@openzeppelin/contracts/utils/cryptography/draft-EIP712.sol\":2632:2768  bytes32 typeHash = keccak256(... */\n  swap1\n  pop\n    /* \"@openzeppelin/contracts/utils/cryptography/draft-EIP712.sol\":2793:2803  hashedName */\n  dup3\n    /* \"@openzeppelin/contracts/utils/cryptography/draft-EIP712.sol\":2778:2803  _HASHED_NAME = hashedName */\n  0xe0\n  dup2\n  dup2\n  mstore\n  pop\n  pop\n    /* \"@openzeppelin/contracts/utils/cryptography/draft-EIP712.sol\":2831:2844  hashedVersion */\n  dup2\n    /* \"@openzeppelin/contracts/utils/cryptography/draft-EIP712.sol\":2813:2844  _HASHED_VERSION = hashedVersion */\n  0x0100\n  dup2\n  dup2\n  mstore\n  pop\n  pop\n    /* \"@openzeppelin/contracts/utils/cryptography/draft-EIP712.sol\":2873:2886  block.chainid */\n  chainid\n    /* \"@openzeppelin/contracts/utils/cryptography/draft-EIP712.sol\":2854:2886  _CACHED_CHAIN_ID = block.chainid */\n  0xa0\n  dup2\n  dup2\n  mstore\n  pop\n  pop\n    /* \"@openzeppelin/contracts/utils/cryptography/draft-EIP712.sol\":2923:2981  _buildDomainSeparator(typeHash, hashedName, hashedVersion) */\n  tag_17\n    /* \"@openzeppelin/contracts/utils/cryptography/draft-EIP712.sol\":2945:2953  typeHash */\n  dup2\n    /* \"@openzeppelin/contracts/utils/cryptography/draft-EIP712.sol\":2955:2965  hashedName */\n  dup5\n    /* \"@openzeppelin/contracts/utils/cryptography/draft-EIP712.sol\":2967:2980  hashedVersion */\n  dup5\n    /* \"@openzeppelin/contracts/utils/cryptography/draft-EIP712.sol\":2923:2944  _buildDomainSeparator */\n  shl(0x20, tag_18)\n    /* \"@openzeppelin/contracts/utils/cryptography/draft-EIP712.sol\":2923:2981  _buildDomainSeparator(typeHash, hashedName, hashedVersion) */\n  0x20\n  shr\n  jump\t// in\ntag_17:\n    /* \"@openzeppelin/contracts/utils/cryptography/draft-EIP712.sol\":2896:2981  _CACHED_DOMAIN_SEPARATOR = _buildDomainSeparator(typeHash, hashedName, hashedVersion) */\n  0x80\n  dup2\n  dup2\n  mstore\n  pop\n  pop\n    /* \"@openzeppelin/contracts/utils/cryptography/draft-EIP712.sol\":3014:3018  this */\n  address\n    /* \"@openzeppelin/contracts/utils/cryptography/draft-EIP712.sol\":2991:3019  _CACHED_THIS = address(this) */\n  0xffffffffffffffffffffffffffffffffffffffff\n  and\n  0xc0\n  dup2\n  0xffffffffffffffffffffffffffffffffffffffff\n  and\n  dup2\n  mstore\n  pop\n  pop\n    /* \"@openzeppelin/contracts/utils/cryptography/draft-EIP712.sol\":3042:3050  typeHash */\n  dup1\n    /* \"@openzeppelin/contracts/utils/cryptography/draft-EIP712.sol\":3029:3050  _TYPE_HASH = typeHash */\n  0x0120\n  dup2\n  dup2\n  mstore\n  pop\n  pop\n    /* \"@openzeppelin/contracts/utils/cryptography/draft-EIP712.sol\":2510:3057  {... */\n  pop\n  pop\n  pop\n    /* \"@openzeppelin/contracts/utils/cryptography/draft-EIP712.sol\":2455:3057  constructor(string memory name, string memory version) {... */\n  pop\n  pop\n    /* \"contracts/registry/Identity.sol\":1008:1132  constructor(string memory name, string memory version) EIP712(name, version) SignMessageLogic(_domainSeparatorV4()) {... */\n  pop\n  pop\n    /* \"contracts/registry/Identity.sol\":498:2431  contract Identity is Ownable, IdentitySigner, EIP712 {... */\n  jump(tag_20)\n    /* \"@openzeppelin/contracts/utils/cryptography/draft-EIP712.sol\":3143:3451  function _domainSeparatorV4() internal view returns (bytes32) {... */\ntag_7:\n    /* \"@openzeppelin/contracts/utils/cryptography/draft-EIP712.sol\":3196:3203  bytes32 */\n  0x00\n    /* \"@openzeppelin/contracts/utils/cryptography/draft-EIP712.sol\":3236:3248  _CACHED_THIS */\n  mload(0xc0)\n    /* \"@openzeppelin/contracts/utils/cryptography/draft-EIP712.sol\":3219:3248  address(this) == _CACHED_THIS */\n  0xffffffffffffffffffffffffffffffffffffffff\n  and\n    /* \"@openzeppelin/contracts/utils/cryptography/draft-EIP712.sol\":3227:3231  this */\n  address\n    /* \"@openzeppelin/contracts/utils/cryptography/draft-EIP712.sol\":3219:3248  address(this) == _CACHED_THIS */\n  0xffffffffffffffffffffffffffffffffffffffff\n  and\n  eq\n    /* \"@openzeppelin/contracts/utils/cryptography/draft-EIP712.sol\":3219:3285  address(this) == _CACHED_THIS && block.chainid == _CACHED_CHAIN_ID */\n  dup1\n  iszero\n  tag_22\n  jumpi\n  pop\n    /* \"@openzeppelin/contracts/utils/cryptography/draft-EIP712.sol\":3269:3285  _CACHED_CHAIN_ID */\n  mload(0xa0)\n    /* \"@openzeppelin/contracts/utils/cryptography/draft-EIP712.sol\":3252:3265  block.chainid */\n  chainid\n    /* \"@openzeppelin/contracts/utils/cryptography/draft-EIP712.sol\":3252:3285  block.chainid == _CACHED_CHAIN_ID */\n  eq\n    /* \"@openzeppelin/contracts/utils/cryptography/draft-EIP712.sol\":3219:3285  address(this) == _CACHED_THIS && block.chainid == _CACHED_CHAIN_ID */\ntag_22:\n    /* \"@openzeppelin/contracts/utils/cryptography/draft-EIP712.sol\":3215:3445  if (address(this) == _CACHED_THIS && block.chainid == _CACHED_CHAIN_ID) {... */\n  iszero\n  tag_23\n  jumpi\n    /* \"@openzeppelin/contracts/utils/cryptography/draft-EIP712.sol\":3308:3332  _CACHED_DOMAIN_SEPARATOR */\n  mload(0x80)\n    /* \"@openzeppelin/contracts/utils/cryptography/draft-EIP712.sol\":3301:3332  return _CACHED_DOMAIN_SEPARATOR */\n  swap1\n  pop\n  jump(tag_21)\n    /* \"@openzeppelin/contracts/utils/cryptography/draft-EIP712.sol\":3215:3445  if (address(this) == _CACHED_THIS && block.chainid == _CACHED_CHAIN_ID) {... */\ntag_23:\n    /* \"@openzeppelin/contracts/utils/cryptography/draft-EIP712.sol\":3370:3434  _buildDomainSeparator(_TYPE_HASH, _HASHED_NAME, _HASHED_VERSION) */\n  tag_25\n    /* \"@openzeppelin/contracts/utils/cryptography/draft-EIP712.sol\":3392:3402  _TYPE_HASH */\n  mload(0x0120)\n    /* \"@openzeppelin/contracts/utils/cryptography/draft-EIP712.sol\":3404:3416  _HASHED_NAME */\n  mload(0xe0)\n    /* \"@openzeppelin/contracts/utils/cryptography/draft-EIP712.sol\":3418:3433  _HASHED_VERSION */\n  mload(0x0100)\n    /* \"@openzeppelin/contracts/utils/cryptography/draft-EIP712.sol\":3370:3391  _buildDomainSeparator */\n  shl(0x20, tag_18)\n    /* \"@openzeppelin/contracts/utils/cryptography/draft-EIP712.sol\":3370:3434  _buildDomainSeparator(_TYPE_HASH, _HASHED_NAME, _HASHED_VERSION) */\n  0x20\n  shr\n  jump\t// in\ntag_25:\n    /* \"@openzeppelin/contracts/utils/cryptography/draft-EIP712.sol\":3363:3434  return _buildDomainSeparator(_TYPE_HASH, _HASHED_NAME, _HASHED_VERSION) */\n  swap1\n  pop\n    /* \"@openzeppelin/contracts/utils/cryptography/draft-EIP712.sol\":3143:3451  function _domainSeparatorV4() internal view returns (bytes32) {... */\ntag_21:\n  swap1\n  jump\t// out\n    /* \"@openzeppelin/contracts/utils/Context.sol\":640:736  function _msgSender() internal view virtual returns (address) {... */\ntag_13:\n    /* \"@openzeppelin/contracts/utils/Context.sol\":693:700  address */\n  0x00\n    /* \"@openzeppelin/contracts/utils/Context.sol\":719:729  msg.sender */\n  caller\n    /* \"@openzeppelin/contracts/utils/Context.sol\":712:729  return msg.sender */\n  swap1\n  pop\n    /* \"@openzeppelin/contracts/utils/Context.sol\":640:736  function _msgSender() internal view virtual returns (address) {... */\n  swap1\n  jump\t// out\n    /* \"@openzeppelin/contracts/access/Ownable.sol\":2433:2620  function _transferOwnership(address newOwner) internal virtual {... */\ntag_14:\n    /* \"@openzeppelin/contracts/access/Ownable.sol\":2506:2522  address oldOwner */\n  0x00\n    /* \"@openzeppelin/contracts/access/Ownable.sol\":2525:2531  _owner */\n  dup1\n  0x00\n  swap1\n  sload\n  swap1\n  0x0100\n  exp\n  swap1\n  div\n  0xffffffffffffffffffffffffffffffffffffffff\n  and\n    /* \"@openzeppelin/contracts/access/Ownable.sol\":2506:2531  address oldOwner = _owner */\n  swap1\n  pop\n    /* \"@openzeppelin/contracts/access/Ownable.sol\":2550:2558  newOwner */\n  dup2\n    /* \"@openzeppelin/contracts/access/Ownable.sol\":2541:2547  _owner */\n  0x00\n  dup1\n    /* \"@openzeppelin/contracts/access/Ownable.sol\":2541:2558  _owner = newOwner */\n  0x0100\n  exp\n  dup2\n  sload\n  dup2\n  0xffffffffffffffffffffffffffffffffffffffff\n  mul\n  not\n  and\n  swap1\n  dup4\n  0xffffffffffffffffffffffffffffffffffffffff\n  and\n  mul\n  or\n  swap1\n  sstore\n  pop\n    /* \"@openzeppelin/contracts/access/Ownable.sol\":2604:2612  newOwner */\n  dup2\n    /* \"@openzeppelin/contracts/access/Ownable.sol\":2573:2613  OwnershipTransferred(oldOwner, newOwner) */\n  0xffffffffffffffffffffffffffffffffffffffff\n  and\n    /* \"@openzeppelin/contracts/access/Ownable.sol\":2594:2602  oldOwner */\n  dup2\n    /* \"@openzeppelin/contracts/access/Ownable.sol\":2573:2613  OwnershipTransferred(oldOwner, newOwner) */\n  0xffffffffffffffffffffffffffffffffffffffff\n  and\n  0x8be0079c531659141344cd1fd0a4f28419497f9722a3daafe3b4186f6b6457e0\n  mload(0x40)\n  mload(0x40)\n  dup1\n  swap2\n  sub\n  swap1\n  log3\n    /* \"@openzeppelin/contracts/access/Ownable.sol\":2496:2620  {... */\n  pop\n    /* \"@openzeppelin/contracts/access/Ownable.sol\":2433:2620  function _transferOwnership(address newOwner) internal virtual {... */\n  pop\n  jump\t// out\n    /* \"@openzeppelin/contracts/utils/cryptography/draft-EIP712.sol\":3457:3714  function _buildDomainSeparator(... */\ntag_18:\n    /* \"@openzeppelin/contracts/utils/cryptography/draft-EIP712.sol\":3597:3604  bytes32 */\n  0x00\n    /* \"@openzeppelin/contracts/utils/cryptography/draft-EIP712.sol\":3644:3652  typeHash */\n  dup4\n    /* \"@openzeppelin/contracts/utils/cryptography/draft-EIP712.sol\":3654:3662  nameHash */\n  dup4\n    /* \"@openzeppelin/contracts/utils/cryptography/draft-EIP712.sol\":3664:3675  versionHash */\n  dup4\n    /* \"@openzeppelin/contracts/utils/cryptography/draft-EIP712.sol\":3677:3690  block.chainid */\n  chainid\n    /* \"@openzeppelin/contracts/utils/cryptography/draft-EIP712.sol\":3700:3704  this */\n  address\n    /* \"@openzeppelin/contracts/utils/cryptography/draft-EIP712.sol\":3633:3706  abi.encode(typeHash, nameHash, versionHash, block.chainid, address(this)) */\n  add(0x20, mload(0x40))\n  tag_29\n  swap6\n  swap5\n  swap4\n  swap3\n  swap2\n  swap1\n  tag_30\n  jump\t// in\ntag_29:\n  mload(0x40)\n  0x20\n  dup2\n  dup4\n  sub\n  sub\n  dup2\n  mstore\n  swap1\n  0x40\n  mstore\n    /* \"@openzeppelin/contracts/utils/cryptography/draft-EIP712.sol\":3623:3707  keccak256(abi.encode(typeHash, nameHash, versionHash, block.chainid, address(this))) */\n  dup1\n  mload\n  swap1\n  0x20\n  add\n  keccak256\n    /* \"@openzeppelin/contracts/utils/cryptography/draft-EIP712.sol\":3616:3707  return keccak256(abi.encode(typeHash, nameHash, versionHash, block.chainid, address(this))) */\n  swap1\n  pop\n    /* \"@openzeppelin/contracts/utils/cryptography/draft-EIP712.sol\":3457:3714  function _buildDomainSeparator(... */\n  swap4\n  swap3\n  pop\n  pop\n  pop\n  jump\t// out\n    /* \"#utility.yul\":7:82   */\ntag_31:\n    /* \"#utility.yul\":40:46   */\n  0x00\n    /* \"#utility.yul\":73:75   */\n  0x40\n    /* \"#utility.yul\":67:76   */\n  mload\n    /* \"#utility.yul\":57:76   */\n  swap1\n  pop\n    /* \"#utility.yul\":7:82   */\n  swap1\n  jump\t// out\n    /* \"#utility.yul\":88:205   */\ntag_32:\n    /* \"#utility.yul\":197:198   */\n  0x00\n    /* \"#utility.yul\":194:195   */\n  dup1\n    /* \"#utility.yul\":187:199   */\n  revert\n    /* \"#utility.yul\":211:328   */\ntag_33:\n    /* \"#utility.yul\":320:321   */\n  0x00\n    /* \"#utility.yul\":317:318   */\n  dup1\n    /* \"#utility.yul\":310:322   */\n  revert\n    /* \"#utility.yul\":334:451   */\ntag_34:\n    /* \"#utility.yul\":443:444   */\n  0x00\n    /* \"#utility.yul\":440:441   */\n  dup1\n    /* \"#utility.yul\":433:445   */\n  revert\n    /* \"#utility.yul\":457:574   */\ntag_35:\n    /* \"#utility.yul\":566:567   */\n  0x00\n    /* \"#utility.yul\":563:564   */\n  dup1\n    /* \"#utility.yul\":556:568   */\n  revert\n    /* \"#utility.yul\":580:682   */\ntag_36:\n    /* \"#utility.yul\":621:627   */\n  0x00\n    /* \"#utility.yul\":672:674   */\n  0x1f\n    /* \"#utility.yul\":668:675   */\n  not\n    /* \"#utility.yul\":663:665   */\n  0x1f\n    /* \"#utility.yul\":656:661   */\n  dup4\n    /* \"#utility.yul\":652:666   */\n  add\n    /* \"#utility.yul\":648:676   */\n  and\n    /* \"#utility.yul\":638:676   */\n  swap1\n  pop\n    /* \"#utility.yul\":580:682   */\n  swap2\n  swap1\n  pop\n  jump\t// out\n    /* \"#utility.yul\":688:868   */\ntag_37:\n    /* \"#utility.yul\":736:813   */\n  0x4e487b7100000000000000000000000000000000000000000000000000000000\n    /* \"#utility.yul\":733:734   */\n  0x00\n    /* \"#utility.yul\":726:814   */\n  mstore\n    /* \"#utility.yul\":833:837   */\n  0x41\n    /* \"#utility.yul\":830:831   */\n  0x04\n    /* \"#utility.yul\":823:838   */\n  mstore\n    /* \"#utility.yul\":857:861   */\n  0x24\n    /* \"#utility.yul\":854:855   */\n  0x00\n    /* \"#utility.yul\":847:862   */\n  revert\n    /* \"#utility.yul\":874:1155   */\ntag_38:\n    /* \"#utility.yul\":957:984   */\n  tag_60\n    /* \"#utility.yul\":979:983   */\n  dup3\n    /* \"#utility.yul\":957:984   */\n  tag_36\n  jump\t// in\ntag_60:\n    /* \"#utility.yul\":949:955   */\n  dup2\n    /* \"#utility.yul\":945:985   */\n  add\n    /* \"#utility.yul\":1087:1093   */\n  dup2\n    /* \"#utility.yul\":1075:1085   */\n  dup2\n    /* \"#utility.yul\":1072:1094   */\n  lt\n    /* \"#utility.yul\":1051:1069   */\n  0xffffffffffffffff\n    /* \"#utility.yul\":1039:1049   */\n  dup3\n    /* \"#utility.yul\":1036:1070   */\n  gt\n    /* \"#utility.yul\":1033:1095   */\n  or\n    /* \"#utility.yul\":1030:1118   */\n  iszero\n  tag_61\n  jumpi\n    /* \"#utility.yul\":1098:1116   */\n  tag_62\n  tag_37\n  jump\t// in\ntag_62:\n    /* \"#utility.yul\":1030:1118   */\ntag_61:\n    /* \"#utility.yul\":1138:1148   */\n  dup1\n    /* \"#utility.yul\":1134:1136   */\n  0x40\n    /* \"#utility.yul\":1127:1149   */\n  mstore\n    /* \"#utility.yul\":917:1155   */\n  pop\n    /* \"#utility.yul\":874:1155   */\n  pop\n  pop\n  jump\t// out\n    /* \"#utility.yul\":1161:1290   */\ntag_39:\n    /* \"#utility.yul\":1195:1201   */\n  0x00\n    /* \"#utility.yul\":1222:1242   */\n  tag_64\n  tag_31\n  jump\t// in\ntag_64:\n    /* \"#utility.yul\":1212:1242   */\n  swap1\n  pop\n    /* \"#utility.yul\":1251:1284   */\n  tag_65\n    /* \"#utility.yul\":1279:1283   */\n  dup3\n    /* \"#utility.yul\":1271:1277   */\n  dup3\n    /* \"#utility.yul\":1251:1284   */\n  tag_38\n  jump\t// in\ntag_65:\n    /* \"#utility.yul\":1161:1290   */\n  swap2\n  swap1\n  pop\n  jump\t// out\n    /* \"#utility.yul\":1296:1604   */\ntag_40:\n    /* \"#utility.yul\":1358:1362   */\n  0x00\n    /* \"#utility.yul\":1448:1466   */\n  0xffffffffffffffff\n    /* \"#utility.yul\":1440:1446   */\n  dup3\n    /* \"#utility.yul\":1437:1467   */\n  gt\n    /* \"#utility.yul\":1434:1490   */\n  iszero\n  tag_67\n  jumpi\n    /* \"#utility.yul\":1470:1488   */\n  tag_68\n  tag_37\n  jump\t// in\ntag_68:\n    /* \"#utility.yul\":1434:1490   */\ntag_67:\n    /* \"#utility.yul\":1508:1537   */\n  tag_69\n    /* \"#utility.yul\":1530:1536   */\n  dup3\n    /* \"#utility.yul\":1508:1537   */\n  tag_36\n  jump\t// in\ntag_69:\n    /* \"#utility.yul\":1500:1537   */\n  swap1\n  pop\n    /* \"#utility.yul\":1592:1596   */\n  0x20\n    /* \"#utility.yul\":1586:1590   */\n  dup2\n    /* \"#utility.yul\":1582:1597   */\n  add\n    /* \"#utility.yul\":1574:1597   */\n  swap1\n  pop\n    /* \"#utility.yul\":1296:1604   */\n  swap2\n  swap1\n  pop\n  jump\t// out\n    /* \"#utility.yul\":1610:1856   */\ntag_41:\n    /* \"#utility.yul\":1691:1692   */\n  0x00\n    /* \"#utility.yul\":1701:1814   */\ntag_71:\n    /* \"#utility.yul\":1715:1721   */\n  dup4\n    /* \"#utility.yul\":1712:1713   */\n  dup2\n    /* \"#utility.yul\":1709:1722   */\n  lt\n    /* \"#utility.yul\":1701:1814   */\n  iszero\n  tag_73\n  jumpi\n    /* \"#utility.yul\":1800:1801   */\n  dup1\n    /* \"#utility.yul\":1795:1798   */\n  dup3\n    /* \"#utility.yul\":1791:1802   */\n  add\n    /* \"#utility.yul\":1785:1803   */\n  mload\n    /* \"#utility.yul\":1781:1782   */\n  dup2\n    /* \"#utility.yul\":1776:1779   */\n  dup5\n    /* \"#utility.yul\":1772:1783   */\n  add\n    /* \"#utility.yul\":1765:1804   */\n  mstore\n    /* \"#utility.yul\":1737:1739   */\n  0x20\n    /* \"#utility.yul\":1734:1735   */\n  dup2\n    /* \"#utility.yul\":1730:1740   */\n  add\n    /* \"#utility.yul\":1725:1740   */\n  swap1\n  pop\n    /* \"#utility.yul\":1701:1814   */\n  jump(tag_71)\ntag_73:\n    /* \"#utility.yul\":1848:1849   */\n  0x00\n    /* \"#utility.yul\":1839:1845   */\n  dup5\n    /* \"#utility.yul\":1834:1837   */\n  dup5\n    /* \"#utility.yul\":1830:1846   */\n  add\n    /* \"#utility.yul\":1823:1850   */\n  mstore\n    /* \"#utility.yul\":1672:1856   */\n  pop\n    /* \"#utility.yul\":1610:1856   */\n  pop\n  pop\n  pop\n  jump\t// out\n    /* \"#utility.yul\":1862:2296   */\ntag_42:\n    /* \"#utility.yul\":1951:1956   */\n  0x00\n    /* \"#utility.yul\":1976:2042   */\n  tag_75\n    /* \"#utility.yul\":1992:2041   */\n  tag_76\n    /* \"#utility.yul\":2034:2040   */\n  dup5\n    /* \"#utility.yul\":1992:2041   */\n  tag_40\n  jump\t// in\ntag_76:\n    /* \"#utility.yul\":1976:2042   */\n  tag_39\n  jump\t// in\ntag_75:\n    /* \"#utility.yul\":1967:2042   */\n  swap1\n  pop\n    /* \"#utility.yul\":2065:2071   */\n  dup3\n    /* \"#utility.yul\":2058:2063   */\n  dup2\n    /* \"#utility.yul\":2051:2072   */\n  mstore\n    /* \"#utility.yul\":2103:2107   */\n  0x20\n    /* \"#utility.yul\":2096:2101   */\n  dup2\n    /* \"#utility.yul\":2092:2108   */\n  add\n    /* \"#utility.yul\":2141:2144   */\n  dup5\n    /* \"#utility.yul\":2132:2138   */\n  dup5\n    /* \"#utility.yul\":2127:2130   */\n  dup5\n    /* \"#utility.yul\":2123:2139   */\n  add\n    /* \"#utility.yul\":2120:2145   */\n  gt\n    /* \"#utility.yul\":2117:2229   */\n  iszero\n  tag_77\n  jumpi\n    /* \"#utility.yul\":2148:2227   */\n  tag_78\n  tag_35\n  jump\t// in\ntag_78:\n    /* \"#utility.yul\":2117:2229   */\ntag_77:\n    /* \"#utility.yul\":2238:2290   */\n  tag_79\n    /* \"#utility.yul\":2283:2289   */\n  dup5\n    /* \"#utility.yul\":2278:2281   */\n  dup3\n    /* \"#utility.yul\":2273:2276   */\n  dup6\n    /* \"#utility.yul\":2238:2290   */\n  tag_41\n  jump\t// in\ntag_79:\n    /* \"#utility.yul\":1957:2296   */\n  pop\n    /* \"#utility.yul\":1862:2296   */\n  swap4\n  swap3\n  pop\n  pop\n  pop\n  jump\t// out\n    /* \"#utility.yul\":2316:2671   */\ntag_43:\n    /* \"#utility.yul\":2383:2388   */\n  0x00\n    /* \"#utility.yul\":2432:2435   */\n  dup3\n    /* \"#utility.yul\":2425:2429   */\n  0x1f\n    /* \"#utility.yul\":2417:2423   */\n  dup4\n    /* \"#utility.yul\":2413:2430   */\n  add\n    /* \"#utility.yul\":2409:2436   */\n  slt\n    /* \"#utility.yul\":2399:2521   */\n  tag_81\n  jumpi\n    /* \"#utility.yul\":2440:2519   */\n  tag_82\n  tag_34\n  jump\t// in\ntag_82:\n    /* \"#utility.yul\":2399:2521   */\ntag_81:\n    /* \"#utility.yul\":2550:2556   */\n  dup2\n    /* \"#utility.yul\":2544:2557   */\n  mload\n    /* \"#utility.yul\":2575:2665   */\n  tag_83\n    /* \"#utility.yul\":2661:2664   */\n  dup5\n    /* \"#utility.yul\":2653:2659   */\n  dup3\n    /* \"#utility.yul\":2646:2650   */\n  0x20\n    /* \"#utility.yul\":2638:2644   */\n  dup7\n    /* \"#utility.yul\":2634:2651   */\n  add\n    /* \"#utility.yul\":2575:2665   */\n  tag_42\n  jump\t// in\ntag_83:\n    /* \"#utility.yul\":2566:2665   */\n  swap2\n  pop\n    /* \"#utility.yul\":2389:2671   */\n  pop\n    /* \"#utility.yul\":2316:2671   */\n  swap3\n  swap2\n  pop\n  pop\n  jump\t// out\n    /* \"#utility.yul\":2677:3530   */\ntag_3:\n    /* \"#utility.yul\":2776:2782   */\n  0x00\n    /* \"#utility.yul\":2784:2790   */\n  dup1\n    /* \"#utility.yul\":2833:2835   */\n  0x40\n    /* \"#utility.yul\":2821:2830   */\n  dup4\n    /* \"#utility.yul\":2812:2819   */\n  dup6\n    /* \"#utility.yul\":2808:2831   */\n  sub\n    /* \"#utility.yul\":2804:2836   */\n  slt\n    /* \"#utility.yul\":2801:2920   */\n  iszero\n  tag_85\n  jumpi\n    /* \"#utility.yul\":2839:2918   */\n  tag_86\n  tag_32\n  jump\t// in\ntag_86:\n    /* \"#utility.yul\":2801:2920   */\ntag_85:\n    /* \"#utility.yul\":2980:2981   */\n  0x00\n    /* \"#utility.yul\":2969:2978   */\n  dup4\n    /* \"#utility.yul\":2965:2982   */\n  add\n    /* \"#utility.yul\":2959:2983   */\n  mload\n    /* \"#utility.yul\":3010:3028   */\n  0xffffffffffffffff\n    /* \"#utility.yul\":3002:3008   */\n  dup2\n    /* \"#utility.yul\":2999:3029   */\n  gt\n    /* \"#utility.yul\":2996:3113   */\n  iszero\n  tag_87\n  jumpi\n    /* \"#utility.yul\":3032:3111   */\n  tag_88\n  tag_33\n  jump\t// in\ntag_88:\n    /* \"#utility.yul\":2996:3113   */\ntag_87:\n    /* \"#utility.yul\":3137:3211   */\n  tag_89\n    /* \"#utility.yul\":3203:3210   */\n  dup6\n    /* \"#utility.yul\":3194:3200   */\n  dup3\n    /* \"#utility.yul\":3183:3192   */\n  dup7\n    /* \"#utility.yul\":3179:3201   */\n  add\n    /* \"#utility.yul\":3137:3211   */\n  tag_43\n  jump\t// in\ntag_89:\n    /* \"#utility.yul\":3127:3211   */\n  swap3\n  pop\n    /* \"#utility.yul\":2930:3221   */\n  pop\n    /* \"#utility.yul\":3281:3283   */\n  0x20\n    /* \"#utility.yul\":3270:3279   */\n  dup4\n    /* \"#utility.yul\":3266:3284   */\n  add\n    /* \"#utility.yul\":3260:3285   */\n  mload\n    /* \"#utility.yul\":3312:3330   */\n  0xffffffffffffffff\n    /* \"#utility.yul\":3304:3310   */\n  dup2\n    /* \"#utility.yul\":3301:3331   */\n  gt\n    /* \"#utility.yul\":3298:3415   */\n  iszero\n  tag_90\n  jumpi\n    /* \"#utility.yul\":3334:3413   */\n  tag_91\n  tag_33\n  jump\t// in\ntag_91:\n    /* \"#utility.yul\":3298:3415   */\ntag_90:\n    /* \"#utility.yul\":3439:3513   */\n  tag_92\n    /* \"#utility.yul\":3505:3512   */\n  dup6\n    /* \"#utility.yul\":3496:3502   */\n  dup3\n    /* \"#utility.yul\":3485:3494   */\n  dup7\n    /* \"#utility.yul\":3481:3503   */\n  add\n    /* \"#utility.yul\":3439:3513   */\n  tag_43\n  jump\t// in\ntag_92:\n    /* \"#utility.yul\":3429:3513   */\n  swap2\n  pop\n    /* \"#utility.yul\":3231:3523   */\n  pop\n    /* \"#utility.yul\":2677:3530   */\n  swap3\n  pop\n  swap3\n  swap1\n  pop\n  jump\t// out\n    /* \"#utility.yul\":3536:3613   */\ntag_44:\n    /* \"#utility.yul\":3573:3580   */\n  0x00\n    /* \"#utility.yul\":3602:3607   */\n  dup2\n    /* \"#utility.yul\":3591:3607   */\n  swap1\n  pop\n    /* \"#utility.yul\":3536:3613   */\n  swap2\n  swap1\n  pop\n  jump\t// out\n    /* \"#utility.yul\":3619:3737   */\ntag_45:\n    /* \"#utility.yul\":3706:3730   */\n  tag_95\n    /* \"#utility.yul\":3724:3729   */\n  dup2\n    /* \"#utility.yul\":3706:3730   */\n  tag_44\n  jump\t// in\ntag_95:\n    /* \"#utility.yul\":3701:3704   */\n  dup3\n    /* \"#utility.yul\":3694:3731   */\n  mstore\n    /* \"#utility.yul\":3619:3737   */\n  pop\n  pop\n  jump\t// out\n    /* \"#utility.yul\":3743:3820   */\ntag_46:\n    /* \"#utility.yul\":3780:3787   */\n  0x00\n    /* \"#utility.yul\":3809:3814   */\n  dup2\n    /* \"#utility.yul\":3798:3814   */\n  swap1\n  pop\n    /* \"#utility.yul\":3743:3820   */\n  swap2\n  swap1\n  pop\n  jump\t// out\n    /* \"#utility.yul\":3826:3944   */\ntag_47:\n    /* \"#utility.yul\":3913:3937   */\n  tag_98\n    /* \"#utility.yul\":3931:3936   */\n  dup2\n    /* \"#utility.yul\":3913:3937   */\n  tag_46\n  jump\t// in\ntag_98:\n    /* \"#utility.yul\":3908:3911   */\n  dup3\n    /* \"#utility.yul\":3901:3938   */\n  mstore\n    /* \"#utility.yul\":3826:3944   */\n  pop\n  pop\n  jump\t// out\n    /* \"#utility.yul\":3950:4076   */\ntag_48:\n    /* \"#utility.yul\":3987:3994   */\n  0x00\n    /* \"#utility.yul\":4027:4069   */\n  0xffffffffffffffffffffffffffffffffffffffff\n    /* \"#utility.yul\":4020:4025   */\n  dup3\n    /* \"#utility.yul\":4016:4070   */\n  and\n    /* \"#utility.yul\":4005:4070   */\n  swap1\n  pop\n    /* \"#utility.yul\":3950:4076   */\n  swap2\n  swap1\n  pop\n  jump\t// out\n    /* \"#utility.yul\":4082:4178   */\ntag_49:\n    /* \"#utility.yul\":4119:4126   */\n  0x00\n    /* \"#utility.yul\":4148:4172   */\n  tag_101\n    /* \"#utility.yul\":4166:4171   */\n  dup3\n    /* \"#utility.yul\":4148:4172   */\n  tag_48\n  jump\t// in\ntag_101:\n    /* \"#utility.yul\":4137:4172   */\n  swap1\n  pop\n    /* \"#utility.yul\":4082:4178   */\n  swap2\n  swap1\n  pop\n  jump\t// out\n    /* \"#utility.yul\":4184:4302   */\ntag_50:\n    /* \"#utility.yul\":4271:4295   */\n  tag_103\n    /* \"#utility.yul\":4289:4294   */\n  dup2\n    /* \"#utility.yul\":4271:4295   */\n  tag_49\n  jump\t// in\ntag_103:\n    /* \"#utility.yul\":4266:4269   */\n  dup3\n    /* \"#utility.yul\":4259:4296   */\n  mstore\n    /* \"#utility.yul\":4184:4302   */\n  pop\n  pop\n  jump\t// out\n    /* \"#utility.yul\":4308:4972   */\ntag_30:\n    /* \"#utility.yul\":4513:4517   */\n  0x00\n    /* \"#utility.yul\":4551:4554   */\n  0xa0\n    /* \"#utility.yul\":4540:4549   */\n  dup3\n    /* \"#utility.yul\":4536:4555   */\n  add\n    /* \"#utility.yul\":4528:4555   */\n  swap1\n  pop\n    /* \"#utility.yul\":4565:4636   */\n  tag_105\n    /* \"#utility.yul\":4633:4634   */\n  0x00\n    /* \"#utility.yul\":4622:4631   */\n  dup4\n    /* \"#utility.yul\":4618:4635   */\n  add\n    /* \"#utility.yul\":4609:4615   */\n  dup9\n    /* \"#utility.yul\":4565:4636   */\n  tag_45\n  jump\t// in\ntag_105:\n    /* \"#utility.yul\":4646:4718   */\n  tag_106\n    /* \"#utility.yul\":4714:4716   */\n  0x20\n    /* \"#utility.yul\":4703:4712   */\n  dup4\n    /* \"#utility.yul\":4699:4717   */\n  add\n    /* \"#utility.yul\":4690:4696   */\n  dup8\n    /* \"#utility.yul\":4646:4718   */\n  tag_45\n  jump\t// in\ntag_106:\n    /* \"#utility.yul\":4728:4800   */\n  tag_107\n    /* \"#utility.yul\":4796:4798   */\n  0x40\n    /* \"#utility.yul\":4785:4794   */\n  dup4\n    /* \"#utility.yul\":4781:4799   */\n  add\n    /* \"#utility.yul\":4772:4778   */\n  dup7\n    /* \"#utility.yul\":4728:4800   */\n  tag_45\n  jump\t// in\ntag_107:\n    /* \"#utility.yul\":4810:4882   */\n  tag_108\n    /* \"#utility.yul\":4878:4880   */\n  0x60\n    /* \"#utility.yul\":4867:4876   */\n  dup4\n    /* \"#utility.yul\":4863:4881   */\n  add\n    /* \"#utility.yul\":4854:4860   */\n  dup6\n    /* \"#utility.yul\":4810:4882   */\n  tag_47\n  jump\t// in\ntag_108:\n    /* \"#utility.yul\":4892:4965   */\n  tag_109\n    /* \"#utility.yul\":4960:4963   */\n  0x80\n    /* \"#utility.yul\":4949:4958   */\n  dup4\n    /* \"#utility.yul\":4945:4964   */\n  add\n    /* \"#utility.yul\":4936:4942   */\n  dup5\n    /* \"#utility.yul\":4892:4965   */\n  tag_50\n  jump\t// in\ntag_109:\n    /* \"#utility.yul\":4308:4972   */\n  swap7\n  swap6\n  pop\n  pop\n  pop\n  pop\n  pop\n  pop\n  jump\t// out\n    /* \"contracts/registry/Identity.sol\":498:2431  contract Identity is Ownable, IdentitySigner, EIP712 {... */\ntag_20:\n  mload(0x80)\n  mload(0xa0)\n  mload(0xc0)\n  mload(0xe0)\n  mload(0x0100)\n  mload(0x0120)\n  codecopy(0x00, dataOffset(sub_0), dataSize(sub_0))\n  0x00\n  assignImmutable(\"0x162f7b8508eeb042919e192a88cd9658d8d9620c570a09aeeef475bc42e39ecf\")\n  0x00\n  assignImmutable(\"0x0f00538877f92428038f9fbe5bb828de8348ac83ff3e7d12a732d923273183e1\")\n  0x00\n  assignImmutable(\"0x2977897376800d2e8e3b0a58999c16faa0e9c6608aa4fc77626c5a42af694ef9\")\n  0x00\n  assignImmutable(\"0x8aa1c539d88d2917ab61113c1a4fcdb5d84bdff1b85c257152c86b49e7f24537\")\n  0x00\n  assignImmutable(\"0x8d6e24b08d4e7540303939ad6a0ec75b55f9ee7231fe80cb8b4c078323608cdc\")\n  0x00\n  assignImmutable(\"0xc06ea737db8026c421091ad4febd4ca09fd8c2c0bbf091629f2fd50e723a4bed\")\n  return(0x00, dataSize(sub_0))\nstop\n\nsub_0: assembly {\n        /* \"contracts/registry/Identity.sol\":498:2431  contract Identity is Ownable, IdentitySigner, EIP712 {... */\n      mstore(0x40, 0x80)\n      callvalue\n      dup1\n      iszero\n      tag_1\n      jumpi\n      0x00\n      dup1\n      revert\n    tag_1:\n      pop\n      jumpi(tag_2, lt(calldatasize, 0x04))\n      shr(0xe0, calldataload(0x00))\n      dup1\n      0x85a5affe\n      gt\n      tag_17\n      jumpi\n      dup1\n      0xd4d9bdcd\n      gt\n      tag_18\n      jumpi\n      dup1\n      0xd4d9bdcd\n      eq\n      tag_13\n      jumpi\n      dup1\n      0xed24911d\n      eq\n      tag_14\n      jumpi\n      dup1\n      0xf2fde38b\n      eq\n      tag_15\n      jumpi\n      dup1\n      0xf698da25\n      eq\n      tag_16\n      jumpi\n      jump(tag_2)\n    tag_18:\n      dup1\n      0x85a5affe\n      eq\n      tag_10\n      jumpi\n      dup1\n      0x8da5cb5b\n      eq\n      tag_11\n      jumpi\n      dup1\n      0x934f3a11\n      eq\n      tag_12\n      jumpi\n      jump(tag_2)\n    tag_17:\n      dup1\n      0x54f6127f\n      gt\n      tag_19\n      jumpi\n      dup1\n      0x54f6127f\n      eq\n      tag_6\n      jumpi\n      dup1\n      0x5ae6bd37\n      eq\n      tag_7\n      jumpi\n      dup1\n      0x715018a6\n      eq\n      tag_8\n      jumpi\n      dup1\n      0x7d832974\n      eq\n      tag_9\n      jumpi\n      jump(tag_2)\n    tag_19:\n      dup1\n      0x0a1028c4\n      eq\n      tag_3\n      jumpi\n      dup1\n      0x12fb68e0\n      eq\n      tag_4\n      jumpi\n      dup1\n      0x2d3e6536\n      eq\n      tag_5\n      jumpi\n    tag_2:\n      0x00\n      dup1\n      revert\n        /* \"contracts/registry/Identity.sol\":1898:2225  function getMessageHash(bytes memory message) public view returns (bytes32) {... */\n    tag_3:\n      tag_20\n      0x04\n      dup1\n      calldatasize\n      sub\n      dup2\n      add\n      swap1\n      tag_21\n      swap2\n      swap1\n      tag_22\n      jump\t// in\n    tag_21:\n      tag_23\n      jump\t// in\n    tag_20:\n      mload(0x40)\n      tag_24\n      swap2\n      swap1\n      tag_25\n      jump\t// in\n    tag_24:\n      mload(0x40)\n      dup1\n      swap2\n      sub\n      swap1\n      return\n        /* \"contracts/Logic/SignMessage.sol\":3232:6986  function checkNSignatures(... */\n    tag_4:\n      tag_26\n      0x04\n      dup1\n      calldatasize\n      sub\n      dup2\n      add\n      swap1\n      tag_27\n      swap2\n      swap1\n      tag_28\n      jump\t// in\n    tag_27:\n      tag_29\n      jump\t// in\n    tag_26:\n      stop\n        /* \"contracts/registry/Identity.sol\":1293:1529  function setData(bytes32 key, string memory value) public  override onlyOwner returns(bool success) {... */\n    tag_5:\n      tag_30\n      0x04\n      dup1\n      calldatasize\n      sub\n      dup2\n      add\n      swap1\n      tag_31\n      swap2\n      swap1\n      tag_32\n      jump\t// in\n    tag_31:\n      tag_33\n      jump\t// in\n    tag_30:\n      mload(0x40)\n      tag_34\n      swap2\n      swap1\n      tag_35\n      jump\t// in\n    tag_34:\n      mload(0x40)\n      dup1\n      swap2\n      sub\n      swap1\n      return\n        /* \"contracts/registry/Identity.sol\":1138:1288  function getData(bytes32 key) public override view returns(string memory value) {... */\n    tag_6:\n      tag_36\n      0x04\n      dup1\n      calldatasize\n      sub\n      dup2\n      add\n      swap1\n      tag_37\n      swap2\n      swap1\n      tag_38\n      jump\t// in\n    tag_37:\n      tag_39\n      jump\t// in\n    tag_36:\n      mload(0x40)\n      tag_40\n      swap2\n      swap1\n      tag_41\n      jump\t// in\n    tag_40:\n      mload(0x40)\n      dup1\n      swap2\n      sub\n      swap1\n      return\n        /* \"contracts/Logic/SignMessage.sol\":1294:1342  mapping(bytes32 => uint256)public signedMessages */\n    tag_7:\n      tag_42\n      0x04\n      dup1\n      calldatasize\n      sub\n      dup2\n      add\n      swap1\n      tag_43\n      swap2\n      swap1\n      tag_38\n      jump\t// in\n    tag_43:\n      tag_44\n      jump\t// in\n    tag_42:\n      mload(0x40)\n      tag_45\n      swap2\n      swap1\n      tag_46\n      jump\t// in\n    tag_45:\n      mload(0x40)\n      dup1\n      swap2\n      sub\n      swap1\n      return\n        /* \"@openzeppelin/contracts/access/Ownable.sol\":1831:1932  function renounceOwnership() public virtual onlyOwner {... */\n    tag_8:\n      tag_47\n      tag_48\n      jump\t// in\n    tag_47:\n      stop\n        /* \"contracts/Logic/SignMessage.sol\":1181:1250  mapping(address => mapping(bytes32 => uint256)) public approvedHashes */\n    tag_9:\n      tag_49\n      0x04\n      dup1\n      calldatasize\n      sub\n      dup2\n      add\n      swap1\n      tag_50\n      swap2\n      swap1\n      tag_51\n      jump\t// in\n    tag_50:\n      tag_52\n      jump\t// in\n    tag_49:\n      mload(0x40)\n      tag_53\n      swap2\n      swap1\n      tag_46\n      jump\t// in\n    tag_53:\n      mload(0x40)\n      dup1\n      swap2\n      sub\n      swap1\n      return\n        /* \"contracts/Logic/SignMessage.sol\":1444:1742  function signMessage(bytes calldata message) external {... */\n    tag_10:\n      tag_54\n      0x04\n      dup1\n      calldatasize\n      sub\n      dup2\n      add\n      swap1\n      tag_55\n      swap2\n      swap1\n      tag_56\n      jump\t// in\n    tag_55:\n      tag_57\n      jump\t// in\n    tag_54:\n      stop\n        /* \"@openzeppelin/contracts/access/Ownable.sol\":1201:1286  function owner() public view virtual returns (address) {... */\n    tag_11:\n      tag_58\n      tag_59\n      jump\t// in\n    tag_58:\n      mload(0x40)\n      tag_60\n      swap2\n      swap1\n      tag_61\n      jump\t// in\n    tag_60:\n      mload(0x40)\n      dup1\n      swap2\n      sub\n      swap1\n      return\n        /* \"contracts/registry/Identity.sol\":2227:2427  function checkSignatures(... */\n    tag_12:\n      tag_62\n      0x04\n      dup1\n      calldatasize\n      sub\n      dup2\n      add\n      swap1\n      tag_63\n      swap2\n      swap1\n      tag_64\n      jump\t// in\n    tag_63:\n      tag_65\n      jump\t// in\n    tag_62:\n      stop\n        /* \"contracts/Logic/SignMessage.sol\":6992:7168  function approveHash(bytes32 hashToApprove) external {... */\n    tag_13:\n      tag_66\n      0x04\n      dup1\n      calldatasize\n      sub\n      dup2\n      add\n      swap1\n      tag_67\n      swap2\n      swap1\n      tag_38\n      jump\t// in\n    tag_67:\n      tag_68\n      jump\t// in\n    tag_66:\n      stop\n        /* \"contracts/registry/Identity.sol\":1792:1895  function getDomainSeparator() public view returns(bytes32) {... */\n    tag_14:\n      tag_69\n      tag_70\n      jump\t// in\n    tag_69:\n      mload(0x40)\n      tag_71\n      swap2\n      swap1\n      tag_25\n      jump\t// in\n    tag_71:\n      mload(0x40)\n      dup1\n      swap2\n      sub\n      swap1\n      return\n        /* \"@openzeppelin/contracts/access/Ownable.sol\":2081:2279  function transferOwnership(address newOwner) public virtual onlyOwner {... */\n    tag_15:\n      tag_72\n      0x04\n      dup1\n      calldatasize\n      sub\n      dup2\n      add\n      swap1\n      tag_73\n      swap2\n      swap1\n      tag_74\n      jump\t// in\n    tag_73:\n      tag_75\n      jump\t// in\n    tag_72:\n      stop\n        /* \"contracts/Logic/SignMessage.sol\":1257:1287  bytes32 public domainSeparator */\n    tag_16:\n      tag_76\n      tag_77\n      jump\t// in\n    tag_76:\n      mload(0x40)\n      tag_78\n      swap2\n      swap1\n      tag_25\n      jump\t// in\n    tag_78:\n      mload(0x40)\n      dup1\n      swap2\n      sub\n      swap1\n      return\n        /* \"contracts/registry/Identity.sol\":1898:2225  function getMessageHash(bytes memory message) public view returns (bytes32) {... */\n    tag_23:\n        /* \"contracts/registry/Identity.sol\":1965:1972  bytes32 */\n      0x00\n        /* \"contracts/registry/Identity.sol\":1984:2006  bytes32 akxMessageHash */\n      dup1\n        /* \"contracts/registry/Identity.sol\":781:847  0xef3da448ef037ebfba3b01faf85e69692b03cfc21278b48c6f12f50fae34c548 */\n      0xef3da448ef037ebfba3b01faf85e69692b03cfc21278b48c6f12f50fae34c548\n        /* \"contracts/registry/Identity.sol\":2030:2046  AKX_MSG_TYPEHASH */\n      0x00\n      shl\n        /* \"contracts/registry/Identity.sol\":2058:2065  message */\n      dup4\n        /* \"contracts/registry/Identity.sol\":2048:2066  keccak256(message) */\n      dup1\n      mload\n      swap1\n      0x20\n      add\n      keccak256\n        /* \"contracts/registry/Identity.sol\":2019:2067  abi.encode(AKX_MSG_TYPEHASH, keccak256(message)) */\n      add(0x20, mload(0x40))\n      tag_80\n      swap3\n      swap2\n      swap1\n      tag_81\n      jump\t// in\n    tag_80:\n      mload(0x40)\n      0x20\n      dup2\n      dup4\n      sub\n      sub\n      dup2\n      mstore\n      swap1\n      0x40\n      mstore\n        /* \"contracts/registry/Identity.sol\":2009:2068  keccak256(abi.encode(AKX_MSG_TYPEHASH, keccak256(message))) */\n      dup1\n      mload\n      swap1\n      0x20\n      add\n      keccak256\n        /* \"contracts/registry/Identity.sol\":1984:2068  bytes32 akxMessageHash = keccak256(abi.encode(AKX_MSG_TYPEHASH, keccak256(message))) */\n      swap1\n      pop\n        /* \"contracts/registry/Identity.sol\":2131:2135  0x19 */\n      0x19\n        /* \"contracts/registry/Identity.sol\":2124:2136  bytes1(0x19) */\n      0xf8\n      shl\n        /* \"contracts/registry/Identity.sol\":2145:2149  0x01 */\n      0x01\n        /* \"contracts/registry/Identity.sol\":2138:2150  bytes1(0x01) */\n      0xf8\n      shl\n        /* \"contracts/registry/Identity.sol\":2177:2181  this */\n      address\n        /* \"contracts/registry/Identity.sol\":2152:2200  Identity(payable(address(this))).domainSeparator */\n      0xffffffffffffffffffffffffffffffffffffffff\n      and\n      0xf698da25\n        /* \"contracts/registry/Identity.sol\":2202:2216  akxMessageHash */\n      dup5\n        /* \"contracts/registry/Identity.sol\":2107:2217  abi.encodePacked(bytes1(0x19), bytes1(0x01), Identity(payable(address(this))).domainSeparator, akxMessageHash) */\n      add(0x20, mload(0x40))\n      tag_82\n      swap6\n      swap5\n      swap4\n      swap3\n      swap2\n      swap1\n      tag_83\n      jump\t// in\n    tag_82:\n      mload(0x40)\n      0x20\n      dup2\n      dup4\n      sub\n      sub\n      dup2\n      mstore\n      swap1\n      0x40\n      mstore\n        /* \"contracts/registry/Identity.sol\":2097:2218  keccak256(abi.encodePacked(bytes1(0x19), bytes1(0x01), Identity(payable(address(this))).domainSeparator, akxMessageHash)) */\n      dup1\n      mload\n      swap1\n      0x20\n      add\n      keccak256\n        /* \"contracts/registry/Identity.sol\":2078:2218  return... */\n      swap2\n      pop\n      pop\n        /* \"contracts/registry/Identity.sol\":1898:2225  function getMessageHash(bytes memory message) public view returns (bytes32) {... */\n      swap2\n      swap1\n      pop\n      jump\t// out\n        /* \"contracts/Logic/SignMessage.sol\":3232:6986  function checkNSignatures(... */\n    tag_29:\n        /* \"contracts/Logic/SignMessage.sol\":3524:3526  65 */\n      0x41\n        /* \"contracts/Logic/SignMessage.sol\":3504:3522  requiredSignatures */\n      dup2\n        /* \"contracts/Logic/SignMessage.sol\":3504:3526  requiredSignatures* 65 */\n      tag_85\n      swap2\n      swap1\n      tag_86\n      jump\t// in\n    tag_85:\n        /* \"contracts/Logic/SignMessage.sol\":3483:3493  signatures */\n      dup3\n        /* \"contracts/Logic/SignMessage.sol\":3483:3500  signatures.length */\n      mload\n        /* \"contracts/Logic/SignMessage.sol\":3483:3526  signatures.length >= requiredSignatures* 65 */\n      lt\n      iszero\n        /* \"contracts/Logic/SignMessage.sol\":3475:3536  require(signatures.length >= requiredSignatures* 65, \"GS020\") */\n      tag_87\n      jumpi\n      mload(0x40)\n      0x08c379a000000000000000000000000000000000000000000000000000000000\n      dup2\n      mstore\n      0x04\n      add\n      tag_88\n      swap1\n      tag_89\n      jump\t// in\n    tag_88:\n      mload(0x40)\n      dup1\n      swap2\n      sub\n      swap1\n      revert\n    tag_87:\n        /* \"contracts/Logic/SignMessage.sol\":3598:3615  address lastOwner */\n      0x00\n        /* \"contracts/Logic/SignMessage.sol\":3638:3658  address currentOwner */\n      dup1\n        /* \"contracts/Logic/SignMessage.sol\":3668:3675  uint8 v */\n      dup1\n        /* \"contracts/Logic/SignMessage.sol\":3685:3694  bytes32 r */\n      0x00\n        /* \"contracts/Logic/SignMessage.sol\":3704:3713  bytes32 s */\n      dup1\n        /* \"contracts/Logic/SignMessage.sol\":3723:3732  uint256 i */\n      0x00\n        /* \"contracts/Logic/SignMessage.sol\":3742:6980  for (i = 0; i < requiredSignatures; i++) {... */\n    tag_90:\n        /* \"contracts/Logic/SignMessage.sol\":3758:3776  requiredSignatures */\n      dup7\n        /* \"contracts/Logic/SignMessage.sol\":3754:3755  i */\n      dup2\n        /* \"contracts/Logic/SignMessage.sol\":3754:3776  i < requiredSignatures */\n      lt\n        /* \"contracts/Logic/SignMessage.sol\":3742:6980  for (i = 0; i < requiredSignatures; i++) {... */\n      iszero\n      tag_91\n      jumpi\n        /* \"contracts/Logic/SignMessage.sol\":3809:3838  signatureSplit(signatures, i) */\n      tag_93\n        /* \"contracts/Logic/SignMessage.sol\":3824:3834  signatures */\n      dup9\n        /* \"contracts/Logic/SignMessage.sol\":3836:3837  i */\n      dup3\n        /* \"contracts/Logic/SignMessage.sol\":3809:3823  signatureSplit */\n      tag_94\n        /* \"contracts/Logic/SignMessage.sol\":3809:3838  signatureSplit(signatures, i) */\n      jump\t// in\n    tag_93:\n        /* \"contracts/Logic/SignMessage.sol\":3797:3838  (v, r, s) = signatureSplit(signatures, i) */\n      dup1\n      swap5\n      pop\n      dup2\n      swap6\n      pop\n      dup3\n      swap7\n      pop\n      pop\n      pop\n      pop\n        /* \"contracts/Logic/SignMessage.sol\":3861:3862  0 */\n      0x00\n        /* \"contracts/Logic/SignMessage.sol\":3856:3857  v */\n      dup5\n        /* \"contracts/Logic/SignMessage.sol\":3856:3862  v == 0 */\n      0xff\n      and\n      sub\n        /* \"contracts/Logic/SignMessage.sol\":3852:6868  if (v == 0) {... */\n      tag_95\n      jumpi\n        /* \"contracts/Logic/SignMessage.sol\":4081:4082  r */\n      dup3\n        /* \"contracts/Logic/SignMessage.sol\":4073:4083  uint256(r) */\n      0x00\n      shr\n        /* \"contracts/Logic/SignMessage.sol\":4042:4085  currentOwner = address(uint160(uint256(r))) */\n      swap5\n      pop\n        /* \"contracts/Logic/SignMessage.sol\":4507:4509  65 */\n      0x41\n        /* \"contracts/Logic/SignMessage.sol\":4486:4504  requiredSignatures */\n      dup8\n        /* \"contracts/Logic/SignMessage.sol\":4486:4509  requiredSignatures * 65 */\n      tag_96\n      swap2\n      swap1\n      tag_86\n      jump\t// in\n    tag_96:\n        /* \"contracts/Logic/SignMessage.sol\":4480:4481  s */\n      dup3\n        /* \"contracts/Logic/SignMessage.sol\":4472:4482  uint256(s) */\n      0x00\n      shr\n        /* \"contracts/Logic/SignMessage.sol\":4472:4509  uint256(s) >= requiredSignatures * 65 */\n      lt\n      iszero\n        /* \"contracts/Logic/SignMessage.sol\":4464:4519  require(uint256(s) >= requiredSignatures * 65, \"GS021\") */\n      tag_97\n      jumpi\n      mload(0x40)\n      0x08c379a000000000000000000000000000000000000000000000000000000000\n      dup2\n      mstore\n      0x04\n      add\n      tag_98\n      swap1\n      tag_99\n      jump\t// in\n    tag_98:\n      mload(0x40)\n      dup1\n      swap2\n      sub\n      swap1\n      revert\n    tag_97:\n        /* \"contracts/Logic/SignMessage.sol\":4678:4688  signatures */\n      dup8\n        /* \"contracts/Logic/SignMessage.sol\":4678:4695  signatures.length */\n      mload\n        /* \"contracts/Logic/SignMessage.sol\":4672:4674  32 */\n      0x20\n        /* \"contracts/Logic/SignMessage.sol\":4667:4668  s */\n      dup4\n        /* \"contracts/Logic/SignMessage.sol\":4659:4669  uint256(s) */\n      0x00\n      shr\n        /* \"contracts/Logic/SignMessage.sol\":4659:4674  uint256(s) + 32 */\n      tag_100\n      swap2\n      swap1\n      tag_101\n      jump\t// in\n    tag_100:\n        /* \"contracts/Logic/SignMessage.sol\":4659:4695  uint256(s) + 32 <= signatures.length */\n      gt\n      iszero\n        /* \"contracts/Logic/SignMessage.sol\":4651:4705  require(uint256(s) + 32 <= signatures.length, \"GS022\") */\n      tag_102\n      jumpi\n      mload(0x40)\n      0x08c379a000000000000000000000000000000000000000000000000000000000\n      dup2\n      mstore\n      0x04\n      add\n      tag_103\n      swap1\n      tag_104\n      jump\t// in\n    tag_103:\n      mload(0x40)\n      dup1\n      swap2\n      sub\n      swap1\n      revert\n    tag_102:\n        /* \"contracts/Logic/SignMessage.sol\":4849:4877  uint256 contractSignatureLen */\n      0x00\n        /* \"contracts/Logic/SignMessage.sol\":5044:5048  0x20 */\n      0x20\n        /* \"contracts/Logic/SignMessage.sol\":5040:5041  s */\n      dup4\n        /* \"contracts/Logic/SignMessage.sol\":5028:5038  signatures */\n      dup11\n        /* \"contracts/Logic/SignMessage.sol\":5024:5042  add(signatures, s) */\n      add\n        /* \"contracts/Logic/SignMessage.sol\":5020:5049  add(add(signatures, s), 0x20) */\n      add\n        /* \"contracts/Logic/SignMessage.sol\":5014:5050  mload(add(add(signatures, s), 0x20)) */\n      mload\n        /* \"contracts/Logic/SignMessage.sol\":4990:5050  contractSignatureLen := mload(add(add(signatures, s), 0x20)) */\n      swap1\n      pop\n        /* \"contracts/Logic/SignMessage.sol\":5134:5144  signatures */\n      dup9\n        /* \"contracts/Logic/SignMessage.sol\":5134:5151  signatures.length */\n      mload\n        /* \"contracts/Logic/SignMessage.sol\":5110:5130  contractSignatureLen */\n      dup2\n        /* \"contracts/Logic/SignMessage.sol\":5105:5107  32 */\n      0x20\n        /* \"contracts/Logic/SignMessage.sol\":5101:5102  s */\n      dup6\n        /* \"contracts/Logic/SignMessage.sol\":5093:5103  uint256(s) */\n      0x00\n      shr\n        /* \"contracts/Logic/SignMessage.sol\":5093:5107  uint256(s)+ 32 */\n      tag_105\n      swap2\n      swap1\n      tag_101\n      jump\t// in\n    tag_105:\n        /* \"contracts/Logic/SignMessage.sol\":5093:5130  uint256(s)+ 32 + contractSignatureLen */\n      tag_106\n      swap2\n      swap1\n      tag_101\n      jump\t// in\n    tag_106:\n        /* \"contracts/Logic/SignMessage.sol\":5093:5151  uint256(s)+ 32 + contractSignatureLen <= signatures.length */\n      gt\n      iszero\n        /* \"contracts/Logic/SignMessage.sol\":5085:5169  require(uint256(s)+ 32 + contractSignatureLen <= signatures.length, \"access denied\") */\n      tag_107\n      jumpi\n      mload(0x40)\n      0x08c379a000000000000000000000000000000000000000000000000000000000\n      dup2\n      mstore\n      0x04\n      add\n      tag_108\n      swap1\n      tag_109\n      jump\t// in\n    tag_108:\n      mload(0x40)\n      dup1\n      swap2\n      sub\n      swap1\n      revert\n    tag_107:\n        /* \"contracts/Logic/SignMessage.sol\":5223:5253  bytes memory contractSignature */\n      0x60\n        /* \"contracts/Logic/SignMessage.sol\":5550:5554  0x20 */\n      0x20\n        /* \"contracts/Logic/SignMessage.sol\":5546:5547  s */\n      dup5\n        /* \"contracts/Logic/SignMessage.sol\":5534:5544  signatures */\n      dup12\n        /* \"contracts/Logic/SignMessage.sol\":5530:5548  add(signatures, s) */\n      add\n        /* \"contracts/Logic/SignMessage.sol\":5526:5555  add(add(signatures, s), 0x20) */\n      add\n        /* \"contracts/Logic/SignMessage.sol\":5505:5555  contractSignature := add(add(signatures, s), 0x20) */\n      swap1\n      pop\n        /* \"contracts/Logic/SignMessage.sol\":205:215  0x20c13b0b */\n      0x20c13b0b\n        /* \"contracts/Logic/SignMessage.sol\":5677:5696  EIP1271_MAGIC_VALUE */\n      0xe0\n      shl\n        /* \"contracts/Logic/SignMessage.sol\":5598:5696  ISignatureValidator(currentOwner).isValidSignature(data, contractSignature) == EIP1271_MAGIC_VALUE */\n      not(0xffffffffffffffffffffffffffffffffffffffffffffffffffffffff)\n      and\n        /* \"contracts/Logic/SignMessage.sol\":5618:5630  currentOwner */\n      dup8\n        /* \"contracts/Logic/SignMessage.sol\":5598:5648  ISignatureValidator(currentOwner).isValidSignature */\n      0xffffffffffffffffffffffffffffffffffffffff\n      and\n      0x20c13b0b\n        /* \"contracts/Logic/SignMessage.sol\":5649:5653  data */\n      dup14\n        /* \"contracts/Logic/SignMessage.sol\":5655:5672  contractSignature */\n      dup5\n        /* \"contracts/Logic/SignMessage.sol\":5598:5673  ISignatureValidator(currentOwner).isValidSignature(data, contractSignature) */\n      mload(0x40)\n      dup4\n      0xffffffff\n      and\n      0xe0\n      shl\n      dup2\n      mstore\n      0x04\n      add\n      tag_110\n      swap3\n      swap2\n      swap1\n      tag_111\n      jump\t// in\n    tag_110:\n      0x20\n      mload(0x40)\n      dup1\n      dup4\n      sub\n      dup2\n      dup7\n      gas\n      staticcall\n      iszero\n      dup1\n      iszero\n      tag_113\n      jumpi\n      returndatasize\n      0x00\n      dup1\n      returndatacopy\n      revert(0x00, returndatasize)\n    tag_113:\n      pop\n      pop\n      pop\n      pop\n      mload(0x40)\n      returndatasize\n      not(0x1f)\n      0x1f\n      dup3\n      add\n      and\n      dup3\n      add\n      dup1\n      0x40\n      mstore\n      pop\n      dup2\n      add\n      swap1\n      tag_114\n      swap2\n      swap1\n      tag_115\n      jump\t// in\n    tag_114:\n        /* \"contracts/Logic/SignMessage.sol\":5598:5696  ISignatureValidator(currentOwner).isValidSignature(data, contractSignature) == EIP1271_MAGIC_VALUE */\n      not(0xffffffffffffffffffffffffffffffffffffffffffffffffffffffff)\n      and\n      eq\n        /* \"contracts/Logic/SignMessage.sol\":5590:5714  require(ISignatureValidator(currentOwner).isValidSignature(data, contractSignature) == EIP1271_MAGIC_VALUE, \"access denied\") */\n      tag_116\n      jumpi\n      mload(0x40)\n      0x08c379a000000000000000000000000000000000000000000000000000000000\n      dup2\n      mstore\n      0x04\n      add\n      tag_117\n      swap1\n      tag_109\n      jump\t// in\n    tag_117:\n      mload(0x40)\n      dup1\n      swap2\n      sub\n      swap1\n      revert\n    tag_116:\n        /* \"contracts/Logic/SignMessage.sol\":3864:5729  {... */\n      pop\n      pop\n        /* \"contracts/Logic/SignMessage.sol\":3852:6868  if (v == 0) {... */\n      jump(tag_118)\n    tag_95:\n        /* \"contracts/Logic/SignMessage.sol\":5744:5745  1 */\n      0x01\n        /* \"contracts/Logic/SignMessage.sol\":5739:5740  v */\n      dup5\n        /* \"contracts/Logic/SignMessage.sol\":5739:5745  v == 1 */\n      0xff\n      and\n      sub\n        /* \"contracts/Logic/SignMessage.sol\":5735:6868  if (v == 1) {... */\n      tag_119\n      jumpi\n        /* \"contracts/Logic/SignMessage.sol\":5956:5957  r */\n      dup3\n        /* \"contracts/Logic/SignMessage.sol\":5948:5958  uint256(r) */\n      0x00\n      shr\n        /* \"contracts/Logic/SignMessage.sol\":5917:5960  currentOwner = address(uint160(uint256(r))) */\n      swap5\n      pop\n        /* \"contracts/Logic/SignMessage.sol\":6145:6157  currentOwner */\n      dup5\n        /* \"contracts/Logic/SignMessage.sol\":6131:6157  msg.sender == currentOwner */\n      0xffffffffffffffffffffffffffffffffffffffff\n      and\n        /* \"contracts/Logic/SignMessage.sol\":6131:6141  msg.sender */\n      caller\n        /* \"contracts/Logic/SignMessage.sol\":6131:6157  msg.sender == currentOwner */\n      0xffffffffffffffffffffffffffffffffffffffff\n      and\n      eq\n        /* \"contracts/Logic/SignMessage.sol\":6131:6204  msg.sender == currentOwner || approvedHashes[currentOwner][dataHash] != 0 */\n      dup1\n      tag_120\n      jumpi\n      pop\n        /* \"contracts/Logic/SignMessage.sol\":6203:6204  0 */\n      0x00\n        /* \"contracts/Logic/SignMessage.sol\":6161:6175  approvedHashes */\n      0x01\n        /* \"contracts/Logic/SignMessage.sol\":6161:6189  approvedHashes[currentOwner] */\n      0x00\n        /* \"contracts/Logic/SignMessage.sol\":6176:6188  currentOwner */\n      dup8\n        /* \"contracts/Logic/SignMessage.sol\":6161:6189  approvedHashes[currentOwner] */\n      0xffffffffffffffffffffffffffffffffffffffff\n      and\n      0xffffffffffffffffffffffffffffffffffffffff\n      and\n      dup2\n      mstore\n      0x20\n      add\n      swap1\n      dup2\n      mstore\n      0x20\n      add\n      0x00\n      keccak256\n        /* \"contracts/Logic/SignMessage.sol\":6161:6199  approvedHashes[currentOwner][dataHash] */\n      0x00\n        /* \"contracts/Logic/SignMessage.sol\":6190:6198  dataHash */\n      dup13\n        /* \"contracts/Logic/SignMessage.sol\":6161:6199  approvedHashes[currentOwner][dataHash] */\n      dup2\n      mstore\n      0x20\n      add\n      swap1\n      dup2\n      mstore\n      0x20\n      add\n      0x00\n      keccak256\n      sload\n        /* \"contracts/Logic/SignMessage.sol\":6161:6204  approvedHashes[currentOwner][dataHash] != 0 */\n      eq\n      iszero\n        /* \"contracts/Logic/SignMessage.sol\":6131:6204  msg.sender == currentOwner || approvedHashes[currentOwner][dataHash] != 0 */\n    tag_120:\n        /* \"contracts/Logic/SignMessage.sol\":6123:6222  require(msg.sender == currentOwner || approvedHashes[currentOwner][dataHash] != 0, \"access denied\") */\n      tag_121\n      jumpi\n      mload(0x40)\n      0x08c379a000000000000000000000000000000000000000000000000000000000\n      dup2\n      mstore\n      0x04\n      add\n      tag_122\n      swap1\n      tag_109\n      jump\t// in\n    tag_122:\n      mload(0x40)\n      dup1\n      swap2\n      sub\n      swap1\n      revert\n    tag_121:\n        /* \"contracts/Logic/SignMessage.sol\":5735:6868  if (v == 1) {... */\n      jump(tag_123)\n    tag_119:\n        /* \"contracts/Logic/SignMessage.sol\":6251:6253  30 */\n      0x1e\n        /* \"contracts/Logic/SignMessage.sol\":6247:6248  v */\n      dup5\n        /* \"contracts/Logic/SignMessage.sol\":6247:6253  v > 30 */\n      0xff\n      and\n      gt\n        /* \"contracts/Logic/SignMessage.sol\":6243:6868  if (v > 30) {... */\n      iszero\n      tag_124\n      jumpi\n        /* \"contracts/Logic/SignMessage.sol\":6524:6621  ecrecover(keccak256(abi.encodePacked(\"\\x19Ethereum Signed Message:\\n32\", dataHash)), v - 4, r, s) */\n      0x01\n        /* \"contracts/Logic/SignMessage.sol\":6597:6605  dataHash */\n      dup11\n        /* \"contracts/Logic/SignMessage.sol\":6544:6606  abi.encodePacked(\"\\x19Ethereum Signed Message:\\n32\", dataHash) */\n      add(0x20, mload(0x40))\n      tag_125\n      swap2\n      swap1\n      tag_126\n      jump\t// in\n    tag_125:\n      mload(0x40)\n      0x20\n      dup2\n      dup4\n      sub\n      sub\n      dup2\n      mstore\n      swap1\n      0x40\n      mstore\n        /* \"contracts/Logic/SignMessage.sol\":6534:6607  keccak256(abi.encodePacked(\"\\x19Ethereum Signed Message:\\n32\", dataHash)) */\n      dup1\n      mload\n      swap1\n      0x20\n      add\n      keccak256\n        /* \"contracts/Logic/SignMessage.sol\":6613:6614  4 */\n      0x04\n        /* \"contracts/Logic/SignMessage.sol\":6609:6610  v */\n      dup7\n        /* \"contracts/Logic/SignMessage.sol\":6609:6614  v - 4 */\n      tag_127\n      swap2\n      swap1\n      tag_128\n      jump\t// in\n    tag_127:\n        /* \"contracts/Logic/SignMessage.sol\":6616:6617  r */\n      dup6\n        /* \"contracts/Logic/SignMessage.sol\":6619:6620  s */\n      dup6\n        /* \"contracts/Logic/SignMessage.sol\":6524:6621  ecrecover(keccak256(abi.encodePacked(\"\\x19Ethereum Signed Message:\\n32\", dataHash)), v - 4, r, s) */\n      mload(0x40)\n      0x00\n      dup2\n      mstore\n      0x20\n      add\n      0x40\n      mstore\n      mload(0x40)\n      tag_129\n      swap5\n      swap4\n      swap3\n      swap2\n      swap1\n      tag_130\n      jump\t// in\n    tag_129:\n      0x20\n      mload(0x40)\n      0x20\n      dup2\n      sub\n      swap1\n      dup1\n      dup5\n      sub\n      swap1\n      dup6\n      gas\n      staticcall\n      iszero\n      dup1\n      iszero\n      tag_132\n      jumpi\n      returndatasize\n      0x00\n      dup1\n      returndatacopy\n      revert(0x00, returndatasize)\n    tag_132:\n      pop\n      pop\n      pop\n      mload(sub(mload(0x40), 0x20))\n        /* \"contracts/Logic/SignMessage.sol\":6509:6621  currentOwner = ecrecover(keccak256(abi.encodePacked(\"\\x19Ethereum Signed Message:\\n32\", dataHash)), v - 4, r, s) */\n      swap5\n      pop\n        /* \"contracts/Logic/SignMessage.sol\":6243:6868  if (v > 30) {... */\n      jump(tag_133)\n    tag_124:\n        /* \"contracts/Logic/SignMessage.sol\":6825:6853  ecrecover(dataHash, v, r, s) */\n      0x01\n        /* \"contracts/Logic/SignMessage.sol\":6835:6843  dataHash */\n      dup11\n        /* \"contracts/Logic/SignMessage.sol\":6845:6846  v */\n      dup6\n        /* \"contracts/Logic/SignMessage.sol\":6848:6849  r */\n      dup6\n        /* \"contracts/Logic/SignMessage.sol\":6851:6852  s */\n      dup6\n        /* \"contracts/Logic/SignMessage.sol\":6825:6853  ecrecover(dataHash, v, r, s) */\n      mload(0x40)\n      0x00\n      dup2\n      mstore\n      0x20\n      add\n      0x40\n      mstore\n      mload(0x40)\n      tag_134\n      swap5\n      swap4\n      swap3\n      swap2\n      swap1\n      tag_130\n      jump\t// in\n    tag_134:\n      0x20\n      mload(0x40)\n      0x20\n      dup2\n      sub\n      swap1\n      dup1\n      dup5\n      sub\n      swap1\n      dup6\n      gas\n      staticcall\n      iszero\n      dup1\n      iszero\n      tag_136\n      jumpi\n      returndatasize\n      0x00\n      dup1\n      returndatacopy\n      revert(0x00, returndatasize)\n    tag_136:\n      pop\n      pop\n      pop\n      mload(sub(mload(0x40), 0x20))\n        /* \"contracts/Logic/SignMessage.sol\":6810:6853  currentOwner = ecrecover(dataHash, v, r, s) */\n      swap5\n      pop\n        /* \"contracts/Logic/SignMessage.sol\":6243:6868  if (v > 30) {... */\n    tag_133:\n        /* \"contracts/Logic/SignMessage.sol\":5735:6868  if (v == 1) {... */\n    tag_123:\n        /* \"contracts/Logic/SignMessage.sol\":3852:6868  if (v == 0) {... */\n    tag_118:\n        /* \"contracts/Logic/SignMessage.sol\":6904:6913  lastOwner */\n      dup6\n        /* \"contracts/Logic/SignMessage.sol\":6889:6913  currentOwner > lastOwner */\n      0xffffffffffffffffffffffffffffffffffffffff\n      and\n        /* \"contracts/Logic/SignMessage.sol\":6889:6901  currentOwner */\n      dup6\n        /* \"contracts/Logic/SignMessage.sol\":6889:6913  currentOwner > lastOwner */\n      0xffffffffffffffffffffffffffffffffffffffff\n      and\n      gt\n        /* \"contracts/Logic/SignMessage.sol\":6881:6931  require(currentOwner > lastOwner, \"access denied\") */\n      tag_137\n      jumpi\n      mload(0x40)\n      0x08c379a000000000000000000000000000000000000000000000000000000000\n      dup2\n      mstore\n      0x04\n      add\n      tag_138\n      swap1\n      tag_109\n      jump\t// in\n    tag_138:\n      mload(0x40)\n      dup1\n      swap2\n      sub\n      swap1\n      revert\n    tag_137:\n        /* \"contracts/Logic/SignMessage.sol\":6957:6969  currentOwner */\n      dup5\n        /* \"contracts/Logic/SignMessage.sol\":6945:6969  lastOwner = currentOwner */\n      swap6\n      pop\n        /* \"contracts/Logic/SignMessage.sol\":3778:3781  i++ */\n      dup1\n      dup1\n      tag_139\n      swap1\n      tag_140\n      jump\t// in\n    tag_139:\n      swap2\n      pop\n      pop\n        /* \"contracts/Logic/SignMessage.sol\":3742:6980  for (i = 0; i < requiredSignatures; i++) {... */\n      jump(tag_90)\n    tag_91:\n        /* \"contracts/Logic/SignMessage.sol\":3398:6986  {... */\n      pop\n      pop\n      pop\n      pop\n      pop\n      pop\n        /* \"contracts/Logic/SignMessage.sol\":3232:6986  function checkNSignatures(... */\n      pop\n      pop\n      pop\n      pop\n      jump\t// out\n        /* \"contracts/registry/Identity.sol\":1293:1529  function setData(bytes32 key, string memory value) public  override onlyOwner returns(bool success) {... */\n    tag_33:\n        /* \"contracts/registry/Identity.sol\":1379:1391  bool success */\n      0x00\n        /* \"@openzeppelin/contracts/access/Ownable.sol\":1094:1107  _checkOwner() */\n      tag_142\n        /* \"@openzeppelin/contracts/access/Ownable.sol\":1094:1105  _checkOwner */\n      tag_143\n        /* \"@openzeppelin/contracts/access/Ownable.sol\":1094:1107  _checkOwner() */\n      jump\t// in\n    tag_142:\n        /* \"contracts/registry/Identity.sol\":1403:1423  checkDataExists(key) */\n      tag_145\n        /* \"contracts/registry/Identity.sol\":1419:1422  key */\n      dup4\n        /* \"contracts/registry/Identity.sol\":1403:1418  checkDataExists */\n      tag_146\n        /* \"contracts/registry/Identity.sol\":1403:1423  checkDataExists(key) */\n      jump\t// in\n    tag_145:\n        /* \"contracts/registry/Identity.sol\":1450:1454  this */\n      address\n        /* \"contracts/registry/Identity.sol\":1433:1468  Identity(address(this)).signMessage */\n      0xffffffffffffffffffffffffffffffffffffffff\n      and\n      0x85a5affe\n        /* \"contracts/registry/Identity.sol\":1486:1489  key */\n      dup5\n        /* \"contracts/registry/Identity.sol\":1491:1496  value */\n      dup5\n        /* \"contracts/registry/Identity.sol\":1469:1497  abi.encodePacked(key, value) */\n      add(0x20, mload(0x40))\n      tag_147\n      swap3\n      swap2\n      swap1\n      tag_148\n      jump\t// in\n    tag_147:\n      mload(0x40)\n      0x20\n      dup2\n      dup4\n      sub\n      sub\n      dup2\n      mstore\n      swap1\n      0x40\n      mstore\n        /* \"contracts/registry/Identity.sol\":1433:1498  Identity(address(this)).signMessage(abi.encodePacked(key, value)) */\n      mload(0x40)\n      dup3\n      0xffffffff\n      and\n      0xe0\n      shl\n      dup2\n      mstore\n      0x04\n      add\n      tag_149\n      swap2\n      swap1\n      tag_150\n      jump\t// in\n    tag_149:\n      0x00\n      mload(0x40)\n      dup1\n      dup4\n      sub\n      dup2\n      0x00\n      dup8\n      dup1\n      extcodesize\n      iszero\n      dup1\n      iszero\n      tag_151\n      jumpi\n      0x00\n      dup1\n      revert\n    tag_151:\n      pop\n      gas\n      call\n      iszero\n      dup1\n      iszero\n      tag_153\n      jumpi\n      returndatasize\n      0x00\n      dup1\n      returndatacopy\n      revert(0x00, returndatasize)\n    tag_153:\n      pop\n      pop\n      pop\n      pop\n        /* \"contracts/registry/Identity.sol\":1518:1522  true */\n      0x01\n        /* \"contracts/registry/Identity.sol\":1508:1522  success = true */\n      swap1\n      pop\n        /* \"contracts/registry/Identity.sol\":1293:1529  function setData(bytes32 key, string memory value) public  override onlyOwner returns(bool success) {... */\n      swap3\n      swap2\n      pop\n      pop\n      jump\t// out\n        /* \"contracts/registry/Identity.sol\":1138:1288  function getData(bytes32 key) public override view returns(string memory value) {... */\n    tag_39:\n        /* \"contracts/registry/Identity.sol\":1197:1216  string memory value */\n      0x60\n        /* \"contracts/registry/Identity.sol\":1228:1251  checkDataNotExists(key) */\n      tag_155\n        /* \"contracts/registry/Identity.sol\":1247:1250  key */\n      dup3\n        /* \"contracts/registry/Identity.sol\":1228:1246  checkDataNotExists */\n      tag_156\n        /* \"contracts/registry/Identity.sol\":1228:1251  checkDataNotExists(key) */\n      jump\t// in\n    tag_155:\n        /* \"contracts/registry/Identity.sol\":1268:1276  _kvStore */\n      0x05\n        /* \"contracts/registry/Identity.sol\":1268:1281  _kvStore[key] */\n      0x00\n        /* \"contracts/registry/Identity.sol\":1277:1280  key */\n      dup4\n        /* \"contracts/registry/Identity.sol\":1268:1281  _kvStore[key] */\n      dup2\n      mstore\n      0x20\n      add\n      swap1\n      dup2\n      mstore\n      0x20\n      add\n      0x00\n      keccak256\n        /* \"contracts/registry/Identity.sol\":1261:1281  return _kvStore[key] */\n      dup1\n      sload\n      tag_157\n      swap1\n      tag_158\n      jump\t// in\n    tag_157:\n      dup1\n      0x1f\n      add\n      0x20\n      dup1\n      swap2\n      div\n      mul\n      0x20\n      add\n      mload(0x40)\n      swap1\n      dup2\n      add\n      0x40\n      mstore\n      dup1\n      swap3\n      swap2\n      swap1\n      dup2\n      dup2\n      mstore\n      0x20\n      add\n      dup3\n      dup1\n      sload\n      tag_159\n      swap1\n      tag_158\n      jump\t// in\n    tag_159:\n      dup1\n      iszero\n      tag_160\n      jumpi\n      dup1\n      0x1f\n      lt\n      tag_161\n      jumpi\n      0x0100\n      dup1\n      dup4\n      sload\n      div\n      mul\n      dup4\n      mstore\n      swap2\n      0x20\n      add\n      swap2\n      jump(tag_160)\n    tag_161:\n      dup3\n      add\n      swap2\n      swap1\n      0x00\n      mstore\n      keccak256(0x00, 0x20)\n      swap1\n    tag_162:\n      dup2\n      sload\n      dup2\n      mstore\n      swap1\n      0x01\n      add\n      swap1\n      0x20\n      add\n      dup1\n      dup4\n      gt\n      tag_162\n      jumpi\n      dup3\n      swap1\n      sub\n      0x1f\n      and\n      dup3\n      add\n      swap2\n    tag_160:\n      pop\n      pop\n      pop\n      pop\n      pop\n      swap1\n      pop\n        /* \"contracts/registry/Identity.sol\":1138:1288  function getData(bytes32 key) public override view returns(string memory value) {... */\n      swap2\n      swap1\n      pop\n      jump\t// out\n        /* \"contracts/Logic/SignMessage.sol\":1294:1342  mapping(bytes32 => uint256)public signedMessages */\n    tag_44:\n      mstore(0x20, 0x03)\n      dup1\n      0x00\n      mstore\n      keccak256(0x00, 0x40)\n      0x00\n      swap2\n      pop\n      swap1\n      pop\n      sload\n      dup2\n      jump\t// out\n        /* \"@openzeppelin/contracts/access/Ownable.sol\":1831:1932  function renounceOwnership() public virtual onlyOwner {... */\n    tag_48:\n        /* \"@openzeppelin/contracts/access/Ownable.sol\":1094:1107  _checkOwner() */\n      tag_164\n        /* \"@openzeppelin/contracts/access/Ownable.sol\":1094:1105  _checkOwner */\n      tag_143\n        /* \"@openzeppelin/contracts/access/Ownable.sol\":1094:1107  _checkOwner() */\n      jump\t// in\n    tag_164:\n        /* \"@openzeppelin/contracts/access/Ownable.sol\":1895:1925  _transferOwnership(address(0)) */\n      tag_166\n        /* \"@openzeppelin/contracts/access/Ownable.sol\":1922:1923  0 */\n      0x00\n        /* \"@openzeppelin/contracts/access/Ownable.sol\":1895:1913  _transferOwnership */\n      tag_167\n        /* \"@openzeppelin/contracts/access/Ownable.sol\":1895:1925  _transferOwnership(address(0)) */\n      jump\t// in\n    tag_166:\n        /* \"@openzeppelin/contracts/access/Ownable.sol\":1831:1932  function renounceOwnership() public virtual onlyOwner {... */\n      jump\t// out\n        /* \"contracts/Logic/SignMessage.sol\":1181:1250  mapping(address => mapping(bytes32 => uint256)) public approvedHashes */\n    tag_52:\n      mstore(0x20, 0x01)\n      dup2\n      0x00\n      mstore\n      mstore(0x20, keccak256(0x00, 0x40))\n      dup1\n      0x00\n      mstore\n      keccak256(0x00, 0x40)\n      0x00\n      swap2\n      pop\n      swap2\n      pop\n      pop\n      sload\n      dup2\n      jump\t// out\n        /* \"contracts/Logic/SignMessage.sol\":1444:1742  function signMessage(bytes calldata message) external {... */\n    tag_57:\n        /* \"contracts/Logic/SignMessage.sol\":1516:1531  bytes32 msgHash */\n      0x00\n        /* \"contracts/Logic/SignMessage.sol\":1568:1572  0x19 */\n      0x19\n        /* \"contracts/Logic/SignMessage.sol\":1561:1573  bytes1(0x19) */\n      0xf8\n      shl\n        /* \"contracts/Logic/SignMessage.sol\":1582:1586  0x01 */\n      0x01\n        /* \"contracts/Logic/SignMessage.sol\":1575:1587  bytes1(0x01) */\n      0xf8\n      shl\n        /* \"contracts/Logic/SignMessage.sol\":1589:1604  domainSeparator */\n      sload(0x02)\n        /* \"contracts/Logic/SignMessage.sol\":987:1053  0xef3da448ef037ebfba3b01faf85e69692b03cfc21278b48c6f12f50fae34c548 */\n      0xef3da448ef037ebfba3b01faf85e69692b03cfc21278b48c6f12f50fae34c548\n        /* \"contracts/Logic/SignMessage.sol\":1627:1643  AKX_MSG_TYPEHASH */\n      0x00\n      shl\n        /* \"contracts/Logic/SignMessage.sol\":1655:1662  message */\n      dup7\n      dup7\n        /* \"contracts/Logic/SignMessage.sol\":1645:1663  keccak256(message) */\n      mload(0x40)\n      tag_169\n      swap3\n      swap2\n      swap1\n      tag_170\n      jump\t// in\n    tag_169:\n      mload(0x40)\n      dup1\n      swap2\n      sub\n      swap1\n      keccak256\n        /* \"contracts/Logic/SignMessage.sol\":1616:1664  abi.encode(AKX_MSG_TYPEHASH, keccak256(message)) */\n      add(0x20, mload(0x40))\n      tag_171\n      swap3\n      swap2\n      swap1\n      tag_81\n      jump\t// in\n    tag_171:\n      mload(0x40)\n      0x20\n      dup2\n      dup4\n      sub\n      sub\n      dup2\n      mstore\n      swap1\n      0x40\n      mstore\n        /* \"contracts/Logic/SignMessage.sol\":1606:1665  keccak256(abi.encode(AKX_MSG_TYPEHASH, keccak256(message))) */\n      dup1\n      mload\n      swap1\n      0x20\n      add\n      keccak256\n        /* \"contracts/Logic/SignMessage.sol\":1544:1666  abi.encodePacked(bytes1(0x19), bytes1(0x01), domainSeparator, keccak256(abi.encode(AKX_MSG_TYPEHASH, keccak256(message)))) */\n      add(0x20, mload(0x40))\n      tag_172\n      swap5\n      swap4\n      swap3\n      swap2\n      swap1\n      tag_173\n      jump\t// in\n    tag_172:\n      mload(0x40)\n      0x20\n      dup2\n      dup4\n      sub\n      sub\n      dup2\n      mstore\n      swap1\n      0x40\n      mstore\n        /* \"contracts/Logic/SignMessage.sol\":1534:1667  keccak256(abi.encodePacked(bytes1(0x19), bytes1(0x01), domainSeparator, keccak256(abi.encode(AKX_MSG_TYPEHASH, keccak256(message))))) */\n      dup1\n      mload\n      swap1\n      0x20\n      add\n      keccak256\n        /* \"contracts/Logic/SignMessage.sol\":1516:1667  bytes32 msgHash = keccak256(abi.encodePacked(bytes1(0x19), bytes1(0x01), domainSeparator, keccak256(abi.encode(AKX_MSG_TYPEHASH, keccak256(message))))) */\n      swap1\n      pop\n        /* \"contracts/Logic/SignMessage.sol\":1703:1704  1 */\n      0x01\n        /* \"contracts/Logic/SignMessage.sol\":1677:1691  signedMessages */\n      0x03\n        /* \"contracts/Logic/SignMessage.sol\":1677:1700  signedMessages[msgHash] */\n      0x00\n        /* \"contracts/Logic/SignMessage.sol\":1692:1699  msgHash */\n      dup4\n        /* \"contracts/Logic/SignMessage.sol\":1677:1700  signedMessages[msgHash] */\n      dup2\n      mstore\n      0x20\n      add\n      swap1\n      dup2\n      mstore\n      0x20\n      add\n      0x00\n      keccak256\n        /* \"contracts/Logic/SignMessage.sol\":1677:1704  signedMessages[msgHash] = 1 */\n      dup2\n      swap1\n      sstore\n      pop\n        /* \"contracts/Logic/SignMessage.sol\":1727:1734  msgHash */\n      dup1\n        /* \"contracts/Logic/SignMessage.sol\":1719:1735  SignMsg(msgHash) */\n      0xe7f4675038f4f6034dfcbbb24c4dc08e4ebf10eb9d257d3d02c0f38d122ac6e4\n      mload(0x40)\n      mload(0x40)\n      dup1\n      swap2\n      sub\n      swap1\n      log2\n        /* \"contracts/Logic/SignMessage.sol\":1498:1742  {... */\n      pop\n        /* \"contracts/Logic/SignMessage.sol\":1444:1742  function signMessage(bytes calldata message) external {... */\n      pop\n      pop\n      jump\t// out\n        /* \"@openzeppelin/contracts/access/Ownable.sol\":1201:1286  function owner() public view virtual returns (address) {... */\n    tag_59:\n        /* \"@openzeppelin/contracts/access/Ownable.sol\":1247:1254  address */\n      0x00\n        /* \"@openzeppelin/contracts/access/Ownable.sol\":1273:1279  _owner */\n      dup1\n      0x00\n      swap1\n      sload\n      swap1\n      0x0100\n      exp\n      swap1\n      div\n      0xffffffffffffffffffffffffffffffffffffffff\n      and\n        /* \"@openzeppelin/contracts/access/Ownable.sol\":1266:1279  return _owner */\n      swap1\n      pop\n        /* \"@openzeppelin/contracts/access/Ownable.sol\":1201:1286  function owner() public view virtual returns (address) {... */\n      swap1\n      jump\t// out\n        /* \"contracts/registry/Identity.sol\":2227:2427  function checkSignatures(... */\n    tag_65:\n        /* \"contracts/registry/Identity.sol\":2373:2420  checkNSignatures(dataHash, data, signatures, 1) */\n      tag_176\n        /* \"contracts/registry/Identity.sol\":2390:2398  dataHash */\n      dup4\n        /* \"contracts/registry/Identity.sol\":2400:2404  data */\n      dup4\n        /* \"contracts/registry/Identity.sol\":2406:2416  signatures */\n      dup4\n        /* \"contracts/registry/Identity.sol\":2418:2419  1 */\n      0x01\n        /* \"contracts/registry/Identity.sol\":2373:2389  checkNSignatures */\n      tag_29\n        /* \"contracts/registry/Identity.sol\":2373:2420  checkNSignatures(dataHash, data, signatures, 1) */\n      jump\t// in\n    tag_176:\n        /* \"contracts/registry/Identity.sol\":2227:2427  function checkSignatures(... */\n      pop\n      pop\n      pop\n      jump\t// out\n        /* \"contracts/Logic/SignMessage.sol\":6992:7168  function approveHash(bytes32 hashToApprove) external {... */\n    tag_68:\n        /* \"contracts/Logic/SignMessage.sol\":7107:7108  1 */\n      0x01\n        /* \"contracts/Logic/SignMessage.sol\":7063:7077  approvedHashes */\n      dup1\n        /* \"contracts/Logic/SignMessage.sol\":7063:7089  approvedHashes[msg.sender] */\n      0x00\n        /* \"contracts/Logic/SignMessage.sol\":7078:7088  msg.sender */\n      caller\n        /* \"contracts/Logic/SignMessage.sol\":7063:7089  approvedHashes[msg.sender] */\n      0xffffffffffffffffffffffffffffffffffffffff\n      and\n      0xffffffffffffffffffffffffffffffffffffffff\n      and\n      dup2\n      mstore\n      0x20\n      add\n      swap1\n      dup2\n      mstore\n      0x20\n      add\n      0x00\n      keccak256\n        /* \"contracts/Logic/SignMessage.sol\":7063:7104  approvedHashes[msg.sender][hashToApprove] */\n      0x00\n        /* \"contracts/Logic/SignMessage.sol\":7090:7103  hashToApprove */\n      dup4\n        /* \"contracts/Logic/SignMessage.sol\":7063:7104  approvedHashes[msg.sender][hashToApprove] */\n      dup2\n      mstore\n      0x20\n      add\n      swap1\n      dup2\n      mstore\n      0x20\n      add\n      0x00\n      keccak256\n        /* \"contracts/Logic/SignMessage.sol\":7063:7108  approvedHashes[msg.sender][hashToApprove] = 1 */\n      dup2\n      swap1\n      sstore\n      pop\n        /* \"contracts/Logic/SignMessage.sol\":7150:7160  msg.sender */\n      caller\n        /* \"contracts/Logic/SignMessage.sol\":7123:7161  ApproveHash(hashToApprove, msg.sender) */\n      0xffffffffffffffffffffffffffffffffffffffff\n      and\n        /* \"contracts/Logic/SignMessage.sol\":7135:7148  hashToApprove */\n      dup2\n        /* \"contracts/Logic/SignMessage.sol\":7123:7161  ApproveHash(hashToApprove, msg.sender) */\n      0xf2a0eb156472d1440255b0d7c1e19cc07115d1051fe605b0dce69acfec884d9c\n      mload(0x40)\n      mload(0x40)\n      dup1\n      swap2\n      sub\n      swap1\n      log3\n        /* \"contracts/Logic/SignMessage.sol\":6992:7168  function approveHash(bytes32 hashToApprove) external {... */\n      pop\n      jump\t// out\n        /* \"contracts/registry/Identity.sol\":1792:1895  function getDomainSeparator() public view returns(bytes32) {... */\n    tag_70:\n        /* \"contracts/registry/Identity.sol\":1842:1849  bytes32 */\n      0x00\n        /* \"contracts/registry/Identity.sol\":1868:1888  _domainSeparatorV4() */\n      tag_179\n        /* \"contracts/registry/Identity.sol\":1868:1886  _domainSeparatorV4 */\n      tag_180\n        /* \"contracts/registry/Identity.sol\":1868:1888  _domainSeparatorV4() */\n      jump\t// in\n    tag_179:\n        /* \"contracts/registry/Identity.sol\":1861:1888  return _domainSeparatorV4() */\n      swap1\n      pop\n        /* \"contracts/registry/Identity.sol\":1792:1895  function getDomainSeparator() public view returns(bytes32) {... */\n      swap1\n      jump\t// out\n        /* \"@openzeppelin/contracts/access/Ownable.sol\":2081:2279  function transferOwnership(address newOwner) public virtual onlyOwner {... */\n    tag_75:\n        /* \"@openzeppelin/contracts/access/Ownable.sol\":1094:1107  _checkOwner() */\n      tag_182\n        /* \"@openzeppelin/contracts/access/Ownable.sol\":1094:1105  _checkOwner */\n      tag_143\n        /* \"@openzeppelin/contracts/access/Ownable.sol\":1094:1107  _checkOwner() */\n      jump\t// in\n    tag_182:\n        /* \"@openzeppelin/contracts/access/Ownable.sol\":2189:2190  0 */\n      0x00\n        /* \"@openzeppelin/contracts/access/Ownable.sol\":2169:2191  newOwner != address(0) */\n      0xffffffffffffffffffffffffffffffffffffffff\n      and\n        /* \"@openzeppelin/contracts/access/Ownable.sol\":2169:2177  newOwner */\n      dup2\n        /* \"@openzeppelin/contracts/access/Ownable.sol\":2169:2191  newOwner != address(0) */\n      0xffffffffffffffffffffffffffffffffffffffff\n      and\n      sub\n        /* \"@openzeppelin/contracts/access/Ownable.sol\":2161:2234  require(newOwner != address(0), \"Ownable: new owner is the zero address\") */\n      tag_184\n      jumpi\n      mload(0x40)\n      0x08c379a000000000000000000000000000000000000000000000000000000000\n      dup2\n      mstore\n      0x04\n      add\n      tag_185\n      swap1\n      tag_186\n      jump\t// in\n    tag_185:\n      mload(0x40)\n      dup1\n      swap2\n      sub\n      swap1\n      revert\n    tag_184:\n        /* \"@openzeppelin/contracts/access/Ownable.sol\":2244:2272  _transferOwnership(newOwner) */\n      tag_187\n        /* \"@openzeppelin/contracts/access/Ownable.sol\":2263:2271  newOwner */\n      dup2\n        /* \"@openzeppelin/contracts/access/Ownable.sol\":2244:2262  _transferOwnership */\n      tag_167\n        /* \"@openzeppelin/contracts/access/Ownable.sol\":2244:2272  _transferOwnership(newOwner) */\n      jump\t// in\n    tag_187:\n        /* \"@openzeppelin/contracts/access/Ownable.sol\":2081:2279  function transferOwnership(address newOwner) public virtual onlyOwner {... */\n      pop\n      jump\t// out\n        /* \"contracts/Logic/SignMessage.sol\":1257:1287  bytes32 public domainSeparator */\n    tag_77:\n      sload(0x02)\n      dup2\n      jump\t// out\n        /* \"contracts/Logic/SignMessage.sol\":1748:2707  function signatureSplit(bytes memory signatures, uint256 pos)... */\n    tag_94:\n        /* \"contracts/Logic/SignMessage.sol\":1870:1877  uint8 v */\n      0x00\n        /* \"contracts/Logic/SignMessage.sol\":1891:1900  bytes32 r */\n      dup1\n        /* \"contracts/Logic/SignMessage.sol\":1914:1923  bytes32 s */\n      0x00\n        /* \"contracts/Logic/SignMessage.sol\":2215:2218  pos */\n      dup4\n        /* \"contracts/Logic/SignMessage.sol\":2209:2213  0x41 */\n      0x41\n        /* \"contracts/Logic/SignMessage.sol\":2205:2219  mul(0x41, pos) */\n      mul\n        /* \"contracts/Logic/SignMessage.sol\":2277:2281  0x20 */\n      0x20\n        /* \"contracts/Logic/SignMessage.sol\":2263:2275  signaturePos */\n      dup2\n        /* \"contracts/Logic/SignMessage.sol\":2259:2282  add(signaturePos, 0x20) */\n      add\n        /* \"contracts/Logic/SignMessage.sol\":2247:2257  signatures */\n      dup7\n        /* \"contracts/Logic/SignMessage.sol\":2243:2283  add(signatures, add(signaturePos, 0x20)) */\n      add\n        /* \"contracts/Logic/SignMessage.sol\":2237:2284  mload(add(signatures, add(signaturePos, 0x20))) */\n      mload\n        /* \"contracts/Logic/SignMessage.sol\":2232:2284  r := mload(add(signatures, add(signaturePos, 0x20))) */\n      swap3\n      pop\n        /* \"contracts/Logic/SignMessage.sol\":2342:2346  0x40 */\n      0x40\n        /* \"contracts/Logic/SignMessage.sol\":2328:2340  signaturePos */\n      dup2\n        /* \"contracts/Logic/SignMessage.sol\":2324:2347  add(signaturePos, 0x40) */\n      add\n        /* \"contracts/Logic/SignMessage.sol\":2312:2322  signatures */\n      dup7\n        /* \"contracts/Logic/SignMessage.sol\":2308:2348  add(signatures, add(signaturePos, 0x40)) */\n      add\n        /* \"contracts/Logic/SignMessage.sol\":2302:2349  mload(add(signatures, add(signaturePos, 0x40))) */\n      mload\n        /* \"contracts/Logic/SignMessage.sol\":2297:2349  s := mload(add(signatures, add(signaturePos, 0x40))) */\n      swap2\n      pop\n        /* \"contracts/Logic/SignMessage.sol\":2686:2690  0xff */\n      0xff\n        /* \"contracts/Logic/SignMessage.sol\":2677:2681  0x41 */\n      0x41\n        /* \"contracts/Logic/SignMessage.sol\":2663:2675  signaturePos */\n      dup3\n        /* \"contracts/Logic/SignMessage.sol\":2659:2682  add(signaturePos, 0x41) */\n      add\n        /* \"contracts/Logic/SignMessage.sol\":2647:2657  signatures */\n      dup8\n        /* \"contracts/Logic/SignMessage.sol\":2643:2683  add(signatures, add(signaturePos, 0x41)) */\n      add\n        /* \"contracts/Logic/SignMessage.sol\":2637:2684  mload(add(signatures, add(signaturePos, 0x41))) */\n      mload\n        /* \"contracts/Logic/SignMessage.sol\":2633:2691  and(mload(add(signatures, add(signaturePos, 0x41))), 0xff) */\n      and\n        /* \"contracts/Logic/SignMessage.sol\":2628:2691  v := and(mload(add(signatures, add(signaturePos, 0x41))), 0xff) */\n      swap4\n      pop\n        /* \"contracts/Logic/SignMessage.sol\":2171:2701  {... */\n      pop\n        /* \"contracts/Logic/SignMessage.sol\":1748:2707  function signatureSplit(bytes memory signatures, uint256 pos)... */\n      swap3\n      pop\n      swap3\n      pop\n      swap3\n      jump\t// out\n        /* \"@openzeppelin/contracts/access/Ownable.sol\":1359:1489  function _checkOwner() internal view virtual {... */\n    tag_143:\n        /* \"@openzeppelin/contracts/access/Ownable.sol\":1433:1445  _msgSender() */\n      tag_190\n        /* \"@openzeppelin/contracts/access/Ownable.sol\":1433:1443  _msgSender */\n      tag_191\n        /* \"@openzeppelin/contracts/access/Ownable.sol\":1433:1445  _msgSender() */\n      jump\t// in\n    tag_190:\n        /* \"@openzeppelin/contracts/access/Ownable.sol\":1422:1445  owner() == _msgSender() */\n      0xffffffffffffffffffffffffffffffffffffffff\n      and\n        /* \"@openzeppelin/contracts/access/Ownable.sol\":1422:1429  owner() */\n      tag_192\n        /* \"@openzeppelin/contracts/access/Ownable.sol\":1422:1427  owner */\n      tag_59\n        /* \"@openzeppelin/contracts/access/Ownable.sol\":1422:1429  owner() */\n      jump\t// in\n    tag_192:\n        /* \"@openzeppelin/contracts/access/Ownable.sol\":1422:1445  owner() == _msgSender() */\n      0xffffffffffffffffffffffffffffffffffffffff\n      and\n      eq\n        /* \"@openzeppelin/contracts/access/Ownable.sol\":1414:1482  require(owner() == _msgSender(), \"Ownable: caller is not the owner\") */\n      tag_193\n      jumpi\n      mload(0x40)\n      0x08c379a000000000000000000000000000000000000000000000000000000000\n      dup2\n      mstore\n      0x04\n      add\n      tag_194\n      swap1\n      tag_195\n      jump\t// in\n    tag_194:\n      mload(0x40)\n      dup1\n      swap2\n      sub\n      swap1\n      revert\n    tag_193:\n        /* \"@openzeppelin/contracts/access/Ownable.sol\":1359:1489  function _checkOwner() internal view virtual {... */\n      jump\t// out\n        /* \"contracts/registry/Identity.sol\":1665:1786  function checkDataExists(bytes32 key) internal view {... */\n    tag_146:\n        /* \"contracts/registry/Identity.sol\":1754:1758  true */\n      0x01\n        /* \"contracts/registry/Identity.sol\":1735:1758  _keyExists[key] != true */\n      iszero\n      iszero\n        /* \"contracts/registry/Identity.sol\":1735:1745  _keyExists */\n      0x07\n        /* \"contracts/registry/Identity.sol\":1735:1750  _keyExists[key] */\n      0x00\n        /* \"contracts/registry/Identity.sol\":1746:1749  key */\n      dup4\n        /* \"contracts/registry/Identity.sol\":1735:1750  _keyExists[key] */\n      dup2\n      mstore\n      0x20\n      add\n      swap1\n      dup2\n      mstore\n      0x20\n      add\n      0x00\n      keccak256\n      0x00\n      swap1\n      sload\n      swap1\n      0x0100\n      exp\n      swap1\n      div\n      0xff\n      and\n        /* \"contracts/registry/Identity.sol\":1735:1758  _keyExists[key] != true */\n      iszero\n      iszero\n      sub\n        /* \"contracts/registry/Identity.sol\":1727:1779  require(_keyExists[key] != true, \"invalid data key\") */\n      tag_197\n      jumpi\n      mload(0x40)\n      0x08c379a000000000000000000000000000000000000000000000000000000000\n      dup2\n      mstore\n      0x04\n      add\n      tag_198\n      swap1\n      tag_199\n      jump\t// in\n    tag_198:\n      mload(0x40)\n      dup1\n      swap2\n      sub\n      swap1\n      revert\n    tag_197:\n        /* \"contracts/registry/Identity.sol\":1665:1786  function checkDataExists(bytes32 key) internal view {... */\n      pop\n      jump\t// out\n        /* \"contracts/registry/Identity.sol\":1535:1659  function checkDataNotExists(bytes32 key) internal view {... */\n    tag_156:\n        /* \"contracts/registry/Identity.sol\":1627:1631  true */\n      0x01\n        /* \"contracts/registry/Identity.sol\":1608:1631  _keyExists[key] == true */\n      iszero\n      iszero\n        /* \"contracts/registry/Identity.sol\":1608:1618  _keyExists */\n      0x07\n        /* \"contracts/registry/Identity.sol\":1608:1623  _keyExists[key] */\n      0x00\n        /* \"contracts/registry/Identity.sol\":1619:1622  key */\n      dup4\n        /* \"contracts/registry/Identity.sol\":1608:1623  _keyExists[key] */\n      dup2\n      mstore\n      0x20\n      add\n      swap1\n      dup2\n      mstore\n      0x20\n      add\n      0x00\n      keccak256\n      0x00\n      swap1\n      sload\n      swap1\n      0x0100\n      exp\n      swap1\n      div\n      0xff\n      and\n        /* \"contracts/registry/Identity.sol\":1608:1631  _keyExists[key] == true */\n      iszero\n      iszero\n      eq\n        /* \"contracts/registry/Identity.sol\":1600:1652  require(_keyExists[key] == true, \"invalid data key\") */\n      tag_201\n      jumpi\n      mload(0x40)\n      0x08c379a000000000000000000000000000000000000000000000000000000000\n      dup2\n      mstore\n      0x04\n      add\n      tag_202\n      swap1\n      tag_199\n      jump\t// in\n    tag_202:\n      mload(0x40)\n      dup1\n      swap2\n      sub\n      swap1\n      revert\n    tag_201:\n        /* \"contracts/registry/Identity.sol\":1535:1659  function checkDataNotExists(bytes32 key) internal view {... */\n      pop\n      jump\t// out\n        /* \"@openzeppelin/contracts/access/Ownable.sol\":2433:2620  function _transferOwnership(address newOwner) internal virtual {... */\n    tag_167:\n        /* \"@openzeppelin/contracts/access/Ownable.sol\":2506:2522  address oldOwner */\n      0x00\n        /* \"@openzeppelin/contracts/access/Ownable.sol\":2525:2531  _owner */\n      dup1\n      0x00\n      swap1\n      sload\n      swap1\n      0x0100\n      exp\n      swap1\n      div\n      0xffffffffffffffffffffffffffffffffffffffff\n      and\n        /* \"@openzeppelin/contracts/access/Ownable.sol\":2506:2531  address oldOwner = _owner */\n      swap1\n      pop\n        /* \"@openzeppelin/contracts/access/Ownable.sol\":2550:2558  newOwner */\n      dup2\n        /* \"@openzeppelin/contracts/access/Ownable.sol\":2541:2547  _owner */\n      0x00\n      dup1\n        /* \"@openzeppelin/contracts/access/Ownable.sol\":2541:2558  _owner = newOwner */\n      0x0100\n      exp\n      dup2\n      sload\n      dup2\n      0xffffffffffffffffffffffffffffffffffffffff\n      mul\n      not\n      and\n      swap1\n      dup4\n      0xffffffffffffffffffffffffffffffffffffffff\n      and\n      mul\n      or\n      swap1\n      sstore\n      pop\n        /* \"@openzeppelin/contracts/access/Ownable.sol\":2604:2612  newOwner */\n      dup2\n        /* \"@openzeppelin/contracts/access/Ownable.sol\":2573:2613  OwnershipTransferred(oldOwner, newOwner) */\n      0xffffffffffffffffffffffffffffffffffffffff\n      and\n        /* \"@openzeppelin/contracts/access/Ownable.sol\":2594:2602  oldOwner */\n      dup2\n        /* \"@openzeppelin/contracts/access/Ownable.sol\":2573:2613  OwnershipTransferred(oldOwner, newOwner) */\n      0xffffffffffffffffffffffffffffffffffffffff\n      and\n      0x8be0079c531659141344cd1fd0a4f28419497f9722a3daafe3b4186f6b6457e0\n      mload(0x40)\n      mload(0x40)\n      dup1\n      swap2\n      sub\n      swap1\n      log3\n        /* \"@openzeppelin/contracts/access/Ownable.sol\":2496:2620  {... */\n      pop\n        /* \"@openzeppelin/contracts/access/Ownable.sol\":2433:2620  function _transferOwnership(address newOwner) internal virtual {... */\n      pop\n      jump\t// out\n        /* \"@openzeppelin/contracts/utils/cryptography/draft-EIP712.sol\":3143:3451  function _domainSeparatorV4() internal view returns (bytes32) {... */\n    tag_180:\n        /* \"@openzeppelin/contracts/utils/cryptography/draft-EIP712.sol\":3196:3203  bytes32 */\n      0x00\n        /* \"@openzeppelin/contracts/utils/cryptography/draft-EIP712.sol\":3236:3248  _CACHED_THIS */\n      immutable(\"0x8aa1c539d88d2917ab61113c1a4fcdb5d84bdff1b85c257152c86b49e7f24537\")\n        /* \"@openzeppelin/contracts/utils/cryptography/draft-EIP712.sol\":3219:3248  address(this) == _CACHED_THIS */\n      0xffffffffffffffffffffffffffffffffffffffff\n      and\n        /* \"@openzeppelin/contracts/utils/cryptography/draft-EIP712.sol\":3227:3231  this */\n      address\n        /* \"@openzeppelin/contracts/utils/cryptography/draft-EIP712.sol\":3219:3248  address(this) == _CACHED_THIS */\n      0xffffffffffffffffffffffffffffffffffffffff\n      and\n      eq\n        /* \"@openzeppelin/contracts/utils/cryptography/draft-EIP712.sol\":3219:3285  address(this) == _CACHED_THIS && block.chainid == _CACHED_CHAIN_ID */\n      dup1\n      iszero\n      tag_205\n      jumpi\n      pop\n        /* \"@openzeppelin/contracts/utils/cryptography/draft-EIP712.sol\":3269:3285  _CACHED_CHAIN_ID */\n      immutable(\"0x8d6e24b08d4e7540303939ad6a0ec75b55f9ee7231fe80cb8b4c078323608cdc\")\n        /* \"@openzeppelin/contracts/utils/cryptography/draft-EIP712.sol\":3252:3265  block.chainid */\n      chainid\n        /* \"@openzeppelin/contracts/utils/cryptography/draft-EIP712.sol\":3252:3285  block.chainid == _CACHED_CHAIN_ID */\n      eq\n        /* \"@openzeppelin/contracts/utils/cryptography/draft-EIP712.sol\":3219:3285  address(this) == _CACHED_THIS && block.chainid == _CACHED_CHAIN_ID */\n    tag_205:\n        /* \"@openzeppelin/contracts/utils/cryptography/draft-EIP712.sol\":3215:3445  if (address(this) == _CACHED_THIS && block.chainid == _CACHED_CHAIN_ID) {... */\n      iszero\n      tag_206\n      jumpi\n        /* \"@openzeppelin/contracts/utils/cryptography/draft-EIP712.sol\":3308:3332  _CACHED_DOMAIN_SEPARATOR */\n      immutable(\"0xc06ea737db8026c421091ad4febd4ca09fd8c2c0bbf091629f2fd50e723a4bed\")\n        /* \"@openzeppelin/contracts/utils/cryptography/draft-EIP712.sol\":3301:3332  return _CACHED_DOMAIN_SEPARATOR */\n      swap1\n      pop\n      jump(tag_204)\n        /* \"@openzeppelin/contracts/utils/cryptography/draft-EIP712.sol\":3215:3445  if (address(this) == _CACHED_THIS && block.chainid == _CACHED_CHAIN_ID) {... */\n    tag_206:\n        /* \"@openzeppelin/contracts/utils/cryptography/draft-EIP712.sol\":3370:3434  _buildDomainSeparator(_TYPE_HASH, _HASHED_NAME, _HASHED_VERSION) */\n      tag_208\n        /* \"@openzeppelin/contracts/utils/cryptography/draft-EIP712.sol\":3392:3402  _TYPE_HASH */\n      immutable(\"0x162f7b8508eeb042919e192a88cd9658d8d9620c570a09aeeef475bc42e39ecf\")\n        /* \"@openzeppelin/contracts/utils/cryptography/draft-EIP712.sol\":3404:3416  _HASHED_NAME */\n      immutable(\"0x2977897376800d2e8e3b0a58999c16faa0e9c6608aa4fc77626c5a42af694ef9\")\n        /* \"@openzeppelin/contracts/utils/cryptography/draft-EIP712.sol\":3418:3433  _HASHED_VERSION */\n      immutable(\"0x0f00538877f92428038f9fbe5bb828de8348ac83ff3e7d12a732d923273183e1\")\n        /* \"@openzeppelin/contracts/utils/cryptography/draft-EIP712.sol\":3370:3391  _buildDomainSeparator */\n      tag_209\n        /* \"@openzeppelin/contracts/utils/cryptography/draft-EIP712.sol\":3370:3434  _buildDomainSeparator(_TYPE_HASH, _HASHED_NAME, _HASHED_VERSION) */\n      jump\t// in\n    tag_208:\n        /* \"@openzeppelin/contracts/utils/cryptography/draft-EIP712.sol\":3363:3434  return _buildDomainSeparator(_TYPE_HASH, _HASHED_NAME, _HASHED_VERSION) */\n      swap1\n      pop\n        /* \"@openzeppelin/contracts/utils/cryptography/draft-EIP712.sol\":3143:3451  function _domainSeparatorV4() internal view returns (bytes32) {... */\n    tag_204:\n      swap1\n      jump\t// out\n        /* \"@openzeppelin/contracts/utils/Context.sol\":640:736  function _msgSender() internal view virtual returns (address) {... */\n    tag_191:\n        /* \"@openzeppelin/contracts/utils/Context.sol\":693:700  address */\n      0x00\n        /* \"@openzeppelin/contracts/utils/Context.sol\":719:729  msg.sender */\n      caller\n        /* \"@openzeppelin/contracts/utils/Context.sol\":712:729  return msg.sender */\n      swap1\n      pop\n        /* \"@openzeppelin/contracts/utils/Context.sol\":640:736  function _msgSender() internal view virtual returns (address) {... */\n      swap1\n      jump\t// out\n        /* \"@openzeppelin/contracts/utils/cryptography/draft-EIP712.sol\":3457:3714  function _buildDomainSeparator(... */\n    tag_209:\n        /* \"@openzeppelin/contracts/utils/cryptography/draft-EIP712.sol\":3597:3604  bytes32 */\n      0x00\n        /* \"@openzeppelin/contracts/utils/cryptography/draft-EIP712.sol\":3644:3652  typeHash */\n      dup4\n        /* \"@openzeppelin/contracts/utils/cryptography/draft-EIP712.sol\":3654:3662  nameHash */\n      dup4\n        /* \"@openzeppelin/contracts/utils/cryptography/draft-EIP712.sol\":3664:3675  versionHash */\n      dup4\n        /* \"@openzeppelin/contracts/utils/cryptography/draft-EIP712.sol\":3677:3690  block.chainid */\n      chainid\n        /* \"@openzeppelin/contracts/utils/cryptography/draft-EIP712.sol\":3700:3704  this */\n      address\n        /* \"@openzeppelin/contracts/utils/cryptography/draft-EIP712.sol\":3633:3706  abi.encode(typeHash, nameHash, versionHash, block.chainid, address(this)) */\n      add(0x20, mload(0x40))\n      tag_212\n      swap6\n      swap5\n      swap4\n      swap3\n      swap2\n      swap1\n      tag_213\n      jump\t// in\n    tag_212:\n      mload(0x40)\n      0x20\n      dup2\n      dup4\n      sub\n      sub\n      dup2\n      mstore\n      swap1\n      0x40\n      mstore\n        /* \"@openzeppelin/contracts/utils/cryptography/draft-EIP712.sol\":3623:3707  keccak256(abi.encode(typeHash, nameHash, versionHash, block.chainid, address(this))) */\n      dup1\n      mload\n      swap1\n      0x20\n      add\n      keccak256\n        /* \"@openzeppelin/contracts/utils/cryptography/draft-EIP712.sol\":3616:3707  return keccak256(abi.encode(typeHash, nameHash, versionHash, block.chainid, address(this))) */\n      swap1\n      pop\n        /* \"@openzeppelin/contracts/utils/cryptography/draft-EIP712.sol\":3457:3714  function _buildDomainSeparator(... */\n      swap4\n      swap3\n      pop\n      pop\n      pop\n      jump\t// out\n        /* \"#utility.yul\":7:82   */\n    tag_214:\n        /* \"#utility.yul\":40:46   */\n      0x00\n        /* \"#utility.yul\":73:75   */\n      0x40\n        /* \"#utility.yul\":67:76   */\n      mload\n        /* \"#utility.yul\":57:76   */\n      swap1\n      pop\n        /* \"#utility.yul\":7:82   */\n      swap1\n      jump\t// out\n        /* \"#utility.yul\":88:205   */\n    tag_215:\n        /* \"#utility.yul\":197:198   */\n      0x00\n        /* \"#utility.yul\":194:195   */\n      dup1\n        /* \"#utility.yul\":187:199   */\n      revert\n        /* \"#utility.yul\":211:328   */\n    tag_216:\n        /* \"#utility.yul\":320:321   */\n      0x00\n        /* \"#utility.yul\":317:318   */\n      dup1\n        /* \"#utility.yul\":310:322   */\n      revert\n        /* \"#utility.yul\":334:451   */\n    tag_217:\n        /* \"#utility.yul\":443:444   */\n      0x00\n        /* \"#utility.yul\":440:441   */\n      dup1\n        /* \"#utility.yul\":433:445   */\n      revert\n        /* \"#utility.yul\":457:574   */\n    tag_218:\n        /* \"#utility.yul\":566:567   */\n      0x00\n        /* \"#utility.yul\":563:564   */\n      dup1\n        /* \"#utility.yul\":556:568   */\n      revert\n        /* \"#utility.yul\":580:682   */\n    tag_219:\n        /* \"#utility.yul\":621:627   */\n      0x00\n        /* \"#utility.yul\":672:674   */\n      0x1f\n        /* \"#utility.yul\":668:675   */\n      not\n        /* \"#utility.yul\":663:665   */\n      0x1f\n        /* \"#utility.yul\":656:661   */\n      dup4\n        /* \"#utility.yul\":652:666   */\n      add\n        /* \"#utility.yul\":648:676   */\n      and\n        /* \"#utility.yul\":638:676   */\n      swap1\n      pop\n        /* \"#utility.yul\":580:682   */\n      swap2\n      swap1\n      pop\n      jump\t// out\n        /* \"#utility.yul\":688:868   */\n    tag_220:\n        /* \"#utility.yul\":736:813   */\n      0x4e487b7100000000000000000000000000000000000000000000000000000000\n        /* \"#utility.yul\":733:734   */\n      0x00\n        /* \"#utility.yul\":726:814   */\n      mstore\n        /* \"#utility.yul\":833:837   */\n      0x41\n        /* \"#utility.yul\":830:831   */\n      0x04\n        /* \"#utility.yul\":823:838   */\n      mstore\n        /* \"#utility.yul\":857:861   */\n      0x24\n        /* \"#utility.yul\":854:855   */\n      0x00\n        /* \"#utility.yul\":847:862   */\n      revert\n        /* \"#utility.yul\":874:1155   */\n    tag_221:\n        /* \"#utility.yul\":957:984   */\n      tag_301\n        /* \"#utility.yul\":979:983   */\n      dup3\n        /* \"#utility.yul\":957:984   */\n      tag_219\n      jump\t// in\n    tag_301:\n        /* \"#utility.yul\":949:955   */\n      dup2\n        /* \"#utility.yul\":945:985   */\n      add\n        /* \"#utility.yul\":1087:1093   */\n      dup2\n        /* \"#utility.yul\":1075:1085   */\n      dup2\n        /* \"#utility.yul\":1072:1094   */\n      lt\n        /* \"#utility.yul\":1051:1069   */\n      0xffffffffffffffff\n        /* \"#utility.yul\":1039:1049   */\n      dup3\n        /* \"#utility.yul\":1036:1070   */\n      gt\n        /* \"#utility.yul\":1033:1095   */\n      or\n        /* \"#utility.yul\":1030:1118   */\n      iszero\n      tag_302\n      jumpi\n        /* \"#utility.yul\":1098:1116   */\n      tag_303\n      tag_220\n      jump\t// in\n    tag_303:\n        /* \"#utility.yul\":1030:1118   */\n    tag_302:\n        /* \"#utility.yul\":1138:1148   */\n      dup1\n        /* \"#utility.yul\":1134:1136   */\n      0x40\n        /* \"#utility.yul\":1127:1149   */\n      mstore\n        /* \"#utility.yul\":917:1155   */\n      pop\n        /* \"#utility.yul\":874:1155   */\n      pop\n      pop\n      jump\t// out\n        /* \"#utility.yul\":1161:1290   */\n    tag_222:\n        /* \"#utility.yul\":1195:1201   */\n      0x00\n        /* \"#utility.yul\":1222:1242   */\n      tag_305\n      tag_214\n      jump\t// in\n    tag_305:\n        /* \"#utility.yul\":1212:1242   */\n      swap1\n      pop\n        /* \"#utility.yul\":1251:1284   */\n      tag_306\n        /* \"#utility.yul\":1279:1283   */\n      dup3\n        /* \"#utility.yul\":1271:1277   */\n      dup3\n        /* \"#utility.yul\":1251:1284   */\n      tag_221\n      jump\t// in\n    tag_306:\n        /* \"#utility.yul\":1161:1290   */\n      swap2\n      swap1\n      pop\n      jump\t// out\n        /* \"#utility.yul\":1296:1603   */\n    tag_223:\n        /* \"#utility.yul\":1357:1361   */\n      0x00\n        /* \"#utility.yul\":1447:1465   */\n      0xffffffffffffffff\n        /* \"#utility.yul\":1439:1445   */\n      dup3\n        /* \"#utility.yul\":1436:1466   */\n      gt\n        /* \"#utility.yul\":1433:1489   */\n      iszero\n      tag_308\n      jumpi\n        /* \"#utility.yul\":1469:1487   */\n      tag_309\n      tag_220\n      jump\t// in\n    tag_309:\n        /* \"#utility.yul\":1433:1489   */\n    tag_308:\n        /* \"#utility.yul\":1507:1536   */\n      tag_310\n        /* \"#utility.yul\":1529:1535   */\n      dup3\n        /* \"#utility.yul\":1507:1536   */\n      tag_219\n      jump\t// in\n    tag_310:\n        /* \"#utility.yul\":1499:1536   */\n      swap1\n      pop\n        /* \"#utility.yul\":1591:1595   */\n      0x20\n        /* \"#utility.yul\":1585:1589   */\n      dup2\n        /* \"#utility.yul\":1581:1596   */\n      add\n        /* \"#utility.yul\":1573:1596   */\n      swap1\n      pop\n        /* \"#utility.yul\":1296:1603   */\n      swap2\n      swap1\n      pop\n      jump\t// out\n        /* \"#utility.yul\":1609:1755   */\n    tag_224:\n        /* \"#utility.yul\":1706:1712   */\n      dup3\n        /* \"#utility.yul\":1701:1704   */\n      dup2\n        /* \"#utility.yul\":1696:1699   */\n      dup4\n        /* \"#utility.yul\":1683:1713   */\n      calldatacopy\n        /* \"#utility.yul\":1747:1748   */\n      0x00\n        /* \"#utility.yul\":1738:1744   */\n      dup4\n        /* \"#utility.yul\":1733:1736   */\n      dup4\n        /* \"#utility.yul\":1729:1745   */\n      add\n        /* \"#utility.yul\":1722:1749   */\n      mstore\n        /* \"#utility.yul\":1609:1755   */\n      pop\n      pop\n      pop\n      jump\t// out\n        /* \"#utility.yul\":1761:2184   */\n    tag_225:\n        /* \"#utility.yul\":1838:1843   */\n      0x00\n        /* \"#utility.yul\":1863:1928   */\n      tag_313\n        /* \"#utility.yul\":1879:1927   */\n      tag_314\n        /* \"#utility.yul\":1920:1926   */\n      dup5\n        /* \"#utility.yul\":1879:1927   */\n      tag_223\n      jump\t// in\n    tag_314:\n        /* \"#utility.yul\":1863:1928   */\n      tag_222\n      jump\t// in\n    tag_313:\n        /* \"#utility.yul\":1854:1928   */\n      swap1\n      pop\n        /* \"#utility.yul\":1951:1957   */\n      dup3\n        /* \"#utility.yul\":1944:1949   */\n      dup2\n        /* \"#utility.yul\":1937:1958   */\n      mstore\n        /* \"#utility.yul\":1989:1993   */\n      0x20\n        /* \"#utility.yul\":1982:1987   */\n      dup2\n        /* \"#utility.yul\":1978:1994   */\n      add\n        /* \"#utility.yul\":2027:2030   */\n      dup5\n        /* \"#utility.yul\":2018:2024   */\n      dup5\n        /* \"#utility.yul\":2013:2016   */\n      dup5\n        /* \"#utility.yul\":2009:2025   */\n      add\n        /* \"#utility.yul\":2006:2031   */\n      gt\n        /* \"#utility.yul\":2003:2115   */\n      iszero\n      tag_315\n      jumpi\n        /* \"#utility.yul\":2034:2113   */\n      tag_316\n      tag_218\n      jump\t// in\n    tag_316:\n        /* \"#utility.yul\":2003:2115   */\n    tag_315:\n        /* \"#utility.yul\":2124:2178   */\n      tag_317\n        /* \"#utility.yul\":2171:2177   */\n      dup5\n        /* \"#utility.yul\":2166:2169   */\n      dup3\n        /* \"#utility.yul\":2161:2164   */\n      dup6\n        /* \"#utility.yul\":2124:2178   */\n      tag_224\n      jump\t// in\n    tag_317:\n        /* \"#utility.yul\":1844:2184   */\n      pop\n        /* \"#utility.yul\":1761:2184   */\n      swap4\n      swap3\n      pop\n      pop\n      pop\n      jump\t// out\n        /* \"#utility.yul\":2203:2541   */\n    tag_226:\n        /* \"#utility.yul\":2258:2263   */\n      0x00\n        /* \"#utility.yul\":2307:2310   */\n      dup3\n        /* \"#utility.yul\":2300:2304   */\n      0x1f\n        /* \"#utility.yul\":2292:2298   */\n      dup4\n        /* \"#utility.yul\":2288:2305   */\n      add\n        /* \"#utility.yul\":2284:2311   */\n      slt\n        /* \"#utility.yul\":2274:2396   */\n      tag_319\n      jumpi\n        /* \"#utility.yul\":2315:2394   */\n      tag_320\n      tag_217\n      jump\t// in\n    tag_320:\n        /* \"#utility.yul\":2274:2396   */\n    tag_319:\n        /* \"#utility.yul\":2432:2438   */\n      dup2\n        /* \"#utility.yul\":2419:2439   */\n      calldataload\n        /* \"#utility.yul\":2457:2535   */\n      tag_321\n        /* \"#utility.yul\":2531:2534   */\n      dup5\n        /* \"#utility.yul\":2523:2529   */\n      dup3\n        /* \"#utility.yul\":2516:2520   */\n      0x20\n        /* \"#utility.yul\":2508:2514   */\n      dup7\n        /* \"#utility.yul\":2504:2521   */\n      add\n        /* \"#utility.yul\":2457:2535   */\n      tag_225\n      jump\t// in\n    tag_321:\n        /* \"#utility.yul\":2448:2535   */\n      swap2\n      pop\n        /* \"#utility.yul\":2264:2541   */\n      pop\n        /* \"#utility.yul\":2203:2541   */\n      swap3\n      swap2\n      pop\n      pop\n      jump\t// out\n        /* \"#utility.yul\":2547:3054   */\n    tag_22:\n        /* \"#utility.yul\":2615:2621   */\n      0x00\n        /* \"#utility.yul\":2664:2666   */\n      0x20\n        /* \"#utility.yul\":2652:2661   */\n      dup3\n        /* \"#utility.yul\":2643:2650   */\n      dup5\n        /* \"#utility.yul\":2639:2662   */\n      sub\n        /* \"#utility.yul\":2635:2667   */\n      slt\n        /* \"#utility.yul\":2632:2751   */\n      iszero\n      tag_323\n      jumpi\n        /* \"#utility.yul\":2670:2749   */\n      tag_324\n      tag_215\n      jump\t// in\n    tag_324:\n        /* \"#utility.yul\":2632:2751   */\n    tag_323:\n        /* \"#utility.yul\":2818:2819   */\n      0x00\n        /* \"#utility.yul\":2807:2816   */\n      dup3\n        /* \"#utility.yul\":2803:2820   */\n      add\n        /* \"#utility.yul\":2790:2821   */\n      calldataload\n        /* \"#utility.yul\":2848:2866   */\n      0xffffffffffffffff\n        /* \"#utility.yul\":2840:2846   */\n      dup2\n        /* \"#utility.yul\":2837:2867   */\n      gt\n        /* \"#utility.yul\":2834:2951   */\n      iszero\n      tag_325\n      jumpi\n        /* \"#utility.yul\":2870:2949   */\n      tag_326\n      tag_216\n      jump\t// in\n    tag_326:\n        /* \"#utility.yul\":2834:2951   */\n    tag_325:\n        /* \"#utility.yul\":2975:3037   */\n      tag_327\n        /* \"#utility.yul\":3029:3036   */\n      dup5\n        /* \"#utility.yul\":3020:3026   */\n      dup3\n        /* \"#utility.yul\":3009:3018   */\n      dup6\n        /* \"#utility.yul\":3005:3027   */\n      add\n        /* \"#utility.yul\":2975:3037   */\n      tag_226\n      jump\t// in\n    tag_327:\n        /* \"#utility.yul\":2965:3037   */\n      swap2\n      pop\n        /* \"#utility.yul\":2761:3047   */\n      pop\n        /* \"#utility.yul\":2547:3054   */\n      swap3\n      swap2\n      pop\n      pop\n      jump\t// out\n        /* \"#utility.yul\":3060:3137   */\n    tag_227:\n        /* \"#utility.yul\":3097:3104   */\n      0x00\n        /* \"#utility.yul\":3126:3131   */\n      dup2\n        /* \"#utility.yul\":3115:3131   */\n      swap1\n      pop\n        /* \"#utility.yul\":3060:3137   */\n      swap2\n      swap1\n      pop\n      jump\t// out\n        /* \"#utility.yul\":3143:3261   */\n    tag_228:\n        /* \"#utility.yul\":3230:3254   */\n      tag_330\n        /* \"#utility.yul\":3248:3253   */\n      dup2\n        /* \"#utility.yul\":3230:3254   */\n      tag_227\n      jump\t// in\n    tag_330:\n        /* \"#utility.yul\":3225:3228   */\n      dup3\n        /* \"#utility.yul\":3218:3255   */\n      mstore\n        /* \"#utility.yul\":3143:3261   */\n      pop\n      pop\n      jump\t// out\n        /* \"#utility.yul\":3267:3489   */\n    tag_25:\n        /* \"#utility.yul\":3360:3364   */\n      0x00\n        /* \"#utility.yul\":3398:3400   */\n      0x20\n        /* \"#utility.yul\":3387:3396   */\n      dup3\n        /* \"#utility.yul\":3383:3401   */\n      add\n        /* \"#utility.yul\":3375:3401   */\n      swap1\n      pop\n        /* \"#utility.yul\":3411:3482   */\n      tag_332\n        /* \"#utility.yul\":3479:3480   */\n      0x00\n        /* \"#utility.yul\":3468:3477   */\n      dup4\n        /* \"#utility.yul\":3464:3481   */\n      add\n        /* \"#utility.yul\":3455:3461   */\n      dup5\n        /* \"#utility.yul\":3411:3482   */\n      tag_228\n      jump\t// in\n    tag_332:\n        /* \"#utility.yul\":3267:3489   */\n      swap3\n      swap2\n      pop\n      pop\n      jump\t// out\n        /* \"#utility.yul\":3495:3617   */\n    tag_229:\n        /* \"#utility.yul\":3568:3592   */\n      tag_334\n        /* \"#utility.yul\":3586:3591   */\n      dup2\n        /* \"#utility.yul\":3568:3592   */\n      tag_227\n      jump\t// in\n    tag_334:\n        /* \"#utility.yul\":3561:3566   */\n      dup2\n        /* \"#utility.yul\":3558:3593   */\n      eq\n        /* \"#utility.yul\":3548:3611   */\n      tag_335\n      jumpi\n        /* \"#utility.yul\":3607:3608   */\n      0x00\n        /* \"#utility.yul\":3604:3605   */\n      dup1\n        /* \"#utility.yul\":3597:3609   */\n      revert\n        /* \"#utility.yul\":3548:3611   */\n    tag_335:\n        /* \"#utility.yul\":3495:3617   */\n      pop\n      jump\t// out\n        /* \"#utility.yul\":3623:3762   */\n    tag_230:\n        /* \"#utility.yul\":3669:3674   */\n      0x00\n        /* \"#utility.yul\":3707:3713   */\n      dup2\n        /* \"#utility.yul\":3694:3714   */\n      calldataload\n        /* \"#utility.yul\":3685:3714   */\n      swap1\n      pop\n        /* \"#utility.yul\":3723:3756   */\n      tag_337\n        /* \"#utility.yul\":3750:3755   */\n      dup2\n        /* \"#utility.yul\":3723:3756   */\n      tag_229\n      jump\t// in\n    tag_337:\n        /* \"#utility.yul\":3623:3762   */\n      swap3\n      swap2\n      pop\n      pop\n      jump\t// out\n        /* \"#utility.yul\":3768:3845   */\n    tag_231:\n        /* \"#utility.yul\":3805:3812   */\n      0x00\n        /* \"#utility.yul\":3834:3839   */\n      dup2\n        /* \"#utility.yul\":3823:3839   */\n      swap1\n      pop\n        /* \"#utility.yul\":3768:3845   */\n      swap2\n      swap1\n      pop\n      jump\t// out\n        /* \"#utility.yul\":3851:3973   */\n    tag_232:\n        /* \"#utility.yul\":3924:3948   */\n      tag_340\n        /* \"#utility.yul\":3942:3947   */\n      dup2\n        /* \"#utility.yul\":3924:3948   */\n      tag_231\n      jump\t// in\n    tag_340:\n        /* \"#utility.yul\":3917:3922   */\n      dup2\n        /* \"#utility.yul\":3914:3949   */\n      eq\n        /* \"#utility.yul\":3904:3967   */\n      tag_341\n      jumpi\n        /* \"#utility.yul\":3963:3964   */\n      0x00\n        /* \"#utility.yul\":3960:3961   */\n      dup1\n        /* \"#utility.yul\":3953:3965   */\n      revert\n        /* \"#utility.yul\":3904:3967   */\n    tag_341:\n        /* \"#utility.yul\":3851:3973   */\n      pop\n      jump\t// out\n        /* \"#utility.yul\":3979:4118   */\n    tag_233:\n        /* \"#utility.yul\":4025:4030   */\n      0x00\n        /* \"#utility.yul\":4063:4069   */\n      dup2\n        /* \"#utility.yul\":4050:4070   */\n      calldataload\n        /* \"#utility.yul\":4041:4070   */\n      swap1\n      pop\n        /* \"#utility.yul\":4079:4112   */\n      tag_343\n        /* \"#utility.yul\":4106:4111   */\n      dup2\n        /* \"#utility.yul\":4079:4112   */\n      tag_232\n      jump\t// in\n    tag_343:\n        /* \"#utility.yul\":3979:4118   */\n      swap3\n      swap2\n      pop\n      pop\n      jump\t// out\n        /* \"#utility.yul\":4124:5245   */\n    tag_28:\n        /* \"#utility.yul\":4228:4234   */\n      0x00\n        /* \"#utility.yul\":4236:4242   */\n      dup1\n        /* \"#utility.yul\":4244:4250   */\n      0x00\n        /* \"#utility.yul\":4252:4258   */\n      dup1\n        /* \"#utility.yul\":4301:4304   */\n      0x80\n        /* \"#utility.yul\":4289:4298   */\n      dup6\n        /* \"#utility.yul\":4280:4287   */\n      dup8\n        /* \"#utility.yul\":4276:4299   */\n      sub\n        /* \"#utility.yul\":4272:4305   */\n      slt\n        /* \"#utility.yul\":4269:4389   */\n      iszero\n      tag_345\n      jumpi\n        /* \"#utility.yul\":4308:4387   */\n      tag_346\n      tag_215\n      jump\t// in\n    tag_346:\n        /* \"#utility.yul\":4269:4389   */\n    tag_345:\n        /* \"#utility.yul\":4428:4429   */\n      0x00\n        /* \"#utility.yul\":4453:4506   */\n      tag_347\n        /* \"#utility.yul\":4498:4505   */\n      dup8\n        /* \"#utility.yul\":4489:4495   */\n      dup3\n        /* \"#utility.yul\":4478:4487   */\n      dup9\n        /* \"#utility.yul\":4474:4496   */\n      add\n        /* \"#utility.yul\":4453:4506   */\n      tag_230\n      jump\t// in\n    tag_347:\n        /* \"#utility.yul\":4443:4506   */\n      swap5\n      pop\n        /* \"#utility.yul\":4399:4516   */\n      pop\n        /* \"#utility.yul\":4583:4585   */\n      0x20\n        /* \"#utility.yul\":4572:4581   */\n      dup6\n        /* \"#utility.yul\":4568:4586   */\n      add\n        /* \"#utility.yul\":4555:4587   */\n      calldataload\n        /* \"#utility.yul\":4614:4632   */\n      0xffffffffffffffff\n        /* \"#utility.yul\":4606:4612   */\n      dup2\n        /* \"#utility.yul\":4603:4633   */\n      gt\n        /* \"#utility.yul\":4600:4717   */\n      iszero\n      tag_348\n      jumpi\n        /* \"#utility.yul\":4636:4715   */\n      tag_349\n      tag_216\n      jump\t// in\n    tag_349:\n        /* \"#utility.yul\":4600:4717   */\n    tag_348:\n        /* \"#utility.yul\":4741:4803   */\n      tag_350\n        /* \"#utility.yul\":4795:4802   */\n      dup8\n        /* \"#utility.yul\":4786:4792   */\n      dup3\n        /* \"#utility.yul\":4775:4784   */\n      dup9\n        /* \"#utility.yul\":4771:4793   */\n      add\n        /* \"#utility.yul\":4741:4803   */\n      tag_226\n      jump\t// in\n    tag_350:\n        /* \"#utility.yul\":4731:4803   */\n      swap4\n      pop\n        /* \"#utility.yul\":4526:4813   */\n      pop\n        /* \"#utility.yul\":4880:4882   */\n      0x40\n        /* \"#utility.yul\":4869:4878   */\n      dup6\n        /* \"#utility.yul\":4865:4883   */\n      add\n        /* \"#utility.yul\":4852:4884   */\n      calldataload\n        /* \"#utility.yul\":4911:4929   */\n      0xffffffffffffffff\n        /* \"#utility.yul\":4903:4909   */\n      dup2\n        /* \"#utility.yul\":4900:4930   */\n      gt\n        /* \"#utility.yul\":4897:5014   */\n      iszero\n      tag_351\n      jumpi\n        /* \"#utility.yul\":4933:5012   */\n      tag_352\n      tag_216\n      jump\t// in\n    tag_352:\n        /* \"#utility.yul\":4897:5014   */\n    tag_351:\n        /* \"#utility.yul\":5038:5100   */\n      tag_353\n        /* \"#utility.yul\":5092:5099   */\n      dup8\n        /* \"#utility.yul\":5083:5089   */\n      dup3\n        /* \"#utility.yul\":5072:5081   */\n      dup9\n        /* \"#utility.yul\":5068:5090   */\n      add\n        /* \"#utility.yul\":5038:5100   */\n      tag_226\n      jump\t// in\n    tag_353:\n        /* \"#utility.yul\":5028:5100   */\n      swap3\n      pop\n        /* \"#utility.yul\":4823:5110   */\n      pop\n        /* \"#utility.yul\":5149:5151   */\n      0x60\n        /* \"#utility.yul\":5175:5228   */\n      tag_354\n        /* \"#utility.yul\":5220:5227   */\n      dup8\n        /* \"#utility.yul\":5211:5217   */\n      dup3\n        /* \"#utility.yul\":5200:5209   */\n      dup9\n        /* \"#utility.yul\":5196:5218   */\n      add\n        /* \"#utility.yul\":5175:5228   */\n      tag_233\n      jump\t// in\n    tag_354:\n        /* \"#utility.yul\":5165:5228   */\n      swap2\n      pop\n        /* \"#utility.yul\":5120:5238   */\n      pop\n        /* \"#utility.yul\":4124:5245   */\n      swap3\n      swap6\n      swap2\n      swap5\n      pop\n      swap3\n      pop\n      jump\t// out\n        /* \"#utility.yul\":5251:5559   */\n    tag_234:\n        /* \"#utility.yul\":5313:5317   */\n      0x00\n        /* \"#utility.yul\":5403:5421   */\n      0xffffffffffffffff\n        /* \"#utility.yul\":5395:5401   */\n      dup3\n        /* \"#utility.yul\":5392:5422   */\n      gt\n        /* \"#utility.yul\":5389:5445   */\n      iszero\n      tag_356\n      jumpi\n        /* \"#utility.yul\":5425:5443   */\n      tag_357\n      tag_220\n      jump\t// in\n    tag_357:\n        /* \"#utility.yul\":5389:5445   */\n    tag_356:\n        /* \"#utility.yul\":5463:5492   */\n      tag_358\n        /* \"#utility.yul\":5485:5491   */\n      dup3\n        /* \"#utility.yul\":5463:5492   */\n      tag_219\n      jump\t// in\n    tag_358:\n        /* \"#utility.yul\":5455:5492   */\n      swap1\n      pop\n        /* \"#utility.yul\":5547:5551   */\n      0x20\n        /* \"#utility.yul\":5541:5545   */\n      dup2\n        /* \"#utility.yul\":5537:5552   */\n      add\n        /* \"#utility.yul\":5529:5552   */\n      swap1\n      pop\n        /* \"#utility.yul\":5251:5559   */\n      swap2\n      swap1\n      pop\n      jump\t// out\n        /* \"#utility.yul\":5565:5990   */\n    tag_235:\n        /* \"#utility.yul\":5643:5648   */\n      0x00\n        /* \"#utility.yul\":5668:5734   */\n      tag_360\n        /* \"#utility.yul\":5684:5733   */\n      tag_361\n        /* \"#utility.yul\":5726:5732   */\n      dup5\n        /* \"#utility.yul\":5684:5733   */\n      tag_234\n      jump\t// in\n    tag_361:\n        /* \"#utility.yul\":5668:5734   */\n      tag_222\n      jump\t// in\n    tag_360:\n        /* \"#utility.yul\":5659:5734   */\n      swap1\n      pop\n        /* \"#utility.yul\":5757:5763   */\n      dup3\n        /* \"#utility.yul\":5750:5755   */\n      dup2\n        /* \"#utility.yul\":5743:5764   */\n      mstore\n        /* \"#utility.yul\":5795:5799   */\n      0x20\n        /* \"#utility.yul\":5788:5793   */\n      dup2\n        /* \"#utility.yul\":5784:5800   */\n      add\n        /* \"#utility.yul\":5833:5836   */\n      dup5\n        /* \"#utility.yul\":5824:5830   */\n      dup5\n        /* \"#utility.yul\":5819:5822   */\n      dup5\n        /* \"#utility.yul\":5815:5831   */\n      add\n        /* \"#utility.yul\":5812:5837   */\n      gt\n        /* \"#utility.yul\":5809:5921   */\n      iszero\n      tag_362\n      jumpi\n        /* \"#utility.yul\":5840:5919   */\n      tag_363\n      tag_218\n      jump\t// in\n    tag_363:\n        /* \"#utility.yul\":5809:5921   */\n    tag_362:\n        /* \"#utility.yul\":5930:5984   */\n      tag_364\n        /* \"#utility.yul\":5977:5983   */\n      dup5\n        /* \"#utility.yul\":5972:5975   */\n      dup3\n        /* \"#utility.yul\":5967:5970   */\n      dup6\n        /* \"#utility.yul\":5930:5984   */\n      tag_224\n      jump\t// in\n    tag_364:\n        /* \"#utility.yul\":5649:5990   */\n      pop\n        /* \"#utility.yul\":5565:5990   */\n      swap4\n      swap3\n      pop\n      pop\n      pop\n      jump\t// out\n        /* \"#utility.yul\":6010:6350   */\n    tag_236:\n        /* \"#utility.yul\":6066:6071   */\n      0x00\n        /* \"#utility.yul\":6115:6118   */\n      dup3\n        /* \"#utility.yul\":6108:6112   */\n      0x1f\n        /* \"#utility.yul\":6100:6106   */\n      dup4\n        /* \"#utility.yul\":6096:6113   */\n      add\n        /* \"#utility.yul\":6092:6119   */\n      slt\n        /* \"#utility.yul\":6082:6204   */\n      tag_366\n      jumpi\n        /* \"#utility.yul\":6123:6202   */\n      tag_367\n      tag_217\n      jump\t// in\n    tag_367:\n        /* \"#utility.yul\":6082:6204   */\n    tag_366:\n        /* \"#utility.yul\":6240:6246   */\n      dup2\n        /* \"#utility.yul\":6227:6247   */\n      calldataload\n        /* \"#utility.yul\":6265:6344   */\n      tag_368\n        /* \"#utility.yul\":6340:6343   */\n      dup5\n        /* \"#utility.yul\":6332:6338   */\n      dup3\n        /* \"#utility.yul\":6325:6329   */\n      0x20\n        /* \"#utility.yul\":6317:6323   */\n      dup7\n        /* \"#utility.yul\":6313:6330   */\n      add\n        /* \"#utility.yul\":6265:6344   */\n      tag_235\n      jump\t// in\n    tag_368:\n        /* \"#utility.yul\":6256:6344   */\n      swap2\n      pop\n        /* \"#utility.yul\":6072:6350   */\n      pop\n        /* \"#utility.yul\":6010:6350   */\n      swap3\n      swap2\n      pop\n      pop\n      jump\t// out\n        /* \"#utility.yul\":6356:7010   */\n    tag_32:\n        /* \"#utility.yul\":6434:6440   */\n      0x00\n        /* \"#utility.yul\":6442:6448   */\n      dup1\n        /* \"#utility.yul\":6491:6493   */\n      0x40\n        /* \"#utility.yul\":6479:6488   */\n      dup4\n        /* \"#utility.yul\":6470:6477   */\n      dup6\n        /* \"#utility.yul\":6466:6489   */\n      sub\n        /* \"#utility.yul\":6462:6494   */\n      slt\n        /* \"#utility.yul\":6459:6578   */\n      iszero\n      tag_370\n      jumpi\n        /* \"#utility.yul\":6497:6576   */\n      tag_371\n      tag_215\n      jump\t// in\n    tag_371:\n        /* \"#utility.yul\":6459:6578   */\n    tag_370:\n        /* \"#utility.yul\":6617:6618   */\n      0x00\n        /* \"#utility.yul\":6642:6695   */\n      tag_372\n        /* \"#utility.yul\":6687:6694   */\n      dup6\n        /* \"#utility.yul\":6678:6684   */\n      dup3\n        /* \"#utility.yul\":6667:6676   */\n      dup7\n        /* \"#utility.yul\":6663:6685   */\n      add\n        /* \"#utility.yul\":6642:6695   */\n      tag_230\n      jump\t// in\n    tag_372:\n        /* \"#utility.yul\":6632:6695   */\n      swap3\n      pop\n        /* \"#utility.yul\":6588:6705   */\n      pop\n        /* \"#utility.yul\":6772:6774   */\n      0x20\n        /* \"#utility.yul\":6761:6770   */\n      dup4\n        /* \"#utility.yul\":6757:6775   */\n      add\n        /* \"#utility.yul\":6744:6776   */\n      calldataload\n        /* \"#utility.yul\":6803:6821   */\n      0xffffffffffffffff\n        /* \"#utility.yul\":6795:6801   */\n      dup2\n        /* \"#utility.yul\":6792:6822   */\n      gt\n        /* \"#utility.yul\":6789:6906   */\n      iszero\n      tag_373\n      jumpi\n        /* \"#utility.yul\":6825:6904   */\n      tag_374\n      tag_216\n      jump\t// in\n    tag_374:\n        /* \"#utility.yul\":6789:6906   */\n    tag_373:\n        /* \"#utility.yul\":6930:6993   */\n      tag_375\n        /* \"#utility.yul\":6985:6992   */\n      dup6\n        /* \"#utility.yul\":6976:6982   */\n      dup3\n        /* \"#utility.yul\":6965:6974   */\n      dup7\n        /* \"#utility.yul\":6961:6983   */\n      add\n        /* \"#utility.yul\":6930:6993   */\n      tag_236\n      jump\t// in\n    tag_375:\n        /* \"#utility.yul\":6920:6993   */\n      swap2\n      pop\n        /* \"#utility.yul\":6715:7003   */\n      pop\n        /* \"#utility.yul\":6356:7010   */\n      swap3\n      pop\n      swap3\n      swap1\n      pop\n      jump\t// out\n        /* \"#utility.yul\":7016:7106   */\n    tag_237:\n        /* \"#utility.yul\":7050:7057   */\n      0x00\n        /* \"#utility.yul\":7093:7098   */\n      dup2\n        /* \"#utility.yul\":7086:7099   */\n      iszero\n        /* \"#utility.yul\":7079:7100   */\n      iszero\n        /* \"#utility.yul\":7068:7100   */\n      swap1\n      pop\n        /* \"#utility.yul\":7016:7106   */\n      swap2\n      swap1\n      pop\n      jump\t// out\n        /* \"#utility.yul\":7112:7221   */\n    tag_238:\n        /* \"#utility.yul\":7193:7214   */\n      tag_378\n        /* \"#utility.yul\":7208:7213   */\n      dup2\n        /* \"#utility.yul\":7193:7214   */\n      tag_237\n      jump\t// in\n    tag_378:\n        /* \"#utility.yul\":7188:7191   */\n      dup3\n        /* \"#utility.yul\":7181:7215   */\n      mstore\n        /* \"#utility.yul\":7112:7221   */\n      pop\n      pop\n      jump\t// out\n        /* \"#utility.yul\":7227:7437   */\n    tag_35:\n        /* \"#utility.yul\":7314:7318   */\n      0x00\n        /* \"#utility.yul\":7352:7354   */\n      0x20\n        /* \"#utility.yul\":7341:7350   */\n      dup3\n        /* \"#utility.yul\":7337:7355   */\n      add\n        /* \"#utility.yul\":7329:7355   */\n      swap1\n      pop\n        /* \"#utility.yul\":7365:7430   */\n      tag_380\n        /* \"#utility.yul\":7427:7428   */\n      0x00\n        /* \"#utility.yul\":7416:7425   */\n      dup4\n        /* \"#utility.yul\":7412:7429   */\n      add\n        /* \"#utility.yul\":7403:7409   */\n      dup5\n        /* \"#utility.yul\":7365:7430   */\n      tag_238\n      jump\t// in\n    tag_380:\n        /* \"#utility.yul\":7227:7437   */\n      swap3\n      swap2\n      pop\n      pop\n      jump\t// out\n        /* \"#utility.yul\":7443:7772   */\n    tag_38:\n        /* \"#utility.yul\":7502:7508   */\n      0x00\n        /* \"#utility.yul\":7551:7553   */\n      0x20\n        /* \"#utility.yul\":7539:7548   */\n      dup3\n        /* \"#utility.yul\":7530:7537   */\n      dup5\n        /* \"#utility.yul\":7526:7549   */\n      sub\n        /* \"#utility.yul\":7522:7554   */\n      slt\n        /* \"#utility.yul\":7519:7638   */\n      iszero\n      tag_382\n      jumpi\n        /* \"#utility.yul\":7557:7636   */\n      tag_383\n      tag_215\n      jump\t// in\n    tag_383:\n        /* \"#utility.yul\":7519:7638   */\n    tag_382:\n        /* \"#utility.yul\":7677:7678   */\n      0x00\n        /* \"#utility.yul\":7702:7755   */\n      tag_384\n        /* \"#utility.yul\":7747:7754   */\n      dup5\n        /* \"#utility.yul\":7738:7744   */\n      dup3\n        /* \"#utility.yul\":7727:7736   */\n      dup6\n        /* \"#utility.yul\":7723:7745   */\n      add\n        /* \"#utility.yul\":7702:7755   */\n      tag_230\n      jump\t// in\n    tag_384:\n        /* \"#utility.yul\":7692:7755   */\n      swap2\n      pop\n        /* \"#utility.yul\":7648:7765   */\n      pop\n        /* \"#utility.yul\":7443:7772   */\n      swap3\n      swap2\n      pop\n      pop\n      jump\t// out\n        /* \"#utility.yul\":7778:7877   */\n    tag_239:\n        /* \"#utility.yul\":7830:7836   */\n      0x00\n        /* \"#utility.yul\":7864:7869   */\n      dup2\n        /* \"#utility.yul\":7858:7870   */\n      mload\n        /* \"#utility.yul\":7848:7870   */\n      swap1\n      pop\n        /* \"#utility.yul\":7778:7877   */\n      swap2\n      swap1\n      pop\n      jump\t// out\n        /* \"#utility.yul\":7883:8052   */\n    tag_240:\n        /* \"#utility.yul\":7967:7978   */\n      0x00\n        /* \"#utility.yul\":8001:8007   */\n      dup3\n        /* \"#utility.yul\":7996:7999   */\n      dup3\n        /* \"#utility.yul\":7989:8008   */\n      mstore\n        /* \"#utility.yul\":8041:8045   */\n      0x20\n        /* \"#utility.yul\":8036:8039   */\n      dup3\n        /* \"#utility.yul\":8032:8046   */\n      add\n        /* \"#utility.yul\":8017:8046   */\n      swap1\n      pop\n        /* \"#utility.yul\":7883:8052   */\n      swap3\n      swap2\n      pop\n      pop\n      jump\t// out\n        /* \"#utility.yul\":8058:8304   */\n    tag_241:\n        /* \"#utility.yul\":8139:8140   */\n      0x00\n        /* \"#utility.yul\":8149:8262   */\n    tag_388:\n        /* \"#utility.yul\":8163:8169   */\n      dup4\n        /* \"#utility.yul\":8160:8161   */\n      dup2\n        /* \"#utility.yul\":8157:8170   */\n      lt\n        /* \"#utility.yul\":8149:8262   */\n      iszero\n      tag_390\n      jumpi\n        /* \"#utility.yul\":8248:8249   */\n      dup1\n        /* \"#utility.yul\":8243:8246   */\n      dup3\n        /* \"#utility.yul\":8239:8250   */\n      add\n        /* \"#utility.yul\":8233:8251   */\n      mload\n        /* \"#utility.yul\":8229:8230   */\n      dup2\n        /* \"#utility.yul\":8224:8227   */\n      dup5\n        /* \"#utility.yul\":8220:8231   */\n      add\n        /* \"#utility.yul\":8213:8252   */\n      mstore\n        /* \"#utility.yul\":8185:8187   */\n      0x20\n        /* \"#utility.yul\":8182:8183   */\n      dup2\n        /* \"#utility.yul\":8178:8188   */\n      add\n        /* \"#utility.yul\":8173:8188   */\n      swap1\n      pop\n        /* \"#utility.yul\":8149:8262   */\n      jump(tag_388)\n    tag_390:\n        /* \"#utility.yul\":8296:8297   */\n      0x00\n        /* \"#utility.yul\":8287:8293   */\n      dup5\n        /* \"#utility.yul\":8282:8285   */\n      dup5\n        /* \"#utility.yul\":8278:8294   */\n      add\n        /* \"#utility.yul\":8271:8298   */\n      mstore\n        /* \"#utility.yul\":8120:8304   */\n      pop\n        /* \"#utility.yul\":8058:8304   */\n      pop\n      pop\n      pop\n      jump\t// out\n        /* \"#utility.yul\":8310:8687   */\n    tag_242:\n        /* \"#utility.yul\":8398:8401   */\n      0x00\n        /* \"#utility.yul\":8426:8465   */\n      tag_392\n        /* \"#utility.yul\":8459:8464   */\n      dup3\n        /* \"#utility.yul\":8426:8465   */\n      tag_239\n      jump\t// in\n    tag_392:\n        /* \"#utility.yul\":8481:8552   */\n      tag_393\n        /* \"#utility.yul\":8545:8551   */\n      dup2\n        /* \"#utility.yul\":8540:8543   */\n      dup6\n        /* \"#utility.yul\":8481:8552   */\n      tag_240\n      jump\t// in\n    tag_393:\n        /* \"#utility.yul\":8474:8552   */\n      swap4\n      pop\n        /* \"#utility.yul\":8561:8626   */\n      tag_394\n        /* \"#utility.yul\":8619:8625   */\n      dup2\n        /* \"#utility.yul\":8614:8617   */\n      dup6\n        /* \"#utility.yul\":8607:8611   */\n      0x20\n        /* \"#utility.yul\":8600:8605   */\n      dup7\n        /* \"#utility.yul\":8596:8612   */\n      add\n        /* \"#utility.yul\":8561:8626   */\n      tag_241\n      jump\t// in\n    tag_394:\n        /* \"#utility.yul\":8651:8680   */\n      tag_395\n        /* \"#utility.yul\":8673:8679   */\n      dup2\n        /* \"#utility.yul\":8651:8680   */\n      tag_219\n      jump\t// in\n    tag_395:\n        /* \"#utility.yul\":8646:8649   */\n      dup5\n        /* \"#utility.yul\":8642:8681   */\n      add\n        /* \"#utility.yul\":8635:8681   */\n      swap2\n      pop\n        /* \"#utility.yul\":8402:8687   */\n      pop\n        /* \"#utility.yul\":8310:8687   */\n      swap3\n      swap2\n      pop\n      pop\n      jump\t// out\n        /* \"#utility.yul\":8693:9006   */\n    tag_41:\n        /* \"#utility.yul\":8806:8810   */\n      0x00\n        /* \"#utility.yul\":8844:8846   */\n      0x20\n        /* \"#utility.yul\":8833:8842   */\n      dup3\n        /* \"#utility.yul\":8829:8847   */\n      add\n        /* \"#utility.yul\":8821:8847   */\n      swap1\n      pop\n        /* \"#utility.yul\":8893:8902   */\n      dup2\n        /* \"#utility.yul\":8887:8891   */\n      dup2\n        /* \"#utility.yul\":8883:8903   */\n      sub\n        /* \"#utility.yul\":8879:8880   */\n      0x00\n        /* \"#utility.yul\":8868:8877   */\n      dup4\n        /* \"#utility.yul\":8864:8881   */\n      add\n        /* \"#utility.yul\":8857:8904   */\n      mstore\n        /* \"#utility.yul\":8921:8999   */\n      tag_397\n        /* \"#utility.yul\":8994:8998   */\n      dup2\n        /* \"#utility.yul\":8985:8991   */\n      dup5\n        /* \"#utility.yul\":8921:8999   */\n      tag_242\n      jump\t// in\n    tag_397:\n        /* \"#utility.yul\":8913:8999   */\n      swap1\n      pop\n        /* \"#utility.yul\":8693:9006   */\n      swap3\n      swap2\n      pop\n      pop\n      jump\t// out\n        /* \"#utility.yul\":9012:9130   */\n    tag_243:\n        /* \"#utility.yul\":9099:9123   */\n      tag_399\n        /* \"#utility.yul\":9117:9122   */\n      dup2\n        /* \"#utility.yul\":9099:9123   */\n      tag_231\n      jump\t// in\n    tag_399:\n        /* \"#utility.yul\":9094:9097   */\n      dup3\n        /* \"#utility.yul\":9087:9124   */\n      mstore\n        /* \"#utility.yul\":9012:9130   */\n      pop\n      pop\n      jump\t// out\n        /* \"#utility.yul\":9136:9358   */\n    tag_46:\n        /* \"#utility.yul\":9229:9233   */\n      0x00\n        /* \"#utility.yul\":9267:9269   */\n      0x20\n        /* \"#utility.yul\":9256:9265   */\n      dup3\n        /* \"#utility.yul\":9252:9270   */\n      add\n        /* \"#utility.yul\":9244:9270   */\n      swap1\n      pop\n        /* \"#utility.yul\":9280:9351   */\n      tag_401\n        /* \"#utility.yul\":9348:9349   */\n      0x00\n        /* \"#utility.yul\":9337:9346   */\n      dup4\n        /* \"#utility.yul\":9333:9350   */\n      add\n        /* \"#utility.yul\":9324:9330   */\n      dup5\n        /* \"#utility.yul\":9280:9351   */\n      tag_243\n      jump\t// in\n    tag_401:\n        /* \"#utility.yul\":9136:9358   */\n      swap3\n      swap2\n      pop\n      pop\n      jump\t// out\n        /* \"#utility.yul\":9364:9490   */\n    tag_244:\n        /* \"#utility.yul\":9401:9408   */\n      0x00\n        /* \"#utility.yul\":9441:9483   */\n      0xffffffffffffffffffffffffffffffffffffffff\n        /* \"#utility.yul\":9434:9439   */\n      dup3\n        /* \"#utility.yul\":9430:9484   */\n      and\n        /* \"#utility.yul\":9419:9484   */\n      swap1\n      pop\n        /* \"#utility.yul\":9364:9490   */\n      swap2\n      swap1\n      pop\n      jump\t// out\n        /* \"#utility.yul\":9496:9592   */\n    tag_245:\n        /* \"#utility.yul\":9533:9540   */\n      0x00\n        /* \"#utility.yul\":9562:9586   */\n      tag_404\n        /* \"#utility.yul\":9580:9585   */\n      dup3\n        /* \"#utility.yul\":9562:9586   */\n      tag_244\n      jump\t// in\n    tag_404:\n        /* \"#utility.yul\":9551:9586   */\n      swap1\n      pop\n        /* \"#utility.yul\":9496:9592   */\n      swap2\n      swap1\n      pop\n      jump\t// out\n        /* \"#utility.yul\":9598:9720   */\n    tag_246:\n        /* \"#utility.yul\":9671:9695   */\n      tag_406\n        /* \"#utility.yul\":9689:9694   */\n      dup2\n        /* \"#utility.yul\":9671:9695   */\n      tag_245\n      jump\t// in\n    tag_406:\n        /* \"#utility.yul\":9664:9669   */\n      dup2\n        /* \"#utility.yul\":9661:9696   */\n      eq\n        /* \"#utility.yul\":9651:9714   */\n      tag_407\n      jumpi\n        /* \"#utility.yul\":9710:9711   */\n      0x00\n        /* \"#utility.yul\":9707:9708   */\n      dup1\n        /* \"#utility.yul\":9700:9712   */\n      revert\n        /* \"#utility.yul\":9651:9714   */\n    tag_407:\n        /* \"#utility.yul\":9598:9720   */\n      pop\n      jump\t// out\n        /* \"#utility.yul\":9726:9865   */\n    tag_247:\n        /* \"#utility.yul\":9772:9777   */\n      0x00\n        /* \"#utility.yul\":9810:9816   */\n      dup2\n        /* \"#utility.yul\":9797:9817   */\n      calldataload\n        /* \"#utility.yul\":9788:9817   */\n      swap1\n      pop\n        /* \"#utility.yul\":9826:9859   */\n      tag_409\n        /* \"#utility.yul\":9853:9858   */\n      dup2\n        /* \"#utility.yul\":9826:9859   */\n      tag_246\n      jump\t// in\n    tag_409:\n        /* \"#utility.yul\":9726:9865   */\n      swap3\n      swap2\n      pop\n      pop\n      jump\t// out\n        /* \"#utility.yul\":9871:10345   */\n    tag_51:\n        /* \"#utility.yul\":9939:9945   */\n      0x00\n        /* \"#utility.yul\":9947:9953   */\n      dup1\n        /* \"#utility.yul\":9996:9998   */\n      0x40\n        /* \"#utility.yul\":9984:9993   */\n      dup4\n        /* \"#utility.yul\":9975:9982   */\n      dup6\n        /* \"#utility.yul\":9971:9994   */\n      sub\n        /* \"#utility.yul\":9967:9999   */\n      slt\n        /* \"#utility.yul\":9964:10083   */\n      iszero\n      tag_411\n      jumpi\n        /* \"#utility.yul\":10002:10081   */\n      tag_412\n      tag_215\n      jump\t// in\n    tag_412:\n        /* \"#utility.yul\":9964:10083   */\n    tag_411:\n        /* \"#utility.yul\":10122:10123   */\n      0x00\n        /* \"#utility.yul\":10147:10200   */\n      tag_413\n        /* \"#utility.yul\":10192:10199   */\n      dup6\n        /* \"#utility.yul\":10183:10189   */\n      dup3\n        /* \"#utility.yul\":10172:10181   */\n      dup7\n        /* \"#utility.yul\":10168:10190   */\n      add\n        /* \"#utility.yul\":10147:10200   */\n      tag_247\n      jump\t// in\n    tag_413:\n        /* \"#utility.yul\":10137:10200   */\n      swap3\n      pop\n        /* \"#utility.yul\":10093:10210   */\n      pop\n        /* \"#utility.yul\":10249:10251   */\n      0x20\n        /* \"#utility.yul\":10275:10328   */\n      tag_414\n        /* \"#utility.yul\":10320:10327   */\n      dup6\n        /* \"#utility.yul\":10311:10317   */\n      dup3\n        /* \"#utility.yul\":10300:10309   */\n      dup7\n        /* \"#utility.yul\":10296:10318   */\n      add\n        /* \"#utility.yul\":10275:10328   */\n      tag_230\n      jump\t// in\n    tag_414:\n        /* \"#utility.yul\":10265:10328   */\n      swap2\n      pop\n        /* \"#utility.yul\":10220:10338   */\n      pop\n        /* \"#utility.yul\":9871:10345   */\n      swap3\n      pop\n      swap3\n      swap1\n      pop\n      jump\t// out\n        /* \"#utility.yul\":10351:10468   */\n    tag_248:\n        /* \"#utility.yul\":10460:10461   */\n      0x00\n        /* \"#utility.yul\":10457:10458   */\n      dup1\n        /* \"#utility.yul\":10450:10462   */\n      revert\n        /* \"#utility.yul\":10474:10591   */\n    tag_249:\n        /* \"#utility.yul\":10583:10584   */\n      0x00\n        /* \"#utility.yul\":10580:10581   */\n      dup1\n        /* \"#utility.yul\":10573:10585   */\n      revert\n        /* \"#utility.yul\":10610:11162   */\n    tag_250:\n        /* \"#utility.yul\":10667:10675   */\n      0x00\n        /* \"#utility.yul\":10677:10683   */\n      dup1\n        /* \"#utility.yul\":10727:10730   */\n      dup4\n        /* \"#utility.yul\":10720:10724   */\n      0x1f\n        /* \"#utility.yul\":10712:10718   */\n      dup5\n        /* \"#utility.yul\":10708:10725   */\n      add\n        /* \"#utility.yul\":10704:10731   */\n      slt\n        /* \"#utility.yul\":10694:10816   */\n      tag_418\n      jumpi\n        /* \"#utility.yul\":10735:10814   */\n      tag_419\n      tag_217\n      jump\t// in\n    tag_419:\n        /* \"#utility.yul\":10694:10816   */\n    tag_418:\n        /* \"#utility.yul\":10848:10854   */\n      dup3\n        /* \"#utility.yul\":10835:10855   */\n      calldataload\n        /* \"#utility.yul\":10825:10855   */\n      swap1\n      pop\n        /* \"#utility.yul\":10878:10896   */\n      0xffffffffffffffff\n        /* \"#utility.yul\":10870:10876   */\n      dup2\n        /* \"#utility.yul\":10867:10897   */\n      gt\n        /* \"#utility.yul\":10864:10981   */\n      iszero\n      tag_420\n      jumpi\n        /* \"#utility.yul\":10900:10979   */\n      tag_421\n      tag_248\n      jump\t// in\n    tag_421:\n        /* \"#utility.yul\":10864:10981   */\n    tag_420:\n        /* \"#utility.yul\":11014:11018   */\n      0x20\n        /* \"#utility.yul\":11006:11012   */\n      dup4\n        /* \"#utility.yul\":11002:11019   */\n      add\n        /* \"#utility.yul\":10990:11019   */\n      swap2\n      pop\n        /* \"#utility.yul\":11068:11071   */\n      dup4\n        /* \"#utility.yul\":11060:11064   */\n      0x01\n        /* \"#utility.yul\":11052:11058   */\n      dup3\n        /* \"#utility.yul\":11048:11065   */\n      mul\n        /* \"#utility.yul\":11038:11046   */\n      dup4\n        /* \"#utility.yul\":11034:11066   */\n      add\n        /* \"#utility.yul\":11031:11072   */\n      gt\n        /* \"#utility.yul\":11028:11156   */\n      iszero\n      tag_422\n      jumpi\n        /* \"#utility.yul\":11075:11154   */\n      tag_423\n      tag_249\n      jump\t// in\n    tag_423:\n        /* \"#utility.yul\":11028:11156   */\n    tag_422:\n        /* \"#utility.yul\":10610:11162   */\n      swap3\n      pop\n      swap3\n      swap1\n      pop\n      jump\t// out\n        /* \"#utility.yul\":11168:11695   */\n    tag_56:\n        /* \"#utility.yul\":11238:11244   */\n      0x00\n        /* \"#utility.yul\":11246:11252   */\n      dup1\n        /* \"#utility.yul\":11295:11297   */\n      0x20\n        /* \"#utility.yul\":11283:11292   */\n      dup4\n        /* \"#utility.yul\":11274:11281   */\n      dup6\n        /* \"#utility.yul\":11270:11293   */\n      sub\n        /* \"#utility.yul\":11266:11298   */\n      slt\n        /* \"#utility.yul\":11263:11382   */\n      iszero\n      tag_425\n      jumpi\n        /* \"#utility.yul\":11301:11380   */\n      tag_426\n      tag_215\n      jump\t// in\n    tag_426:\n        /* \"#utility.yul\":11263:11382   */\n    tag_425:\n        /* \"#utility.yul\":11449:11450   */\n      0x00\n        /* \"#utility.yul\":11438:11447   */\n      dup4\n        /* \"#utility.yul\":11434:11451   */\n      add\n        /* \"#utility.yul\":11421:11452   */\n      calldataload\n        /* \"#utility.yul\":11479:11497   */\n      0xffffffffffffffff\n        /* \"#utility.yul\":11471:11477   */\n      dup2\n        /* \"#utility.yul\":11468:11498   */\n      gt\n        /* \"#utility.yul\":11465:11582   */\n      iszero\n      tag_427\n      jumpi\n        /* \"#utility.yul\":11501:11580   */\n      tag_428\n      tag_216\n      jump\t// in\n    tag_428:\n        /* \"#utility.yul\":11465:11582   */\n    tag_427:\n        /* \"#utility.yul\":11614:11678   */\n      tag_429\n        /* \"#utility.yul\":11670:11677   */\n      dup6\n        /* \"#utility.yul\":11661:11667   */\n      dup3\n        /* \"#utility.yul\":11650:11659   */\n      dup7\n        /* \"#utility.yul\":11646:11668   */\n      add\n        /* \"#utility.yul\":11614:11678   */\n      tag_250\n      jump\t// in\n    tag_429:\n        /* \"#utility.yul\":11596:11678   */\n      swap3\n      pop\n      swap3\n      pop\n        /* \"#utility.yul\":11392:11688   */\n      pop\n        /* \"#utility.yul\":11168:11695   */\n      swap3\n      pop\n      swap3\n      swap1\n      pop\n      jump\t// out\n        /* \"#utility.yul\":11701:11819   */\n    tag_251:\n        /* \"#utility.yul\":11788:11812   */\n      tag_431\n        /* \"#utility.yul\":11806:11811   */\n      dup2\n        /* \"#utility.yul\":11788:11812   */\n      tag_245\n      jump\t// in\n    tag_431:\n        /* \"#utility.yul\":11783:11786   */\n      dup3\n        /* \"#utility.yul\":11776:11813   */\n      mstore\n        /* \"#utility.yul\":11701:11819   */\n      pop\n      pop\n      jump\t// out\n        /* \"#utility.yul\":11825:12047   */\n    tag_61:\n        /* \"#utility.yul\":11918:11922   */\n      0x00\n        /* \"#utility.yul\":11956:11958   */\n      0x20\n        /* \"#utility.yul\":11945:11954   */\n      dup3\n        /* \"#utility.yul\":11941:11959   */\n      add\n        /* \"#utility.yul\":11933:11959   */\n      swap1\n      pop\n        /* \"#utility.yul\":11969:12040   */\n      tag_433\n        /* \"#utility.yul\":12037:12038   */\n      0x00\n        /* \"#utility.yul\":12026:12035   */\n      dup4\n        /* \"#utility.yul\":12022:12039   */\n      add\n        /* \"#utility.yul\":12013:12019   */\n      dup5\n        /* \"#utility.yul\":11969:12040   */\n      tag_251\n      jump\t// in\n    tag_433:\n        /* \"#utility.yul\":11825:12047   */\n      swap3\n      swap2\n      pop\n      pop\n      jump\t// out\n        /* \"#utility.yul\":12053:13028   */\n    tag_64:\n        /* \"#utility.yul\":12148:12154   */\n      0x00\n        /* \"#utility.yul\":12156:12162   */\n      dup1\n        /* \"#utility.yul\":12164:12170   */\n      0x00\n        /* \"#utility.yul\":12213:12215   */\n      0x60\n        /* \"#utility.yul\":12201:12210   */\n      dup5\n        /* \"#utility.yul\":12192:12199   */\n      dup7\n        /* \"#utility.yul\":12188:12211   */\n      sub\n        /* \"#utility.yul\":12184:12216   */\n      slt\n        /* \"#utility.yul\":12181:12300   */\n      iszero\n      tag_435\n      jumpi\n        /* \"#utility.yul\":12219:12298   */\n      tag_436\n      tag_215\n      jump\t// in\n    tag_436:\n        /* \"#utility.yul\":12181:12300   */\n    tag_435:\n        /* \"#utility.yul\":12339:12340   */\n      0x00\n        /* \"#utility.yul\":12364:12417   */\n      tag_437\n        /* \"#utility.yul\":12409:12416   */\n      dup7\n        /* \"#utility.yul\":12400:12406   */\n      dup3\n        /* \"#utility.yul\":12389:12398   */\n      dup8\n        /* \"#utility.yul\":12385:12407   */\n      add\n        /* \"#utility.yul\":12364:12417   */\n      tag_230\n      jump\t// in\n    tag_437:\n        /* \"#utility.yul\":12354:12417   */\n      swap4\n      pop\n        /* \"#utility.yul\":12310:12427   */\n      pop\n        /* \"#utility.yul\":12494:12496   */\n      0x20\n        /* \"#utility.yul\":12483:12492   */\n      dup5\n        /* \"#utility.yul\":12479:12497   */\n      add\n        /* \"#utility.yul\":12466:12498   */\n      calldataload\n        /* \"#utility.yul\":12525:12543   */\n      0xffffffffffffffff\n        /* \"#utility.yul\":12517:12523   */\n      dup2\n        /* \"#utility.yul\":12514:12544   */\n      gt\n        /* \"#utility.yul\":12511:12628   */\n      iszero\n      tag_438\n      jumpi\n        /* \"#utility.yul\":12547:12626   */\n      tag_439\n      tag_216\n      jump\t// in\n    tag_439:\n        /* \"#utility.yul\":12511:12628   */\n    tag_438:\n        /* \"#utility.yul\":12652:12714   */\n      tag_440\n        /* \"#utility.yul\":12706:12713   */\n      dup7\n        /* \"#utility.yul\":12697:12703   */\n      dup3\n        /* \"#utility.yul\":12686:12695   */\n      dup8\n        /* \"#utility.yul\":12682:12704   */\n      add\n        /* \"#utility.yul\":12652:12714   */\n      tag_226\n      jump\t// in\n    tag_440:\n        /* \"#utility.yul\":12642:12714   */\n      swap3\n      pop\n        /* \"#utility.yul\":12437:12724   */\n      pop\n        /* \"#utility.yul\":12791:12793   */\n      0x40\n        /* \"#utility.yul\":12780:12789   */\n      dup5\n        /* \"#utility.yul\":12776:12794   */\n      add\n        /* \"#utility.yul\":12763:12795   */\n      calldataload\n        /* \"#utility.yul\":12822:12840   */\n      0xffffffffffffffff\n        /* \"#utility.yul\":12814:12820   */\n      dup2\n        /* \"#utility.yul\":12811:12841   */\n      gt\n        /* \"#utility.yul\":12808:12925   */\n      iszero\n      tag_441\n      jumpi\n        /* \"#utility.yul\":12844:12923   */\n      tag_442\n      tag_216\n      jump\t// in\n    tag_442:\n        /* \"#utility.yul\":12808:12925   */\n    tag_441:\n        /* \"#utility.yul\":12949:13011   */\n      tag_443\n        /* \"#utility.yul\":13003:13010   */\n      dup7\n        /* \"#utility.yul\":12994:13000   */\n      dup3\n        /* \"#utility.yul\":12983:12992   */\n      dup8\n        /* \"#utility.yul\":12979:13001   */\n      add\n        /* \"#utility.yul\":12949:13011   */\n      tag_226\n      jump\t// in\n    tag_443:\n        /* \"#utility.yul\":12939:13011   */\n      swap2\n      pop\n        /* \"#utility.yul\":12734:13021   */\n      pop\n        /* \"#utility.yul\":12053:13028   */\n      swap3\n      pop\n      swap3\n      pop\n      swap3\n      jump\t// out\n        /* \"#utility.yul\":13034:13363   */\n    tag_74:\n        /* \"#utility.yul\":13093:13099   */\n      0x00\n        /* \"#utility.yul\":13142:13144   */\n      0x20\n        /* \"#utility.yul\":13130:13139   */\n      dup3\n        /* \"#utility.yul\":13121:13128   */\n      dup5\n        /* \"#utility.yul\":13117:13140   */\n      sub\n        /* \"#utility.yul\":13113:13145   */\n      slt\n        /* \"#utility.yul\":13110:13229   */\n      iszero\n      tag_445\n      jumpi\n        /* \"#utility.yul\":13148:13227   */\n      tag_446\n      tag_215\n      jump\t// in\n    tag_446:\n        /* \"#utility.yul\":13110:13229   */\n    tag_445:\n        /* \"#utility.yul\":13268:13269   */\n      0x00\n        /* \"#utility.yul\":13293:13346   */\n      tag_447\n        /* \"#utility.yul\":13338:13345   */\n      dup5\n        /* \"#utility.yul\":13329:13335   */\n      dup3\n        /* \"#utility.yul\":13318:13327   */\n      dup6\n        /* \"#utility.yul\":13314:13336   */\n      add\n        /* \"#utility.yul\":13293:13346   */\n      tag_247\n      jump\t// in\n    tag_447:\n        /* \"#utility.yul\":13283:13346   */\n      swap2\n      pop\n        /* \"#utility.yul\":13239:13356   */\n      pop\n        /* \"#utility.yul\":13034:13363   */\n      swap3\n      swap2\n      pop\n      pop\n      jump\t// out\n        /* \"#utility.yul\":13369:13701   */\n    tag_81:\n        /* \"#utility.yul\":13490:13494   */\n      0x00\n        /* \"#utility.yul\":13528:13530   */\n      0x40\n        /* \"#utility.yul\":13517:13526   */\n      dup3\n        /* \"#utility.yul\":13513:13531   */\n      add\n        /* \"#utility.yul\":13505:13531   */\n      swap1\n      pop\n        /* \"#utility.yul\":13541:13612   */\n      tag_449\n        /* \"#utility.yul\":13609:13610   */\n      0x00\n        /* \"#utility.yul\":13598:13607   */\n      dup4\n        /* \"#utility.yul\":13594:13611   */\n      add\n        /* \"#utility.yul\":13585:13591   */\n      dup6\n        /* \"#utility.yul\":13541:13612   */\n      tag_228\n      jump\t// in\n    tag_449:\n        /* \"#utility.yul\":13622:13694   */\n      tag_450\n        /* \"#utility.yul\":13690:13692   */\n      0x20\n        /* \"#utility.yul\":13679:13688   */\n      dup4\n        /* \"#utility.yul\":13675:13693   */\n      add\n        /* \"#utility.yul\":13666:13672   */\n      dup5\n        /* \"#utility.yul\":13622:13694   */\n      tag_228\n      jump\t// in\n    tag_450:\n        /* \"#utility.yul\":13369:13701   */\n      swap4\n      swap3\n      pop\n      pop\n      pop\n      jump\t// out\n        /* \"#utility.yul\":13707:13856   */\n    tag_252:\n        /* \"#utility.yul\":13743:13750   */\n      0x00\n        /* \"#utility.yul\":13783:13849   */\n      0xff00000000000000000000000000000000000000000000000000000000000000\n        /* \"#utility.yul\":13776:13781   */\n      dup3\n        /* \"#utility.yul\":13772:13850   */\n      and\n        /* \"#utility.yul\":13761:13850   */\n      swap1\n      pop\n        /* \"#utility.yul\":13707:13856   */\n      swap2\n      swap1\n      pop\n      jump\t// out\n        /* \"#utility.yul\":13862:13940   */\n    tag_253:\n        /* \"#utility.yul\":13900:13907   */\n      0x00\n        /* \"#utility.yul\":13929:13934   */\n      dup2\n        /* \"#utility.yul\":13918:13934   */\n      swap1\n      pop\n        /* \"#utility.yul\":13862:13940   */\n      swap2\n      swap1\n      pop\n      jump\t// out\n        /* \"#utility.yul\":13946:14099   */\n    tag_254:\n        /* \"#utility.yul\":14049:14092   */\n      tag_454\n        /* \"#utility.yul\":14068:14091   */\n      tag_455\n        /* \"#utility.yul\":14085:14090   */\n      dup3\n        /* \"#utility.yul\":14068:14091   */\n      tag_252\n      jump\t// in\n    tag_455:\n        /* \"#utility.yul\":14049:14092   */\n      tag_253\n      jump\t// in\n    tag_454:\n        /* \"#utility.yul\":14044:14047   */\n      dup3\n        /* \"#utility.yul\":14037:14093   */\n      mstore\n        /* \"#utility.yul\":13946:14099   */\n      pop\n      pop\n      jump\t// out\n        /* \"#utility.yul\":14105:14199   */\n    tag_255:\n        /* \"#utility.yul\":14138:14146   */\n      0x00\n        /* \"#utility.yul\":14186:14191   */\n      dup2\n        /* \"#utility.yul\":14182:14184   */\n      0x20\n        /* \"#utility.yul\":14178:14192   */\n      shl\n        /* \"#utility.yul\":14157:14192   */\n      swap1\n      pop\n        /* \"#utility.yul\":14105:14199   */\n      swap2\n      swap1\n      pop\n      jump\t// out\n        /* \"#utility.yul\":14205:14299   */\n    tag_256:\n        /* \"#utility.yul\":14238:14246   */\n      0x00\n        /* \"#utility.yul\":14286:14291   */\n      dup2\n        /* \"#utility.yul\":14282:14284   */\n      0x40\n        /* \"#utility.yul\":14278:14292   */\n      shl\n        /* \"#utility.yul\":14257:14292   */\n      swap1\n      pop\n        /* \"#utility.yul\":14205:14299   */\n      swap2\n      swap1\n      pop\n      jump\t// out\n        /* \"#utility.yul\":14305:14464   */\n    tag_257:\n        /* \"#utility.yul\":14362:14370   */\n      0x00\n        /* \"#utility.yul\":14393:14458   */\n      tag_459\n        /* \"#utility.yul\":14445:14455   */\n      0xffffffff\n        /* \"#utility.yul\":14435:14443   */\n      dup5\n        /* \"#utility.yul\":14431:14456   */\n      and\n        /* \"#utility.yul\":14410:14429   */\n      tag_460\n        /* \"#utility.yul\":14424:14428   */\n      dup5\n        /* \"#utility.yul\":14410:14429   */\n      tag_255\n      jump\t// in\n    tag_460:\n        /* \"#utility.yul\":14407:14457   */\n      or\n        /* \"#utility.yul\":14393:14458   */\n      tag_256\n      jump\t// in\n    tag_459:\n        /* \"#utility.yul\":14381:14458   */\n      swap1\n      pop\n        /* \"#utility.yul\":14305:14464   */\n      swap3\n      swap2\n      pop\n      pop\n      jump\t// out\n        /* \"#utility.yul\":14470:14699   */\n    tag_258:\n        /* \"#utility.yul\":14609:14616   */\n      0x00\n        /* \"#utility.yul\":14618:14631   */\n      dup1\n        /* \"#utility.yul\":14653:14657   */\n      dup3\n        /* \"#utility.yul\":14642:14657   */\n      swap2\n      pop\n        /* \"#utility.yul\":14683:14693   */\n      dup4\n        /* \"#utility.yul\":14666:14693   */\n      swap1\n      pop\n        /* \"#utility.yul\":14470:14699   */\n      swap3\n      pop\n      swap3\n      swap1\n      pop\n      jump\t// out\n        /* \"#utility.yul\":14705:15111   */\n    tag_259:\n        /* \"#utility.yul\":14909:15036   */\n      tag_463\n        /* \"#utility.yul\":15024:15035   */\n      dup3\n        /* \"#utility.yul\":15018:15022   */\n      dup3\n        /* \"#utility.yul\":14909:15036   */\n      tag_258\n      jump\t// in\n    tag_463:\n        /* \"#utility.yul\":14888:15036   */\n      swap3\n      pop\n      swap1\n      pop\n        /* \"#utility.yul\":15057:15104   */\n      tag_464\n        /* \"#utility.yul\":15092:15103   */\n      dup3\n        /* \"#utility.yul\":15086:15090   */\n      dup3\n        /* \"#utility.yul\":15057:15104   */\n      tag_257\n      jump\t// in\n    tag_464:\n        /* \"#utility.yul\":15052:15055   */\n      dup4\n        /* \"#utility.yul\":15045:15105   */\n      mstore\n        /* \"#utility.yul\":14705:15111   */\n      pop\n      pop\n      pop\n      jump\t// out\n        /* \"#utility.yul\":15117:15196   */\n    tag_260:\n        /* \"#utility.yul\":15156:15163   */\n      0x00\n        /* \"#utility.yul\":15185:15190   */\n      dup2\n        /* \"#utility.yul\":15174:15190   */\n      swap1\n      pop\n        /* \"#utility.yul\":15117:15196   */\n      swap2\n      swap1\n      pop\n      jump\t// out\n        /* \"#utility.yul\":15202:15359   */\n    tag_261:\n        /* \"#utility.yul\":15307:15352   */\n      tag_467\n        /* \"#utility.yul\":15327:15351   */\n      tag_468\n        /* \"#utility.yul\":15345:15350   */\n      dup3\n        /* \"#utility.yul\":15327:15351   */\n      tag_227\n      jump\t// in\n    tag_468:\n        /* \"#utility.yul\":15307:15352   */\n      tag_260\n      jump\t// in\n    tag_467:\n        /* \"#utility.yul\":15302:15305   */\n      dup3\n        /* \"#utility.yul\":15295:15353   */\n      mstore\n        /* \"#utility.yul\":15202:15359   */\n      pop\n      pop\n      jump\t// out\n        /* \"#utility.yul\":15365:16206   */\n    tag_83:\n        /* \"#utility.yul\":15643:15646   */\n      0x00\n        /* \"#utility.yul\":15658:15731   */\n      tag_470\n        /* \"#utility.yul\":15727:15730   */\n      dup3\n        /* \"#utility.yul\":15718:15724   */\n      dup9\n        /* \"#utility.yul\":15658:15731   */\n      tag_254\n      jump\t// in\n    tag_470:\n        /* \"#utility.yul\":15756:15757   */\n      0x01\n        /* \"#utility.yul\":15751:15754   */\n      dup3\n        /* \"#utility.yul\":15747:15758   */\n      add\n        /* \"#utility.yul\":15740:15758   */\n      swap2\n      pop\n        /* \"#utility.yul\":15768:15841   */\n      tag_471\n        /* \"#utility.yul\":15837:15840   */\n      dup3\n        /* \"#utility.yul\":15828:15834   */\n      dup8\n        /* \"#utility.yul\":15768:15841   */\n      tag_254\n      jump\t// in\n    tag_471:\n        /* \"#utility.yul\":15866:15867   */\n      0x01\n        /* \"#utility.yul\":15861:15864   */\n      dup3\n        /* \"#utility.yul\":15857:15868   */\n      add\n        /* \"#utility.yul\":15850:15868   */\n      swap2\n      pop\n        /* \"#utility.yul\":15878:16039   */\n      tag_472\n        /* \"#utility.yul\":16035:16038   */\n      dup3\n        /* \"#utility.yul\":16026:16032   */\n      dup6\n        /* \"#utility.yul\":16018:16024   */\n      dup8\n        /* \"#utility.yul\":15878:16039   */\n      tag_259\n      jump\t// in\n    tag_472:\n        /* \"#utility.yul\":16064:16066   */\n      0x18\n        /* \"#utility.yul\":16059:16062   */\n      dup3\n        /* \"#utility.yul\":16055:16067   */\n      add\n        /* \"#utility.yul\":16048:16067   */\n      swap2\n      pop\n        /* \"#utility.yul\":16077:16152   */\n      tag_473\n        /* \"#utility.yul\":16148:16151   */\n      dup3\n        /* \"#utility.yul\":16139:16145   */\n      dup5\n        /* \"#utility.yul\":16077:16152   */\n      tag_261\n      jump\t// in\n    tag_473:\n        /* \"#utility.yul\":16177:16179   */\n      0x20\n        /* \"#utility.yul\":16172:16175   */\n      dup3\n        /* \"#utility.yul\":16168:16180   */\n      add\n        /* \"#utility.yul\":16161:16180   */\n      swap2\n      pop\n        /* \"#utility.yul\":16197:16200   */\n      dup2\n        /* \"#utility.yul\":16190:16200   */\n      swap1\n      pop\n        /* \"#utility.yul\":15365:16206   */\n      swap7\n      swap6\n      pop\n      pop\n      pop\n      pop\n      pop\n      pop\n      jump\t// out\n        /* \"#utility.yul\":16212:16392   */\n    tag_262:\n        /* \"#utility.yul\":16260:16337   */\n      0x4e487b7100000000000000000000000000000000000000000000000000000000\n        /* \"#utility.yul\":16257:16258   */\n      0x00\n        /* \"#utility.yul\":16250:16338   */\n      mstore\n        /* \"#utility.yul\":16357:16361   */\n      0x11\n        /* \"#utility.yul\":16354:16355   */\n      0x04\n        /* \"#utility.yul\":16347:16362   */\n      mstore\n        /* \"#utility.yul\":16381:16385   */\n      0x24\n        /* \"#utility.yul\":16378:16379   */\n      0x00\n        /* \"#utility.yul\":16371:16386   */\n      revert\n        /* \"#utility.yul\":16398:16808   */\n    tag_86:\n        /* \"#utility.yul\":16438:16445   */\n      0x00\n        /* \"#utility.yul\":16461:16481   */\n      tag_476\n        /* \"#utility.yul\":16479:16480   */\n      dup3\n        /* \"#utility.yul\":16461:16481   */\n      tag_231\n      jump\t// in\n    tag_476:\n        /* \"#utility.yul\":16456:16481   */\n      swap2\n      pop\n        /* \"#utility.yul\":16495:16515   */\n      tag_477\n        /* \"#utility.yul\":16513:16514   */\n      dup4\n        /* \"#utility.yul\":16495:16515   */\n      tag_231\n      jump\t// in\n    tag_477:\n        /* \"#utility.yul\":16490:16515   */\n      swap3\n      pop\n        /* \"#utility.yul\":16550:16551   */\n      dup3\n        /* \"#utility.yul\":16547:16548   */\n      dup3\n        /* \"#utility.yul\":16543:16552   */\n      mul\n        /* \"#utility.yul\":16572:16602   */\n      tag_478\n        /* \"#utility.yul\":16590:16601   */\n      dup2\n        /* \"#utility.yul\":16572:16602   */\n      tag_231\n      jump\t// in\n    tag_478:\n        /* \"#utility.yul\":16561:16602   */\n      swap2\n      pop\n        /* \"#utility.yul\":16751:16752   */\n      dup3\n        /* \"#utility.yul\":16742:16749   */\n      dup3\n        /* \"#utility.yul\":16738:16753   */\n      div\n        /* \"#utility.yul\":16735:16736   */\n      dup5\n        /* \"#utility.yul\":16732:16754   */\n      eq\n        /* \"#utility.yul\":16712:16713   */\n      dup4\n        /* \"#utility.yul\":16705:16714   */\n      iszero\n        /* \"#utility.yul\":16685:16768   */\n      or\n        /* \"#utility.yul\":16662:16801   */\n      tag_479\n      jumpi\n        /* \"#utility.yul\":16781:16799   */\n      tag_480\n      tag_262\n      jump\t// in\n    tag_480:\n        /* \"#utility.yul\":16662:16801   */\n    tag_479:\n        /* \"#utility.yul\":16446:16808   */\n      pop\n        /* \"#utility.yul\":16398:16808   */\n      swap3\n      swap2\n      pop\n      pop\n      jump\t// out\n        /* \"#utility.yul\":16814:16969   */\n    tag_263:\n        /* \"#utility.yul\":16954:16961   */\n      0x4753303230000000000000000000000000000000000000000000000000000000\n        /* \"#utility.yul\":16950:16951   */\n      0x00\n        /* \"#utility.yul\":16942:16948   */\n      dup3\n        /* \"#utility.yul\":16938:16952   */\n      add\n        /* \"#utility.yul\":16931:16962   */\n      mstore\n        /* \"#utility.yul\":16814:16969   */\n      pop\n      jump\t// out\n        /* \"#utility.yul\":16975:17340   */\n    tag_264:\n        /* \"#utility.yul\":17117:17120   */\n      0x00\n        /* \"#utility.yul\":17138:17204   */\n      tag_483\n        /* \"#utility.yul\":17202:17203   */\n      0x05\n        /* \"#utility.yul\":17197:17200   */\n      dup4\n        /* \"#utility.yul\":17138:17204   */\n      tag_240\n      jump\t// in\n    tag_483:\n        /* \"#utility.yul\":17131:17204   */\n      swap2\n      pop\n        /* \"#utility.yul\":17213:17306   */\n      tag_484\n        /* \"#utility.yul\":17302:17305   */\n      dup3\n        /* \"#utility.yul\":17213:17306   */\n      tag_263\n      jump\t// in\n    tag_484:\n        /* \"#utility.yul\":17331:17333   */\n      0x20\n        /* \"#utility.yul\":17326:17329   */\n      dup3\n        /* \"#utility.yul\":17322:17334   */\n      add\n        /* \"#utility.yul\":17315:17334   */\n      swap1\n      pop\n        /* \"#utility.yul\":16975:17340   */\n      swap2\n      swap1\n      pop\n      jump\t// out\n        /* \"#utility.yul\":17346:17765   */\n    tag_89:\n        /* \"#utility.yul\":17512:17516   */\n      0x00\n        /* \"#utility.yul\":17550:17552   */\n      0x20\n        /* \"#utility.yul\":17539:17548   */\n      dup3\n        /* \"#utility.yul\":17535:17553   */\n      add\n        /* \"#utility.yul\":17527:17553   */\n      swap1\n      pop\n        /* \"#utility.yul\":17599:17608   */\n      dup2\n        /* \"#utility.yul\":17593:17597   */\n      dup2\n        /* \"#utility.yul\":17589:17609   */\n      sub\n        /* \"#utility.yul\":17585:17586   */\n      0x00\n        /* \"#utility.yul\":17574:17583   */\n      dup4\n        /* \"#utility.yul\":17570:17587   */\n      add\n        /* \"#utility.yul\":17563:17610   */\n      mstore\n        /* \"#utility.yul\":17627:17758   */\n      tag_486\n        /* \"#utility.yul\":17753:17757   */\n      dup2\n        /* \"#utility.yul\":17627:17758   */\n      tag_264\n      jump\t// in\n    tag_486:\n        /* \"#utility.yul\":17619:17758   */\n      swap1\n      pop\n        /* \"#utility.yul\":17346:17765   */\n      swap2\n      swap1\n      pop\n      jump\t// out\n        /* \"#utility.yul\":17771:17926   */\n    tag_265:\n        /* \"#utility.yul\":17911:17918   */\n      0x4753303231000000000000000000000000000000000000000000000000000000\n        /* \"#utility.yul\":17907:17908   */\n      0x00\n        /* \"#utility.yul\":17899:17905   */\n      dup3\n        /* \"#utility.yul\":17895:17909   */\n      add\n        /* \"#utility.yul\":17888:17919   */\n      mstore\n        /* \"#utility.yul\":17771:17926   */\n      pop\n      jump\t// out\n        /* \"#utility.yul\":17932:18297   */\n    tag_266:\n        /* \"#utility.yul\":18074:18077   */\n      0x00\n        /* \"#utility.yul\":18095:18161   */\n      tag_489\n        /* \"#utility.yul\":18159:18160   */\n      0x05\n        /* \"#utility.yul\":18154:18157   */\n      dup4\n        /* \"#utility.yul\":18095:18161   */\n      tag_240\n      jump\t// in\n    tag_489:\n        /* \"#utility.yul\":18088:18161   */\n      swap2\n      pop\n        /* \"#utility.yul\":18170:18263   */\n      tag_490\n        /* \"#utility.yul\":18259:18262   */\n      dup3\n        /* \"#utility.yul\":18170:18263   */\n      tag_265\n      jump\t// in\n    tag_490:\n        /* \"#utility.yul\":18288:18290   */\n      0x20\n        /* \"#utility.yul\":18283:18286   */\n      dup3\n        /* \"#utility.yul\":18279:18291   */\n      add\n        /* \"#utility.yul\":18272:18291   */\n      swap1\n      pop\n        /* \"#utility.yul\":17932:18297   */\n      swap2\n      swap1\n      pop\n      jump\t// out\n        /* \"#utility.yul\":18303:18722   */\n    tag_99:\n        /* \"#utility.yul\":18469:18473   */\n      0x00\n        /* \"#utility.yul\":18507:18509   */\n      0x20\n        /* \"#utility.yul\":18496:18505   */\n      dup3\n        /* \"#utility.yul\":18492:18510   */\n      add\n        /* \"#utility.yul\":18484:18510   */\n      swap1\n      pop\n        /* \"#utility.yul\":18556:18565   */\n      dup2\n        /* \"#utility.yul\":18550:18554   */\n      dup2\n        /* \"#utility.yul\":18546:18566   */\n      sub\n        /* \"#utility.yul\":18542:18543   */\n      0x00\n        /* \"#utility.yul\":18531:18540   */\n      dup4\n        /* \"#utility.yul\":18527:18544   */\n      add\n        /* \"#utility.yul\":18520:18567   */\n      mstore\n        /* \"#utility.yul\":18584:18715   */\n      tag_492\n        /* \"#utility.yul\":18710:18714   */\n      dup2\n        /* \"#utility.yul\":18584:18715   */\n      tag_266\n      jump\t// in\n    tag_492:\n        /* \"#utility.yul\":18576:18715   */\n      swap1\n      pop\n        /* \"#utility.yul\":18303:18722   */\n      swap2\n      swap1\n      pop\n      jump\t// out\n        /* \"#utility.yul\":18728:18919   */\n    tag_101:\n        /* \"#utility.yul\":18768:18771   */\n      0x00\n        /* \"#utility.yul\":18787:18807   */\n      tag_494\n        /* \"#utility.yul\":18805:18806   */\n      dup3\n        /* \"#utility.yul\":18787:18807   */\n      tag_231\n      jump\t// in\n    tag_494:\n        /* \"#utility.yul\":18782:18807   */\n      swap2\n      pop\n        /* \"#utility.yul\":18821:18841   */\n      tag_495\n        /* \"#utility.yul\":18839:18840   */\n      dup4\n        /* \"#utility.yul\":18821:18841   */\n      tag_231\n      jump\t// in\n    tag_495:\n        /* \"#utility.yul\":18816:18841   */\n      swap3\n      pop\n        /* \"#utility.yul\":18864:18865   */\n      dup3\n        /* \"#utility.yul\":18861:18862   */\n      dup3\n        /* \"#utility.yul\":18857:18866   */\n      add\n        /* \"#utility.yul\":18850:18866   */\n      swap1\n      pop\n        /* \"#utility.yul\":18885:18888   */\n      dup1\n        /* \"#utility.yul\":18882:18883   */\n      dup3\n        /* \"#utility.yul\":18879:18889   */\n      gt\n        /* \"#utility.yul\":18876:18912   */\n      iszero\n      tag_496\n      jumpi\n        /* \"#utility.yul\":18892:18910   */\n      tag_497\n      tag_262\n      jump\t// in\n    tag_497:\n        /* \"#utility.yul\":18876:18912   */\n    tag_496:\n        /* \"#utility.yul\":18728:18919   */\n      swap3\n      swap2\n      pop\n      pop\n      jump\t// out\n        /* \"#utility.yul\":18925:19080   */\n    tag_267:\n        /* \"#utility.yul\":19065:19072   */\n      0x4753303232000000000000000000000000000000000000000000000000000000\n        /* \"#utility.yul\":19061:19062   */\n      0x00\n        /* \"#utility.yul\":19053:19059   */\n      dup3\n        /* \"#utility.yul\":19049:19063   */\n      add\n        /* \"#utility.yul\":19042:19073   */\n      mstore\n        /* \"#utility.yul\":18925:19080   */\n      pop\n      jump\t// out\n        /* \"#utility.yul\":19086:19451   */\n    tag_268:\n        /* \"#utility.yul\":19228:19231   */\n      0x00\n        /* \"#utility.yul\":19249:19315   */\n      tag_500\n        /* \"#utility.yul\":19313:19314   */\n      0x05\n        /* \"#utility.yul\":19308:19311   */\n      dup4\n        /* \"#utility.yul\":19249:19315   */\n      tag_240\n      jump\t// in\n    tag_500:\n        /* \"#utility.yul\":19242:19315   */\n      swap2\n      pop\n        /* \"#utility.yul\":19324:19417   */\n      tag_501\n        /* \"#utility.yul\":19413:19416   */\n      dup3\n        /* \"#utility.yul\":19324:19417   */\n      tag_267\n      jump\t// in\n    tag_501:\n        /* \"#utility.yul\":19442:19444   */\n      0x20\n        /* \"#utility.yul\":19437:19440   */\n      dup3\n        /* \"#utility.yul\":19433:19445   */\n      add\n        /* \"#utility.yul\":19426:19445   */\n      swap1\n      pop\n        /* \"#utility.yul\":19086:19451   */\n      swap2\n      swap1\n      pop\n      jump\t// out\n        /* \"#utility.yul\":19457:19876   */\n    tag_104:\n        /* \"#utility.yul\":19623:19627   */\n      0x00\n        /* \"#utility.yul\":19661:19663   */\n      0x20\n        /* \"#utility.yul\":19650:19659   */\n      dup3\n        /* \"#utility.yul\":19646:19664   */\n      add\n        /* \"#utility.yul\":19638:19664   */\n      swap1\n      pop\n        /* \"#utility.yul\":19710:19719   */\n      dup2\n        /* \"#utility.yul\":19704:19708   */\n      dup2\n        /* \"#utility.yul\":19700:19720   */\n      sub\n        /* \"#utility.yul\":19696:19697   */\n      0x00\n        /* \"#utility.yul\":19685:19694   */\n      dup4\n        /* \"#utility.yul\":19681:19698   */\n      add\n        /* \"#utility.yul\":19674:19721   */\n      mstore\n        /* \"#utility.yul\":19738:19869   */\n      tag_503\n        /* \"#utility.yul\":19864:19868   */\n      dup2\n        /* \"#utility.yul\":19738:19869   */\n      tag_268\n      jump\t// in\n    tag_503:\n        /* \"#utility.yul\":19730:19869   */\n      swap1\n      pop\n        /* \"#utility.yul\":19457:19876   */\n      swap2\n      swap1\n      pop\n      jump\t// out\n        /* \"#utility.yul\":19882:20045   */\n    tag_269:\n        /* \"#utility.yul\":20022:20037   */\n      0x6163636573732064656e69656400000000000000000000000000000000000000\n        /* \"#utility.yul\":20018:20019   */\n      0x00\n        /* \"#utility.yul\":20010:20016   */\n      dup3\n        /* \"#utility.yul\":20006:20020   */\n      add\n        /* \"#utility.yul\":19999:20038   */\n      mstore\n        /* \"#utility.yul\":19882:20045   */\n      pop\n      jump\t// out\n        /* \"#utility.yul\":20051:20417   */\n    tag_270:\n        /* \"#utility.yul\":20193:20196   */\n      0x00\n        /* \"#utility.yul\":20214:20281   */\n      tag_506\n        /* \"#utility.yul\":20278:20280   */\n      0x0d\n        /* \"#utility.yul\":20273:20276   */\n      dup4\n        /* \"#utility.yul\":20214:20281   */\n      tag_240\n      jump\t// in\n    tag_506:\n        /* \"#utility.yul\":20207:20281   */\n      swap2\n      pop\n        /* \"#utility.yul\":20290:20383   */\n      tag_507\n        /* \"#utility.yul\":20379:20382   */\n      dup3\n        /* \"#utility.yul\":20290:20383   */\n      tag_269\n      jump\t// in\n    tag_507:\n        /* \"#utility.yul\":20408:20410   */\n      0x20\n        /* \"#utility.yul\":20403:20406   */\n      dup3\n        /* \"#utility.yul\":20399:20411   */\n      add\n        /* \"#utility.yul\":20392:20411   */\n      swap1\n      pop\n        /* \"#utility.yul\":20051:20417   */\n      swap2\n      swap1\n      pop\n      jump\t// out\n        /* \"#utility.yul\":20423:20842   */\n    tag_109:\n        /* \"#utility.yul\":20589:20593   */\n      0x00\n        /* \"#utility.yul\":20627:20629   */\n      0x20\n        /* \"#utility.yul\":20616:20625   */\n      dup3\n        /* \"#utility.yul\":20612:20630   */\n      add\n        /* \"#utility.yul\":20604:20630   */\n      swap1\n      pop\n        /* \"#utility.yul\":20676:20685   */\n      dup2\n        /* \"#utility.yul\":20670:20674   */\n      dup2\n        /* \"#utility.yul\":20666:20686   */\n      sub\n        /* \"#utility.yul\":20662:20663   */\n      0x00\n        /* \"#utility.yul\":20651:20660   */\n      dup4\n        /* \"#utility.yul\":20647:20664   */\n      add\n        /* \"#utility.yul\":20640:20687   */\n      mstore\n        /* \"#utility.yul\":20704:20835   */\n      tag_509\n        /* \"#utility.yul\":20830:20834   */\n      dup2\n        /* \"#utility.yul\":20704:20835   */\n      tag_270\n      jump\t// in\n    tag_509:\n        /* \"#utility.yul\":20696:20835   */\n      swap1\n      pop\n        /* \"#utility.yul\":20423:20842   */\n      swap2\n      swap1\n      pop\n      jump\t// out\n        /* \"#utility.yul\":20848:20946   */\n    tag_271:\n        /* \"#utility.yul\":20899:20905   */\n      0x00\n        /* \"#utility.yul\":20933:20938   */\n      dup2\n        /* \"#utility.yul\":20927:20939   */\n      mload\n        /* \"#utility.yul\":20917:20939   */\n      swap1\n      pop\n        /* \"#utility.yul\":20848:20946   */\n      swap2\n      swap1\n      pop\n      jump\t// out\n        /* \"#utility.yul\":20952:21120   */\n    tag_272:\n        /* \"#utility.yul\":21035:21046   */\n      0x00\n        /* \"#utility.yul\":21069:21075   */\n      dup3\n        /* \"#utility.yul\":21064:21067   */\n      dup3\n        /* \"#utility.yul\":21057:21076   */\n      mstore\n        /* \"#utility.yul\":21109:21113   */\n      0x20\n        /* \"#utility.yul\":21104:21107   */\n      dup3\n        /* \"#utility.yul\":21100:21114   */\n      add\n        /* \"#utility.yul\":21085:21114   */\n      swap1\n      pop\n        /* \"#utility.yul\":20952:21120   */\n      swap3\n      swap2\n      pop\n      pop\n      jump\t// out\n        /* \"#utility.yul\":21126:21499   */\n    tag_273:\n        /* \"#utility.yul\":21212:21215   */\n      0x00\n        /* \"#utility.yul\":21240:21278   */\n      tag_513\n        /* \"#utility.yul\":21272:21277   */\n      dup3\n        /* \"#utility.yul\":21240:21278   */\n      tag_271\n      jump\t// in\n    tag_513:\n        /* \"#utility.yul\":21294:21364   */\n      tag_514\n        /* \"#utility.yul\":21357:21363   */\n      dup2\n        /* \"#utility.yul\":21352:21355   */\n      dup6\n        /* \"#utility.yul\":21294:21364   */\n      tag_272\n      jump\t// in\n    tag_514:\n        /* \"#utility.yul\":21287:21364   */\n      swap4\n      pop\n        /* \"#utility.yul\":21373:21438   */\n      tag_515\n        /* \"#utility.yul\":21431:21437   */\n      dup2\n        /* \"#utility.yul\":21426:21429   */\n      dup6\n        /* \"#utility.yul\":21419:21423   */\n      0x20\n        /* \"#utility.yul\":21412:21417   */\n      dup7\n        /* \"#utility.yul\":21408:21424   */\n      add\n        /* \"#utility.yul\":21373:21438   */\n      tag_241\n      jump\t// in\n    tag_515:\n        /* \"#utility.yul\":21463:21492   */\n      tag_516\n        /* \"#utility.yul\":21485:21491   */\n      dup2\n        /* \"#utility.yul\":21463:21492   */\n      tag_219\n      jump\t// in\n    tag_516:\n        /* \"#utility.yul\":21458:21461   */\n      dup5\n        /* \"#utility.yul\":21454:21493   */\n      add\n        /* \"#utility.yul\":21447:21493   */\n      swap2\n      pop\n        /* \"#utility.yul\":21216:21499   */\n      pop\n        /* \"#utility.yul\":21126:21499   */\n      swap3\n      swap2\n      pop\n      pop\n      jump\t// out\n        /* \"#utility.yul\":21505:22011   */\n    tag_111:\n        /* \"#utility.yul\":21662:21666   */\n      0x00\n        /* \"#utility.yul\":21700:21702   */\n      0x40\n        /* \"#utility.yul\":21689:21698   */\n      dup3\n        /* \"#utility.yul\":21685:21703   */\n      add\n        /* \"#utility.yul\":21677:21703   */\n      swap1\n      pop\n        /* \"#utility.yul\":21749:21758   */\n      dup2\n        /* \"#utility.yul\":21743:21747   */\n      dup2\n        /* \"#utility.yul\":21739:21759   */\n      sub\n        /* \"#utility.yul\":21735:21736   */\n      0x00\n        /* \"#utility.yul\":21724:21733   */\n      dup4\n        /* \"#utility.yul\":21720:21737   */\n      add\n        /* \"#utility.yul\":21713:21760   */\n      mstore\n        /* \"#utility.yul\":21777:21853   */\n      tag_518\n        /* \"#utility.yul\":21848:21852   */\n      dup2\n        /* \"#utility.yul\":21839:21845   */\n      dup6\n        /* \"#utility.yul\":21777:21853   */\n      tag_273\n      jump\t// in\n    tag_518:\n        /* \"#utility.yul\":21769:21853   */\n      swap1\n      pop\n        /* \"#utility.yul\":21900:21909   */\n      dup2\n        /* \"#utility.yul\":21894:21898   */\n      dup2\n        /* \"#utility.yul\":21890:21910   */\n      sub\n        /* \"#utility.yul\":21885:21887   */\n      0x20\n        /* \"#utility.yul\":21874:21883   */\n      dup4\n        /* \"#utility.yul\":21870:21888   */\n      add\n        /* \"#utility.yul\":21863:21911   */\n      mstore\n        /* \"#utility.yul\":21928:22004   */\n      tag_519\n        /* \"#utility.yul\":21999:22003   */\n      dup2\n        /* \"#utility.yul\":21990:21996   */\n      dup5\n        /* \"#utility.yul\":21928:22004   */\n      tag_273\n      jump\t// in\n    tag_519:\n        /* \"#utility.yul\":21920:22004   */\n      swap1\n      pop\n        /* \"#utility.yul\":21505:22011   */\n      swap4\n      swap3\n      pop\n      pop\n      pop\n      jump\t// out\n        /* \"#utility.yul\":22017:22166   */\n    tag_274:\n        /* \"#utility.yul\":22053:22060   */\n      0x00\n        /* \"#utility.yul\":22093:22159   */\n      0xffffffff00000000000000000000000000000000000000000000000000000000\n        /* \"#utility.yul\":22086:22091   */\n      dup3\n        /* \"#utility.yul\":22082:22160   */\n      and\n        /* \"#utility.yul\":22071:22160   */\n      swap1\n      pop\n        /* \"#utility.yul\":22017:22166   */\n      swap2\n      swap1\n      pop\n      jump\t// out\n        /* \"#utility.yul\":22172:22292   */\n    tag_275:\n        /* \"#utility.yul\":22244:22267   */\n      tag_522\n        /* \"#utility.yul\":22261:22266   */\n      dup2\n        /* \"#utility.yul\":22244:22267   */\n      tag_274\n      jump\t// in\n    tag_522:\n        /* \"#utility.yul\":22237:22242   */\n      dup2\n        /* \"#utility.yul\":22234:22268   */\n      eq\n        /* \"#utility.yul\":22224:22286   */\n      tag_523\n      jumpi\n        /* \"#utility.yul\":22282:22283   */\n      0x00\n        /* \"#utility.yul\":22279:22280   */\n      dup1\n        /* \"#utility.yul\":22272:22284   */\n      revert\n        /* \"#utility.yul\":22224:22286   */\n    tag_523:\n        /* \"#utility.yul\":22172:22292   */\n      pop\n      jump\t// out\n        /* \"#utility.yul\":22298:22439   */\n    tag_276:\n        /* \"#utility.yul\":22354:22359   */\n      0x00\n        /* \"#utility.yul\":22385:22391   */\n      dup2\n        /* \"#utility.yul\":22379:22392   */\n      mload\n        /* \"#utility.yul\":22370:22392   */\n      swap1\n      pop\n        /* \"#utility.yul\":22401:22433   */\n      tag_525\n        /* \"#utility.yul\":22427:22432   */\n      dup2\n        /* \"#utility.yul\":22401:22433   */\n      tag_275\n      jump\t// in\n    tag_525:\n        /* \"#utility.yul\":22298:22439   */\n      swap3\n      swap2\n      pop\n      pop\n      jump\t// out\n        /* \"#utility.yul\":22445:22794   */\n    tag_115:\n        /* \"#utility.yul\":22514:22520   */\n      0x00\n        /* \"#utility.yul\":22563:22565   */\n      0x20\n        /* \"#utility.yul\":22551:22560   */\n      dup3\n        /* \"#utility.yul\":22542:22549   */\n      dup5\n        /* \"#utility.yul\":22538:22561   */\n      sub\n        /* \"#utility.yul\":22534:22566   */\n      slt\n        /* \"#utility.yul\":22531:22650   */\n      iszero\n      tag_527\n      jumpi\n        /* \"#utility.yul\":22569:22648   */\n      tag_528\n      tag_215\n      jump\t// in\n    tag_528:\n        /* \"#utility.yul\":22531:22650   */\n    tag_527:\n        /* \"#utility.yul\":22689:22690   */\n      0x00\n        /* \"#utility.yul\":22714:22777   */\n      tag_529\n        /* \"#utility.yul\":22769:22776   */\n      dup5\n        /* \"#utility.yul\":22760:22766   */\n      dup3\n        /* \"#utility.yul\":22749:22758   */\n      dup6\n        /* \"#utility.yul\":22745:22767   */\n      add\n        /* \"#utility.yul\":22714:22777   */\n      tag_276\n      jump\t// in\n    tag_529:\n        /* \"#utility.yul\":22704:22777   */\n      swap2\n      pop\n        /* \"#utility.yul\":22660:22787   */\n      pop\n        /* \"#utility.yul\":22445:22794   */\n      swap3\n      swap2\n      pop\n      pop\n      jump\t// out\n        /* \"#utility.yul\":22800:22948   */\n    tag_277:\n        /* \"#utility.yul\":22902:22913   */\n      0x00\n        /* \"#utility.yul\":22939:22942   */\n      dup2\n        /* \"#utility.yul\":22924:22942   */\n      swap1\n      pop\n        /* \"#utility.yul\":22800:22948   */\n      swap3\n      swap2\n      pop\n      pop\n      jump\t// out\n        /* \"#utility.yul\":22954:23168   */\n    tag_278:\n        /* \"#utility.yul\":23094:23160   */\n      0x19457468657265756d205369676e6564204d6573736167653a0a333200000000\n        /* \"#utility.yul\":23090:23091   */\n      0x00\n        /* \"#utility.yul\":23082:23088   */\n      dup3\n        /* \"#utility.yul\":23078:23092   */\n      add\n        /* \"#utility.yul\":23071:23161   */\n      mstore\n        /* \"#utility.yul\":22954:23168   */\n      pop\n      jump\t// out\n        /* \"#utility.yul\":23174:23576   */\n    tag_279:\n        /* \"#utility.yul\":23334:23337   */\n      0x00\n        /* \"#utility.yul\":23355:23440   */\n      tag_533\n        /* \"#utility.yul\":23437:23439   */\n      0x1c\n        /* \"#utility.yul\":23432:23435   */\n      dup4\n        /* \"#utility.yul\":23355:23440   */\n      tag_277\n      jump\t// in\n    tag_533:\n        /* \"#utility.yul\":23348:23440   */\n      swap2\n      pop\n        /* \"#utility.yul\":23449:23542   */\n      tag_534\n        /* \"#utility.yul\":23538:23541   */\n      dup3\n        /* \"#utility.yul\":23449:23542   */\n      tag_278\n      jump\t// in\n    tag_534:\n        /* \"#utility.yul\":23567:23569   */\n      0x1c\n        /* \"#utility.yul\":23562:23565   */\n      dup3\n        /* \"#utility.yul\":23558:23570   */\n      add\n        /* \"#utility.yul\":23551:23570   */\n      swap1\n      pop\n        /* \"#utility.yul\":23174:23576   */\n      swap2\n      swap1\n      pop\n      jump\t// out\n        /* \"#utility.yul\":23582:24104   */\n    tag_126:\n        /* \"#utility.yul\":23795:23798   */\n      0x00\n        /* \"#utility.yul\":23817:23965   */\n      tag_536\n        /* \"#utility.yul\":23961:23964   */\n      dup3\n        /* \"#utility.yul\":23817:23965   */\n      tag_279\n      jump\t// in\n    tag_536:\n        /* \"#utility.yul\":23810:23965   */\n      swap2\n      pop\n        /* \"#utility.yul\":23975:24050   */\n      tag_537\n        /* \"#utility.yul\":24046:24049   */\n      dup3\n        /* \"#utility.yul\":24037:24043   */\n      dup5\n        /* \"#utility.yul\":23975:24050   */\n      tag_261\n      jump\t// in\n    tag_537:\n        /* \"#utility.yul\":24075:24077   */\n      0x20\n        /* \"#utility.yul\":24070:24073   */\n      dup3\n        /* \"#utility.yul\":24066:24078   */\n      add\n        /* \"#utility.yul\":24059:24078   */\n      swap2\n      pop\n        /* \"#utility.yul\":24095:24098   */\n      dup2\n        /* \"#utility.yul\":24088:24098   */\n      swap1\n      pop\n        /* \"#utility.yul\":23582:24104   */\n      swap3\n      swap2\n      pop\n      pop\n      jump\t// out\n        /* \"#utility.yul\":24110:24196   */\n    tag_280:\n        /* \"#utility.yul\":24145:24152   */\n      0x00\n        /* \"#utility.yul\":24185:24189   */\n      0xff\n        /* \"#utility.yul\":24178:24183   */\n      dup3\n        /* \"#utility.yul\":24174:24190   */\n      and\n        /* \"#utility.yul\":24163:24190   */\n      swap1\n      pop\n        /* \"#utility.yul\":24110:24196   */\n      swap2\n      swap1\n      pop\n      jump\t// out\n        /* \"#utility.yul\":24202:24393   */\n    tag_128:\n        /* \"#utility.yul\":24240:24244   */\n      0x00\n        /* \"#utility.yul\":24260:24278   */\n      tag_540\n        /* \"#utility.yul\":24276:24277   */\n      dup3\n        /* \"#utility.yul\":24260:24278   */\n      tag_280\n      jump\t// in\n    tag_540:\n        /* \"#utility.yul\":24255:24278   */\n      swap2\n      pop\n        /* \"#utility.yul\":24292:24310   */\n      tag_541\n        /* \"#utility.yul\":24308:24309   */\n      dup4\n        /* \"#utility.yul\":24292:24310   */\n      tag_280\n      jump\t// in\n    tag_541:\n        /* \"#utility.yul\":24287:24310   */\n      swap3\n      pop\n        /* \"#utility.yul\":24334:24335   */\n      dup3\n        /* \"#utility.yul\":24331:24332   */\n      dup3\n        /* \"#utility.yul\":24327:24336   */\n      sub\n        /* \"#utility.yul\":24319:24336   */\n      swap1\n      pop\n        /* \"#utility.yul\":24358:24362   */\n      0xff\n        /* \"#utility.yul\":24352:24356   */\n      dup2\n        /* \"#utility.yul\":24349:24363   */\n      gt\n        /* \"#utility.yul\":24346:24386   */\n      iszero\n      tag_542\n      jumpi\n        /* \"#utility.yul\":24366:24384   */\n      tag_543\n      tag_262\n      jump\t// in\n    tag_543:\n        /* \"#utility.yul\":24346:24386   */\n    tag_542:\n        /* \"#utility.yul\":24202:24393   */\n      swap3\n      swap2\n      pop\n      pop\n      jump\t// out\n        /* \"#utility.yul\":24399:24511   */\n    tag_281:\n        /* \"#utility.yul\":24482:24504   */\n      tag_545\n        /* \"#utility.yul\":24498:24503   */\n      dup2\n        /* \"#utility.yul\":24482:24504   */\n      tag_280\n      jump\t// in\n    tag_545:\n        /* \"#utility.yul\":24477:24480   */\n      dup3\n        /* \"#utility.yul\":24470:24505   */\n      mstore\n        /* \"#utility.yul\":24399:24511   */\n      pop\n      pop\n      jump\t// out\n        /* \"#utility.yul\":24517:25062   */\n    tag_130:\n        /* \"#utility.yul\":24690:24694   */\n      0x00\n        /* \"#utility.yul\":24728:24731   */\n      0x80\n        /* \"#utility.yul\":24717:24726   */\n      dup3\n        /* \"#utility.yul\":24713:24732   */\n      add\n        /* \"#utility.yul\":24705:24732   */\n      swap1\n      pop\n        /* \"#utility.yul\":24742:24813   */\n      tag_547\n        /* \"#utility.yul\":24810:24811   */\n      0x00\n        /* \"#utility.yul\":24799:24808   */\n      dup4\n        /* \"#utility.yul\":24795:24812   */\n      add\n        /* \"#utility.yul\":24786:24792   */\n      dup8\n        /* \"#utility.yul\":24742:24813   */\n      tag_228\n      jump\t// in\n    tag_547:\n        /* \"#utility.yul\":24823:24891   */\n      tag_548\n        /* \"#utility.yul\":24887:24889   */\n      0x20\n        /* \"#utility.yul\":24876:24885   */\n      dup4\n        /* \"#utility.yul\":24872:24890   */\n      add\n        /* \"#utility.yul\":24863:24869   */\n      dup7\n        /* \"#utility.yul\":24823:24891   */\n      tag_281\n      jump\t// in\n    tag_548:\n        /* \"#utility.yul\":24901:24973   */\n      tag_549\n        /* \"#utility.yul\":24969:24971   */\n      0x40\n        /* \"#utility.yul\":24958:24967   */\n      dup4\n        /* \"#utility.yul\":24954:24972   */\n      add\n        /* \"#utility.yul\":24945:24951   */\n      dup6\n        /* \"#utility.yul\":24901:24973   */\n      tag_228\n      jump\t// in\n    tag_549:\n        /* \"#utility.yul\":24983:25055   */\n      tag_550\n        /* \"#utility.yul\":25051:25053   */\n      0x60\n        /* \"#utility.yul\":25040:25049   */\n      dup4\n        /* \"#utility.yul\":25036:25054   */\n      add\n        /* \"#utility.yul\":25027:25033   */\n      dup5\n        /* \"#utility.yul\":24983:25055   */\n      tag_228\n      jump\t// in\n    tag_550:\n        /* \"#utility.yul\":24517:25062   */\n      swap6\n      swap5\n      pop\n      pop\n      pop\n      pop\n      pop\n      jump\t// out\n        /* \"#utility.yul\":25068:25301   */\n    tag_140:\n        /* \"#utility.yul\":25107:25110   */\n      0x00\n        /* \"#utility.yul\":25130:25154   */\n      tag_552\n        /* \"#utility.yul\":25148:25153   */\n      dup3\n        /* \"#utility.yul\":25130:25154   */\n      tag_231\n      jump\t// in\n    tag_552:\n        /* \"#utility.yul\":25121:25154   */\n      swap2\n      pop\n        /* \"#utility.yul\":25176:25242   */\n      0xffffffffffffffffffffffffffffffffffffffffffffffffffffffffffffffff\n        /* \"#utility.yul\":25169:25174   */\n      dup3\n        /* \"#utility.yul\":25166:25243   */\n      sub\n        /* \"#utility.yul\":25163:25266   */\n      tag_553\n      jumpi\n        /* \"#utility.yul\":25246:25264   */\n      tag_554\n      tag_262\n      jump\t// in\n    tag_554:\n        /* \"#utility.yul\":25163:25266   */\n    tag_553:\n        /* \"#utility.yul\":25293:25294   */\n      0x01\n        /* \"#utility.yul\":25286:25291   */\n      dup3\n        /* \"#utility.yul\":25282:25295   */\n      add\n        /* \"#utility.yul\":25275:25295   */\n      swap1\n      pop\n        /* \"#utility.yul\":25068:25301   */\n      swap2\n      swap1\n      pop\n      jump\t// out\n        /* \"#utility.yul\":25307:25697   */\n    tag_282:\n        /* \"#utility.yul\":25413:25416   */\n      0x00\n        /* \"#utility.yul\":25441:25480   */\n      tag_556\n        /* \"#utility.yul\":25474:25479   */\n      dup3\n        /* \"#utility.yul\":25441:25480   */\n      tag_239\n      jump\t// in\n    tag_556:\n        /* \"#utility.yul\":25496:25585   */\n      tag_557\n        /* \"#utility.yul\":25578:25584   */\n      dup2\n        /* \"#utility.yul\":25573:25576   */\n      dup6\n        /* \"#utility.yul\":25496:25585   */\n      tag_277\n      jump\t// in\n    tag_557:\n        /* \"#utility.yul\":25489:25585   */\n      swap4\n      pop\n        /* \"#utility.yul\":25594:25659   */\n      tag_558\n        /* \"#utility.yul\":25652:25658   */\n      dup2\n        /* \"#utility.yul\":25647:25650   */\n      dup6\n        /* \"#utility.yul\":25640:25644   */\n      0x20\n        /* \"#utility.yul\":25633:25638   */\n      dup7\n        /* \"#utility.yul\":25629:25645   */\n      add\n        /* \"#utility.yul\":25594:25659   */\n      tag_241\n      jump\t// in\n    tag_558:\n        /* \"#utility.yul\":25684:25690   */\n      dup1\n        /* \"#utility.yul\":25679:25682   */\n      dup5\n        /* \"#utility.yul\":25675:25691   */\n      add\n        /* \"#utility.yul\":25668:25691   */\n      swap2\n      pop\n        /* \"#utility.yul\":25417:25697   */\n      pop\n        /* \"#utility.yul\":25307:25697   */\n      swap3\n      swap2\n      pop\n      pop\n      jump\t// out\n        /* \"#utility.yul\":25703:26119   */\n    tag_148:\n        /* \"#utility.yul\":25863:25866   */\n      0x00\n        /* \"#utility.yul\":25878:25953   */\n      tag_560\n        /* \"#utility.yul\":25949:25952   */\n      dup3\n        /* \"#utility.yul\":25940:25946   */\n      dup6\n        /* \"#utility.yul\":25878:25953   */\n      tag_261\n      jump\t// in\n    tag_560:\n        /* \"#utility.yul\":25978:25980   */\n      0x20\n        /* \"#utility.yul\":25973:25976   */\n      dup3\n        /* \"#utility.yul\":25969:25981   */\n      add\n        /* \"#utility.yul\":25962:25981   */\n      swap2\n      pop\n        /* \"#utility.yul\":25998:26093   */\n      tag_561\n        /* \"#utility.yul\":26089:26092   */\n      dup3\n        /* \"#utility.yul\":26080:26086   */\n      dup5\n        /* \"#utility.yul\":25998:26093   */\n      tag_282\n      jump\t// in\n    tag_561:\n        /* \"#utility.yul\":25991:26093   */\n      swap2\n      pop\n        /* \"#utility.yul\":26110:26113   */\n      dup2\n        /* \"#utility.yul\":26103:26113   */\n      swap1\n      pop\n        /* \"#utility.yul\":25703:26119   */\n      swap4\n      swap3\n      pop\n      pop\n      pop\n      jump\t// out\n        /* \"#utility.yul\":26125:26434   */\n    tag_150:\n        /* \"#utility.yul\":26236:26240   */\n      0x00\n        /* \"#utility.yul\":26274:26276   */\n      0x20\n        /* \"#utility.yul\":26263:26272   */\n      dup3\n        /* \"#utility.yul\":26259:26277   */\n      add\n        /* \"#utility.yul\":26251:26277   */\n      swap1\n      pop\n        /* \"#utility.yul\":26323:26332   */\n      dup2\n        /* \"#utility.yul\":26317:26321   */\n      dup2\n        /* \"#utility.yul\":26313:26333   */\n      sub\n        /* \"#utility.yul\":26309:26310   */\n      0x00\n        /* \"#utility.yul\":26298:26307   */\n      dup4\n        /* \"#utility.yul\":26294:26311   */\n      add\n        /* \"#utility.yul\":26287:26334   */\n      mstore\n        /* \"#utility.yul\":26351:26427   */\n      tag_563\n        /* \"#utility.yul\":26422:26426   */\n      dup2\n        /* \"#utility.yul\":26413:26419   */\n      dup5\n        /* \"#utility.yul\":26351:26427   */\n      tag_273\n      jump\t// in\n    tag_563:\n        /* \"#utility.yul\":26343:26427   */\n      swap1\n      pop\n        /* \"#utility.yul\":26125:26434   */\n      swap3\n      swap2\n      pop\n      pop\n      jump\t// out\n        /* \"#utility.yul\":26440:26620   */\n    tag_283:\n        /* \"#utility.yul\":26488:26565   */\n      0x4e487b7100000000000000000000000000000000000000000000000000000000\n        /* \"#utility.yul\":26485:26486   */\n      0x00\n        /* \"#utility.yul\":26478:26566   */\n      mstore\n        /* \"#utility.yul\":26585:26589   */\n      0x22\n        /* \"#utility.yul\":26582:26583   */\n      0x04\n        /* \"#utility.yul\":26575:26590   */\n      mstore\n        /* \"#utility.yul\":26609:26613   */\n      0x24\n        /* \"#utility.yul\":26606:26607   */\n      0x00\n        /* \"#utility.yul\":26599:26614   */\n      revert\n        /* \"#utility.yul\":26626:26946   */\n    tag_158:\n        /* \"#utility.yul\":26670:26676   */\n      0x00\n        /* \"#utility.yul\":26707:26708   */\n      0x02\n        /* \"#utility.yul\":26701:26705   */\n      dup3\n        /* \"#utility.yul\":26697:26709   */\n      div\n        /* \"#utility.yul\":26687:26709   */\n      swap1\n      pop\n        /* \"#utility.yul\":26754:26755   */\n      0x01\n        /* \"#utility.yul\":26748:26752   */\n      dup3\n        /* \"#utility.yul\":26744:26756   */\n      and\n        /* \"#utility.yul\":26775:26793   */\n      dup1\n        /* \"#utility.yul\":26765:26846   */\n      tag_566\n      jumpi\n        /* \"#utility.yul\":26831:26835   */\n      0x7f\n        /* \"#utility.yul\":26823:26829   */\n      dup3\n        /* \"#utility.yul\":26819:26836   */\n      and\n        /* \"#utility.yul\":26809:26836   */\n      swap2\n      pop\n        /* \"#utility.yul\":26765:26846   */\n    tag_566:\n        /* \"#utility.yul\":26893:26895   */\n      0x20\n        /* \"#utility.yul\":26885:26891   */\n      dup3\n        /* \"#utility.yul\":26882:26896   */\n      lt\n        /* \"#utility.yul\":26862:26880   */\n      dup2\n        /* \"#utility.yul\":26859:26897   */\n      sub\n        /* \"#utility.yul\":26856:26940   */\n      tag_567\n      jumpi\n        /* \"#utility.yul\":26912:26930   */\n      tag_568\n      tag_283\n      jump\t// in\n    tag_568:\n        /* \"#utility.yul\":26856:26940   */\n    tag_567:\n        /* \"#utility.yul\":26677:26946   */\n      pop\n        /* \"#utility.yul\":26626:26946   */\n      swap2\n      swap1\n      pop\n      jump\t// out\n        /* \"#utility.yul\":26952:27099   */\n    tag_284:\n        /* \"#utility.yul\":27053:27064   */\n      0x00\n        /* \"#utility.yul\":27090:27093   */\n      dup2\n        /* \"#utility.yul\":27075:27093   */\n      swap1\n      pop\n        /* \"#utility.yul\":26952:27099   */\n      swap3\n      swap2\n      pop\n      pop\n      jump\t// out\n        /* \"#utility.yul\":27127:27454   */\n    tag_285:\n        /* \"#utility.yul\":27241:27244   */\n      0x00\n        /* \"#utility.yul\":27262:27350   */\n      tag_571\n        /* \"#utility.yul\":27343:27349   */\n      dup4\n        /* \"#utility.yul\":27338:27341   */\n      dup6\n        /* \"#utility.yul\":27262:27350   */\n      tag_284\n      jump\t// in\n    tag_571:\n        /* \"#utility.yul\":27255:27350   */\n      swap4\n      pop\n        /* \"#utility.yul\":27360:27416   */\n      tag_572\n        /* \"#utility.yul\":27409:27415   */\n      dup4\n        /* \"#utility.yul\":27404:27407   */\n      dup6\n        /* \"#utility.yul\":27397:27402   */\n      dup5\n        /* \"#utility.yul\":27360:27416   */\n      tag_224\n      jump\t// in\n    tag_572:\n        /* \"#utility.yul\":27441:27447   */\n      dup3\n        /* \"#utility.yul\":27436:27439   */\n      dup5\n        /* \"#utility.yul\":27432:27448   */\n      add\n        /* \"#utility.yul\":27425:27448   */\n      swap1\n      pop\n        /* \"#utility.yul\":27127:27454   */\n      swap4\n      swap3\n      pop\n      pop\n      pop\n      jump\t// out\n        /* \"#utility.yul\":27460:27751   */\n    tag_170:\n        /* \"#utility.yul\":27600:27603   */\n      0x00\n        /* \"#utility.yul\":27622:27725   */\n      tag_574\n        /* \"#utility.yul\":27721:27724   */\n      dup3\n        /* \"#utility.yul\":27712:27718   */\n      dup5\n        /* \"#utility.yul\":27704:27710   */\n      dup7\n        /* \"#utility.yul\":27622:27725   */\n      tag_285\n      jump\t// in\n    tag_574:\n        /* \"#utility.yul\":27615:27725   */\n      swap2\n      pop\n        /* \"#utility.yul\":27742:27745   */\n      dup2\n        /* \"#utility.yul\":27735:27745   */\n      swap1\n      pop\n        /* \"#utility.yul\":27460:27751   */\n      swap4\n      swap3\n      pop\n      pop\n      pop\n      jump\t// out\n        /* \"#utility.yul\":27757:28426   */\n    tag_173:\n        /* \"#utility.yul\":27949:27952   */\n      0x00\n        /* \"#utility.yul\":27964:28037   */\n      tag_576\n        /* \"#utility.yul\":28033:28036   */\n      dup3\n        /* \"#utility.yul\":28024:28030   */\n      dup8\n        /* \"#utility.yul\":27964:28037   */\n      tag_254\n      jump\t// in\n    tag_576:\n        /* \"#utility.yul\":28062:28063   */\n      0x01\n        /* \"#utility.yul\":28057:28060   */\n      dup3\n        /* \"#utility.yul\":28053:28064   */\n      add\n        /* \"#utility.yul\":28046:28064   */\n      swap2\n      pop\n        /* \"#utility.yul\":28074:28147   */\n      tag_577\n        /* \"#utility.yul\":28143:28146   */\n      dup3\n        /* \"#utility.yul\":28134:28140   */\n      dup7\n        /* \"#utility.yul\":28074:28147   */\n      tag_254\n      jump\t// in\n    tag_577:\n        /* \"#utility.yul\":28172:28173   */\n      0x01\n        /* \"#utility.yul\":28167:28170   */\n      dup3\n        /* \"#utility.yul\":28163:28174   */\n      add\n        /* \"#utility.yul\":28156:28174   */\n      swap2\n      pop\n        /* \"#utility.yul\":28184:28259   */\n      tag_578\n        /* \"#utility.yul\":28255:28258   */\n      dup3\n        /* \"#utility.yul\":28246:28252   */\n      dup6\n        /* \"#utility.yul\":28184:28259   */\n      tag_261\n      jump\t// in\n    tag_578:\n        /* \"#utility.yul\":28284:28286   */\n      0x20\n        /* \"#utility.yul\":28279:28282   */\n      dup3\n        /* \"#utility.yul\":28275:28287   */\n      add\n        /* \"#utility.yul\":28268:28287   */\n      swap2\n      pop\n        /* \"#utility.yul\":28297:28372   */\n      tag_579\n        /* \"#utility.yul\":28368:28371   */\n      dup3\n        /* \"#utility.yul\":28359:28365   */\n      dup5\n        /* \"#utility.yul\":28297:28372   */\n      tag_261\n      jump\t// in\n    tag_579:\n        /* \"#utility.yul\":28397:28399   */\n      0x20\n        /* \"#utility.yul\":28392:28395   */\n      dup3\n        /* \"#utility.yul\":28388:28400   */\n      add\n        /* \"#utility.yul\":28381:28400   */\n      swap2\n      pop\n        /* \"#utility.yul\":28417:28420   */\n      dup2\n        /* \"#utility.yul\":28410:28420   */\n      swap1\n      pop\n        /* \"#utility.yul\":27757:28426   */\n      swap6\n      swap5\n      pop\n      pop\n      pop\n      pop\n      pop\n      jump\t// out\n        /* \"#utility.yul\":28432:28657   */\n    tag_286:\n        /* \"#utility.yul\":28572:28606   */\n      0x4f776e61626c653a206e6577206f776e657220697320746865207a65726f2061\n        /* \"#utility.yul\":28568:28569   */\n      0x00\n        /* \"#utility.yul\":28560:28566   */\n      dup3\n        /* \"#utility.yul\":28556:28570   */\n      add\n        /* \"#utility.yul\":28549:28607   */\n      mstore\n        /* \"#utility.yul\":28641:28649   */\n      0x6464726573730000000000000000000000000000000000000000000000000000\n        /* \"#utility.yul\":28636:28638   */\n      0x20\n        /* \"#utility.yul\":28628:28634   */\n      dup3\n        /* \"#utility.yul\":28624:28639   */\n      add\n        /* \"#utility.yul\":28617:28650   */\n      mstore\n        /* \"#utility.yul\":28432:28657   */\n      pop\n      jump\t// out\n        /* \"#utility.yul\":28663:29029   */\n    tag_287:\n        /* \"#utility.yul\":28805:28808   */\n      0x00\n        /* \"#utility.yul\":28826:28893   */\n      tag_582\n        /* \"#utility.yul\":28890:28892   */\n      0x26\n        /* \"#utility.yul\":28885:28888   */\n      dup4\n        /* \"#utility.yul\":28826:28893   */\n      tag_240\n      jump\t// in\n    tag_582:\n        /* \"#utility.yul\":28819:28893   */\n      swap2\n      pop\n        /* \"#utility.yul\":28902:28995   */\n      tag_583\n        /* \"#utility.yul\":28991:28994   */\n      dup3\n        /* \"#utility.yul\":28902:28995   */\n      tag_286\n      jump\t// in\n    tag_583:\n        /* \"#utility.yul\":29020:29022   */\n      0x40\n        /* \"#utility.yul\":29015:29018   */\n      dup3\n        /* \"#utility.yul\":29011:29023   */\n      add\n        /* \"#utility.yul\":29004:29023   */\n      swap1\n      pop\n        /* \"#utility.yul\":28663:29029   */\n      swap2\n      swap1\n      pop\n      jump\t// out\n        /* \"#utility.yul\":29035:29454   */\n    tag_186:\n        /* \"#utility.yul\":29201:29205   */\n      0x00\n        /* \"#utility.yul\":29239:29241   */\n      0x20\n        /* \"#utility.yul\":29228:29237   */\n      dup3\n        /* \"#utility.yul\":29224:29242   */\n      add\n        /* \"#utility.yul\":29216:29242   */\n      swap1\n      pop\n        /* \"#utility.yul\":29288:29297   */\n      dup2\n        /* \"#utility.yul\":29282:29286   */\n      dup2\n        /* \"#utility.yul\":29278:29298   */\n      sub\n        /* \"#utility.yul\":29274:29275   */\n      0x00\n        /* \"#utility.yul\":29263:29272   */\n      dup4\n        /* \"#utility.yul\":29259:29276   */\n      add\n        /* \"#utility.yul\":29252:29299   */\n      mstore\n        /* \"#utility.yul\":29316:29447   */\n      tag_585\n        /* \"#utility.yul\":29442:29446   */\n      dup2\n        /* \"#utility.yul\":29316:29447   */\n      tag_287\n      jump\t// in\n    tag_585:\n        /* \"#utility.yul\":29308:29447   */\n      swap1\n      pop\n        /* \"#utility.yul\":29035:29454   */\n      swap2\n      swap1\n      pop\n      jump\t// out\n        /* \"#utility.yul\":29460:29642   */\n    tag_288:\n        /* \"#utility.yul\":29600:29634   */\n      0x4f776e61626c653a2063616c6c6572206973206e6f7420746865206f776e6572\n        /* \"#utility.yul\":29596:29597   */\n      0x00\n        /* \"#utility.yul\":29588:29594   */\n      dup3\n        /* \"#utility.yul\":29584:29598   */\n      add\n        /* \"#utility.yul\":29577:29635   */\n      mstore\n        /* \"#utility.yul\":29460:29642   */\n      pop\n      jump\t// out\n        /* \"#utility.yul\":29648:30014   */\n    tag_289:\n        /* \"#utility.yul\":29790:29793   */\n      0x00\n        /* \"#utility.yul\":29811:29878   */\n      tag_588\n        /* \"#utility.yul\":29875:29877   */\n      0x20\n        /* \"#utility.yul\":29870:29873   */\n      dup4\n        /* \"#utility.yul\":29811:29878   */\n      tag_240\n      jump\t// in\n    tag_588:\n        /* \"#utility.yul\":29804:29878   */\n      swap2\n      pop\n        /* \"#utility.yul\":29887:29980   */\n      tag_589\n        /* \"#utility.yul\":29976:29979   */\n      dup3\n        /* \"#utility.yul\":29887:29980   */\n      tag_288\n      jump\t// in\n    tag_589:\n        /* \"#utility.yul\":30005:30007   */\n      0x20\n        /* \"#utility.yul\":30000:30003   */\n      dup3\n        /* \"#utility.yul\":29996:30008   */\n      add\n        /* \"#utility.yul\":29989:30008   */\n      swap1\n      pop\n        /* \"#utility.yul\":29648:30014   */\n      swap2\n      swap1\n      pop\n      jump\t// out\n        /* \"#utility.yul\":30020:30439   */\n    tag_195:\n        /* \"#utility.yul\":30186:30190   */\n      0x00\n        /* \"#utility.yul\":30224:30226   */\n      0x20\n        /* \"#utility.yul\":30213:30222   */\n      dup3\n        /* \"#utility.yul\":30209:30227   */\n      add\n        /* \"#utility.yul\":30201:30227   */\n      swap1\n      pop\n        /* \"#utility.yul\":30273:30282   */\n      dup2\n        /* \"#utility.yul\":30267:30271   */\n      dup2\n        /* \"#utility.yul\":30263:30283   */\n      sub\n        /* \"#utility.yul\":30259:30260   */\n      0x00\n        /* \"#utility.yul\":30248:30257   */\n      dup4\n        /* \"#utility.yul\":30244:30261   */\n      add\n        /* \"#utility.yul\":30237:30284   */\n      mstore\n        /* \"#utility.yul\":30301:30432   */\n      tag_591\n        /* \"#utility.yul\":30427:30431   */\n      dup2\n        /* \"#utility.yul\":30301:30432   */\n      tag_289\n      jump\t// in\n    tag_591:\n        /* \"#utility.yul\":30293:30432   */\n      swap1\n      pop\n        /* \"#utility.yul\":30020:30439   */\n      swap2\n      swap1\n      pop\n      jump\t// out\n        /* \"#utility.yul\":30445:30611   */\n    tag_290:\n        /* \"#utility.yul\":30585:30603   */\n      0x696e76616c69642064617461206b657900000000000000000000000000000000\n        /* \"#utility.yul\":30581:30582   */\n      0x00\n        /* \"#utility.yul\":30573:30579   */\n      dup3\n        /* \"#utility.yul\":30569:30583   */\n      add\n        /* \"#utility.yul\":30562:30604   */\n      mstore\n        /* \"#utility.yul\":30445:30611   */\n      pop\n      jump\t// out\n        /* \"#utility.yul\":30617:30983   */\n    tag_291:\n        /* \"#utility.yul\":30759:30762   */\n      0x00\n        /* \"#utility.yul\":30780:30847   */\n      tag_594\n        /* \"#utility.yul\":30844:30846   */\n      0x10\n        /* \"#utility.yul\":30839:30842   */\n      dup4\n        /* \"#utility.yul\":30780:30847   */\n      tag_240\n      jump\t// in\n    tag_594:\n        /* \"#utility.yul\":30773:30847   */\n      swap2\n      pop\n        /* \"#utility.yul\":30856:30949   */\n      tag_595\n        /* \"#utility.yul\":30945:30948   */\n      dup3\n        /* \"#utility.yul\":30856:30949   */\n      tag_290\n      jump\t// in\n    tag_595:\n        /* \"#utility.yul\":30974:30976   */\n      0x20\n        /* \"#utility.yul\":30969:30972   */\n      dup3\n        /* \"#utility.yul\":30965:30977   */\n      add\n        /* \"#utility.yul\":30958:30977   */\n      swap1\n      pop\n        /* \"#utility.yul\":30617:30983   */\n      swap2\n      swap1\n      pop\n      jump\t// out\n        /* \"#utility.yul\":30989:31408   */\n    tag_199:\n        /* \"#utility.yul\":31155:31159   */\n      0x00\n        /* \"#utility.yul\":31193:31195   */\n      0x20\n        /* \"#utility.yul\":31182:31191   */\n      dup3\n        /* \"#utility.yul\":31178:31196   */\n      add\n        /* \"#utility.yul\":31170:31196   */\n      swap1\n      pop\n        /* \"#utility.yul\":31242:31251   */\n      dup2\n        /* \"#utility.yul\":31236:31240   */\n      dup2\n        /* \"#utility.yul\":31232:31252   */\n      sub\n        /* \"#utility.yul\":31228:31229   */\n      0x00\n        /* \"#utility.yul\":31217:31226   */\n      dup4\n        /* \"#utility.yul\":31213:31230   */\n      add\n        /* \"#utility.yul\":31206:31253   */\n      mstore\n        /* \"#utility.yul\":31270:31401   */\n      tag_597\n        /* \"#utility.yul\":31396:31400   */\n      dup2\n        /* \"#utility.yul\":31270:31401   */\n      tag_291\n      jump\t// in\n    tag_597:\n        /* \"#utility.yul\":31262:31401   */\n      swap1\n      pop\n        /* \"#utility.yul\":30989:31408   */\n      swap2\n      swap1\n      pop\n      jump\t// out\n        /* \"#utility.yul\":31414:32078   */\n    tag_213:\n        /* \"#utility.yul\":31619:31623   */\n      0x00\n        /* \"#utility.yul\":31657:31660   */\n      0xa0\n        /* \"#utility.yul\":31646:31655   */\n      dup3\n        /* \"#utility.yul\":31642:31661   */\n      add\n        /* \"#utility.yul\":31634:31661   */\n      swap1\n      pop\n        /* \"#utility.yul\":31671:31742   */\n      tag_599\n        /* \"#utility.yul\":31739:31740   */\n      0x00\n        /* \"#utility.yul\":31728:31737   */\n      dup4\n        /* \"#utility.yul\":31724:31741   */\n      add\n        /* \"#utility.yul\":31715:31721   */\n      dup9\n        /* \"#utility.yul\":31671:31742   */\n      tag_228\n      jump\t// in\n    tag_599:\n        /* \"#utility.yul\":31752:31824   */\n      tag_600\n        /* \"#utility.yul\":31820:31822   */\n      0x20\n        /* \"#utility.yul\":31809:31818   */\n      dup4\n        /* \"#utility.yul\":31805:31823   */\n      add\n        /* \"#utility.yul\":31796:31802   */\n      dup8\n        /* \"#utility.yul\":31752:31824   */\n      tag_228\n      jump\t// in\n    tag_600:\n        /* \"#utility.yul\":31834:31906   */\n      tag_601\n        /* \"#utility.yul\":31902:31904   */\n      0x40\n        /* \"#utility.yul\":31891:31900   */\n      dup4\n        /* \"#utility.yul\":31887:31905   */\n      add\n        /* \"#utility.yul\":31878:31884   */\n      dup7\n        /* \"#utility.yul\":31834:31906   */\n      tag_228\n      jump\t// in\n    tag_601:\n        /* \"#utility.yul\":31916:31988   */\n      tag_602\n        /* \"#utility.yul\":31984:31986   */\n      0x60\n        /* \"#utility.yul\":31973:31982   */\n      dup4\n        /* \"#utility.yul\":31969:31987   */\n      add\n        /* \"#utility.yul\":31960:31966   */\n      dup6\n        /* \"#utility.yul\":31916:31988   */\n      tag_243\n      jump\t// in\n    tag_602:\n        /* \"#utility.yul\":31998:32071   */\n      tag_603\n        /* \"#utility.yul\":32066:32069   */\n      0x80\n        /* \"#utility.yul\":32055:32064   */\n      dup4\n        /* \"#utility.yul\":32051:32070   */\n      add\n        /* \"#utility.yul\":32042:32048   */\n      dup5\n        /* \"#utility.yul\":31998:32071   */\n      tag_251\n      jump\t// in\n    tag_603:\n        /* \"#utility.yul\":31414:32078   */\n      swap7\n      swap6\n      pop\n      pop\n      pop\n      pop\n      pop\n      pop\n      jump\t// out\n\n    auxdata: 0xa2646970667358221220aaf34f84cdd5dd496422cccc92c4398d8635f832d5986a05a6faacdd41a2c40d64736f6c63430008110033\n}\n",
				"bytecode": {
					"linkReferences": {},
					"object": "6101406040523480156200001257600080fd5b50604051620026b2380380620026b283398181016040528101906200003891906200043a565b81816200004a6200012c60201b60201c565b6200006a6200005e6200019f60201b60201c565b620001a760201b60201c565b806002819055505060008280519060200120905060008280519060200120905060007f8b73c3c69bb8fe3d512ecc4cf759cc79239f7b179b0ffacaa9a75d522b39400f90508260e081815250508161010081815250504660a08181525050620000db8184846200026b60201b60201c565b608081815250503073ffffffffffffffffffffffffffffffffffffffff1660c08173ffffffffffffffffffffffffffffffffffffffff16815250508061012081815250505050505050505062000597565b600060c05173ffffffffffffffffffffffffffffffffffffffff163073ffffffffffffffffffffffffffffffffffffffff161480156200016d575060a05146145b156200017e5760805190506200019c565b620001996101205160e051610100516200026b60201b60201c565b90505b90565b600033905090565b60008060009054906101000a900473ffffffffffffffffffffffffffffffffffffffff169050816000806101000a81548173ffffffffffffffffffffffffffffffffffffffff021916908373ffffffffffffffffffffffffffffffffffffffff1602179055508173ffffffffffffffffffffffffffffffffffffffff168173ffffffffffffffffffffffffffffffffffffffff167f8be0079c531659141344cd1fd0a4f28419497f9722a3daafe3b4186f6b6457e060405160405180910390a35050565b60008383834630604051602001620002889594939291906200053a565b6040516020818303038152906040528051906020012090509392505050565b6000604051905090565b600080fd5b600080fd5b600080fd5b600080fd5b6000601f19601f8301169050919050565b7f4e487b7100000000000000000000000000000000000000000000000000000000600052604160045260246000fd5b6200031082620002c5565b810181811067ffffffffffffffff82111715620003325762000331620002d6565b5b80604052505050565b600062000347620002a7565b905062000355828262000305565b919050565b600067ffffffffffffffff821115620003785762000377620002d6565b5b6200038382620002c5565b9050602081019050919050565b60005b83811015620003b057808201518184015260208101905062000393565b60008484015250505050565b6000620003d3620003cd846200035a565b6200033b565b905082815260208101848484011115620003f257620003f1620002c0565b5b620003ff84828562000390565b509392505050565b600082601f8301126200041f576200041e620002bb565b5b815162000431848260208601620003bc565b91505092915050565b60008060408385031215620004545762000453620002b1565b5b600083015167ffffffffffffffff811115620004755762000474620002b6565b5b620004838582860162000407565b925050602083015167ffffffffffffffff811115620004a757620004a6620002b6565b5b620004b58582860162000407565b9150509250929050565b6000819050919050565b620004d481620004bf565b82525050565b6000819050919050565b620004ef81620004da565b82525050565b600073ffffffffffffffffffffffffffffffffffffffff82169050919050565b60006200052282620004f5565b9050919050565b620005348162000515565b82525050565b600060a082019050620005516000830188620004c9565b620005606020830187620004c9565b6200056f6040830186620004c9565b6200057e6060830185620004e4565b6200058d608083018462000529565b9695505050505050565b60805160a05160c05160e05161010051610120516120cb620005e76000396000610f7401526000610fb601526000610f9501526000610eca01526000610f2001526000610f4901526120cb6000f3fe608060405234801561001057600080fd5b50600436106100ea5760003560e01c806385a5affe1161008c578063d4d9bdcd11610066578063d4d9bdcd1461025b578063ed24911d14610277578063f2fde38b14610295578063f698da25146102b1576100ea565b806385a5affe146102055780638da5cb5b14610221578063934f3a111461023f576100ea565b806354f6127f116100c857806354f6127f1461016b5780635ae6bd371461019b578063715018a6146101cb5780637d832974146101d5576100ea565b80630a1028c4146100ef57806312fb68e01461011f5780632d3e65361461013b575b600080fd5b6101096004803603810190610104919061117c565b6102cf565b60405161011691906111de565b60405180910390f35b6101396004803603810190610134919061125b565b610380565b005b6101556004803603810190610150919061139b565b610882565b6040516101629190611412565b60405180910390f35b6101856004803603810190610180919061142d565b61092b565b60405161019291906114d9565b60405180910390f35b6101b560048036038101906101b0919061142d565b6109d9565b6040516101c2919061150a565b60405180910390f35b6101d36109f1565b005b6101ef60048036038101906101ea9190611583565b610a05565b6040516101fc919061150a565b60405180910390f35b61021f600480360381019061021a9190611623565b610a2a565b005b610229610b12565b604051610236919061167f565b60405180910390f35b6102596004803603810190610254919061169a565b610b3b565b005b6102756004803603810190610270919061142d565b610b4d565b005b61027f610be9565b60405161028c91906111de565b60405180910390f35b6102af60048036038101906102aa9190611725565b610bf8565b005b6102b9610c7b565b6040516102c691906111de565b60405180910390f35b6000807fef3da448ef037ebfba3b01faf85e69692b03cfc21278b48c6f12f50fae34c54860001b838051906020012060405160200161030f929190611752565b604051602081830303815290604052805190602001209050601960f81b600160f81b3073ffffffffffffffffffffffffffffffffffffffff1663f698da2584604051602001610362959493929190611855565b60405160208183030381529060405280519060200120915050919050565b60418161038d91906118d4565b825110156103d0576040517f08c379a00000000000000000000000000000000000000000000000000000000081526004016103c790611962565b60405180910390fd5b6000808060008060005b86811015610876576103ec8882610c81565b80945081955082965050505060008460ff160361062a578260001c945060418761041691906118d4565b8260001c101561045b576040517f08c379a0000000000000000000000000000000000000000000000000000000008152600401610452906119ce565b60405180910390fd5b875160208360001c61046d91906119ee565b11156104ae576040517f08c379a00000000000000000000000000000000000000000000000000000000081526004016104a590611a6e565b60405180910390fd5b60006020838a010151905088518160208560001c6104cc91906119ee565b6104d691906119ee565b1115610517576040517f08c379a000000000000000000000000000000000000000000000000000000000815260040161050e90611ada565b60405180910390fd5b60606020848b010190506320c13b0b60e01b7bffffffffffffffffffffffffffffffffffffffffffffffffffffffff19168773ffffffffffffffffffffffffffffffffffffffff166320c13b0b8d846040518363ffffffff1660e01b8152600401610583929190611b4f565b602060405180830381865afa1580156105a0573d6000803e3d6000fd5b505050506040513d601f19601f820116820180604052508101906105c49190611bde565b7bffffffffffffffffffffffffffffffffffffffffffffffffffffffff191614610623576040517f08c379a000000000000000000000000000000000000000000000000000000000815260040161061a90611ada565b60405180910390fd5b50506107f2565b60018460ff160361070a578260001c94508473ffffffffffffffffffffffffffffffffffffffff163373ffffffffffffffffffffffffffffffffffffffff1614806106c657506000600160008773ffffffffffffffffffffffffffffffffffffffff1673ffffffffffffffffffffffffffffffffffffffff16815260200190815260200160002060008c81526020019081526020016000205414155b610705576040517f08c379a00000000000000000000000000000000000000000000000000000000081526004016106fc90611ada565b60405180910390fd5b6107f1565b601e8460ff16111561079e5760018a6040516020016107299190611c62565b6040516020818303038152906040528051906020012060048661074c9190611c95565b85856040516000815260200160405260405161076b9493929190611cd9565b6020604051602081039080840390855afa15801561078d573d6000803e3d6000fd5b5050506020604051035194506107f0565b60018a858585604051600081526020016040526040516107c19493929190611cd9565b6020604051602081039080840390855afa1580156107e3573d6000803e3d6000fd5b5050506020604051035194505b5b5b8573ffffffffffffffffffffffffffffffffffffffff168573ffffffffffffffffffffffffffffffffffffffff1611610860576040517f08c379a000000000000000000000000000000000000000000000000000000000815260040161085790611ada565b60405180910390fd5b849550808061086e90611d1e565b9150506103da565b50505050505050505050565b600061088c610cb0565b61089583610d2e565b3073ffffffffffffffffffffffffffffffffffffffff166385a5affe84846040516020016108c4929190611d97565b6040516020818303038152906040526040518263ffffffff1660e01b81526004016108ef9190611dbf565b600060405180830381600087803b15801561090957600080fd5b505af115801561091d573d6000803e3d6000fd5b505050506001905092915050565b606061093682610d98565b60056000838152602001908152602001600020805461095490611e10565b80601f016020809104026020016040519081016040528092919081815260200182805461098090611e10565b80156109cd5780601f106109a2576101008083540402835291602001916109cd565b820191906000526020600020905b8154815290600101906020018083116109b057829003601f168201915b50505050509050919050565b60036020528060005260406000206000915090505481565b6109f9610cb0565b610a036000610e02565b565b6001602052816000526040600020602052806000526040600020600091509150505481565b6000601960f81b600160f81b6002547fef3da448ef037ebfba3b01faf85e69692b03cfc21278b48c6f12f50fae34c54860001b8686604051610a6d929190611e71565b6040518091039020604051602001610a86929190611752565b60405160208183030381529060405280519060200120604051602001610aaf9493929190611e8a565b60405160208183030381529060405280519060200120905060016003600083815260200190815260200160002081905550807fe7f4675038f4f6034dfcbbb24c4dc08e4ebf10eb9d257d3d02c0f38d122ac6e460405160405180910390a2505050565b60008060009054906101000a900473ffffffffffffffffffffffffffffffffffffffff16905090565b610b488383836001610380565b505050565b60018060003373ffffffffffffffffffffffffffffffffffffffff1673ffffffffffffffffffffffffffffffffffffffff1681526020019081526020016000206000838152602001908152602001600020819055503373ffffffffffffffffffffffffffffffffffffffff16817ff2a0eb156472d1440255b0d7c1e19cc07115d1051fe605b0dce69acfec884d9c60405160405180910390a350565b6000610bf3610ec6565b905090565b610c00610cb0565b600073ffffffffffffffffffffffffffffffffffffffff168173ffffffffffffffffffffffffffffffffffffffff1603610c6f576040517f08c379a0000000000000000000000000000000000000000000000000000000008152600401610c6690611f4a565b60405180910390fd5b610c7881610e02565b50565b60025481565b60008060008360410260208101860151925060408101860151915060ff60418201870151169350509250925092565b610cb8610fe0565b73ffffffffffffffffffffffffffffffffffffffff16610cd6610b12565b73ffffffffffffffffffffffffffffffffffffffff1614610d2c576040517f08c379a0000000000000000000000000000000000000000000000000000000008152600401610d2390611fb6565b60405180910390fd5b565b600115156007600083815260200190815260200160002060009054906101000a900460ff16151503610d95576040517f08c379a0000000000000000000000000000000000000000000000000000000008152600401610d8c90612022565b60405180910390fd5b50565b600115156007600083815260200190815260200160002060009054906101000a900460ff16151514610dff576040517f08c379a0000000000000000000000000000000000000000000000000000000008152600401610df690612022565b60405180910390fd5b50565b60008060009054906101000a900473ffffffffffffffffffffffffffffffffffffffff169050816000806101000a81548173ffffffffffffffffffffffffffffffffffffffff021916908373ffffffffffffffffffffffffffffffffffffffff1602179055508173ffffffffffffffffffffffffffffffffffffffff168173ffffffffffffffffffffffffffffffffffffffff167f8be0079c531659141344cd1fd0a4f28419497f9722a3daafe3b4186f6b6457e060405160405180910390a35050565b60007f000000000000000000000000000000000000000000000000000000000000000073ffffffffffffffffffffffffffffffffffffffff163073ffffffffffffffffffffffffffffffffffffffff16148015610f4257507f000000000000000000000000000000000000000000000000000000000000000046145b15610f6f577f00000000000000000000000000000000000000000000000000000000000000009050610fdd565b610fda7f00000000000000000000000000000000000000000000000000000000000000007f00000000000000000000000000000000000000000000000000000000000000007f0000000000000000000000000000000000000000000000000000000000000000610fe8565b90505b90565b600033905090565b60008383834630604051602001611003959493929190612042565b6040516020818303038152906040528051906020012090509392505050565b6000604051905090565b600080fd5b600080fd5b600080fd5b600080fd5b6000601f19601f8301169050919050565b7f4e487b7100000000000000000000000000000000000000000000000000000000600052604160045260246000fd5b61108982611040565b810181811067ffffffffffffffff821117156110a8576110a7611051565b5b80604052505050565b60006110bb611022565b90506110c78282611080565b919050565b600067ffffffffffffffff8211156110e7576110e6611051565b5b6110f082611040565b9050602081019050919050565b82818337600083830152505050565b600061111f61111a846110cc565b6110b1565b90508281526020810184848401111561113b5761113a61103b565b5b6111468482856110fd565b509392505050565b600082601f83011261116357611162611036565b5b813561117384826020860161110c565b91505092915050565b6000602082840312156111925761119161102c565b5b600082013567ffffffffffffffff8111156111b0576111af611031565b5b6111bc8482850161114e565b91505092915050565b6000819050919050565b6111d8816111c5565b82525050565b60006020820190506111f360008301846111cf565b92915050565b611202816111c5565b811461120d57600080fd5b50565b60008135905061121f816111f9565b92915050565b6000819050919050565b61123881611225565b811461124357600080fd5b50565b6000813590506112558161122f565b92915050565b600080600080608085870312156112755761127461102c565b5b600061128387828801611210565b945050602085013567ffffffffffffffff8111156112a4576112a3611031565b5b6112b08782880161114e565b935050604085013567ffffffffffffffff8111156112d1576112d0611031565b5b6112dd8782880161114e565b92505060606112ee87828801611246565b91505092959194509250565b600067ffffffffffffffff82111561131557611314611051565b5b61131e82611040565b9050602081019050919050565b600061133e611339846112fa565b6110b1565b90508281526020810184848401111561135a5761135961103b565b5b6113658482856110fd565b509392505050565b600082601f83011261138257611381611036565b5b813561139284826020860161132b565b91505092915050565b600080604083850312156113b2576113b161102c565b5b60006113c085828601611210565b925050602083013567ffffffffffffffff8111156113e1576113e0611031565b5b6113ed8582860161136d565b9150509250929050565b60008115159050919050565b61140c816113f7565b82525050565b60006020820190506114276000830184611403565b92915050565b6000602082840312156114435761144261102c565b5b600061145184828501611210565b91505092915050565b600081519050919050565b600082825260208201905092915050565b60005b83811015611494578082015181840152602081019050611479565b60008484015250505050565b60006114ab8261145a565b6114b58185611465565b93506114c5818560208601611476565b6114ce81611040565b840191505092915050565b600060208201905081810360008301526114f381846114a0565b905092915050565b61150481611225565b82525050565b600060208201905061151f60008301846114fb565b92915050565b600073ffffffffffffffffffffffffffffffffffffffff82169050919050565b600061155082611525565b9050919050565b61156081611545565b811461156b57600080fd5b50565b60008135905061157d81611557565b92915050565b6000806040838503121561159a5761159961102c565b5b60006115a88582860161156e565b92505060206115b985828601611210565b9150509250929050565b600080fd5b600080fd5b60008083601f8401126115e3576115e2611036565b5b8235905067ffffffffffffffff811115611600576115ff6115c3565b5b60208301915083600182028301111561161c5761161b6115c8565b5b9250929050565b6000806020838503121561163a5761163961102c565b5b600083013567ffffffffffffffff81111561165857611657611031565b5b611664858286016115cd565b92509250509250929050565b61167981611545565b82525050565b60006020820190506116946000830184611670565b92915050565b6000806000606084860312156116b3576116b261102c565b5b60006116c186828701611210565b935050602084013567ffffffffffffffff8111156116e2576116e1611031565b5b6116ee8682870161114e565b925050604084013567ffffffffffffffff81111561170f5761170e611031565b5b61171b8682870161114e565b9150509250925092565b60006020828403121561173b5761173a61102c565b5b60006117498482850161156e565b91505092915050565b600060408201905061176760008301856111cf565b61177460208301846111cf565b9392505050565b60007fff0000000000000000000000000000000000000000000000000000000000000082169050919050565b6000819050919050565b6117c26117bd8261177b565b6117a7565b82525050565b60008160201b9050919050565b60008160401b9050919050565b60006117fd63ffffffff84166117f7846117c8565b176117d5565b905092915050565b6000808291508390509250929050565b61181f8282611805565b9250905061182d82826117e2565b8352505050565b6000819050919050565b61184f61184a826111c5565b611834565b82525050565b600061186182886117b1565b60018201915061187182876117b1565b600182019150611882828587611815565b601882019150611892828461183e565b6020820191508190509695505050505050565b7f4e487b7100000000000000000000000000000000000000000000000000000000600052601160045260246000fd5b60006118df82611225565b91506118ea83611225565b92508282026118f881611225565b9150828204841483151761190f5761190e6118a5565b5b5092915050565b7f4753303230000000000000000000000000000000000000000000000000000000600082015250565b600061194c600583611465565b915061195782611916565b602082019050919050565b6000602082019050818103600083015261197b8161193f565b9050919050565b7f4753303231000000000000000000000000000000000000000000000000000000600082015250565b60006119b8600583611465565b91506119c382611982565b602082019050919050565b600060208201905081810360008301526119e7816119ab565b9050919050565b60006119f982611225565b9150611a0483611225565b9250828201905080821115611a1c57611a1b6118a5565b5b92915050565b7f4753303232000000000000000000000000000000000000000000000000000000600082015250565b6000611a58600583611465565b9150611a6382611a22565b602082019050919050565b60006020820190508181036000830152611a8781611a4b565b9050919050565b7f6163636573732064656e69656400000000000000000000000000000000000000600082015250565b6000611ac4600d83611465565b9150611acf82611a8e565b602082019050919050565b60006020820190508181036000830152611af381611ab7565b9050919050565b600081519050919050565b600082825260208201905092915050565b6000611b2182611afa565b611b2b8185611b05565b9350611b3b818560208601611476565b611b4481611040565b840191505092915050565b60006040820190508181036000830152611b698185611b16565b90508181036020830152611b7d8184611b16565b90509392505050565b60007fffffffff0000000000000000000000000000000000000000000000000000000082169050919050565b611bbb81611b86565b8114611bc657600080fd5b50565b600081519050611bd881611bb2565b92915050565b600060208284031215611bf457611bf361102c565b5b6000611c0284828501611bc9565b91505092915050565b600081905092915050565b7f19457468657265756d205369676e6564204d6573736167653a0a333200000000600082015250565b6000611c4c601c83611c0b565b9150611c5782611c16565b601c82019050919050565b6000611c6d82611c3f565b9150611c79828461183e565b60208201915081905092915050565b600060ff82169050919050565b6000611ca082611c88565b9150611cab83611c88565b9250828203905060ff811115611cc457611cc36118a5565b5b92915050565b611cd381611c88565b82525050565b6000608082019050611cee60008301876111cf565b611cfb6020830186611cca565b611d0860408301856111cf565b611d1560608301846111cf565b95945050505050565b6000611d2982611225565b91507fffffffffffffffffffffffffffffffffffffffffffffffffffffffffffffffff8203611d5b57611d5a6118a5565b5b600182019050919050565b6000611d718261145a565b611d7b8185611c0b565b9350611d8b818560208601611476565b80840191505092915050565b6000611da3828561183e565b602082019150611db38284611d66565b91508190509392505050565b60006020820190508181036000830152611dd98184611b16565b905092915050565b7f4e487b7100000000000000000000000000000000000000000000000000000000600052602260045260246000fd5b60006002820490506001821680611e2857607f821691505b602082108103611e3b57611e3a611de1565b5b50919050565b600081905092915050565b6000611e588385611e41565b9350611e658385846110fd565b82840190509392505050565b6000611e7e828486611e4c565b91508190509392505050565b6000611e9682876117b1565b600182019150611ea682866117b1565b600182019150611eb6828561183e565b602082019150611ec6828461183e565b60208201915081905095945050505050565b7f4f776e61626c653a206e6577206f776e657220697320746865207a65726f206160008201527f6464726573730000000000000000000000000000000000000000000000000000602082015250565b6000611f34602683611465565b9150611f3f82611ed8565b604082019050919050565b60006020820190508181036000830152611f6381611f27565b9050919050565b7f4f776e61626c653a2063616c6c6572206973206e6f7420746865206f776e6572600082015250565b6000611fa0602083611465565b9150611fab82611f6a565b602082019050919050565b60006020820190508181036000830152611fcf81611f93565b9050919050565b7f696e76616c69642064617461206b657900000000000000000000000000000000600082015250565b600061200c601083611465565b915061201782611fd6565b602082019050919050565b6000602082019050818103600083015261203b81611fff565b9050919050565b600060a08201905061205760008301886111cf565b61206460208301876111cf565b61207160408301866111cf565b61207e60608301856114fb565b61208b6080830184611670565b969550505050505056fea2646970667358221220aaf34f84cdd5dd496422cccc92c4398d8635f832d5986a05a6faacdd41a2c40d64736f6c63430008110033",
					"opcodes": "PUSH2 0x140 PUSH1 0x40 MSTORE CALLVALUE DUP1 ISZERO PUSH3 0x12 JUMPI PUSH1 0x0 DUP1 REVERT JUMPDEST POP PUSH1 0x40 MLOAD PUSH3 0x26B2 CODESIZE SUB DUP1 PUSH3 0x26B2 DUP4 CODECOPY DUP2 DUP2 ADD PUSH1 0x40 MSTORE DUP2 ADD SWAP1 PUSH3 0x38 SWAP2 SWAP1 PUSH3 0x43A JUMP JUMPDEST DUP2 DUP2 PUSH3 0x4A PUSH3 0x12C PUSH1 0x20 SHL PUSH1 0x20 SHR JUMP JUMPDEST PUSH3 0x6A PUSH3 0x5E PUSH3 0x19F PUSH1 0x20 SHL PUSH1 0x20 SHR JUMP JUMPDEST PUSH3 0x1A7 PUSH1 0x20 SHL PUSH1 0x20 SHR JUMP JUMPDEST DUP1 PUSH1 0x2 DUP2 SWAP1 SSTORE POP POP PUSH1 0x0 DUP3 DUP1 MLOAD SWAP1 PUSH1 0x20 ADD KECCAK256 SWAP1 POP PUSH1 0x0 DUP3 DUP1 MLOAD SWAP1 PUSH1 0x20 ADD KECCAK256 SWAP1 POP PUSH1 0x0 PUSH32 0x8B73C3C69BB8FE3D512ECC4CF759CC79239F7B179B0FFACAA9A75D522B39400F SWAP1 POP DUP3 PUSH1 0xE0 DUP2 DUP2 MSTORE POP POP DUP2 PUSH2 0x100 DUP2 DUP2 MSTORE POP POP CHAINID PUSH1 0xA0 DUP2 DUP2 MSTORE POP POP PUSH3 0xDB DUP2 DUP5 DUP5 PUSH3 0x26B PUSH1 0x20 SHL PUSH1 0x20 SHR JUMP JUMPDEST PUSH1 0x80 DUP2 DUP2 MSTORE POP POP ADDRESS PUSH20 0xFFFFFFFFFFFFFFFFFFFFFFFFFFFFFFFFFFFFFFFF AND PUSH1 0xC0 DUP2 PUSH20 0xFFFFFFFFFFFFFFFFFFFFFFFFFFFFFFFFFFFFFFFF AND DUP2 MSTORE POP POP DUP1 PUSH2 0x120 DUP2 DUP2 MSTORE POP POP POP POP POP POP POP POP POP PUSH3 0x597 JUMP JUMPDEST PUSH1 0x0 PUSH1 0xC0 MLOAD PUSH20 0xFFFFFFFFFFFFFFFFFFFFFFFFFFFFFFFFFFFFFFFF AND ADDRESS PUSH20 0xFFFFFFFFFFFFFFFFFFFFFFFFFFFFFFFFFFFFFFFF AND EQ DUP1 ISZERO PUSH3 0x16D JUMPI POP PUSH1 0xA0 MLOAD CHAINID EQ JUMPDEST ISZERO PUSH3 0x17E JUMPI PUSH1 0x80 MLOAD SWAP1 POP PUSH3 0x19C JUMP JUMPDEST PUSH3 0x199 PUSH2 0x120 MLOAD PUSH1 0xE0 MLOAD PUSH2 0x100 MLOAD PUSH3 0x26B PUSH1 0x20 SHL PUSH1 0x20 SHR JUMP JUMPDEST SWAP1 POP JUMPDEST SWAP1 JUMP JUMPDEST PUSH1 0x0 CALLER SWAP1 POP SWAP1 JUMP JUMPDEST PUSH1 0x0 DUP1 PUSH1 0x0 SWAP1 SLOAD SWAP1 PUSH2 0x100 EXP SWAP1 DIV PUSH20 0xFFFFFFFFFFFFFFFFFFFFFFFFFFFFFFFFFFFFFFFF AND SWAP1 POP DUP2 PUSH1 0x0 DUP1 PUSH2 0x100 EXP DUP2 SLOAD DUP2 PUSH20 0xFFFFFFFFFFFFFFFFFFFFFFFFFFFFFFFFFFFFFFFF MUL NOT AND SWAP1 DUP4 PUSH20 0xFFFFFFFFFFFFFFFFFFFFFFFFFFFFFFFFFFFFFFFF AND MUL OR SWAP1 SSTORE POP DUP2 PUSH20 0xFFFFFFFFFFFFFFFFFFFFFFFFFFFFFFFFFFFFFFFF AND DUP2 PUSH20 0xFFFFFFFFFFFFFFFFFFFFFFFFFFFFFFFFFFFFFFFF AND PUSH32 0x8BE0079C531659141344CD1FD0A4F28419497F9722A3DAAFE3B4186F6B6457E0 PUSH1 0x40 MLOAD PUSH1 0x40 MLOAD DUP1 SWAP2 SUB SWAP1 LOG3 POP POP JUMP JUMPDEST PUSH1 0x0 DUP4 DUP4 DUP4 CHAINID ADDRESS PUSH1 0x40 MLOAD PUSH1 0x20 ADD PUSH3 0x288 SWAP6 SWAP5 SWAP4 SWAP3 SWAP2 SWAP1 PUSH3 0x53A JUMP JUMPDEST PUSH1 0x40 MLOAD PUSH1 0x20 DUP2 DUP4 SUB SUB DUP2 MSTORE SWAP1 PUSH1 0x40 MSTORE DUP1 MLOAD SWAP1 PUSH1 0x20 ADD KECCAK256 SWAP1 POP SWAP4 SWAP3 POP POP POP JUMP JUMPDEST PUSH1 0x0 PUSH1 0x40 MLOAD SWAP1 POP SWAP1 JUMP JUMPDEST PUSH1 0x0 DUP1 REVERT JUMPDEST PUSH1 0x0 DUP1 REVERT JUMPDEST PUSH1 0x0 DUP1 REVERT JUMPDEST PUSH1 0x0 DUP1 REVERT JUMPDEST PUSH1 0x0 PUSH1 0x1F NOT PUSH1 0x1F DUP4 ADD AND SWAP1 POP SWAP2 SWAP1 POP JUMP JUMPDEST PUSH32 0x4E487B7100000000000000000000000000000000000000000000000000000000 PUSH1 0x0 MSTORE PUSH1 0x41 PUSH1 0x4 MSTORE PUSH1 0x24 PUSH1 0x0 REVERT JUMPDEST PUSH3 0x310 DUP3 PUSH3 0x2C5 JUMP JUMPDEST DUP2 ADD DUP2 DUP2 LT PUSH8 0xFFFFFFFFFFFFFFFF DUP3 GT OR ISZERO PUSH3 0x332 JUMPI PUSH3 0x331 PUSH3 0x2D6 JUMP JUMPDEST JUMPDEST DUP1 PUSH1 0x40 MSTORE POP POP POP JUMP JUMPDEST PUSH1 0x0 PUSH3 0x347 PUSH3 0x2A7 JUMP JUMPDEST SWAP1 POP PUSH3 0x355 DUP3 DUP3 PUSH3 0x305 JUMP JUMPDEST SWAP2 SWAP1 POP JUMP JUMPDEST PUSH1 0x0 PUSH8 0xFFFFFFFFFFFFFFFF DUP3 GT ISZERO PUSH3 0x378 JUMPI PUSH3 0x377 PUSH3 0x2D6 JUMP JUMPDEST JUMPDEST PUSH3 0x383 DUP3 PUSH3 0x2C5 JUMP JUMPDEST SWAP1 POP PUSH1 0x20 DUP2 ADD SWAP1 POP SWAP2 SWAP1 POP JUMP JUMPDEST PUSH1 0x0 JUMPDEST DUP4 DUP2 LT ISZERO PUSH3 0x3B0 JUMPI DUP1 DUP3 ADD MLOAD DUP2 DUP5 ADD MSTORE PUSH1 0x20 DUP2 ADD SWAP1 POP PUSH3 0x393 JUMP JUMPDEST PUSH1 0x0 DUP5 DUP5 ADD MSTORE POP POP POP POP JUMP JUMPDEST PUSH1 0x0 PUSH3 0x3D3 PUSH3 0x3CD DUP5 PUSH3 0x35A JUMP JUMPDEST PUSH3 0x33B JUMP JUMPDEST SWAP1 POP DUP3 DUP2 MSTORE PUSH1 0x20 DUP2 ADD DUP5 DUP5 DUP5 ADD GT ISZERO PUSH3 0x3F2 JUMPI PUSH3 0x3F1 PUSH3 0x2C0 JUMP JUMPDEST JUMPDEST PUSH3 0x3FF DUP5 DUP3 DUP6 PUSH3 0x390 JUMP JUMPDEST POP SWAP4 SWAP3 POP POP POP JUMP JUMPDEST PUSH1 0x0 DUP3 PUSH1 0x1F DUP4 ADD SLT PUSH3 0x41F JUMPI PUSH3 0x41E PUSH3 0x2BB JUMP JUMPDEST JUMPDEST DUP2 MLOAD PUSH3 0x431 DUP5 DUP3 PUSH1 0x20 DUP7 ADD PUSH3 0x3BC JUMP JUMPDEST SWAP2 POP POP SWAP3 SWAP2 POP POP JUMP JUMPDEST PUSH1 0x0 DUP1 PUSH1 0x40 DUP4 DUP6 SUB SLT ISZERO PUSH3 0x454 JUMPI PUSH3 0x453 PUSH3 0x2B1 JUMP JUMPDEST JUMPDEST PUSH1 0x0 DUP4 ADD MLOAD PUSH8 0xFFFFFFFFFFFFFFFF DUP2 GT ISZERO PUSH3 0x475 JUMPI PUSH3 0x474 PUSH3 0x2B6 JUMP JUMPDEST JUMPDEST PUSH3 0x483 DUP6 DUP3 DUP7 ADD PUSH3 0x407 JUMP JUMPDEST SWAP3 POP POP PUSH1 0x20 DUP4 ADD MLOAD PUSH8 0xFFFFFFFFFFFFFFFF DUP2 GT ISZERO PUSH3 0x4A7 JUMPI PUSH3 0x4A6 PUSH3 0x2B6 JUMP JUMPDEST JUMPDEST PUSH3 0x4B5 DUP6 DUP3 DUP7 ADD PUSH3 0x407 JUMP JUMPDEST SWAP2 POP POP SWAP3 POP SWAP3 SWAP1 POP JUMP JUMPDEST PUSH1 0x0 DUP2 SWAP1 POP SWAP2 SWAP1 POP JUMP JUMPDEST PUSH3 0x4D4 DUP2 PUSH3 0x4BF JUMP JUMPDEST DUP3 MSTORE POP POP JUMP JUMPDEST PUSH1 0x0 DUP2 SWAP1 POP SWAP2 SWAP1 POP JUMP JUMPDEST PUSH3 0x4EF DUP2 PUSH3 0x4DA JUMP JUMPDEST DUP3 MSTORE POP POP JUMP JUMPDEST PUSH1 0x0 PUSH20 0xFFFFFFFFFFFFFFFFFFFFFFFFFFFFFFFFFFFFFFFF DUP3 AND SWAP1 POP SWAP2 SWAP1 POP JUMP JUMPDEST PUSH1 0x0 PUSH3 0x522 DUP3 PUSH3 0x4F5 JUMP JUMPDEST SWAP1 POP SWAP2 SWAP1 POP JUMP JUMPDEST PUSH3 0x534 DUP2 PUSH3 0x515 JUMP JUMPDEST DUP3 MSTORE POP POP JUMP JUMPDEST PUSH1 0x0 PUSH1 0xA0 DUP3 ADD SWAP1 POP PUSH3 0x551 PUSH1 0x0 DUP4 ADD DUP9 PUSH3 0x4C9 JUMP JUMPDEST PUSH3 0x560 PUSH1 0x20 DUP4 ADD DUP8 PUSH3 0x4C9 JUMP JUMPDEST PUSH3 0x56F PUSH1 0x40 DUP4 ADD DUP7 PUSH3 0x4C9 JUMP JUMPDEST PUSH3 0x57E PUSH1 0x60 DUP4 ADD DUP6 PUSH3 0x4E4 JUMP JUMPDEST PUSH3 0x58D PUSH1 0x80 DUP4 ADD DUP5 PUSH3 0x529 JUMP JUMPDEST SWAP7 SWAP6 POP POP POP POP POP POP JUMP JUMPDEST PUSH1 0x80 MLOAD PUSH1 0xA0 MLOAD PUSH1 0xC0 MLOAD PUSH1 0xE0 MLOAD PUSH2 0x100 MLOAD PUSH2 0x120 MLOAD PUSH2 0x20CB PUSH3 0x5E7 PUSH1 0x0 CODECOPY PUSH1 0x0 PUSH2 0xF74 ADD MSTORE PUSH1 0x0 PUSH2 0xFB6 ADD MSTORE PUSH1 0x0 PUSH2 0xF95 ADD MSTORE PUSH1 0x0 PUSH2 0xECA ADD MSTORE PUSH1 0x0 PUSH2 0xF20 ADD MSTORE PUSH1 0x0 PUSH2 0xF49 ADD MSTORE PUSH2 0x20CB PUSH1 0x0 RETURN INVALID PUSH1 0x80 PUSH1 0x40 MSTORE CALLVALUE DUP1 ISZERO PUSH2 0x10 JUMPI PUSH1 0x0 DUP1 REVERT JUMPDEST POP PUSH1 0x4 CALLDATASIZE LT PUSH2 0xEA JUMPI PUSH1 0x0 CALLDATALOAD PUSH1 0xE0 SHR DUP1 PUSH4 0x85A5AFFE GT PUSH2 0x8C JUMPI DUP1 PUSH4 0xD4D9BDCD GT PUSH2 0x66 JUMPI DUP1 PUSH4 0xD4D9BDCD EQ PUSH2 0x25B JUMPI DUP1 PUSH4 0xED24911D EQ PUSH2 0x277 JUMPI DUP1 PUSH4 0xF2FDE38B EQ PUSH2 0x295 JUMPI DUP1 PUSH4 0xF698DA25 EQ PUSH2 0x2B1 JUMPI PUSH2 0xEA JUMP JUMPDEST DUP1 PUSH4 0x85A5AFFE EQ PUSH2 0x205 JUMPI DUP1 PUSH4 0x8DA5CB5B EQ PUSH2 0x221 JUMPI DUP1 PUSH4 0x934F3A11 EQ PUSH2 0x23F JUMPI PUSH2 0xEA JUMP JUMPDEST DUP1 PUSH4 0x54F6127F GT PUSH2 0xC8 JUMPI DUP1 PUSH4 0x54F6127F EQ PUSH2 0x16B JUMPI DUP1 PUSH4 0x5AE6BD37 EQ PUSH2 0x19B JUMPI DUP1 PUSH4 0x715018A6 EQ PUSH2 0x1CB JUMPI DUP1 PUSH4 0x7D832974 EQ PUSH2 0x1D5 JUMPI PUSH2 0xEA JUMP JUMPDEST DUP1 PUSH4 0xA1028C4 EQ PUSH2 0xEF JUMPI DUP1 PUSH4 0x12FB68E0 EQ PUSH2 0x11F JUMPI DUP1 PUSH4 0x2D3E6536 EQ PUSH2 0x13B JUMPI JUMPDEST PUSH1 0x0 DUP1 REVERT JUMPDEST PUSH2 0x109 PUSH1 0x4 DUP1 CALLDATASIZE SUB DUP2 ADD SWAP1 PUSH2 0x104 SWAP2 SWAP1 PUSH2 0x117C JUMP JUMPDEST PUSH2 0x2CF JUMP JUMPDEST PUSH1 0x40 MLOAD PUSH2 0x116 SWAP2 SWAP1 PUSH2 0x11DE JUMP JUMPDEST PUSH1 0x40 MLOAD DUP1 SWAP2 SUB SWAP1 RETURN JUMPDEST PUSH2 0x139 PUSH1 0x4 DUP1 CALLDATASIZE SUB DUP2 ADD SWAP1 PUSH2 0x134 SWAP2 SWAP1 PUSH2 0x125B JUMP JUMPDEST PUSH2 0x380 JUMP JUMPDEST STOP JUMPDEST PUSH2 0x155 PUSH1 0x4 DUP1 CALLDATASIZE SUB DUP2 ADD SWAP1 PUSH2 0x150 SWAP2 SWAP1 PUSH2 0x139B JUMP JUMPDEST PUSH2 0x882 JUMP JUMPDEST PUSH1 0x40 MLOAD PUSH2 0x162 SWAP2 SWAP1 PUSH2 0x1412 JUMP JUMPDEST PUSH1 0x40 MLOAD DUP1 SWAP2 SUB SWAP1 RETURN JUMPDEST PUSH2 0x185 PUSH1 0x4 DUP1 CALLDATASIZE SUB DUP2 ADD SWAP1 PUSH2 0x180 SWAP2 SWAP1 PUSH2 0x142D JUMP JUMPDEST PUSH2 0x92B JUMP JUMPDEST PUSH1 0x40 MLOAD PUSH2 0x192 SWAP2 SWAP1 PUSH2 0x14D9 JUMP JUMPDEST PUSH1 0x40 MLOAD DUP1 SWAP2 SUB SWAP1 RETURN JUMPDEST PUSH2 0x1B5 PUSH1 0x4 DUP1 CALLDATASIZE SUB DUP2 ADD SWAP1 PUSH2 0x1B0 SWAP2 SWAP1 PUSH2 0x142D JUMP JUMPDEST PUSH2 0x9D9 JUMP JUMPDEST PUSH1 0x40 MLOAD PUSH2 0x1C2 SWAP2 SWAP1 PUSH2 0x150A JUMP JUMPDEST PUSH1 0x40 MLOAD DUP1 SWAP2 SUB SWAP1 RETURN JUMPDEST PUSH2 0x1D3 PUSH2 0x9F1 JUMP JUMPDEST STOP JUMPDEST PUSH2 0x1EF PUSH1 0x4 DUP1 CALLDATASIZE SUB DUP2 ADD SWAP1 PUSH2 0x1EA SWAP2 SWAP1 PUSH2 0x1583 JUMP JUMPDEST PUSH2 0xA05 JUMP JUMPDEST PUSH1 0x40 MLOAD PUSH2 0x1FC SWAP2 SWAP1 PUSH2 0x150A JUMP JUMPDEST PUSH1 0x40 MLOAD DUP1 SWAP2 SUB SWAP1 RETURN JUMPDEST PUSH2 0x21F PUSH1 0x4 DUP1 CALLDATASIZE SUB DUP2 ADD SWAP1 PUSH2 0x21A SWAP2 SWAP1 PUSH2 0x1623 JUMP JUMPDEST PUSH2 0xA2A JUMP JUMPDEST STOP JUMPDEST PUSH2 0x229 PUSH2 0xB12 JUMP JUMPDEST PUSH1 0x40 MLOAD PUSH2 0x236 SWAP2 SWAP1 PUSH2 0x167F JUMP JUMPDEST PUSH1 0x40 MLOAD DUP1 SWAP2 SUB SWAP1 RETURN JUMPDEST PUSH2 0x259 PUSH1 0x4 DUP1 CALLDATASIZE SUB DUP2 ADD SWAP1 PUSH2 0x254 SWAP2 SWAP1 PUSH2 0x169A JUMP JUMPDEST PUSH2 0xB3B JUMP JUMPDEST STOP JUMPDEST PUSH2 0x275 PUSH1 0x4 DUP1 CALLDATASIZE SUB DUP2 ADD SWAP1 PUSH2 0x270 SWAP2 SWAP1 PUSH2 0x142D JUMP JUMPDEST PUSH2 0xB4D JUMP JUMPDEST STOP JUMPDEST PUSH2 0x27F PUSH2 0xBE9 JUMP JUMPDEST PUSH1 0x40 MLOAD PUSH2 0x28C SWAP2 SWAP1 PUSH2 0x11DE JUMP JUMPDEST PUSH1 0x40 MLOAD DUP1 SWAP2 SUB SWAP1 RETURN JUMPDEST PUSH2 0x2AF PUSH1 0x4 DUP1 CALLDATASIZE SUB DUP2 ADD SWAP1 PUSH2 0x2AA SWAP2 SWAP1 PUSH2 0x1725 JUMP JUMPDEST PUSH2 0xBF8 JUMP JUMPDEST STOP JUMPDEST PUSH2 0x2B9 PUSH2 0xC7B JUMP JUMPDEST PUSH1 0x40 MLOAD PUSH2 0x2C6 SWAP2 SWAP1 PUSH2 0x11DE JUMP JUMPDEST PUSH1 0x40 MLOAD DUP1 SWAP2 SUB SWAP1 RETURN JUMPDEST PUSH1 0x0 DUP1 PUSH32 0xEF3DA448EF037EBFBA3B01FAF85E69692B03CFC21278B48C6F12F50FAE34C548 PUSH1 0x0 SHL DUP4 DUP1 MLOAD SWAP1 PUSH1 0x20 ADD KECCAK256 PUSH1 0x40 MLOAD PUSH1 0x20 ADD PUSH2 0x30F SWAP3 SWAP2 SWAP1 PUSH2 0x1752 JUMP JUMPDEST PUSH1 0x40 MLOAD PUSH1 0x20 DUP2 DUP4 SUB SUB DUP2 MSTORE SWAP1 PUSH1 0x40 MSTORE DUP1 MLOAD SWAP1 PUSH1 0x20 ADD KECCAK256 SWAP1 POP PUSH1 0x19 PUSH1 0xF8 SHL PUSH1 0x1 PUSH1 0xF8 SHL ADDRESS PUSH20 0xFFFFFFFFFFFFFFFFFFFFFFFFFFFFFFFFFFFFFFFF AND PUSH4 0xF698DA25 DUP5 PUSH1 0x40 MLOAD PUSH1 0x20 ADD PUSH2 0x362 SWAP6 SWAP5 SWAP4 SWAP3 SWAP2 SWAP1 PUSH2 0x1855 JUMP JUMPDEST PUSH1 0x40 MLOAD PUSH1 0x20 DUP2 DUP4 SUB SUB DUP2 MSTORE SWAP1 PUSH1 0x40 MSTORE DUP1 MLOAD SWAP1 PUSH1 0x20 ADD KECCAK256 SWAP2 POP POP SWAP2 SWAP1 POP JUMP JUMPDEST PUSH1 0x41 DUP2 PUSH2 0x38D SWAP2 SWAP1 PUSH2 0x18D4 JUMP JUMPDEST DUP3 MLOAD LT ISZERO PUSH2 0x3D0 JUMPI PUSH1 0x40 MLOAD PUSH32 0x8C379A000000000000000000000000000000000000000000000000000000000 DUP2 MSTORE PUSH1 0x4 ADD PUSH2 0x3C7 SWAP1 PUSH2 0x1962 JUMP JUMPDEST PUSH1 0x40 MLOAD DUP1 SWAP2 SUB SWAP1 REVERT JUMPDEST PUSH1 0x0 DUP1 DUP1 PUSH1 0x0 DUP1 PUSH1 0x0 JUMPDEST DUP7 DUP2 LT ISZERO PUSH2 0x876 JUMPI PUSH2 0x3EC DUP9 DUP3 PUSH2 0xC81 JUMP JUMPDEST DUP1 SWAP5 POP DUP2 SWAP6 POP DUP3 SWAP7 POP POP POP POP PUSH1 0x0 DUP5 PUSH1 0xFF AND SUB PUSH2 0x62A JUMPI DUP3 PUSH1 0x0 SHR SWAP5 POP PUSH1 0x41 DUP8 PUSH2 0x416 SWAP2 SWAP1 PUSH2 0x18D4 JUMP JUMPDEST DUP3 PUSH1 0x0 SHR LT ISZERO PUSH2 0x45B JUMPI PUSH1 0x40 MLOAD PUSH32 0x8C379A000000000000000000000000000000000000000000000000000000000 DUP2 MSTORE PUSH1 0x4 ADD PUSH2 0x452 SWAP1 PUSH2 0x19CE JUMP JUMPDEST PUSH1 0x40 MLOAD DUP1 SWAP2 SUB SWAP1 REVERT JUMPDEST DUP8 MLOAD PUSH1 0x20 DUP4 PUSH1 0x0 SHR PUSH2 0x46D SWAP2 SWAP1 PUSH2 0x19EE JUMP JUMPDEST GT ISZERO PUSH2 0x4AE JUMPI PUSH1 0x40 MLOAD PUSH32 0x8C379A000000000000000000000000000000000000000000000000000000000 DUP2 MSTORE PUSH1 0x4 ADD PUSH2 0x4A5 SWAP1 PUSH2 0x1A6E JUMP JUMPDEST PUSH1 0x40 MLOAD DUP1 SWAP2 SUB SWAP1 REVERT JUMPDEST PUSH1 0x0 PUSH1 0x20 DUP4 DUP11 ADD ADD MLOAD SWAP1 POP DUP9 MLOAD DUP2 PUSH1 0x20 DUP6 PUSH1 0x0 SHR PUSH2 0x4CC SWAP2 SWAP1 PUSH2 0x19EE JUMP JUMPDEST PUSH2 0x4D6 SWAP2 SWAP1 PUSH2 0x19EE JUMP JUMPDEST GT ISZERO PUSH2 0x517 JUMPI PUSH1 0x40 MLOAD PUSH32 0x8C379A000000000000000000000000000000000000000000000000000000000 DUP2 MSTORE PUSH1 0x4 ADD PUSH2 0x50E SWAP1 PUSH2 0x1ADA JUMP JUMPDEST PUSH1 0x40 MLOAD DUP1 SWAP2 SUB SWAP1 REVERT JUMPDEST PUSH1 0x60 PUSH1 0x20 DUP5 DUP12 ADD ADD SWAP1 POP PUSH4 0x20C13B0B PUSH1 0xE0 SHL PUSH28 0xFFFFFFFFFFFFFFFFFFFFFFFFFFFFFFFFFFFFFFFFFFFFFFFFFFFFFFFF NOT AND DUP8 PUSH20 0xFFFFFFFFFFFFFFFFFFFFFFFFFFFFFFFFFFFFFFFF AND PUSH4 0x20C13B0B DUP14 DUP5 PUSH1 0x40 MLOAD DUP4 PUSH4 0xFFFFFFFF AND PUSH1 0xE0 SHL DUP2 MSTORE PUSH1 0x4 ADD PUSH2 0x583 SWAP3 SWAP2 SWAP1 PUSH2 0x1B4F JUMP JUMPDEST PUSH1 0x20 PUSH1 0x40 MLOAD DUP1 DUP4 SUB DUP2 DUP7 GAS STATICCALL ISZERO DUP1 ISZERO PUSH2 0x5A0 JUMPI RETURNDATASIZE PUSH1 0x0 DUP1 RETURNDATACOPY RETURNDATASIZE PUSH1 0x0 REVERT JUMPDEST POP POP POP POP PUSH1 0x40 MLOAD RETURNDATASIZE PUSH1 0x1F NOT PUSH1 0x1F DUP3 ADD AND DUP3 ADD DUP1 PUSH1 0x40 MSTORE POP DUP2 ADD SWAP1 PUSH2 0x5C4 SWAP2 SWAP1 PUSH2 0x1BDE JUMP JUMPDEST PUSH28 0xFFFFFFFFFFFFFFFFFFFFFFFFFFFFFFFFFFFFFFFFFFFFFFFFFFFFFFFF NOT AND EQ PUSH2 0x623 JUMPI PUSH1 0x40 MLOAD PUSH32 0x8C379A000000000000000000000000000000000000000000000000000000000 DUP2 MSTORE PUSH1 0x4 ADD PUSH2 0x61A SWAP1 PUSH2 0x1ADA JUMP JUMPDEST PUSH1 0x40 MLOAD DUP1 SWAP2 SUB SWAP1 REVERT JUMPDEST POP POP PUSH2 0x7F2 JUMP JUMPDEST PUSH1 0x1 DUP5 PUSH1 0xFF AND SUB PUSH2 0x70A JUMPI DUP3 PUSH1 0x0 SHR SWAP5 POP DUP5 PUSH20 0xFFFFFFFFFFFFFFFFFFFFFFFFFFFFFFFFFFFFFFFF AND CALLER PUSH20 0xFFFFFFFFFFFFFFFFFFFFFFFFFFFFFFFFFFFFFFFF AND EQ DUP1 PUSH2 0x6C6 JUMPI POP PUSH1 0x0 PUSH1 0x1 PUSH1 0x0 DUP8 PUSH20 0xFFFFFFFFFFFFFFFFFFFFFFFFFFFFFFFFFFFFFFFF AND PUSH20 0xFFFFFFFFFFFFFFFFFFFFFFFFFFFFFFFFFFFFFFFF AND DUP2 MSTORE PUSH1 0x20 ADD SWAP1 DUP2 MSTORE PUSH1 0x20 ADD PUSH1 0x0 KECCAK256 PUSH1 0x0 DUP13 DUP2 MSTORE PUSH1 0x20 ADD SWAP1 DUP2 MSTORE PUSH1 0x20 ADD PUSH1 0x0 KECCAK256 SLOAD EQ ISZERO JUMPDEST PUSH2 0x705 JUMPI PUSH1 0x40 MLOAD PUSH32 0x8C379A000000000000000000000000000000000000000000000000000000000 DUP2 MSTORE PUSH1 0x4 ADD PUSH2 0x6FC SWAP1 PUSH2 0x1ADA JUMP JUMPDEST PUSH1 0x40 MLOAD DUP1 SWAP2 SUB SWAP1 REVERT JUMPDEST PUSH2 0x7F1 JUMP JUMPDEST PUSH1 0x1E DUP5 PUSH1 0xFF AND GT ISZERO PUSH2 0x79E JUMPI PUSH1 0x1 DUP11 PUSH1 0x40 MLOAD PUSH1 0x20 ADD PUSH2 0x729 SWAP2 SWAP1 PUSH2 0x1C62 JUMP JUMPDEST PUSH1 0x40 MLOAD PUSH1 0x20 DUP2 DUP4 SUB SUB DUP2 MSTORE SWAP1 PUSH1 0x40 MSTORE DUP1 MLOAD SWAP1 PUSH1 0x20 ADD KECCAK256 PUSH1 0x4 DUP7 PUSH2 0x74C SWAP2 SWAP1 PUSH2 0x1C95 JUMP JUMPDEST DUP6 DUP6 PUSH1 0x40 MLOAD PUSH1 0x0 DUP2 MSTORE PUSH1 0x20 ADD PUSH1 0x40 MSTORE PUSH1 0x40 MLOAD PUSH2 0x76B SWAP5 SWAP4 SWAP3 SWAP2 SWAP1 PUSH2 0x1CD9 JUMP JUMPDEST PUSH1 0x20 PUSH1 0x40 MLOAD PUSH1 0x20 DUP2 SUB SWAP1 DUP1 DUP5 SUB SWAP1 DUP6 GAS STATICCALL ISZERO DUP1 ISZERO PUSH2 0x78D JUMPI RETURNDATASIZE PUSH1 0x0 DUP1 RETURNDATACOPY RETURNDATASIZE PUSH1 0x0 REVERT JUMPDEST POP POP POP PUSH1 0x20 PUSH1 0x40 MLOAD SUB MLOAD SWAP5 POP PUSH2 0x7F0 JUMP JUMPDEST PUSH1 0x1 DUP11 DUP6 DUP6 DUP6 PUSH1 0x40 MLOAD PUSH1 0x0 DUP2 MSTORE PUSH1 0x20 ADD PUSH1 0x40 MSTORE PUSH1 0x40 MLOAD PUSH2 0x7C1 SWAP5 SWAP4 SWAP3 SWAP2 SWAP1 PUSH2 0x1CD9 JUMP JUMPDEST PUSH1 0x20 PUSH1 0x40 MLOAD PUSH1 0x20 DUP2 SUB SWAP1 DUP1 DUP5 SUB SWAP1 DUP6 GAS STATICCALL ISZERO DUP1 ISZERO PUSH2 0x7E3 JUMPI RETURNDATASIZE PUSH1 0x0 DUP1 RETURNDATACOPY RETURNDATASIZE PUSH1 0x0 REVERT JUMPDEST POP POP POP PUSH1 0x20 PUSH1 0x40 MLOAD SUB MLOAD SWAP5 POP JUMPDEST JUMPDEST JUMPDEST DUP6 PUSH20 0xFFFFFFFFFFFFFFFFFFFFFFFFFFFFFFFFFFFFFFFF AND DUP6 PUSH20 0xFFFFFFFFFFFFFFFFFFFFFFFFFFFFFFFFFFFFFFFF AND GT PUSH2 0x860 JUMPI PUSH1 0x40 MLOAD PUSH32 0x8C379A000000000000000000000000000000000000000000000000000000000 DUP2 MSTORE PUSH1 0x4 ADD PUSH2 0x857 SWAP1 PUSH2 0x1ADA JUMP JUMPDEST PUSH1 0x40 MLOAD DUP1 SWAP2 SUB SWAP1 REVERT JUMPDEST DUP5 SWAP6 POP DUP1 DUP1 PUSH2 0x86E SWAP1 PUSH2 0x1D1E JUMP JUMPDEST SWAP2 POP POP PUSH2 0x3DA JUMP JUMPDEST POP POP POP POP POP POP POP POP POP POP JUMP JUMPDEST PUSH1 0x0 PUSH2 0x88C PUSH2 0xCB0 JUMP JUMPDEST PUSH2 0x895 DUP4 PUSH2 0xD2E JUMP JUMPDEST ADDRESS PUSH20 0xFFFFFFFFFFFFFFFFFFFFFFFFFFFFFFFFFFFFFFFF AND PUSH4 0x85A5AFFE DUP5 DUP5 PUSH1 0x40 MLOAD PUSH1 0x20 ADD PUSH2 0x8C4 SWAP3 SWAP2 SWAP1 PUSH2 0x1D97 JUMP JUMPDEST PUSH1 0x40 MLOAD PUSH1 0x20 DUP2 DUP4 SUB SUB DUP2 MSTORE SWAP1 PUSH1 0x40 MSTORE PUSH1 0x40 MLOAD DUP3 PUSH4 0xFFFFFFFF AND PUSH1 0xE0 SHL DUP2 MSTORE PUSH1 0x4 ADD PUSH2 0x8EF SWAP2 SWAP1 PUSH2 0x1DBF JUMP JUMPDEST PUSH1 0x0 PUSH1 0x40 MLOAD DUP1 DUP4 SUB DUP2 PUSH1 0x0 DUP8 DUP1 EXTCODESIZE ISZERO DUP1 ISZERO PUSH2 0x909 JUMPI PUSH1 0x0 DUP1 REVERT JUMPDEST POP GAS CALL ISZERO DUP1 ISZERO PUSH2 0x91D JUMPI RETURNDATASIZE PUSH1 0x0 DUP1 RETURNDATACOPY RETURNDATASIZE PUSH1 0x0 REVERT JUMPDEST POP POP POP POP PUSH1 0x1 SWAP1 POP SWAP3 SWAP2 POP POP JUMP JUMPDEST PUSH1 0x60 PUSH2 0x936 DUP3 PUSH2 0xD98 JUMP JUMPDEST PUSH1 0x5 PUSH1 0x0 DUP4 DUP2 MSTORE PUSH1 0x20 ADD SWAP1 DUP2 MSTORE PUSH1 0x20 ADD PUSH1 0x0 KECCAK256 DUP1 SLOAD PUSH2 0x954 SWAP1 PUSH2 0x1E10 JUMP JUMPDEST DUP1 PUSH1 0x1F ADD PUSH1 0x20 DUP1 SWAP2 DIV MUL PUSH1 0x20 ADD PUSH1 0x40 MLOAD SWAP1 DUP2 ADD PUSH1 0x40 MSTORE DUP1 SWAP3 SWAP2 SWAP1 DUP2 DUP2 MSTORE PUSH1 0x20 ADD DUP3 DUP1 SLOAD PUSH2 0x980 SWAP1 PUSH2 0x1E10 JUMP JUMPDEST DUP1 ISZERO PUSH2 0x9CD JUMPI DUP1 PUSH1 0x1F LT PUSH2 0x9A2 JUMPI PUSH2 0x100 DUP1 DUP4 SLOAD DIV MUL DUP4 MSTORE SWAP2 PUSH1 0x20 ADD SWAP2 PUSH2 0x9CD JUMP JUMPDEST DUP3 ADD SWAP2 SWAP1 PUSH1 0x0 MSTORE PUSH1 0x20 PUSH1 0x0 KECCAK256 SWAP1 JUMPDEST DUP2 SLOAD DUP2 MSTORE SWAP1 PUSH1 0x1 ADD SWAP1 PUSH1 0x20 ADD DUP1 DUP4 GT PUSH2 0x9B0 JUMPI DUP3 SWAP1 SUB PUSH1 0x1F AND DUP3 ADD SWAP2 JUMPDEST POP POP POP POP POP SWAP1 POP SWAP2 SWAP1 POP JUMP JUMPDEST PUSH1 0x3 PUSH1 0x20 MSTORE DUP1 PUSH1 0x0 MSTORE PUSH1 0x40 PUSH1 0x0 KECCAK256 PUSH1 0x0 SWAP2 POP SWAP1 POP SLOAD DUP2 JUMP JUMPDEST PUSH2 0x9F9 PUSH2 0xCB0 JUMP JUMPDEST PUSH2 0xA03 PUSH1 0x0 PUSH2 0xE02 JUMP JUMPDEST JUMP JUMPDEST PUSH1 0x1 PUSH1 0x20 MSTORE DUP2 PUSH1 0x0 MSTORE PUSH1 0x40 PUSH1 0x0 KECCAK256 PUSH1 0x20 MSTORE DUP1 PUSH1 0x0 MSTORE PUSH1 0x40 PUSH1 0x0 KECCAK256 PUSH1 0x0 SWAP2 POP SWAP2 POP POP SLOAD DUP2 JUMP JUMPDEST PUSH1 0x0 PUSH1 0x19 PUSH1 0xF8 SHL PUSH1 0x1 PUSH1 0xF8 SHL PUSH1 0x2 SLOAD PUSH32 0xEF3DA448EF037EBFBA3B01FAF85E69692B03CFC21278B48C6F12F50FAE34C548 PUSH1 0x0 SHL DUP7 DUP7 PUSH1 0x40 MLOAD PUSH2 0xA6D SWAP3 SWAP2 SWAP1 PUSH2 0x1E71 JUMP JUMPDEST PUSH1 0x40 MLOAD DUP1 SWAP2 SUB SWAP1 KECCAK256 PUSH1 0x40 MLOAD PUSH1 0x20 ADD PUSH2 0xA86 SWAP3 SWAP2 SWAP1 PUSH2 0x1752 JUMP JUMPDEST PUSH1 0x40 MLOAD PUSH1 0x20 DUP2 DUP4 SUB SUB DUP2 MSTORE SWAP1 PUSH1 0x40 MSTORE DUP1 MLOAD SWAP1 PUSH1 0x20 ADD KECCAK256 PUSH1 0x40 MLOAD PUSH1 0x20 ADD PUSH2 0xAAF SWAP5 SWAP4 SWAP3 SWAP2 SWAP1 PUSH2 0x1E8A JUMP JUMPDEST PUSH1 0x40 MLOAD PUSH1 0x20 DUP2 DUP4 SUB SUB DUP2 MSTORE SWAP1 PUSH1 0x40 MSTORE DUP1 MLOAD SWAP1 PUSH1 0x20 ADD KECCAK256 SWAP1 POP PUSH1 0x1 PUSH1 0x3 PUSH1 0x0 DUP4 DUP2 MSTORE PUSH1 0x20 ADD SWAP1 DUP2 MSTORE PUSH1 0x20 ADD PUSH1 0x0 KECCAK256 DUP2 SWAP1 SSTORE POP DUP1 PUSH32 0xE7F4675038F4F6034DFCBBB24C4DC08E4EBF10EB9D257D3D02C0F38D122AC6E4 PUSH1 0x40 MLOAD PUSH1 0x40 MLOAD DUP1 SWAP2 SUB SWAP1 LOG2 POP POP POP JUMP JUMPDEST PUSH1 0x0 DUP1 PUSH1 0x0 SWAP1 SLOAD SWAP1 PUSH2 0x100 EXP SWAP1 DIV PUSH20 0xFFFFFFFFFFFFFFFFFFFFFFFFFFFFFFFFFFFFFFFF AND SWAP1 POP SWAP1 JUMP JUMPDEST PUSH2 0xB48 DUP4 DUP4 DUP4 PUSH1 0x1 PUSH2 0x380 JUMP JUMPDEST POP POP POP JUMP JUMPDEST PUSH1 0x1 DUP1 PUSH1 0x0 CALLER PUSH20 0xFFFFFFFFFFFFFFFFFFFFFFFFFFFFFFFFFFFFFFFF AND PUSH20 0xFFFFFFFFFFFFFFFFFFFFFFFFFFFFFFFFFFFFFFFF AND DUP2 MSTORE PUSH1 0x20 ADD SWAP1 DUP2 MSTORE PUSH1 0x20 ADD PUSH1 0x0 KECCAK256 PUSH1 0x0 DUP4 DUP2 MSTORE PUSH1 0x20 ADD SWAP1 DUP2 MSTORE PUSH1 0x20 ADD PUSH1 0x0 KECCAK256 DUP2 SWAP1 SSTORE POP CALLER PUSH20 0xFFFFFFFFFFFFFFFFFFFFFFFFFFFFFFFFFFFFFFFF AND DUP2 PUSH32 0xF2A0EB156472D1440255B0D7C1E19CC07115D1051FE605B0DCE69ACFEC884D9C PUSH1 0x40 MLOAD PUSH1 0x40 MLOAD DUP1 SWAP2 SUB SWAP1 LOG3 POP JUMP JUMPDEST PUSH1 0x0 PUSH2 0xBF3 PUSH2 0xEC6 JUMP JUMPDEST SWAP1 POP SWAP1 JUMP JUMPDEST PUSH2 0xC00 PUSH2 0xCB0 JUMP JUMPDEST PUSH1 0x0 PUSH20 0xFFFFFFFFFFFFFFFFFFFFFFFFFFFFFFFFFFFFFFFF AND DUP2 PUSH20 0xFFFFFFFFFFFFFFFFFFFFFFFFFFFFFFFFFFFFFFFF AND SUB PUSH2 0xC6F JUMPI PUSH1 0x40 MLOAD PUSH32 0x8C379A000000000000000000000000000000000000000000000000000000000 DUP2 MSTORE PUSH1 0x4 ADD PUSH2 0xC66 SWAP1 PUSH2 0x1F4A JUMP JUMPDEST PUSH1 0x40 MLOAD DUP1 SWAP2 SUB SWAP1 REVERT JUMPDEST PUSH2 0xC78 DUP2 PUSH2 0xE02 JUMP JUMPDEST POP JUMP JUMPDEST PUSH1 0x2 SLOAD DUP2 JUMP JUMPDEST PUSH1 0x0 DUP1 PUSH1 0x0 DUP4 PUSH1 0x41 MUL PUSH1 0x20 DUP2 ADD DUP7 ADD MLOAD SWAP3 POP PUSH1 0x40 DUP2 ADD DUP7 ADD MLOAD SWAP2 POP PUSH1 0xFF PUSH1 0x41 DUP3 ADD DUP8 ADD MLOAD AND SWAP4 POP POP SWAP3 POP SWAP3 POP SWAP3 JUMP JUMPDEST PUSH2 0xCB8 PUSH2 0xFE0 JUMP JUMPDEST PUSH20 0xFFFFFFFFFFFFFFFFFFFFFFFFFFFFFFFFFFFFFFFF AND PUSH2 0xCD6 PUSH2 0xB12 JUMP JUMPDEST PUSH20 0xFFFFFFFFFFFFFFFFFFFFFFFFFFFFFFFFFFFFFFFF AND EQ PUSH2 0xD2C JUMPI PUSH1 0x40 MLOAD PUSH32 0x8C379A000000000000000000000000000000000000000000000000000000000 DUP2 MSTORE PUSH1 0x4 ADD PUSH2 0xD23 SWAP1 PUSH2 0x1FB6 JUMP JUMPDEST PUSH1 0x40 MLOAD DUP1 SWAP2 SUB SWAP1 REVERT JUMPDEST JUMP JUMPDEST PUSH1 0x1 ISZERO ISZERO PUSH1 0x7 PUSH1 0x0 DUP4 DUP2 MSTORE PUSH1 0x20 ADD SWAP1 DUP2 MSTORE PUSH1 0x20 ADD PUSH1 0x0 KECCAK256 PUSH1 0x0 SWAP1 SLOAD SWAP1 PUSH2 0x100 EXP SWAP1 DIV PUSH1 0xFF AND ISZERO ISZERO SUB PUSH2 0xD95 JUMPI PUSH1 0x40 MLOAD PUSH32 0x8C379A000000000000000000000000000000000000000000000000000000000 DUP2 MSTORE PUSH1 0x4 ADD PUSH2 0xD8C SWAP1 PUSH2 0x2022 JUMP JUMPDEST PUSH1 0x40 MLOAD DUP1 SWAP2 SUB SWAP1 REVERT JUMPDEST POP JUMP JUMPDEST PUSH1 0x1 ISZERO ISZERO PUSH1 0x7 PUSH1 0x0 DUP4 DUP2 MSTORE PUSH1 0x20 ADD SWAP1 DUP2 MSTORE PUSH1 0x20 ADD PUSH1 0x0 KECCAK256 PUSH1 0x0 SWAP1 SLOAD SWAP1 PUSH2 0x100 EXP SWAP1 DIV PUSH1 0xFF AND ISZERO ISZERO EQ PUSH2 0xDFF JUMPI PUSH1 0x40 MLOAD PUSH32 0x8C379A000000000000000000000000000000000000000000000000000000000 DUP2 MSTORE PUSH1 0x4 ADD PUSH2 0xDF6 SWAP1 PUSH2 0x2022 JUMP JUMPDEST PUSH1 0x40 MLOAD DUP1 SWAP2 SUB SWAP1 REVERT JUMPDEST POP JUMP JUMPDEST PUSH1 0x0 DUP1 PUSH1 0x0 SWAP1 SLOAD SWAP1 PUSH2 0x100 EXP SWAP1 DIV PUSH20 0xFFFFFFFFFFFFFFFFFFFFFFFFFFFFFFFFFFFFFFFF AND SWAP1 POP DUP2 PUSH1 0x0 DUP1 PUSH2 0x100 EXP DUP2 SLOAD DUP2 PUSH20 0xFFFFFFFFFFFFFFFFFFFFFFFFFFFFFFFFFFFFFFFF MUL NOT AND SWAP1 DUP4 PUSH20 0xFFFFFFFFFFFFFFFFFFFFFFFFFFFFFFFFFFFFFFFF AND MUL OR SWAP1 SSTORE POP DUP2 PUSH20 0xFFFFFFFFFFFFFFFFFFFFFFFFFFFFFFFFFFFFFFFF AND DUP2 PUSH20 0xFFFFFFFFFFFFFFFFFFFFFFFFFFFFFFFFFFFFFFFF AND PUSH32 0x8BE0079C531659141344CD1FD0A4F28419497F9722A3DAAFE3B4186F6B6457E0 PUSH1 0x40 MLOAD PUSH1 0x40 MLOAD DUP1 SWAP2 SUB SWAP1 LOG3 POP POP JUMP JUMPDEST PUSH1 0x0 PUSH32 0x0 PUSH20 0xFFFFFFFFFFFFFFFFFFFFFFFFFFFFFFFFFFFFFFFF AND ADDRESS PUSH20 0xFFFFFFFFFFFFFFFFFFFFFFFFFFFFFFFFFFFFFFFF AND EQ DUP1 ISZERO PUSH2 0xF42 JUMPI POP PUSH32 0x0 CHAINID EQ JUMPDEST ISZERO PUSH2 0xF6F JUMPI PUSH32 0x0 SWAP1 POP PUSH2 0xFDD JUMP JUMPDEST PUSH2 0xFDA PUSH32 0x0 PUSH32 0x0 PUSH32 0x0 PUSH2 0xFE8 JUMP JUMPDEST SWAP1 POP JUMPDEST SWAP1 JUMP JUMPDEST PUSH1 0x0 CALLER SWAP1 POP SWAP1 JUMP JUMPDEST PUSH1 0x0 DUP4 DUP4 DUP4 CHAINID ADDRESS PUSH1 0x40 MLOAD PUSH1 0x20 ADD PUSH2 0x1003 SWAP6 SWAP5 SWAP4 SWAP3 SWAP2 SWAP1 PUSH2 0x2042 JUMP JUMPDEST PUSH1 0x40 MLOAD PUSH1 0x20 DUP2 DUP4 SUB SUB DUP2 MSTORE SWAP1 PUSH1 0x40 MSTORE DUP1 MLOAD SWAP1 PUSH1 0x20 ADD KECCAK256 SWAP1 POP SWAP4 SWAP3 POP POP POP JUMP JUMPDEST PUSH1 0x0 PUSH1 0x40 MLOAD SWAP1 POP SWAP1 JUMP JUMPDEST PUSH1 0x0 DUP1 REVERT JUMPDEST PUSH1 0x0 DUP1 REVERT JUMPDEST PUSH1 0x0 DUP1 REVERT JUMPDEST PUSH1 0x0 DUP1 REVERT JUMPDEST PUSH1 0x0 PUSH1 0x1F NOT PUSH1 0x1F DUP4 ADD AND SWAP1 POP SWAP2 SWAP1 POP JUMP JUMPDEST PUSH32 0x4E487B7100000000000000000000000000000000000000000000000000000000 PUSH1 0x0 MSTORE PUSH1 0x41 PUSH1 0x4 MSTORE PUSH1 0x24 PUSH1 0x0 REVERT JUMPDEST PUSH2 0x1089 DUP3 PUSH2 0x1040 JUMP JUMPDEST DUP2 ADD DUP2 DUP2 LT PUSH8 0xFFFFFFFFFFFFFFFF DUP3 GT OR ISZERO PUSH2 0x10A8 JUMPI PUSH2 0x10A7 PUSH2 0x1051 JUMP JUMPDEST JUMPDEST DUP1 PUSH1 0x40 MSTORE POP POP POP JUMP JUMPDEST PUSH1 0x0 PUSH2 0x10BB PUSH2 0x1022 JUMP JUMPDEST SWAP1 POP PUSH2 0x10C7 DUP3 DUP3 PUSH2 0x1080 JUMP JUMPDEST SWAP2 SWAP1 POP JUMP JUMPDEST PUSH1 0x0 PUSH8 0xFFFFFFFFFFFFFFFF DUP3 GT ISZERO PUSH2 0x10E7 JUMPI PUSH2 0x10E6 PUSH2 0x1051 JUMP JUMPDEST JUMPDEST PUSH2 0x10F0 DUP3 PUSH2 0x1040 JUMP JUMPDEST SWAP1 POP PUSH1 0x20 DUP2 ADD SWAP1 POP SWAP2 SWAP1 POP JUMP JUMPDEST DUP3 DUP2 DUP4 CALLDATACOPY PUSH1 0x0 DUP4 DUP4 ADD MSTORE POP POP POP JUMP JUMPDEST PUSH1 0x0 PUSH2 0x111F PUSH2 0x111A DUP5 PUSH2 0x10CC JUMP JUMPDEST PUSH2 0x10B1 JUMP JUMPDEST SWAP1 POP DUP3 DUP2 MSTORE PUSH1 0x20 DUP2 ADD DUP5 DUP5 DUP5 ADD GT ISZERO PUSH2 0x113B JUMPI PUSH2 0x113A PUSH2 0x103B JUMP JUMPDEST JUMPDEST PUSH2 0x1146 DUP5 DUP3 DUP6 PUSH2 0x10FD JUMP JUMPDEST POP SWAP4 SWAP3 POP POP POP JUMP JUMPDEST PUSH1 0x0 DUP3 PUSH1 0x1F DUP4 ADD SLT PUSH2 0x1163 JUMPI PUSH2 0x1162 PUSH2 0x1036 JUMP JUMPDEST JUMPDEST DUP2 CALLDATALOAD PUSH2 0x1173 DUP5 DUP3 PUSH1 0x20 DUP7 ADD PUSH2 0x110C JUMP JUMPDEST SWAP2 POP POP SWAP3 SWAP2 POP POP JUMP JUMPDEST PUSH1 0x0 PUSH1 0x20 DUP3 DUP5 SUB SLT ISZERO PUSH2 0x1192 JUMPI PUSH2 0x1191 PUSH2 0x102C JUMP JUMPDEST JUMPDEST PUSH1 0x0 DUP3 ADD CALLDATALOAD PUSH8 0xFFFFFFFFFFFFFFFF DUP2 GT ISZERO PUSH2 0x11B0 JUMPI PUSH2 0x11AF PUSH2 0x1031 JUMP JUMPDEST JUMPDEST PUSH2 0x11BC DUP5 DUP3 DUP6 ADD PUSH2 0x114E JUMP JUMPDEST SWAP2 POP POP SWAP3 SWAP2 POP POP JUMP JUMPDEST PUSH1 0x0 DUP2 SWAP1 POP SWAP2 SWAP1 POP JUMP JUMPDEST PUSH2 0x11D8 DUP2 PUSH2 0x11C5 JUMP JUMPDEST DUP3 MSTORE POP POP JUMP JUMPDEST PUSH1 0x0 PUSH1 0x20 DUP3 ADD SWAP1 POP PUSH2 0x11F3 PUSH1 0x0 DUP4 ADD DUP5 PUSH2 0x11CF JUMP JUMPDEST SWAP3 SWAP2 POP POP JUMP JUMPDEST PUSH2 0x1202 DUP2 PUSH2 0x11C5 JUMP JUMPDEST DUP2 EQ PUSH2 0x120D JUMPI PUSH1 0x0 DUP1 REVERT JUMPDEST POP JUMP JUMPDEST PUSH1 0x0 DUP2 CALLDATALOAD SWAP1 POP PUSH2 0x121F DUP2 PUSH2 0x11F9 JUMP JUMPDEST SWAP3 SWAP2 POP POP JUMP JUMPDEST PUSH1 0x0 DUP2 SWAP1 POP SWAP2 SWAP1 POP JUMP JUMPDEST PUSH2 0x1238 DUP2 PUSH2 0x1225 JUMP JUMPDEST DUP2 EQ PUSH2 0x1243 JUMPI PUSH1 0x0 DUP1 REVERT JUMPDEST POP JUMP JUMPDEST PUSH1 0x0 DUP2 CALLDATALOAD SWAP1 POP PUSH2 0x1255 DUP2 PUSH2 0x122F JUMP JUMPDEST SWAP3 SWAP2 POP POP JUMP JUMPDEST PUSH1 0x0 DUP1 PUSH1 0x0 DUP1 PUSH1 0x80 DUP6 DUP8 SUB SLT ISZERO PUSH2 0x1275 JUMPI PUSH2 0x1274 PUSH2 0x102C JUMP JUMPDEST JUMPDEST PUSH1 0x0 PUSH2 0x1283 DUP8 DUP3 DUP9 ADD PUSH2 0x1210 JUMP JUMPDEST SWAP5 POP POP PUSH1 0x20 DUP6 ADD CALLDATALOAD PUSH8 0xFFFFFFFFFFFFFFFF DUP2 GT ISZERO PUSH2 0x12A4 JUMPI PUSH2 0x12A3 PUSH2 0x1031 JUMP JUMPDEST JUMPDEST PUSH2 0x12B0 DUP8 DUP3 DUP9 ADD PUSH2 0x114E JUMP JUMPDEST SWAP4 POP POP PUSH1 0x40 DUP6 ADD CALLDATALOAD PUSH8 0xFFFFFFFFFFFFFFFF DUP2 GT ISZERO PUSH2 0x12D1 JUMPI PUSH2 0x12D0 PUSH2 0x1031 JUMP JUMPDEST JUMPDEST PUSH2 0x12DD DUP8 DUP3 DUP9 ADD PUSH2 0x114E JUMP JUMPDEST SWAP3 POP POP PUSH1 0x60 PUSH2 0x12EE DUP8 DUP3 DUP9 ADD PUSH2 0x1246 JUMP JUMPDEST SWAP2 POP POP SWAP3 SWAP6 SWAP2 SWAP5 POP SWAP3 POP JUMP JUMPDEST PUSH1 0x0 PUSH8 0xFFFFFFFFFFFFFFFF DUP3 GT ISZERO PUSH2 0x1315 JUMPI PUSH2 0x1314 PUSH2 0x1051 JUMP JUMPDEST JUMPDEST PUSH2 0x131E DUP3 PUSH2 0x1040 JUMP JUMPDEST SWAP1 POP PUSH1 0x20 DUP2 ADD SWAP1 POP SWAP2 SWAP1 POP JUMP JUMPDEST PUSH1 0x0 PUSH2 0x133E PUSH2 0x1339 DUP5 PUSH2 0x12FA JUMP JUMPDEST PUSH2 0x10B1 JUMP JUMPDEST SWAP1 POP DUP3 DUP2 MSTORE PUSH1 0x20 DUP2 ADD DUP5 DUP5 DUP5 ADD GT ISZERO PUSH2 0x135A JUMPI PUSH2 0x1359 PUSH2 0x103B JUMP JUMPDEST JUMPDEST PUSH2 0x1365 DUP5 DUP3 DUP6 PUSH2 0x10FD JUMP JUMPDEST POP SWAP4 SWAP3 POP POP POP JUMP JUMPDEST PUSH1 0x0 DUP3 PUSH1 0x1F DUP4 ADD SLT PUSH2 0x1382 JUMPI PUSH2 0x1381 PUSH2 0x1036 JUMP JUMPDEST JUMPDEST DUP2 CALLDATALOAD PUSH2 0x1392 DUP5 DUP3 PUSH1 0x20 DUP7 ADD PUSH2 0x132B JUMP JUMPDEST SWAP2 POP POP SWAP3 SWAP2 POP POP JUMP JUMPDEST PUSH1 0x0 DUP1 PUSH1 0x40 DUP4 DUP6 SUB SLT ISZERO PUSH2 0x13B2 JUMPI PUSH2 0x13B1 PUSH2 0x102C JUMP JUMPDEST JUMPDEST PUSH1 0x0 PUSH2 0x13C0 DUP6 DUP3 DUP7 ADD PUSH2 0x1210 JUMP JUMPDEST SWAP3 POP POP PUSH1 0x20 DUP4 ADD CALLDATALOAD PUSH8 0xFFFFFFFFFFFFFFFF DUP2 GT ISZERO PUSH2 0x13E1 JUMPI PUSH2 0x13E0 PUSH2 0x1031 JUMP JUMPDEST JUMPDEST PUSH2 0x13ED DUP6 DUP3 DUP7 ADD PUSH2 0x136D JUMP JUMPDEST SWAP2 POP POP SWAP3 POP SWAP3 SWAP1 POP JUMP JUMPDEST PUSH1 0x0 DUP2 ISZERO ISZERO SWAP1 POP SWAP2 SWAP1 POP JUMP JUMPDEST PUSH2 0x140C DUP2 PUSH2 0x13F7 JUMP JUMPDEST DUP3 MSTORE POP POP JUMP JUMPDEST PUSH1 0x0 PUSH1 0x20 DUP3 ADD SWAP1 POP PUSH2 0x1427 PUSH1 0x0 DUP4 ADD DUP5 PUSH2 0x1403 JUMP JUMPDEST SWAP3 SWAP2 POP POP JUMP JUMPDEST PUSH1 0x0 PUSH1 0x20 DUP3 DUP5 SUB SLT ISZERO PUSH2 0x1443 JUMPI PUSH2 0x1442 PUSH2 0x102C JUMP JUMPDEST JUMPDEST PUSH1 0x0 PUSH2 0x1451 DUP5 DUP3 DUP6 ADD PUSH2 0x1210 JUMP JUMPDEST SWAP2 POP POP SWAP3 SWAP2 POP POP JUMP JUMPDEST PUSH1 0x0 DUP2 MLOAD SWAP1 POP SWAP2 SWAP1 POP JUMP JUMPDEST PUSH1 0x0 DUP3 DUP3 MSTORE PUSH1 0x20 DUP3 ADD SWAP1 POP SWAP3 SWAP2 POP POP JUMP JUMPDEST PUSH1 0x0 JUMPDEST DUP4 DUP2 LT ISZERO PUSH2 0x1494 JUMPI DUP1 DUP3 ADD MLOAD DUP2 DUP5 ADD MSTORE PUSH1 0x20 DUP2 ADD SWAP1 POP PUSH2 0x1479 JUMP JUMPDEST PUSH1 0x0 DUP5 DUP5 ADD MSTORE POP POP POP POP JUMP JUMPDEST PUSH1 0x0 PUSH2 0x14AB DUP3 PUSH2 0x145A JUMP JUMPDEST PUSH2 0x14B5 DUP2 DUP6 PUSH2 0x1465 JUMP JUMPDEST SWAP4 POP PUSH2 0x14C5 DUP2 DUP6 PUSH1 0x20 DUP7 ADD PUSH2 0x1476 JUMP JUMPDEST PUSH2 0x14CE DUP2 PUSH2 0x1040 JUMP JUMPDEST DUP5 ADD SWAP2 POP POP SWAP3 SWAP2 POP POP JUMP JUMPDEST PUSH1 0x0 PUSH1 0x20 DUP3 ADD SWAP1 POP DUP2 DUP2 SUB PUSH1 0x0 DUP4 ADD MSTORE PUSH2 0x14F3 DUP2 DUP5 PUSH2 0x14A0 JUMP JUMPDEST SWAP1 POP SWAP3 SWAP2 POP POP JUMP JUMPDEST PUSH2 0x1504 DUP2 PUSH2 0x1225 JUMP JUMPDEST DUP3 MSTORE POP POP JUMP JUMPDEST PUSH1 0x0 PUSH1 0x20 DUP3 ADD SWAP1 POP PUSH2 0x151F PUSH1 0x0 DUP4 ADD DUP5 PUSH2 0x14FB JUMP JUMPDEST SWAP3 SWAP2 POP POP JUMP JUMPDEST PUSH1 0x0 PUSH20 0xFFFFFFFFFFFFFFFFFFFFFFFFFFFFFFFFFFFFFFFF DUP3 AND SWAP1 POP SWAP2 SWAP1 POP JUMP JUMPDEST PUSH1 0x0 PUSH2 0x1550 DUP3 PUSH2 0x1525 JUMP JUMPDEST SWAP1 POP SWAP2 SWAP1 POP JUMP JUMPDEST PUSH2 0x1560 DUP2 PUSH2 0x1545 JUMP JUMPDEST DUP2 EQ PUSH2 0x156B JUMPI PUSH1 0x0 DUP1 REVERT JUMPDEST POP JUMP JUMPDEST PUSH1 0x0 DUP2 CALLDATALOAD SWAP1 POP PUSH2 0x157D DUP2 PUSH2 0x1557 JUMP JUMPDEST SWAP3 SWAP2 POP POP JUMP JUMPDEST PUSH1 0x0 DUP1 PUSH1 0x40 DUP4 DUP6 SUB SLT ISZERO PUSH2 0x159A JUMPI PUSH2 0x1599 PUSH2 0x102C JUMP JUMPDEST JUMPDEST PUSH1 0x0 PUSH2 0x15A8 DUP6 DUP3 DUP7 ADD PUSH2 0x156E JUMP JUMPDEST SWAP3 POP POP PUSH1 0x20 PUSH2 0x15B9 DUP6 DUP3 DUP7 ADD PUSH2 0x1210 JUMP JUMPDEST SWAP2 POP POP SWAP3 POP SWAP3 SWAP1 POP JUMP JUMPDEST PUSH1 0x0 DUP1 REVERT JUMPDEST PUSH1 0x0 DUP1 REVERT JUMPDEST PUSH1 0x0 DUP1 DUP4 PUSH1 0x1F DUP5 ADD SLT PUSH2 0x15E3 JUMPI PUSH2 0x15E2 PUSH2 0x1036 JUMP JUMPDEST JUMPDEST DUP3 CALLDATALOAD SWAP1 POP PUSH8 0xFFFFFFFFFFFFFFFF DUP2 GT ISZERO PUSH2 0x1600 JUMPI PUSH2 0x15FF PUSH2 0x15C3 JUMP JUMPDEST JUMPDEST PUSH1 0x20 DUP4 ADD SWAP2 POP DUP4 PUSH1 0x1 DUP3 MUL DUP4 ADD GT ISZERO PUSH2 0x161C JUMPI PUSH2 0x161B PUSH2 0x15C8 JUMP JUMPDEST JUMPDEST SWAP3 POP SWAP3 SWAP1 POP JUMP JUMPDEST PUSH1 0x0 DUP1 PUSH1 0x20 DUP4 DUP6 SUB SLT ISZERO PUSH2 0x163A JUMPI PUSH2 0x1639 PUSH2 0x102C JUMP JUMPDEST JUMPDEST PUSH1 0x0 DUP4 ADD CALLDATALOAD PUSH8 0xFFFFFFFFFFFFFFFF DUP2 GT ISZERO PUSH2 0x1658 JUMPI PUSH2 0x1657 PUSH2 0x1031 JUMP JUMPDEST JUMPDEST PUSH2 0x1664 DUP6 DUP3 DUP7 ADD PUSH2 0x15CD JUMP JUMPDEST SWAP3 POP SWAP3 POP POP SWAP3 POP SWAP3 SWAP1 POP JUMP JUMPDEST PUSH2 0x1679 DUP2 PUSH2 0x1545 JUMP JUMPDEST DUP3 MSTORE POP POP JUMP JUMPDEST PUSH1 0x0 PUSH1 0x20 DUP3 ADD SWAP1 POP PUSH2 0x1694 PUSH1 0x0 DUP4 ADD DUP5 PUSH2 0x1670 JUMP JUMPDEST SWAP3 SWAP2 POP POP JUMP JUMPDEST PUSH1 0x0 DUP1 PUSH1 0x0 PUSH1 0x60 DUP5 DUP7 SUB SLT ISZERO PUSH2 0x16B3 JUMPI PUSH2 0x16B2 PUSH2 0x102C JUMP JUMPDEST JUMPDEST PUSH1 0x0 PUSH2 0x16C1 DUP7 DUP3 DUP8 ADD PUSH2 0x1210 JUMP JUMPDEST SWAP4 POP POP PUSH1 0x20 DUP5 ADD CALLDATALOAD PUSH8 0xFFFFFFFFFFFFFFFF DUP2 GT ISZERO PUSH2 0x16E2 JUMPI PUSH2 0x16E1 PUSH2 0x1031 JUMP JUMPDEST JUMPDEST PUSH2 0x16EE DUP7 DUP3 DUP8 ADD PUSH2 0x114E JUMP JUMPDEST SWAP3 POP POP PUSH1 0x40 DUP5 ADD CALLDATALOAD PUSH8 0xFFFFFFFFFFFFFFFF DUP2 GT ISZERO PUSH2 0x170F JUMPI PUSH2 0x170E PUSH2 0x1031 JUMP JUMPDEST JUMPDEST PUSH2 0x171B DUP7 DUP3 DUP8 ADD PUSH2 0x114E JUMP JUMPDEST SWAP2 POP POP SWAP3 POP SWAP3 POP SWAP3 JUMP JUMPDEST PUSH1 0x0 PUSH1 0x20 DUP3 DUP5 SUB SLT ISZERO PUSH2 0x173B JUMPI PUSH2 0x173A PUSH2 0x102C JUMP JUMPDEST JUMPDEST PUSH1 0x0 PUSH2 0x1749 DUP5 DUP3 DUP6 ADD PUSH2 0x156E JUMP JUMPDEST SWAP2 POP POP SWAP3 SWAP2 POP POP JUMP JUMPDEST PUSH1 0x0 PUSH1 0x40 DUP3 ADD SWAP1 POP PUSH2 0x1767 PUSH1 0x0 DUP4 ADD DUP6 PUSH2 0x11CF JUMP JUMPDEST PUSH2 0x1774 PUSH1 0x20 DUP4 ADD DUP5 PUSH2 0x11CF JUMP JUMPDEST SWAP4 SWAP3 POP POP POP JUMP JUMPDEST PUSH1 0x0 PUSH32 0xFF00000000000000000000000000000000000000000000000000000000000000 DUP3 AND SWAP1 POP SWAP2 SWAP1 POP JUMP JUMPDEST PUSH1 0x0 DUP2 SWAP1 POP SWAP2 SWAP1 POP JUMP JUMPDEST PUSH2 0x17C2 PUSH2 0x17BD DUP3 PUSH2 0x177B JUMP JUMPDEST PUSH2 0x17A7 JUMP JUMPDEST DUP3 MSTORE POP POP JUMP JUMPDEST PUSH1 0x0 DUP2 PUSH1 0x20 SHL SWAP1 POP SWAP2 SWAP1 POP JUMP JUMPDEST PUSH1 0x0 DUP2 PUSH1 0x40 SHL SWAP1 POP SWAP2 SWAP1 POP JUMP JUMPDEST PUSH1 0x0 PUSH2 0x17FD PUSH4 0xFFFFFFFF DUP5 AND PUSH2 0x17F7 DUP5 PUSH2 0x17C8 JUMP JUMPDEST OR PUSH2 0x17D5 JUMP JUMPDEST SWAP1 POP SWAP3 SWAP2 POP POP JUMP JUMPDEST PUSH1 0x0 DUP1 DUP3 SWAP2 POP DUP4 SWAP1 POP SWAP3 POP SWAP3 SWAP1 POP JUMP JUMPDEST PUSH2 0x181F DUP3 DUP3 PUSH2 0x1805 JUMP JUMPDEST SWAP3 POP SWAP1 POP PUSH2 0x182D DUP3 DUP3 PUSH2 0x17E2 JUMP JUMPDEST DUP4 MSTORE POP POP POP JUMP JUMPDEST PUSH1 0x0 DUP2 SWAP1 POP SWAP2 SWAP1 POP JUMP JUMPDEST PUSH2 0x184F PUSH2 0x184A DUP3 PUSH2 0x11C5 JUMP JUMPDEST PUSH2 0x1834 JUMP JUMPDEST DUP3 MSTORE POP POP JUMP JUMPDEST PUSH1 0x0 PUSH2 0x1861 DUP3 DUP9 PUSH2 0x17B1 JUMP JUMPDEST PUSH1 0x1 DUP3 ADD SWAP2 POP PUSH2 0x1871 DUP3 DUP8 PUSH2 0x17B1 JUMP JUMPDEST PUSH1 0x1 DUP3 ADD SWAP2 POP PUSH2 0x1882 DUP3 DUP6 DUP8 PUSH2 0x1815 JUMP JUMPDEST PUSH1 0x18 DUP3 ADD SWAP2 POP PUSH2 0x1892 DUP3 DUP5 PUSH2 0x183E JUMP JUMPDEST PUSH1 0x20 DUP3 ADD SWAP2 POP DUP2 SWAP1 POP SWAP7 SWAP6 POP POP POP POP POP POP JUMP JUMPDEST PUSH32 0x4E487B7100000000000000000000000000000000000000000000000000000000 PUSH1 0x0 MSTORE PUSH1 0x11 PUSH1 0x4 MSTORE PUSH1 0x24 PUSH1 0x0 REVERT JUMPDEST PUSH1 0x0 PUSH2 0x18DF DUP3 PUSH2 0x1225 JUMP JUMPDEST SWAP2 POP PUSH2 0x18EA DUP4 PUSH2 0x1225 JUMP JUMPDEST SWAP3 POP DUP3 DUP3 MUL PUSH2 0x18F8 DUP2 PUSH2 0x1225 JUMP JUMPDEST SWAP2 POP DUP3 DUP3 DIV DUP5 EQ DUP4 ISZERO OR PUSH2 0x190F JUMPI PUSH2 0x190E PUSH2 0x18A5 JUMP JUMPDEST JUMPDEST POP SWAP3 SWAP2 POP POP JUMP JUMPDEST PUSH32 0x4753303230000000000000000000000000000000000000000000000000000000 PUSH1 0x0 DUP3 ADD MSTORE POP JUMP JUMPDEST PUSH1 0x0 PUSH2 0x194C PUSH1 0x5 DUP4 PUSH2 0x1465 JUMP JUMPDEST SWAP2 POP PUSH2 0x1957 DUP3 PUSH2 0x1916 JUMP JUMPDEST PUSH1 0x20 DUP3 ADD SWAP1 POP SWAP2 SWAP1 POP JUMP JUMPDEST PUSH1 0x0 PUSH1 0x20 DUP3 ADD SWAP1 POP DUP2 DUP2 SUB PUSH1 0x0 DUP4 ADD MSTORE PUSH2 0x197B DUP2 PUSH2 0x193F JUMP JUMPDEST SWAP1 POP SWAP2 SWAP1 POP JUMP JUMPDEST PUSH32 0x4753303231000000000000000000000000000000000000000000000000000000 PUSH1 0x0 DUP3 ADD MSTORE POP JUMP JUMPDEST PUSH1 0x0 PUSH2 0x19B8 PUSH1 0x5 DUP4 PUSH2 0x1465 JUMP JUMPDEST SWAP2 POP PUSH2 0x19C3 DUP3 PUSH2 0x1982 JUMP JUMPDEST PUSH1 0x20 DUP3 ADD SWAP1 POP SWAP2 SWAP1 POP JUMP JUMPDEST PUSH1 0x0 PUSH1 0x20 DUP3 ADD SWAP1 POP DUP2 DUP2 SUB PUSH1 0x0 DUP4 ADD MSTORE PUSH2 0x19E7 DUP2 PUSH2 0x19AB JUMP JUMPDEST SWAP1 POP SWAP2 SWAP1 POP JUMP JUMPDEST PUSH1 0x0 PUSH2 0x19F9 DUP3 PUSH2 0x1225 JUMP JUMPDEST SWAP2 POP PUSH2 0x1A04 DUP4 PUSH2 0x1225 JUMP JUMPDEST SWAP3 POP DUP3 DUP3 ADD SWAP1 POP DUP1 DUP3 GT ISZERO PUSH2 0x1A1C JUMPI PUSH2 0x1A1B PUSH2 0x18A5 JUMP JUMPDEST JUMPDEST SWAP3 SWAP2 POP POP JUMP JUMPDEST PUSH32 0x4753303232000000000000000000000000000000000000000000000000000000 PUSH1 0x0 DUP3 ADD MSTORE POP JUMP JUMPDEST PUSH1 0x0 PUSH2 0x1A58 PUSH1 0x5 DUP4 PUSH2 0x1465 JUMP JUMPDEST SWAP2 POP PUSH2 0x1A63 DUP3 PUSH2 0x1A22 JUMP JUMPDEST PUSH1 0x20 DUP3 ADD SWAP1 POP SWAP2 SWAP1 POP JUMP JUMPDEST PUSH1 0x0 PUSH1 0x20 DUP3 ADD SWAP1 POP DUP2 DUP2 SUB PUSH1 0x0 DUP4 ADD MSTORE PUSH2 0x1A87 DUP2 PUSH2 0x1A4B JUMP JUMPDEST SWAP1 POP SWAP2 SWAP1 POP JUMP JUMPDEST PUSH32 0x6163636573732064656E69656400000000000000000000000000000000000000 PUSH1 0x0 DUP3 ADD MSTORE POP JUMP JUMPDEST PUSH1 0x0 PUSH2 0x1AC4 PUSH1 0xD DUP4 PUSH2 0x1465 JUMP JUMPDEST SWAP2 POP PUSH2 0x1ACF DUP3 PUSH2 0x1A8E JUMP JUMPDEST PUSH1 0x20 DUP3 ADD SWAP1 POP SWAP2 SWAP1 POP JUMP JUMPDEST PUSH1 0x0 PUSH1 0x20 DUP3 ADD SWAP1 POP DUP2 DUP2 SUB PUSH1 0x0 DUP4 ADD MSTORE PUSH2 0x1AF3 DUP2 PUSH2 0x1AB7 JUMP JUMPDEST SWAP1 POP SWAP2 SWAP1 POP JUMP JUMPDEST PUSH1 0x0 DUP2 MLOAD SWAP1 POP SWAP2 SWAP1 POP JUMP JUMPDEST PUSH1 0x0 DUP3 DUP3 MSTORE PUSH1 0x20 DUP3 ADD SWAP1 POP SWAP3 SWAP2 POP POP JUMP JUMPDEST PUSH1 0x0 PUSH2 0x1B21 DUP3 PUSH2 0x1AFA JUMP JUMPDEST PUSH2 0x1B2B DUP2 DUP6 PUSH2 0x1B05 JUMP JUMPDEST SWAP4 POP PUSH2 0x1B3B DUP2 DUP6 PUSH1 0x20 DUP7 ADD PUSH2 0x1476 JUMP JUMPDEST PUSH2 0x1B44 DUP2 PUSH2 0x1040 JUMP JUMPDEST DUP5 ADD SWAP2 POP POP SWAP3 SWAP2 POP POP JUMP JUMPDEST PUSH1 0x0 PUSH1 0x40 DUP3 ADD SWAP1 POP DUP2 DUP2 SUB PUSH1 0x0 DUP4 ADD MSTORE PUSH2 0x1B69 DUP2 DUP6 PUSH2 0x1B16 JUMP JUMPDEST SWAP1 POP DUP2 DUP2 SUB PUSH1 0x20 DUP4 ADD MSTORE PUSH2 0x1B7D DUP2 DUP5 PUSH2 0x1B16 JUMP JUMPDEST SWAP1 POP SWAP4 SWAP3 POP POP POP JUMP JUMPDEST PUSH1 0x0 PUSH32 0xFFFFFFFF00000000000000000000000000000000000000000000000000000000 DUP3 AND SWAP1 POP SWAP2 SWAP1 POP JUMP JUMPDEST PUSH2 0x1BBB DUP2 PUSH2 0x1B86 JUMP JUMPDEST DUP2 EQ PUSH2 0x1BC6 JUMPI PUSH1 0x0 DUP1 REVERT JUMPDEST POP JUMP JUMPDEST PUSH1 0x0 DUP2 MLOAD SWAP1 POP PUSH2 0x1BD8 DUP2 PUSH2 0x1BB2 JUMP JUMPDEST SWAP3 SWAP2 POP POP JUMP JUMPDEST PUSH1 0x0 PUSH1 0x20 DUP3 DUP5 SUB SLT ISZERO PUSH2 0x1BF4 JUMPI PUSH2 0x1BF3 PUSH2 0x102C JUMP JUMPDEST JUMPDEST PUSH1 0x0 PUSH2 0x1C02 DUP5 DUP3 DUP6 ADD PUSH2 0x1BC9 JUMP JUMPDEST SWAP2 POP POP SWAP3 SWAP2 POP POP JUMP JUMPDEST PUSH1 0x0 DUP2 SWAP1 POP SWAP3 SWAP2 POP POP JUMP JUMPDEST PUSH32 0x19457468657265756D205369676E6564204D6573736167653A0A333200000000 PUSH1 0x0 DUP3 ADD MSTORE POP JUMP JUMPDEST PUSH1 0x0 PUSH2 0x1C4C PUSH1 0x1C DUP4 PUSH2 0x1C0B JUMP JUMPDEST SWAP2 POP PUSH2 0x1C57 DUP3 PUSH2 0x1C16 JUMP JUMPDEST PUSH1 0x1C DUP3 ADD SWAP1 POP SWAP2 SWAP1 POP JUMP JUMPDEST PUSH1 0x0 PUSH2 0x1C6D DUP3 PUSH2 0x1C3F JUMP JUMPDEST SWAP2 POP PUSH2 0x1C79 DUP3 DUP5 PUSH2 0x183E JUMP JUMPDEST PUSH1 0x20 DUP3 ADD SWAP2 POP DUP2 SWAP1 POP SWAP3 SWAP2 POP POP JUMP JUMPDEST PUSH1 0x0 PUSH1 0xFF DUP3 AND SWAP1 POP SWAP2 SWAP1 POP JUMP JUMPDEST PUSH1 0x0 PUSH2 0x1CA0 DUP3 PUSH2 0x1C88 JUMP JUMPDEST SWAP2 POP PUSH2 0x1CAB DUP4 PUSH2 0x1C88 JUMP JUMPDEST SWAP3 POP DUP3 DUP3 SUB SWAP1 POP PUSH1 0xFF DUP2 GT ISZERO PUSH2 0x1CC4 JUMPI PUSH2 0x1CC3 PUSH2 0x18A5 JUMP JUMPDEST JUMPDEST SWAP3 SWAP2 POP POP JUMP JUMPDEST PUSH2 0x1CD3 DUP2 PUSH2 0x1C88 JUMP JUMPDEST DUP3 MSTORE POP POP JUMP JUMPDEST PUSH1 0x0 PUSH1 0x80 DUP3 ADD SWAP1 POP PUSH2 0x1CEE PUSH1 0x0 DUP4 ADD DUP8 PUSH2 0x11CF JUMP JUMPDEST PUSH2 0x1CFB PUSH1 0x20 DUP4 ADD DUP7 PUSH2 0x1CCA JUMP JUMPDEST PUSH2 0x1D08 PUSH1 0x40 DUP4 ADD DUP6 PUSH2 0x11CF JUMP JUMPDEST PUSH2 0x1D15 PUSH1 0x60 DUP4 ADD DUP5 PUSH2 0x11CF JUMP JUMPDEST SWAP6 SWAP5 POP POP POP POP POP JUMP JUMPDEST PUSH1 0x0 PUSH2 0x1D29 DUP3 PUSH2 0x1225 JUMP JUMPDEST SWAP2 POP PUSH32 0xFFFFFFFFFFFFFFFFFFFFFFFFFFFFFFFFFFFFFFFFFFFFFFFFFFFFFFFFFFFFFFFF DUP3 SUB PUSH2 0x1D5B JUMPI PUSH2 0x1D5A PUSH2 0x18A5 JUMP JUMPDEST JUMPDEST PUSH1 0x1 DUP3 ADD SWAP1 POP SWAP2 SWAP1 POP JUMP JUMPDEST PUSH1 0x0 PUSH2 0x1D71 DUP3 PUSH2 0x145A JUMP JUMPDEST PUSH2 0x1D7B DUP2 DUP6 PUSH2 0x1C0B JUMP JUMPDEST SWAP4 POP PUSH2 0x1D8B DUP2 DUP6 PUSH1 0x20 DUP7 ADD PUSH2 0x1476 JUMP JUMPDEST DUP1 DUP5 ADD SWAP2 POP POP SWAP3 SWAP2 POP POP JUMP JUMPDEST PUSH1 0x0 PUSH2 0x1DA3 DUP3 DUP6 PUSH2 0x183E JUMP JUMPDEST PUSH1 0x20 DUP3 ADD SWAP2 POP PUSH2 0x1DB3 DUP3 DUP5 PUSH2 0x1D66 JUMP JUMPDEST SWAP2 POP DUP2 SWAP1 POP SWAP4 SWAP3 POP POP POP JUMP JUMPDEST PUSH1 0x0 PUSH1 0x20 DUP3 ADD SWAP1 POP DUP2 DUP2 SUB PUSH1 0x0 DUP4 ADD MSTORE PUSH2 0x1DD9 DUP2 DUP5 PUSH2 0x1B16 JUMP JUMPDEST SWAP1 POP SWAP3 SWAP2 POP POP JUMP JUMPDEST PUSH32 0x4E487B7100000000000000000000000000000000000000000000000000000000 PUSH1 0x0 MSTORE PUSH1 0x22 PUSH1 0x4 MSTORE PUSH1 0x24 PUSH1 0x0 REVERT JUMPDEST PUSH1 0x0 PUSH1 0x2 DUP3 DIV SWAP1 POP PUSH1 0x1 DUP3 AND DUP1 PUSH2 0x1E28 JUMPI PUSH1 0x7F DUP3 AND SWAP2 POP JUMPDEST PUSH1 0x20 DUP3 LT DUP2 SUB PUSH2 0x1E3B JUMPI PUSH2 0x1E3A PUSH2 0x1DE1 JUMP JUMPDEST JUMPDEST POP SWAP2 SWAP1 POP JUMP JUMPDEST PUSH1 0x0 DUP2 SWAP1 POP SWAP3 SWAP2 POP POP JUMP JUMPDEST PUSH1 0x0 PUSH2 0x1E58 DUP4 DUP6 PUSH2 0x1E41 JUMP JUMPDEST SWAP4 POP PUSH2 0x1E65 DUP4 DUP6 DUP5 PUSH2 0x10FD JUMP JUMPDEST DUP3 DUP5 ADD SWAP1 POP SWAP4 SWAP3 POP POP POP JUMP JUMPDEST PUSH1 0x0 PUSH2 0x1E7E DUP3 DUP5 DUP7 PUSH2 0x1E4C JUMP JUMPDEST SWAP2 POP DUP2 SWAP1 POP SWAP4 SWAP3 POP POP POP JUMP JUMPDEST PUSH1 0x0 PUSH2 0x1E96 DUP3 DUP8 PUSH2 0x17B1 JUMP JUMPDEST PUSH1 0x1 DUP3 ADD SWAP2 POP PUSH2 0x1EA6 DUP3 DUP7 PUSH2 0x17B1 JUMP JUMPDEST PUSH1 0x1 DUP3 ADD SWAP2 POP PUSH2 0x1EB6 DUP3 DUP6 PUSH2 0x183E JUMP JUMPDEST PUSH1 0x20 DUP3 ADD SWAP2 POP PUSH2 0x1EC6 DUP3 DUP5 PUSH2 0x183E JUMP JUMPDEST PUSH1 0x20 DUP3 ADD SWAP2 POP DUP2 SWAP1 POP SWAP6 SWAP5 POP POP POP POP POP JUMP JUMPDEST PUSH32 0x4F776E61626C653A206E6577206F776E657220697320746865207A65726F2061 PUSH1 0x0 DUP3 ADD MSTORE PUSH32 0x6464726573730000000000000000000000000000000000000000000000000000 PUSH1 0x20 DUP3 ADD MSTORE POP JUMP JUMPDEST PUSH1 0x0 PUSH2 0x1F34 PUSH1 0x26 DUP4 PUSH2 0x1465 JUMP JUMPDEST SWAP2 POP PUSH2 0x1F3F DUP3 PUSH2 0x1ED8 JUMP JUMPDEST PUSH1 0x40 DUP3 ADD SWAP1 POP SWAP2 SWAP1 POP JUMP JUMPDEST PUSH1 0x0 PUSH1 0x20 DUP3 ADD SWAP1 POP DUP2 DUP2 SUB PUSH1 0x0 DUP4 ADD MSTORE PUSH2 0x1F63 DUP2 PUSH2 0x1F27 JUMP JUMPDEST SWAP1 POP SWAP2 SWAP1 POP JUMP JUMPDEST PUSH32 0x4F776E61626C653A2063616C6C6572206973206E6F7420746865206F776E6572 PUSH1 0x0 DUP3 ADD MSTORE POP JUMP JUMPDEST PUSH1 0x0 PUSH2 0x1FA0 PUSH1 0x20 DUP4 PUSH2 0x1465 JUMP JUMPDEST SWAP2 POP PUSH2 0x1FAB DUP3 PUSH2 0x1F6A JUMP JUMPDEST PUSH1 0x20 DUP3 ADD SWAP1 POP SWAP2 SWAP1 POP JUMP JUMPDEST PUSH1 0x0 PUSH1 0x20 DUP3 ADD SWAP1 POP DUP2 DUP2 SUB PUSH1 0x0 DUP4 ADD MSTORE PUSH2 0x1FCF DUP2 PUSH2 0x1F93 JUMP JUMPDEST SWAP1 POP SWAP2 SWAP1 POP JUMP JUMPDEST PUSH32 0x696E76616C69642064617461206B657900000000000000000000000000000000 PUSH1 0x0 DUP3 ADD MSTORE POP JUMP JUMPDEST PUSH1 0x0 PUSH2 0x200C PUSH1 0x10 DUP4 PUSH2 0x1465 JUMP JUMPDEST SWAP2 POP PUSH2 0x2017 DUP3 PUSH2 0x1FD6 JUMP JUMPDEST PUSH1 0x20 DUP3 ADD SWAP1 POP SWAP2 SWAP1 POP JUMP JUMPDEST PUSH1 0x0 PUSH1 0x20 DUP3 ADD SWAP1 POP DUP2 DUP2 SUB PUSH1 0x0 DUP4 ADD MSTORE PUSH2 0x203B DUP2 PUSH2 0x1FFF JUMP JUMPDEST SWAP1 POP SWAP2 SWAP1 POP JUMP JUMPDEST PUSH1 0x0 PUSH1 0xA0 DUP3 ADD SWAP1 POP PUSH2 0x2057 PUSH1 0x0 DUP4 ADD DUP9 PUSH2 0x11CF JUMP JUMPDEST PUSH2 0x2064 PUSH1 0x20 DUP4 ADD DUP8 PUSH2 0x11CF JUMP JUMPDEST PUSH2 0x2071 PUSH1 0x40 DUP4 ADD DUP7 PUSH2 0x11CF JUMP JUMPDEST PUSH2 0x207E PUSH1 0x60 DUP4 ADD DUP6 PUSH2 0x14FB JUMP JUMPDEST PUSH2 0x208B PUSH1 0x80 DUP4 ADD DUP5 PUSH2 0x1670 JUMP JUMPDEST SWAP7 SWAP6 POP POP POP POP POP POP JUMP INVALID LOG2 PUSH5 0x6970667358 0x22 SLT KECCAK256 0xAA RETURN 0x4F DUP5 0xCD 0xD5 0xDD 0x49 PUSH5 0x22CCCC92C4 CODECOPY DUP14 DUP7 CALLDATALOAD 0xF8 ORIGIN 0xD5 SWAP9 PUSH11 0x5A6FAACDD41A2C40D6473 PUSH16 0x6C634300081100330000000000000000 "
				},
				"gasEstimates": {
					"creation": {
						"codeDepositCost": "1679000",
						"executionCost": "infinite",
						"totalCost": "infinite"
					},
					"external": {
						"approveHash(bytes32)": "24247",
						"approvedHashes(address,bytes32)": "3139",
						"checkNSignatures(bytes32,bytes,bytes,uint256)": "infinite",
						"checkSignatures(bytes32,bytes,bytes)": "infinite",
						"domainSeparator()": "2517",
						"getData(bytes32)": "infinite",
						"getDomainSeparator()": "infinite",
						"getMessageHash(bytes)": "infinite",
						"owner()": "2567",
						"renounceOwnership()": "30465",
						"setData(bytes32,string)": "infinite",
						"signMessage(bytes)": "infinite",
						"signedMessages(bytes32)": "2810",
						"transferOwnership(address)": "30810"
					},
					"internal": {
						"checkDataExists(bytes32)": "infinite",
						"checkDataNotExists(bytes32)": "infinite"
					}
				},
				"methodIdentifiers": {
					"approveHash(bytes32)": "d4d9bdcd",
					"approvedHashes(address,bytes32)": "7d832974",
					"checkNSignatures(bytes32,bytes,bytes,uint256)": "12fb68e0",
					"checkSignatures(bytes32,bytes,bytes)": "934f3a11",
					"domainSeparator()": "f698da25",
					"getData(bytes32)": "54f6127f",
					"getDomainSeparator()": "ed24911d",
					"getMessageHash(bytes)": "0a1028c4",
					"owner()": "8da5cb5b",
					"renounceOwnership()": "715018a6",
					"setData(bytes32,string)": "2d3e6536",
					"signMessage(bytes)": "85a5affe",
					"signedMessages(bytes32)": "5ae6bd37",
					"transferOwnership(address)": "f2fde38b"
				}
			},
			"storageLayout": {
				"storage": [
					{
						"astId": 7,
						"contract": "contracts/registry/Identity.sol:Identity",
						"label": "_owner",
						"offset": 0,
						"slot": "0",
						"type": "t_address"
					},
					{
						"astId": 942,
						"contract": "contracts/registry/Identity.sol:Identity",
						"label": "approvedHashes",
						"offset": 0,
						"slot": "1",
						"type": "t_mapping(t_address,t_mapping(t_bytes32,t_uint256))"
					},
					{
						"astId": 944,
						"contract": "contracts/registry/Identity.sol:Identity",
						"label": "domainSeparator",
						"offset": 0,
						"slot": "2",
						"type": "t_bytes32"
					},
					{
						"astId": 948,
						"contract": "contracts/registry/Identity.sol:Identity",
						"label": "signedMessages",
						"offset": 0,
						"slot": "3",
						"type": "t_mapping(t_bytes32,t_uint256)"
					},
					{
						"astId": 1299,
						"contract": "contracts/registry/Identity.sol:Identity",
						"label": "nonce",
						"offset": 0,
						"slot": "4",
						"type": "t_uint256"
					},
					{
						"astId": 1306,
						"contract": "contracts/registry/Identity.sol:Identity",
						"label": "_kvStore",
						"offset": 0,
						"slot": "5",
						"type": "t_mapping(t_bytes32,t_string_storage)"
					},
					{
						"astId": 1310,
						"contract": "contracts/registry/Identity.sol:Identity",
						"label": "_strToKey",
						"offset": 0,
						"slot": "6",
						"type": "t_mapping(t_string_memory_ptr,t_bytes32)"
					},
					{
						"astId": 1314,
						"contract": "contracts/registry/Identity.sol:Identity",
						"label": "_keyExists",
						"offset": 0,
						"slot": "7",
						"type": "t_mapping(t_bytes32,t_bool)"
					}
				],
				"types": {
					"t_address": {
						"encoding": "inplace",
						"label": "address",
						"numberOfBytes": "20"
					},
					"t_bool": {
						"encoding": "inplace",
						"label": "bool",
						"numberOfBytes": "1"
					},
					"t_bytes32": {
						"encoding": "inplace",
						"label": "bytes32",
						"numberOfBytes": "32"
					},
					"t_mapping(t_address,t_mapping(t_bytes32,t_uint256))": {
						"encoding": "mapping",
						"key": "t_address",
						"label": "mapping(address => mapping(bytes32 => uint256))",
						"numberOfBytes": "32",
						"value": "t_mapping(t_bytes32,t_uint256)"
					},
					"t_mapping(t_bytes32,t_bool)": {
						"encoding": "mapping",
						"key": "t_bytes32",
						"label": "mapping(bytes32 => bool)",
						"numberOfBytes": "32",
						"value": "t_bool"
					},
					"t_mapping(t_bytes32,t_string_storage)": {
						"encoding": "mapping",
						"key": "t_bytes32",
						"label": "mapping(bytes32 => string)",
						"numberOfBytes": "32",
						"value": "t_string_storage"
					},
					"t_mapping(t_bytes32,t_uint256)": {
						"encoding": "mapping",
						"key": "t_bytes32",
						"label": "mapping(bytes32 => uint256)",
						"numberOfBytes": "32",
						"value": "t_uint256"
					},
					"t_mapping(t_string_memory_ptr,t_bytes32)": {
						"encoding": "mapping",
						"key": "t_string_memory_ptr",
						"label": "mapping(string => bytes32)",
						"numberOfBytes": "32",
						"value": "t_bytes32"
					},
					"t_string_memory_ptr": {
						"encoding": "bytes",
						"label": "string",
						"numberOfBytes": "32"
					},
					"t_string_storage": {
						"encoding": "bytes",
						"label": "string",
						"numberOfBytes": "32"
					},
					"t_uint256": {
						"encoding": "inplace",
						"label": "uint256",
						"numberOfBytes": "32"
					}
				}
			},
			"userdoc": {
				"kind": "user",
				"methods": {},
				"version": 1
			}
		}
	}
}