{
  "_format": "hh-sol-artifact-1",
  "contractName": "ERC2055",
  "sourceName": "contracts/tokens/ERC2055/ERC2055.sol",
  "abi": [
    {
      "inputs": [
        {
          "internalType": "string",
          "name": "_name",
          "type": "string"
        },
        {
          "internalType": "string",
          "name": "_symbol",
          "type": "string"
        }
      ],
      "stateMutability": "nonpayable",
      "type": "constructor"
    },
    {
      "anonymous": false,
      "inputs": [
        {
          "indexed": true,
          "internalType": "address",
          "name": "owner",
          "type": "address"
        },
        {
          "indexed": true,
          "internalType": "address",
          "name": "spender",
          "type": "address"
        },
        {
          "indexed": false,
          "internalType": "uint256",
          "name": "value",
          "type": "uint256"
        }
      ],
      "name": "Approval",
      "type": "event"
    },
    {
      "anonymous": false,
      "inputs": [
        {
          "indexed": true,
          "internalType": "address",
          "name": "from",
          "type": "address"
        },
        {
          "indexed": true,
          "internalType": "address",
          "name": "to",
          "type": "address"
        },
        {
          "indexed": false,
          "internalType": "uint256",
          "name": "value",
          "type": "uint256"
        }
      ],
      "name": "Transfer",
      "type": "event"
    },
    {
      "inputs": [],
      "name": "_totalSupply",
      "outputs": [
        {
          "internalType": "uint256",
          "name": "",
          "type": "uint256"
        }
      ],
      "stateMutability": "view",
      "type": "function"
    },
    {
      "inputs": [
        {
          "internalType": "address",
          "name": "_owner",
          "type": "address"
        },
        {
          "internalType": "address",
          "name": "spender",
          "type": "address"
        }
      ],
      "name": "allowance",
      "outputs": [
        {
          "internalType": "uint256",
          "name": "",
          "type": "uint256"
        }
      ],
      "stateMutability": "view",
      "type": "function"
    },
    {
      "inputs": [
        {
          "internalType": "address",
          "name": "spender",
          "type": "address"
        },
        {
          "internalType": "uint256",
          "name": "amount",
          "type": "uint256"
        }
      ],
      "name": "approve",
      "outputs": [
        {
          "internalType": "bool",
          "name": "",
          "type": "bool"
        }
      ],
      "stateMutability": "nonpayable",
      "type": "function"
    },
    {
      "inputs": [
        {
          "internalType": "address",
          "name": "account",
          "type": "address"
        }
      ],
      "name": "balanceOf",
      "outputs": [
        {
          "internalType": "uint256",
          "name": "",
          "type": "uint256"
        }
      ],
      "stateMutability": "view",
      "type": "function"
    },
    {
      "inputs": [],
      "name": "decimals",
      "outputs": [
        {
          "internalType": "uint8",
          "name": "",
          "type": "uint8"
        }
      ],
      "stateMutability": "view",
      "type": "function"
    },
    {
      "inputs": [
        {
          "internalType": "address",
          "name": "spender",
          "type": "address"
        },
        {
          "internalType": "uint256",
          "name": "subtractedValue",
          "type": "uint256"
        }
      ],
      "name": "decreaseAllowance",
      "outputs": [
        {
          "internalType": "bool",
          "name": "",
          "type": "bool"
        }
      ],
      "stateMutability": "nonpayable",
      "type": "function"
    },
    {
      "inputs": [
        {
          "internalType": "address",
          "name": "spender",
          "type": "address"
        },
        {
          "internalType": "uint256",
          "name": "addedValue",
          "type": "uint256"
        }
      ],
      "name": "increaseAllowance",
      "outputs": [
        {
          "internalType": "bool",
          "name": "",
          "type": "bool"
        }
      ],
      "stateMutability": "nonpayable",
      "type": "function"
    },
    {
      "inputs": [],
      "name": "isLocked",
      "outputs": [
        {
          "internalType": "bool",
          "name": "",
          "type": "bool"
        }
      ],
      "stateMutability": "view",
      "type": "function"
    },
    {
      "inputs": [
        {
          "internalType": "uint256",
          "name": "until",
          "type": "uint256"
        }
      ],
      "name": "lockToken",
      "outputs": [],
      "stateMutability": "nonpayable",
      "type": "function"
    },
    {
      "inputs": [],
      "name": "lockedUntil",
      "outputs": [
        {
          "internalType": "uint256",
          "name": "",
          "type": "uint256"
        }
      ],
      "stateMutability": "view",
      "type": "function"
    },
    {
      "inputs": [],
      "name": "maxSupply",
      "outputs": [
        {
          "internalType": "uint256",
          "name": "",
          "type": "uint256"
        }
      ],
      "stateMutability": "view",
      "type": "function"
    },
    {
      "inputs": [],
      "name": "name",
      "outputs": [
        {
          "internalType": "string",
          "name": "",
          "type": "string"
        }
      ],
      "stateMutability": "view",
      "type": "function"
    },
    {
      "inputs": [],
      "name": "onERC2055Receive",
      "outputs": [],
      "stateMutability": "nonpayable",
      "type": "function"
    },
    {
      "inputs": [],
      "name": "owner",
      "outputs": [
        {
          "internalType": "address",
          "name": "",
          "type": "address"
        }
      ],
      "stateMutability": "view",
      "type": "function"
    },
    {
      "inputs": [
        {
          "internalType": "uint256",
          "name": "amount",
          "type": "uint256"
        },
        {
          "internalType": "address",
          "name": "to",
          "type": "address"
        }
      ],
      "name": "safeBurn",
      "outputs": [
        {
          "internalType": "bool",
          "name": "",
          "type": "bool"
        }
      ],
      "stateMutability": "nonpayable",
      "type": "function"
    },
    {
      "inputs": [
        {
          "internalType": "uint256",
          "name": "amount",
          "type": "uint256"
        },
        {
          "internalType": "address",
          "name": "to",
          "type": "address"
        }
      ],
      "name": "safeMint",
      "outputs": [
        {
          "internalType": "bool",
          "name": "",
          "type": "bool"
        }
      ],
      "stateMutability": "nonpayable",
      "type": "function"
    },
    {
      "inputs": [
        {
          "internalType": "address",
          "name": "tokenAddress",
          "type": "address"
        },
        {
          "internalType": "address",
          "name": "to",
          "type": "address"
        }
      ],
      "name": "safeMint",
      "outputs": [
        {
          "internalType": "bool",
          "name": "",
          "type": "bool"
        }
      ],
      "stateMutability": "nonpayable",
      "type": "function"
    },
    {
      "inputs": [
        {
          "internalType": "address",
          "name": "token",
          "type": "address"
        },
        {
          "internalType": "address",
          "name": "receiver",
          "type": "address"
        },
        {
          "internalType": "uint256",
          "name": "amount",
          "type": "uint256"
        }
      ],
      "name": "safeTransferToken",
      "outputs": [
        {
          "internalType": "bool",
          "name": "transferred",
          "type": "bool"
        }
      ],
      "stateMutability": "nonpayable",
      "type": "function"
    },
    {
      "inputs": [
        {
          "internalType": "uint256",
          "name": "supply",
          "type": "uint256"
        }
      ],
      "name": "setMaxSupply",
      "outputs": [],
      "stateMutability": "nonpayable",
      "type": "function"
    },
    {
      "inputs": [
        {
          "internalType": "uint256",
          "name": "supply",
          "type": "uint256"
        }
      ],
      "name": "setTotalSupply",
      "outputs": [],
      "stateMutability": "nonpayable",
      "type": "function"
    },
    {
      "inputs": [
        {
          "internalType": "bytes4",
          "name": "interfaceID",
          "type": "bytes4"
        }
      ],
      "name": "supportedTokenInterfaces",
      "outputs": [
        {
          "internalType": "bool",
          "name": "",
          "type": "bool"
        }
      ],
      "stateMutability": "view",
      "type": "function"
    },
    {
      "inputs": [],
      "name": "symbol",
      "outputs": [
        {
          "internalType": "string",
          "name": "",
          "type": "string"
        }
      ],
      "stateMutability": "view",
      "type": "function"
    },
    {
      "inputs": [],
      "name": "totalSupply",
      "outputs": [
        {
          "internalType": "uint256",
          "name": "",
          "type": "uint256"
        }
      ],
      "stateMutability": "view",
      "type": "function"
    },
    {
      "inputs": [
        {
          "internalType": "address",
          "name": "to",
          "type": "address"
        },
        {
          "internalType": "uint256",
          "name": "amount",
          "type": "uint256"
        }
      ],
      "name": "transfer",
      "outputs": [
        {
          "internalType": "bool",
          "name": "",
          "type": "bool"
        }
      ],
      "stateMutability": "nonpayable",
      "type": "function"
    },
    {
      "inputs": [
        {
          "internalType": "address",
          "name": "from",
          "type": "address"
        },
        {
          "internalType": "address",
          "name": "to",
          "type": "address"
        },
        {
          "internalType": "uint256",
          "name": "amount",
          "type": "uint256"
        }
      ],
      "name": "transferFrom",
      "outputs": [
        {
          "internalType": "bool",
          "name": "",
          "type": "bool"
        }
      ],
      "stateMutability": "nonpayable",
      "type": "function"
    },
    {
      "inputs": [],
      "name": "unlockToken",
      "outputs": [],
      "stateMutability": "nonpayable",
      "type": "function"
    },
    {
      "inputs": [
        {
          "internalType": "address",
          "name": "tokenAddress1",
          "type": "address"
        }
      ],
      "name": "upgradeERC20ToERC2055",
      "outputs": [
        {
          "internalType": "contract IERC2055",
          "name": "",
          "type": "address"
        }
      ],
      "stateMutability": "nonpayable",
      "type": "function"
    }
  ],
  "bytecode": "0x60806040523480156200001157600080fd5b50604051620026b6380380620026b6833981810160405281019062000037919062000253565b816000908162000048919062000523565b5080600190816200005a919062000523565b5033600560006101000a81548173ffffffffffffffffffffffffffffffffffffffff021916908373ffffffffffffffffffffffffffffffffffffffff1602179055506012600260006101000a81548160ff021916908360ff16021790555050506200060a565b6000604051905090565b600080fd5b600080fd5b600080fd5b600080fd5b6000601f19601f8301169050919050565b7f4e487b7100000000000000000000000000000000000000000000000000000000600052604160045260246000fd5b6200012982620000de565b810181811067ffffffffffffffff821117156200014b576200014a620000ef565b5b80604052505050565b600062000160620000c0565b90506200016e82826200011e565b919050565b600067ffffffffffffffff821115620001915762000190620000ef565b5b6200019c82620000de565b9050602081019050919050565b60005b83811015620001c9578082015181840152602081019050620001ac565b60008484015250505050565b6000620001ec620001e68462000173565b62000154565b9050828152602081018484840111156200020b576200020a620000d9565b5b62000218848285620001a9565b509392505050565b600082601f830112620002385762000237620000d4565b5b81516200024a848260208601620001d5565b91505092915050565b600080604083850312156200026d576200026c620000ca565b5b600083015167ffffffffffffffff8111156200028e576200028d620000cf565b5b6200029c8582860162000220565b925050602083015167ffffffffffffffff811115620002c057620002bf620000cf565b5b620002ce8582860162000220565b9150509250929050565b600081519050919050565b7f4e487b7100000000000000000000000000000000000000000000000000000000600052602260045260246000fd5b600060028204905060018216806200032b57607f821691505b602082108103620003415762000340620002e3565b5b50919050565b60008190508160005260206000209050919050565b60006020601f8301049050919050565b600082821b905092915050565b600060088302620003ab7fffffffffffffffffffffffffffffffffffffffffffffffffffffffffffffffff826200036c565b620003b786836200036c565b95508019841693508086168417925050509392505050565b6000819050919050565b6000819050919050565b600062000404620003fe620003f884620003cf565b620003d9565b620003cf565b9050919050565b6000819050919050565b6200042083620003e3565b620004386200042f826200040b565b84845462000379565b825550505050565b600090565b6200044f62000440565b6200045c81848462000415565b505050565b5b8181101562000484576200047860008262000445565b60018101905062000462565b5050565b601f821115620004d3576200049d8162000347565b620004a8846200035c565b81016020851015620004b8578190505b620004d0620004c7856200035c565b83018262000461565b50505b505050565b600082821c905092915050565b6000620004f860001984600802620004d8565b1980831691505092915050565b6000620005138383620004e5565b9150826002028217905092915050565b6200052e82620002d8565b67ffffffffffffffff8111156200054a5762000549620000ef565b5b62000556825462000312565b6200056382828562000488565b600060209050601f8311600181146200059b576000841562000586578287015190505b62000592858262000505565b86555062000602565b601f198416620005ab8662000347565b60005b82811015620005d557848901518255600182019150602085019450602081019050620005ae565b86831015620005f55784890151620005f1601f891682620004e5565b8355505b6001600288020188555050505b505050505050565b61209c806200061a6000396000f3fe608060405234801561001057600080fd5b50600436106101a95760003560e01c806380f20363116100f9578063b076a18a11610097578063d5abeb0111610071578063d5abeb01146104fa578063dd62ed3e14610518578063e59aee0c14610548578063f7ea7a3d14610578576101a9565b8063b076a18a1461047c578063ce0617ec146104ac578063d1e5a77d146104ca576101a9565b806395d89b41116100d357806395d89b41146103e0578063a457c2d7146103fe578063a4e2d6341461042e578063a9059cbb1461044c576101a9565b806380f203631461039c57806383537058146103b85780638da5cb5b146103c2576101a9565b8063313ce567116101665780634ff6efdb116101405780634ff6efdb146102f057806362bdfceb146103205780636f8b44b01461035057806370a082311461036c576101a9565b8063313ce5671461028457806339509351146102a25780633eaaf86b146102d2576101a9565b806301410427146101ae57806306fdde03146101de578063095ea7b3146101fc57806318160ddd1461022c57806318a24b5b1461024a57806323b872dd14610254575b600080fd5b6101c860048036038101906101c391906114b5565b610594565b6040516101d591906114fd565b60405180910390f35b6101e6610602565b6040516101f391906115a8565b60405180910390f35b6102166004803603810190610211919061165e565b610690565b60405161022391906114fd565b60405180910390f35b610234610737565b60405161024191906116ad565b60405180910390f35b610252610741565b005b61026e600480360381019061026991906116c8565b6107a3565b60405161027b91906114fd565b60405180910390f35b61028c6107bb565b6040516102999190611737565b60405180910390f35b6102bc60048036038101906102b7919061165e565b6107ce565b6040516102c991906114fd565b60405180910390f35b6102da610820565b6040516102e791906116ad565b60405180910390f35b61030a60048036038101906103059190611752565b610826565b60405161031791906117de565b60405180910390f35b61033a600480360381019061033591906117f9565b61082d565b60405161034791906114fd565b60405180910390f35b61036a60048036038101906103659190611839565b610a68565b005b61038660048036038101906103819190611752565b610b02565b60405161039391906116ad565b60405180910390f35b6103b660048036038101906103b19190611839565b610b4b565b005b6103c0610c56565b005b6103ca610c58565b6040516103d79190611875565b60405180910390f35b6103e8610c7e565b6040516103f591906115a8565b60405180910390f35b6104186004803603810190610413919061165e565b610d0c565b60405161042591906114fd565b60405180910390f35b610436610d9e565b60405161044391906114fd565b60405180910390f35b6104666004803603810190610461919061165e565b610db1565b60405161047391906114fd565b60405180910390f35b610496600480360381019061049191906116c8565b610e3e565b6040516104a391906114fd565b60405180910390f35b6104b4610ee6565b6040516104c191906116ad565b60405180910390f35b6104e460048036038101906104df91906117f9565b610eec565b6040516104f191906114fd565b60405180910390f35b610502610ef4565b60405161050f91906116ad565b60405180910390f35b610532600480360381019061052d9190611890565b610efa565b60405161053f91906116ad565b60405180910390f35b610562600480360381019061055d9190611890565b610f81565b60405161056f91906114fd565b60405180910390f35b610592600480360381019061058d9190611839565b610f89565b005b60006040516020016105a590611927565b604051602081830303815290604052805190602001207bffffffffffffffffffffffffffffffffffffffffffffffffffffffff1916827bffffffffffffffffffffffffffffffffffffffffffffffffffffffff1916149050919050565b6000805461060f9061196b565b80601f016020809104026020016040519081016040528092919081815260200182805461063b9061196b565b80156106885780601f1061065d57610100808354040283529160200191610688565b820191906000526020600020905b81548152906001019060200180831161066b57829003601f168201915b505050505081565b6000600560009054906101000a900473ffffffffffffffffffffffffffffffffffffffff1673ffffffffffffffffffffffffffffffffffffffff163373ffffffffffffffffffffffffffffffffffffffff1614610722576040517f08c379a0000000000000000000000000000000000000000000000000000000008152600401610719906119e8565b60405180910390fd5b61072d308484611023565b6001905092915050565b6000600354905090565b600654421115610786576040517f08c379a000000000000000000000000000000000000000000000000000000000815260040161077d90611a54565b60405180910390fd5b6000600560146101000a81548160ff021916908315150217905550565b60006107b08484846111ec565b600190509392505050565b600260009054906101000a900460ff1681565b600080600560009054906101000a900473ffffffffffffffffffffffffffffffffffffffff1690506108158185856108068589610efa565b6108109190611aa3565b611023565b600191505092915050565b60035481565b6000919050565b6000600560009054906101000a900473ffffffffffffffffffffffffffffffffffffffff1673ffffffffffffffffffffffffffffffffffffffff163373ffffffffffffffffffffffffffffffffffffffff16146108bf576040517f08c379a00000000000000000000000000000000000000000000000000000000081526004016108b6906119e8565b60405180910390fd5b600454831115610904576040517f08c379a00000000000000000000000000000000000000000000000000000000081526004016108fb90611b49565b60405180910390fd5b60008303610947576040517f08c379a000000000000000000000000000000000000000000000000000000000815260040161093e90611bb5565b60405180910390fd5b60006003540361095d5782600381905550610977565b826003600082825461096f9190611aa3565b925050819055505b6000600760008473ffffffffffffffffffffffffffffffffffffffff1673ffffffffffffffffffffffffffffffffffffffff1681526020019081526020016000205403610a075782600760008473ffffffffffffffffffffffffffffffffffffffff1673ffffffffffffffffffffffffffffffffffffffff16815260200190815260200160002081905550610a5e565b82600760008473ffffffffffffffffffffffffffffffffffffffff1673ffffffffffffffffffffffffffffffffffffffff1681526020019081526020016000206000828254610a569190611aa3565b925050819055505b6001905092915050565b600560009054906101000a900473ffffffffffffffffffffffffffffffffffffffff1673ffffffffffffffffffffffffffffffffffffffff163373ffffffffffffffffffffffffffffffffffffffff1614610af8576040517f08c379a0000000000000000000000000000000000000000000000000000000008152600401610aef906119e8565b60405180910390fd5b8060048190555050565b6000600760008373ffffffffffffffffffffffffffffffffffffffff1673ffffffffffffffffffffffffffffffffffffffff168152602001908152602001600020549050919050565b600560009054906101000a900473ffffffffffffffffffffffffffffffffffffffff1673ffffffffffffffffffffffffffffffffffffffff163373ffffffffffffffffffffffffffffffffffffffff1614610bdb576040517f08c379a0000000000000000000000000000000000000000000000000000000008152600401610bd2906119e8565b60405180910390fd5b60011515600560149054906101000a900460ff16151503610c31576040517f08c379a0000000000000000000000000000000000000000000000000000000008152600401610c2890611c21565b60405180910390fd5b6001600560146101000a81548160ff0219169083151502179055508060068190555050565b565b600560009054906101000a900473ffffffffffffffffffffffffffffffffffffffff1681565b60018054610c8b9061196b565b80601f0160208091040260200160405190810160405280929190818152602001828054610cb79061196b565b8015610d045780601f10610cd957610100808354040283529160200191610d04565b820191906000526020600020905b815481529060010190602001808311610ce757829003601f168201915b505050505081565b600080600560009054906101000a900473ffffffffffffffffffffffffffffffffffffffff1690506000610d408286610efa565b905083811015610d85576040517f08c379a0000000000000000000000000000000000000000000000000000000008152600401610d7c90611cb3565b60405180910390fd5b610d928286868403611023565b60019250505092915050565b600560149054906101000a900460ff1681565b60003073ffffffffffffffffffffffffffffffffffffffff1663b076a18a3085856040518463ffffffff1660e01b8152600401610df093929190611cd3565b6020604051808303816000875af1158015610e0f573d6000803e3d6000fd5b505050506040513d601f19601f82011682018060405250810190610e339190611d36565b506001905092915050565b60008063a9059cbb8484604051602401610e59929190611d63565b6040516020818303038152906040529060e01b6020820180517bffffffffffffffffffffffffffffffffffffffffffffffffffffffff83818316178352505050509050602060008251602084016000896127105a03f13d60008114610ec95760208114610ed15760009350610edc565b819350610edc565b600051158215171593505b5050509392505050565b60065481565b600092915050565b60045481565b6000600860008473ffffffffffffffffffffffffffffffffffffffff1673ffffffffffffffffffffffffffffffffffffffff16815260200190815260200160002060008373ffffffffffffffffffffffffffffffffffffffff1673ffffffffffffffffffffffffffffffffffffffff16815260200190815260200160002054905092915050565b600092915050565b600560009054906101000a900473ffffffffffffffffffffffffffffffffffffffff1673ffffffffffffffffffffffffffffffffffffffff163373ffffffffffffffffffffffffffffffffffffffff1614611019576040517f08c379a0000000000000000000000000000000000000000000000000000000008152600401611010906119e8565b60405180910390fd5b8060038190555050565b600073ffffffffffffffffffffffffffffffffffffffff168373ffffffffffffffffffffffffffffffffffffffff1603611092576040517f08c379a000000000000000000000000000000000000000000000000000000000815260040161108990611dfe565b60405180910390fd5b600073ffffffffffffffffffffffffffffffffffffffff168273ffffffffffffffffffffffffffffffffffffffff1603611101576040517f08c379a00000000000000000000000000000000000000000000000000000000081526004016110f890611e90565b60405180910390fd5b80600860008573ffffffffffffffffffffffffffffffffffffffff1673ffffffffffffffffffffffffffffffffffffffff16815260200190815260200160002060008473ffffffffffffffffffffffffffffffffffffffff1673ffffffffffffffffffffffffffffffffffffffff168152602001908152602001600020819055508173ffffffffffffffffffffffffffffffffffffffff168373ffffffffffffffffffffffffffffffffffffffff167f8c5be1e5ebec7d5bd14f71427d1e84f3dd0314c0f7b2291e5b200ac8c7c3b925836040516111df91906116ad565b60405180910390a3505050565b600073ffffffffffffffffffffffffffffffffffffffff168373ffffffffffffffffffffffffffffffffffffffff160361125b576040517f08c379a000000000000000000000000000000000000000000000000000000000815260040161125290611f22565b60405180910390fd5b600073ffffffffffffffffffffffffffffffffffffffff168273ffffffffffffffffffffffffffffffffffffffff16036112ca576040517f08c379a00000000000000000000000000000000000000000000000000000000081526004016112c190611fb4565b60405180910390fd5b6000600760008573ffffffffffffffffffffffffffffffffffffffff1673ffffffffffffffffffffffffffffffffffffffff16815260200190815260200160002054905081811015611351576040517f08c379a000000000000000000000000000000000000000000000000000000000815260040161134890612046565b60405180910390fd5b818103600760008673ffffffffffffffffffffffffffffffffffffffff1673ffffffffffffffffffffffffffffffffffffffff1681526020019081526020016000208190555081600760008573ffffffffffffffffffffffffffffffffffffffff1673ffffffffffffffffffffffffffffffffffffffff16815260200190815260200160002060008282546113e69190611aa3565b925050819055508273ffffffffffffffffffffffffffffffffffffffff168473ffffffffffffffffffffffffffffffffffffffff167fddf252ad1be2c89b69c2b068fc378daa952ba7f163c4a11628f55a4df523b3ef8460405161144a91906116ad565b60405180910390a350505050565b600080fd5b60007fffffffff0000000000000000000000000000000000000000000000000000000082169050919050565b6114928161145d565b811461149d57600080fd5b50565b6000813590506114af81611489565b92915050565b6000602082840312156114cb576114ca611458565b5b60006114d9848285016114a0565b91505092915050565b60008115159050919050565b6114f7816114e2565b82525050565b600060208201905061151260008301846114ee565b92915050565b600081519050919050565b600082825260208201905092915050565b60005b83811015611552578082015181840152602081019050611537565b60008484015250505050565b6000601f19601f8301169050919050565b600061157a82611518565b6115848185611523565b9350611594818560208601611534565b61159d8161155e565b840191505092915050565b600060208201905081810360008301526115c2818461156f565b905092915050565b600073ffffffffffffffffffffffffffffffffffffffff82169050919050565b60006115f5826115ca565b9050919050565b611605816115ea565b811461161057600080fd5b50565b600081359050611622816115fc565b92915050565b6000819050919050565b61163b81611628565b811461164657600080fd5b50565b60008135905061165881611632565b92915050565b6000806040838503121561167557611674611458565b5b600061168385828601611613565b925050602061169485828601611649565b9150509250929050565b6116a781611628565b82525050565b60006020820190506116c2600083018461169e565b92915050565b6000806000606084860312156116e1576116e0611458565b5b60006116ef86828701611613565b935050602061170086828701611613565b925050604061171186828701611649565b9150509250925092565b600060ff82169050919050565b6117318161171b565b82525050565b600060208201905061174c6000830184611728565b92915050565b60006020828403121561176857611767611458565b5b600061177684828501611613565b91505092915050565b6000819050919050565b60006117a461179f61179a846115ca565b61177f565b6115ca565b9050919050565b60006117b682611789565b9050919050565b60006117c8826117ab565b9050919050565b6117d8816117bd565b82525050565b60006020820190506117f360008301846117cf565b92915050565b600080604083850312156118105761180f611458565b5b600061181e85828601611649565b925050602061182f85828601611613565b9150509250929050565b60006020828403121561184f5761184e611458565b5b600061185d84828501611649565b91505092915050565b61186f816115ea565b82525050565b600060208201905061188a6000830184611866565b92915050565b600080604083850312156118a7576118a6611458565b5b60006118b585828601611613565b92505060206118c685828601611613565b9150509250929050565b600081905092915050565b7f737570706f72746564546f6b656e496e74657266616365732862797465733429600082015250565b60006119116020836118d0565b915061191c826118db565b602082019050919050565b600061193282611904565b9150819050919050565b7f4e487b7100000000000000000000000000000000000000000000000000000000600052602260045260246000fd5b6000600282049050600182168061198357607f821691505b6020821081036119965761199561193c565b5b50919050565b7f6f6e6c79206f776e65722063616e20646f207468697300000000000000000000600082015250565b60006119d2601683611523565b91506119dd8261199c565b602082019050919050565b60006020820190508181036000830152611a01816119c5565b9050919050565b7f63616e6e6f7420756e6c6f636b00000000000000000000000000000000000000600082015250565b6000611a3e600d83611523565b9150611a4982611a08565b602082019050919050565b60006020820190508181036000830152611a6d81611a31565b9050919050565b7f4e487b7100000000000000000000000000000000000000000000000000000000600052601160045260246000fd5b6000611aae82611628565b9150611ab983611628565b9250828201905080821115611ad157611ad0611a74565b5b92915050565b7f616d6f756e7420697320686967686572207468616e20746865206d617820737560008201527f70706c7920284341502900000000000000000000000000000000000000000000602082015250565b6000611b33602a83611523565b9150611b3e82611ad7565b604082019050919050565b60006020820190508181036000830152611b6281611b26565b9050919050565b7f616d6f756e742063616e6e6f74206265207a65726f0000000000000000000000600082015250565b6000611b9f601583611523565b9150611baa82611b69565b602082019050919050565b60006020820190508181036000830152611bce81611b92565b9050919050565b7f616c7265616479206c6f636b6564000000000000000000000000000000000000600082015250565b6000611c0b600e83611523565b9150611c1682611bd5565b602082019050919050565b60006020820190508181036000830152611c3a81611bfe565b9050919050565b7f45524332303a2064656372656173656420616c6c6f77616e63652062656c6f7760008201527f207a65726f000000000000000000000000000000000000000000000000000000602082015250565b6000611c9d602583611523565b9150611ca882611c41565b604082019050919050565b60006020820190508181036000830152611ccc81611c90565b9050919050565b6000606082019050611ce86000830186611866565b611cf56020830185611866565b611d02604083018461169e565b949350505050565b611d13816114e2565b8114611d1e57600080fd5b50565b600081519050611d3081611d0a565b92915050565b600060208284031215611d4c57611d4b611458565b5b6000611d5a84828501611d21565b91505092915050565b6000604082019050611d786000830185611866565b611d85602083018461169e565b9392505050565b7f45524332303a20617070726f76652066726f6d20746865207a65726f2061646460008201527f7265737300000000000000000000000000000000000000000000000000000000602082015250565b6000611de8602483611523565b9150611df382611d8c565b604082019050919050565b60006020820190508181036000830152611e1781611ddb565b9050919050565b7f45524332303a20617070726f766520746f20746865207a65726f20616464726560008201527f7373000000000000000000000000000000000000000000000000000000000000602082015250565b6000611e7a602283611523565b9150611e8582611e1e565b604082019050919050565b60006020820190508181036000830152611ea981611e6d565b9050919050565b7f45524332303a207472616e736665722066726f6d20746865207a65726f20616460008201527f6472657373000000000000000000000000000000000000000000000000000000602082015250565b6000611f0c602583611523565b9150611f1782611eb0565b604082019050919050565b60006020820190508181036000830152611f3b81611eff565b9050919050565b7f45524332303a207472616e7366657220746f20746865207a65726f206164647260008201527f6573730000000000000000000000000000000000000000000000000000000000602082015250565b6000611f9e602383611523565b9150611fa982611f42565b604082019050919050565b60006020820190508181036000830152611fcd81611f91565b9050919050565b7f45524332303a207472616e7366657220616d6f756e742065786365656473206260008201527f616c616e63650000000000000000000000000000000000000000000000000000602082015250565b6000612030602683611523565b915061203b82611fd4565b604082019050919050565b6000602082019050818103600083015261205f81612023565b905091905056fea2646970667358221220c0e90af6c16876cf2b5acec385782f31c6cc89f5163ff6c6d3d4dfa3dadcbec864736f6c63430008100033",
  "linkReferences": {},
  "deployedLinkReferences": {}
}