{
  "_format": "hh-sol-artifact-1",
  "contractName": "UserDataServiceResolver",
  "sourceName": "contracts/modules/uds/UserDataServiceResolver.sol",
  "abi": [
    {
      "inputs": [
        {
          "internalType": "bytes32",
          "name": "rootNode",
          "type": "bytes32"
        },
        {
          "internalType": "address",
          "name": "_uds",
          "type": "address"
        }
      ],
      "stateMutability": "nonpayable",
      "type": "constructor"
    },
    {
      "anonymous": false,
      "inputs": [
        {
          "indexed": false,
          "internalType": "bytes32",
          "name": "identity",
          "type": "bytes32"
        },
        {
          "indexed": false,
          "internalType": "uint256",
          "name": "tokenId",
          "type": "uint256"
        },
        {
          "indexed": false,
          "internalType": "bytes32",
          "name": "metasId",
          "type": "bytes32"
        }
      ],
      "name": "AlreadyRegisteredEvent",
      "type": "event"
    },
    {
      "anonymous": false,
      "inputs": [
        {
          "indexed": true,
          "internalType": "address",
          "name": "owner",
          "type": "address"
        },
        {
          "indexed": true,
          "internalType": "address",
          "name": "approved",
          "type": "address"
        },
        {
          "indexed": true,
          "internalType": "uint256",
          "name": "tokenId",
          "type": "uint256"
        }
      ],
      "name": "Approval",
      "type": "event"
    },
    {
      "anonymous": false,
      "inputs": [
        {
          "indexed": true,
          "internalType": "address",
          "name": "owner",
          "type": "address"
        },
        {
          "indexed": true,
          "internalType": "address",
          "name": "operator",
          "type": "address"
        },
        {
          "indexed": false,
          "internalType": "bool",
          "name": "approved",
          "type": "bool"
        }
      ],
      "name": "ApprovalForAll",
      "type": "event"
    },
    {
      "anonymous": false,
      "inputs": [
        {
          "indexed": true,
          "internalType": "bytes32",
          "name": "profileId",
          "type": "bytes32"
        },
        {
          "indexed": true,
          "internalType": "address",
          "name": "_owner",
          "type": "address"
        },
        {
          "indexed": true,
          "internalType": "address",
          "name": "target",
          "type": "address"
        },
        {
          "indexed": false,
          "internalType": "bool",
          "name": "isAuthorised",
          "type": "bool"
        }
      ],
      "name": "AuthorisationChanged",
      "type": "event"
    },
    {
      "anonymous": false,
      "inputs": [
        {
          "indexed": false,
          "internalType": "string",
          "name": "message",
          "type": "string"
        }
      ],
      "name": "Log",
      "type": "event"
    },
    {
      "anonymous": false,
      "inputs": [
        {
          "indexed": false,
          "internalType": "uint256",
          "name": "tokenid",
          "type": "uint256"
        },
        {
          "indexed": false,
          "internalType": "bytes32",
          "name": "metaid",
          "type": "bytes32"
        },
        {
          "indexed": false,
          "internalType": "bytes32",
          "name": "keyid",
          "type": "bytes32"
        }
      ],
      "name": "MetaDataAdded",
      "type": "event"
    },
    {
      "anonymous": false,
      "inputs": [
        {
          "indexed": false,
          "internalType": "bytes32",
          "name": "identity",
          "type": "bytes32"
        },
        {
          "indexed": true,
          "internalType": "address",
          "name": "_owner",
          "type": "address"
        },
        {
          "indexed": false,
          "internalType": "uint256",
          "name": "tokenId",
          "type": "uint256"
        }
      ],
      "name": "NewAccountCreated",
      "type": "event"
    },
    {
      "anonymous": false,
      "inputs": [
        {
          "indexed": true,
          "internalType": "address",
          "name": "previousOwner",
          "type": "address"
        },
        {
          "indexed": true,
          "internalType": "address",
          "name": "newOwner",
          "type": "address"
        }
      ],
      "name": "OwnershipTransferred",
      "type": "event"
    },
    {
      "anonymous": false,
      "inputs": [
        {
          "indexed": true,
          "internalType": "bytes32",
          "name": "role",
          "type": "bytes32"
        },
        {
          "indexed": true,
          "internalType": "bytes32",
          "name": "previousAdminRole",
          "type": "bytes32"
        },
        {
          "indexed": true,
          "internalType": "bytes32",
          "name": "newAdminRole",
          "type": "bytes32"
        }
      ],
      "name": "RoleAdminChanged",
      "type": "event"
    },
    {
      "anonymous": false,
      "inputs": [
        {
          "indexed": true,
          "internalType": "bytes32",
          "name": "role",
          "type": "bytes32"
        },
        {
          "indexed": true,
          "internalType": "address",
          "name": "account",
          "type": "address"
        },
        {
          "indexed": true,
          "internalType": "address",
          "name": "sender",
          "type": "address"
        }
      ],
      "name": "RoleGranted",
      "type": "event"
    },
    {
      "anonymous": false,
      "inputs": [
        {
          "indexed": true,
          "internalType": "bytes32",
          "name": "role",
          "type": "bytes32"
        },
        {
          "indexed": true,
          "internalType": "address",
          "name": "account",
          "type": "address"
        },
        {
          "indexed": true,
          "internalType": "address",
          "name": "sender",
          "type": "address"
        }
      ],
      "name": "RoleRevoked",
      "type": "event"
    },
    {
      "anonymous": false,
      "inputs": [
        {
          "indexed": true,
          "internalType": "address",
          "name": "from",
          "type": "address"
        },
        {
          "indexed": true,
          "internalType": "address",
          "name": "to",
          "type": "address"
        },
        {
          "indexed": true,
          "internalType": "uint256",
          "name": "tokenId",
          "type": "uint256"
        }
      ],
      "name": "Transfer",
      "type": "event"
    },
    {
      "inputs": [],
      "name": "AKX_HOLDER_ROLE",
      "outputs": [
        {
          "internalType": "bytes32",
          "name": "",
          "type": "bytes32"
        }
      ],
      "stateMutability": "view",
      "type": "function"
    },
    {
      "inputs": [],
      "name": "AKX_OPERATOR_ROLE",
      "outputs": [
        {
          "internalType": "bytes32",
          "name": "",
          "type": "bytes32"
        }
      ],
      "stateMutability": "view",
      "type": "function"
    },
    {
      "inputs": [],
      "name": "DAO_ROLE",
      "outputs": [
        {
          "internalType": "bytes32",
          "name": "",
          "type": "bytes32"
        }
      ],
      "stateMutability": "view",
      "type": "function"
    },
    {
      "inputs": [],
      "name": "DEFAULT_ADMIN_ROLE",
      "outputs": [
        {
          "internalType": "bytes32",
          "name": "",
          "type": "bytes32"
        }
      ],
      "stateMutability": "view",
      "type": "function"
    },
    {
      "inputs": [],
      "name": "ERC721_ID",
      "outputs": [
        {
          "internalType": "bytes4",
          "name": "",
          "type": "bytes4"
        }
      ],
      "stateMutability": "view",
      "type": "function"
    },
    {
      "inputs": [],
      "name": "IDENT_INTERFACE_ID",
      "outputs": [
        {
          "internalType": "bytes4",
          "name": "",
          "type": "bytes4"
        }
      ],
      "stateMutability": "view",
      "type": "function"
    },
    {
      "inputs": [],
      "name": "LABZ_HOLDER_ROLE",
      "outputs": [
        {
          "internalType": "bytes32",
          "name": "",
          "type": "bytes32"
        }
      ],
      "stateMutability": "view",
      "type": "function"
    },
    {
      "inputs": [],
      "name": "LABZ_OPERATOR_ROLE",
      "outputs": [
        {
          "internalType": "bytes32",
          "name": "",
          "type": "bytes32"
        }
      ],
      "stateMutability": "view",
      "type": "function"
    },
    {
      "inputs": [],
      "name": "METADATA_INTERFACE_ID",
      "outputs": [
        {
          "internalType": "bytes4",
          "name": "",
          "type": "bytes4"
        }
      ],
      "stateMutability": "view",
      "type": "function"
    },
    {
      "inputs": [],
      "name": "METAVALUE_INTERFACE_ID",
      "outputs": [
        {
          "internalType": "bytes4",
          "name": "",
          "type": "bytes4"
        }
      ],
      "stateMutability": "view",
      "type": "function"
    },
    {
      "inputs": [],
      "name": "NAME_INTERFACE_ID",
      "outputs": [
        {
          "internalType": "bytes4",
          "name": "",
          "type": "bytes4"
        }
      ],
      "stateMutability": "view",
      "type": "function"
    },
    {
      "inputs": [],
      "name": "PROFILE_INTERFACE_ID",
      "outputs": [
        {
          "internalType": "bytes4",
          "name": "",
          "type": "bytes4"
        }
      ],
      "stateMutability": "view",
      "type": "function"
    },
    {
      "inputs": [],
      "name": "RECLAIM_ID",
      "outputs": [
        {
          "internalType": "bytes4",
          "name": "",
          "type": "bytes4"
        }
      ],
      "stateMutability": "view",
      "type": "function"
    },
    {
      "inputs": [],
      "name": "REPUTATION_ID",
      "outputs": [
        {
          "internalType": "bytes4",
          "name": "",
          "type": "bytes4"
        }
      ],
      "stateMutability": "view",
      "type": "function"
    },
    {
      "inputs": [],
      "name": "SETMETA_INTERFACE_ID",
      "outputs": [
        {
          "internalType": "bytes4",
          "name": "",
          "type": "bytes4"
        }
      ],
      "stateMutability": "view",
      "type": "function"
    },
    {
      "inputs": [],
      "name": "UDS_OPERATOR_ROLE",
      "outputs": [
        {
          "internalType": "bytes32",
          "name": "",
          "type": "bytes32"
        }
      ],
      "stateMutability": "view",
      "type": "function"
    },
    {
      "inputs": [],
      "name": "UPGRADER_OPERATOR_ROLE",
      "outputs": [
        {
          "internalType": "bytes32",
          "name": "",
          "type": "bytes32"
        }
      ],
      "stateMutability": "view",
      "type": "function"
    },
    {
      "inputs": [
        {
          "internalType": "address",
          "name": "_subject",
          "type": "address"
        }
      ],
      "name": "alreadyRegistered",
      "outputs": [
        {
          "internalType": "bool",
          "name": "",
          "type": "bool"
        }
      ],
      "stateMutability": "view",
      "type": "function"
    },
    {
      "inputs": [
        {
          "internalType": "address",
          "name": "to",
          "type": "address"
        },
        {
          "internalType": "uint256",
          "name": "tokenId",
          "type": "uint256"
        }
      ],
      "name": "approve",
      "outputs": [],
      "stateMutability": "nonpayable",
      "type": "function"
    },
    {
      "inputs": [
        {
          "internalType": "bytes32",
          "name": "",
          "type": "bytes32"
        },
        {
          "internalType": "address",
          "name": "",
          "type": "address"
        },
        {
          "internalType": "address",
          "name": "",
          "type": "address"
        }
      ],
      "name": "authorisations",
      "outputs": [
        {
          "internalType": "bool",
          "name": "",
          "type": "bool"
        }
      ],
      "stateMutability": "view",
      "type": "function"
    },
    {
      "inputs": [
        {
          "internalType": "address",
          "name": "controller",
          "type": "address"
        }
      ],
      "name": "authorizeController",
      "outputs": [],
      "stateMutability": "nonpayable",
      "type": "function"
    },
    {
      "inputs": [
        {
          "internalType": "address",
          "name": "owner",
          "type": "address"
        }
      ],
      "name": "balanceOf",
      "outputs": [
        {
          "internalType": "uint256",
          "name": "",
          "type": "uint256"
        }
      ],
      "stateMutability": "view",
      "type": "function"
    },
    {
      "inputs": [
        {
          "internalType": "address",
          "name": "",
          "type": "address"
        }
      ],
      "name": "controllers",
      "outputs": [
        {
          "internalType": "bool",
          "name": "",
          "type": "bool"
        }
      ],
      "stateMutability": "view",
      "type": "function"
    },
    {
      "inputs": [
        {
          "internalType": "address",
          "name": "_accountWalletAddress",
          "type": "address"
        }
      ],
      "name": "createNewAccount",
      "outputs": [],
      "stateMutability": "nonpayable",
      "type": "function"
    },
    {
      "inputs": [
        {
          "internalType": "address",
          "name": "_accountWalletAddress",
          "type": "address"
        },
        {
          "internalType": "string",
          "name": "accountName",
          "type": "string"
        }
      ],
      "name": "createNewAccount",
      "outputs": [
        {
          "internalType": "uint256",
          "name": "",
          "type": "uint256"
        }
      ],
      "stateMutability": "nonpayable",
      "type": "function"
    },
    {
      "inputs": [
        {
          "internalType": "address",
          "name": "controller",
          "type": "address"
        }
      ],
      "name": "deAuthorizeController",
      "outputs": [],
      "stateMutability": "nonpayable",
      "type": "function"
    },
    {
      "inputs": [
        {
          "internalType": "address",
          "name": "infoOwner",
          "type": "address"
        }
      ],
      "name": "getAccountInfo",
      "outputs": [
        {
          "components": [
            {
              "internalType": "uint256",
              "name": "tokenId",
              "type": "uint256"
            },
            {
              "internalType": "bytes32",
              "name": "identity",
              "type": "bytes32"
            },
            {
              "internalType": "address",
              "name": "owner",
              "type": "address"
            },
            {
              "internalType": "bytes32",
              "name": "metasId",
              "type": "bytes32"
            },
            {
              "internalType": "uint256",
              "name": "timestamp",
              "type": "uint256"
            }
          ],
          "internalType": "struct UserDataServiceResolver.AccountInfo",
          "name": "Info",
          "type": "tuple"
        }
      ],
      "stateMutability": "view",
      "type": "function"
    },
    {
      "inputs": [
        {
          "internalType": "uint256",
          "name": "tokenId",
          "type": "uint256"
        }
      ],
      "name": "getApproved",
      "outputs": [
        {
          "internalType": "address",
          "name": "",
          "type": "address"
        }
      ],
      "stateMutability": "view",
      "type": "function"
    },
    {
      "inputs": [],
      "name": "getName",
      "outputs": [
        {
          "internalType": "string",
          "name": "",
          "type": "string"
        }
      ],
      "stateMutability": "view",
      "type": "function"
    },
    {
      "inputs": [
        {
          "internalType": "address",
          "name": "_owner",
          "type": "address"
        }
      ],
      "name": "getName",
      "outputs": [
        {
          "internalType": "string",
          "name": "",
          "type": "string"
        }
      ],
      "stateMutability": "view",
      "type": "function"
    },
    {
      "inputs": [
        {
          "internalType": "uint256",
          "name": "tokenId",
          "type": "uint256"
        }
      ],
      "name": "getName",
      "outputs": [
        {
          "internalType": "string",
          "name": "",
          "type": "string"
        }
      ],
      "stateMutability": "view",
      "type": "function"
    },
    {
      "inputs": [
        {
          "internalType": "bytes32",
          "name": "role",
          "type": "bytes32"
        }
      ],
      "name": "getRoleAdmin",
      "outputs": [
        {
          "internalType": "bytes32",
          "name": "",
          "type": "bytes32"
        }
      ],
      "stateMutability": "view",
      "type": "function"
    },
    {
      "inputs": [
        {
          "internalType": "bytes32",
          "name": "role",
          "type": "bytes32"
        },
        {
          "internalType": "uint256",
          "name": "index",
          "type": "uint256"
        }
      ],
      "name": "getRoleMember",
      "outputs": [
        {
          "internalType": "address",
          "name": "",
          "type": "address"
        }
      ],
      "stateMutability": "view",
      "type": "function"
    },
    {
      "inputs": [
        {
          "internalType": "bytes32",
          "name": "role",
          "type": "bytes32"
        }
      ],
      "name": "getRoleMemberCount",
      "outputs": [
        {
          "internalType": "uint256",
          "name": "",
          "type": "uint256"
        }
      ],
      "stateMutability": "view",
      "type": "function"
    },
    {
      "inputs": [
        {
          "internalType": "bytes32",
          "name": "role",
          "type": "bytes32"
        },
        {
          "internalType": "address",
          "name": "account",
          "type": "address"
        }
      ],
      "name": "grantRole",
      "outputs": [],
      "stateMutability": "nonpayable",
      "type": "function"
    },
    {
      "inputs": [
        {
          "internalType": "bytes32",
          "name": "role",
          "type": "bytes32"
        },
        {
          "internalType": "address",
          "name": "account",
          "type": "address"
        }
      ],
      "name": "hasRole",
      "outputs": [
        {
          "internalType": "bool",
          "name": "",
          "type": "bool"
        }
      ],
      "stateMutability": "view",
      "type": "function"
    },
    {
      "inputs": [
        {
          "internalType": "uint256",
          "name": "tokenId",
          "type": "uint256"
        }
      ],
      "name": "ident",
      "outputs": [
        {
          "internalType": "bytes32",
          "name": "",
          "type": "bytes32"
        }
      ],
      "stateMutability": "view",
      "type": "function"
    },
    {
      "inputs": [
        {
          "internalType": "address",
          "name": "owner",
          "type": "address"
        },
        {
          "internalType": "address",
          "name": "operator",
          "type": "address"
        }
      ],
      "name": "isApprovedForAll",
      "outputs": [
        {
          "internalType": "bool",
          "name": "",
          "type": "bool"
        }
      ],
      "stateMutability": "view",
      "type": "function"
    },
    {
      "inputs": [
        {
          "internalType": "uint256",
          "name": "tokenId",
          "type": "uint256"
        },
        {
          "internalType": "string",
          "name": "keyStr",
          "type": "string"
        }
      ],
      "name": "metaValue",
      "outputs": [
        {
          "components": [
            {
              "internalType": "bytes32",
              "name": "key",
              "type": "bytes32"
            },
            {
              "internalType": "enum MetaDataResolver.DataTypes",
              "name": "dType",
              "type": "uint8"
            },
            {
              "internalType": "bytes",
              "name": "dValue",
              "type": "bytes"
            },
            {
              "internalType": "bool",
              "name": "editable",
              "type": "bool"
            },
            {
              "internalType": "bool",
              "name": "encrypted",
              "type": "bool"
            }
          ],
          "internalType": "struct MetaDataResolver.KeyValMeta",
          "name": "kv",
          "type": "tuple"
        }
      ],
      "stateMutability": "view",
      "type": "function"
    },
    {
      "inputs": [
        {
          "internalType": "uint256",
          "name": "tokenId",
          "type": "uint256"
        }
      ],
      "name": "metadata",
      "outputs": [
        {
          "internalType": "bytes32",
          "name": "",
          "type": "bytes32"
        }
      ],
      "stateMutability": "view",
      "type": "function"
    },
    {
      "inputs": [],
      "name": "name",
      "outputs": [
        {
          "internalType": "string",
          "name": "",
          "type": "string"
        }
      ],
      "stateMutability": "view",
      "type": "function"
    },
    {
      "inputs": [
        {
          "internalType": "string",
          "name": "_name",
          "type": "string"
        }
      ],
      "name": "nameOwner",
      "outputs": [
        {
          "internalType": "address",
          "name": "",
          "type": "address"
        }
      ],
      "stateMutability": "view",
      "type": "function"
    },
    {
      "inputs": [],
      "name": "owner",
      "outputs": [
        {
          "internalType": "address",
          "name": "",
          "type": "address"
        }
      ],
      "stateMutability": "view",
      "type": "function"
    },
    {
      "inputs": [
        {
          "internalType": "uint256",
          "name": "tokenId",
          "type": "uint256"
        }
      ],
      "name": "ownerOf",
      "outputs": [
        {
          "internalType": "address",
          "name": "",
          "type": "address"
        }
      ],
      "stateMutability": "view",
      "type": "function"
    },
    {
      "inputs": [
        {
          "internalType": "uint256",
          "name": "tokenId",
          "type": "uint256"
        }
      ],
      "name": "profile",
      "outputs": [
        {
          "internalType": "bytes32",
          "name": "",
          "type": "bytes32"
        }
      ],
      "stateMutability": "view",
      "type": "function"
    },
    {
      "inputs": [],
      "name": "renounceOwnership",
      "outputs": [],
      "stateMutability": "nonpayable",
      "type": "function"
    },
    {
      "inputs": [
        {
          "internalType": "bytes32",
          "name": "role",
          "type": "bytes32"
        },
        {
          "internalType": "address",
          "name": "account",
          "type": "address"
        }
      ],
      "name": "renounceRole",
      "outputs": [],
      "stateMutability": "nonpayable",
      "type": "function"
    },
    {
      "inputs": [
        {
          "internalType": "bytes32",
          "name": "role",
          "type": "bytes32"
        },
        {
          "internalType": "address",
          "name": "account",
          "type": "address"
        }
      ],
      "name": "revokeRole",
      "outputs": [],
      "stateMutability": "nonpayable",
      "type": "function"
    },
    {
      "inputs": [],
      "name": "rootNodeAddress",
      "outputs": [
        {
          "internalType": "bytes32",
          "name": "",
          "type": "bytes32"
        }
      ],
      "stateMutability": "view",
      "type": "function"
    },
    {
      "inputs": [
        {
          "internalType": "address",
          "name": "from",
          "type": "address"
        },
        {
          "internalType": "address",
          "name": "to",
          "type": "address"
        },
        {
          "internalType": "uint256",
          "name": "tokenId",
          "type": "uint256"
        }
      ],
      "name": "safeTransferFrom",
      "outputs": [],
      "stateMutability": "nonpayable",
      "type": "function"
    },
    {
      "inputs": [
        {
          "internalType": "address",
          "name": "from",
          "type": "address"
        },
        {
          "internalType": "address",
          "name": "to",
          "type": "address"
        },
        {
          "internalType": "uint256",
          "name": "tokenId",
          "type": "uint256"
        },
        {
          "internalType": "bytes",
          "name": "data",
          "type": "bytes"
        }
      ],
      "name": "safeTransferFrom",
      "outputs": [],
      "stateMutability": "nonpayable",
      "type": "function"
    },
    {
      "inputs": [
        {
          "internalType": "address",
          "name": "operator",
          "type": "address"
        },
        {
          "internalType": "bool",
          "name": "approved",
          "type": "bool"
        }
      ],
      "name": "setApprovalForAll",
      "outputs": [],
      "stateMutability": "nonpayable",
      "type": "function"
    },
    {
      "inputs": [
        {
          "internalType": "bytes32",
          "name": "profileId",
          "type": "bytes32"
        },
        {
          "internalType": "address",
          "name": "target",
          "type": "address"
        },
        {
          "internalType": "bool",
          "name": "_isAuthorised",
          "type": "bool"
        }
      ],
      "name": "setAuthorisation",
      "outputs": [],
      "stateMutability": "nonpayable",
      "type": "function"
    },
    {
      "inputs": [
        {
          "internalType": "uint256",
          "name": "tokenId",
          "type": "uint256"
        },
        {
          "internalType": "bytes32",
          "name": "identifier",
          "type": "bytes32"
        }
      ],
      "name": "setIdent",
      "outputs": [],
      "stateMutability": "nonpayable",
      "type": "function"
    },
    {
      "inputs": [
        {
          "internalType": "uint256",
          "name": "tokenId",
          "type": "uint256"
        },
        {
          "internalType": "string",
          "name": "keyStr",
          "type": "string"
        },
        {
          "internalType": "uint256",
          "name": "_dtype",
          "type": "uint256"
        },
        {
          "internalType": "bytes",
          "name": "value",
          "type": "bytes"
        },
        {
          "internalType": "bool",
          "name": "editable",
          "type": "bool"
        },
        {
          "internalType": "bool",
          "name": "encrypted",
          "type": "bool"
        }
      ],
      "name": "setMetaData",
      "outputs": [],
      "stateMutability": "nonpayable",
      "type": "function"
    },
    {
      "inputs": [
        {
          "internalType": "address",
          "name": "resolver",
          "type": "address"
        }
      ],
      "name": "setResolver",
      "outputs": [],
      "stateMutability": "nonpayable",
      "type": "function"
    },
    {
      "inputs": [
        {
          "internalType": "bytes4",
          "name": "interfaceID",
          "type": "bytes4"
        }
      ],
      "name": "supportsInterface",
      "outputs": [
        {
          "internalType": "bool",
          "name": "",
          "type": "bool"
        }
      ],
      "stateMutability": "view",
      "type": "function"
    },
    {
      "inputs": [],
      "name": "symbol",
      "outputs": [
        {
          "internalType": "string",
          "name": "",
          "type": "string"
        }
      ],
      "stateMutability": "view",
      "type": "function"
    },
    {
      "inputs": [
        {
          "internalType": "uint256",
          "name": "tokenId",
          "type": "uint256"
        }
      ],
      "name": "tokenURI",
      "outputs": [
        {
          "internalType": "string",
          "name": "",
          "type": "string"
        }
      ],
      "stateMutability": "view",
      "type": "function"
    },
    {
      "inputs": [
        {
          "internalType": "address",
          "name": "from",
          "type": "address"
        },
        {
          "internalType": "address",
          "name": "to",
          "type": "address"
        },
        {
          "internalType": "uint256",
          "name": "tokenId",
          "type": "uint256"
        }
      ],
      "name": "transferFrom",
      "outputs": [],
      "stateMutability": "nonpayable",
      "type": "function"
    },
    {
      "inputs": [
        {
          "internalType": "address",
          "name": "newOwner",
          "type": "address"
        }
      ],
      "name": "transferOwnership",
      "outputs": [],
      "stateMutability": "nonpayable",
      "type": "function"
    }
  ],
  "bytecode": "0x60806040523480156200001157600080fd5b5060405162006c6338038062006c638339818101604052810190620000379190620005c9565b81816040518060400160405280600f81526020017f5553455220544f4b454e20414b583300000000000000000000000000000000008152506040518060400160405280600481526020017f414b5855000000000000000000000000000000000000000000000000000000008152508160109081620000b691906200088a565b508060119081620000c891906200088a565b505050620000eb620000df620001c660201b60201c565b620001ce60201b60201c565b80601960006101000a81548173ffffffffffffffffffffffffffffffffffffffff021916908373ffffffffffffffffffffffffffffffffffffffff16021790555081601b819055506000601a8190555050506001601c819055506200015a6000801b336200029460201b60201c565b6200018c7f49a42a47740a9060c9a9274a2a577b05376ac78e16f4e6059683e3adb436d2c4336200029460201b60201c565b620001be7f49a42a47740a9060c9a9274a2a577b05376ac78e16f4e6059683e3adb436d2c433620002aa60201b60201c565b505062000971565b600033905090565b6000601660009054906101000a900473ffffffffffffffffffffffffffffffffffffffff16905081601660006101000a81548173ffffffffffffffffffffffffffffffffffffffff021916908373ffffffffffffffffffffffffffffffffffffffff1602179055508173ffffffffffffffffffffffffffffffffffffffff168173ffffffffffffffffffffffffffffffffffffffff167f8be0079c531659141344cd1fd0a4f28419497f9722a3daafe3b4186f6b6457e060405160405180910390a35050565b620002a68282620002aa60201b60201c565b5050565b620002c18282620002f260201b6200241b1760201c565b620002ed81600f6000858152602001908152602001600020620003e460201b620024fc1790919060201c565b505050565b6200030482826200041c60201b60201c565b620003e0576001600e600084815260200190815260200160002060000160008373ffffffffffffffffffffffffffffffffffffffff1673ffffffffffffffffffffffffffffffffffffffff16815260200190815260200160002060006101000a81548160ff02191690831515021790555062000385620001c660201b60201c565b73ffffffffffffffffffffffffffffffffffffffff168173ffffffffffffffffffffffffffffffffffffffff16837f2f8788117e7eff1d82e926ec794901d17c78024a50270940304540a733656f0d60405160405180910390a45b5050565b600062000414836000018373ffffffffffffffffffffffffffffffffffffffff1660001b6200048760201b60201c565b905092915050565b6000600e600084815260200190815260200160002060000160008373ffffffffffffffffffffffffffffffffffffffff1673ffffffffffffffffffffffffffffffffffffffff16815260200190815260200160002060009054906101000a900460ff16905092915050565b60006200049b83836200050160201b60201c565b620004f6578260000182908060018154018082558091505060019003906000526020600020016000909190919091505582600001805490508360010160008481526020019081526020016000208190555060019050620004fb565b600090505b92915050565b600080836001016000848152602001908152602001600020541415905092915050565b600080fd5b6000819050919050565b6200053e8162000529565b81146200054a57600080fd5b50565b6000815190506200055e8162000533565b92915050565b600073ffffffffffffffffffffffffffffffffffffffff82169050919050565b6000620005918262000564565b9050919050565b620005a38162000584565b8114620005af57600080fd5b50565b600081519050620005c38162000598565b92915050565b60008060408385031215620005e357620005e262000524565b5b6000620005f3858286016200054d565b92505060206200060685828601620005b2565b9150509250929050565b600081519050919050565b7f4e487b7100000000000000000000000000000000000000000000000000000000600052604160045260246000fd5b7f4e487b7100000000000000000000000000000000000000000000000000000000600052602260045260246000fd5b600060028204905060018216806200069257607f821691505b602082108103620006a857620006a76200064a565b5b50919050565b60008190508160005260206000209050919050565b60006020601f8301049050919050565b600082821b905092915050565b600060088302620007127fffffffffffffffffffffffffffffffffffffffffffffffffffffffffffffffff82620006d3565b6200071e8683620006d3565b95508019841693508086168417925050509392505050565b6000819050919050565b6000819050919050565b60006200076b620007656200075f8462000736565b62000740565b62000736565b9050919050565b6000819050919050565b62000787836200074a565b6200079f620007968262000772565b848454620006e0565b825550505050565b600090565b620007b6620007a7565b620007c38184846200077c565b505050565b5b81811015620007eb57620007df600082620007ac565b600181019050620007c9565b5050565b601f8211156200083a576200080481620006ae565b6200080f84620006c3565b810160208510156200081f578190505b620008376200082e85620006c3565b830182620007c8565b50505b505050565b600082821c905092915050565b60006200085f600019846008026200083f565b1980831691505092915050565b60006200087a83836200084c565b9150826002028217905092915050565b620008958262000610565b67ffffffffffffffff811115620008b157620008b06200061b565b5b620008bd825462000679565b620008ca828285620007ef565b600060209050601f831160018114620009025760008415620008ed578287015190505b620008f985826200086c565b86555062000969565b601f1984166200091286620006ae565b60005b828110156200093c5784890151825560018201915060208501945060208101905062000915565b868310156200095c578489015162000958601f8916826200084c565b8355505b6001600288020188555050505b505050505050565b6162e280620009816000396000f3fe608060405234801561001057600080fd5b50600436106103af5760003560e01c806372cd2b1a116101f4578063c79fe9e01161011a578063e985e9c5116100ad578063f2fde38b1161007c578063f2fde38b14610b98578063f31a125214610bb4578063f86bc87914610bd2578063fe05c3d914610c02576103af565b8063e985e9c514610b10578063e9c2651814610b40578063eb15e94714610b5e578063eca0276314610b7c576103af565b8063da8c229e116100e9578063da8c229e14610a62578063e08670bf14610a92578063e18c3a0614610ab0578063e3684e3914610ae0576103af565b8063c79fe9e0146109c8578063c87b56dd146109e6578063ca15c87314610a16578063d547741f14610a46576103af565b80639e502b5811610192578063b88d4fde11610161578063b88d4fde14610952578063ba1d9a781461096e578063bbe39bf71461098c578063c4a13c1e146109aa576103af565b80639e502b58146108dc578063a09a0e59146108fa578063a217fddf14610918578063a22cb46514610936576103af565b80638da5cb5b116101ce5780638da5cb5b146108405780639010d07c1461085e57806391d148541461088e57806395d89b41146108be576103af565b806372cd2b1a146107c25780637b510fe8146107f25780637fc0a9e514610822576103af565b806336568abe116102d95780635258e560116102775780636352211e116102465780636352211e146107285780636b8ff5741461075857806370a0823114610788578063715018a6146107b8576103af565b80635258e5601461068e57806356e49d61146106ac57806359de0deb146106dc5780635fd4b08a146106f8576103af565b80634881448a116102b35780634881448a146106085780634dc34682146106265780634e543b26146106565780634f96baf114610672576103af565b806336568abe146105b45780633e9ce794146105d057806342842e0e146105ec576103af565b806317d7de7c116103515780632ed55dec116103205780632ed55dec146105405780632f2ff15d1461055e57806334cf66591461057a5780633561ff5814610598576103af565b806317d7de7c146104b857806323b872dd146104d6578063248a9ca3146104f257806327b8503514610522576103af565b8063081812fc1161038d578063081812fc1461042057806308730f0714610450578063095ea7b31461046c5780630e2f9f1014610488576103af565b806301ffc9a7146103b4578063044c6c54146103e457806306fdde0314610402575b600080fd5b6103ce60048036038101906103c99190614049565b610c32565b6040516103db9190614091565b60405180910390f35b6103ec610c44565b6040516103f991906140bb565b60405180910390f35b61040a610c4f565b6040516104179190614166565b60405180910390f35b61043a600480360381019061043591906141be565b610ce1565b604051610447919061422c565b60405180910390f35b61046a60048036038101906104659190614449565b610d27565b005b6104866004803603810190610481919061453a565b610fc4565b005b6104a2600480360381019061049d91906141be565b6110db565b6040516104af9190614593565b60405180910390f35b6104c06110f7565b6040516104cd9190614166565b60405180910390f35b6104f060048036038101906104eb91906145ae565b6111c6565b005b61050c6004803603810190610507919061462d565b611226565b6040516105199190614593565b60405180910390f35b61052a611246565b60405161053791906140bb565b60405180910390f35b610548611251565b60405161055591906140bb565b60405180910390f35b6105786004803603810190610573919061465a565b6113a7565b005b6105826113c8565b60405161058f91906140bb565b60405180910390f35b6105b260048036038101906105ad919061469a565b6113d2565b005b6105ce60048036038101906105c9919061465a565b611454565b005b6105ea60048036038101906105e591906146da565b6114d7565b005b610606600480360381019061060191906145ae565b611612565b005b610610611632565b60405161061d9190614593565b60405180910390f35b610640600480360381019061063b919061472d565b611656565b60405161064d91906148e9565b60405180910390f35b610670600480360381019061066b919061490b565b611711565b005b61068c6004803603810190610687919061490b565b6117ad565b005b610696611862565b6040516106a391906140bb565b60405180910390f35b6106c660048036038101906106c1919061490b565b61186d565b6040516106d39190614091565b60405180910390f35b6106f660048036038101906106f1919061490b565b6118ca565b005b610712600480360381019061070d919061490b565b61192d565b60405161071f9190614166565b60405180910390f35b610742600480360381019061073d91906141be565b6119fe565b60405161074f919061422c565b60405180910390f35b610772600480360381019061076d91906141be565b611aaf565b60405161077f9190614166565b60405180910390f35b6107a2600480360381019061079d919061490b565b611b54565b6040516107af9190614947565b60405180910390f35b6107c0611c0b565b005b6107dc60048036038101906107d791906141be565b611c1f565b6040516107e99190614593565b60405180910390f35b61080c6004803603810190610807919061490b565b611c3c565b60405161081991906149e8565b60405180910390f35b61082a611d13565b60405161083791906140bb565b60405180910390f35b610848611d1e565b604051610855919061422c565b60405180910390f35b61087860048036038101906108739190614a03565b611d48565b604051610885919061422c565b60405180910390f35b6108a860048036038101906108a3919061465a565b611d77565b6040516108b59190614091565b60405180910390f35b6108c6611de2565b6040516108d39190614166565b60405180910390f35b6108e4611e74565b6040516108f191906140bb565b60405180910390f35b610902611e98565b60405161090f9190614593565b60405180910390f35b610920611ebc565b60405161092d9190614593565b60405180910390f35b610950600480360381019061094b9190614a43565b611ec3565b005b61096c60048036038101906109679190614a83565b611ed9565b005b610976611f3b565b6040516109839190614593565b60405180910390f35b610994611f5f565b6040516109a19190614593565b60405180910390f35b6109b2611f65565b6040516109bf9190614593565b60405180910390f35b6109d0611f89565b6040516109dd9190614593565b60405180910390f35b610a0060048036038101906109fb91906141be565b611fad565b604051610a0d9190614166565b60405180910390f35b610a306004803603810190610a2b919061462d565b612015565b604051610a3d9190614947565b60405180910390f35b610a606004803603810190610a5b919061465a565b612039565b005b610a7c6004803603810190610a77919061490b565b61205a565b604051610a899190614091565b60405180910390f35b610a9a61207a565b604051610aa791906140bb565b60405180910390f35b610aca6004803603810190610ac59190614b06565b612085565b604051610ad7919061422c565b60405180910390f35b610afa6004803603810190610af591906141be565b6120cd565b604051610b079190614593565b60405180910390f35b610b2a6004803603810190610b259190614b4f565b6120ea565b604051610b379190614091565b60405180910390f35b610b4861217e565b604051610b559190614593565b60405180910390f35b610b666121a2565b604051610b739190614593565b60405180910390f35b610b966004803603810190610b91919061490b565b6121c6565b005b610bb26004803603810190610bad919061490b565b612229565b005b610bbc6122ac565b604051610bc991906140bb565b60405180910390f35b610bec6004803603810190610be79190614b8f565b6122d0565b604051610bf99190614091565b60405180910390f35b610c1c6004803603810190610c179190614be2565b61230c565b604051610c299190614947565b60405180910390f35b6000610c3d8261252c565b9050919050565b6308730f0760e01b81565b606060108054610c5e90614c6d565b80601f0160208091040260200160405190810160405280929190818152602001828054610c8a90614c6d565b8015610cd75780601f10610cac57610100808354040283529160200191610cd7565b820191906000526020600020905b815481529060010190602001808311610cba57829003601f168201915b5050505050905090565b6000610cec8261260e565b6014600083815260200190815260200160002060009054906101000a900473ffffffffffffffffffffffffffffffffffffffff169050919050565b600d600087815260200190815260200160002060009054906101000a900473ffffffffffffffffffffffffffffffffffffffff1673ffffffffffffffffffffffffffffffffffffffff163373ffffffffffffffffffffffffffffffffffffffff1614610dc8576040517f08c379a0000000000000000000000000000000000000000000000000000000008152600401610dbf90614cea565b60405180910390fd5b60006007600088815260200190815260200160002054905060011515600b87604051610df49190614d46565b908152602001604051809103902060009054906101000a900460ff16151514610e98576001600b87604051610e299190614d46565b908152602001604051809103902060006101000a81548160ff02191690831515021790555085604051602001610e5f9190614d46565b60405160208183030381529060405280519060200120600a87604051610e859190614d46565b9081526020016040518091039020819055505b6000600a87604051610eaa9190614d46565b908152602001604051809103902054905060006040518060a00160405280838152602001886006811115610ee157610ee0614798565b5b6006811115610ef357610ef2614798565b5b815260200187604051602001610f099190614da7565b60405160208183030381529060405281526020018615158152602001851515815250905080604051602001610f3e91906148e9565b604051602081830303815290604052600c600085815260200190815260200160002060008481526020019081526020016000209081610f7d9190614f75565b507f0e7d31702c053db64a9bb1c5fa3ceeda422af277139cc645fccdcf87ad23970c898484604051610fb193929190615047565b60405180910390a1505050505050505050565b6000610fcf826119fe565b90508073ffffffffffffffffffffffffffffffffffffffff168373ffffffffffffffffffffffffffffffffffffffff160361103f576040517f08c379a0000000000000000000000000000000000000000000000000000000008152600401611036906150f0565b60405180910390fd5b8073ffffffffffffffffffffffffffffffffffffffff1661105e612659565b73ffffffffffffffffffffffffffffffffffffffff16148061108d575061108c81611087612659565b6120ea565b5b6110cc576040517f08c379a00000000000000000000000000000000000000000000000000000000081526004016110c390615182565b60405180910390fd5b6110d68383612661565b505050565b6000806000838152602001908152602001600020549050919050565b6060600360003373ffffffffffffffffffffffffffffffffffffffff1673ffffffffffffffffffffffffffffffffffffffff168152602001908152602001600020805461114390614c6d565b80601f016020809104026020016040519081016040528092919081815260200182805461116f90614c6d565b80156111bc5780601f10611191576101008083540402835291602001916111bc565b820191906000526020600020905b81548152906001019060200180831161119f57829003601f168201915b5050505050905090565b6111d76111d1612659565b8261271a565b611216576040517f08c379a000000000000000000000000000000000000000000000000000000000815260040161120d90615214565b60405180910390fd5b6112218383836127af565b505050565b6000600e6000838152602001908152602001600020600101549050919050565b630e2f9f1060e01b81565b7f4420e4869750c98a56ac621854d2d00e598698ac87193cdfcbb6ed1164e9cbcd7fb88d4fde60196325a28bb7f99a2582e0b46de55b18761e960c14ad7a320994657f42842e0eb38857a7775b4e7364b2775df7325074d088e7fb39590cd6281184ed7f23b872dd7302113369cda2901243429419bec145408fa8b352b3dd92b66c680b7fe985e9c5c6636c6879256001057b28ccac7718ef0ac56553ff9b926452cab8a37fa22cb4651ab9570f89bb516380c40ce76762284fb1f21337ceaf6adab99e7d4a7f081812fc55e34fdc7cf5d8b5cf4e3621fa6423fde952ec6ab24afdc0d85c0b2e7f095ea7b334ae44009aa867bfb386f5c3b4b443ac6f0ee573fa91c4608fbadfba7f6352211e6566aa027e75ac9dbf2423197fbd9b82b9d981a3ab367d355866aa1c7f70a08231b98ef4ca268c9cc3f6b4590e4bfec28280db06bb5d45e689f2a360be18181818181818181881565b6113b082611226565b6113b981612a15565b6113c38383612a29565b505050565b62ad800c60e01b81565b600115156001600084815260200190815260200160002060009054906101000a900460ff16151503611439576040517f08c379a000000000000000000000000000000000000000000000000000000000815260040161143090615280565b60405180910390fd5b80600080848152602001908152602001600020819055505050565b61145c612659565b73ffffffffffffffffffffffffffffffffffffffff168173ffffffffffffffffffffffffffffffffffffffff16146114c9576040517f08c379a00000000000000000000000000000000000000000000000000000000081526004016114c090615312565b60405180910390fd5b6114d38282612a5d565b5050565b7f49a42a47740a9060c9a9274a2a577b05376ac78e16f4e6059683e3adb436d2c461150181612a15565b81601d600086815260200190815260200160002060003373ffffffffffffffffffffffffffffffffffffffff1673ffffffffffffffffffffffffffffffffffffffff16815260200190815260200160002060008573ffffffffffffffffffffffffffffffffffffffff1673ffffffffffffffffffffffffffffffffffffffff16815260200190815260200160002060006101000a81548160ff0219169083151502179055508273ffffffffffffffffffffffffffffffffffffffff163373ffffffffffffffffffffffffffffffffffffffff16857fe1c5610a6e0cbe10764ecd182adcef1ec338dc4e199c99c32ce98f38e12791df856040516116049190614091565b60405180910390a450505050565b61162d83838360405180602001604052806000815250611ed9565b505050565b7f49a42a47740a9060c9a9274a2a577b05376ac78e16f4e6059683e3adb436d2c481565b61165e613f4a565b60003073ffffffffffffffffffffffffffffffffffffffff1663e3684e39856040518263ffffffff1660e01b81526004016116999190614947565b602060405180830381865afa1580156116b6573d6000803e3d6000fd5b505050506040513d601f19601f820116820180604052508101906116da9190615347565b905060006116f16116eb8386612a91565b83612b03565b90508080602001905181019061170791906154d0565b9250505092915050565b611719612bba565b601960009054906101000a900473ffffffffffffffffffffffffffffffffffffffff1673ffffffffffffffffffffffffffffffffffffffff16631896f70a601b54836040518363ffffffff1660e01b8152600401611778929190615519565b600060405180830381600087803b15801561179257600080fd5b505af11580156117a6573d6000803e3d6000fd5b5050505050565b7f49a42a47740a9060c9a9274a2a577b05376ac78e16f4e6059683e3adb436d2c46117d781612a15565b7fcf34ef537ac33ee1ac626ca1587a0a7e8e51561e5514f8cb36afa1c5102b3bab6040516118049061558e565b60405180910390a161181582612c38565b611854576040517f08c379a000000000000000000000000000000000000000000000000000000000815260040161184b906155fa565b60405180910390fd5b61185e6021612d77565b5050565b63e3684e3960e01b81565b600060011515601e60008473ffffffffffffffffffffffffffffffffffffffff1673ffffffffffffffffffffffffffffffffffffffff16815260200190815260200160002060009054906101000a900460ff161515149050919050565b6118d2612bba565b6000601760008373ffffffffffffffffffffffffffffffffffffffff1673ffffffffffffffffffffffffffffffffffffffff16815260200190815260200160002060006101000a81548160ff02191690831515021790555050565b6060600360008373ffffffffffffffffffffffffffffffffffffffff1673ffffffffffffffffffffffffffffffffffffffff168152602001908152602001600020805461197990614c6d565b80601f01602080910402602001604051908101604052809291908181526020018280546119a590614c6d565b80156119f25780601f106119c7576101008083540402835291602001916119f2565b820191906000526020600020905b8154815290600101906020018083116119d557829003601f168201915b50505050509050919050565b6000806012600084815260200190815260200160002060009054906101000a900473ffffffffffffffffffffffffffffffffffffffff169050600073ffffffffffffffffffffffffffffffffffffffff168173ffffffffffffffffffffffffffffffffffffffff1603611aa6576040517f08c379a0000000000000000000000000000000000000000000000000000000008152600401611a9d90615666565b60405180910390fd5b80915050919050565b6060600260008381526020019081526020016000208054611acf90614c6d565b80601f0160208091040260200160405190810160405280929190818152602001828054611afb90614c6d565b8015611b485780601f10611b1d57610100808354040283529160200191611b48565b820191906000526020600020905b815481529060010190602001808311611b2b57829003601f168201915b50505050509050919050565b60008073ffffffffffffffffffffffffffffffffffffffff168273ffffffffffffffffffffffffffffffffffffffff1603611bc4576040517f08c379a0000000000000000000000000000000000000000000000000000000008152600401611bbb906156f8565b60405180910390fd5b601360008373ffffffffffffffffffffffffffffffffffffffff1673ffffffffffffffffffffffffffffffffffffffff168152602001908152602001600020549050919050565b611c13612bba565b611c1d6000612d8d565b565b600060056000838152602001908152602001600020549050919050565b611c44613f92565b602060008373ffffffffffffffffffffffffffffffffffffffff1673ffffffffffffffffffffffffffffffffffffffff1681526020019081526020016000206040518060a001604052908160008201548152602001600182015481526020016002820160009054906101000a900473ffffffffffffffffffffffffffffffffffffffff1673ffffffffffffffffffffffffffffffffffffffff1673ffffffffffffffffffffffffffffffffffffffff168152602001600382015481526020016004820154815250509050919050565b6372cd2b1a60e01b81565b6000601660009054906101000a900473ffffffffffffffffffffffffffffffffffffffff16905090565b6000611d6f82600f6000868152602001908152602001600020612e5390919063ffffffff16565b905092915050565b6000600e600084815260200190815260200160002060000160008373ffffffffffffffffffffffffffffffffffffffff1673ffffffffffffffffffffffffffffffffffffffff16815260200190815260200160002060009054906101000a900460ff16905092915050565b606060118054611df190614c6d565b80601f0160208091040260200160405190810160405280929190818152602001828054611e1d90614c6d565b8015611e6a5780601f10611e3f57610100808354040283529160200191611e6a565b820191906000526020600020905b815481529060010190602001808311611e4d57829003601f168201915b5050505050905090565b7f28ed4f6c74b219a5819055dfbcd2f1837c046c364cf01fabb6799e4f440d6f1381565b7fbc2dedcc41a4babccd6703c68a0e0f84f0684629a0d049ce00ca52b57263ebcc81565b6000801b81565b611ed5611ece612659565b8383612e6d565b5050565b611eea611ee4612659565b8361271a565b611f29576040517f08c379a0000000000000000000000000000000000000000000000000000000008152600401611f2090615214565b60405180910390fd5b611f3584848484612fd9565b50505050565b7f45df5b41bd8e4cc8346c23a7867d6a8b9e1b69ac7380e112c15f26a2f74b7a0c81565b601b5481565b7f06f90589e22fece34e99fffbbf20984e97575da08911ec58b78665237b0b53a681565b7f6e9bb4981ca89a568f24b088f34dfe92aec86372c31b92dd8293f290b2c8a98a81565b6060611fb88261260e565b6000611fc2613035565b90506000815111611fe2576040518060200160405280600081525061200d565b80611fec8461304c565b604051602001611ffd929190615718565b6040516020818303038152906040525b915050919050565b6000612032600f60008481526020019081526020016000206131ac565b9050919050565b61204282611226565b61204b81612a15565b6120558383612a5d565b505050565b60176020528060005260406000206000915054906101000a900460ff1681565b634dc3468260e01b81565b60006004826040516120979190614d46565b908152602001604051809103902060009054906101000a900473ffffffffffffffffffffffffffffffffffffffff169050919050565b600060076000838152602001908152602001600020549050919050565b6000601560008473ffffffffffffffffffffffffffffffffffffffff1673ffffffffffffffffffffffffffffffffffffffff16815260200190815260200160002060008373ffffffffffffffffffffffffffffffffffffffff1673ffffffffffffffffffffffffffffffffffffffff16815260200190815260200160002060009054906101000a900460ff16905092915050565b7f3b5d4cc60d3ec3516ee8ae083bd60934f6eb2a6c54b1229985c41bfb092b260381565b7f6f54b7250b521ceca5a5619d8ae332c5cd309658bd40e401335987383db8f76b81565b6121ce612bba565b6001601760008373ffffffffffffffffffffffffffffffffffffffff1673ffffffffffffffffffffffffffffffffffffffff16815260200190815260200160002060006101000a81548160ff02191690831515021790555050565b612231612bba565b600073ffffffffffffffffffffffffffffffffffffffff168173ffffffffffffffffffffffffffffffffffffffff16036122a0576040517f08c379a0000000000000000000000000000000000000000000000000000000008152600401612297906157ae565b60405180910390fd5b6122a981612d8d565b50565b7f56c708d57e33cc71507c0ab2242d1bed8052197860a551d2b84fd7e949ef74fb81565b601d602052826000526040600020602052816000526040600020602052806000526040600020600092509250509054906101000a900460ff1681565b60007f49a42a47740a9060c9a9274a2a577b05376ac78e16f4e6059683e3adb436d2c461233881612a15565b6123418461186d565b156123a457600061235185611c3c565b90507ff5f7563f971cc4cc01bb7dfece7d01e47f73573a2f87fa57b65f7c9a2e1e6b4a816020015182600001518360600151604051612392939291906157ce565b60405180910390a16000925050612414565b6123ad84612c38565b6123ec576040517f08c379a00000000000000000000000000000000000000000000000000000000081526004016123e3906155fa565b60405180910390fd5b60006123f860216131c1565b90506124058582866131cf565b61240f6021612d77565b809250505b5092915050565b6124258282611d77565b6124f8576001600e600084815260200190815260200160002060000160008373ffffffffffffffffffffffffffffffffffffffff1673ffffffffffffffffffffffffffffffffffffffff16815260200190815260200160002060006101000a81548160ff02191690831515021790555061249d612659565b73ffffffffffffffffffffffffffffffffffffffff168173ffffffffffffffffffffffffffffffffffffffff16837f2f8788117e7eff1d82e926ec794901d17c78024a50270940304540a733656f0d60405160405180910390a45b5050565b6000612524836000018373ffffffffffffffffffffffffffffffffffffffff1660001b61329f565b905092915050565b60007f80ac58cd000000000000000000000000000000000000000000000000000000007bffffffffffffffffffffffffffffffffffffffffffffffffffffffff1916827bffffffffffffffffffffffffffffffffffffffffffffffffffffffff191614806125f757507f5b5e139f000000000000000000000000000000000000000000000000000000007bffffffffffffffffffffffffffffffffffffffffffffffffffffffff1916827bffffffffffffffffffffffffffffffffffffffffffffffffffffffff1916145b8061260757506126068261330f565b5b9050919050565b61261781613389565b612656576040517f08c379a000000000000000000000000000000000000000000000000000000000815260040161264d90615666565b60405180910390fd5b50565b600033905090565b816014600083815260200190815260200160002060006101000a81548173ffffffffffffffffffffffffffffffffffffffff021916908373ffffffffffffffffffffffffffffffffffffffff160217905550808273ffffffffffffffffffffffffffffffffffffffff166126d4836119fe565b73ffffffffffffffffffffffffffffffffffffffff167f8c5be1e5ebec7d5bd14f71427d1e84f3dd0314c0f7b2291e5b200ac8c7c3b92560405160405180910390a45050565b600080612726836119fe565b90508073ffffffffffffffffffffffffffffffffffffffff168473ffffffffffffffffffffffffffffffffffffffff16148061279557508373ffffffffffffffffffffffffffffffffffffffff1661277d84610ce1565b73ffffffffffffffffffffffffffffffffffffffff16145b806127a657506127a581856120ea565b5b91505092915050565b8273ffffffffffffffffffffffffffffffffffffffff166127cf826119fe565b73ffffffffffffffffffffffffffffffffffffffff1614612825576040517f08c379a000000000000000000000000000000000000000000000000000000000815260040161281c90615877565b60405180910390fd5b600073ffffffffffffffffffffffffffffffffffffffff168273ffffffffffffffffffffffffffffffffffffffff1603612894576040517f08c379a000000000000000000000000000000000000000000000000000000000815260040161288b90615909565b60405180910390fd5b61289f8383836133f5565b6128aa600082612661565b6001601360008573ffffffffffffffffffffffffffffffffffffffff1673ffffffffffffffffffffffffffffffffffffffff16815260200190815260200160002060008282546128fa9190615958565b925050819055506001601360008473ffffffffffffffffffffffffffffffffffffffff1673ffffffffffffffffffffffffffffffffffffffff1681526020019081526020016000206000828254612951919061598c565b92505081905550816012600083815260200190815260200160002060006101000a81548173ffffffffffffffffffffffffffffffffffffffff021916908373ffffffffffffffffffffffffffffffffffffffff160217905550808273ffffffffffffffffffffffffffffffffffffffff168473ffffffffffffffffffffffffffffffffffffffff167fddf252ad1be2c89b69c2b068fc378daa952ba7f163c4a11628f55a4df523b3ef60405160405180910390a4612a108383836133fa565b505050565b612a2681612a21612659565b6133ff565b50565b612a33828261241b565b612a5881600f60008581526020019081526020016000206124fc90919063ffffffff16565b505050565b612a67828261349c565b612a8c81600f600085815260200190815260200160002061357e90919063ffffffff16565b505050565b6000612a9d83836135ae565b612adc576040517f08c379a0000000000000000000000000000000000000000000000000000000008152600401612ad390615a0c565b60405180910390fd5b600a82604051612aec9190614d46565b908152602001604051809103902054905092915050565b6060600c600084815260200190815260200160002060008381526020019081526020016000208054612b3490614c6d565b80601f0160208091040260200160405190810160405280929190818152602001828054612b6090614c6d565b8015612bad5780601f10612b8257610100808354040283529160200191612bad565b820191906000526020600020905b815481529060010190602001808311612b9057829003601f168201915b5050505050905092915050565b612bc2612659565b73ffffffffffffffffffffffffffffffffffffffff16612be0611d1e565b73ffffffffffffffffffffffffffffffffffffffff1614612c36576040517f08c379a0000000000000000000000000000000000000000000000000000000008152600401612c2d90615a78565b60405180910390fd5b565b6000612c4d612c4760216131c1565b836135fc565b507fcf34ef537ac33ee1ac626ca1587a0a7e8e51561e5514f8cb36afa1c5102b3bab604051612c7b90615b0a565b60405180910390a160006002612c9160216131c1565b84604051602001612ca3929190615b93565b604051602081830303815290604052604051612cbf9190615bfb565b602060405180830381855afa158015612cdc573d6000803e3d6000fd5b5050506040513d601f19601f82011682018060405250810190612cff9190615347565b9050612d14612d0e60216131c1565b826113d2565b8273ffffffffffffffffffffffffffffffffffffffff167f06b635dfd6a725f6b4ed22d2d7e15afd9abc86976825dd8678e98e2abcd3dbab82612d5760216131c1565b604051612d65929190615c12565b60405180910390a26001915050919050565b6001816000016000828254019250508190555050565b6000601660009054906101000a900473ffffffffffffffffffffffffffffffffffffffff16905081601660006101000a81548173ffffffffffffffffffffffffffffffffffffffff021916908373ffffffffffffffffffffffffffffffffffffffff1602179055508173ffffffffffffffffffffffffffffffffffffffff168173ffffffffffffffffffffffffffffffffffffffff167f8be0079c531659141344cd1fd0a4f28419497f9722a3daafe3b4186f6b6457e060405160405180910390a35050565b6000612e6283600001836136a9565b60001c905092915050565b8173ffffffffffffffffffffffffffffffffffffffff168373ffffffffffffffffffffffffffffffffffffffff1603612edb576040517f08c379a0000000000000000000000000000000000000000000000000000000008152600401612ed290615c87565b60405180910390fd5b80601560008573ffffffffffffffffffffffffffffffffffffffff1673ffffffffffffffffffffffffffffffffffffffff16815260200190815260200160002060008473ffffffffffffffffffffffffffffffffffffffff1673ffffffffffffffffffffffffffffffffffffffff16815260200190815260200160002060006101000a81548160ff0219169083151502179055508173ffffffffffffffffffffffffffffffffffffffff168373ffffffffffffffffffffffffffffffffffffffff167f17307eab39ab6107e8899845ad3d59bd9653f200f220920489ca2b5937696c3183604051612fcc9190614091565b60405180910390a3505050565b612fe48484846127af565b612ff0848484846136d4565b61302f576040517f08c379a000000000000000000000000000000000000000000000000000000000815260040161302690615d19565b60405180910390fd5b50505050565b606060405180602001604052806000815250905090565b606060008203613093576040518060400160405280600181526020017f300000000000000000000000000000000000000000000000000000000000000081525090506131a7565b600082905060005b600082146130c55780806130ae90615d39565b915050600a826130be9190615db0565b915061309b565b60008167ffffffffffffffff8111156130e1576130e0614251565b5b6040519080825280601f01601f1916602001820160405280156131135781602001600182028036833780820191505090505b5090505b600085146131a05760018261312c9190615958565b9150600a8561313b9190615de1565b6030613147919061598c565b60f81b81838151811061315d5761315c615e12565b5b60200101907effffffffffffffffffffffffffffffffffffffffffffffffffffffffffffff1916908160001a905350600a856131999190615db0565b9450613117565b8093505050505b919050565b60006131ba8260000161385b565b9050919050565b600081600001549050919050565b806002600084815260200190815260200160002090816131ef9190615e9c565b5080600360008573ffffffffffffffffffffffffffffffffffffffff1673ffffffffffffffffffffffffffffffffffffffff168152602001908152602001600020908161323c9190615e9c565b508260048260405161324e9190614d46565b908152602001604051809103902060006101000a81548173ffffffffffffffffffffffffffffffffffffffff021916908373ffffffffffffffffffffffffffffffffffffffff160217905550505050565b60006132ab838361386c565b613304578260000182908060018154018082558091505060019003906000526020600020016000909190919091505582600001805490508360010160008481526020019081526020016000208190555060019050613309565b600090505b92915050565b60007f5a05180f000000000000000000000000000000000000000000000000000000007bffffffffffffffffffffffffffffffffffffffffffffffffffffffff1916827bffffffffffffffffffffffffffffffffffffffffffffffffffffffff1916148061338257506133818261388f565b5b9050919050565b60008073ffffffffffffffffffffffffffffffffffffffff166012600084815260200190815260200160002060009054906101000a900473ffffffffffffffffffffffffffffffffffffffff1673ffffffffffffffffffffffffffffffffffffffff1614159050919050565b505050565b505050565b6134098282611d77565b6134985761342e8173ffffffffffffffffffffffffffffffffffffffff166014613909565b61343c8360001c6020613909565b60405160200161344d929190616006565b6040516020818303038152906040526040517f08c379a000000000000000000000000000000000000000000000000000000000815260040161348f9190614166565b60405180910390fd5b5050565b6134a68282611d77565b1561357a576000600e600084815260200190815260200160002060000160008373ffffffffffffffffffffffffffffffffffffffff1673ffffffffffffffffffffffffffffffffffffffff16815260200190815260200160002060006101000a81548160ff02191690831515021790555061351f612659565b73ffffffffffffffffffffffffffffffffffffffff168173ffffffffffffffffffffffffffffffffffffffff16837ff6391f5c32d9c69d2a47ea670b442974b53935d1edc7fd64eb21e047a839171b60405160405180910390a45b5050565b60006135a6836000018373ffffffffffffffffffffffffffffffffffffffff1660001b613b45565b905092915050565b60006001151560096000858152602001908152602001600020836040516135d59190614d46565b908152602001604051809103902060009054906101000a900460ff16151514905092915050565b60006001601a6000828254613611919061598c565b92505081905550600160186000601a548152602001908152602001600020600085815260200190815260200160002060006101000a81548160ff0219169083151502179055506136618284613c59565b600060186000601a548152602001908152602001600020600085815260200190815260200160002060006101000a81548160ff02191690831515021790555082905092915050565b60008260000182815481106136c1576136c0615e12565b5b9060005260206000200154905092915050565b60006136f58473ffffffffffffffffffffffffffffffffffffffff16613c77565b1561384e578373ffffffffffffffffffffffffffffffffffffffff1663150b7a0261371e612659565b8786866040518563ffffffff1660e01b81526004016137409493929190616040565b6020604051808303816000875af192505050801561377c57506040513d601f19601f8201168201806040525081019061377991906160a1565b60015b6137fe573d80600081146137ac576040519150601f19603f3d011682016040523d82523d6000602084013e6137b1565b606091505b5060008151036137f6576040517f08c379a00000000000000000000000000000000000000000000000000000000081526004016137ed90615d19565b60405180910390fd5b805181602001fd5b63150b7a0260e01b7bffffffffffffffffffffffffffffffffffffffffffffffffffffffff1916817bffffffffffffffffffffffffffffffffffffffffffffffffffffffff191614915050613853565b600190505b949350505050565b600081600001805490509050919050565b600080836001016000848152602001908152602001600020541415905092915050565b60007f7965db0b000000000000000000000000000000000000000000000000000000007bffffffffffffffffffffffffffffffffffffffffffffffffffffffff1916827bffffffffffffffffffffffffffffffffffffffffffffffffffffffff19161480613902575061390182613c9a565b5b9050919050565b60606000600283600261391c91906160ce565b613926919061598c565b67ffffffffffffffff81111561393f5761393e614251565b5b6040519080825280601f01601f1916602001820160405280156139715781602001600182028036833780820191505090505b5090507f3000000000000000000000000000000000000000000000000000000000000000816000815181106139a9576139a8615e12565b5b60200101907effffffffffffffffffffffffffffffffffffffffffffffffffffffffffffff1916908160001a9053507f780000000000000000000000000000000000000000000000000000000000000081600181518110613a0d57613a0c615e12565b5b60200101907effffffffffffffffffffffffffffffffffffffffffffffffffffffffffffff1916908160001a90535060006001846002613a4d91906160ce565b613a57919061598c565b90505b6001811115613af7577f3031323334353637383961626364656600000000000000000000000000000000600f861660108110613a9957613a98615e12565b5b1a60f81b828281518110613ab057613aaf615e12565b5b60200101907effffffffffffffffffffffffffffffffffffffffffffffffffffffffffffff1916908160001a905350600485901c945080613af090616110565b9050613a5a565b5060008414613b3b576040517f08c379a0000000000000000000000000000000000000000000000000000000008152600401613b3290616185565b60405180910390fd5b8091505092915050565b60008083600101600084815260200190815260200160002054905060008114613c4d576000600182613b779190615958565b9050600060018660000180549050613b8f9190615958565b9050818114613bfe576000866000018281548110613bb057613baf615e12565b5b9060005260206000200154905080876000018481548110613bd457613bd3615e12565b5b90600052602060002001819055508387600101600083815260200190815260200160002081905550505b85600001805480613c1257613c116161a5565b5b600190038181906000526020600020016000905590558560010160008681526020019081526020016000206000905560019350505050613c53565b60009150505b92915050565b613c73828260405180602001604052806000815250613cac565b5050565b6000808273ffffffffffffffffffffffffffffffffffffffff163b119050919050565b6000613ca582613d07565b9050919050565b613cb68383613d71565b613cc360008484846136d4565b613d02576040517f08c379a0000000000000000000000000000000000000000000000000000000008152600401613cf990615d19565b60405180910390fd5b505050565b60007f01ffc9a7000000000000000000000000000000000000000000000000000000007bffffffffffffffffffffffffffffffffffffffffffffffffffffffff1916827bffffffffffffffffffffffffffffffffffffffffffffffffffffffff1916149050919050565b600073ffffffffffffffffffffffffffffffffffffffff168273ffffffffffffffffffffffffffffffffffffffff1603613de0576040517f08c379a0000000000000000000000000000000000000000000000000000000008152600401613dd790616220565b60405180910390fd5b613de981613389565b15613e29576040517f08c379a0000000000000000000000000000000000000000000000000000000008152600401613e209061628c565b60405180910390fd5b613e35600083836133f5565b6001601360008473ffffffffffffffffffffffffffffffffffffffff1673ffffffffffffffffffffffffffffffffffffffff1681526020019081526020016000206000828254613e85919061598c565b92505081905550816012600083815260200190815260200160002060006101000a81548173ffffffffffffffffffffffffffffffffffffffff021916908373ffffffffffffffffffffffffffffffffffffffff160217905550808273ffffffffffffffffffffffffffffffffffffffff16600073ffffffffffffffffffffffffffffffffffffffff167fddf252ad1be2c89b69c2b068fc378daa952ba7f163c4a11628f55a4df523b3ef60405160405180910390a4613f46600083836133fa565b5050565b6040518060a001604052806000801916815260200160006006811115613f7357613f72614798565b5b8152602001606081526020016000151581526020016000151581525090565b6040518060a001604052806000815260200160008019168152602001600073ffffffffffffffffffffffffffffffffffffffff16815260200160008019168152602001600081525090565b6000604051905090565b600080fd5b600080fd5b60007fffffffff0000000000000000000000000000000000000000000000000000000082169050919050565b61402681613ff1565b811461403157600080fd5b50565b6000813590506140438161401d565b92915050565b60006020828403121561405f5761405e613fe7565b5b600061406d84828501614034565b91505092915050565b60008115159050919050565b61408b81614076565b82525050565b60006020820190506140a66000830184614082565b92915050565b6140b581613ff1565b82525050565b60006020820190506140d060008301846140ac565b92915050565b600081519050919050565b600082825260208201905092915050565b60005b838110156141105780820151818401526020810190506140f5565b60008484015250505050565b6000601f19601f8301169050919050565b6000614138826140d6565b61414281856140e1565b93506141528185602086016140f2565b61415b8161411c565b840191505092915050565b60006020820190508181036000830152614180818461412d565b905092915050565b6000819050919050565b61419b81614188565b81146141a657600080fd5b50565b6000813590506141b881614192565b92915050565b6000602082840312156141d4576141d3613fe7565b5b60006141e2848285016141a9565b91505092915050565b600073ffffffffffffffffffffffffffffffffffffffff82169050919050565b6000614216826141eb565b9050919050565b6142268161420b565b82525050565b6000602082019050614241600083018461421d565b92915050565b600080fd5b600080fd5b7f4e487b7100000000000000000000000000000000000000000000000000000000600052604160045260246000fd5b6142898261411c565b810181811067ffffffffffffffff821117156142a8576142a7614251565b5b80604052505050565b60006142bb613fdd565b90506142c78282614280565b919050565b600067ffffffffffffffff8211156142e7576142e6614251565b5b6142f08261411c565b9050602081019050919050565b82818337600083830152505050565b600061431f61431a846142cc565b6142b1565b90508281526020810184848401111561433b5761433a61424c565b5b6143468482856142fd565b509392505050565b600082601f83011261436357614362614247565b5b813561437384826020860161430c565b91505092915050565b600067ffffffffffffffff82111561439757614396614251565b5b6143a08261411c565b9050602081019050919050565b60006143c06143bb8461437c565b6142b1565b9050828152602081018484840111156143dc576143db61424c565b5b6143e78482856142fd565b509392505050565b600082601f83011261440457614403614247565b5b81356144148482602086016143ad565b91505092915050565b61442681614076565b811461443157600080fd5b50565b6000813590506144438161441d565b92915050565b60008060008060008060c0878903121561446657614465613fe7565b5b600061447489828a016141a9565b965050602087013567ffffffffffffffff81111561449557614494613fec565b5b6144a189828a0161434e565b95505060406144b289828a016141a9565b945050606087013567ffffffffffffffff8111156144d3576144d2613fec565b5b6144df89828a016143ef565b93505060806144f089828a01614434565b92505060a061450189828a01614434565b9150509295509295509295565b6145178161420b565b811461452257600080fd5b50565b6000813590506145348161450e565b92915050565b6000806040838503121561455157614550613fe7565b5b600061455f85828601614525565b9250506020614570858286016141a9565b9150509250929050565b6000819050919050565b61458d8161457a565b82525050565b60006020820190506145a86000830184614584565b92915050565b6000806000606084860312156145c7576145c6613fe7565b5b60006145d586828701614525565b93505060206145e686828701614525565b92505060406145f7868287016141a9565b9150509250925092565b61460a8161457a565b811461461557600080fd5b50565b60008135905061462781614601565b92915050565b60006020828403121561464357614642613fe7565b5b600061465184828501614618565b91505092915050565b6000806040838503121561467157614670613fe7565b5b600061467f85828601614618565b925050602061469085828601614525565b9150509250929050565b600080604083850312156146b1576146b0613fe7565b5b60006146bf858286016141a9565b92505060206146d085828601614618565b9150509250929050565b6000806000606084860312156146f3576146f2613fe7565b5b600061470186828701614618565b935050602061471286828701614525565b925050604061472386828701614434565b9150509250925092565b6000806040838503121561474457614743613fe7565b5b6000614752858286016141a9565b925050602083013567ffffffffffffffff81111561477357614772613fec565b5b61477f8582860161434e565b9150509250929050565b6147928161457a565b82525050565b7f4e487b7100000000000000000000000000000000000000000000000000000000600052602160045260246000fd5b600781106147d8576147d7614798565b5b50565b60008190506147e9826147c7565b919050565b60006147f9826147db565b9050919050565b614809816147ee565b82525050565b600081519050919050565b600082825260208201905092915050565b60006148368261480f565b614840818561481a565b93506148508185602086016140f2565b6148598161411c565b840191505092915050565b61486d81614076565b82525050565b600060a08301600083015161488b6000860182614789565b50602083015161489e6020860182614800565b50604083015184820360408601526148b6828261482b565b91505060608301516148cb6060860182614864565b5060808301516148de6080860182614864565b508091505092915050565b600060208201905081810360008301526149038184614873565b905092915050565b60006020828403121561492157614920613fe7565b5b600061492f84828501614525565b91505092915050565b61494181614188565b82525050565b600060208201905061495c6000830184614938565b92915050565b61496b81614188565b82525050565b61497a8161420b565b82525050565b60a0820160008201516149966000850182614962565b5060208201516149a96020850182614789565b5060408201516149bc6040850182614971565b5060608201516149cf6060850182614789565b5060808201516149e26080850182614962565b50505050565b600060a0820190506149fd6000830184614980565b92915050565b60008060408385031215614a1a57614a19613fe7565b5b6000614a2885828601614618565b9250506020614a39858286016141a9565b9150509250929050565b60008060408385031215614a5a57614a59613fe7565b5b6000614a6885828601614525565b9250506020614a7985828601614434565b9150509250929050565b60008060008060808587031215614a9d57614a9c613fe7565b5b6000614aab87828801614525565b9450506020614abc87828801614525565b9350506040614acd878288016141a9565b925050606085013567ffffffffffffffff811115614aee57614aed613fec565b5b614afa878288016143ef565b91505092959194509250565b600060208284031215614b1c57614b1b613fe7565b5b600082013567ffffffffffffffff811115614b3a57614b39613fec565b5b614b468482850161434e565b91505092915050565b60008060408385031215614b6657614b65613fe7565b5b6000614b7485828601614525565b9250506020614b8585828601614525565b9150509250929050565b600080600060608486031215614ba857614ba7613fe7565b5b6000614bb686828701614618565b9350506020614bc786828701614525565b9250506040614bd886828701614525565b9150509250925092565b60008060408385031215614bf957614bf8613fe7565b5b6000614c0785828601614525565b925050602083013567ffffffffffffffff811115614c2857614c27613fec565b5b614c348582860161434e565b9150509250929050565b7f4e487b7100000000000000000000000000000000000000000000000000000000600052602260045260246000fd5b60006002820490506001821680614c8557607f821691505b602082108103614c9857614c97614c3e565b5b50919050565b7f6f6e6c79206f776e65722063616e20736574206d657461730000000000000000600082015250565b6000614cd46018836140e1565b9150614cdf82614c9e565b602082019050919050565b60006020820190508181036000830152614d0381614cc7565b9050919050565b600081905092915050565b6000614d20826140d6565b614d2a8185614d0a565b9350614d3a8185602086016140f2565b80840191505092915050565b6000614d528284614d15565b915081905092915050565b600082825260208201905092915050565b6000614d798261480f565b614d838185614d5d565b9350614d938185602086016140f2565b614d9c8161411c565b840191505092915050565b60006020820190508181036000830152614dc18184614d6e565b905092915050565b60008190508160005260206000209050919050565b60006020601f8301049050919050565b600082821b905092915050565b600060088302614e2b7fffffffffffffffffffffffffffffffffffffffffffffffffffffffffffffffff82614dee565b614e358683614dee565b95508019841693508086168417925050509392505050565b6000819050919050565b6000614e72614e6d614e6884614188565b614e4d565b614188565b9050919050565b6000819050919050565b614e8c83614e57565b614ea0614e9882614e79565b848454614dfb565b825550505050565b600090565b614eb5614ea8565b614ec0818484614e83565b505050565b5b81811015614ee457614ed9600082614ead565b600181019050614ec6565b5050565b601f821115614f2957614efa81614dc9565b614f0384614dde565b81016020851015614f12578190505b614f26614f1e85614dde565b830182614ec5565b50505b505050565b600082821c905092915050565b6000614f4c60001984600802614f2e565b1980831691505092915050565b6000614f658383614f3b565b9150826002028217905092915050565b614f7e8261480f565b67ffffffffffffffff811115614f9757614f96614251565b5b614fa18254614c6d565b614fac828285614ee8565b600060209050601f831160018114614fdf5760008415614fcd578287015190505b614fd78582614f59565b86555061503f565b601f198416614fed86614dc9565b60005b8281101561501557848901518255600182019150602085019450602081019050614ff0565b86831015615032578489015161502e601f891682614f3b565b8355505b6001600288020188555050505b505050505050565b600060608201905061505c6000830186614938565b6150696020830185614584565b6150766040830184614584565b949350505050565b7f4552433732313a20617070726f76616c20746f2063757272656e74206f776e6560008201527f7200000000000000000000000000000000000000000000000000000000000000602082015250565b60006150da6021836140e1565b91506150e58261507e565b604082019050919050565b60006020820190508181036000830152615109816150cd565b9050919050565b7f4552433732313a20617070726f76652063616c6c6572206973206e6f7420746f60008201527f6b656e206f776e6572206e6f7220617070726f76656420666f7220616c6c0000602082015250565b600061516c603e836140e1565b915061517782615110565b604082019050919050565b6000602082019050818103600083015261519b8161515f565b9050919050565b7f4552433732313a2063616c6c6572206973206e6f7420746f6b656e206f776e6560008201527f72206e6f7220617070726f766564000000000000000000000000000000000000602082015250565b60006151fe602e836140e1565b9150615209826151a2565b604082019050919050565b6000602082019050818103600083015261522d816151f1565b9050919050565b7f6964656e7420616c726561647920736574000000000000000000000000000000600082015250565b600061526a6011836140e1565b915061527582615234565b602082019050919050565b600060208201905081810360008301526152998161525d565b9050919050565b7f416363657373436f6e74726f6c3a2063616e206f6e6c792072656e6f756e636560008201527f20726f6c657320666f722073656c660000000000000000000000000000000000602082015250565b60006152fc602f836140e1565b9150615307826152a0565b604082019050919050565b6000602082019050818103600083015261532b816152ef565b9050919050565b60008151905061534181614601565b92915050565b60006020828403121561535d5761535c613fe7565b5b600061536b84828501615332565b91505092915050565b600080fd5b600080fd5b6007811061538b57600080fd5b50565b60008151905061539d8161537e565b92915050565b60006153b66153b18461437c565b6142b1565b9050828152602081018484840111156153d2576153d161424c565b5b6153dd8482856140f2565b509392505050565b600082601f8301126153fa576153f9614247565b5b815161540a8482602086016153a3565b91505092915050565b6000815190506154228161441d565b92915050565b600060a0828403121561543e5761543d615374565b5b61544860a06142b1565b9050600061545884828501615332565b600083015250602061546c8482850161538e565b602083015250604082015167ffffffffffffffff8111156154905761548f615379565b5b61549c848285016153e5565b60408301525060606154b084828501615413565b60608301525060806154c484828501615413565b60808301525092915050565b6000602082840312156154e6576154e5613fe7565b5b600082015167ffffffffffffffff81111561550457615503613fec565b5b61551084828501615428565b91505092915050565b600060408201905061552e6000830185614584565b61553b602083018461421d565b9392505050565b7f637265617465206e6577206163636f756e742072657175657374656400000000600082015250565b6000615578601c836140e1565b915061558382615542565b602082019050919050565b600060208201905081810360008301526155a78161556b565b9050919050565b7f6572726f72207265676973746572696e67206e6577206163636f756e74000000600082015250565b60006155e4601d836140e1565b91506155ef826155ae565b602082019050919050565b60006020820190508181036000830152615613816155d7565b9050919050565b7f4552433732313a20696e76616c696420746f6b656e2049440000000000000000600082015250565b60006156506018836140e1565b915061565b8261561a565b602082019050919050565b6000602082019050818103600083015261567f81615643565b9050919050565b7f4552433732313a2061646472657373207a65726f206973206e6f74206120766160008201527f6c6964206f776e65720000000000000000000000000000000000000000000000602082015250565b60006156e26029836140e1565b91506156ed82615686565b604082019050919050565b60006020820190508181036000830152615711816156d5565b9050919050565b60006157248285614d15565b91506157308284614d15565b91508190509392505050565b7f4f776e61626c653a206e6577206f776e657220697320746865207a65726f206160008201527f6464726573730000000000000000000000000000000000000000000000000000602082015250565b60006157986026836140e1565b91506157a38261573c565b604082019050919050565b600060208201905081810360008301526157c78161578b565b9050919050565b60006060820190506157e36000830186614584565b6157f06020830185614938565b6157fd6040830184614584565b949350505050565b7f4552433732313a207472616e736665722066726f6d20696e636f72726563742060008201527f6f776e6572000000000000000000000000000000000000000000000000000000602082015250565b60006158616025836140e1565b915061586c82615805565b604082019050919050565b6000602082019050818103600083015261589081615854565b9050919050565b7f4552433732313a207472616e7366657220746f20746865207a65726f2061646460008201527f7265737300000000000000000000000000000000000000000000000000000000602082015250565b60006158f36024836140e1565b91506158fe82615897565b604082019050919050565b60006020820190508181036000830152615922816158e6565b9050919050565b7f4e487b7100000000000000000000000000000000000000000000000000000000600052601160045260246000fd5b600061596382614188565b915061596e83614188565b925082820390508181111561598657615985615929565b5b92915050565b600061599782614188565b91506159a283614188565b92508282019050808211156159ba576159b9615929565b5b92915050565b7f696e76616c6964206b6579207265717565737465640000000000000000000000600082015250565b60006159f66015836140e1565b9150615a01826159c0565b602082019050919050565b60006020820190508181036000830152615a25816159e9565b9050919050565b7f4f776e61626c653a2063616c6c6572206973206e6f7420746865206f776e6572600082015250565b6000615a626020836140e1565b9150615a6d82615a2c565b602082019050919050565b60006020820190508181036000830152615a9181615a55565b9050919050565b7f73757065722e5f7265676973746572206973207375636365737366756c2e2e2e60008201527f2072657175657374696e67206964656e74000000000000000000000000000000602082015250565b6000615af46031836140e1565b9150615aff82615a98565b604082019050919050565b60006020820190508181036000830152615b2381615ae7565b9050919050565b6000819050919050565b615b45615b4082614188565b615b2a565b82525050565b60008160601b9050919050565b6000615b6382615b4b565b9050919050565b6000615b7582615b58565b9050919050565b615b8d615b888261420b565b615b6a565b82525050565b6000615b9f8285615b34565b602082019150615baf8284615b7c565b6014820191508190509392505050565b600081905092915050565b6000615bd58261480f565b615bdf8185615bbf565b9350615bef8185602086016140f2565b80840191505092915050565b6000615c078284615bca565b915081905092915050565b6000604082019050615c276000830185614584565b615c346020830184614938565b9392505050565b7f4552433732313a20617070726f766520746f2063616c6c657200000000000000600082015250565b6000615c716019836140e1565b9150615c7c82615c3b565b602082019050919050565b60006020820190508181036000830152615ca081615c64565b9050919050565b7f4552433732313a207472616e7366657220746f206e6f6e20455243373231526560008201527f63656976657220696d706c656d656e7465720000000000000000000000000000602082015250565b6000615d036032836140e1565b9150615d0e82615ca7565b604082019050919050565b60006020820190508181036000830152615d3281615cf6565b9050919050565b6000615d4482614188565b91507fffffffffffffffffffffffffffffffffffffffffffffffffffffffffffffffff8203615d7657615d75615929565b5b600182019050919050565b7f4e487b7100000000000000000000000000000000000000000000000000000000600052601260045260246000fd5b6000615dbb82614188565b9150615dc683614188565b925082615dd657615dd5615d81565b5b828204905092915050565b6000615dec82614188565b9150615df783614188565b925082615e0757615e06615d81565b5b828206905092915050565b7f4e487b7100000000000000000000000000000000000000000000000000000000600052603260045260246000fd5b60008190508160005260206000209050919050565b601f821115615e9757615e6881615e41565b615e7184614dde565b81016020851015615e80578190505b615e94615e8c85614dde565b830182614ec5565b50505b505050565b615ea5826140d6565b67ffffffffffffffff811115615ebe57615ebd614251565b5b615ec88254614c6d565b615ed3828285615e56565b600060209050601f831160018114615f065760008415615ef4578287015190505b615efe8582614f59565b865550615f66565b601f198416615f1486615e41565b60005b82811015615f3c57848901518255600182019150602085019450602081019050615f17565b86831015615f595784890151615f55601f891682614f3b565b8355505b6001600288020188555050505b505050505050565b7f416363657373436f6e74726f6c3a206163636f756e7420000000000000000000600082015250565b6000615fa4601783614d0a565b9150615faf82615f6e565b601782019050919050565b7f206973206d697373696e6720726f6c6520000000000000000000000000000000600082015250565b6000615ff0601183614d0a565b9150615ffb82615fba565b601182019050919050565b600061601182615f97565b915061601d8285614d15565b915061602882615fe3565b91506160348284614d15565b91508190509392505050565b6000608082019050616055600083018761421d565b616062602083018661421d565b61606f6040830185614938565b81810360608301526160818184614d6e565b905095945050505050565b60008151905061609b8161401d565b92915050565b6000602082840312156160b7576160b6613fe7565b5b60006160c58482850161608c565b91505092915050565b60006160d982614188565b91506160e483614188565b92508282026160f281614188565b9150828204841483151761610957616108615929565b5b5092915050565b600061611b82614188565b91506000820361612e5761612d615929565b5b600182039050919050565b7f537472696e67733a20686578206c656e67746820696e73756666696369656e74600082015250565b600061616f6020836140e1565b915061617a82616139565b602082019050919050565b6000602082019050818103600083015261619e81616162565b9050919050565b7f4e487b7100000000000000000000000000000000000000000000000000000000600052603160045260246000fd5b7f4552433732313a206d696e7420746f20746865207a65726f2061646472657373600082015250565b600061620a6020836140e1565b9150616215826161d4565b602082019050919050565b60006020820190508181036000830152616239816161fd565b9050919050565b7f4552433732313a20746f6b656e20616c7265616479206d696e74656400000000600082015250565b6000616276601c836140e1565b915061628182616240565b602082019050919050565b600060208201905081810360008301526162a581616269565b905091905056fea2646970667358221220a3b6f69a78c6db77a1aa1d5ce1a5d46e67e4d861fc36539ab43d70be7a34634b64736f6c63430008110033",
  "linkReferences": {},
  "deployedLinkReferences": {}
}