{
  "_format": "hh-sol-artifact-1",
  "contractName": "UserDataServiceResolver",
  "sourceName": "contracts/modules/uds/UserDataServiceResolver.sol",
  "abi": [
    {
      "inputs": [
        {
          "internalType": "address",
          "name": "_uds",
          "type": "address"
        }
      ],
      "stateMutability": "nonpayable",
      "type": "constructor"
    },
    {
      "anonymous": false,
      "inputs": [
        {
          "indexed": true,
          "internalType": "bytes32",
          "name": "profileId",
          "type": "bytes32"
        },
        {
          "indexed": true,
          "internalType": "address",
          "name": "owner",
          "type": "address"
        },
        {
          "indexed": true,
          "internalType": "address",
          "name": "target",
          "type": "address"
        },
        {
          "indexed": false,
          "internalType": "bool",
          "name": "isAuthorised",
          "type": "bool"
        }
      ],
      "name": "AuthorisationChanged",
      "type": "event"
    },
    {
      "anonymous": false,
      "inputs": [
        {
          "indexed": false,
          "internalType": "uint256",
          "name": "tokenid",
          "type": "uint256"
        },
        {
          "indexed": false,
          "internalType": "bytes32",
          "name": "metaid",
          "type": "bytes32"
        },
        {
          "indexed": false,
          "internalType": "bytes32",
          "name": "keyid",
          "type": "bytes32"
        }
      ],
      "name": "MetaDataAdded",
      "type": "event"
    },
    {
      "inputs": [
        {
          "internalType": "bytes32",
          "name": "",
          "type": "bytes32"
        },
        {
          "internalType": "address",
          "name": "",
          "type": "address"
        },
        {
          "internalType": "address",
          "name": "",
          "type": "address"
        }
      ],
      "name": "authorisations",
      "outputs": [
        {
          "internalType": "bool",
          "name": "",
          "type": "bool"
        }
      ],
      "stateMutability": "view",
      "type": "function"
    },
    {
      "inputs": [
        {
          "internalType": "uint256",
          "name": "tokenId",
          "type": "uint256"
        }
      ],
      "name": "ident",
      "outputs": [
        {
          "internalType": "string",
          "name": "",
          "type": "string"
        }
      ],
      "stateMutability": "view",
      "type": "function"
    },
    {
      "inputs": [
        {
          "internalType": "uint256",
          "name": "tokenId",
          "type": "uint256"
        },
        {
          "internalType": "string",
          "name": "keyStr",
          "type": "string"
        }
      ],
      "name": "metaValue",
      "outputs": [
        {
          "components": [
            {
              "internalType": "bytes32",
              "name": "key",
              "type": "bytes32"
            },
            {
              "internalType": "enum MetaDataResolver.DataTypes",
              "name": "dType",
              "type": "uint8"
            },
            {
              "internalType": "bytes",
              "name": "dValue",
              "type": "bytes"
            },
            {
              "internalType": "bool",
              "name": "editable",
              "type": "bool"
            },
            {
              "internalType": "bool",
              "name": "encrypted",
              "type": "bool"
            }
          ],
          "internalType": "struct MetaDataResolver.KeyValMeta",
          "name": "kv",
          "type": "tuple"
        }
      ],
      "stateMutability": "view",
      "type": "function"
    },
    {
      "inputs": [
        {
          "internalType": "uint256",
          "name": "tokenId",
          "type": "uint256"
        }
      ],
      "name": "metadata",
      "outputs": [
        {
          "internalType": "bytes32",
          "name": "",
          "type": "bytes32"
        }
      ],
      "stateMutability": "view",
      "type": "function"
    },
    {
      "inputs": [
        {
          "internalType": "bytes[]",
          "name": "data",
          "type": "bytes[]"
        }
      ],
      "name": "multicall",
      "outputs": [
        {
          "internalType": "bytes[]",
          "name": "results",
          "type": "bytes[]"
        }
      ],
      "stateMutability": "nonpayable",
      "type": "function"
    },
    {
      "inputs": [
        {
          "internalType": "uint256",
          "name": "tokenId",
          "type": "uint256"
        }
      ],
      "name": "name",
      "outputs": [
        {
          "internalType": "string",
          "name": "",
          "type": "string"
        }
      ],
      "stateMutability": "view",
      "type": "function"
    },
    {
      "inputs": [
        {
          "internalType": "uint256",
          "name": "tokenId",
          "type": "uint256"
        }
      ],
      "name": "profile",
      "outputs": [
        {
          "internalType": "bytes32",
          "name": "",
          "type": "bytes32"
        }
      ],
      "stateMutability": "view",
      "type": "function"
    },
    {
      "inputs": [
        {
          "internalType": "bytes32",
          "name": "profileId",
          "type": "bytes32"
        },
        {
          "internalType": "address",
          "name": "target",
          "type": "address"
        },
        {
          "internalType": "bool",
          "name": "isAuthorised",
          "type": "bool"
        }
      ],
      "name": "setAuthorisation",
      "outputs": [],
      "stateMutability": "nonpayable",
      "type": "function"
    },
    {
      "inputs": [
        {
          "internalType": "uint256",
          "name": "tokenId",
          "type": "uint256"
        },
        {
          "internalType": "string",
          "name": "keyStr",
          "type": "string"
        },
        {
          "internalType": "uint256",
          "name": "_dtype",
          "type": "uint256"
        },
        {
          "internalType": "bytes",
          "name": "value",
          "type": "bytes"
        },
        {
          "internalType": "bool",
          "name": "editable",
          "type": "bool"
        },
        {
          "internalType": "bool",
          "name": "encrypted",
          "type": "bool"
        }
      ],
      "name": "setMetaData",
      "outputs": [],
      "stateMutability": "nonpayable",
      "type": "function"
    },
    {
      "inputs": [
        {
          "internalType": "bytes4",
          "name": "interfaceID",
          "type": "bytes4"
        }
      ],
      "name": "supportsInterface",
      "outputs": [
        {
          "internalType": "bool",
          "name": "",
          "type": "bool"
        }
      ],
      "stateMutability": "pure",
      "type": "function"
    }
  ],
  "bytecode": "0x60806040523480156200001157600080fd5b506040516200217f3803806200217f8339818101604052810190620000379190620000e9565b80600a60006101000a81548173ffffffffffffffffffffffffffffffffffffffff021916908373ffffffffffffffffffffffffffffffffffffffff160217905550506200011b565b600080fd5b600073ffffffffffffffffffffffffffffffffffffffff82169050919050565b6000620000b18262000084565b9050919050565b620000c381620000a4565b8114620000cf57600080fd5b50565b600081519050620000e381620000b8565b92915050565b6000602082840312156200010257620001016200007f565b5b60006200011284828501620000d2565b91505092915050565b612054806200012b6000396000f3fe608060405234801561001057600080fd5b506004361061009d5760003560e01c80634dc34682116100665780634dc346821461016a57806372cd2b1a1461019a578063ac9650d8146101ca578063e3684e39146101fa578063f86bc8791461022a5761009d565b8062ad800c146100a257806301ffc9a7146100d257806308730f07146101025780630e2f9f101461011e5780633e9ce7941461014e575b600080fd5b6100bc60048036038101906100b79190610ecc565b61025a565b6040516100c99190610f89565b60405180910390f35b6100ec60048036038101906100e79190611003565b6102ff565b6040516100f9919061104b565b60405180910390f35b61011c60048036038101906101179190611268565b610311565b005b61013860048036038101906101339190610ecc565b610632565b6040516101459190610f89565b60405180910390f35b610168600480360381019061016391906113c1565b6106d6565b005b610184600480360381019061017f9190611414565b6107e6565b60405161019191906115d0565b60405180910390f35b6101b460048036038101906101af9190610ecc565b6108a1565b6040516101c19190611601565b60405180910390f35b6101e460048036038101906101df919061167c565b6108be565b6040516101f1919061178b565b60405180910390f35b610214600480360381019061020f9190610ecc565b6109f8565b6040516102219190611601565b60405180910390f35b610244600480360381019061023f91906117ad565b610a15565b604051610251919061104b565b60405180910390f35b606060016000838152602001908152602001600020805461027a9061182f565b80601f01602080910402602001604051908101604052809291908181526020018280546102a69061182f565b80156102f35780601f106102c8576101008083540402835291602001916102f3565b820191906000526020600020905b8154815290600101906020018083116102d657829003601f168201915b50505050509050919050565b600061030a82610a51565b9050919050565b6009600087815260200190815260200160002060009054906101000a900473ffffffffffffffffffffffffffffffffffffffff1673ffffffffffffffffffffffffffffffffffffffff163373ffffffffffffffffffffffffffffffffffffffff16146103b2576040517f08c379a00000000000000000000000000000000000000000000000000000000081526004016103a9906118ac565b60405180910390fd5b6000866040516020016103c591906118db565b604051602081830303815290604052805190602001209050600115156004600083815260200190815260200160002060009054906101000a900460ff1615151461044e5760016004600083815260200190815260200160002060006101000a81548160ff0219169083151502179055508060036000898152602001908152602001600020819055505b600115156007876040516104629190611932565b908152602001604051809103902060009054906101000a900460ff161515146105065760016007876040516104979190611932565b908152602001604051809103902060006101000a81548160ff021916908315150217905550856040516020016104cd9190611932565b604051602081830303815290604052805190602001206006876040516104f39190611932565b9081526020016040518091039020819055505b60006006876040516105189190611932565b908152602001604051809103902054905060006040518060a0016040528083815260200188600681111561054f5761054e61147f565b5b60068111156105615761056061147f565b5b8152602001876040516020016105779190611993565b604051602081830303815290604052815260200186151581526020018515158152509050806040516020016105ac91906115d0565b60405160208183030381529060405260086000858152602001908152602001600020600084815260200190815260200160002090816105eb9190611b61565b507f0e7d31702c053db64a9bb1c5fa3ceeda422af277139cc645fccdcf87ad23970c89848460405161061f93929190611c33565b60405180910390a1505050505050505050565b606060008083815260200190815260200160002080546106519061182f565b80601f016020809104026020016040519081016040528092919081815260200182805461067d9061182f565b80156106ca5780601f1061069f576101008083540402835291602001916106ca565b820191906000526020600020905b8154815290600101906020018083116106ad57829003601f168201915b50505050509050919050565b80600b600085815260200190815260200160002060003373ffffffffffffffffffffffffffffffffffffffff1673ffffffffffffffffffffffffffffffffffffffff16815260200190815260200160002060008473ffffffffffffffffffffffffffffffffffffffff1673ffffffffffffffffffffffffffffffffffffffff16815260200190815260200160002060006101000a81548160ff0219169083151502179055508173ffffffffffffffffffffffffffffffffffffffff163373ffffffffffffffffffffffffffffffffffffffff16847fe1c5610a6e0cbe10764ecd182adcef1ec338dc4e199c99c32ce98f38e12791df846040516107d9919061104b565b60405180910390a4505050565b6107ee610e3a565b60003073ffffffffffffffffffffffffffffffffffffffff1663e3684e39856040518263ffffffff1660e01b815260040161082991906118db565b602060405180830381865afa158015610846573d6000803e3d6000fd5b505050506040513d601f19601f8201168201806040525081019061086a9190611c7f565b9050600061088161087b8386610b50565b83610bc2565b9050808060200190518101906108979190611e08565b9250505092915050565b600060026000838152602001908152602001600020549050919050565b60608282905067ffffffffffffffff8111156108dd576108dc611070565b5b60405190808252806020026020018201604052801561091057816020015b60608152602001906001900390816108fb5790505b50905060005b838390508110156109f1576000803073ffffffffffffffffffffffffffffffffffffffff1686868581811061094e5761094d611e51565b5b90506020028101906109609190611e8f565b60405161096e929190611f22565b600060405180830381855af49150503d80600081146109a9576040519150601f19603f3d011682016040523d82523d6000602084013e6109ae565b606091505b5091509150816109bd57600080fd5b808484815181106109d1576109d0611e51565b5b6020026020010181905250505080806109e990611f6a565b915050610916565b5092915050565b600060036000838152602001908152602001600020549050919050565b600b602052826000526040600020602052816000526040600020602052806000526040600020600092509250509054906101000a900460ff1681565b600063e3684e3960e01b7bffffffffffffffffffffffffffffffffffffffffffffffffffffffff1916827bffffffffffffffffffffffffffffffffffffffffffffffffffffffff19161480610aea5750634dc3468260e01b7bffffffffffffffffffffffffffffffffffffffffffffffffffffffff1916827bffffffffffffffffffffffffffffffffffffffffffffffffffffffff1916145b80610b3957506308730f0760e01b7bffffffffffffffffffffffffffffffffffffffffffffffffffffffff1916827bffffffffffffffffffffffffffffffffffffffffffffffffffffffff1916145b80610b495750610b4882610c79565b5b9050919050565b6000610b5c8383610cda565b610b9b576040517f08c379a0000000000000000000000000000000000000000000000000000000008152600401610b9290611ffe565b60405180910390fd5b600682604051610bab9190611932565b908152602001604051809103902054905092915050565b60606008600084815260200190815260200160002060008381526020019081526020016000208054610bf39061182f565b80601f0160208091040260200160405190810160405280929190818152602001828054610c1f9061182f565b8015610c6c5780601f10610c4157610100808354040283529160200191610c6c565b820191906000526020600020905b815481529060010190602001808311610c4f57829003601f168201915b5050505050905092915050565b60006372cd2b1a60e01b7bffffffffffffffffffffffffffffffffffffffffffffffffffffffff1916827bffffffffffffffffffffffffffffffffffffffffffffffffffffffff19161480610cd35750610cd282610d28565b5b9050919050565b6000600115156005600085815260200190815260200160002083604051610d019190611932565b908152602001604051809103902060009054906101000a900460ff16151514905092915050565b600062ad800c60e01b7bffffffffffffffffffffffffffffffffffffffffffffffffffffffff1916827bffffffffffffffffffffffffffffffffffffffffffffffffffffffff19161480610d815750610d8082610d88565b5b9050919050565b6000630e2f9f1060e01b7bffffffffffffffffffffffffffffffffffffffffffffffffffffffff1916827bffffffffffffffffffffffffffffffffffffffffffffffffffffffff19161480610de25750610de182610de9565b5b9050919050565b60006301ffc9a760e01b7bffffffffffffffffffffffffffffffffffffffffffffffffffffffff1916827bffffffffffffffffffffffffffffffffffffffffffffffffffffffff1916149050919050565b6040518060a001604052806000801916815260200160006006811115610e6357610e6261147f565b5b8152602001606081526020016000151581526020016000151581525090565b6000604051905090565b600080fd5b600080fd5b6000819050919050565b610ea981610e96565b8114610eb457600080fd5b50565b600081359050610ec681610ea0565b92915050565b600060208284031215610ee257610ee1610e8c565b5b6000610ef084828501610eb7565b91505092915050565b600081519050919050565b600082825260208201905092915050565b60005b83811015610f33578082015181840152602081019050610f18565b60008484015250505050565b6000601f19601f8301169050919050565b6000610f5b82610ef9565b610f658185610f04565b9350610f75818560208601610f15565b610f7e81610f3f565b840191505092915050565b60006020820190508181036000830152610fa38184610f50565b905092915050565b60007fffffffff0000000000000000000000000000000000000000000000000000000082169050919050565b610fe081610fab565b8114610feb57600080fd5b50565b600081359050610ffd81610fd7565b92915050565b60006020828403121561101957611018610e8c565b5b600061102784828501610fee565b91505092915050565b60008115159050919050565b61104581611030565b82525050565b6000602082019050611060600083018461103c565b92915050565b600080fd5b600080fd5b7f4e487b7100000000000000000000000000000000000000000000000000000000600052604160045260246000fd5b6110a882610f3f565b810181811067ffffffffffffffff821117156110c7576110c6611070565b5b80604052505050565b60006110da610e82565b90506110e6828261109f565b919050565b600067ffffffffffffffff82111561110657611105611070565b5b61110f82610f3f565b9050602081019050919050565b82818337600083830152505050565b600061113e611139846110eb565b6110d0565b90508281526020810184848401111561115a5761115961106b565b5b61116584828561111c565b509392505050565b600082601f83011261118257611181611066565b5b813561119284826020860161112b565b91505092915050565b600067ffffffffffffffff8211156111b6576111b5611070565b5b6111bf82610f3f565b9050602081019050919050565b60006111df6111da8461119b565b6110d0565b9050828152602081018484840111156111fb576111fa61106b565b5b61120684828561111c565b509392505050565b600082601f83011261122357611222611066565b5b81356112338482602086016111cc565b91505092915050565b61124581611030565b811461125057600080fd5b50565b6000813590506112628161123c565b92915050565b60008060008060008060c0878903121561128557611284610e8c565b5b600061129389828a01610eb7565b965050602087013567ffffffffffffffff8111156112b4576112b3610e91565b5b6112c089828a0161116d565b95505060406112d189828a01610eb7565b945050606087013567ffffffffffffffff8111156112f2576112f1610e91565b5b6112fe89828a0161120e565b935050608061130f89828a01611253565b92505060a061132089828a01611253565b9150509295509295509295565b6000819050919050565b6113408161132d565b811461134b57600080fd5b50565b60008135905061135d81611337565b92915050565b600073ffffffffffffffffffffffffffffffffffffffff82169050919050565b600061138e82611363565b9050919050565b61139e81611383565b81146113a957600080fd5b50565b6000813590506113bb81611395565b92915050565b6000806000606084860312156113da576113d9610e8c565b5b60006113e88682870161134e565b93505060206113f9868287016113ac565b925050604061140a86828701611253565b9150509250925092565b6000806040838503121561142b5761142a610e8c565b5b600061143985828601610eb7565b925050602083013567ffffffffffffffff81111561145a57611459610e91565b5b6114668582860161116d565b9150509250929050565b6114798161132d565b82525050565b7f4e487b7100000000000000000000000000000000000000000000000000000000600052602160045260246000fd5b600781106114bf576114be61147f565b5b50565b60008190506114d0826114ae565b919050565b60006114e0826114c2565b9050919050565b6114f0816114d5565b82525050565b600081519050919050565b600082825260208201905092915050565b600061151d826114f6565b6115278185611501565b9350611537818560208601610f15565b61154081610f3f565b840191505092915050565b61155481611030565b82525050565b600060a0830160008301516115726000860182611470565b50602083015161158560208601826114e7565b506040830151848203604086015261159d8282611512565b91505060608301516115b2606086018261154b565b5060808301516115c5608086018261154b565b508091505092915050565b600060208201905081810360008301526115ea818461155a565b905092915050565b6115fb8161132d565b82525050565b600060208201905061161660008301846115f2565b92915050565b600080fd5b600080fd5b60008083601f84011261163c5761163b611066565b5b8235905067ffffffffffffffff8111156116595761165861161c565b5b60208301915083602082028301111561167557611674611621565b5b9250929050565b6000806020838503121561169357611692610e8c565b5b600083013567ffffffffffffffff8111156116b1576116b0610e91565b5b6116bd85828601611626565b92509250509250929050565b600081519050919050565b600082825260208201905092915050565b6000819050602082019050919050565b60006117018383611512565b905092915050565b6000602082019050919050565b6000611721826116c9565b61172b81856116d4565b93508360208202850161173d856116e5565b8060005b85811015611779578484038952815161175a85826116f5565b945061176583611709565b925060208a01995050600181019050611741565b50829750879550505050505092915050565b600060208201905081810360008301526117a58184611716565b905092915050565b6000806000606084860312156117c6576117c5610e8c565b5b60006117d48682870161134e565b93505060206117e5868287016113ac565b92505060406117f6868287016113ac565b9150509250925092565b7f4e487b7100000000000000000000000000000000000000000000000000000000600052602260045260246000fd5b6000600282049050600182168061184757607f821691505b60208210810361185a57611859611800565b5b50919050565b7f6f6e6c79206f776e65722063616e20736574206d657461730000000000000000600082015250565b6000611896601883610f04565b91506118a182611860565b602082019050919050565b600060208201905081810360008301526118c581611889565b9050919050565b6118d581610e96565b82525050565b60006020820190506118f060008301846118cc565b92915050565b600081905092915050565b600061190c82610ef9565b61191681856118f6565b9350611926818560208601610f15565b80840191505092915050565b600061193e8284611901565b915081905092915050565b600082825260208201905092915050565b6000611965826114f6565b61196f8185611949565b935061197f818560208601610f15565b61198881610f3f565b840191505092915050565b600060208201905081810360008301526119ad818461195a565b905092915050565b60008190508160005260206000209050919050565b60006020601f8301049050919050565b600082821b905092915050565b600060088302611a177fffffffffffffffffffffffffffffffffffffffffffffffffffffffffffffffff826119da565b611a2186836119da565b95508019841693508086168417925050509392505050565b6000819050919050565b6000611a5e611a59611a5484610e96565b611a39565b610e96565b9050919050565b6000819050919050565b611a7883611a43565b611a8c611a8482611a65565b8484546119e7565b825550505050565b600090565b611aa1611a94565b611aac818484611a6f565b505050565b5b81811015611ad057611ac5600082611a99565b600181019050611ab2565b5050565b601f821115611b1557611ae6816119b5565b611aef846119ca565b81016020851015611afe578190505b611b12611b0a856119ca565b830182611ab1565b50505b505050565b600082821c905092915050565b6000611b3860001984600802611b1a565b1980831691505092915050565b6000611b518383611b27565b9150826002028217905092915050565b611b6a826114f6565b67ffffffffffffffff811115611b8357611b82611070565b5b611b8d825461182f565b611b98828285611ad4565b600060209050601f831160018114611bcb5760008415611bb9578287015190505b611bc38582611b45565b865550611c2b565b601f198416611bd9866119b5565b60005b82811015611c0157848901518255600182019150602085019450602081019050611bdc565b86831015611c1e5784890151611c1a601f891682611b27565b8355505b6001600288020188555050505b505050505050565b6000606082019050611c4860008301866118cc565b611c5560208301856115f2565b611c6260408301846115f2565b949350505050565b600081519050611c7981611337565b92915050565b600060208284031215611c9557611c94610e8c565b5b6000611ca384828501611c6a565b91505092915050565b600080fd5b600080fd5b60078110611cc357600080fd5b50565b600081519050611cd581611cb6565b92915050565b6000611cee611ce98461119b565b6110d0565b905082815260208101848484011115611d0a57611d0961106b565b5b611d15848285610f15565b509392505050565b600082601f830112611d3257611d31611066565b5b8151611d42848260208601611cdb565b91505092915050565b600081519050611d5a8161123c565b92915050565b600060a08284031215611d7657611d75611cac565b5b611d8060a06110d0565b90506000611d9084828501611c6a565b6000830152506020611da484828501611cc6565b602083015250604082015167ffffffffffffffff811115611dc857611dc7611cb1565b5b611dd484828501611d1d565b6040830152506060611de884828501611d4b565b6060830152506080611dfc84828501611d4b565b60808301525092915050565b600060208284031215611e1e57611e1d610e8c565b5b600082015167ffffffffffffffff811115611e3c57611e3b610e91565b5b611e4884828501611d60565b91505092915050565b7f4e487b7100000000000000000000000000000000000000000000000000000000600052603260045260246000fd5b600080fd5b600080fd5b600080fd5b60008083356001602003843603038112611eac57611eab611e80565b5b80840192508235915067ffffffffffffffff821115611ece57611ecd611e85565b5b602083019250600182023603831315611eea57611ee9611e8a565b5b509250929050565b600081905092915050565b6000611f098385611ef2565b9350611f1683858461111c565b82840190509392505050565b6000611f2f828486611efd565b91508190509392505050565b7f4e487b7100000000000000000000000000000000000000000000000000000000600052601160045260246000fd5b6000611f7582610e96565b91507fffffffffffffffffffffffffffffffffffffffffffffffffffffffffffffffff8203611fa757611fa6611f3b565b5b600182019050919050565b7f696e76616c6964206b6579207265717565737465640000000000000000000000600082015250565b6000611fe8601583610f04565b9150611ff382611fb2565b602082019050919050565b6000602082019050818103600083015261201781611fdb565b905091905056fea2646970667358221220611631a59fc3d50a14a5e2c1ed733947d4833f2fd709e183aace7dbf1c60e0ba64736f6c63430008100033",
  "linkReferences": {},
  "deployedLinkReferences": {}
}