{
  "_format": "hh-sol-artifact-1",
  "contractName": "BaseUserRegistry",
  "sourceName": "contracts/registry/BaseUserRegistry.sol",
  "abi": [
    {
      "inputs": [
        {
          "internalType": "bytes32",
          "name": "rootNode",
          "type": "bytes32"
        },
        {
          "internalType": "address",
          "name": "_uds",
          "type": "address"
        }
      ],
      "stateMutability": "nonpayable",
      "type": "constructor"
    },
    {
      "anonymous": false,
      "inputs": [
        {
          "indexed": true,
          "internalType": "address",
          "name": "owner",
          "type": "address"
        },
        {
          "indexed": true,
          "internalType": "address",
          "name": "approved",
          "type": "address"
        },
        {
          "indexed": true,
          "internalType": "uint256",
          "name": "tokenId",
          "type": "uint256"
        }
      ],
      "name": "Approval",
      "type": "event"
    },
    {
      "anonymous": false,
      "inputs": [
        {
          "indexed": true,
          "internalType": "address",
          "name": "owner",
          "type": "address"
        },
        {
          "indexed": true,
          "internalType": "address",
          "name": "operator",
          "type": "address"
        },
        {
          "indexed": false,
          "internalType": "bool",
          "name": "approved",
          "type": "bool"
        }
      ],
      "name": "ApprovalForAll",
      "type": "event"
    },
    {
      "anonymous": false,
      "inputs": [
        {
          "indexed": true,
          "internalType": "address",
          "name": "previousOwner",
          "type": "address"
        },
        {
          "indexed": true,
          "internalType": "address",
          "name": "newOwner",
          "type": "address"
        }
      ],
      "name": "OwnershipTransferred",
      "type": "event"
    },
    {
      "anonymous": false,
      "inputs": [
        {
          "indexed": true,
          "internalType": "address",
          "name": "from",
          "type": "address"
        },
        {
          "indexed": true,
          "internalType": "address",
          "name": "to",
          "type": "address"
        },
        {
          "indexed": true,
          "internalType": "uint256",
          "name": "tokenId",
          "type": "uint256"
        }
      ],
      "name": "Transfer",
      "type": "event"
    },
    {
      "inputs": [
        {
          "internalType": "address",
          "name": "to",
          "type": "address"
        },
        {
          "internalType": "uint256",
          "name": "tokenId",
          "type": "uint256"
        }
      ],
      "name": "approve",
      "outputs": [],
      "stateMutability": "nonpayable",
      "type": "function"
    },
    {
      "inputs": [
        {
          "internalType": "address",
          "name": "controller",
          "type": "address"
        }
      ],
      "name": "authorizeController",
      "outputs": [],
      "stateMutability": "nonpayable",
      "type": "function"
    },
    {
      "inputs": [
        {
          "internalType": "address",
          "name": "owner",
          "type": "address"
        }
      ],
      "name": "balanceOf",
      "outputs": [
        {
          "internalType": "uint256",
          "name": "",
          "type": "uint256"
        }
      ],
      "stateMutability": "view",
      "type": "function"
    },
    {
      "inputs": [
        {
          "internalType": "address",
          "name": "",
          "type": "address"
        }
      ],
      "name": "controllers",
      "outputs": [
        {
          "internalType": "bool",
          "name": "",
          "type": "bool"
        }
      ],
      "stateMutability": "view",
      "type": "function"
    },
    {
      "inputs": [
        {
          "internalType": "address",
          "name": "controller",
          "type": "address"
        }
      ],
      "name": "deAuthorizeController",
      "outputs": [],
      "stateMutability": "nonpayable",
      "type": "function"
    },
    {
      "inputs": [
        {
          "internalType": "uint256",
          "name": "tokenId",
          "type": "uint256"
        }
      ],
      "name": "getApproved",
      "outputs": [
        {
          "internalType": "address",
          "name": "",
          "type": "address"
        }
      ],
      "stateMutability": "view",
      "type": "function"
    },
    {
      "inputs": [
        {
          "internalType": "address",
          "name": "owner",
          "type": "address"
        },
        {
          "internalType": "address",
          "name": "operator",
          "type": "address"
        }
      ],
      "name": "isApprovedForAll",
      "outputs": [
        {
          "internalType": "bool",
          "name": "",
          "type": "bool"
        }
      ],
      "stateMutability": "view",
      "type": "function"
    },
    {
      "inputs": [],
      "name": "name",
      "outputs": [
        {
          "internalType": "string",
          "name": "",
          "type": "string"
        }
      ],
      "stateMutability": "view",
      "type": "function"
    },
    {
      "inputs": [],
      "name": "owner",
      "outputs": [
        {
          "internalType": "address",
          "name": "",
          "type": "address"
        }
      ],
      "stateMutability": "view",
      "type": "function"
    },
    {
      "inputs": [
        {
          "internalType": "uint256",
          "name": "tokenId",
          "type": "uint256"
        }
      ],
      "name": "ownerOf",
      "outputs": [
        {
          "internalType": "address",
          "name": "",
          "type": "address"
        }
      ],
      "stateMutability": "view",
      "type": "function"
    },
    {
      "inputs": [
        {
          "internalType": "address",
          "name": "owner",
          "type": "address"
        }
      ],
      "name": "register",
      "outputs": [
        {
          "internalType": "uint256",
          "name": "",
          "type": "uint256"
        }
      ],
      "stateMutability": "nonpayable",
      "type": "function"
    },
    {
      "inputs": [
        {
          "internalType": "uint256",
          "name": "tokenId",
          "type": "uint256"
        },
        {
          "internalType": "address",
          "name": "owner",
          "type": "address"
        }
      ],
      "name": "register",
      "outputs": [
        {
          "internalType": "uint256",
          "name": "",
          "type": "uint256"
        }
      ],
      "stateMutability": "nonpayable",
      "type": "function"
    },
    {
      "inputs": [],
      "name": "renounceOwnership",
      "outputs": [],
      "stateMutability": "nonpayable",
      "type": "function"
    },
    {
      "inputs": [],
      "name": "rootNodeAddress",
      "outputs": [
        {
          "internalType": "bytes32",
          "name": "",
          "type": "bytes32"
        }
      ],
      "stateMutability": "view",
      "type": "function"
    },
    {
      "inputs": [
        {
          "internalType": "address",
          "name": "from",
          "type": "address"
        },
        {
          "internalType": "address",
          "name": "to",
          "type": "address"
        },
        {
          "internalType": "uint256",
          "name": "tokenId",
          "type": "uint256"
        }
      ],
      "name": "safeTransferFrom",
      "outputs": [],
      "stateMutability": "nonpayable",
      "type": "function"
    },
    {
      "inputs": [
        {
          "internalType": "address",
          "name": "from",
          "type": "address"
        },
        {
          "internalType": "address",
          "name": "to",
          "type": "address"
        },
        {
          "internalType": "uint256",
          "name": "tokenId",
          "type": "uint256"
        },
        {
          "internalType": "bytes",
          "name": "data",
          "type": "bytes"
        }
      ],
      "name": "safeTransferFrom",
      "outputs": [],
      "stateMutability": "nonpayable",
      "type": "function"
    },
    {
      "inputs": [
        {
          "internalType": "address",
          "name": "operator",
          "type": "address"
        },
        {
          "internalType": "bool",
          "name": "approved",
          "type": "bool"
        }
      ],
      "name": "setApprovalForAll",
      "outputs": [],
      "stateMutability": "nonpayable",
      "type": "function"
    },
    {
      "inputs": [
        {
          "internalType": "address",
          "name": "resolver",
          "type": "address"
        }
      ],
      "name": "setResolver",
      "outputs": [],
      "stateMutability": "nonpayable",
      "type": "function"
    },
    {
      "inputs": [
        {
          "internalType": "bytes4",
          "name": "interfaceID",
          "type": "bytes4"
        }
      ],
      "name": "supportsInterface",
      "outputs": [
        {
          "internalType": "bool",
          "name": "",
          "type": "bool"
        }
      ],
      "stateMutability": "view",
      "type": "function"
    },
    {
      "inputs": [],
      "name": "symbol",
      "outputs": [
        {
          "internalType": "string",
          "name": "",
          "type": "string"
        }
      ],
      "stateMutability": "view",
      "type": "function"
    },
    {
      "inputs": [
        {
          "internalType": "uint256",
          "name": "tokenId",
          "type": "uint256"
        }
      ],
      "name": "tokenURI",
      "outputs": [
        {
          "internalType": "string",
          "name": "",
          "type": "string"
        }
      ],
      "stateMutability": "view",
      "type": "function"
    },
    {
      "inputs": [
        {
          "internalType": "address",
          "name": "from",
          "type": "address"
        },
        {
          "internalType": "address",
          "name": "to",
          "type": "address"
        },
        {
          "internalType": "uint256",
          "name": "tokenId",
          "type": "uint256"
        }
      ],
      "name": "transferFrom",
      "outputs": [],
      "stateMutability": "nonpayable",
      "type": "function"
    },
    {
      "inputs": [
        {
          "internalType": "address",
          "name": "newOwner",
          "type": "address"
        }
      ],
      "name": "transferOwnership",
      "outputs": [],
      "stateMutability": "nonpayable",
      "type": "function"
    },
    {
      "inputs": [],
      "name": "uds",
      "outputs": [
        {
          "internalType": "contract UDS",
          "name": "",
          "type": "address"
        }
      ],
      "stateMutability": "view",
      "type": "function"
    }
  ],
  "bytecode": "0x60806040523480156200001157600080fd5b50604051620035c9380380620035c9833981810160405281019062000037919062000268565b6040518060200160405280600081525060405180602001604052806000815250816000908162000068919062000529565b5080600190816200007a919062000529565b5050506200009d62000091620000f560201b60201c565b620000fd60201b60201c565b80600960006101000a81548173ffffffffffffffffffffffffffffffffffffffff021916908373ffffffffffffffffffffffffffffffffffffffff16021790555081600b819055506000600a81905550505062000610565b600033905090565b6000600660009054906101000a900473ffffffffffffffffffffffffffffffffffffffff16905081600660006101000a81548173ffffffffffffffffffffffffffffffffffffffff021916908373ffffffffffffffffffffffffffffffffffffffff1602179055508173ffffffffffffffffffffffffffffffffffffffff168173ffffffffffffffffffffffffffffffffffffffff167f8be0079c531659141344cd1fd0a4f28419497f9722a3daafe3b4186f6b6457e060405160405180910390a35050565b600080fd5b6000819050919050565b620001dd81620001c8565b8114620001e957600080fd5b50565b600081519050620001fd81620001d2565b92915050565b600073ffffffffffffffffffffffffffffffffffffffff82169050919050565b6000620002308262000203565b9050919050565b620002428162000223565b81146200024e57600080fd5b50565b600081519050620002628162000237565b92915050565b60008060408385031215620002825762000281620001c3565b5b60006200029285828601620001ec565b9250506020620002a58582860162000251565b9150509250929050565b600081519050919050565b7f4e487b7100000000000000000000000000000000000000000000000000000000600052604160045260246000fd5b7f4e487b7100000000000000000000000000000000000000000000000000000000600052602260045260246000fd5b600060028204905060018216806200033157607f821691505b602082108103620003475762000346620002e9565b5b50919050565b60008190508160005260206000209050919050565b60006020601f8301049050919050565b600082821b905092915050565b600060088302620003b17fffffffffffffffffffffffffffffffffffffffffffffffffffffffffffffffff8262000372565b620003bd868362000372565b95508019841693508086168417925050509392505050565b6000819050919050565b6000819050919050565b60006200040a62000404620003fe84620003d5565b620003df565b620003d5565b9050919050565b6000819050919050565b6200042683620003e9565b6200043e620004358262000411565b8484546200037f565b825550505050565b600090565b6200045562000446565b620004628184846200041b565b505050565b5b818110156200048a576200047e6000826200044b565b60018101905062000468565b5050565b601f821115620004d957620004a3816200034d565b620004ae8462000362565b81016020851015620004be578190505b620004d6620004cd8562000362565b83018262000467565b50505b505050565b600082821c905092915050565b6000620004fe60001984600802620004de565b1980831691505092915050565b6000620005198383620004eb565b9150826002028217905092915050565b6200053482620002af565b67ffffffffffffffff81111562000550576200054f620002ba565b5b6200055c825462000318565b620005698282856200048e565b600060209050601f831160018114620005a157600084156200058c578287015190505b6200059885826200050b565b86555062000608565b601f198416620005b1866200034d565b60005b82811015620005db57848901518255600182019150602085019450602081019050620005b4565b86831015620005fb5784890151620005f7601f891682620004eb565b8355505b6001600288020188555050505b505050505050565b612fa980620006206000396000f3fe608060405234801561001057600080fd5b50600436106101585760003560e01c806376969b36116100c3578063c87b56dd1161007c578063c87b56dd146103b1578063da8c229e146103e1578063dbbdf08314610411578063e985e9c514610441578063eca0276314610471578063f2fde38b1461048d57610158565b806376969b36146103015780638da5cb5b1461031f57806395d89b411461033d578063a22cb4651461035b578063b88d4fde14610377578063bbe39bf71461039357610158565b80634420e486116101155780634420e4861461022f5780634e543b261461025f57806359de0deb1461027b5780636352211e1461029757806370a08231146102c7578063715018a6146102f757610158565b806301ffc9a71461015d57806306fdde031461018d578063081812fc146101ab578063095ea7b3146101db57806323b872dd146101f757806342842e0e14610213575b600080fd5b61017760048036038101906101729190611f20565b6104a9565b6040516101849190611f68565b60405180910390f35b61019561075b565b6040516101a29190612013565b60405180910390f35b6101c560048036038101906101c0919061206b565b6107ed565b6040516101d291906120d9565b60405180910390f35b6101f560048036038101906101f09190612120565b610833565b005b610211600480360381019061020c9190612160565b61094a565b005b61022d60048036038101906102289190612160565b6109aa565b005b610249600480360381019061024491906121b3565b6109ca565b60405161025691906121ef565b60405180910390f35b610279600480360381019061027491906121b3565b6109fa565b005b610295600480360381019061029091906121b3565b610a96565b005b6102b160048036038101906102ac919061206b565b610af9565b6040516102be91906120d9565b60405180910390f35b6102e160048036038101906102dc91906121b3565b610baa565b6040516102ee91906121ef565b60405180910390f35b6102ff610c61565b005b610309610c75565b6040516103169190612269565b60405180910390f35b610327610c9b565b60405161033491906120d9565b60405180910390f35b610345610cc5565b6040516103529190612013565b60405180910390f35b610375600480360381019061037091906122b0565b610d57565b005b610391600480360381019061038c9190612425565b610d6d565b005b61039b610dcf565b6040516103a891906124c1565b60405180910390f35b6103cb60048036038101906103c6919061206b565b610dd5565b6040516103d89190612013565b60405180910390f35b6103fb60048036038101906103f691906121b3565b610e3d565b6040516104089190611f68565b60405180910390f35b61042b600480360381019061042691906124dc565b610e5d565b60405161043891906121ef565b60405180910390f35b61045b6004803603810190610456919061251c565b610e73565b6040516104689190611f68565b60405180910390f35b61048b600480360381019061048691906121b3565b610f07565b005b6104a760048036038101906104a291906121b3565b610f6a565b005b60007f01ffc9a7a5cef8baa21ed3c5c0d7e23accb804b619e9333b597f47a0d84076e27bffffffffffffffffffffffffffffffffffffffffffffffffffffffff1916827bffffffffffffffffffffffffffffffffffffffffffffffffffffffff1916148061068457507fb88d4fde60196325a28bb7f99a2582e0b46de55b18761e960c14ad7a320994657f42842e0eb38857a7775b4e7364b2775df7325074d088e7fb39590cd6281184ed7f23b872dd7302113369cda2901243429419bec145408fa8b352b3dd92b66c680b7fe985e9c5c6636c6879256001057b28ccac7718ef0ac56553ff9b926452cab8a37fa22cb4651ab9570f89bb516380c40ce76762284fb1f21337ceaf6adab99e7d4a7f081812fc55e34fdc7cf5d8b5cf4e3621fa6423fde952ec6ab24afdc0d85c0b2e7f095ea7b334ae44009aa867bfb386f5c3b4b443ac6f0ee573fa91c4608fbadfba7f6352211e6566aa027e75ac9dbf2423197fbd9b82b9d981a3ab367d355866aa1c7f70a08231b98ef4ca268c9cc3f6b4590e4bfec28280db06bb5d45e689f2a360be18181818181818187bffffffffffffffffffffffffffffffffffffffffffffffffffffffff1916827bffffffffffffffffffffffffffffffffffffffffffffffffffffffff1916145b806106ec57507f56c708d57e33cc71507c0ab2242d1bed8052197860a551d2b84fd7e949ef74fb7bffffffffffffffffffffffffffffffffffffffffffffffffffffffff1916827bffffffffffffffffffffffffffffffffffffffffffffffffffffffff1916145b8061075457507f28ed4f6c74b219a5819055dfbcd2f1837c046c364cf01fabb6799e4f440d6f137bffffffffffffffffffffffffffffffffffffffffffffffffffffffff1916827bffffffffffffffffffffffffffffffffffffffffffffffffffffffff1916145b9050919050565b60606000805461076a9061258b565b80601f01602080910402602001604051908101604052809291908181526020018280546107969061258b565b80156107e35780601f106107b8576101008083540402835291602001916107e3565b820191906000526020600020905b8154815290600101906020018083116107c657829003601f168201915b5050505050905090565b60006107f882610fed565b6004600083815260200190815260200160002060009054906101000a900473ffffffffffffffffffffffffffffffffffffffff169050919050565b600061083e82610af9565b90508073ffffffffffffffffffffffffffffffffffffffff168373ffffffffffffffffffffffffffffffffffffffff16036108ae576040517f08c379a00000000000000000000000000000000000000000000000000000000081526004016108a59061262e565b60405180910390fd5b8073ffffffffffffffffffffffffffffffffffffffff166108cd611038565b73ffffffffffffffffffffffffffffffffffffffff1614806108fc57506108fb816108f6611038565b610e73565b5b61093b576040517f08c379a0000000000000000000000000000000000000000000000000000000008152600401610932906126c0565b60405180910390fd5b6109458383611040565b505050565b61095b610955611038565b826110f9565b61099a576040517f08c379a000000000000000000000000000000000000000000000000000000000815260040161099190612752565b60405180910390fd5b6109a583838361118e565b505050565b6109c583838360405180602001604052806000815250610d6d565b505050565b600080600a60008154809291906109e0906127a1565b9190505590506109f2818460016113f4565b915050919050565b610a026114a2565b600960009054906101000a900473ffffffffffffffffffffffffffffffffffffffff1673ffffffffffffffffffffffffffffffffffffffff16631896f70a600b54836040518363ffffffff1660e01b8152600401610a619291906127e9565b600060405180830381600087803b158015610a7b57600080fd5b505af1158015610a8f573d6000803e3d6000fd5b5050505050565b610a9e6114a2565b6000600760008373ffffffffffffffffffffffffffffffffffffffff1673ffffffffffffffffffffffffffffffffffffffff16815260200190815260200160002060006101000a81548160ff02191690831515021790555050565b6000806002600084815260200190815260200160002060009054906101000a900473ffffffffffffffffffffffffffffffffffffffff169050600073ffffffffffffffffffffffffffffffffffffffff168173ffffffffffffffffffffffffffffffffffffffff1603610ba1576040517f08c379a0000000000000000000000000000000000000000000000000000000008152600401610b989061285e565b60405180910390fd5b80915050919050565b60008073ffffffffffffffffffffffffffffffffffffffff168273ffffffffffffffffffffffffffffffffffffffff1603610c1a576040517f08c379a0000000000000000000000000000000000000000000000000000000008152600401610c11906128f0565b60405180910390fd5b600360008373ffffffffffffffffffffffffffffffffffffffff1673ffffffffffffffffffffffffffffffffffffffff168152602001908152602001600020549050919050565b610c696114a2565b610c736000611520565b565b600960009054906101000a900473ffffffffffffffffffffffffffffffffffffffff1681565b6000600660009054906101000a900473ffffffffffffffffffffffffffffffffffffffff16905090565b606060018054610cd49061258b565b80601f0160208091040260200160405190810160405280929190818152602001828054610d009061258b565b8015610d4d5780601f10610d2257610100808354040283529160200191610d4d565b820191906000526020600020905b815481529060010190602001808311610d3057829003601f168201915b5050505050905090565b610d69610d62611038565b83836115e6565b5050565b610d7e610d78611038565b836110f9565b610dbd576040517f08c379a0000000000000000000000000000000000000000000000000000000008152600401610db490612752565b60405180910390fd5b610dc984848484611752565b50505050565b600b5481565b6060610de082610fed565b6000610dea6117ae565b90506000815111610e0a5760405180602001604052806000815250610e35565b80610e14846117c5565b604051602001610e2592919061294c565b6040516020818303038152906040525b915050919050565b60076020528060005260406000206000915054906101000a900460ff1681565b6000610e6b838360016113f4565b905092915050565b6000600560008473ffffffffffffffffffffffffffffffffffffffff1673ffffffffffffffffffffffffffffffffffffffff16815260200190815260200160002060008373ffffffffffffffffffffffffffffffffffffffff1673ffffffffffffffffffffffffffffffffffffffff16815260200190815260200160002060009054906101000a900460ff16905092915050565b610f0f6114a2565b6001600760008373ffffffffffffffffffffffffffffffffffffffff1673ffffffffffffffffffffffffffffffffffffffff16815260200190815260200160002060006101000a81548160ff02191690831515021790555050565b610f726114a2565b600073ffffffffffffffffffffffffffffffffffffffff168173ffffffffffffffffffffffffffffffffffffffff1603610fe1576040517f08c379a0000000000000000000000000000000000000000000000000000000008152600401610fd8906129e2565b60405180910390fd5b610fea81611520565b50565b610ff681611925565b611035576040517f08c379a000000000000000000000000000000000000000000000000000000000815260040161102c9061285e565b60405180910390fd5b50565b600033905090565b816004600083815260200190815260200160002060006101000a81548173ffffffffffffffffffffffffffffffffffffffff021916908373ffffffffffffffffffffffffffffffffffffffff160217905550808273ffffffffffffffffffffffffffffffffffffffff166110b383610af9565b73ffffffffffffffffffffffffffffffffffffffff167f8c5be1e5ebec7d5bd14f71427d1e84f3dd0314c0f7b2291e5b200ac8c7c3b92560405160405180910390a45050565b60008061110583610af9565b90508073ffffffffffffffffffffffffffffffffffffffff168473ffffffffffffffffffffffffffffffffffffffff16148061117457508373ffffffffffffffffffffffffffffffffffffffff1661115c846107ed565b73ffffffffffffffffffffffffffffffffffffffff16145b8061118557506111848185610e73565b5b91505092915050565b8273ffffffffffffffffffffffffffffffffffffffff166111ae82610af9565b73ffffffffffffffffffffffffffffffffffffffff1614611204576040517f08c379a00000000000000000000000000000000000000000000000000000000081526004016111fb90612a74565b60405180910390fd5b600073ffffffffffffffffffffffffffffffffffffffff168273ffffffffffffffffffffffffffffffffffffffff1603611273576040517f08c379a000000000000000000000000000000000000000000000000000000000815260040161126a90612b06565b60405180910390fd5b61127e838383611991565b611289600082611040565b6001600360008573ffffffffffffffffffffffffffffffffffffffff1673ffffffffffffffffffffffffffffffffffffffff16815260200190815260200160002060008282546112d99190612b26565b925050819055506001600360008473ffffffffffffffffffffffffffffffffffffffff1673ffffffffffffffffffffffffffffffffffffffff16815260200190815260200160002060008282546113309190612b5a565b92505081905550816002600083815260200190815260200160002060006101000a81548173ffffffffffffffffffffffffffffffffffffffff021916908373ffffffffffffffffffffffffffffffffffffffff160217905550808273ffffffffffffffffffffffffffffffffffffffff168473ffffffffffffffffffffffffffffffffffffffff167fddf252ad1be2c89b69c2b068fc378daa952ba7f163c4a11628f55a4df523b3ef60405160405180910390a46113ef838383611996565b505050565b60006113ff84611925565b1561140e5761140d8461199b565b5b600160086000600a548152602001908152602001600020600086815260200190815260200160002060006101000a81548160ff0219169083151502179055506114578385611ab8565b600060086000600a548152602001908152602001600020600086815260200190815260200160002060006101000a81548160ff021916908315150217905550600a5490509392505050565b6114aa611038565b73ffffffffffffffffffffffffffffffffffffffff166114c8610c9b565b73ffffffffffffffffffffffffffffffffffffffff161461151e576040517f08c379a000000000000000000000000000000000000000000000000000000000815260040161151590612bda565b60405180910390fd5b565b6000600660009054906101000a900473ffffffffffffffffffffffffffffffffffffffff16905081600660006101000a81548173ffffffffffffffffffffffffffffffffffffffff021916908373ffffffffffffffffffffffffffffffffffffffff1602179055508173ffffffffffffffffffffffffffffffffffffffff168173ffffffffffffffffffffffffffffffffffffffff167f8be0079c531659141344cd1fd0a4f28419497f9722a3daafe3b4186f6b6457e060405160405180910390a35050565b8173ffffffffffffffffffffffffffffffffffffffff168373ffffffffffffffffffffffffffffffffffffffff1603611654576040517f08c379a000000000000000000000000000000000000000000000000000000000815260040161164b90612c46565b60405180910390fd5b80600560008573ffffffffffffffffffffffffffffffffffffffff1673ffffffffffffffffffffffffffffffffffffffff16815260200190815260200160002060008473ffffffffffffffffffffffffffffffffffffffff1673ffffffffffffffffffffffffffffffffffffffff16815260200190815260200160002060006101000a81548160ff0219169083151502179055508173ffffffffffffffffffffffffffffffffffffffff168373ffffffffffffffffffffffffffffffffffffffff167f17307eab39ab6107e8899845ad3d59bd9653f200f220920489ca2b5937696c31836040516117459190611f68565b60405180910390a3505050565b61175d84848461118e565b61176984848484611ad6565b6117a8576040517f08c379a000000000000000000000000000000000000000000000000000000000815260040161179f90612cd8565b60405180910390fd5b50505050565b606060405180602001604052806000815250905090565b60606000820361180c576040518060400160405280600181526020017f30000000000000000000000000000000000000000000000000000000000000008152509050611920565b600082905060005b6000821461183e578080611827906127a1565b915050600a826118379190612d27565b9150611814565b60008167ffffffffffffffff81111561185a576118596122fa565b5b6040519080825280601f01601f19166020018201604052801561188c5781602001600182028036833780820191505090505b5090505b60008514611919576001826118a59190612b26565b9150600a856118b49190612d58565b60306118c09190612b5a565b60f81b8183815181106118d6576118d5612d89565b5b60200101907effffffffffffffffffffffffffffffffffffffffffffffffffffffffffffff1916908160001a905350600a856119129190612d27565b9450611890565b8093505050505b919050565b60008073ffffffffffffffffffffffffffffffffffffffff166002600084815260200190815260200160002060009054906101000a900473ffffffffffffffffffffffffffffffffffffffff1673ffffffffffffffffffffffffffffffffffffffff1614159050919050565b505050565b505050565b60006119a682610af9565b90506119b481600084611991565b6119bf600083611040565b6001600360008373ffffffffffffffffffffffffffffffffffffffff1673ffffffffffffffffffffffffffffffffffffffff1681526020019081526020016000206000828254611a0f9190612b26565b925050819055506002600083815260200190815260200160002060006101000a81549073ffffffffffffffffffffffffffffffffffffffff021916905581600073ffffffffffffffffffffffffffffffffffffffff168273ffffffffffffffffffffffffffffffffffffffff167fddf252ad1be2c89b69c2b068fc378daa952ba7f163c4a11628f55a4df523b3ef60405160405180910390a4611ab481600084611996565b5050565b611ad2828260405180602001604052806000815250611c5d565b5050565b6000611af78473ffffffffffffffffffffffffffffffffffffffff16611cb8565b15611c50578373ffffffffffffffffffffffffffffffffffffffff1663150b7a02611b20611038565b8786866040518563ffffffff1660e01b8152600401611b429493929190612e0d565b6020604051808303816000875af1925050508015611b7e57506040513d601f19601f82011682018060405250810190611b7b9190612e6e565b60015b611c00573d8060008114611bae576040519150601f19603f3d011682016040523d82523d6000602084013e611bb3565b606091505b506000815103611bf8576040517f08c379a0000000000000000000000000000000000000000000000000000000008152600401611bef90612cd8565b60405180910390fd5b805181602001fd5b63150b7a0260e01b7bffffffffffffffffffffffffffffffffffffffffffffffffffffffff1916817bffffffffffffffffffffffffffffffffffffffffffffffffffffffff191614915050611c55565b600190505b949350505050565b611c678383611cdb565b611c746000848484611ad6565b611cb3576040517f08c379a0000000000000000000000000000000000000000000000000000000008152600401611caa90612cd8565b60405180910390fd5b505050565b6000808273ffffffffffffffffffffffffffffffffffffffff163b119050919050565b600073ffffffffffffffffffffffffffffffffffffffff168273ffffffffffffffffffffffffffffffffffffffff1603611d4a576040517f08c379a0000000000000000000000000000000000000000000000000000000008152600401611d4190612ee7565b60405180910390fd5b611d5381611925565b15611d93576040517f08c379a0000000000000000000000000000000000000000000000000000000008152600401611d8a90612f53565b60405180910390fd5b611d9f60008383611991565b6001600360008473ffffffffffffffffffffffffffffffffffffffff1673ffffffffffffffffffffffffffffffffffffffff1681526020019081526020016000206000828254611def9190612b5a565b92505081905550816002600083815260200190815260200160002060006101000a81548173ffffffffffffffffffffffffffffffffffffffff021916908373ffffffffffffffffffffffffffffffffffffffff160217905550808273ffffffffffffffffffffffffffffffffffffffff16600073ffffffffffffffffffffffffffffffffffffffff167fddf252ad1be2c89b69c2b068fc378daa952ba7f163c4a11628f55a4df523b3ef60405160405180910390a4611eb060008383611996565b5050565b6000604051905090565b600080fd5b600080fd5b60007fffffffff0000000000000000000000000000000000000000000000000000000082169050919050565b611efd81611ec8565b8114611f0857600080fd5b50565b600081359050611f1a81611ef4565b92915050565b600060208284031215611f3657611f35611ebe565b5b6000611f4484828501611f0b565b91505092915050565b60008115159050919050565b611f6281611f4d565b82525050565b6000602082019050611f7d6000830184611f59565b92915050565b600081519050919050565b600082825260208201905092915050565b60005b83811015611fbd578082015181840152602081019050611fa2565b60008484015250505050565b6000601f19601f8301169050919050565b6000611fe582611f83565b611fef8185611f8e565b9350611fff818560208601611f9f565b61200881611fc9565b840191505092915050565b6000602082019050818103600083015261202d8184611fda565b905092915050565b6000819050919050565b61204881612035565b811461205357600080fd5b50565b6000813590506120658161203f565b92915050565b60006020828403121561208157612080611ebe565b5b600061208f84828501612056565b91505092915050565b600073ffffffffffffffffffffffffffffffffffffffff82169050919050565b60006120c382612098565b9050919050565b6120d3816120b8565b82525050565b60006020820190506120ee60008301846120ca565b92915050565b6120fd816120b8565b811461210857600080fd5b50565b60008135905061211a816120f4565b92915050565b6000806040838503121561213757612136611ebe565b5b60006121458582860161210b565b925050602061215685828601612056565b9150509250929050565b60008060006060848603121561217957612178611ebe565b5b60006121878682870161210b565b93505060206121988682870161210b565b92505060406121a986828701612056565b9150509250925092565b6000602082840312156121c9576121c8611ebe565b5b60006121d78482850161210b565b91505092915050565b6121e981612035565b82525050565b600060208201905061220460008301846121e0565b92915050565b6000819050919050565b600061222f61222a61222584612098565b61220a565b612098565b9050919050565b600061224182612214565b9050919050565b600061225382612236565b9050919050565b61226381612248565b82525050565b600060208201905061227e600083018461225a565b92915050565b61228d81611f4d565b811461229857600080fd5b50565b6000813590506122aa81612284565b92915050565b600080604083850312156122c7576122c6611ebe565b5b60006122d58582860161210b565b92505060206122e68582860161229b565b9150509250929050565b600080fd5b600080fd5b7f4e487b7100000000000000000000000000000000000000000000000000000000600052604160045260246000fd5b61233282611fc9565b810181811067ffffffffffffffff82111715612351576123506122fa565b5b80604052505050565b6000612364611eb4565b90506123708282612329565b919050565b600067ffffffffffffffff8211156123905761238f6122fa565b5b61239982611fc9565b9050602081019050919050565b82818337600083830152505050565b60006123c86123c384612375565b61235a565b9050828152602081018484840111156123e4576123e36122f5565b5b6123ef8482856123a6565b509392505050565b600082601f83011261240c5761240b6122f0565b5b813561241c8482602086016123b5565b91505092915050565b6000806000806080858703121561243f5761243e611ebe565b5b600061244d8782880161210b565b945050602061245e8782880161210b565b935050604061246f87828801612056565b925050606085013567ffffffffffffffff8111156124905761248f611ec3565b5b61249c878288016123f7565b91505092959194509250565b6000819050919050565b6124bb816124a8565b82525050565b60006020820190506124d660008301846124b2565b92915050565b600080604083850312156124f3576124f2611ebe565b5b600061250185828601612056565b92505060206125128582860161210b565b9150509250929050565b6000806040838503121561253357612532611ebe565b5b60006125418582860161210b565b92505060206125528582860161210b565b9150509250929050565b7f4e487b7100000000000000000000000000000000000000000000000000000000600052602260045260246000fd5b600060028204905060018216806125a357607f821691505b6020821081036125b6576125b561255c565b5b50919050565b7f4552433732313a20617070726f76616c20746f2063757272656e74206f776e6560008201527f7200000000000000000000000000000000000000000000000000000000000000602082015250565b6000612618602183611f8e565b9150612623826125bc565b604082019050919050565b600060208201905081810360008301526126478161260b565b9050919050565b7f4552433732313a20617070726f76652063616c6c6572206973206e6f7420746f60008201527f6b656e206f776e6572206e6f7220617070726f76656420666f7220616c6c0000602082015250565b60006126aa603e83611f8e565b91506126b58261264e565b604082019050919050565b600060208201905081810360008301526126d98161269d565b9050919050565b7f4552433732313a2063616c6c6572206973206e6f7420746f6b656e206f776e6560008201527f72206e6f7220617070726f766564000000000000000000000000000000000000602082015250565b600061273c602e83611f8e565b9150612747826126e0565b604082019050919050565b6000602082019050818103600083015261276b8161272f565b9050919050565b7f4e487b7100000000000000000000000000000000000000000000000000000000600052601160045260246000fd5b60006127ac82612035565b91507fffffffffffffffffffffffffffffffffffffffffffffffffffffffffffffffff82036127de576127dd612772565b5b600182019050919050565b60006040820190506127fe60008301856124b2565b61280b60208301846120ca565b9392505050565b7f4552433732313a20696e76616c696420746f6b656e2049440000000000000000600082015250565b6000612848601883611f8e565b915061285382612812565b602082019050919050565b600060208201905081810360008301526128778161283b565b9050919050565b7f4552433732313a2061646472657373207a65726f206973206e6f74206120766160008201527f6c6964206f776e65720000000000000000000000000000000000000000000000602082015250565b60006128da602983611f8e565b91506128e58261287e565b604082019050919050565b60006020820190508181036000830152612909816128cd565b9050919050565b600081905092915050565b600061292682611f83565b6129308185612910565b9350612940818560208601611f9f565b80840191505092915050565b6000612958828561291b565b9150612964828461291b565b91508190509392505050565b7f4f776e61626c653a206e6577206f776e657220697320746865207a65726f206160008201527f6464726573730000000000000000000000000000000000000000000000000000602082015250565b60006129cc602683611f8e565b91506129d782612970565b604082019050919050565b600060208201905081810360008301526129fb816129bf565b9050919050565b7f4552433732313a207472616e736665722066726f6d20696e636f72726563742060008201527f6f776e6572000000000000000000000000000000000000000000000000000000602082015250565b6000612a5e602583611f8e565b9150612a6982612a02565b604082019050919050565b60006020820190508181036000830152612a8d81612a51565b9050919050565b7f4552433732313a207472616e7366657220746f20746865207a65726f2061646460008201527f7265737300000000000000000000000000000000000000000000000000000000602082015250565b6000612af0602483611f8e565b9150612afb82612a94565b604082019050919050565b60006020820190508181036000830152612b1f81612ae3565b9050919050565b6000612b3182612035565b9150612b3c83612035565b9250828203905081811115612b5457612b53612772565b5b92915050565b6000612b6582612035565b9150612b7083612035565b9250828201905080821115612b8857612b87612772565b5b92915050565b7f4f776e61626c653a2063616c6c6572206973206e6f7420746865206f776e6572600082015250565b6000612bc4602083611f8e565b9150612bcf82612b8e565b602082019050919050565b60006020820190508181036000830152612bf381612bb7565b9050919050565b7f4552433732313a20617070726f766520746f2063616c6c657200000000000000600082015250565b6000612c30601983611f8e565b9150612c3b82612bfa565b602082019050919050565b60006020820190508181036000830152612c5f81612c23565b9050919050565b7f4552433732313a207472616e7366657220746f206e6f6e20455243373231526560008201527f63656976657220696d706c656d656e7465720000000000000000000000000000602082015250565b6000612cc2603283611f8e565b9150612ccd82612c66565b604082019050919050565b60006020820190508181036000830152612cf181612cb5565b9050919050565b7f4e487b7100000000000000000000000000000000000000000000000000000000600052601260045260246000fd5b6000612d3282612035565b9150612d3d83612035565b925082612d4d57612d4c612cf8565b5b828204905092915050565b6000612d6382612035565b9150612d6e83612035565b925082612d7e57612d7d612cf8565b5b828206905092915050565b7f4e487b7100000000000000000000000000000000000000000000000000000000600052603260045260246000fd5b600081519050919050565b600082825260208201905092915050565b6000612ddf82612db8565b612de98185612dc3565b9350612df9818560208601611f9f565b612e0281611fc9565b840191505092915050565b6000608082019050612e2260008301876120ca565b612e2f60208301866120ca565b612e3c60408301856121e0565b8181036060830152612e4e8184612dd4565b905095945050505050565b600081519050612e6881611ef4565b92915050565b600060208284031215612e8457612e83611ebe565b5b6000612e9284828501612e59565b91505092915050565b7f4552433732313a206d696e7420746f20746865207a65726f2061646472657373600082015250565b6000612ed1602083611f8e565b9150612edc82612e9b565b602082019050919050565b60006020820190508181036000830152612f0081612ec4565b9050919050565b7f4552433732313a20746f6b656e20616c7265616479206d696e74656400000000600082015250565b6000612f3d601c83611f8e565b9150612f4882612f07565b602082019050919050565b60006020820190508181036000830152612f6c81612f30565b905091905056fea264697066735822122059d06016b0eceaf605be633ad1bd1c7b987b3d67079b82e288371d254114ea1e64736f6c63430008100033",
  "linkReferences": {},
  "deployedLinkReferences": {}
}