{
  "_format": "hh-sol-artifact-1",
  "contractName": "AKXGateway",
  "sourceName": "contracts/proxies/AKXGateway.sol",
  "abi": [
    {
      "inputs": [
        {
          "internalType": "address",
          "name": "labzToken",
          "type": "address"
        },
        {
          "internalType": "address",
          "name": "vipToken",
          "type": "address"
        },
        {
          "internalType": "address",
          "name": "uds",
          "type": "address"
        },
        {
          "internalType": "address",
          "name": "_implementation",
          "type": "address"
        },
        {
          "internalType": "bytes",
          "name": "_data",
          "type": "bytes"
        }
      ],
      "stateMutability": "nonpayable",
      "type": "constructor"
    },
    {
      "anonymous": false,
      "inputs": [
        {
          "indexed": false,
          "internalType": "address",
          "name": "previousAdmin",
          "type": "address"
        },
        {
          "indexed": false,
          "internalType": "address",
          "name": "newAdmin",
          "type": "address"
        }
      ],
      "name": "AdminChanged",
      "type": "event"
    },
    {
      "anonymous": false,
      "inputs": [
        {
          "indexed": true,
          "internalType": "address",
          "name": "beacon",
          "type": "address"
        }
      ],
      "name": "BeaconUpgraded",
      "type": "event"
    },
    {
      "anonymous": false,
      "inputs": [
        {
          "indexed": true,
          "internalType": "address",
          "name": "implementation",
          "type": "address"
        }
      ],
      "name": "Upgraded",
      "type": "event"
    },
    {
      "stateMutability": "payable",
      "type": "fallback"
    },
    {
      "inputs": [],
      "name": "state",
      "outputs": [
        {
          "internalType": "bytes32",
          "name": "",
          "type": "bytes32"
        }
      ],
      "stateMutability": "view",
      "type": "function"
    },
    {
      "stateMutability": "payable",
      "type": "receive"
    }
  ],
  "bytecode": "0x60806040523480156200001157600080fd5b5060405162000e7238038062000e728339818101604052810190620000379190620005cf565b81816200004d82826000620000b460201b60201c565b50506040516020016200006090620006d1565b604051602081830303815290604052805190602001206000819055506040516020016200008d9062000738565b60405160208183030381529060405280519060200120600181905550505050505062000966565b620000c583620000f760201b60201c565b600082511180620000d35750805b15620000f257620000f083836200014e60201b620000861760201c565b505b505050565b62000108816200018460201b60201c565b8073ffffffffffffffffffffffffffffffffffffffff167fbc7cd75a20ee27fd9adebab32041f755214dbc6bffa90cc0225b39da2e5c2d3b60405160405180910390a250565b60606200017c838360405180606001604052806027815260200162000e4b602791396200025a60201b60201c565b905092915050565b6200019a816200033e60201b620000b31760201c565b620001dc576040517f08c379a0000000000000000000000000000000000000000000000000000000008152600401620001d390620007d6565b60405180910390fd5b80620002167f360894a13ba1a3210667c828492db98dca3e2076cc3735a920a3ca505d382bbc60001b6200036160201b620000d61760201c565b60000160006101000a81548173ffffffffffffffffffffffffffffffffffffffff021916908373ffffffffffffffffffffffffffffffffffffffff16021790555050565b60606200026d846200033e60201b60201c565b620002af576040517f08c379a0000000000000000000000000000000000000000000000000000000008152600401620002a6906200086e565b60405180910390fd5b6000808573ffffffffffffffffffffffffffffffffffffffff1685604051620002d99190620008dd565b600060405180830381855af49150503d806000811462000316576040519150601f19603f3d011682016040523d82523d6000602084013e6200031b565b606091505b5091509150620003338282866200036b60201b60201c565b925050509392505050565b6000808273ffffffffffffffffffffffffffffffffffffffff163b119050919050565b6000819050919050565b606083156200037d57829050620003d0565b600083511115620003915782518084602001fd5b816040517f08c379a0000000000000000000000000000000000000000000000000000000008152600401620003c7919062000942565b60405180910390fd5b9392505050565b6000604051905090565b600080fd5b600080fd5b600073ffffffffffffffffffffffffffffffffffffffff82169050919050565b60006200041882620003eb565b9050919050565b6200042a816200040b565b81146200043657600080fd5b50565b6000815190506200044a816200041f565b92915050565b600080fd5b600080fd5b6000601f19601f8301169050919050565b7f4e487b7100000000000000000000000000000000000000000000000000000000600052604160045260246000fd5b620004a5826200045a565b810181811067ffffffffffffffff82111715620004c757620004c66200046b565b5b80604052505050565b6000620004dc620003d7565b9050620004ea82826200049a565b919050565b600067ffffffffffffffff8211156200050d576200050c6200046b565b5b62000518826200045a565b9050602081019050919050565b60005b838110156200054557808201518184015260208101905062000528565b60008484015250505050565b6000620005686200056284620004ef565b620004d0565b90508281526020810184848401111562000587576200058662000455565b5b6200059484828562000525565b509392505050565b600082601f830112620005b457620005b362000450565b5b8151620005c684826020860162000551565b91505092915050565b600080600080600060a08688031215620005ee57620005ed620003e1565b5b6000620005fe8882890162000439565b9550506020620006118882890162000439565b9450506040620006248882890162000439565b9350506060620006378882890162000439565b925050608086015167ffffffffffffffff8111156200065b576200065a620003e6565b5b62000669888289016200059c565b9150509295509295909350565b600081905092915050565b7f53544154455f494e495400000000000000000000000000000000000000000000600082015250565b6000620006b9600a8362000676565b9150620006c68262000681565b600a82019050919050565b6000620006de82620006aa565b9150819050919050565b7f53544154455f5041555345440000000000000000000000000000000000000000600082015250565b600062000720600c8362000676565b91506200072d82620006e8565b600c82019050919050565b6000620007458262000711565b9150819050919050565b600082825260208201905092915050565b7f455243313936373a206e657720696d706c656d656e746174696f6e206973206e60008201527f6f74206120636f6e747261637400000000000000000000000000000000000000602082015250565b6000620007be602d836200074f565b9150620007cb8262000760565b604082019050919050565b60006020820190508181036000830152620007f181620007af565b9050919050565b7f416464726573733a2064656c65676174652063616c6c20746f206e6f6e2d636f60008201527f6e74726163740000000000000000000000000000000000000000000000000000602082015250565b6000620008566026836200074f565b91506200086382620007f8565b604082019050919050565b60006020820190508181036000830152620008898162000847565b9050919050565b600081519050919050565b600081905092915050565b6000620008b38262000890565b620008bf81856200089b565b9350620008d181856020860162000525565b80840191505092915050565b6000620008eb8284620008a6565b915081905092915050565b600081519050919050565b60006200090e82620008f6565b6200091a81856200074f565b93506200092c81856020860162000525565b62000937816200045a565b840191505092915050565b600060208201905081810360008301526200095e818462000901565b905092915050565b6104d580620009766000396000f3fe6080604052600436106100225760003560e01c8063c19d93fb1461003b57610031565b366100315761002f610066565b005b610039610066565b005b34801561004757600080fd5b50610050610080565b60405161005d91906102bb565b60405180910390f35b61006e6100e0565b61007e6100796100e2565b6100f1565b565b60005481565b60606100ab838360405180606001604052806027815260200161047960279139610117565b905092915050565b6000808273ffffffffffffffffffffffffffffffffffffffff163b119050919050565b6000819050919050565b565b60006100ec6101e4565b905090565b3660008037600080366000845af43d6000803e8060008114610112573d6000f35b3d6000fd5b6060610122846100b3565b610161576040517f08c379a000000000000000000000000000000000000000000000000000000000815260040161015890610359565b60405180910390fd5b6000808573ffffffffffffffffffffffffffffffffffffffff168560405161018991906103ea565b600060405180830381855af49150503d80600081146101c4576040519150601f19603f3d011682016040523d82523d6000602084013e6101c9565b606091505b50915091506101d982828661023b565b925050509392505050565b60006102127f360894a13ba1a3210667c828492db98dca3e2076cc3735a920a3ca505d382bbc60001b6100d6565b60000160009054906101000a900473ffffffffffffffffffffffffffffffffffffffff16905090565b6060831561024b5782905061029b565b60008351111561025e5782518084602001fd5b816040517f08c379a00000000000000000000000000000000000000000000000000000000081526004016102929190610456565b60405180910390fd5b9392505050565b6000819050919050565b6102b5816102a2565b82525050565b60006020820190506102d060008301846102ac565b92915050565b600082825260208201905092915050565b7f416464726573733a2064656c65676174652063616c6c20746f206e6f6e2d636f60008201527f6e74726163740000000000000000000000000000000000000000000000000000602082015250565b60006103436026836102d6565b915061034e826102e7565b604082019050919050565b6000602082019050818103600083015261037281610336565b9050919050565b600081519050919050565b600081905092915050565b60005b838110156103ad578082015181840152602081019050610392565b60008484015250505050565b60006103c482610379565b6103ce8185610384565b93506103de81856020860161038f565b80840191505092915050565b60006103f682846103b9565b915081905092915050565b600081519050919050565b6000601f19601f8301169050919050565b600061042882610401565b61043281856102d6565b935061044281856020860161038f565b61044b8161040c565b840191505092915050565b60006020820190508181036000830152610470818461041d565b90509291505056fe416464726573733a206c6f772d6c6576656c2064656c65676174652063616c6c206661696c6564a264697066735822122009de00cdcbb4d298e7fc9cb7ab910c4c8b4308a6a96d88b688646b8efe0f92fe64736f6c63430008100033416464726573733a206c6f772d6c6576656c2064656c65676174652063616c6c206661696c6564",
  "linkReferences": {},
  "deployedLinkReferences": {}
}